{
	"contracts/7_math_operations.sol": {
		"MathOperations": {
			"abi": [
				{
					"inputs": [
						{
							"internalType": "uint256",
							"name": "a",
							"type": "uint256"
						},
						{
							"internalType": "uint256",
							"name": "b",
							"type": "uint256"
						},
						{
							"internalType": "uint256",
							"name": "c",
							"type": "uint256"
						}
					],
					"name": "_addmod",
					"outputs": [
						{
							"internalType": "uint256",
							"name": "",
							"type": "uint256"
						}
					],
					"stateMutability": "pure",
					"type": "function"
				},
				{
					"inputs": [
						{
							"internalType": "uint256",
							"name": "a",
							"type": "uint256"
						},
						{
							"internalType": "uint256",
							"name": "b",
							"type": "uint256"
						},
						{
							"internalType": "uint256",
							"name": "c",
							"type": "uint256"
						}
					],
					"name": "_mulmod",
					"outputs": [
						{
							"internalType": "uint256",
							"name": "",
							"type": "uint256"
						}
					],
					"stateMutability": "pure",
					"type": "function"
				},
				{
					"inputs": [
						{
							"internalType": "uint256",
							"name": "a",
							"type": "uint256"
						},
						{
							"internalType": "uint256",
							"name": "b",
							"type": "uint256"
						}
					],
					"name": "division",
					"outputs": [
						{
							"internalType": "uint256",
							"name": "",
							"type": "uint256"
						}
					],
					"stateMutability": "pure",
					"type": "function"
				},
				{
					"inputs": [
						{
							"internalType": "uint256",
							"name": "a",
							"type": "uint256"
						},
						{
							"internalType": "uint256",
							"name": "b",
							"type": "uint256"
						}
					],
					"name": "module",
					"outputs": [
						{
							"internalType": "uint256",
							"name": "",
							"type": "uint256"
						}
					],
					"stateMutability": "pure",
					"type": "function"
				},
				{
					"inputs": [
						{
							"internalType": "uint256",
							"name": "a",
							"type": "uint256"
						},
						{
							"internalType": "uint256",
							"name": "b",
							"type": "uint256"
						}
					],
					"name": "pow",
					"outputs": [
						{
							"internalType": "uint256",
							"name": "",
							"type": "uint256"
						}
					],
					"stateMutability": "pure",
					"type": "function"
				},
				{
					"inputs": [
						{
							"internalType": "uint256",
							"name": "a",
							"type": "uint256"
						},
						{
							"internalType": "uint256",
							"name": "b",
							"type": "uint256"
						}
					],
					"name": "product",
					"outputs": [
						{
							"internalType": "uint256",
							"name": "",
							"type": "uint256"
						}
					],
					"stateMutability": "pure",
					"type": "function"
				},
				{
					"inputs": [
						{
							"internalType": "uint256",
							"name": "a",
							"type": "uint256"
						},
						{
							"internalType": "uint256",
							"name": "b",
							"type": "uint256"
						}
					],
					"name": "substract",
					"outputs": [
						{
							"internalType": "uint256",
							"name": "",
							"type": "uint256"
						}
					],
					"stateMutability": "pure",
					"type": "function"
				},
				{
					"inputs": [
						{
							"internalType": "uint256",
							"name": "a",
							"type": "uint256"
						},
						{
							"internalType": "uint256",
							"name": "b",
							"type": "uint256"
						}
					],
					"name": "sum",
					"outputs": [
						{
							"internalType": "uint256",
							"name": "",
							"type": "uint256"
						}
					],
					"stateMutability": "pure",
					"type": "function"
				}
			],
			"devdoc": {
				"kind": "dev",
				"methods": {},
				"version": 1
			},
			"evm": {
				"assembly": "    /* \"contracts/7_math_operations.sol\":69:885  contract MathOperations {... */\n  mstore(0x40, 0x80)\n  callvalue\n  dup1\n  iszero\n  tag_1\n  jumpi\n  0x00\n  dup1\n  revert\ntag_1:\n  pop\n  dataSize(sub_0)\n  dup1\n  dataOffset(sub_0)\n  0x00\n  codecopy\n  0x00\n  return\nstop\n\nsub_0: assembly {\n        /* \"contracts/7_math_operations.sol\":69:885  contract MathOperations {... */\n      mstore(0x40, 0x80)\n      callvalue\n      dup1\n      iszero\n      tag_1\n      jumpi\n      0x00\n      dup1\n      revert\n    tag_1:\n      pop\n      jumpi(tag_2, lt(calldatasize, 0x04))\n      shr(0xe0, calldataload(0x00))\n      dup1\n      0xba88c3b7\n      gt\n      tag_11\n      jumpi\n      dup1\n      0xba88c3b7\n      eq\n      tag_7\n      jumpi\n      dup1\n      0xcad0899b\n      eq\n      tag_8\n      jumpi\n      dup1\n      0xdd125e37\n      eq\n      tag_9\n      jumpi\n      dup1\n      0xe0068052\n      eq\n      tag_10\n      jumpi\n      jump(tag_2)\n    tag_11:\n      dup1\n      0x2e4c697f\n      eq\n      tag_3\n      jumpi\n      dup1\n      0x49175e4b\n      eq\n      tag_4\n      jumpi\n      dup1\n      0x5d4e1e5c\n      eq\n      tag_5\n      jumpi\n      dup1\n      0x871f9af4\n      eq\n      tag_6\n      jumpi\n    tag_2:\n      0x00\n      dup1\n      revert\n        /* \"contracts/7_math_operations.sol\":479:563  function pow(uint a, uint b) public pure returns (uint) {... */\n    tag_3:\n      tag_12\n      0x04\n      dup1\n      calldatasize\n      sub\n      dup2\n      add\n      swap1\n      tag_13\n      swap2\n      swap1\n      tag_14\n      jump\t// in\n    tag_13:\n      tag_15\n      jump\t// in\n    tag_12:\n      mload(0x40)\n      tag_16\n      swap2\n      swap1\n      tag_17\n      jump\t// in\n    tag_16:\n      mload(0x40)\n      dup1\n      swap2\n      sub\n      swap1\n      return\n        /* \"contracts/7_math_operations.sol\":569:657  function module(uint a, uint b) public pure returns (uint) {... */\n    tag_4:\n      tag_18\n      0x04\n      dup1\n      calldatasize\n      sub\n      dup2\n      add\n      swap1\n      tag_19\n      swap2\n      swap1\n      tag_14\n      jump\t// in\n    tag_19:\n      tag_20\n      jump\t// in\n    tag_18:\n      mload(0x40)\n      tag_21\n      swap2\n      swap1\n      tag_17\n      jump\t// in\n    tag_21:\n      mload(0x40)\n      dup1\n      swap2\n      sub\n      swap1\n      return\n        /* \"contracts/7_math_operations.sol\":191:282  function substract(uint a, uint b) public pure returns (uint) {... */\n    tag_5:\n      tag_22\n      0x04\n      dup1\n      calldatasize\n      sub\n      dup2\n      add\n      swap1\n      tag_23\n      swap2\n      swap1\n      tag_14\n      jump\t// in\n    tag_23:\n      tag_24\n      jump\t// in\n    tag_22:\n      mload(0x40)\n      tag_25\n      swap2\n      swap1\n      tag_17\n      jump\t// in\n    tag_25:\n      mload(0x40)\n      dup1\n      swap2\n      sub\n      swap1\n      return\n        /* \"contracts/7_math_operations.sol\":776:883  function _mulmod(uint a, uint b, uint c) public pure returns (uint) {... */\n    tag_6:\n      tag_26\n      0x04\n      dup1\n      calldatasize\n      sub\n      dup2\n      add\n      swap1\n      tag_27\n      swap2\n      swap1\n      tag_28\n      jump\t// in\n    tag_27:\n      tag_29\n      jump\t// in\n    tag_26:\n      mload(0x40)\n      tag_30\n      swap2\n      swap1\n      tag_17\n      jump\t// in\n    tag_30:\n      mload(0x40)\n      dup1\n      swap2\n      sub\n      swap1\n      return\n        /* \"contracts/7_math_operations.sol\":288:377  function product(uint a, uint b) public pure returns (uint) {... */\n    tag_7:\n      tag_31\n      0x04\n      dup1\n      calldatasize\n      sub\n      dup2\n      add\n      swap1\n      tag_32\n      swap2\n      swap1\n      tag_14\n      jump\t// in\n    tag_32:\n      tag_33\n      jump\t// in\n    tag_31:\n      mload(0x40)\n      tag_34\n      swap2\n      swap1\n      tag_17\n      jump\t// in\n    tag_34:\n      mload(0x40)\n      dup1\n      swap2\n      sub\n      swap1\n      return\n        /* \"contracts/7_math_operations.sol\":100:185  function sum(uint a, uint b) public pure returns (uint) {... */\n    tag_8:\n      tag_35\n      0x04\n      dup1\n      calldatasize\n      sub\n      dup2\n      add\n      swap1\n      tag_36\n      swap2\n      swap1\n      tag_14\n      jump\t// in\n    tag_36:\n      tag_37\n      jump\t// in\n    tag_35:\n      mload(0x40)\n      tag_38\n      swap2\n      swap1\n      tag_17\n      jump\t// in\n    tag_38:\n      mload(0x40)\n      dup1\n      swap2\n      sub\n      swap1\n      return\n        /* \"contracts/7_math_operations.sol\":663:770  function _addmod(uint a, uint b, uint c) public pure returns (uint) {... */\n    tag_9:\n      tag_39\n      0x04\n      dup1\n      calldatasize\n      sub\n      dup2\n      add\n      swap1\n      tag_40\n      swap2\n      swap1\n      tag_28\n      jump\t// in\n    tag_40:\n      tag_41\n      jump\t// in\n    tag_39:\n      mload(0x40)\n      tag_42\n      swap2\n      swap1\n      tag_17\n      jump\t// in\n    tag_42:\n      mload(0x40)\n      dup1\n      swap2\n      sub\n      swap1\n      return\n        /* \"contracts/7_math_operations.sol\":383:473  function division(uint a, uint b) public pure returns (uint) {... */\n    tag_10:\n      tag_43\n      0x04\n      dup1\n      calldatasize\n      sub\n      dup2\n      add\n      swap1\n      tag_44\n      swap2\n      swap1\n      tag_14\n      jump\t// in\n    tag_44:\n      tag_45\n      jump\t// in\n    tag_43:\n      mload(0x40)\n      tag_46\n      swap2\n      swap1\n      tag_17\n      jump\t// in\n    tag_46:\n      mload(0x40)\n      dup1\n      swap2\n      sub\n      swap1\n      return\n        /* \"contracts/7_math_operations.sol\":479:563  function pow(uint a, uint b) public pure returns (uint) {... */\n    tag_15:\n        /* \"contracts/7_math_operations.sol\":529:533  uint */\n      0x00\n        /* \"contracts/7_math_operations.sol\":555:556  b */\n      dup2\n        /* \"contracts/7_math_operations.sol\":552:553  a */\n      dup4\n        /* \"contracts/7_math_operations.sol\":552:556  a**b */\n      tag_48\n      swap2\n      swap1\n      tag_49\n      jump\t// in\n    tag_48:\n        /* \"contracts/7_math_operations.sol\":545:556  return a**b */\n      swap1\n      pop\n        /* \"contracts/7_math_operations.sol\":479:563  function pow(uint a, uint b) public pure returns (uint) {... */\n      swap3\n      swap2\n      pop\n      pop\n      jump\t// out\n        /* \"contracts/7_math_operations.sol\":569:657  function module(uint a, uint b) public pure returns (uint) {... */\n    tag_20:\n        /* \"contracts/7_math_operations.sol\":622:626  uint */\n      0x00\n        /* \"contracts/7_math_operations.sol\":649:650  b */\n      dup2\n        /* \"contracts/7_math_operations.sol\":645:646  a */\n      dup4\n        /* \"contracts/7_math_operations.sol\":645:650  a % b */\n      tag_51\n      swap2\n      swap1\n      tag_52\n      jump\t// in\n    tag_51:\n        /* \"contracts/7_math_operations.sol\":638:650  return a % b */\n      swap1\n      pop\n        /* \"contracts/7_math_operations.sol\":569:657  function module(uint a, uint b) public pure returns (uint) {... */\n      swap3\n      swap2\n      pop\n      pop\n      jump\t// out\n        /* \"contracts/7_math_operations.sol\":191:282  function substract(uint a, uint b) public pure returns (uint) {... */\n    tag_24:\n        /* \"contracts/7_math_operations.sol\":247:251  uint */\n      0x00\n        /* \"contracts/7_math_operations.sol\":274:275  b */\n      dup2\n        /* \"contracts/7_math_operations.sol\":270:271  a */\n      dup4\n        /* \"contracts/7_math_operations.sol\":270:275  a - b */\n      tag_54\n      swap2\n      swap1\n      tag_55\n      jump\t// in\n    tag_54:\n        /* \"contracts/7_math_operations.sol\":263:275  return a - b */\n      swap1\n      pop\n        /* \"contracts/7_math_operations.sol\":191:282  function substract(uint a, uint b) public pure returns (uint) {... */\n      swap3\n      swap2\n      pop\n      pop\n      jump\t// out\n        /* \"contracts/7_math_operations.sol\":776:883  function _mulmod(uint a, uint b, uint c) public pure returns (uint) {... */\n    tag_29:\n        /* \"contracts/7_math_operations.sol\":838:842  uint */\n      0x00\n        /* \"contracts/7_math_operations.sol\":874:875  c */\n      dup2\n        /* \"contracts/7_math_operations.sol\":861:876  mulmod(a, b, c) */\n      dup1\n      tag_57\n      jumpi\n      tag_58\n      tag_59\n      jump\t// in\n    tag_58:\n    tag_57:\n        /* \"contracts/7_math_operations.sol\":871:872  b */\n      dup4\n        /* \"contracts/7_math_operations.sol\":868:869  a */\n      dup6\n        /* \"contracts/7_math_operations.sol\":861:876  mulmod(a, b, c) */\n      mulmod\n        /* \"contracts/7_math_operations.sol\":854:876  return mulmod(a, b, c) */\n      swap1\n      pop\n        /* \"contracts/7_math_operations.sol\":776:883  function _mulmod(uint a, uint b, uint c) public pure returns (uint) {... */\n      swap4\n      swap3\n      pop\n      pop\n      pop\n      jump\t// out\n        /* \"contracts/7_math_operations.sol\":288:377  function product(uint a, uint b) public pure returns (uint) {... */\n    tag_33:\n        /* \"contracts/7_math_operations.sol\":342:346  uint */\n      0x00\n        /* \"contracts/7_math_operations.sol\":369:370  b */\n      dup2\n        /* \"contracts/7_math_operations.sol\":365:366  a */\n      dup4\n        /* \"contracts/7_math_operations.sol\":365:370  a * b */\n      tag_61\n      swap2\n      swap1\n      tag_62\n      jump\t// in\n    tag_61:\n        /* \"contracts/7_math_operations.sol\":358:370  return a * b */\n      swap1\n      pop\n        /* \"contracts/7_math_operations.sol\":288:377  function product(uint a, uint b) public pure returns (uint) {... */\n      swap3\n      swap2\n      pop\n      pop\n      jump\t// out\n        /* \"contracts/7_math_operations.sol\":100:185  function sum(uint a, uint b) public pure returns (uint) {... */\n    tag_37:\n        /* \"contracts/7_math_operations.sol\":150:154  uint */\n      0x00\n        /* \"contracts/7_math_operations.sol\":177:178  b */\n      dup2\n        /* \"contracts/7_math_operations.sol\":173:174  a */\n      dup4\n        /* \"contracts/7_math_operations.sol\":173:178  a + b */\n      tag_64\n      swap2\n      swap1\n      tag_65\n      jump\t// in\n    tag_64:\n        /* \"contracts/7_math_operations.sol\":166:178  return a + b */\n      swap1\n      pop\n        /* \"contracts/7_math_operations.sol\":100:185  function sum(uint a, uint b) public pure returns (uint) {... */\n      swap3\n      swap2\n      pop\n      pop\n      jump\t// out\n        /* \"contracts/7_math_operations.sol\":663:770  function _addmod(uint a, uint b, uint c) public pure returns (uint) {... */\n    tag_41:\n        /* \"contracts/7_math_operations.sol\":725:729  uint */\n      0x00\n        /* \"contracts/7_math_operations.sol\":761:762  c */\n      dup2\n        /* \"contracts/7_math_operations.sol\":748:763  addmod(a, b, c) */\n      dup1\n      tag_67\n      jumpi\n      tag_68\n      tag_59\n      jump\t// in\n    tag_68:\n    tag_67:\n        /* \"contracts/7_math_operations.sol\":758:759  b */\n      dup4\n        /* \"contracts/7_math_operations.sol\":755:756  a */\n      dup6\n        /* \"contracts/7_math_operations.sol\":748:763  addmod(a, b, c) */\n      addmod\n        /* \"contracts/7_math_operations.sol\":741:763  return addmod(a, b, c) */\n      swap1\n      pop\n        /* \"contracts/7_math_operations.sol\":663:770  function _addmod(uint a, uint b, uint c) public pure returns (uint) {... */\n      swap4\n      swap3\n      pop\n      pop\n      pop\n      jump\t// out\n        /* \"contracts/7_math_operations.sol\":383:473  function division(uint a, uint b) public pure returns (uint) {... */\n    tag_45:\n        /* \"contracts/7_math_operations.sol\":438:442  uint */\n      0x00\n        /* \"contracts/7_math_operations.sol\":465:466  b */\n      dup2\n        /* \"contracts/7_math_operations.sol\":461:462  a */\n      dup4\n        /* \"contracts/7_math_operations.sol\":461:466  a / b */\n      tag_70\n      swap2\n      swap1\n      tag_71\n      jump\t// in\n    tag_70:\n        /* \"contracts/7_math_operations.sol\":454:466  return a / b */\n      swap1\n      pop\n        /* \"contracts/7_math_operations.sol\":383:473  function division(uint a, uint b) public pure returns (uint) {... */\n      swap3\n      swap2\n      pop\n      pop\n      jump\t// out\n        /* \"#utility.yul\":7:146   */\n    tag_73:\n        /* \"#utility.yul\":53:58   */\n      0x00\n        /* \"#utility.yul\":91:97   */\n      dup2\n        /* \"#utility.yul\":78:98   */\n      calldataload\n        /* \"#utility.yul\":69:98   */\n      swap1\n      pop\n        /* \"#utility.yul\":107:140   */\n      tag_75\n        /* \"#utility.yul\":134:139   */\n      dup2\n        /* \"#utility.yul\":107:140   */\n      tag_76\n      jump\t// in\n    tag_75:\n        /* \"#utility.yul\":7:146   */\n      swap3\n      swap2\n      pop\n      pop\n      jump\t// out\n        /* \"#utility.yul\":152:626   */\n    tag_14:\n        /* \"#utility.yul\":220:226   */\n      0x00\n        /* \"#utility.yul\":228:234   */\n      dup1\n        /* \"#utility.yul\":277:279   */\n      0x40\n        /* \"#utility.yul\":265:274   */\n      dup4\n        /* \"#utility.yul\":256:263   */\n      dup6\n        /* \"#utility.yul\":252:275   */\n      sub\n        /* \"#utility.yul\":248:280   */\n      slt\n        /* \"#utility.yul\":245:364   */\n      iszero\n      tag_78\n      jumpi\n        /* \"#utility.yul\":283:362   */\n      tag_79\n      tag_80\n      jump\t// in\n    tag_79:\n        /* \"#utility.yul\":245:364   */\n    tag_78:\n        /* \"#utility.yul\":403:404   */\n      0x00\n        /* \"#utility.yul\":428:481   */\n      tag_81\n        /* \"#utility.yul\":473:480   */\n      dup6\n        /* \"#utility.yul\":464:470   */\n      dup3\n        /* \"#utility.yul\":453:462   */\n      dup7\n        /* \"#utility.yul\":449:471   */\n      add\n        /* \"#utility.yul\":428:481   */\n      tag_73\n      jump\t// in\n    tag_81:\n        /* \"#utility.yul\":418:481   */\n      swap3\n      pop\n        /* \"#utility.yul\":374:491   */\n      pop\n        /* \"#utility.yul\":530:532   */\n      0x20\n        /* \"#utility.yul\":556:609   */\n      tag_82\n        /* \"#utility.yul\":601:608   */\n      dup6\n        /* \"#utility.yul\":592:598   */\n      dup3\n        /* \"#utility.yul\":581:590   */\n      dup7\n        /* \"#utility.yul\":577:599   */\n      add\n        /* \"#utility.yul\":556:609   */\n      tag_73\n      jump\t// in\n    tag_82:\n        /* \"#utility.yul\":546:609   */\n      swap2\n      pop\n        /* \"#utility.yul\":501:619   */\n      pop\n        /* \"#utility.yul\":152:626   */\n      swap3\n      pop\n      swap3\n      swap1\n      pop\n      jump\t// out\n        /* \"#utility.yul\":632:1251   */\n    tag_28:\n        /* \"#utility.yul\":709:715   */\n      0x00\n        /* \"#utility.yul\":717:723   */\n      dup1\n        /* \"#utility.yul\":725:731   */\n      0x00\n        /* \"#utility.yul\":774:776   */\n      0x60\n        /* \"#utility.yul\":762:771   */\n      dup5\n        /* \"#utility.yul\":753:760   */\n      dup7\n        /* \"#utility.yul\":749:772   */\n      sub\n        /* \"#utility.yul\":745:777   */\n      slt\n        /* \"#utility.yul\":742:861   */\n      iszero\n      tag_84\n      jumpi\n        /* \"#utility.yul\":780:859   */\n      tag_85\n      tag_80\n      jump\t// in\n    tag_85:\n        /* \"#utility.yul\":742:861   */\n    tag_84:\n        /* \"#utility.yul\":900:901   */\n      0x00\n        /* \"#utility.yul\":925:978   */\n      tag_86\n        /* \"#utility.yul\":970:977   */\n      dup7\n        /* \"#utility.yul\":961:967   */\n      dup3\n        /* \"#utility.yul\":950:959   */\n      dup8\n        /* \"#utility.yul\":946:968   */\n      add\n        /* \"#utility.yul\":925:978   */\n      tag_73\n      jump\t// in\n    tag_86:\n        /* \"#utility.yul\":915:978   */\n      swap4\n      pop\n        /* \"#utility.yul\":871:988   */\n      pop\n        /* \"#utility.yul\":1027:1029   */\n      0x20\n        /* \"#utility.yul\":1053:1106   */\n      tag_87\n        /* \"#utility.yul\":1098:1105   */\n      dup7\n        /* \"#utility.yul\":1089:1095   */\n      dup3\n        /* \"#utility.yul\":1078:1087   */\n      dup8\n        /* \"#utility.yul\":1074:1096   */\n      add\n        /* \"#utility.yul\":1053:1106   */\n      tag_73\n      jump\t// in\n    tag_87:\n        /* \"#utility.yul\":1043:1106   */\n      swap3\n      pop\n        /* \"#utility.yul\":998:1116   */\n      pop\n        /* \"#utility.yul\":1155:1157   */\n      0x40\n        /* \"#utility.yul\":1181:1234   */\n      tag_88\n        /* \"#utility.yul\":1226:1233   */\n      dup7\n        /* \"#utility.yul\":1217:1223   */\n      dup3\n        /* \"#utility.yul\":1206:1215   */\n      dup8\n        /* \"#utility.yul\":1202:1224   */\n      add\n        /* \"#utility.yul\":1181:1234   */\n      tag_73\n      jump\t// in\n    tag_88:\n        /* \"#utility.yul\":1171:1234   */\n      swap2\n      pop\n        /* \"#utility.yul\":1126:1244   */\n      pop\n        /* \"#utility.yul\":632:1251   */\n      swap3\n      pop\n      swap3\n      pop\n      swap3\n      jump\t// out\n        /* \"#utility.yul\":1257:1375   */\n    tag_89:\n        /* \"#utility.yul\":1344:1368   */\n      tag_91\n        /* \"#utility.yul\":1362:1367   */\n      dup2\n        /* \"#utility.yul\":1344:1368   */\n      tag_92\n      jump\t// in\n    tag_91:\n        /* \"#utility.yul\":1339:1342   */\n      dup3\n        /* \"#utility.yul\":1332:1369   */\n      mstore\n        /* \"#utility.yul\":1257:1375   */\n      pop\n      pop\n      jump\t// out\n        /* \"#utility.yul\":1381:1603   */\n    tag_17:\n        /* \"#utility.yul\":1474:1478   */\n      0x00\n        /* \"#utility.yul\":1512:1514   */\n      0x20\n        /* \"#utility.yul\":1501:1510   */\n      dup3\n        /* \"#utility.yul\":1497:1515   */\n      add\n        /* \"#utility.yul\":1489:1515   */\n      swap1\n      pop\n        /* \"#utility.yul\":1525:1596   */\n      tag_94\n        /* \"#utility.yul\":1593:1594   */\n      0x00\n        /* \"#utility.yul\":1582:1591   */\n      dup4\n        /* \"#utility.yul\":1578:1595   */\n      add\n        /* \"#utility.yul\":1569:1575   */\n      dup5\n        /* \"#utility.yul\":1525:1596   */\n      tag_89\n      jump\t// in\n    tag_94:\n        /* \"#utility.yul\":1381:1603   */\n      swap3\n      swap2\n      pop\n      pop\n      jump\t// out\n        /* \"#utility.yul\":1690:1995   */\n    tag_65:\n        /* \"#utility.yul\":1730:1733   */\n      0x00\n        /* \"#utility.yul\":1749:1769   */\n      tag_98\n        /* \"#utility.yul\":1767:1768   */\n      dup3\n        /* \"#utility.yul\":1749:1769   */\n      tag_92\n      jump\t// in\n    tag_98:\n        /* \"#utility.yul\":1744:1769   */\n      swap2\n      pop\n        /* \"#utility.yul\":1783:1803   */\n      tag_99\n        /* \"#utility.yul\":1801:1802   */\n      dup4\n        /* \"#utility.yul\":1783:1803   */\n      tag_92\n      jump\t// in\n    tag_99:\n        /* \"#utility.yul\":1778:1803   */\n      swap3\n      pop\n        /* \"#utility.yul\":1937:1938   */\n      dup3\n        /* \"#utility.yul\":1869:1935   */\n      0xffffffffffffffffffffffffffffffffffffffffffffffffffffffffffffffff\n        /* \"#utility.yul\":1865:1939   */\n      sub\n        /* \"#utility.yul\":1862:1863   */\n      dup3\n        /* \"#utility.yul\":1859:1940   */\n      gt\n        /* \"#utility.yul\":1856:1963   */\n      iszero\n      tag_100\n      jumpi\n        /* \"#utility.yul\":1943:1961   */\n      tag_101\n      tag_102\n      jump\t// in\n    tag_101:\n        /* \"#utility.yul\":1856:1963   */\n    tag_100:\n        /* \"#utility.yul\":1987:1988   */\n      dup3\n        /* \"#utility.yul\":1984:1985   */\n      dup3\n        /* \"#utility.yul\":1980:1989   */\n      add\n        /* \"#utility.yul\":1973:1989   */\n      swap1\n      pop\n        /* \"#utility.yul\":1690:1995   */\n      swap3\n      swap2\n      pop\n      pop\n      jump\t// out\n        /* \"#utility.yul\":2001:2186   */\n    tag_71:\n        /* \"#utility.yul\":2041:2042   */\n      0x00\n        /* \"#utility.yul\":2058:2078   */\n      tag_104\n        /* \"#utility.yul\":2076:2077   */\n      dup3\n        /* \"#utility.yul\":2058:2078   */\n      tag_92\n      jump\t// in\n    tag_104:\n        /* \"#utility.yul\":2053:2078   */\n      swap2\n      pop\n        /* \"#utility.yul\":2092:2112   */\n      tag_105\n        /* \"#utility.yul\":2110:2111   */\n      dup4\n        /* \"#utility.yul\":2092:2112   */\n      tag_92\n      jump\t// in\n    tag_105:\n        /* \"#utility.yul\":2087:2112   */\n      swap3\n      pop\n        /* \"#utility.yul\":2131:2132   */\n      dup3\n        /* \"#utility.yul\":2121:2156   */\n      tag_106\n      jumpi\n        /* \"#utility.yul\":2136:2154   */\n      tag_107\n      tag_59\n      jump\t// in\n    tag_107:\n        /* \"#utility.yul\":2121:2156   */\n    tag_106:\n        /* \"#utility.yul\":2178:2179   */\n      dup3\n        /* \"#utility.yul\":2175:2176   */\n      dup3\n        /* \"#utility.yul\":2171:2180   */\n      div\n        /* \"#utility.yul\":2166:2180   */\n      swap1\n      pop\n        /* \"#utility.yul\":2001:2186   */\n      swap3\n      swap2\n      pop\n      pop\n      jump\t// out\n        /* \"#utility.yul\":2192:3040   */\n    tag_108:\n        /* \"#utility.yul\":2253:2258   */\n      0x00\n        /* \"#utility.yul\":2260:2264   */\n      dup1\n        /* \"#utility.yul\":2284:2290   */\n      dup3\n        /* \"#utility.yul\":2275:2290   */\n      swap2\n      pop\n        /* \"#utility.yul\":2308:2313   */\n      dup4\n        /* \"#utility.yul\":2299:2313   */\n      swap1\n      pop\n        /* \"#utility.yul\":2322:3034   */\n    tag_110:\n        /* \"#utility.yul\":2343:2344   */\n      0x01\n        /* \"#utility.yul\":2333:2341   */\n      dup6\n        /* \"#utility.yul\":2330:2345   */\n      gt\n        /* \"#utility.yul\":2322:3034   */\n      iszero\n      tag_112\n      jumpi\n        /* \"#utility.yul\":2438:2442   */\n      dup1\n        /* \"#utility.yul\":2433:2436   */\n      dup7\n        /* \"#utility.yul\":2429:2443   */\n      div\n        /* \"#utility.yul\":2423:2427   */\n      dup2\n        /* \"#utility.yul\":2420:2444   */\n      gt\n        /* \"#utility.yul\":2417:2467   */\n      iszero\n      tag_113\n      jumpi\n        /* \"#utility.yul\":2447:2465   */\n      tag_114\n      tag_102\n      jump\t// in\n    tag_114:\n        /* \"#utility.yul\":2417:2467   */\n    tag_113:\n        /* \"#utility.yul\":2497:2498   */\n      0x01\n        /* \"#utility.yul\":2487:2495   */\n      dup6\n        /* \"#utility.yul\":2483:2499   */\n      and\n        /* \"#utility.yul\":2480:2931   */\n      iszero\n      tag_115\n      jumpi\n        /* \"#utility.yul\":2912:2916   */\n      dup1\n        /* \"#utility.yul\":2905:2910   */\n      dup3\n        /* \"#utility.yul\":2901:2917   */\n      mul\n        /* \"#utility.yul\":2892:2917   */\n      swap2\n      pop\n        /* \"#utility.yul\":2480:2931   */\n    tag_115:\n        /* \"#utility.yul\":2962:2966   */\n      dup1\n        /* \"#utility.yul\":2956:2960   */\n      dup2\n        /* \"#utility.yul\":2952:2967   */\n      mul\n        /* \"#utility.yul\":2944:2967   */\n      swap1\n      pop\n        /* \"#utility.yul\":2992:3024   */\n      tag_116\n        /* \"#utility.yul\":3015:3023   */\n      dup6\n        /* \"#utility.yul\":2992:3024   */\n      tag_117\n      jump\t// in\n    tag_116:\n        /* \"#utility.yul\":2980:3024   */\n      swap5\n      pop\n        /* \"#utility.yul\":2322:3034   */\n      jump(tag_110)\n    tag_112:\n        /* \"#utility.yul\":2192:3040   */\n      swap5\n      pop\n      swap5\n      swap3\n      pop\n      pop\n      pop\n      jump\t// out\n        /* \"#utility.yul\":3046:3331   */\n    tag_49:\n        /* \"#utility.yul\":3106:3111   */\n      0x00\n        /* \"#utility.yul\":3130:3153   */\n      tag_119\n        /* \"#utility.yul\":3148:3152   */\n      dup3\n        /* \"#utility.yul\":3130:3153   */\n      tag_92\n      jump\t// in\n    tag_119:\n        /* \"#utility.yul\":3122:3153   */\n      swap2\n      pop\n        /* \"#utility.yul\":3174:3201   */\n      tag_120\n        /* \"#utility.yul\":3192:3200   */\n      dup4\n        /* \"#utility.yul\":3174:3201   */\n      tag_92\n      jump\t// in\n    tag_120:\n        /* \"#utility.yul\":3162:3201   */\n      swap3\n      pop\n        /* \"#utility.yul\":3220:3324   */\n      tag_121\n        /* \"#utility.yul\":3257:3323   */\n      0xffffffffffffffffffffffffffffffffffffffffffffffffffffffffffffffff\n        /* \"#utility.yul\":3247:3255   */\n      dup5\n        /* \"#utility.yul\":3241:3245   */\n      dup5\n        /* \"#utility.yul\":3220:3324   */\n      tag_122\n      jump\t// in\n    tag_121:\n        /* \"#utility.yul\":3211:3324   */\n      swap1\n      pop\n        /* \"#utility.yul\":3046:3331   */\n      swap3\n      swap2\n      pop\n      pop\n      jump\t// out\n        /* \"#utility.yul\":3337:4410   */\n    tag_122:\n        /* \"#utility.yul\":3391:3396   */\n      0x00\n        /* \"#utility.yul\":3582:3590   */\n      dup3\n        /* \"#utility.yul\":3572:3612   */\n      tag_124\n      jumpi\n        /* \"#utility.yul\":3603:3604   */\n      0x01\n        /* \"#utility.yul\":3594:3604   */\n      swap1\n      pop\n        /* \"#utility.yul\":3605:3610   */\n      jump(tag_123)\n        /* \"#utility.yul\":3572:3612   */\n    tag_124:\n        /* \"#utility.yul\":3631:3635   */\n      dup2\n        /* \"#utility.yul\":3621:3657   */\n      tag_125\n      jumpi\n        /* \"#utility.yul\":3648:3649   */\n      0x00\n        /* \"#utility.yul\":3639:3649   */\n      swap1\n      pop\n        /* \"#utility.yul\":3650:3655   */\n      jump(tag_123)\n        /* \"#utility.yul\":3621:3657   */\n    tag_125:\n        /* \"#utility.yul\":3717:3721   */\n      dup2\n        /* \"#utility.yul\":3765:3766   */\n      0x01\n        /* \"#utility.yul\":3760:3787   */\n      dup2\n      eq\n      tag_127\n      jumpi\n        /* \"#utility.yul\":3801:3802   */\n      0x02\n        /* \"#utility.yul\":3796:3987   */\n      dup2\n      eq\n      tag_128\n      jumpi\n        /* \"#utility.yul\":3710:3987   */\n      jump(tag_126)\n        /* \"#utility.yul\":3760:3787   */\n    tag_127:\n        /* \"#utility.yul\":3778:3779   */\n      0x01\n        /* \"#utility.yul\":3769:3779   */\n      swap2\n      pop\n        /* \"#utility.yul\":3780:3785   */\n      pop\n      jump(tag_123)\n        /* \"#utility.yul\":3796:3987   */\n    tag_128:\n        /* \"#utility.yul\":3841:3844   */\n      0xff\n        /* \"#utility.yul\":3831:3839   */\n      dup5\n        /* \"#utility.yul\":3828:3845   */\n      gt\n        /* \"#utility.yul\":3825:3868   */\n      iszero\n      tag_129\n      jumpi\n        /* \"#utility.yul\":3848:3866   */\n      tag_130\n      tag_102\n      jump\t// in\n    tag_130:\n        /* \"#utility.yul\":3825:3868   */\n    tag_129:\n        /* \"#utility.yul\":3897:3905   */\n      dup4\n        /* \"#utility.yul\":3894:3895   */\n      0x02\n        /* \"#utility.yul\":3890:3906   */\n      exp\n        /* \"#utility.yul\":3881:3906   */\n      swap2\n      pop\n        /* \"#utility.yul\":3932:3935   */\n      dup5\n        /* \"#utility.yul\":3925:3930   */\n      dup3\n        /* \"#utility.yul\":3922:3936   */\n      gt\n        /* \"#utility.yul\":3919:3959   */\n      iszero\n      tag_131\n      jumpi\n        /* \"#utility.yul\":3939:3957   */\n      tag_132\n      tag_102\n      jump\t// in\n    tag_132:\n        /* \"#utility.yul\":3919:3959   */\n    tag_131:\n        /* \"#utility.yul\":3972:3977   */\n      pop\n      jump(tag_123)\n        /* \"#utility.yul\":3710:3987   */\n    tag_126:\n      pop\n        /* \"#utility.yul\":4096:4098   */\n      0x20\n        /* \"#utility.yul\":4086:4094   */\n      dup4\n        /* \"#utility.yul\":4083:4099   */\n      lt\n        /* \"#utility.yul\":4077:4080   */\n      0x0133\n        /* \"#utility.yul\":4071:4075   */\n      dup4\n        /* \"#utility.yul\":4068:4081   */\n      lt\n        /* \"#utility.yul\":4064:4100   */\n      and\n        /* \"#utility.yul\":4046:4048   */\n      0x4e\n        /* \"#utility.yul\":4036:4044   */\n      dup5\n        /* \"#utility.yul\":4033:4049   */\n      lt\n        /* \"#utility.yul\":4028:4030   */\n      0x0b\n        /* \"#utility.yul\":4022:4026   */\n      dup5\n        /* \"#utility.yul\":4019:4031   */\n      lt\n        /* \"#utility.yul\":4015:4050   */\n      and\n        /* \"#utility.yul\":3999:4110   */\n      or\n        /* \"#utility.yul\":3996:4242   */\n      iszero\n      tag_133\n      jumpi\n        /* \"#utility.yul\":4152:4160   */\n      dup3\n        /* \"#utility.yul\":4146:4150   */\n      dup3\n        /* \"#utility.yul\":4142:4161   */\n      exp\n        /* \"#utility.yul\":4133:4161   */\n      swap1\n      pop\n        /* \"#utility.yul\":4187:4190   */\n      dup4\n        /* \"#utility.yul\":4180:4185   */\n      dup2\n        /* \"#utility.yul\":4177:4191   */\n      gt\n        /* \"#utility.yul\":4174:4214   */\n      iszero\n      tag_134\n      jumpi\n        /* \"#utility.yul\":4194:4212   */\n      tag_135\n      tag_102\n      jump\t// in\n    tag_135:\n        /* \"#utility.yul\":4174:4214   */\n    tag_134:\n        /* \"#utility.yul\":4227:4232   */\n      jump(tag_123)\n        /* \"#utility.yul\":3996:4242   */\n    tag_133:\n        /* \"#utility.yul\":4267:4309   */\n      tag_136\n        /* \"#utility.yul\":4305:4308   */\n      dup5\n        /* \"#utility.yul\":4295:4303   */\n      dup5\n        /* \"#utility.yul\":4289:4293   */\n      dup5\n        /* \"#utility.yul\":4286:4287   */\n      0x01\n        /* \"#utility.yul\":4267:4309   */\n      tag_108\n      jump\t// in\n    tag_136:\n        /* \"#utility.yul\":4252:4309   */\n      swap3\n      pop\n      swap1\n      pop\n        /* \"#utility.yul\":4341:4345   */\n      dup2\n        /* \"#utility.yul\":4336:4339   */\n      dup5\n        /* \"#utility.yul\":4332:4346   */\n      div\n        /* \"#utility.yul\":4325:4330   */\n      dup2\n        /* \"#utility.yul\":4322:4347   */\n      gt\n        /* \"#utility.yul\":4319:4370   */\n      iszero\n      tag_137\n      jumpi\n        /* \"#utility.yul\":4350:4368   */\n      tag_138\n      tag_102\n      jump\t// in\n    tag_138:\n        /* \"#utility.yul\":4319:4370   */\n    tag_137:\n        /* \"#utility.yul\":4399:4403   */\n      dup2\n        /* \"#utility.yul\":4392:4397   */\n      dup2\n        /* \"#utility.yul\":4388:4404   */\n      mul\n        /* \"#utility.yul\":4379:4404   */\n      swap1\n      pop\n        /* \"#utility.yul\":3337:4410   */\n    tag_123:\n      swap4\n      swap3\n      pop\n      pop\n      pop\n      jump\t// out\n        /* \"#utility.yul\":4416:4764   */\n    tag_62:\n        /* \"#utility.yul\":4456:4463   */\n      0x00\n        /* \"#utility.yul\":4479:4499   */\n      tag_140\n        /* \"#utility.yul\":4497:4498   */\n      dup3\n        /* \"#utility.yul\":4479:4499   */\n      tag_92\n      jump\t// in\n    tag_140:\n        /* \"#utility.yul\":4474:4499   */\n      swap2\n      pop\n        /* \"#utility.yul\":4513:4533   */\n      tag_141\n        /* \"#utility.yul\":4531:4532   */\n      dup4\n        /* \"#utility.yul\":4513:4533   */\n      tag_92\n      jump\t// in\n    tag_141:\n        /* \"#utility.yul\":4508:4533   */\n      swap3\n      pop\n        /* \"#utility.yul\":4701:4702   */\n      dup2\n        /* \"#utility.yul\":4633:4699   */\n      0xffffffffffffffffffffffffffffffffffffffffffffffffffffffffffffffff\n        /* \"#utility.yul\":4629:4703   */\n      div\n        /* \"#utility.yul\":4626:4627   */\n      dup4\n        /* \"#utility.yul\":4623:4704   */\n      gt\n        /* \"#utility.yul\":4618:4619   */\n      dup3\n        /* \"#utility.yul\":4611:4620   */\n      iszero\n        /* \"#utility.yul\":4604:4621   */\n      iszero\n        /* \"#utility.yul\":4600:4705   */\n      and\n        /* \"#utility.yul\":4597:4728   */\n      iszero\n      tag_142\n      jumpi\n        /* \"#utility.yul\":4708:4726   */\n      tag_143\n      tag_102\n      jump\t// in\n    tag_143:\n        /* \"#utility.yul\":4597:4728   */\n    tag_142:\n        /* \"#utility.yul\":4756:4757   */\n      dup3\n        /* \"#utility.yul\":4753:4754   */\n      dup3\n        /* \"#utility.yul\":4749:4758   */\n      mul\n        /* \"#utility.yul\":4738:4758   */\n      swap1\n      pop\n        /* \"#utility.yul\":4416:4764   */\n      swap3\n      swap2\n      pop\n      pop\n      jump\t// out\n        /* \"#utility.yul\":4770:4961   */\n    tag_55:\n        /* \"#utility.yul\":4810:4814   */\n      0x00\n        /* \"#utility.yul\":4830:4850   */\n      tag_145\n        /* \"#utility.yul\":4848:4849   */\n      dup3\n        /* \"#utility.yul\":4830:4850   */\n      tag_92\n      jump\t// in\n    tag_145:\n        /* \"#utility.yul\":4825:4850   */\n      swap2\n      pop\n        /* \"#utility.yul\":4864:4884   */\n      tag_146\n        /* \"#utility.yul\":4882:4883   */\n      dup4\n        /* \"#utility.yul\":4864:4884   */\n      tag_92\n      jump\t// in\n    tag_146:\n        /* \"#utility.yul\":4859:4884   */\n      swap3\n      pop\n        /* \"#utility.yul\":4903:4904   */\n      dup3\n        /* \"#utility.yul\":4900:4901   */\n      dup3\n        /* \"#utility.yul\":4897:4905   */\n      lt\n        /* \"#utility.yul\":4894:4928   */\n      iszero\n      tag_147\n      jumpi\n        /* \"#utility.yul\":4908:4926   */\n      tag_148\n      tag_102\n      jump\t// in\n    tag_148:\n        /* \"#utility.yul\":4894:4928   */\n    tag_147:\n        /* \"#utility.yul\":4953:4954   */\n      dup3\n        /* \"#utility.yul\":4950:4951   */\n      dup3\n        /* \"#utility.yul\":4946:4955   */\n      sub\n        /* \"#utility.yul\":4938:4955   */\n      swap1\n      pop\n        /* \"#utility.yul\":4770:4961   */\n      swap3\n      swap2\n      pop\n      pop\n      jump\t// out\n        /* \"#utility.yul\":4967:5044   */\n    tag_92:\n        /* \"#utility.yul\":5004:5011   */\n      0x00\n        /* \"#utility.yul\":5033:5038   */\n      dup2\n        /* \"#utility.yul\":5022:5038   */\n      swap1\n      pop\n        /* \"#utility.yul\":4967:5044   */\n      swap2\n      swap1\n      pop\n      jump\t// out\n        /* \"#utility.yul\":5050:5226   */\n    tag_52:\n        /* \"#utility.yul\":5082:5083   */\n      0x00\n        /* \"#utility.yul\":5099:5119   */\n      tag_151\n        /* \"#utility.yul\":5117:5118   */\n      dup3\n        /* \"#utility.yul\":5099:5119   */\n      tag_92\n      jump\t// in\n    tag_151:\n        /* \"#utility.yul\":5094:5119   */\n      swap2\n      pop\n        /* \"#utility.yul\":5133:5153   */\n      tag_152\n        /* \"#utility.yul\":5151:5152   */\n      dup4\n        /* \"#utility.yul\":5133:5153   */\n      tag_92\n      jump\t// in\n    tag_152:\n        /* \"#utility.yul\":5128:5153   */\n      swap3\n      pop\n        /* \"#utility.yul\":5172:5173   */\n      dup3\n        /* \"#utility.yul\":5162:5197   */\n      tag_153\n      jumpi\n        /* \"#utility.yul\":5177:5195   */\n      tag_154\n      tag_59\n      jump\t// in\n    tag_154:\n        /* \"#utility.yul\":5162:5197   */\n    tag_153:\n        /* \"#utility.yul\":5218:5219   */\n      dup3\n        /* \"#utility.yul\":5215:5216   */\n      dup3\n        /* \"#utility.yul\":5211:5220   */\n      mod\n        /* \"#utility.yul\":5206:5220   */\n      swap1\n      pop\n        /* \"#utility.yul\":5050:5226   */\n      swap3\n      swap2\n      pop\n      pop\n      jump\t// out\n        /* \"#utility.yul\":5232:5412   */\n    tag_102:\n        /* \"#utility.yul\":5280:5357   */\n      0x4e487b7100000000000000000000000000000000000000000000000000000000\n        /* \"#utility.yul\":5277:5278   */\n      0x00\n        /* \"#utility.yul\":5270:5358   */\n      mstore\n        /* \"#utility.yul\":5377:5381   */\n      0x11\n        /* \"#utility.yul\":5374:5375   */\n      0x04\n        /* \"#utility.yul\":5367:5382   */\n      mstore\n        /* \"#utility.yul\":5401:5405   */\n      0x24\n        /* \"#utility.yul\":5398:5399   */\n      0x00\n        /* \"#utility.yul\":5391:5406   */\n      revert\n        /* \"#utility.yul\":5418:5598   */\n    tag_59:\n        /* \"#utility.yul\":5466:5543   */\n      0x4e487b7100000000000000000000000000000000000000000000000000000000\n        /* \"#utility.yul\":5463:5464   */\n      0x00\n        /* \"#utility.yul\":5456:5544   */\n      mstore\n        /* \"#utility.yul\":5563:5567   */\n      0x12\n        /* \"#utility.yul\":5560:5561   */\n      0x04\n        /* \"#utility.yul\":5553:5568   */\n      mstore\n        /* \"#utility.yul\":5587:5591   */\n      0x24\n        /* \"#utility.yul\":5584:5585   */\n      0x00\n        /* \"#utility.yul\":5577:5592   */\n      revert\n        /* \"#utility.yul\":5727:5844   */\n    tag_80:\n        /* \"#utility.yul\":5836:5837   */\n      0x00\n        /* \"#utility.yul\":5833:5834   */\n      dup1\n        /* \"#utility.yul\":5826:5838   */\n      revert\n        /* \"#utility.yul\":5850:5952   */\n    tag_117:\n        /* \"#utility.yul\":5892:5900   */\n      0x00\n        /* \"#utility.yul\":5939:5944   */\n      dup2\n        /* \"#utility.yul\":5936:5937   */\n      0x01\n        /* \"#utility.yul\":5932:5945   */\n      shr\n        /* \"#utility.yul\":5911:5945   */\n      swap1\n      pop\n        /* \"#utility.yul\":5850:5952   */\n      swap2\n      swap1\n      pop\n      jump\t// out\n        /* \"#utility.yul\":5958:6080   */\n    tag_76:\n        /* \"#utility.yul\":6031:6055   */\n      tag_162\n        /* \"#utility.yul\":6049:6054   */\n      dup2\n        /* \"#utility.yul\":6031:6055   */\n      tag_92\n      jump\t// in\n    tag_162:\n        /* \"#utility.yul\":6024:6029   */\n      dup2\n        /* \"#utility.yul\":6021:6056   */\n      eq\n        /* \"#utility.yul\":6011:6074   */\n      tag_163\n      jumpi\n        /* \"#utility.yul\":6070:6071   */\n      0x00\n        /* \"#utility.yul\":6067:6068   */\n      dup1\n        /* \"#utility.yul\":6060:6072   */\n      revert\n        /* \"#utility.yul\":6011:6074   */\n    tag_163:\n        /* \"#utility.yul\":5958:6080   */\n      pop\n      jump\t// out\n\n    auxdata: 0xa2646970667358221220d6bcac0524f09cdb378ab5973d0459855228fd6efbbbd4a5bd3c0a2644c391ae64736f6c63430008070033\n}\n",
				"bytecode": {
					"linkReferences": {},
					"object": "608060405234801561001057600080fd5b5061071b806100206000396000f3fe608060405234801561001057600080fd5b50600436106100885760003560e01c8063ba88c3b71161005b578063ba88c3b71461014d578063cad0899b1461017d578063dd125e37146101ad578063e0068052146101dd57610088565b80632e4c697f1461008d57806349175e4b146100bd5780635d4e1e5c146100ed578063871f9af41461011d575b600080fd5b6100a760048036038101906100a291906102e0565b61020d565b6040516100b49190610382565b60405180910390f35b6100d760048036038101906100d291906102e0565b610223565b6040516100e49190610382565b60405180910390f35b610107600480360381019061010291906102e0565b610239565b6040516101149190610382565b60405180910390f35b61013760048036038101906101329190610320565b61024f565b6040516101449190610382565b60405180910390f35b610167600480360381019061016291906102e0565b61026c565b6040516101749190610382565b60405180910390f35b610197600480360381019061019291906102e0565b610282565b6040516101a49190610382565b60405180910390f35b6101c760048036038101906101c29190610320565b610298565b6040516101d49190610382565b60405180910390f35b6101f760048036038101906101f291906102e0565b6102b5565b6040516102049190610382565b60405180910390f35b6000818361021b9190610477565b905092915050565b60008183610231919061062d565b905092915050565b6000818361024791906105ef565b905092915050565b600081806102605761025f61068d565b5b83850990509392505050565b6000818361027a9190610595565b905092915050565b60008183610290919061039d565b905092915050565b600081806102a9576102a861068d565b5b83850890509392505050565b600081836102c391906103f3565b905092915050565b6000813590506102da816106ce565b92915050565b600080604083850312156102f7576102f66106bc565b5b6000610305858286016102cb565b9250506020610316858286016102cb565b9150509250929050565b600080600060608486031215610339576103386106bc565b5b6000610347868287016102cb565b9350506020610358868287016102cb565b9250506040610369868287016102cb565b9150509250925092565b61037c81610623565b82525050565b60006020820190506103976000830184610373565b92915050565b60006103a882610623565b91506103b383610623565b9250827fffffffffffffffffffffffffffffffffffffffffffffffffffffffffffffffff038211156103e8576103e761065e565b5b828201905092915050565b60006103fe82610623565b915061040983610623565b9250826104195761041861068d565b5b828204905092915050565b6000808291508390505b600185111561046e5780860481111561044a5761044961065e565b5b60018516156104595780820291505b8081029050610467856106c1565b945061042e565b94509492505050565b600061048282610623565b915061048d83610623565b92506104ba7fffffffffffffffffffffffffffffffffffffffffffffffffffffffffffffffff84846104c2565b905092915050565b6000826104d2576001905061058e565b816104e0576000905061058e565b81600181146104f657600281146105005761052f565b600191505061058e565b60ff8411156105125761051161065e565b5b8360020a9150848211156105295761052861065e565b5b5061058e565b5060208310610133831016604e8410600b84101617156105645782820a90508381111561055f5761055e61065e565b5b61058e565b6105718484846001610424565b925090508184048111156105885761058761065e565b5b81810290505b9392505050565b60006105a082610623565b91506105ab83610623565b9250817fffffffffffffffffffffffffffffffffffffffffffffffffffffffffffffffff04831182151516156105e4576105e361065e565b5b828202905092915050565b60006105fa82610623565b915061060583610623565b9250828210156106185761061761065e565b5b828203905092915050565b6000819050919050565b600061063882610623565b915061064383610623565b9250826106535761065261068d565b5b828206905092915050565b7f4e487b7100000000000000000000000000000000000000000000000000000000600052601160045260246000fd5b7f4e487b7100000000000000000000000000000000000000000000000000000000600052601260045260246000fd5b600080fd5b60008160011c9050919050565b6106d781610623565b81146106e257600080fd5b5056fea2646970667358221220d6bcac0524f09cdb378ab5973d0459855228fd6efbbbd4a5bd3c0a2644c391ae64736f6c63430008070033",
					"opcodes": "PUSH1 0x80 PUSH1 0x40 MSTORE CALLVALUE DUP1 ISZERO PUSH2 0x10 JUMPI PUSH1 0x0 DUP1 REVERT JUMPDEST POP PUSH2 0x71B DUP1 PUSH2 0x20 PUSH1 0x0 CODECOPY PUSH1 0x0 RETURN INVALID PUSH1 0x80 PUSH1 0x40 MSTORE CALLVALUE DUP1 ISZERO PUSH2 0x10 JUMPI PUSH1 0x0 DUP1 REVERT JUMPDEST POP PUSH1 0x4 CALLDATASIZE LT PUSH2 0x88 JUMPI PUSH1 0x0 CALLDATALOAD PUSH1 0xE0 SHR DUP1 PUSH4 0xBA88C3B7 GT PUSH2 0x5B JUMPI DUP1 PUSH4 0xBA88C3B7 EQ PUSH2 0x14D JUMPI DUP1 PUSH4 0xCAD0899B EQ PUSH2 0x17D JUMPI DUP1 PUSH4 0xDD125E37 EQ PUSH2 0x1AD JUMPI DUP1 PUSH4 0xE0068052 EQ PUSH2 0x1DD JUMPI PUSH2 0x88 JUMP JUMPDEST DUP1 PUSH4 0x2E4C697F EQ PUSH2 0x8D JUMPI DUP1 PUSH4 0x49175E4B EQ PUSH2 0xBD JUMPI DUP1 PUSH4 0x5D4E1E5C EQ PUSH2 0xED JUMPI DUP1 PUSH4 0x871F9AF4 EQ PUSH2 0x11D JUMPI JUMPDEST PUSH1 0x0 DUP1 REVERT JUMPDEST PUSH2 0xA7 PUSH1 0x4 DUP1 CALLDATASIZE SUB DUP2 ADD SWAP1 PUSH2 0xA2 SWAP2 SWAP1 PUSH2 0x2E0 JUMP JUMPDEST PUSH2 0x20D JUMP JUMPDEST PUSH1 0x40 MLOAD PUSH2 0xB4 SWAP2 SWAP1 PUSH2 0x382 JUMP JUMPDEST PUSH1 0x40 MLOAD DUP1 SWAP2 SUB SWAP1 RETURN JUMPDEST PUSH2 0xD7 PUSH1 0x4 DUP1 CALLDATASIZE SUB DUP2 ADD SWAP1 PUSH2 0xD2 SWAP2 SWAP1 PUSH2 0x2E0 JUMP JUMPDEST PUSH2 0x223 JUMP JUMPDEST PUSH1 0x40 MLOAD PUSH2 0xE4 SWAP2 SWAP1 PUSH2 0x382 JUMP JUMPDEST PUSH1 0x40 MLOAD DUP1 SWAP2 SUB SWAP1 RETURN JUMPDEST PUSH2 0x107 PUSH1 0x4 DUP1 CALLDATASIZE SUB DUP2 ADD SWAP1 PUSH2 0x102 SWAP2 SWAP1 PUSH2 0x2E0 JUMP JUMPDEST PUSH2 0x239 JUMP JUMPDEST PUSH1 0x40 MLOAD PUSH2 0x114 SWAP2 SWAP1 PUSH2 0x382 JUMP JUMPDEST PUSH1 0x40 MLOAD DUP1 SWAP2 SUB SWAP1 RETURN JUMPDEST PUSH2 0x137 PUSH1 0x4 DUP1 CALLDATASIZE SUB DUP2 ADD SWAP1 PUSH2 0x132 SWAP2 SWAP1 PUSH2 0x320 JUMP JUMPDEST PUSH2 0x24F JUMP JUMPDEST PUSH1 0x40 MLOAD PUSH2 0x144 SWAP2 SWAP1 PUSH2 0x382 JUMP JUMPDEST PUSH1 0x40 MLOAD DUP1 SWAP2 SUB SWAP1 RETURN JUMPDEST PUSH2 0x167 PUSH1 0x4 DUP1 CALLDATASIZE SUB DUP2 ADD SWAP1 PUSH2 0x162 SWAP2 SWAP1 PUSH2 0x2E0 JUMP JUMPDEST PUSH2 0x26C JUMP JUMPDEST PUSH1 0x40 MLOAD PUSH2 0x174 SWAP2 SWAP1 PUSH2 0x382 JUMP JUMPDEST PUSH1 0x40 MLOAD DUP1 SWAP2 SUB SWAP1 RETURN JUMPDEST PUSH2 0x197 PUSH1 0x4 DUP1 CALLDATASIZE SUB DUP2 ADD SWAP1 PUSH2 0x192 SWAP2 SWAP1 PUSH2 0x2E0 JUMP JUMPDEST PUSH2 0x282 JUMP JUMPDEST PUSH1 0x40 MLOAD PUSH2 0x1A4 SWAP2 SWAP1 PUSH2 0x382 JUMP JUMPDEST PUSH1 0x40 MLOAD DUP1 SWAP2 SUB SWAP1 RETURN JUMPDEST PUSH2 0x1C7 PUSH1 0x4 DUP1 CALLDATASIZE SUB DUP2 ADD SWAP1 PUSH2 0x1C2 SWAP2 SWAP1 PUSH2 0x320 JUMP JUMPDEST PUSH2 0x298 JUMP JUMPDEST PUSH1 0x40 MLOAD PUSH2 0x1D4 SWAP2 SWAP1 PUSH2 0x382 JUMP JUMPDEST PUSH1 0x40 MLOAD DUP1 SWAP2 SUB SWAP1 RETURN JUMPDEST PUSH2 0x1F7 PUSH1 0x4 DUP1 CALLDATASIZE SUB DUP2 ADD SWAP1 PUSH2 0x1F2 SWAP2 SWAP1 PUSH2 0x2E0 JUMP JUMPDEST PUSH2 0x2B5 JUMP JUMPDEST PUSH1 0x40 MLOAD PUSH2 0x204 SWAP2 SWAP1 PUSH2 0x382 JUMP JUMPDEST PUSH1 0x40 MLOAD DUP1 SWAP2 SUB SWAP1 RETURN JUMPDEST PUSH1 0x0 DUP2 DUP4 PUSH2 0x21B SWAP2 SWAP1 PUSH2 0x477 JUMP JUMPDEST SWAP1 POP SWAP3 SWAP2 POP POP JUMP JUMPDEST PUSH1 0x0 DUP2 DUP4 PUSH2 0x231 SWAP2 SWAP1 PUSH2 0x62D JUMP JUMPDEST SWAP1 POP SWAP3 SWAP2 POP POP JUMP JUMPDEST PUSH1 0x0 DUP2 DUP4 PUSH2 0x247 SWAP2 SWAP1 PUSH2 0x5EF JUMP JUMPDEST SWAP1 POP SWAP3 SWAP2 POP POP JUMP JUMPDEST PUSH1 0x0 DUP2 DUP1 PUSH2 0x260 JUMPI PUSH2 0x25F PUSH2 0x68D JUMP JUMPDEST JUMPDEST DUP4 DUP6 MULMOD SWAP1 POP SWAP4 SWAP3 POP POP POP JUMP JUMPDEST PUSH1 0x0 DUP2 DUP4 PUSH2 0x27A SWAP2 SWAP1 PUSH2 0x595 JUMP JUMPDEST SWAP1 POP SWAP3 SWAP2 POP POP JUMP JUMPDEST PUSH1 0x0 DUP2 DUP4 PUSH2 0x290 SWAP2 SWAP1 PUSH2 0x39D JUMP JUMPDEST SWAP1 POP SWAP3 SWAP2 POP POP JUMP JUMPDEST PUSH1 0x0 DUP2 DUP1 PUSH2 0x2A9 JUMPI PUSH2 0x2A8 PUSH2 0x68D JUMP JUMPDEST JUMPDEST DUP4 DUP6 ADDMOD SWAP1 POP SWAP4 SWAP3 POP POP POP JUMP JUMPDEST PUSH1 0x0 DUP2 DUP4 PUSH2 0x2C3 SWAP2 SWAP1 PUSH2 0x3F3 JUMP JUMPDEST SWAP1 POP SWAP3 SWAP2 POP POP JUMP JUMPDEST PUSH1 0x0 DUP2 CALLDATALOAD SWAP1 POP PUSH2 0x2DA DUP2 PUSH2 0x6CE JUMP JUMPDEST SWAP3 SWAP2 POP POP JUMP JUMPDEST PUSH1 0x0 DUP1 PUSH1 0x40 DUP4 DUP6 SUB SLT ISZERO PUSH2 0x2F7 JUMPI PUSH2 0x2F6 PUSH2 0x6BC JUMP JUMPDEST JUMPDEST PUSH1 0x0 PUSH2 0x305 DUP6 DUP3 DUP7 ADD PUSH2 0x2CB JUMP JUMPDEST SWAP3 POP POP PUSH1 0x20 PUSH2 0x316 DUP6 DUP3 DUP7 ADD PUSH2 0x2CB JUMP JUMPDEST SWAP2 POP POP SWAP3 POP SWAP3 SWAP1 POP JUMP JUMPDEST PUSH1 0x0 DUP1 PUSH1 0x0 PUSH1 0x60 DUP5 DUP7 SUB SLT ISZERO PUSH2 0x339 JUMPI PUSH2 0x338 PUSH2 0x6BC JUMP JUMPDEST JUMPDEST PUSH1 0x0 PUSH2 0x347 DUP7 DUP3 DUP8 ADD PUSH2 0x2CB JUMP JUMPDEST SWAP4 POP POP PUSH1 0x20 PUSH2 0x358 DUP7 DUP3 DUP8 ADD PUSH2 0x2CB JUMP JUMPDEST SWAP3 POP POP PUSH1 0x40 PUSH2 0x369 DUP7 DUP3 DUP8 ADD PUSH2 0x2CB JUMP JUMPDEST SWAP2 POP POP SWAP3 POP SWAP3 POP SWAP3 JUMP JUMPDEST PUSH2 0x37C DUP2 PUSH2 0x623 JUMP JUMPDEST DUP3 MSTORE POP POP JUMP JUMPDEST PUSH1 0x0 PUSH1 0x20 DUP3 ADD SWAP1 POP PUSH2 0x397 PUSH1 0x0 DUP4 ADD DUP5 PUSH2 0x373 JUMP JUMPDEST SWAP3 SWAP2 POP POP JUMP JUMPDEST PUSH1 0x0 PUSH2 0x3A8 DUP3 PUSH2 0x623 JUMP JUMPDEST SWAP2 POP PUSH2 0x3B3 DUP4 PUSH2 0x623 JUMP JUMPDEST SWAP3 POP DUP3 PUSH32 0xFFFFFFFFFFFFFFFFFFFFFFFFFFFFFFFFFFFFFFFFFFFFFFFFFFFFFFFFFFFFFFFF SUB DUP3 GT ISZERO PUSH2 0x3E8 JUMPI PUSH2 0x3E7 PUSH2 0x65E JUMP JUMPDEST JUMPDEST DUP3 DUP3 ADD SWAP1 POP SWAP3 SWAP2 POP POP JUMP JUMPDEST PUSH1 0x0 PUSH2 0x3FE DUP3 PUSH2 0x623 JUMP JUMPDEST SWAP2 POP PUSH2 0x409 DUP4 PUSH2 0x623 JUMP JUMPDEST SWAP3 POP DUP3 PUSH2 0x419 JUMPI PUSH2 0x418 PUSH2 0x68D JUMP JUMPDEST JUMPDEST DUP3 DUP3 DIV SWAP1 POP SWAP3 SWAP2 POP POP JUMP JUMPDEST PUSH1 0x0 DUP1 DUP3 SWAP2 POP DUP4 SWAP1 POP JUMPDEST PUSH1 0x1 DUP6 GT ISZERO PUSH2 0x46E JUMPI DUP1 DUP7 DIV DUP2 GT ISZERO PUSH2 0x44A JUMPI PUSH2 0x449 PUSH2 0x65E JUMP JUMPDEST JUMPDEST PUSH1 0x1 DUP6 AND ISZERO PUSH2 0x459 JUMPI DUP1 DUP3 MUL SWAP2 POP JUMPDEST DUP1 DUP2 MUL SWAP1 POP PUSH2 0x467 DUP6 PUSH2 0x6C1 JUMP JUMPDEST SWAP5 POP PUSH2 0x42E JUMP JUMPDEST SWAP5 POP SWAP5 SWAP3 POP POP POP JUMP JUMPDEST PUSH1 0x0 PUSH2 0x482 DUP3 PUSH2 0x623 JUMP JUMPDEST SWAP2 POP PUSH2 0x48D DUP4 PUSH2 0x623 JUMP JUMPDEST SWAP3 POP PUSH2 0x4BA PUSH32 0xFFFFFFFFFFFFFFFFFFFFFFFFFFFFFFFFFFFFFFFFFFFFFFFFFFFFFFFFFFFFFFFF DUP5 DUP5 PUSH2 0x4C2 JUMP JUMPDEST SWAP1 POP SWAP3 SWAP2 POP POP JUMP JUMPDEST PUSH1 0x0 DUP3 PUSH2 0x4D2 JUMPI PUSH1 0x1 SWAP1 POP PUSH2 0x58E JUMP JUMPDEST DUP2 PUSH2 0x4E0 JUMPI PUSH1 0x0 SWAP1 POP PUSH2 0x58E JUMP JUMPDEST DUP2 PUSH1 0x1 DUP2 EQ PUSH2 0x4F6 JUMPI PUSH1 0x2 DUP2 EQ PUSH2 0x500 JUMPI PUSH2 0x52F JUMP JUMPDEST PUSH1 0x1 SWAP2 POP POP PUSH2 0x58E JUMP JUMPDEST PUSH1 0xFF DUP5 GT ISZERO PUSH2 0x512 JUMPI PUSH2 0x511 PUSH2 0x65E JUMP JUMPDEST JUMPDEST DUP4 PUSH1 0x2 EXP SWAP2 POP DUP5 DUP3 GT ISZERO PUSH2 0x529 JUMPI PUSH2 0x528 PUSH2 0x65E JUMP JUMPDEST JUMPDEST POP PUSH2 0x58E JUMP JUMPDEST POP PUSH1 0x20 DUP4 LT PUSH2 0x133 DUP4 LT AND PUSH1 0x4E DUP5 LT PUSH1 0xB DUP5 LT AND OR ISZERO PUSH2 0x564 JUMPI DUP3 DUP3 EXP SWAP1 POP DUP4 DUP2 GT ISZERO PUSH2 0x55F JUMPI PUSH2 0x55E PUSH2 0x65E JUMP JUMPDEST JUMPDEST PUSH2 0x58E JUMP JUMPDEST PUSH2 0x571 DUP5 DUP5 DUP5 PUSH1 0x1 PUSH2 0x424 JUMP JUMPDEST SWAP3 POP SWAP1 POP DUP2 DUP5 DIV DUP2 GT ISZERO PUSH2 0x588 JUMPI PUSH2 0x587 PUSH2 0x65E JUMP JUMPDEST JUMPDEST DUP2 DUP2 MUL SWAP1 POP JUMPDEST SWAP4 SWAP3 POP POP POP JUMP JUMPDEST PUSH1 0x0 PUSH2 0x5A0 DUP3 PUSH2 0x623 JUMP JUMPDEST SWAP2 POP PUSH2 0x5AB DUP4 PUSH2 0x623 JUMP JUMPDEST SWAP3 POP DUP2 PUSH32 0xFFFFFFFFFFFFFFFFFFFFFFFFFFFFFFFFFFFFFFFFFFFFFFFFFFFFFFFFFFFFFFFF DIV DUP4 GT DUP3 ISZERO ISZERO AND ISZERO PUSH2 0x5E4 JUMPI PUSH2 0x5E3 PUSH2 0x65E JUMP JUMPDEST JUMPDEST DUP3 DUP3 MUL SWAP1 POP SWAP3 SWAP2 POP POP JUMP JUMPDEST PUSH1 0x0 PUSH2 0x5FA DUP3 PUSH2 0x623 JUMP JUMPDEST SWAP2 POP PUSH2 0x605 DUP4 PUSH2 0x623 JUMP JUMPDEST SWAP3 POP DUP3 DUP3 LT ISZERO PUSH2 0x618 JUMPI PUSH2 0x617 PUSH2 0x65E JUMP JUMPDEST JUMPDEST DUP3 DUP3 SUB SWAP1 POP SWAP3 SWAP2 POP POP JUMP JUMPDEST PUSH1 0x0 DUP2 SWAP1 POP SWAP2 SWAP1 POP JUMP JUMPDEST PUSH1 0x0 PUSH2 0x638 DUP3 PUSH2 0x623 JUMP JUMPDEST SWAP2 POP PUSH2 0x643 DUP4 PUSH2 0x623 JUMP JUMPDEST SWAP3 POP DUP3 PUSH2 0x653 JUMPI PUSH2 0x652 PUSH2 0x68D JUMP JUMPDEST JUMPDEST DUP3 DUP3 MOD SWAP1 POP SWAP3 SWAP2 POP POP JUMP JUMPDEST PUSH32 0x4E487B7100000000000000000000000000000000000000000000000000000000 PUSH1 0x0 MSTORE PUSH1 0x11 PUSH1 0x4 MSTORE PUSH1 0x24 PUSH1 0x0 REVERT JUMPDEST PUSH32 0x4E487B7100000000000000000000000000000000000000000000000000000000 PUSH1 0x0 MSTORE PUSH1 0x12 PUSH1 0x4 MSTORE PUSH1 0x24 PUSH1 0x0 REVERT JUMPDEST PUSH1 0x0 DUP1 REVERT JUMPDEST PUSH1 0x0 DUP2 PUSH1 0x1 SHR SWAP1 POP SWAP2 SWAP1 POP JUMP JUMPDEST PUSH2 0x6D7 DUP2 PUSH2 0x623 JUMP JUMPDEST DUP2 EQ PUSH2 0x6E2 JUMPI PUSH1 0x0 DUP1 REVERT JUMPDEST POP JUMP INVALID LOG2 PUSH5 0x6970667358 0x22 SLT KECCAK256 0xD6 0xBC 0xAC SDIV 0x24 CREATE SWAP13 0xDB CALLDATACOPY DUP11 0xB5 SWAP8 RETURNDATASIZE DIV MSIZE DUP6 MSTORE 0x28 REVERT PUSH15 0xFBBBD4A5BD3C0A2644C391AE64736F PUSH13 0x63430008070033000000000000 "
				},
				"gasEstimates": {
					"creation": {
						"codeDepositCost": "363800",
						"executionCost": "399",
						"totalCost": "364199"
					},
					"external": {
						"_addmod(uint256,uint256,uint256)": "infinite",
						"_mulmod(uint256,uint256,uint256)": "infinite",
						"division(uint256,uint256)": "infinite",
						"module(uint256,uint256)": "infinite",
						"pow(uint256,uint256)": "infinite",
						"product(uint256,uint256)": "infinite",
						"substract(uint256,uint256)": "infinite",
						"sum(uint256,uint256)": "infinite"
					}
				},
				"methodIdentifiers": {
					"_addmod(uint256,uint256,uint256)": "dd125e37",
					"_mulmod(uint256,uint256,uint256)": "871f9af4",
					"division(uint256,uint256)": "e0068052",
					"module(uint256,uint256)": "49175e4b",
					"pow(uint256,uint256)": "2e4c697f",
					"product(uint256,uint256)": "ba88c3b7",
					"substract(uint256,uint256)": "5d4e1e5c",
					"sum(uint256,uint256)": "cad0899b"
				}
			},
			"storageLayout": {
				"storage": [],
				"types": null
			},
			"userdoc": {
				"kind": "user",
				"methods": {},
				"version": 1
			}
		}
	}
}