{
	"contracts/2_variable_modifiers.sol": {
		"VariableModifiers": {
			"abi": [
				{
					"inputs": [],
					"name": "boolFalse",
					"outputs": [
						{
							"internalType": "bool",
							"name": "",
							"type": "bool"
						}
					],
					"stateMutability": "view",
					"type": "function"
				},
				{
					"inputs": [],
					"name": "boolTrue",
					"outputs": [
						{
							"internalType": "bool",
							"name": "",
							"type": "bool"
						}
					],
					"stateMutability": "view",
					"type": "function"
				},
				{
					"inputs": [],
					"name": "c",
					"outputs": [
						{
							"internalType": "uint16",
							"name": "",
							"type": "uint16"
						}
					],
					"stateMutability": "view",
					"type": "function"
				},
				{
					"inputs": [],
					"name": "e",
					"outputs": [
						{
							"internalType": "int32",
							"name": "",
							"type": "int32"
						}
					],
					"stateMutability": "view",
					"type": "function"
				},
				{
					"inputs": [],
					"name": "hash",
					"outputs": [
						{
							"internalType": "bytes32",
							"name": "",
							"type": "bytes32"
						}
					],
					"stateMutability": "view",
					"type": "function"
				},
				{
					"inputs": [],
					"name": "pl",
					"outputs": [
						{
							"internalType": "string",
							"name": "",
							"type": "string"
						}
					],
					"stateMutability": "view",
					"type": "function"
				},
				{
					"inputs": [],
					"name": "surname",
					"outputs": [
						{
							"internalType": "string",
							"name": "",
							"type": "string"
						}
					],
					"stateMutability": "view",
					"type": "function"
				}
			],
			"devdoc": {
				"kind": "dev",
				"methods": {},
				"version": 1
			},
			"evm": {
				"assembly": "    /* \"contracts/2_variable_modifiers.sol\":69:700  contract VariableModifiers {... */\n  mstore(0x40, 0x80)\n    /* \"contracts/2_variable_modifiers.sol\":167:170  255 */\n  0xff\n    /* \"contracts/2_variable_modifiers.sol\":157:170  uint8 b = 255 */\n  0x01\n  exp(0x0100, 0x00)\n  dup2\n  sload\n  dup2\n  0xff\n  mul\n  not\n  and\n  swap1\n  dup4\n  0xff\n  and\n  mul\n  or\n  swap1\n  sstore\n  pop\n    /* \"contracts/2_variable_modifiers.sol\":194:197  811 */\n  0x032b\n    /* \"contracts/2_variable_modifiers.sol\":176:197  uint16 public c = 811 */\n  0x01\n  dup1\n  0x0100\n  exp\n  dup2\n  sload\n  dup2\n  0xffff\n  mul\n  not\n  and\n  swap1\n  dup4\n  0xffff\n  and\n  mul\n  or\n  swap1\n  sstore\n  pop\n    /* \"contracts/2_variable_modifiers.sol\":250:254  -255 */\n  0xffffffffffffffffffffffffffffffffffffffffffffffffffffffffffffff01\n    /* \"contracts/2_variable_modifiers.sol\":242:254  int d = -255 */\n  0x02\n  sstore\n    /* \"contracts/2_variable_modifiers.sol\":277:281  -255 */\n  0xffffffffffffffffffffffffffffffffffffffffffffffffffffffffffffff01\n    /* \"contracts/2_variable_modifiers.sol\":260:281  int32 public e = -255 */\n  0x03\n  exp(0x0100, 0x00)\n  dup2\n  sload\n  dup2\n  0xffffffff\n  mul\n  not\n  and\n  swap1\n  dup4\n  0x03\n  signextend\n  0xffffffff\n  and\n  mul\n  or\n  swap1\n  sstore\n  pop\n    /* \"contracts/2_variable_modifiers.sol\":329:352  string name = \"Roberto\" */\n  mload(0x40)\n  dup1\n  0x40\n  add\n  0x40\n  mstore\n  dup1\n  0x07\n  dup2\n  mstore\n  0x20\n  add\n  0x526f626572746f00000000000000000000000000000000000000000000000000\n  dup2\n  mstore\n  pop\n  0x05\n  swap1\n  dup1\n  mload\n  swap1\n  0x20\n  add\n  swap1\n  tag_1\n  swap3\n  swap2\n  swap1\n  tag_2\n  jump\t// in\ntag_1:\n  pop\n    /* \"contracts/2_variable_modifiers.sol\":358:387  string public pl = \"Solidity\" */\n  mload(0x40)\n  dup1\n  0x40\n  add\n  0x40\n  mstore\n  dup1\n  0x08\n  dup2\n  mstore\n  0x20\n  add\n  0x536f6c6964697479000000000000000000000000000000000000000000000000\n  dup2\n  mstore\n  pop\n  0x06\n  swap1\n  dup1\n  mload\n  swap1\n  0x20\n  add\n  swap1\n  tag_3\n  swap3\n  swap2\n  swap1\n  tag_2\n  jump\t// in\ntag_3:\n  pop\n    /* \"contracts/2_variable_modifiers.sol\":451:455  true */\n  0x01\n    /* \"contracts/2_variable_modifiers.sol\":428:455  bool public boolTrue = true */\n  0x07\n  exp(0x0100, 0x01)\n  dup2\n  sload\n  dup2\n  0xff\n  mul\n  not\n  and\n  swap1\n  dup4\n  iszero\n  iszero\n  mul\n  or\n  swap1\n  sstore\n  pop\n    /* \"contracts/2_variable_modifiers.sol\":485:490  false */\n  0x00\n    /* \"contracts/2_variable_modifiers.sol\":461:490  bool public boolFalse = false */\n  0x07\n  exp(0x0100, 0x02)\n  dup2\n  sload\n  dup2\n  0xff\n  mul\n  not\n  and\n  swap1\n  dup4\n  iszero\n  iszero\n  mul\n  or\n  swap1\n  sstore\n  pop\n    /* \"contracts/2_variable_modifiers.sol\":682:686  name */\n  0x05\n    /* \"contracts/2_variable_modifiers.sol\":688:695  surname */\n  0x04\n    /* \"contracts/2_variable_modifiers.sol\":665:696  abi.encodePacked(name, surname) */\n  add(0x20, mload(0x40))\n  tag_4\n  swap3\n  swap2\n  swap1\n  tag_5\n  jump\t// in\ntag_4:\n  mload(0x40)\n  0x20\n  dup2\n  dup4\n  sub\n  sub\n  dup2\n  mstore\n  swap1\n  0x40\n  mstore\n    /* \"contracts/2_variable_modifiers.sol\":655:697  keccak256(abi.encodePacked(name, surname)) */\n  dup1\n  mload\n  swap1\n  0x20\n  add\n  keccak256\n    /* \"contracts/2_variable_modifiers.sol\":633:697  bytes32 public hash = keccak256(abi.encodePacked(name, surname)) */\n  0x0b\n  sstore\n    /* \"contracts/2_variable_modifiers.sol\":69:700  contract VariableModifiers {... */\n  callvalue\n  dup1\n  iszero\n  tag_6\n  jumpi\n  0x00\n  dup1\n  revert\ntag_6:\n  pop\n  jump(tag_7)\ntag_2:\n  dup3\n  dup1\n  sload\n  tag_8\n  swap1\n  tag_9\n  jump\t// in\ntag_8:\n  swap1\n  0x00\n  mstore\n  keccak256(0x00, 0x20)\n  swap1\n  0x1f\n  add\n  0x20\n  swap1\n  div\n  dup2\n  add\n  swap3\n  dup3\n  tag_11\n  jumpi\n  0x00\n  dup6\n  sstore\n  jump(tag_10)\ntag_11:\n  dup3\n  0x1f\n  lt\n  tag_12\n  jumpi\n  dup1\n  mload\n  not(0xff)\n  and\n  dup4\n  dup1\n  add\n  or\n  dup6\n  sstore\n  jump(tag_10)\ntag_12:\n  dup3\n  dup1\n  add\n  0x01\n  add\n  dup6\n  sstore\n  dup3\n  iszero\n  tag_10\n  jumpi\n  swap2\n  dup3\n  add\ntag_13:\n  dup3\n  dup2\n  gt\n  iszero\n  tag_14\n  jumpi\n  dup3\n  mload\n  dup3\n  sstore\n  swap2\n  0x20\n  add\n  swap2\n  swap1\n  0x01\n  add\n  swap1\n  jump(tag_13)\ntag_14:\ntag_10:\n  pop\n  swap1\n  pop\n  tag_15\n  swap2\n  swap1\n  tag_16\n  jump\t// in\ntag_15:\n  pop\n  swap1\n  jump\t// out\ntag_16:\ntag_17:\n  dup1\n  dup3\n  gt\n  iszero\n  tag_18\n  jumpi\n  0x00\n  dup2\n  0x00\n  swap1\n  sstore\n  pop\n  0x01\n  add\n  jump(tag_17)\ntag_18:\n  pop\n  swap1\n  jump\t// out\n    /* \"#utility.yul\":31:876   */\ntag_20:\n    /* \"#utility.yul\":134:137   */\n  0x00\n    /* \"#utility.yul\":171:176   */\n  dup2\n    /* \"#utility.yul\":165:177   */\n  sload\n    /* \"#utility.yul\":200:236   */\n  tag_22\n    /* \"#utility.yul\":226:235   */\n  dup2\n    /* \"#utility.yul\":200:236   */\n  tag_9\n  jump\t// in\ntag_22:\n    /* \"#utility.yul\":252:341   */\n  tag_23\n    /* \"#utility.yul\":334:340   */\n  dup2\n    /* \"#utility.yul\":329:332   */\n  dup7\n    /* \"#utility.yul\":252:341   */\n  tag_24\n  jump\t// in\ntag_23:\n    /* \"#utility.yul\":245:341   */\n  swap5\n  pop\n    /* \"#utility.yul\":372:373   */\n  0x01\n    /* \"#utility.yul\":361:370   */\n  dup3\n    /* \"#utility.yul\":357:374   */\n  and\n    /* \"#utility.yul\":388:389   */\n  0x00\n    /* \"#utility.yul\":383:520   */\n  dup2\n  eq\n  tag_26\n  jumpi\n    /* \"#utility.yul\":534:535   */\n  0x01\n    /* \"#utility.yul\":529:870   */\n  dup2\n  eq\n  tag_27\n  jumpi\n    /* \"#utility.yul\":350:870   */\n  jump(tag_25)\n    /* \"#utility.yul\":383:520   */\ntag_26:\n    /* \"#utility.yul\":467:471   */\n  0xff\n    /* \"#utility.yul\":463:472   */\n  not\n    /* \"#utility.yul\":452:461   */\n  dup4\n    /* \"#utility.yul\":448:473   */\n  and\n    /* \"#utility.yul\":443:446   */\n  dup7\n    /* \"#utility.yul\":436:474   */\n  mstore\n    /* \"#utility.yul\":503:509   */\n  dup2\n    /* \"#utility.yul\":498:501   */\n  dup7\n    /* \"#utility.yul\":494:510   */\n  add\n    /* \"#utility.yul\":487:510   */\n  swap4\n  pop\n    /* \"#utility.yul\":383:520   */\n  jump(tag_25)\n    /* \"#utility.yul\":529:870   */\ntag_27:\n    /* \"#utility.yul\":596:634   */\n  tag_28\n    /* \"#utility.yul\":628:633   */\n  dup6\n    /* \"#utility.yul\":596:634   */\n  tag_29\n  jump\t// in\ntag_28:\n    /* \"#utility.yul\":656:657   */\n  0x00\n    /* \"#utility.yul\":670:824   */\ntag_30:\n    /* \"#utility.yul\":684:690   */\n  dup4\n    /* \"#utility.yul\":681:682   */\n  dup2\n    /* \"#utility.yul\":678:691   */\n  lt\n    /* \"#utility.yul\":670:824   */\n  iszero\n  tag_32\n  jumpi\n    /* \"#utility.yul\":758:765   */\n  dup2\n    /* \"#utility.yul\":752:766   */\n  sload\n    /* \"#utility.yul\":748:749   */\n  dup2\n    /* \"#utility.yul\":743:746   */\n  dup10\n    /* \"#utility.yul\":739:750   */\n  add\n    /* \"#utility.yul\":732:767   */\n  mstore\n    /* \"#utility.yul\":808:809   */\n  0x01\n    /* \"#utility.yul\":799:806   */\n  dup3\n    /* \"#utility.yul\":795:810   */\n  add\n    /* \"#utility.yul\":784:810   */\n  swap2\n  pop\n    /* \"#utility.yul\":706:710   */\n  0x20\n    /* \"#utility.yul\":703:704   */\n  dup2\n    /* \"#utility.yul\":699:711   */\n  add\n    /* \"#utility.yul\":694:711   */\n  swap1\n  pop\n    /* \"#utility.yul\":670:824   */\n  jump(tag_30)\ntag_32:\n    /* \"#utility.yul\":853:859   */\n  dup4\n    /* \"#utility.yul\":848:851   */\n  dup9\n    /* \"#utility.yul\":844:860   */\n  add\n    /* \"#utility.yul\":837:860   */\n  swap6\n  pop\n    /* \"#utility.yul\":536:870   */\n  pop\n  pop\n    /* \"#utility.yul\":350:870   */\ntag_25:\n  pop\n    /* \"#utility.yul\":138:876   */\n  pop\n  pop\n  swap3\n  swap2\n  pop\n  pop\n  jump\t// out\n    /* \"#utility.yul\":882:1305   */\ntag_5:\n    /* \"#utility.yul\":1056:1059   */\n  0x00\n    /* \"#utility.yul\":1078:1170   */\n  tag_34\n    /* \"#utility.yul\":1166:1169   */\n  dup3\n    /* \"#utility.yul\":1157:1163   */\n  dup6\n    /* \"#utility.yul\":1078:1170   */\n  tag_20\n  jump\t// in\ntag_34:\n    /* \"#utility.yul\":1071:1170   */\n  swap2\n  pop\n    /* \"#utility.yul\":1187:1279   */\n  tag_35\n    /* \"#utility.yul\":1275:1278   */\n  dup3\n    /* \"#utility.yul\":1266:1272   */\n  dup5\n    /* \"#utility.yul\":1187:1279   */\n  tag_20\n  jump\t// in\ntag_35:\n    /* \"#utility.yul\":1180:1279   */\n  swap2\n  pop\n    /* \"#utility.yul\":1296:1299   */\n  dup2\n    /* \"#utility.yul\":1289:1299   */\n  swap1\n  pop\n    /* \"#utility.yul\":1060:1305   */\n  swap4\n  swap3\n  pop\n  pop\n  pop\n  jump\t// out\n    /* \"#utility.yul\":1311:1452   */\ntag_29:\n    /* \"#utility.yul\":1360:1364   */\n  0x00\n    /* \"#utility.yul\":1383:1386   */\n  dup2\n    /* \"#utility.yul\":1375:1386   */\n  swap1\n  pop\n    /* \"#utility.yul\":1406:1409   */\n  dup2\n    /* \"#utility.yul\":1403:1404   */\n  0x00\n    /* \"#utility.yul\":1396:1410   */\n  mstore\n    /* \"#utility.yul\":1440:1444   */\n  0x20\n    /* \"#utility.yul\":1437:1438   */\n  0x00\n    /* \"#utility.yul\":1427:1445   */\n  keccak256\n    /* \"#utility.yul\":1419:1445   */\n  swap1\n  pop\n    /* \"#utility.yul\":1365:1452   */\n  swap2\n  swap1\n  pop\n  jump\t// out\n    /* \"#utility.yul\":1458:1606   */\ntag_24:\n    /* \"#utility.yul\":1560:1571   */\n  0x00\n    /* \"#utility.yul\":1597:1600   */\n  dup2\n    /* \"#utility.yul\":1582:1600   */\n  swap1\n  pop\n    /* \"#utility.yul\":1572:1606   */\n  swap3\n  swap2\n  pop\n  pop\n  jump\t// out\n    /* \"#utility.yul\":1612:1932   */\ntag_9:\n    /* \"#utility.yul\":1656:1662   */\n  0x00\n    /* \"#utility.yul\":1693:1694   */\n  0x02\n    /* \"#utility.yul\":1687:1691   */\n  dup3\n    /* \"#utility.yul\":1683:1695   */\n  div\n    /* \"#utility.yul\":1673:1695   */\n  swap1\n  pop\n    /* \"#utility.yul\":1740:1741   */\n  0x01\n    /* \"#utility.yul\":1734:1738   */\n  dup3\n    /* \"#utility.yul\":1730:1742   */\n  and\n    /* \"#utility.yul\":1761:1779   */\n  dup1\n    /* \"#utility.yul\":1751:1753   */\n  tag_39\n  jumpi\n    /* \"#utility.yul\":1817:1821   */\n  0x7f\n    /* \"#utility.yul\":1809:1815   */\n  dup3\n    /* \"#utility.yul\":1805:1822   */\n  and\n    /* \"#utility.yul\":1795:1822   */\n  swap2\n  pop\n    /* \"#utility.yul\":1751:1753   */\ntag_39:\n    /* \"#utility.yul\":1879:1881   */\n  0x20\n    /* \"#utility.yul\":1871:1877   */\n  dup3\n    /* \"#utility.yul\":1868:1882   */\n  lt\n    /* \"#utility.yul\":1848:1866   */\n  dup2\n    /* \"#utility.yul\":1845:1883   */\n  eq\n    /* \"#utility.yul\":1842:1844   */\n  iszero\n  tag_40\n  jumpi\n    /* \"#utility.yul\":1898:1916   */\n  tag_41\n  tag_42\n  jump\t// in\ntag_41:\n    /* \"#utility.yul\":1842:1844   */\ntag_40:\n    /* \"#utility.yul\":1663:1932   */\n  pop\n  swap2\n  swap1\n  pop\n  jump\t// out\n    /* \"#utility.yul\":1938:2118   */\ntag_42:\n    /* \"#utility.yul\":1986:2063   */\n  0x4e487b7100000000000000000000000000000000000000000000000000000000\n    /* \"#utility.yul\":1983:1984   */\n  0x00\n    /* \"#utility.yul\":1976:2064   */\n  mstore\n    /* \"#utility.yul\":2083:2087   */\n  0x22\n    /* \"#utility.yul\":2080:2081   */\n  0x04\n    /* \"#utility.yul\":2073:2088   */\n  mstore\n    /* \"#utility.yul\":2107:2111   */\n  0x24\n    /* \"#utility.yul\":2104:2105   */\n  0x00\n    /* \"#utility.yul\":2097:2112   */\n  revert\n    /* \"contracts/2_variable_modifiers.sol\":69:700  contract VariableModifiers {... */\ntag_7:\n  dataSize(sub_0)\n  dup1\n  dataOffset(sub_0)\n  0x00\n  codecopy\n  0x00\n  return\nstop\n\nsub_0: assembly {\n        /* \"contracts/2_variable_modifiers.sol\":69:700  contract VariableModifiers {... */\n      mstore(0x40, 0x80)\n      callvalue\n      dup1\n      iszero\n      tag_1\n      jumpi\n      0x00\n      dup1\n      revert\n    tag_1:\n      pop\n      jumpi(tag_2, lt(calldatasize, 0x04))\n      shr(0xe0, calldataload(0x00))\n      dup1\n      0x90e1437c\n      gt\n      tag_10\n      jumpi\n      dup1\n      0x90e1437c\n      eq\n      tag_6\n      jumpi\n      dup1\n      0xb38fee92\n      eq\n      tag_7\n      jumpi\n      dup1\n      0xc3da42b8\n      eq\n      tag_8\n      jumpi\n      dup1\n      0xffae15ba\n      eq\n      tag_9\n      jumpi\n      jump(tag_2)\n    tag_10:\n      dup1\n      0x09bd5a60\n      eq\n      tag_3\n      jumpi\n      dup1\n      0x222a90ac\n      eq\n      tag_4\n      jumpi\n      dup1\n      0x42fb0109\n      eq\n      tag_5\n      jumpi\n    tag_2:\n      0x00\n      dup1\n      revert\n        /* \"contracts/2_variable_modifiers.sol\":633:697  bytes32 public hash = keccak256(abi.encodePacked(name, surname)) */\n    tag_3:\n      tag_11\n      tag_12\n      jump\t// in\n    tag_11:\n      mload(0x40)\n      tag_13\n      swap2\n      swap1\n      tag_14\n      jump\t// in\n    tag_13:\n      mload(0x40)\n      dup1\n      swap2\n      sub\n      swap1\n      return\n        /* \"contracts/2_variable_modifiers.sol\":461:490  bool public boolFalse = false */\n    tag_4:\n      tag_15\n      tag_16\n      jump\t// in\n    tag_15:\n      mload(0x40)\n      tag_17\n      swap2\n      swap1\n      tag_18\n      jump\t// in\n    tag_17:\n      mload(0x40)\n      dup1\n      swap2\n      sub\n      swap1\n      return\n        /* \"contracts/2_variable_modifiers.sol\":428:455  bool public boolTrue = true */\n    tag_5:\n      tag_19\n      tag_20\n      jump\t// in\n    tag_19:\n      mload(0x40)\n      tag_21\n      swap2\n      swap1\n      tag_18\n      jump\t// in\n    tag_21:\n      mload(0x40)\n      dup1\n      swap2\n      sub\n      swap1\n      return\n        /* \"contracts/2_variable_modifiers.sol\":358:387  string public pl = \"Solidity\" */\n    tag_6:\n      tag_22\n      tag_23\n      jump\t// in\n    tag_22:\n      mload(0x40)\n      tag_24\n      swap2\n      swap1\n      tag_25\n      jump\t// in\n    tag_24:\n      mload(0x40)\n      dup1\n      swap2\n      sub\n      swap1\n      return\n        /* \"contracts/2_variable_modifiers.sol\":302:323  string public surname */\n    tag_7:\n      tag_26\n      tag_27\n      jump\t// in\n    tag_26:\n      mload(0x40)\n      tag_28\n      swap2\n      swap1\n      tag_25\n      jump\t// in\n    tag_28:\n      mload(0x40)\n      dup1\n      swap2\n      sub\n      swap1\n      return\n        /* \"contracts/2_variable_modifiers.sol\":176:197  uint16 public c = 811 */\n    tag_8:\n      tag_29\n      tag_30\n      jump\t// in\n    tag_29:\n      mload(0x40)\n      tag_31\n      swap2\n      swap1\n      tag_32\n      jump\t// in\n    tag_31:\n      mload(0x40)\n      dup1\n      swap2\n      sub\n      swap1\n      return\n        /* \"contracts/2_variable_modifiers.sol\":260:281  int32 public e = -255 */\n    tag_9:\n      tag_33\n      tag_34\n      jump\t// in\n    tag_33:\n      mload(0x40)\n      tag_35\n      swap2\n      swap1\n      tag_36\n      jump\t// in\n    tag_35:\n      mload(0x40)\n      dup1\n      swap2\n      sub\n      swap1\n      return\n        /* \"contracts/2_variable_modifiers.sol\":633:697  bytes32 public hash = keccak256(abi.encodePacked(name, surname)) */\n    tag_12:\n      sload(0x0b)\n      dup2\n      jump\t// out\n        /* \"contracts/2_variable_modifiers.sol\":461:490  bool public boolFalse = false */\n    tag_16:\n      0x07\n      0x02\n      swap1\n      sload\n      swap1\n      0x0100\n      exp\n      swap1\n      div\n      0xff\n      and\n      dup2\n      jump\t// out\n        /* \"contracts/2_variable_modifiers.sol\":428:455  bool public boolTrue = true */\n    tag_20:\n      0x07\n      0x01\n      swap1\n      sload\n      swap1\n      0x0100\n      exp\n      swap1\n      div\n      0xff\n      and\n      dup2\n      jump\t// out\n        /* \"contracts/2_variable_modifiers.sol\":358:387  string public pl = \"Solidity\" */\n    tag_23:\n      0x06\n      dup1\n      sload\n      tag_37\n      swap1\n      tag_38\n      jump\t// in\n    tag_37:\n      dup1\n      0x1f\n      add\n      0x20\n      dup1\n      swap2\n      div\n      mul\n      0x20\n      add\n      mload(0x40)\n      swap1\n      dup2\n      add\n      0x40\n      mstore\n      dup1\n      swap3\n      swap2\n      swap1\n      dup2\n      dup2\n      mstore\n      0x20\n      add\n      dup3\n      dup1\n      sload\n      tag_39\n      swap1\n      tag_38\n      jump\t// in\n    tag_39:\n      dup1\n      iszero\n      tag_40\n      jumpi\n      dup1\n      0x1f\n      lt\n      tag_41\n      jumpi\n      0x0100\n      dup1\n      dup4\n      sload\n      div\n      mul\n      dup4\n      mstore\n      swap2\n      0x20\n      add\n      swap2\n      jump(tag_40)\n    tag_41:\n      dup3\n      add\n      swap2\n      swap1\n      0x00\n      mstore\n      keccak256(0x00, 0x20)\n      swap1\n    tag_42:\n      dup2\n      sload\n      dup2\n      mstore\n      swap1\n      0x01\n      add\n      swap1\n      0x20\n      add\n      dup1\n      dup4\n      gt\n      tag_42\n      jumpi\n      dup3\n      swap1\n      sub\n      0x1f\n      and\n      dup3\n      add\n      swap2\n    tag_40:\n      pop\n      pop\n      pop\n      pop\n      pop\n      dup2\n      jump\t// out\n        /* \"contracts/2_variable_modifiers.sol\":302:323  string public surname */\n    tag_27:\n      0x04\n      dup1\n      sload\n      tag_43\n      swap1\n      tag_38\n      jump\t// in\n    tag_43:\n      dup1\n      0x1f\n      add\n      0x20\n      dup1\n      swap2\n      div\n      mul\n      0x20\n      add\n      mload(0x40)\n      swap1\n      dup2\n      add\n      0x40\n      mstore\n      dup1\n      swap3\n      swap2\n      swap1\n      dup2\n      dup2\n      mstore\n      0x20\n      add\n      dup3\n      dup1\n      sload\n      tag_44\n      swap1\n      tag_38\n      jump\t// in\n    tag_44:\n      dup1\n      iszero\n      tag_45\n      jumpi\n      dup1\n      0x1f\n      lt\n      tag_46\n      jumpi\n      0x0100\n      dup1\n      dup4\n      sload\n      div\n      mul\n      dup4\n      mstore\n      swap2\n      0x20\n      add\n      swap2\n      jump(tag_45)\n    tag_46:\n      dup3\n      add\n      swap2\n      swap1\n      0x00\n      mstore\n      keccak256(0x00, 0x20)\n      swap1\n    tag_47:\n      dup2\n      sload\n      dup2\n      mstore\n      swap1\n      0x01\n      add\n      swap1\n      0x20\n      add\n      dup1\n      dup4\n      gt\n      tag_47\n      jumpi\n      dup3\n      swap1\n      sub\n      0x1f\n      and\n      dup3\n      add\n      swap2\n    tag_45:\n      pop\n      pop\n      pop\n      pop\n      pop\n      dup2\n      jump\t// out\n        /* \"contracts/2_variable_modifiers.sol\":176:197  uint16 public c = 811 */\n    tag_30:\n      0x01\n      dup1\n      sload\n      swap1\n      0x0100\n      exp\n      swap1\n      div\n      0xffff\n      and\n      dup2\n      jump\t// out\n        /* \"contracts/2_variable_modifiers.sol\":260:281  int32 public e = -255 */\n    tag_34:\n      0x03\n      0x00\n      swap1\n      sload\n      swap1\n      0x0100\n      exp\n      swap1\n      div\n      0x03\n      signextend\n      dup2\n      jump\t// out\n        /* \"#utility.yul\":7:116   */\n    tag_49:\n        /* \"#utility.yul\":88:109   */\n      tag_51\n        /* \"#utility.yul\":103:108   */\n      dup2\n        /* \"#utility.yul\":88:109   */\n      tag_52\n      jump\t// in\n    tag_51:\n        /* \"#utility.yul\":83:86   */\n      dup3\n        /* \"#utility.yul\":76:110   */\n      mstore\n        /* \"#utility.yul\":66:116   */\n      pop\n      pop\n      jump\t// out\n        /* \"#utility.yul\":122:240   */\n    tag_53:\n        /* \"#utility.yul\":209:233   */\n      tag_55\n        /* \"#utility.yul\":227:232   */\n      dup2\n        /* \"#utility.yul\":209:233   */\n      tag_56\n      jump\t// in\n    tag_55:\n        /* \"#utility.yul\":204:207   */\n      dup3\n        /* \"#utility.yul\":197:234   */\n      mstore\n        /* \"#utility.yul\":187:240   */\n      pop\n      pop\n      jump\t// out\n        /* \"#utility.yul\":246:358   */\n    tag_57:\n        /* \"#utility.yul\":329:351   */\n      tag_59\n        /* \"#utility.yul\":345:350   */\n      dup2\n        /* \"#utility.yul\":329:351   */\n      tag_60\n      jump\t// in\n    tag_59:\n        /* \"#utility.yul\":324:327   */\n      dup3\n        /* \"#utility.yul\":317:352   */\n      mstore\n        /* \"#utility.yul\":307:358   */\n      pop\n      pop\n      jump\t// out\n        /* \"#utility.yul\":364:728   */\n    tag_61:\n        /* \"#utility.yul\":452:455   */\n      0x00\n        /* \"#utility.yul\":480:519   */\n      tag_63\n        /* \"#utility.yul\":513:518   */\n      dup3\n        /* \"#utility.yul\":480:519   */\n      tag_64\n      jump\t// in\n    tag_63:\n        /* \"#utility.yul\":535:606   */\n      tag_65\n        /* \"#utility.yul\":599:605   */\n      dup2\n        /* \"#utility.yul\":594:597   */\n      dup6\n        /* \"#utility.yul\":535:606   */\n      tag_66\n      jump\t// in\n    tag_65:\n        /* \"#utility.yul\":528:606   */\n      swap4\n      pop\n        /* \"#utility.yul\":615:667   */\n      tag_67\n        /* \"#utility.yul\":660:666   */\n      dup2\n        /* \"#utility.yul\":655:658   */\n      dup6\n        /* \"#utility.yul\":648:652   */\n      0x20\n        /* \"#utility.yul\":641:646   */\n      dup7\n        /* \"#utility.yul\":637:653   */\n      add\n        /* \"#utility.yul\":615:667   */\n      tag_68\n      jump\t// in\n    tag_67:\n        /* \"#utility.yul\":692:721   */\n      tag_69\n        /* \"#utility.yul\":714:720   */\n      dup2\n        /* \"#utility.yul\":692:721   */\n      tag_70\n      jump\t// in\n    tag_69:\n        /* \"#utility.yul\":687:690   */\n      dup5\n        /* \"#utility.yul\":683:722   */\n      add\n        /* \"#utility.yul\":676:722   */\n      swap2\n      pop\n        /* \"#utility.yul\":456:728   */\n      pop\n      swap3\n      swap2\n      pop\n      pop\n      jump\t// out\n        /* \"#utility.yul\":734:849   */\n    tag_71:\n        /* \"#utility.yul\":819:842   */\n      tag_73\n        /* \"#utility.yul\":836:841   */\n      dup2\n        /* \"#utility.yul\":819:842   */\n      tag_74\n      jump\t// in\n    tag_73:\n        /* \"#utility.yul\":814:817   */\n      dup3\n        /* \"#utility.yul\":807:843   */\n      mstore\n        /* \"#utility.yul\":797:849   */\n      pop\n      pop\n      jump\t// out\n        /* \"#utility.yul\":855:1065   */\n    tag_18:\n        /* \"#utility.yul\":942:946   */\n      0x00\n        /* \"#utility.yul\":980:982   */\n      0x20\n        /* \"#utility.yul\":969:978   */\n      dup3\n        /* \"#utility.yul\":965:983   */\n      add\n        /* \"#utility.yul\":957:983   */\n      swap1\n      pop\n        /* \"#utility.yul\":993:1058   */\n      tag_76\n        /* \"#utility.yul\":1055:1056   */\n      0x00\n        /* \"#utility.yul\":1044:1053   */\n      dup4\n        /* \"#utility.yul\":1040:1057   */\n      add\n        /* \"#utility.yul\":1031:1037   */\n      dup5\n        /* \"#utility.yul\":993:1058   */\n      tag_49\n      jump\t// in\n    tag_76:\n        /* \"#utility.yul\":947:1065   */\n      swap3\n      swap2\n      pop\n      pop\n      jump\t// out\n        /* \"#utility.yul\":1071:1293   */\n    tag_14:\n        /* \"#utility.yul\":1164:1168   */\n      0x00\n        /* \"#utility.yul\":1202:1204   */\n      0x20\n        /* \"#utility.yul\":1191:1200   */\n      dup3\n        /* \"#utility.yul\":1187:1205   */\n      add\n        /* \"#utility.yul\":1179:1205   */\n      swap1\n      pop\n        /* \"#utility.yul\":1215:1286   */\n      tag_78\n        /* \"#utility.yul\":1283:1284   */\n      0x00\n        /* \"#utility.yul\":1272:1281   */\n      dup4\n        /* \"#utility.yul\":1268:1285   */\n      add\n        /* \"#utility.yul\":1259:1265   */\n      dup5\n        /* \"#utility.yul\":1215:1286   */\n      tag_53\n      jump\t// in\n    tag_78:\n        /* \"#utility.yul\":1169:1293   */\n      swap3\n      swap2\n      pop\n      pop\n      jump\t// out\n        /* \"#utility.yul\":1299:1513   */\n    tag_36:\n        /* \"#utility.yul\":1388:1392   */\n      0x00\n        /* \"#utility.yul\":1426:1428   */\n      0x20\n        /* \"#utility.yul\":1415:1424   */\n      dup3\n        /* \"#utility.yul\":1411:1429   */\n      add\n        /* \"#utility.yul\":1403:1429   */\n      swap1\n      pop\n        /* \"#utility.yul\":1439:1506   */\n      tag_80\n        /* \"#utility.yul\":1503:1504   */\n      0x00\n        /* \"#utility.yul\":1492:1501   */\n      dup4\n        /* \"#utility.yul\":1488:1505   */\n      add\n        /* \"#utility.yul\":1479:1485   */\n      dup5\n        /* \"#utility.yul\":1439:1506   */\n      tag_57\n      jump\t// in\n    tag_80:\n        /* \"#utility.yul\":1393:1513   */\n      swap3\n      swap2\n      pop\n      pop\n      jump\t// out\n        /* \"#utility.yul\":1519:1832   */\n    tag_25:\n        /* \"#utility.yul\":1632:1636   */\n      0x00\n        /* \"#utility.yul\":1670:1672   */\n      0x20\n        /* \"#utility.yul\":1659:1668   */\n      dup3\n        /* \"#utility.yul\":1655:1673   */\n      add\n        /* \"#utility.yul\":1647:1673   */\n      swap1\n      pop\n        /* \"#utility.yul\":1719:1728   */\n      dup2\n        /* \"#utility.yul\":1713:1717   */\n      dup2\n        /* \"#utility.yul\":1709:1729   */\n      sub\n        /* \"#utility.yul\":1705:1706   */\n      0x00\n        /* \"#utility.yul\":1694:1703   */\n      dup4\n        /* \"#utility.yul\":1690:1707   */\n      add\n        /* \"#utility.yul\":1683:1730   */\n      mstore\n        /* \"#utility.yul\":1747:1825   */\n      tag_82\n        /* \"#utility.yul\":1820:1824   */\n      dup2\n        /* \"#utility.yul\":1811:1817   */\n      dup5\n        /* \"#utility.yul\":1747:1825   */\n      tag_61\n      jump\t// in\n    tag_82:\n        /* \"#utility.yul\":1739:1825   */\n      swap1\n      pop\n        /* \"#utility.yul\":1637:1832   */\n      swap3\n      swap2\n      pop\n      pop\n      jump\t// out\n        /* \"#utility.yul\":1838:2056   */\n    tag_32:\n        /* \"#utility.yul\":1929:1933   */\n      0x00\n        /* \"#utility.yul\":1967:1969   */\n      0x20\n        /* \"#utility.yul\":1956:1965   */\n      dup3\n        /* \"#utility.yul\":1952:1970   */\n      add\n        /* \"#utility.yul\":1944:1970   */\n      swap1\n      pop\n        /* \"#utility.yul\":1980:2049   */\n      tag_84\n        /* \"#utility.yul\":2046:2047   */\n      0x00\n        /* \"#utility.yul\":2035:2044   */\n      dup4\n        /* \"#utility.yul\":2031:2048   */\n      add\n        /* \"#utility.yul\":2022:2028   */\n      dup5\n        /* \"#utility.yul\":1980:2049   */\n      tag_71\n      jump\t// in\n    tag_84:\n        /* \"#utility.yul\":1934:2056   */\n      swap3\n      swap2\n      pop\n      pop\n      jump\t// out\n        /* \"#utility.yul\":2062:2161   */\n    tag_64:\n        /* \"#utility.yul\":2114:2120   */\n      0x00\n        /* \"#utility.yul\":2148:2153   */\n      dup2\n        /* \"#utility.yul\":2142:2154   */\n      mload\n        /* \"#utility.yul\":2132:2154   */\n      swap1\n      pop\n        /* \"#utility.yul\":2121:2161   */\n      swap2\n      swap1\n      pop\n      jump\t// out\n        /* \"#utility.yul\":2167:2336   */\n    tag_66:\n        /* \"#utility.yul\":2251:2262   */\n      0x00\n        /* \"#utility.yul\":2285:2291   */\n      dup3\n        /* \"#utility.yul\":2280:2283   */\n      dup3\n        /* \"#utility.yul\":2273:2292   */\n      mstore\n        /* \"#utility.yul\":2325:2329   */\n      0x20\n        /* \"#utility.yul\":2320:2323   */\n      dup3\n        /* \"#utility.yul\":2316:2330   */\n      add\n        /* \"#utility.yul\":2301:2330   */\n      swap1\n      pop\n        /* \"#utility.yul\":2263:2336   */\n      swap3\n      swap2\n      pop\n      pop\n      jump\t// out\n        /* \"#utility.yul\":2342:2432   */\n    tag_52:\n        /* \"#utility.yul\":2376:2383   */\n      0x00\n        /* \"#utility.yul\":2419:2424   */\n      dup2\n        /* \"#utility.yul\":2412:2425   */\n      iszero\n        /* \"#utility.yul\":2405:2426   */\n      iszero\n        /* \"#utility.yul\":2394:2426   */\n      swap1\n      pop\n        /* \"#utility.yul\":2384:2432   */\n      swap2\n      swap1\n      pop\n      jump\t// out\n        /* \"#utility.yul\":2438:2515   */\n    tag_56:\n        /* \"#utility.yul\":2475:2482   */\n      0x00\n        /* \"#utility.yul\":2504:2509   */\n      dup2\n        /* \"#utility.yul\":2493:2509   */\n      swap1\n      pop\n        /* \"#utility.yul\":2483:2515   */\n      swap2\n      swap1\n      pop\n      jump\t// out\n        /* \"#utility.yul\":2521:2611   */\n    tag_60:\n        /* \"#utility.yul\":2556:2563   */\n      0x00\n        /* \"#utility.yul\":2599:2604   */\n      dup2\n        /* \"#utility.yul\":2596:2597   */\n      0x03\n        /* \"#utility.yul\":2585:2605   */\n      signextend\n        /* \"#utility.yul\":2574:2605   */\n      swap1\n      pop\n        /* \"#utility.yul\":2564:2611   */\n      swap2\n      swap1\n      pop\n      jump\t// out\n        /* \"#utility.yul\":2617:2706   */\n    tag_74:\n        /* \"#utility.yul\":2653:2660   */\n      0x00\n        /* \"#utility.yul\":2693:2699   */\n      0xffff\n        /* \"#utility.yul\":2686:2691   */\n      dup3\n        /* \"#utility.yul\":2682:2700   */\n      and\n        /* \"#utility.yul\":2671:2700   */\n      swap1\n      pop\n        /* \"#utility.yul\":2661:2706   */\n      swap2\n      swap1\n      pop\n      jump\t// out\n        /* \"#utility.yul\":2712:3019   */\n    tag_68:\n        /* \"#utility.yul\":2780:2781   */\n      0x00\n        /* \"#utility.yul\":2790:2903   */\n    tag_92:\n        /* \"#utility.yul\":2804:2810   */\n      dup4\n        /* \"#utility.yul\":2801:2802   */\n      dup2\n        /* \"#utility.yul\":2798:2811   */\n      lt\n        /* \"#utility.yul\":2790:2903   */\n      iszero\n      tag_94\n      jumpi\n        /* \"#utility.yul\":2889:2890   */\n      dup1\n        /* \"#utility.yul\":2884:2887   */\n      dup3\n        /* \"#utility.yul\":2880:2891   */\n      add\n        /* \"#utility.yul\":2874:2892   */\n      mload\n        /* \"#utility.yul\":2870:2871   */\n      dup2\n        /* \"#utility.yul\":2865:2868   */\n      dup5\n        /* \"#utility.yul\":2861:2872   */\n      add\n        /* \"#utility.yul\":2854:2893   */\n      mstore\n        /* \"#utility.yul\":2826:2828   */\n      0x20\n        /* \"#utility.yul\":2823:2824   */\n      dup2\n        /* \"#utility.yul\":2819:2829   */\n      add\n        /* \"#utility.yul\":2814:2829   */\n      swap1\n      pop\n        /* \"#utility.yul\":2790:2903   */\n      jump(tag_92)\n    tag_94:\n        /* \"#utility.yul\":2921:2927   */\n      dup4\n        /* \"#utility.yul\":2918:2919   */\n      dup2\n        /* \"#utility.yul\":2915:2928   */\n      gt\n        /* \"#utility.yul\":2912:2914   */\n      iszero\n      tag_95\n      jumpi\n        /* \"#utility.yul\":3001:3002   */\n      0x00\n        /* \"#utility.yul\":2992:2998   */\n      dup5\n        /* \"#utility.yul\":2987:2990   */\n      dup5\n        /* \"#utility.yul\":2983:2999   */\n      add\n        /* \"#utility.yul\":2976:3003   */\n      mstore\n        /* \"#utility.yul\":2912:2914   */\n    tag_95:\n        /* \"#utility.yul\":2761:3019   */\n      pop\n      pop\n      pop\n      pop\n      jump\t// out\n        /* \"#utility.yul\":3025:3345   */\n    tag_38:\n        /* \"#utility.yul\":3069:3075   */\n      0x00\n        /* \"#utility.yul\":3106:3107   */\n      0x02\n        /* \"#utility.yul\":3100:3104   */\n      dup3\n        /* \"#utility.yul\":3096:3108   */\n      div\n        /* \"#utility.yul\":3086:3108   */\n      swap1\n      pop\n        /* \"#utility.yul\":3153:3154   */\n      0x01\n        /* \"#utility.yul\":3147:3151   */\n      dup3\n        /* \"#utility.yul\":3143:3155   */\n      and\n        /* \"#utility.yul\":3174:3192   */\n      dup1\n        /* \"#utility.yul\":3164:3166   */\n      tag_97\n      jumpi\n        /* \"#utility.yul\":3230:3234   */\n      0x7f\n        /* \"#utility.yul\":3222:3228   */\n      dup3\n        /* \"#utility.yul\":3218:3235   */\n      and\n        /* \"#utility.yul\":3208:3235   */\n      swap2\n      pop\n        /* \"#utility.yul\":3164:3166   */\n    tag_97:\n        /* \"#utility.yul\":3292:3294   */\n      0x20\n        /* \"#utility.yul\":3284:3290   */\n      dup3\n        /* \"#utility.yul\":3281:3295   */\n      lt\n        /* \"#utility.yul\":3261:3279   */\n      dup2\n        /* \"#utility.yul\":3258:3296   */\n      eq\n        /* \"#utility.yul\":3255:3257   */\n      iszero\n      tag_98\n      jumpi\n        /* \"#utility.yul\":3311:3329   */\n      tag_99\n      tag_100\n      jump\t// in\n    tag_99:\n        /* \"#utility.yul\":3255:3257   */\n    tag_98:\n        /* \"#utility.yul\":3076:3345   */\n      pop\n      swap2\n      swap1\n      pop\n      jump\t// out\n        /* \"#utility.yul\":3351:3531   */\n    tag_100:\n        /* \"#utility.yul\":3399:3476   */\n      0x4e487b7100000000000000000000000000000000000000000000000000000000\n        /* \"#utility.yul\":3396:3397   */\n      0x00\n        /* \"#utility.yul\":3389:3477   */\n      mstore\n        /* \"#utility.yul\":3496:3500   */\n      0x22\n        /* \"#utility.yul\":3493:3494   */\n      0x04\n        /* \"#utility.yul\":3486:3501   */\n      mstore\n        /* \"#utility.yul\":3520:3524   */\n      0x24\n        /* \"#utility.yul\":3517:3518   */\n      0x00\n        /* \"#utility.yul\":3510:3525   */\n      revert\n        /* \"#utility.yul\":3537:3639   */\n    tag_70:\n        /* \"#utility.yul\":3578:3584   */\n      0x00\n        /* \"#utility.yul\":3629:3631   */\n      0x1f\n        /* \"#utility.yul\":3625:3632   */\n      not\n        /* \"#utility.yul\":3620:3622   */\n      0x1f\n        /* \"#utility.yul\":3613:3618   */\n      dup4\n        /* \"#utility.yul\":3609:3623   */\n      add\n        /* \"#utility.yul\":3605:3633   */\n      and\n        /* \"#utility.yul\":3595:3633   */\n      swap1\n      pop\n        /* \"#utility.yul\":3585:3639   */\n      swap2\n      swap1\n      pop\n      jump\t// out\n\n    auxdata: 0xa2646970667358221220f3135e419e1995accf1d3ff6eefcd358c324bf526c1daa56870e8208abe25da864736f6c63430008050033\n}\n",
				"bytecode": {
					"linkReferences": {},
					"object": "608060405260ff600160006101000a81548160ff021916908360ff16021790555061032b6001806101000a81548161ffff021916908361ffff1602179055507fffffffffffffffffffffffffffffffffffffffffffffffffffffffffffffff016002557fffffffffffffffffffffffffffffffffffffffffffffffffffffffffffffff01600360006101000a81548163ffffffff021916908360030b63ffffffff1602179055506040518060400160405280600781526020017f526f626572746f00000000000000000000000000000000000000000000000000815250600590805190602001906100f19291906101b4565b506040518060400160405280600881526020017f536f6c69646974790000000000000000000000000000000000000000000000008152506006908051906020019061013d9291906101b4565b506001600760016101000a81548160ff0219169083151502179055506000600760026101000a81548160ff021916908315150217905550600560046040516020016101899291906102d6565b60405160208183030381529060405280519060200120600b553480156101ae57600080fd5b5061037b565b8280546101c09061031a565b90600052602060002090601f0160209004810192826101e25760008555610229565b82601f106101fb57805160ff1916838001178555610229565b82800160010185558215610229579182015b8281111561022857825182559160200191906001019061020d565b5b509050610236919061023a565b5090565b5b8082111561025357600081600090555060010161023b565b5090565b600081546102648161031a565b61026e818661030f565b94506001821660008114610289576001811461029a576102cd565b60ff198316865281860193506102cd565b6102a3856102fa565b60005b838110156102c5578154818901526001820191506020810190506102a6565b838801955050505b50505092915050565b60006102e28285610257565b91506102ee8284610257565b91508190509392505050565b60008190508160005260206000209050919050565b600081905092915050565b6000600282049050600182168061033257607f821691505b602082108114156103465761034561034c565b5b50919050565b7f4e487b7100000000000000000000000000000000000000000000000000000000600052602260045260246000fd5b6104ec8061038a6000396000f3fe608060405234801561001057600080fd5b506004361061007d5760003560e01c806390e1437c1161005b57806390e1437c146100dc578063b38fee92146100fa578063c3da42b814610118578063ffae15ba146101365761007d565b806309bd5a6014610082578063222a90ac146100a057806342fb0109146100be575b600080fd5b61008a610154565b6040516100979190610351565b60405180910390f35b6100a861015a565b6040516100b59190610336565b60405180910390f35b6100c661016d565b6040516100d39190610336565b60405180910390f35b6100e4610180565b6040516100f19190610387565b60405180910390f35b61010261020e565b60405161010f9190610387565b60405180910390f35b61012061029c565b60405161012d91906103a9565b60405180910390f35b61013e6102ae565b60405161014b919061036c565b60405180910390f35b600b5481565b600760029054906101000a900460ff1681565b600760019054906101000a900460ff1681565b6006805461018d90610444565b80601f01602080910402602001604051908101604052809291908181526020018280546101b990610444565b80156102065780601f106101db57610100808354040283529160200191610206565b820191906000526020600020905b8154815290600101906020018083116101e957829003601f168201915b505050505081565b6004805461021b90610444565b80601f016020809104026020016040519081016040528092919081815260200182805461024790610444565b80156102945780601f1061026957610100808354040283529160200191610294565b820191906000526020600020905b81548152906001019060200180831161027757829003601f168201915b505050505081565b60018054906101000a900461ffff1681565b600360009054906101000a900460030b81565b6102ca816103e0565b82525050565b6102d9816103ec565b82525050565b6102e8816103f6565b82525050565b60006102f9826103c4565b61030381856103cf565b9350610313818560208601610411565b61031c816104a5565b840191505092915050565b61033081610403565b82525050565b600060208201905061034b60008301846102c1565b92915050565b600060208201905061036660008301846102d0565b92915050565b600060208201905061038160008301846102df565b92915050565b600060208201905081810360008301526103a181846102ee565b905092915050565b60006020820190506103be6000830184610327565b92915050565b600081519050919050565b600082825260208201905092915050565b60008115159050919050565b6000819050919050565b60008160030b9050919050565b600061ffff82169050919050565b60005b8381101561042f578082015181840152602081019050610414565b8381111561043e576000848401525b50505050565b6000600282049050600182168061045c57607f821691505b602082108114156104705761046f610476565b5b50919050565b7f4e487b7100000000000000000000000000000000000000000000000000000000600052602260045260246000fd5b6000601f19601f830116905091905056fea2646970667358221220f3135e419e1995accf1d3ff6eefcd358c324bf526c1daa56870e8208abe25da864736f6c63430008050033",
					"opcodes": "PUSH1 0x80 PUSH1 0x40 MSTORE PUSH1 0xFF PUSH1 0x1 PUSH1 0x0 PUSH2 0x100 EXP DUP2 SLOAD DUP2 PUSH1 0xFF MUL NOT AND SWAP1 DUP4 PUSH1 0xFF AND MUL OR SWAP1 SSTORE POP PUSH2 0x32B PUSH1 0x1 DUP1 PUSH2 0x100 EXP DUP2 SLOAD DUP2 PUSH2 0xFFFF MUL NOT AND SWAP1 DUP4 PUSH2 0xFFFF AND MUL OR SWAP1 SSTORE POP PUSH32 0xFFFFFFFFFFFFFFFFFFFFFFFFFFFFFFFFFFFFFFFFFFFFFFFFFFFFFFFFFFFFFF01 PUSH1 0x2 SSTORE PUSH32 0xFFFFFFFFFFFFFFFFFFFFFFFFFFFFFFFFFFFFFFFFFFFFFFFFFFFFFFFFFFFFFF01 PUSH1 0x3 PUSH1 0x0 PUSH2 0x100 EXP DUP2 SLOAD DUP2 PUSH4 0xFFFFFFFF MUL NOT AND SWAP1 DUP4 PUSH1 0x3 SIGNEXTEND PUSH4 0xFFFFFFFF AND MUL OR SWAP1 SSTORE POP PUSH1 0x40 MLOAD DUP1 PUSH1 0x40 ADD PUSH1 0x40 MSTORE DUP1 PUSH1 0x7 DUP2 MSTORE PUSH1 0x20 ADD PUSH32 0x526F626572746F00000000000000000000000000000000000000000000000000 DUP2 MSTORE POP PUSH1 0x5 SWAP1 DUP1 MLOAD SWAP1 PUSH1 0x20 ADD SWAP1 PUSH2 0xF1 SWAP3 SWAP2 SWAP1 PUSH2 0x1B4 JUMP JUMPDEST POP PUSH1 0x40 MLOAD DUP1 PUSH1 0x40 ADD PUSH1 0x40 MSTORE DUP1 PUSH1 0x8 DUP2 MSTORE PUSH1 0x20 ADD PUSH32 0x536F6C6964697479000000000000000000000000000000000000000000000000 DUP2 MSTORE POP PUSH1 0x6 SWAP1 DUP1 MLOAD SWAP1 PUSH1 0x20 ADD SWAP1 PUSH2 0x13D SWAP3 SWAP2 SWAP1 PUSH2 0x1B4 JUMP JUMPDEST POP PUSH1 0x1 PUSH1 0x7 PUSH1 0x1 PUSH2 0x100 EXP DUP2 SLOAD DUP2 PUSH1 0xFF MUL NOT AND SWAP1 DUP4 ISZERO ISZERO MUL OR SWAP1 SSTORE POP PUSH1 0x0 PUSH1 0x7 PUSH1 0x2 PUSH2 0x100 EXP DUP2 SLOAD DUP2 PUSH1 0xFF MUL NOT AND SWAP1 DUP4 ISZERO ISZERO MUL OR SWAP1 SSTORE POP PUSH1 0x5 PUSH1 0x4 PUSH1 0x40 MLOAD PUSH1 0x20 ADD PUSH2 0x189 SWAP3 SWAP2 SWAP1 PUSH2 0x2D6 JUMP JUMPDEST PUSH1 0x40 MLOAD PUSH1 0x20 DUP2 DUP4 SUB SUB DUP2 MSTORE SWAP1 PUSH1 0x40 MSTORE DUP1 MLOAD SWAP1 PUSH1 0x20 ADD KECCAK256 PUSH1 0xB SSTORE CALLVALUE DUP1 ISZERO PUSH2 0x1AE JUMPI PUSH1 0x0 DUP1 REVERT JUMPDEST POP PUSH2 0x37B JUMP JUMPDEST DUP3 DUP1 SLOAD PUSH2 0x1C0 SWAP1 PUSH2 0x31A JUMP JUMPDEST SWAP1 PUSH1 0x0 MSTORE PUSH1 0x20 PUSH1 0x0 KECCAK256 SWAP1 PUSH1 0x1F ADD PUSH1 0x20 SWAP1 DIV DUP2 ADD SWAP3 DUP3 PUSH2 0x1E2 JUMPI PUSH1 0x0 DUP6 SSTORE PUSH2 0x229 JUMP JUMPDEST DUP3 PUSH1 0x1F LT PUSH2 0x1FB JUMPI DUP1 MLOAD PUSH1 0xFF NOT AND DUP4 DUP1 ADD OR DUP6 SSTORE PUSH2 0x229 JUMP JUMPDEST DUP3 DUP1 ADD PUSH1 0x1 ADD DUP6 SSTORE DUP3 ISZERO PUSH2 0x229 JUMPI SWAP2 DUP3 ADD JUMPDEST DUP3 DUP2 GT ISZERO PUSH2 0x228 JUMPI DUP3 MLOAD DUP3 SSTORE SWAP2 PUSH1 0x20 ADD SWAP2 SWAP1 PUSH1 0x1 ADD SWAP1 PUSH2 0x20D JUMP JUMPDEST JUMPDEST POP SWAP1 POP PUSH2 0x236 SWAP2 SWAP1 PUSH2 0x23A JUMP JUMPDEST POP SWAP1 JUMP JUMPDEST JUMPDEST DUP1 DUP3 GT ISZERO PUSH2 0x253 JUMPI PUSH1 0x0 DUP2 PUSH1 0x0 SWAP1 SSTORE POP PUSH1 0x1 ADD PUSH2 0x23B JUMP JUMPDEST POP SWAP1 JUMP JUMPDEST PUSH1 0x0 DUP2 SLOAD PUSH2 0x264 DUP2 PUSH2 0x31A JUMP JUMPDEST PUSH2 0x26E DUP2 DUP7 PUSH2 0x30F JUMP JUMPDEST SWAP5 POP PUSH1 0x1 DUP3 AND PUSH1 0x0 DUP2 EQ PUSH2 0x289 JUMPI PUSH1 0x1 DUP2 EQ PUSH2 0x29A JUMPI PUSH2 0x2CD JUMP JUMPDEST PUSH1 0xFF NOT DUP4 AND DUP7 MSTORE DUP2 DUP7 ADD SWAP4 POP PUSH2 0x2CD JUMP JUMPDEST PUSH2 0x2A3 DUP6 PUSH2 0x2FA JUMP JUMPDEST PUSH1 0x0 JUMPDEST DUP4 DUP2 LT ISZERO PUSH2 0x2C5 JUMPI DUP2 SLOAD DUP2 DUP10 ADD MSTORE PUSH1 0x1 DUP3 ADD SWAP2 POP PUSH1 0x20 DUP2 ADD SWAP1 POP PUSH2 0x2A6 JUMP JUMPDEST DUP4 DUP9 ADD SWAP6 POP POP POP JUMPDEST POP POP POP SWAP3 SWAP2 POP POP JUMP JUMPDEST PUSH1 0x0 PUSH2 0x2E2 DUP3 DUP6 PUSH2 0x257 JUMP JUMPDEST SWAP2 POP PUSH2 0x2EE DUP3 DUP5 PUSH2 0x257 JUMP JUMPDEST SWAP2 POP DUP2 SWAP1 POP SWAP4 SWAP3 POP POP POP JUMP JUMPDEST PUSH1 0x0 DUP2 SWAP1 POP DUP2 PUSH1 0x0 MSTORE PUSH1 0x20 PUSH1 0x0 KECCAK256 SWAP1 POP SWAP2 SWAP1 POP JUMP JUMPDEST PUSH1 0x0 DUP2 SWAP1 POP SWAP3 SWAP2 POP POP JUMP JUMPDEST PUSH1 0x0 PUSH1 0x2 DUP3 DIV SWAP1 POP PUSH1 0x1 DUP3 AND DUP1 PUSH2 0x332 JUMPI PUSH1 0x7F DUP3 AND SWAP2 POP JUMPDEST PUSH1 0x20 DUP3 LT DUP2 EQ ISZERO PUSH2 0x346 JUMPI PUSH2 0x345 PUSH2 0x34C JUMP JUMPDEST JUMPDEST POP SWAP2 SWAP1 POP JUMP JUMPDEST PUSH32 0x4E487B7100000000000000000000000000000000000000000000000000000000 PUSH1 0x0 MSTORE PUSH1 0x22 PUSH1 0x4 MSTORE PUSH1 0x24 PUSH1 0x0 REVERT JUMPDEST PUSH2 0x4EC DUP1 PUSH2 0x38A PUSH1 0x0 CODECOPY PUSH1 0x0 RETURN INVALID PUSH1 0x80 PUSH1 0x40 MSTORE CALLVALUE DUP1 ISZERO PUSH2 0x10 JUMPI PUSH1 0x0 DUP1 REVERT JUMPDEST POP PUSH1 0x4 CALLDATASIZE LT PUSH2 0x7D JUMPI PUSH1 0x0 CALLDATALOAD PUSH1 0xE0 SHR DUP1 PUSH4 0x90E1437C GT PUSH2 0x5B JUMPI DUP1 PUSH4 0x90E1437C EQ PUSH2 0xDC JUMPI DUP1 PUSH4 0xB38FEE92 EQ PUSH2 0xFA JUMPI DUP1 PUSH4 0xC3DA42B8 EQ PUSH2 0x118 JUMPI DUP1 PUSH4 0xFFAE15BA EQ PUSH2 0x136 JUMPI PUSH2 0x7D JUMP JUMPDEST DUP1 PUSH4 0x9BD5A60 EQ PUSH2 0x82 JUMPI DUP1 PUSH4 0x222A90AC EQ PUSH2 0xA0 JUMPI DUP1 PUSH4 0x42FB0109 EQ PUSH2 0xBE JUMPI JUMPDEST PUSH1 0x0 DUP1 REVERT JUMPDEST PUSH2 0x8A PUSH2 0x154 JUMP JUMPDEST PUSH1 0x40 MLOAD PUSH2 0x97 SWAP2 SWAP1 PUSH2 0x351 JUMP JUMPDEST PUSH1 0x40 MLOAD DUP1 SWAP2 SUB SWAP1 RETURN JUMPDEST PUSH2 0xA8 PUSH2 0x15A JUMP JUMPDEST PUSH1 0x40 MLOAD PUSH2 0xB5 SWAP2 SWAP1 PUSH2 0x336 JUMP JUMPDEST PUSH1 0x40 MLOAD DUP1 SWAP2 SUB SWAP1 RETURN JUMPDEST PUSH2 0xC6 PUSH2 0x16D JUMP JUMPDEST PUSH1 0x40 MLOAD PUSH2 0xD3 SWAP2 SWAP1 PUSH2 0x336 JUMP JUMPDEST PUSH1 0x40 MLOAD DUP1 SWAP2 SUB SWAP1 RETURN JUMPDEST PUSH2 0xE4 PUSH2 0x180 JUMP JUMPDEST PUSH1 0x40 MLOAD PUSH2 0xF1 SWAP2 SWAP1 PUSH2 0x387 JUMP JUMPDEST PUSH1 0x40 MLOAD DUP1 SWAP2 SUB SWAP1 RETURN JUMPDEST PUSH2 0x102 PUSH2 0x20E JUMP JUMPDEST PUSH1 0x40 MLOAD PUSH2 0x10F SWAP2 SWAP1 PUSH2 0x387 JUMP JUMPDEST PUSH1 0x40 MLOAD DUP1 SWAP2 SUB SWAP1 RETURN JUMPDEST PUSH2 0x120 PUSH2 0x29C JUMP JUMPDEST PUSH1 0x40 MLOAD PUSH2 0x12D SWAP2 SWAP1 PUSH2 0x3A9 JUMP JUMPDEST PUSH1 0x40 MLOAD DUP1 SWAP2 SUB SWAP1 RETURN JUMPDEST PUSH2 0x13E PUSH2 0x2AE JUMP JUMPDEST PUSH1 0x40 MLOAD PUSH2 0x14B SWAP2 SWAP1 PUSH2 0x36C JUMP JUMPDEST PUSH1 0x40 MLOAD DUP1 SWAP2 SUB SWAP1 RETURN JUMPDEST PUSH1 0xB SLOAD DUP2 JUMP JUMPDEST PUSH1 0x7 PUSH1 0x2 SWAP1 SLOAD SWAP1 PUSH2 0x100 EXP SWAP1 DIV PUSH1 0xFF AND DUP2 JUMP JUMPDEST PUSH1 0x7 PUSH1 0x1 SWAP1 SLOAD SWAP1 PUSH2 0x100 EXP SWAP1 DIV PUSH1 0xFF AND DUP2 JUMP JUMPDEST PUSH1 0x6 DUP1 SLOAD PUSH2 0x18D SWAP1 PUSH2 0x444 JUMP JUMPDEST DUP1 PUSH1 0x1F ADD PUSH1 0x20 DUP1 SWAP2 DIV MUL PUSH1 0x20 ADD PUSH1 0x40 MLOAD SWAP1 DUP2 ADD PUSH1 0x40 MSTORE DUP1 SWAP3 SWAP2 SWAP1 DUP2 DUP2 MSTORE PUSH1 0x20 ADD DUP3 DUP1 SLOAD PUSH2 0x1B9 SWAP1 PUSH2 0x444 JUMP JUMPDEST DUP1 ISZERO PUSH2 0x206 JUMPI DUP1 PUSH1 0x1F LT PUSH2 0x1DB JUMPI PUSH2 0x100 DUP1 DUP4 SLOAD DIV MUL DUP4 MSTORE SWAP2 PUSH1 0x20 ADD SWAP2 PUSH2 0x206 JUMP JUMPDEST DUP3 ADD SWAP2 SWAP1 PUSH1 0x0 MSTORE PUSH1 0x20 PUSH1 0x0 KECCAK256 SWAP1 JUMPDEST DUP2 SLOAD DUP2 MSTORE SWAP1 PUSH1 0x1 ADD SWAP1 PUSH1 0x20 ADD DUP1 DUP4 GT PUSH2 0x1E9 JUMPI DUP3 SWAP1 SUB PUSH1 0x1F AND DUP3 ADD SWAP2 JUMPDEST POP POP POP POP POP DUP2 JUMP JUMPDEST PUSH1 0x4 DUP1 SLOAD PUSH2 0x21B SWAP1 PUSH2 0x444 JUMP JUMPDEST DUP1 PUSH1 0x1F ADD PUSH1 0x20 DUP1 SWAP2 DIV MUL PUSH1 0x20 ADD PUSH1 0x40 MLOAD SWAP1 DUP2 ADD PUSH1 0x40 MSTORE DUP1 SWAP3 SWAP2 SWAP1 DUP2 DUP2 MSTORE PUSH1 0x20 ADD DUP3 DUP1 SLOAD PUSH2 0x247 SWAP1 PUSH2 0x444 JUMP JUMPDEST DUP1 ISZERO PUSH2 0x294 JUMPI DUP1 PUSH1 0x1F LT PUSH2 0x269 JUMPI PUSH2 0x100 DUP1 DUP4 SLOAD DIV MUL DUP4 MSTORE SWAP2 PUSH1 0x20 ADD SWAP2 PUSH2 0x294 JUMP JUMPDEST DUP3 ADD SWAP2 SWAP1 PUSH1 0x0 MSTORE PUSH1 0x20 PUSH1 0x0 KECCAK256 SWAP1 JUMPDEST DUP2 SLOAD DUP2 MSTORE SWAP1 PUSH1 0x1 ADD SWAP1 PUSH1 0x20 ADD DUP1 DUP4 GT PUSH2 0x277 JUMPI DUP3 SWAP1 SUB PUSH1 0x1F AND DUP3 ADD SWAP2 JUMPDEST POP POP POP POP POP DUP2 JUMP JUMPDEST PUSH1 0x1 DUP1 SLOAD SWAP1 PUSH2 0x100 EXP SWAP1 DIV PUSH2 0xFFFF AND DUP2 JUMP JUMPDEST PUSH1 0x3 PUSH1 0x0 SWAP1 SLOAD SWAP1 PUSH2 0x100 EXP SWAP1 DIV PUSH1 0x3 SIGNEXTEND DUP2 JUMP JUMPDEST PUSH2 0x2CA DUP2 PUSH2 0x3E0 JUMP JUMPDEST DUP3 MSTORE POP POP JUMP JUMPDEST PUSH2 0x2D9 DUP2 PUSH2 0x3EC JUMP JUMPDEST DUP3 MSTORE POP POP JUMP JUMPDEST PUSH2 0x2E8 DUP2 PUSH2 0x3F6 JUMP JUMPDEST DUP3 MSTORE POP POP JUMP JUMPDEST PUSH1 0x0 PUSH2 0x2F9 DUP3 PUSH2 0x3C4 JUMP JUMPDEST PUSH2 0x303 DUP2 DUP6 PUSH2 0x3CF JUMP JUMPDEST SWAP4 POP PUSH2 0x313 DUP2 DUP6 PUSH1 0x20 DUP7 ADD PUSH2 0x411 JUMP JUMPDEST PUSH2 0x31C DUP2 PUSH2 0x4A5 JUMP JUMPDEST DUP5 ADD SWAP2 POP POP SWAP3 SWAP2 POP POP JUMP JUMPDEST PUSH2 0x330 DUP2 PUSH2 0x403 JUMP JUMPDEST DUP3 MSTORE POP POP JUMP JUMPDEST PUSH1 0x0 PUSH1 0x20 DUP3 ADD SWAP1 POP PUSH2 0x34B PUSH1 0x0 DUP4 ADD DUP5 PUSH2 0x2C1 JUMP JUMPDEST SWAP3 SWAP2 POP POP JUMP JUMPDEST PUSH1 0x0 PUSH1 0x20 DUP3 ADD SWAP1 POP PUSH2 0x366 PUSH1 0x0 DUP4 ADD DUP5 PUSH2 0x2D0 JUMP JUMPDEST SWAP3 SWAP2 POP POP JUMP JUMPDEST PUSH1 0x0 PUSH1 0x20 DUP3 ADD SWAP1 POP PUSH2 0x381 PUSH1 0x0 DUP4 ADD DUP5 PUSH2 0x2DF JUMP JUMPDEST SWAP3 SWAP2 POP POP JUMP JUMPDEST PUSH1 0x0 PUSH1 0x20 DUP3 ADD SWAP1 POP DUP2 DUP2 SUB PUSH1 0x0 DUP4 ADD MSTORE PUSH2 0x3A1 DUP2 DUP5 PUSH2 0x2EE JUMP JUMPDEST SWAP1 POP SWAP3 SWAP2 POP POP JUMP JUMPDEST PUSH1 0x0 PUSH1 0x20 DUP3 ADD SWAP1 POP PUSH2 0x3BE PUSH1 0x0 DUP4 ADD DUP5 PUSH2 0x327 JUMP JUMPDEST SWAP3 SWAP2 POP POP JUMP JUMPDEST PUSH1 0x0 DUP2 MLOAD SWAP1 POP SWAP2 SWAP1 POP JUMP JUMPDEST PUSH1 0x0 DUP3 DUP3 MSTORE PUSH1 0x20 DUP3 ADD SWAP1 POP SWAP3 SWAP2 POP POP JUMP JUMPDEST PUSH1 0x0 DUP2 ISZERO ISZERO SWAP1 POP SWAP2 SWAP1 POP JUMP JUMPDEST PUSH1 0x0 DUP2 SWAP1 POP SWAP2 SWAP1 POP JUMP JUMPDEST PUSH1 0x0 DUP2 PUSH1 0x3 SIGNEXTEND SWAP1 POP SWAP2 SWAP1 POP JUMP JUMPDEST PUSH1 0x0 PUSH2 0xFFFF DUP3 AND SWAP1 POP SWAP2 SWAP1 POP JUMP JUMPDEST PUSH1 0x0 JUMPDEST DUP4 DUP2 LT ISZERO PUSH2 0x42F JUMPI DUP1 DUP3 ADD MLOAD DUP2 DUP5 ADD MSTORE PUSH1 0x20 DUP2 ADD SWAP1 POP PUSH2 0x414 JUMP JUMPDEST DUP4 DUP2 GT ISZERO PUSH2 0x43E JUMPI PUSH1 0x0 DUP5 DUP5 ADD MSTORE JUMPDEST POP POP POP POP JUMP JUMPDEST PUSH1 0x0 PUSH1 0x2 DUP3 DIV SWAP1 POP PUSH1 0x1 DUP3 AND DUP1 PUSH2 0x45C JUMPI PUSH1 0x7F DUP3 AND SWAP2 POP JUMPDEST PUSH1 0x20 DUP3 LT DUP2 EQ ISZERO PUSH2 0x470 JUMPI PUSH2 0x46F PUSH2 0x476 JUMP JUMPDEST JUMPDEST POP SWAP2 SWAP1 POP JUMP JUMPDEST PUSH32 0x4E487B7100000000000000000000000000000000000000000000000000000000 PUSH1 0x0 MSTORE PUSH1 0x22 PUSH1 0x4 MSTORE PUSH1 0x24 PUSH1 0x0 REVERT JUMPDEST PUSH1 0x0 PUSH1 0x1F NOT PUSH1 0x1F DUP4 ADD AND SWAP1 POP SWAP2 SWAP1 POP JUMP INVALID LOG2 PUSH5 0x6970667358 0x22 SLT KECCAK256 RETURN SGT 0x5E COINBASE SWAP15 NOT SWAP6 0xAC 0xCF SAR EXTCODEHASH 0xF6 0xEE 0xFC 0xD3 PC 0xC3 0x24 0xBF MSTORE PUSH13 0x1DAA56870E8208ABE25DA86473 PUSH16 0x6C634300080500330000000000000000 "
				},
				"gasEstimates": {
					"creation": {
						"codeDepositCost": "252000",
						"executionCost": "infinite",
						"totalCost": "infinite"
					},
					"external": {
						"boolFalse()": "2544",
						"boolTrue()": "2566",
						"c()": "2562",
						"e()": "2541",
						"hash()": "2430",
						"pl()": "infinite",
						"surname()": "infinite"
					}
				},
				"methodIdentifiers": {
					"boolFalse()": "222a90ac",
					"boolTrue()": "42fb0109",
					"c()": "c3da42b8",
					"e()": "ffae15ba",
					"hash()": "09bd5a60",
					"pl()": "90e1437c",
					"surname()": "b38fee92"
				}
			},
			"storageLayout": {
				"storage": [
					{
						"astId": 3,
						"contract": "contracts/2_variable_modifiers.sol:VariableModifiers",
						"label": "a",
						"offset": 0,
						"slot": "0",
						"type": "t_uint256"
					},
					{
						"astId": 6,
						"contract": "contracts/2_variable_modifiers.sol:VariableModifiers",
						"label": "b",
						"offset": 0,
						"slot": "1",
						"type": "t_uint8"
					},
					{
						"astId": 9,
						"contract": "contracts/2_variable_modifiers.sol:VariableModifiers",
						"label": "c",
						"offset": 1,
						"slot": "1",
						"type": "t_uint16"
					},
					{
						"astId": 13,
						"contract": "contracts/2_variable_modifiers.sol:VariableModifiers",
						"label": "d",
						"offset": 0,
						"slot": "2",
						"type": "t_int256"
					},
					{
						"astId": 17,
						"contract": "contracts/2_variable_modifiers.sol:VariableModifiers",
						"label": "e",
						"offset": 0,
						"slot": "3",
						"type": "t_int32"
					},
					{
						"astId": 19,
						"contract": "contracts/2_variable_modifiers.sol:VariableModifiers",
						"label": "surname",
						"offset": 0,
						"slot": "4",
						"type": "t_string_storage"
					},
					{
						"astId": 22,
						"contract": "contracts/2_variable_modifiers.sol:VariableModifiers",
						"label": "name",
						"offset": 0,
						"slot": "5",
						"type": "t_string_storage"
					},
					{
						"astId": 25,
						"contract": "contracts/2_variable_modifiers.sol:VariableModifiers",
						"label": "pl",
						"offset": 0,
						"slot": "6",
						"type": "t_string_storage"
					},
					{
						"astId": 27,
						"contract": "contracts/2_variable_modifiers.sol:VariableModifiers",
						"label": "boolean",
						"offset": 0,
						"slot": "7",
						"type": "t_bool"
					},
					{
						"astId": 30,
						"contract": "contracts/2_variable_modifiers.sol:VariableModifiers",
						"label": "boolTrue",
						"offset": 1,
						"slot": "7",
						"type": "t_bool"
					},
					{
						"astId": 33,
						"contract": "contracts/2_variable_modifiers.sol:VariableModifiers",
						"label": "boolFalse",
						"offset": 2,
						"slot": "7",
						"type": "t_bool"
					},
					{
						"astId": 35,
						"contract": "contracts/2_variable_modifiers.sol:VariableModifiers",
						"label": "testingBytes",
						"offset": 0,
						"slot": "8",
						"type": "t_bytes32"
					},
					{
						"astId": 37,
						"contract": "contracts/2_variable_modifiers.sol:VariableModifiers",
						"label": "lessBytes",
						"offset": 0,
						"slot": "9",
						"type": "t_bytes4"
					},
					{
						"astId": 39,
						"contract": "contracts/2_variable_modifiers.sol:VariableModifiers",
						"label": "eightBytes",
						"offset": 4,
						"slot": "9",
						"type": "t_bytes8"
					},
					{
						"astId": 41,
						"contract": "contracts/2_variable_modifiers.sol:VariableModifiers",
						"label": "oldBytesCrash",
						"offset": 0,
						"slot": "10",
						"type": "t_bytes_storage"
					},
					{
						"astId": 50,
						"contract": "contracts/2_variable_modifiers.sol:VariableModifiers",
						"label": "hash",
						"offset": 0,
						"slot": "11",
						"type": "t_bytes32"
					}
				],
				"types": {
					"t_bool": {
						"encoding": "inplace",
						"label": "bool",
						"numberOfBytes": "1"
					},
					"t_bytes32": {
						"encoding": "inplace",
						"label": "bytes32",
						"numberOfBytes": "32"
					},
					"t_bytes4": {
						"encoding": "inplace",
						"label": "bytes4",
						"numberOfBytes": "4"
					},
					"t_bytes8": {
						"encoding": "inplace",
						"label": "bytes8",
						"numberOfBytes": "8"
					},
					"t_bytes_storage": {
						"encoding": "bytes",
						"label": "bytes",
						"numberOfBytes": "32"
					},
					"t_int256": {
						"encoding": "inplace",
						"label": "int256",
						"numberOfBytes": "32"
					},
					"t_int32": {
						"encoding": "inplace",
						"label": "int32",
						"numberOfBytes": "4"
					},
					"t_string_storage": {
						"encoding": "bytes",
						"label": "string",
						"numberOfBytes": "32"
					},
					"t_uint16": {
						"encoding": "inplace",
						"label": "uint16",
						"numberOfBytes": "2"
					},
					"t_uint256": {
						"encoding": "inplace",
						"label": "uint256",
						"numberOfBytes": "32"
					},
					"t_uint8": {
						"encoding": "inplace",
						"label": "uint8",
						"numberOfBytes": "1"
					}
				}
			},
			"userdoc": {
				"kind": "user",
				"methods": {},
				"version": 1
			}
		}
	}
}