{
	"contracts/7_math_operations.sol": {
		"MathOperations": {
			"abi": [
				{
					"inputs": [
						{
							"internalType": "uint256",
							"name": "a",
							"type": "uint256"
						},
						{
							"internalType": "uint256",
							"name": "b",
							"type": "uint256"
						}
					],
					"name": "product",
					"outputs": [
						{
							"internalType": "uint256",
							"name": "",
							"type": "uint256"
						}
					],
					"stateMutability": "pure",
					"type": "function"
				},
				{
					"inputs": [
						{
							"internalType": "uint256",
							"name": "a",
							"type": "uint256"
						},
						{
							"internalType": "uint256",
							"name": "b",
							"type": "uint256"
						}
					],
					"name": "substract",
					"outputs": [
						{
							"internalType": "uint256",
							"name": "",
							"type": "uint256"
						}
					],
					"stateMutability": "pure",
					"type": "function"
				},
				{
					"inputs": [
						{
							"internalType": "uint256",
							"name": "a",
							"type": "uint256"
						},
						{
							"internalType": "uint256",
							"name": "b",
							"type": "uint256"
						}
					],
					"name": "sum",
					"outputs": [
						{
							"internalType": "uint256",
							"name": "",
							"type": "uint256"
						}
					],
					"stateMutability": "pure",
					"type": "function"
				}
			],
			"devdoc": {
				"kind": "dev",
				"methods": {},
				"version": 1
			},
			"evm": {
				"assembly": "    /* \"contracts/7_math_operations.sol\":69:379  contract MathOperations {... */\n  mstore(0x40, 0x80)\n  callvalue\n  dup1\n  iszero\n  tag_1\n  jumpi\n  0x00\n  dup1\n  revert\ntag_1:\n  pop\n  dataSize(sub_0)\n  dup1\n  dataOffset(sub_0)\n  0x00\n  codecopy\n  0x00\n  return\nstop\n\nsub_0: assembly {\n        /* \"contracts/7_math_operations.sol\":69:379  contract MathOperations {... */\n      mstore(0x40, 0x80)\n      callvalue\n      dup1\n      iszero\n      tag_1\n      jumpi\n      0x00\n      dup1\n      revert\n    tag_1:\n      pop\n      jumpi(tag_2, lt(calldatasize, 0x04))\n      shr(0xe0, calldataload(0x00))\n      dup1\n      0x5d4e1e5c\n      eq\n      tag_3\n      jumpi\n      dup1\n      0xba88c3b7\n      eq\n      tag_4\n      jumpi\n      dup1\n      0xcad0899b\n      eq\n      tag_5\n      jumpi\n    tag_2:\n      0x00\n      dup1\n      revert\n        /* \"contracts/7_math_operations.sol\":191:282  function substract(uint a, uint b) public pure returns (uint) {... */\n    tag_3:\n      tag_6\n      0x04\n      dup1\n      calldatasize\n      sub\n      dup2\n      add\n      swap1\n      tag_7\n      swap2\n      swap1\n      tag_8\n      jump\t// in\n    tag_7:\n      tag_9\n      jump\t// in\n    tag_6:\n      mload(0x40)\n      tag_10\n      swap2\n      swap1\n      tag_11\n      jump\t// in\n    tag_10:\n      mload(0x40)\n      dup1\n      swap2\n      sub\n      swap1\n      return\n        /* \"contracts/7_math_operations.sol\":288:377  function product(uint a, uint b) public pure returns (uint) {... */\n    tag_4:\n      tag_12\n      0x04\n      dup1\n      calldatasize\n      sub\n      dup2\n      add\n      swap1\n      tag_13\n      swap2\n      swap1\n      tag_8\n      jump\t// in\n    tag_13:\n      tag_14\n      jump\t// in\n    tag_12:\n      mload(0x40)\n      tag_15\n      swap2\n      swap1\n      tag_11\n      jump\t// in\n    tag_15:\n      mload(0x40)\n      dup1\n      swap2\n      sub\n      swap1\n      return\n        /* \"contracts/7_math_operations.sol\":100:185  function sum(uint a, uint b) public pure returns (uint) {... */\n    tag_5:\n      tag_16\n      0x04\n      dup1\n      calldatasize\n      sub\n      dup2\n      add\n      swap1\n      tag_17\n      swap2\n      swap1\n      tag_8\n      jump\t// in\n    tag_17:\n      tag_18\n      jump\t// in\n    tag_16:\n      mload(0x40)\n      tag_19\n      swap2\n      swap1\n      tag_11\n      jump\t// in\n    tag_19:\n      mload(0x40)\n      dup1\n      swap2\n      sub\n      swap1\n      return\n        /* \"contracts/7_math_operations.sol\":191:282  function substract(uint a, uint b) public pure returns (uint) {... */\n    tag_9:\n        /* \"contracts/7_math_operations.sol\":247:251  uint */\n      0x00\n        /* \"contracts/7_math_operations.sol\":274:275  b */\n      dup2\n        /* \"contracts/7_math_operations.sol\":270:271  a */\n      dup4\n        /* \"contracts/7_math_operations.sol\":270:275  a - b */\n      tag_21\n      swap2\n      swap1\n      tag_22\n      jump\t// in\n    tag_21:\n        /* \"contracts/7_math_operations.sol\":263:275  return a - b */\n      swap1\n      pop\n        /* \"contracts/7_math_operations.sol\":191:282  function substract(uint a, uint b) public pure returns (uint) {... */\n      swap3\n      swap2\n      pop\n      pop\n      jump\t// out\n        /* \"contracts/7_math_operations.sol\":288:377  function product(uint a, uint b) public pure returns (uint) {... */\n    tag_14:\n        /* \"contracts/7_math_operations.sol\":342:346  uint */\n      0x00\n        /* \"contracts/7_math_operations.sol\":369:370  b */\n      dup2\n        /* \"contracts/7_math_operations.sol\":365:366  a */\n      dup4\n        /* \"contracts/7_math_operations.sol\":365:370  a * b */\n      tag_24\n      swap2\n      swap1\n      tag_25\n      jump\t// in\n    tag_24:\n        /* \"contracts/7_math_operations.sol\":358:370  return a * b */\n      swap1\n      pop\n        /* \"contracts/7_math_operations.sol\":288:377  function product(uint a, uint b) public pure returns (uint) {... */\n      swap3\n      swap2\n      pop\n      pop\n      jump\t// out\n        /* \"contracts/7_math_operations.sol\":100:185  function sum(uint a, uint b) public pure returns (uint) {... */\n    tag_18:\n        /* \"contracts/7_math_operations.sol\":150:154  uint */\n      0x00\n        /* \"contracts/7_math_operations.sol\":177:178  b */\n      dup2\n        /* \"contracts/7_math_operations.sol\":173:174  a */\n      dup4\n        /* \"contracts/7_math_operations.sol\":173:178  a + b */\n      tag_27\n      swap2\n      swap1\n      tag_28\n      jump\t// in\n    tag_27:\n        /* \"contracts/7_math_operations.sol\":166:178  return a + b */\n      swap1\n      pop\n        /* \"contracts/7_math_operations.sol\":100:185  function sum(uint a, uint b) public pure returns (uint) {... */\n      swap3\n      swap2\n      pop\n      pop\n      jump\t// out\n        /* \"#utility.yul\":7:146   */\n    tag_30:\n        /* \"#utility.yul\":53:58   */\n      0x00\n        /* \"#utility.yul\":91:97   */\n      dup2\n        /* \"#utility.yul\":78:98   */\n      calldataload\n        /* \"#utility.yul\":69:98   */\n      swap1\n      pop\n        /* \"#utility.yul\":107:140   */\n      tag_32\n        /* \"#utility.yul\":134:139   */\n      dup2\n        /* \"#utility.yul\":107:140   */\n      tag_33\n      jump\t// in\n    tag_32:\n        /* \"#utility.yul\":7:146   */\n      swap3\n      swap2\n      pop\n      pop\n      jump\t// out\n        /* \"#utility.yul\":152:626   */\n    tag_8:\n        /* \"#utility.yul\":220:226   */\n      0x00\n        /* \"#utility.yul\":228:234   */\n      dup1\n        /* \"#utility.yul\":277:279   */\n      0x40\n        /* \"#utility.yul\":265:274   */\n      dup4\n        /* \"#utility.yul\":256:263   */\n      dup6\n        /* \"#utility.yul\":252:275   */\n      sub\n        /* \"#utility.yul\":248:280   */\n      slt\n        /* \"#utility.yul\":245:364   */\n      iszero\n      tag_35\n      jumpi\n        /* \"#utility.yul\":283:362   */\n      tag_36\n      tag_37\n      jump\t// in\n    tag_36:\n        /* \"#utility.yul\":245:364   */\n    tag_35:\n        /* \"#utility.yul\":403:404   */\n      0x00\n        /* \"#utility.yul\":428:481   */\n      tag_38\n        /* \"#utility.yul\":473:480   */\n      dup6\n        /* \"#utility.yul\":464:470   */\n      dup3\n        /* \"#utility.yul\":453:462   */\n      dup7\n        /* \"#utility.yul\":449:471   */\n      add\n        /* \"#utility.yul\":428:481   */\n      tag_30\n      jump\t// in\n    tag_38:\n        /* \"#utility.yul\":418:481   */\n      swap3\n      pop\n        /* \"#utility.yul\":374:491   */\n      pop\n        /* \"#utility.yul\":530:532   */\n      0x20\n        /* \"#utility.yul\":556:609   */\n      tag_39\n        /* \"#utility.yul\":601:608   */\n      dup6\n        /* \"#utility.yul\":592:598   */\n      dup3\n        /* \"#utility.yul\":581:590   */\n      dup7\n        /* \"#utility.yul\":577:599   */\n      add\n        /* \"#utility.yul\":556:609   */\n      tag_30\n      jump\t// in\n    tag_39:\n        /* \"#utility.yul\":546:609   */\n      swap2\n      pop\n        /* \"#utility.yul\":501:619   */\n      pop\n        /* \"#utility.yul\":152:626   */\n      swap3\n      pop\n      swap3\n      swap1\n      pop\n      jump\t// out\n        /* \"#utility.yul\":632:750   */\n    tag_40:\n        /* \"#utility.yul\":719:743   */\n      tag_42\n        /* \"#utility.yul\":737:742   */\n      dup2\n        /* \"#utility.yul\":719:743   */\n      tag_43\n      jump\t// in\n    tag_42:\n        /* \"#utility.yul\":714:717   */\n      dup3\n        /* \"#utility.yul\":707:744   */\n      mstore\n        /* \"#utility.yul\":632:750   */\n      pop\n      pop\n      jump\t// out\n        /* \"#utility.yul\":756:978   */\n    tag_11:\n        /* \"#utility.yul\":849:853   */\n      0x00\n        /* \"#utility.yul\":887:889   */\n      0x20\n        /* \"#utility.yul\":876:885   */\n      dup3\n        /* \"#utility.yul\":872:890   */\n      add\n        /* \"#utility.yul\":864:890   */\n      swap1\n      pop\n        /* \"#utility.yul\":900:971   */\n      tag_45\n        /* \"#utility.yul\":968:969   */\n      0x00\n        /* \"#utility.yul\":957:966   */\n      dup4\n        /* \"#utility.yul\":953:970   */\n      add\n        /* \"#utility.yul\":944:950   */\n      dup5\n        /* \"#utility.yul\":900:971   */\n      tag_40\n      jump\t// in\n    tag_45:\n        /* \"#utility.yul\":756:978   */\n      swap3\n      swap2\n      pop\n      pop\n      jump\t// out\n        /* \"#utility.yul\":1065:1370   */\n    tag_28:\n        /* \"#utility.yul\":1105:1108   */\n      0x00\n        /* \"#utility.yul\":1124:1144   */\n      tag_49\n        /* \"#utility.yul\":1142:1143   */\n      dup3\n        /* \"#utility.yul\":1124:1144   */\n      tag_43\n      jump\t// in\n    tag_49:\n        /* \"#utility.yul\":1119:1144   */\n      swap2\n      pop\n        /* \"#utility.yul\":1158:1178   */\n      tag_50\n        /* \"#utility.yul\":1176:1177   */\n      dup4\n        /* \"#utility.yul\":1158:1178   */\n      tag_43\n      jump\t// in\n    tag_50:\n        /* \"#utility.yul\":1153:1178   */\n      swap3\n      pop\n        /* \"#utility.yul\":1312:1313   */\n      dup3\n        /* \"#utility.yul\":1244:1310   */\n      0xffffffffffffffffffffffffffffffffffffffffffffffffffffffffffffffff\n        /* \"#utility.yul\":1240:1314   */\n      sub\n        /* \"#utility.yul\":1237:1238   */\n      dup3\n        /* \"#utility.yul\":1234:1315   */\n      gt\n        /* \"#utility.yul\":1231:1338   */\n      iszero\n      tag_51\n      jumpi\n        /* \"#utility.yul\":1318:1336   */\n      tag_52\n      tag_53\n      jump\t// in\n    tag_52:\n        /* \"#utility.yul\":1231:1338   */\n    tag_51:\n        /* \"#utility.yul\":1362:1363   */\n      dup3\n        /* \"#utility.yul\":1359:1360   */\n      dup3\n        /* \"#utility.yul\":1355:1364   */\n      add\n        /* \"#utility.yul\":1348:1364   */\n      swap1\n      pop\n        /* \"#utility.yul\":1065:1370   */\n      swap3\n      swap2\n      pop\n      pop\n      jump\t// out\n        /* \"#utility.yul\":1376:1724   */\n    tag_25:\n        /* \"#utility.yul\":1416:1423   */\n      0x00\n        /* \"#utility.yul\":1439:1459   */\n      tag_55\n        /* \"#utility.yul\":1457:1458   */\n      dup3\n        /* \"#utility.yul\":1439:1459   */\n      tag_43\n      jump\t// in\n    tag_55:\n        /* \"#utility.yul\":1434:1459   */\n      swap2\n      pop\n        /* \"#utility.yul\":1473:1493   */\n      tag_56\n        /* \"#utility.yul\":1491:1492   */\n      dup4\n        /* \"#utility.yul\":1473:1493   */\n      tag_43\n      jump\t// in\n    tag_56:\n        /* \"#utility.yul\":1468:1493   */\n      swap3\n      pop\n        /* \"#utility.yul\":1661:1662   */\n      dup2\n        /* \"#utility.yul\":1593:1659   */\n      0xffffffffffffffffffffffffffffffffffffffffffffffffffffffffffffffff\n        /* \"#utility.yul\":1589:1663   */\n      div\n        /* \"#utility.yul\":1586:1587   */\n      dup4\n        /* \"#utility.yul\":1583:1664   */\n      gt\n        /* \"#utility.yul\":1578:1579   */\n      dup3\n        /* \"#utility.yul\":1571:1580   */\n      iszero\n        /* \"#utility.yul\":1564:1581   */\n      iszero\n        /* \"#utility.yul\":1560:1665   */\n      and\n        /* \"#utility.yul\":1557:1688   */\n      iszero\n      tag_57\n      jumpi\n        /* \"#utility.yul\":1668:1686   */\n      tag_58\n      tag_53\n      jump\t// in\n    tag_58:\n        /* \"#utility.yul\":1557:1688   */\n    tag_57:\n        /* \"#utility.yul\":1716:1717   */\n      dup3\n        /* \"#utility.yul\":1713:1714   */\n      dup3\n        /* \"#utility.yul\":1709:1718   */\n      mul\n        /* \"#utility.yul\":1698:1718   */\n      swap1\n      pop\n        /* \"#utility.yul\":1376:1724   */\n      swap3\n      swap2\n      pop\n      pop\n      jump\t// out\n        /* \"#utility.yul\":1730:1921   */\n    tag_22:\n        /* \"#utility.yul\":1770:1774   */\n      0x00\n        /* \"#utility.yul\":1790:1810   */\n      tag_60\n        /* \"#utility.yul\":1808:1809   */\n      dup3\n        /* \"#utility.yul\":1790:1810   */\n      tag_43\n      jump\t// in\n    tag_60:\n        /* \"#utility.yul\":1785:1810   */\n      swap2\n      pop\n        /* \"#utility.yul\":1824:1844   */\n      tag_61\n        /* \"#utility.yul\":1842:1843   */\n      dup4\n        /* \"#utility.yul\":1824:1844   */\n      tag_43\n      jump\t// in\n    tag_61:\n        /* \"#utility.yul\":1819:1844   */\n      swap3\n      pop\n        /* \"#utility.yul\":1863:1864   */\n      dup3\n        /* \"#utility.yul\":1860:1861   */\n      dup3\n        /* \"#utility.yul\":1857:1865   */\n      lt\n        /* \"#utility.yul\":1854:1888   */\n      iszero\n      tag_62\n      jumpi\n        /* \"#utility.yul\":1868:1886   */\n      tag_63\n      tag_53\n      jump\t// in\n    tag_63:\n        /* \"#utility.yul\":1854:1888   */\n    tag_62:\n        /* \"#utility.yul\":1913:1914   */\n      dup3\n        /* \"#utility.yul\":1910:1911   */\n      dup3\n        /* \"#utility.yul\":1906:1915   */\n      sub\n        /* \"#utility.yul\":1898:1915   */\n      swap1\n      pop\n        /* \"#utility.yul\":1730:1921   */\n      swap3\n      swap2\n      pop\n      pop\n      jump\t// out\n        /* \"#utility.yul\":1927:2004   */\n    tag_43:\n        /* \"#utility.yul\":1964:1971   */\n      0x00\n        /* \"#utility.yul\":1993:1998   */\n      dup2\n        /* \"#utility.yul\":1982:1998   */\n      swap1\n      pop\n        /* \"#utility.yul\":1927:2004   */\n      swap2\n      swap1\n      pop\n      jump\t// out\n        /* \"#utility.yul\":2010:2190   */\n    tag_53:\n        /* \"#utility.yul\":2058:2135   */\n      0x4e487b7100000000000000000000000000000000000000000000000000000000\n        /* \"#utility.yul\":2055:2056   */\n      0x00\n        /* \"#utility.yul\":2048:2136   */\n      mstore\n        /* \"#utility.yul\":2155:2159   */\n      0x11\n        /* \"#utility.yul\":2152:2153   */\n      0x04\n        /* \"#utility.yul\":2145:2160   */\n      mstore\n        /* \"#utility.yul\":2179:2183   */\n      0x24\n        /* \"#utility.yul\":2176:2177   */\n      0x00\n        /* \"#utility.yul\":2169:2184   */\n      revert\n        /* \"#utility.yul\":2319:2436   */\n    tag_37:\n        /* \"#utility.yul\":2428:2429   */\n      0x00\n        /* \"#utility.yul\":2425:2426   */\n      dup1\n        /* \"#utility.yul\":2418:2430   */\n      revert\n        /* \"#utility.yul\":2442:2564   */\n    tag_33:\n        /* \"#utility.yul\":2515:2539   */\n      tag_70\n        /* \"#utility.yul\":2533:2538   */\n      dup2\n        /* \"#utility.yul\":2515:2539   */\n      tag_43\n      jump\t// in\n    tag_70:\n        /* \"#utility.yul\":2508:2513   */\n      dup2\n        /* \"#utility.yul\":2505:2540   */\n      eq\n        /* \"#utility.yul\":2495:2558   */\n      tag_71\n      jumpi\n        /* \"#utility.yul\":2554:2555   */\n      0x00\n        /* \"#utility.yul\":2551:2552   */\n      dup1\n        /* \"#utility.yul\":2544:2556   */\n      revert\n        /* \"#utility.yul\":2495:2558   */\n    tag_71:\n        /* \"#utility.yul\":2442:2564   */\n      pop\n      jump\t// out\n\n    auxdata: 0xa26469706673582212205c7c30ebf03d35d65ea84aae455811184695ab8fb9dc4a9acc0eb308b2b4f6f364736f6c63430008070033\n}\n",
				"bytecode": {
					"linkReferences": {},
					"object": "608060405234801561001057600080fd5b50610306806100206000396000f3fe608060405234801561001057600080fd5b50600436106100415760003560e01c80635d4e1e5c14610046578063ba88c3b714610076578063cad0899b146100a6575b600080fd5b610060600480360381019061005b919061012d565b6100d6565b60405161006d919061017c565b60405180910390f35b610090600480360381019061008b919061012d565b6100ec565b60405161009d919061017c565b60405180910390f35b6100c060048036038101906100bb919061012d565b610102565b6040516100cd919061017c565b60405180910390f35b600081836100e49190610247565b905092915050565b600081836100fa91906101ed565b905092915050565b600081836101109190610197565b905092915050565b600081359050610127816102b9565b92915050565b60008060408385031215610144576101436102b4565b5b600061015285828601610118565b925050602061016385828601610118565b9150509250929050565b6101768161027b565b82525050565b6000602082019050610191600083018461016d565b92915050565b60006101a28261027b565b91506101ad8361027b565b9250827fffffffffffffffffffffffffffffffffffffffffffffffffffffffffffffffff038211156101e2576101e1610285565b5b828201905092915050565b60006101f88261027b565b91506102038361027b565b9250817fffffffffffffffffffffffffffffffffffffffffffffffffffffffffffffffff048311821515161561023c5761023b610285565b5b828202905092915050565b60006102528261027b565b915061025d8361027b565b9250828210156102705761026f610285565b5b828203905092915050565b6000819050919050565b7f4e487b7100000000000000000000000000000000000000000000000000000000600052601160045260246000fd5b600080fd5b6102c28161027b565b81146102cd57600080fd5b5056fea26469706673582212205c7c30ebf03d35d65ea84aae455811184695ab8fb9dc4a9acc0eb308b2b4f6f364736f6c63430008070033",
					"opcodes": "PUSH1 0x80 PUSH1 0x40 MSTORE CALLVALUE DUP1 ISZERO PUSH2 0x10 JUMPI PUSH1 0x0 DUP1 REVERT JUMPDEST POP PUSH2 0x306 DUP1 PUSH2 0x20 PUSH1 0x0 CODECOPY PUSH1 0x0 RETURN INVALID PUSH1 0x80 PUSH1 0x40 MSTORE CALLVALUE DUP1 ISZERO PUSH2 0x10 JUMPI PUSH1 0x0 DUP1 REVERT JUMPDEST POP PUSH1 0x4 CALLDATASIZE LT PUSH2 0x41 JUMPI PUSH1 0x0 CALLDATALOAD PUSH1 0xE0 SHR DUP1 PUSH4 0x5D4E1E5C EQ PUSH2 0x46 JUMPI DUP1 PUSH4 0xBA88C3B7 EQ PUSH2 0x76 JUMPI DUP1 PUSH4 0xCAD0899B EQ PUSH2 0xA6 JUMPI JUMPDEST PUSH1 0x0 DUP1 REVERT JUMPDEST PUSH2 0x60 PUSH1 0x4 DUP1 CALLDATASIZE SUB DUP2 ADD SWAP1 PUSH2 0x5B SWAP2 SWAP1 PUSH2 0x12D JUMP JUMPDEST PUSH2 0xD6 JUMP JUMPDEST PUSH1 0x40 MLOAD PUSH2 0x6D SWAP2 SWAP1 PUSH2 0x17C JUMP JUMPDEST PUSH1 0x40 MLOAD DUP1 SWAP2 SUB SWAP1 RETURN JUMPDEST PUSH2 0x90 PUSH1 0x4 DUP1 CALLDATASIZE SUB DUP2 ADD SWAP1 PUSH2 0x8B SWAP2 SWAP1 PUSH2 0x12D JUMP JUMPDEST PUSH2 0xEC JUMP JUMPDEST PUSH1 0x40 MLOAD PUSH2 0x9D SWAP2 SWAP1 PUSH2 0x17C JUMP JUMPDEST PUSH1 0x40 MLOAD DUP1 SWAP2 SUB SWAP1 RETURN JUMPDEST PUSH2 0xC0 PUSH1 0x4 DUP1 CALLDATASIZE SUB DUP2 ADD SWAP1 PUSH2 0xBB SWAP2 SWAP1 PUSH2 0x12D JUMP JUMPDEST PUSH2 0x102 JUMP JUMPDEST PUSH1 0x40 MLOAD PUSH2 0xCD SWAP2 SWAP1 PUSH2 0x17C JUMP JUMPDEST PUSH1 0x40 MLOAD DUP1 SWAP2 SUB SWAP1 RETURN JUMPDEST PUSH1 0x0 DUP2 DUP4 PUSH2 0xE4 SWAP2 SWAP1 PUSH2 0x247 JUMP JUMPDEST SWAP1 POP SWAP3 SWAP2 POP POP JUMP JUMPDEST PUSH1 0x0 DUP2 DUP4 PUSH2 0xFA SWAP2 SWAP1 PUSH2 0x1ED JUMP JUMPDEST SWAP1 POP SWAP3 SWAP2 POP POP JUMP JUMPDEST PUSH1 0x0 DUP2 DUP4 PUSH2 0x110 SWAP2 SWAP1 PUSH2 0x197 JUMP JUMPDEST SWAP1 POP SWAP3 SWAP2 POP POP JUMP JUMPDEST PUSH1 0x0 DUP2 CALLDATALOAD SWAP1 POP PUSH2 0x127 DUP2 PUSH2 0x2B9 JUMP JUMPDEST SWAP3 SWAP2 POP POP JUMP JUMPDEST PUSH1 0x0 DUP1 PUSH1 0x40 DUP4 DUP6 SUB SLT ISZERO PUSH2 0x144 JUMPI PUSH2 0x143 PUSH2 0x2B4 JUMP JUMPDEST JUMPDEST PUSH1 0x0 PUSH2 0x152 DUP6 DUP3 DUP7 ADD PUSH2 0x118 JUMP JUMPDEST SWAP3 POP POP PUSH1 0x20 PUSH2 0x163 DUP6 DUP3 DUP7 ADD PUSH2 0x118 JUMP JUMPDEST SWAP2 POP POP SWAP3 POP SWAP3 SWAP1 POP JUMP JUMPDEST PUSH2 0x176 DUP2 PUSH2 0x27B JUMP JUMPDEST DUP3 MSTORE POP POP JUMP JUMPDEST PUSH1 0x0 PUSH1 0x20 DUP3 ADD SWAP1 POP PUSH2 0x191 PUSH1 0x0 DUP4 ADD DUP5 PUSH2 0x16D JUMP JUMPDEST SWAP3 SWAP2 POP POP JUMP JUMPDEST PUSH1 0x0 PUSH2 0x1A2 DUP3 PUSH2 0x27B JUMP JUMPDEST SWAP2 POP PUSH2 0x1AD DUP4 PUSH2 0x27B JUMP JUMPDEST SWAP3 POP DUP3 PUSH32 0xFFFFFFFFFFFFFFFFFFFFFFFFFFFFFFFFFFFFFFFFFFFFFFFFFFFFFFFFFFFFFFFF SUB DUP3 GT ISZERO PUSH2 0x1E2 JUMPI PUSH2 0x1E1 PUSH2 0x285 JUMP JUMPDEST JUMPDEST DUP3 DUP3 ADD SWAP1 POP SWAP3 SWAP2 POP POP JUMP JUMPDEST PUSH1 0x0 PUSH2 0x1F8 DUP3 PUSH2 0x27B JUMP JUMPDEST SWAP2 POP PUSH2 0x203 DUP4 PUSH2 0x27B JUMP JUMPDEST SWAP3 POP DUP2 PUSH32 0xFFFFFFFFFFFFFFFFFFFFFFFFFFFFFFFFFFFFFFFFFFFFFFFFFFFFFFFFFFFFFFFF DIV DUP4 GT DUP3 ISZERO ISZERO AND ISZERO PUSH2 0x23C JUMPI PUSH2 0x23B PUSH2 0x285 JUMP JUMPDEST JUMPDEST DUP3 DUP3 MUL SWAP1 POP SWAP3 SWAP2 POP POP JUMP JUMPDEST PUSH1 0x0 PUSH2 0x252 DUP3 PUSH2 0x27B JUMP JUMPDEST SWAP2 POP PUSH2 0x25D DUP4 PUSH2 0x27B JUMP JUMPDEST SWAP3 POP DUP3 DUP3 LT ISZERO PUSH2 0x270 JUMPI PUSH2 0x26F PUSH2 0x285 JUMP JUMPDEST JUMPDEST DUP3 DUP3 SUB SWAP1 POP SWAP3 SWAP2 POP POP JUMP JUMPDEST PUSH1 0x0 DUP2 SWAP1 POP SWAP2 SWAP1 POP JUMP JUMPDEST PUSH32 0x4E487B7100000000000000000000000000000000000000000000000000000000 PUSH1 0x0 MSTORE PUSH1 0x11 PUSH1 0x4 MSTORE PUSH1 0x24 PUSH1 0x0 REVERT JUMPDEST PUSH1 0x0 DUP1 REVERT JUMPDEST PUSH2 0x2C2 DUP2 PUSH2 0x27B JUMP JUMPDEST DUP2 EQ PUSH2 0x2CD JUMPI PUSH1 0x0 DUP1 REVERT JUMPDEST POP JUMP INVALID LOG2 PUSH5 0x6970667358 0x22 SLT KECCAK256 0x5C PUSH29 0x30EBF03D35D65EA84AAE455811184695AB8FB9DC4A9ACC0EB308B2B4F6 RETURN PUSH5 0x736F6C6343 STOP ADDMOD SMOD STOP CALLER "
				},
				"gasEstimates": {
					"creation": {
						"codeDepositCost": "154800",
						"executionCost": "202",
						"totalCost": "155002"
					},
					"external": {
						"product(uint256,uint256)": "infinite",
						"substract(uint256,uint256)": "infinite",
						"sum(uint256,uint256)": "infinite"
					}
				},
				"methodIdentifiers": {
					"product(uint256,uint256)": "ba88c3b7",
					"substract(uint256,uint256)": "5d4e1e5c",
					"sum(uint256,uint256)": "cad0899b"
				}
			},
			"storageLayout": {
				"storage": [],
				"types": null
			},
			"userdoc": {
				"kind": "user",
				"methods": {},
				"version": 1
			}
		}
	}
}