{
	"contracts/3_data_structures.sol": {
		"DataStructures": {
			"abi": [
				{
					"inputs": [
						{
							"internalType": "uint256",
							"name": "id",
							"type": "uint256"
						},
						{
							"internalType": "string",
							"name": "_name",
							"type": "string"
						},
						{
							"internalType": "string",
							"name": "_email",
							"type": "string"
						}
					],
					"name": "arrayAppend",
					"outputs": [],
					"stateMutability": "nonpayable",
					"type": "function"
				},
				{
					"inputs": [
						{
							"internalType": "uint256",
							"name": "_number",
							"type": "uint256"
						}
					],
					"name": "assignNumber",
					"outputs": [],
					"stateMutability": "nonpayable",
					"type": "function"
				},
				{
					"inputs": [
						{
							"internalType": "uint256",
							"name": "",
							"type": "uint256"
						}
					],
					"name": "customers",
					"outputs": [
						{
							"internalType": "uint256",
							"name": "id",
							"type": "uint256"
						},
						{
							"internalType": "string",
							"name": "name",
							"type": "string"
						},
						{
							"internalType": "string",
							"name": "email",
							"type": "string"
						}
					],
					"stateMutability": "view",
					"type": "function"
				},
				{
					"inputs": [
						{
							"internalType": "address",
							"name": "",
							"type": "address"
						}
					],
					"name": "customersAddress",
					"outputs": [
						{
							"internalType": "uint256",
							"name": "id",
							"type": "uint256"
						},
						{
							"internalType": "string",
							"name": "name",
							"type": "string"
						},
						{
							"internalType": "string",
							"name": "email",
							"type": "string"
						}
					],
					"stateMutability": "view",
					"type": "function"
				},
				{
					"inputs": [
						{
							"internalType": "address",
							"name": "",
							"type": "address"
						}
					],
					"name": "wallets",
					"outputs": [
						{
							"internalType": "uint256",
							"name": "",
							"type": "uint256"
						}
					],
					"stateMutability": "view",
					"type": "function"
				}
			],
			"devdoc": {
				"kind": "dev",
				"methods": {},
				"version": 1
			},
			"evm": {
				"assembly": "    /* \"contracts/3_data_structures.sol\":69:930  contract DataStructures {... */\n  mstore(0x40, 0x80)\n    /* \"contracts/3_data_structures.sol\":272:347  Customer(... */\n  mload(0x40)\n  dup1\n  0x60\n  add\n  0x40\n  mstore\n  dup1\n    /* \"contracts/3_data_structures.sol\":290:291  1 */\n  0x01\n    /* \"contracts/3_data_structures.sol\":272:347  Customer(... */\n  dup2\n  mstore\n  0x20\n  add\n  mload(0x40)\n  dup1\n  0x40\n  add\n  0x40\n  mstore\n  dup1\n  0x07\n  dup2\n  mstore\n  0x20\n  add\n  0x526f626572746f00000000000000000000000000000000000000000000000000\n  dup2\n  mstore\n  pop\n  dup2\n  mstore\n  0x20\n  add\n  mload(0x40)\n  dup1\n  0x40\n  add\n  0x40\n  mstore\n  dup1\n  0x13\n  dup2\n  mstore\n  0x20\n  add\n  0x726f626572746f40726f626572746f2e636f6d00000000000000000000000000\n  dup2\n  mstore\n  pop\n  dup2\n  mstore\n  pop\n    /* \"contracts/3_data_structures.sol\":251:347  Customer customer1 = Customer(... */\n  0x00\n  dup1\n  dup3\n  add\n  mload\n  dup2\n  0x00\n  add\n  sstore\n  0x20\n  dup3\n  add\n  mload\n  dup2\n  0x01\n  add\n  swap1\n  dup1\n  mload\n  swap1\n  0x20\n  add\n  swap1\n  tag_1\n  swap3\n  swap2\n  swap1\n  tag_2\n  jump\t// in\ntag_1:\n  pop\n  0x40\n  dup3\n  add\n  mload\n  dup2\n  0x02\n  add\n  swap1\n  dup1\n  mload\n  swap1\n  0x20\n  add\n  swap1\n  tag_3\n  swap3\n  swap2\n  swap1\n  tag_2\n  jump\t// in\ntag_3:\n  pop\n  pop\n  pop\n    /* \"contracts/3_data_structures.sol\":385:403  uint[4] ages = [1] */\n  mload(0x40)\n  dup1\n  0x20\n  add\n  0x40\n  mstore\n  dup1\n    /* \"contracts/3_data_structures.sol\":401:402  1 */\n  0x01\n    /* \"contracts/3_data_structures.sol\":385:403  uint[4] ages = [1] */\n  0xff\n  and\n  dup2\n  mstore\n  pop\n  0x03\n  swap1\n  0x01\n  tag_4\n  swap3\n  swap2\n  swap1\n  tag_5\n  jump\t// in\ntag_4:\n  pop\n    /* \"contracts/3_data_structures.sol\":69:930  contract DataStructures {... */\n  callvalue\n  dup1\n  iszero\n  tag_6\n  jumpi\n  0x00\n  dup1\n  revert\ntag_6:\n  pop\n  jump(tag_7)\ntag_2:\n  dup3\n  dup1\n  sload\n  tag_8\n  swap1\n  tag_9\n  jump\t// in\ntag_8:\n  swap1\n  0x00\n  mstore\n  keccak256(0x00, 0x20)\n  swap1\n  0x1f\n  add\n  0x20\n  swap1\n  div\n  dup2\n  add\n  swap3\n  dup3\n  tag_11\n  jumpi\n  0x00\n  dup6\n  sstore\n  jump(tag_10)\ntag_11:\n  dup3\n  0x1f\n  lt\n  tag_12\n  jumpi\n  dup1\n  mload\n  not(0xff)\n  and\n  dup4\n  dup1\n  add\n  or\n  dup6\n  sstore\n  jump(tag_10)\ntag_12:\n  dup3\n  dup1\n  add\n  0x01\n  add\n  dup6\n  sstore\n  dup3\n  iszero\n  tag_10\n  jumpi\n  swap2\n  dup3\n  add\ntag_13:\n  dup3\n  dup2\n  gt\n  iszero\n  tag_14\n  jumpi\n  dup3\n  mload\n  dup3\n  sstore\n  swap2\n  0x20\n  add\n  swap2\n  swap1\n  0x01\n  add\n  swap1\n  jump(tag_13)\ntag_14:\ntag_10:\n  pop\n  swap1\n  pop\n  tag_15\n  swap2\n  swap1\n  tag_16\n  jump\t// in\ntag_15:\n  pop\n  swap1\n  jump\t// out\ntag_5:\n  dup3\n  0x04\n  dup2\n  add\n  swap3\n  dup3\n  iszero\n  tag_17\n  jumpi\n  swap2\n  0x20\n  mul\n  dup3\n  add\ntag_18:\n  dup3\n  dup2\n  gt\n  iszero\n  tag_19\n  jumpi\n  dup3\n  mload\n  dup3\n  swap1\n  0xff\n  and\n  swap1\n  sstore\n  swap2\n  0x20\n  add\n  swap2\n  swap1\n  0x01\n  add\n  swap1\n  jump(tag_18)\ntag_19:\ntag_17:\n  pop\n  swap1\n  pop\n  tag_20\n  swap2\n  swap1\n  tag_16\n  jump\t// in\ntag_20:\n  pop\n  swap1\n  jump\t// out\ntag_16:\ntag_21:\n  dup1\n  dup3\n  gt\n  iszero\n  tag_22\n  jumpi\n  0x00\n  dup2\n  0x00\n  swap1\n  sstore\n  pop\n  0x01\n  add\n  jump(tag_21)\ntag_22:\n  pop\n  swap1\n  jump\t// out\n    /* \"#utility.yul\":7:327   */\ntag_9:\n    /* \"#utility.yul\":51:57   */\n  0x00\n    /* \"#utility.yul\":88:89   */\n  0x02\n    /* \"#utility.yul\":82:86   */\n  dup3\n    /* \"#utility.yul\":78:90   */\n  div\n    /* \"#utility.yul\":68:90   */\n  swap1\n  pop\n    /* \"#utility.yul\":135:136   */\n  0x01\n    /* \"#utility.yul\":129:133   */\n  dup3\n    /* \"#utility.yul\":125:137   */\n  and\n    /* \"#utility.yul\":156:174   */\n  dup1\n    /* \"#utility.yul\":146:148   */\n  tag_25\n  jumpi\n    /* \"#utility.yul\":212:216   */\n  0x7f\n    /* \"#utility.yul\":204:210   */\n  dup3\n    /* \"#utility.yul\":200:217   */\n  and\n    /* \"#utility.yul\":190:217   */\n  swap2\n  pop\n    /* \"#utility.yul\":146:148   */\ntag_25:\n    /* \"#utility.yul\":274:276   */\n  0x20\n    /* \"#utility.yul\":266:272   */\n  dup3\n    /* \"#utility.yul\":263:277   */\n  lt\n    /* \"#utility.yul\":243:261   */\n  dup2\n    /* \"#utility.yul\":240:278   */\n  eq\n    /* \"#utility.yul\":237:239   */\n  iszero\n  tag_26\n  jumpi\n    /* \"#utility.yul\":293:311   */\n  tag_27\n  tag_28\n  jump\t// in\ntag_27:\n    /* \"#utility.yul\":237:239   */\ntag_26:\n    /* \"#utility.yul\":58:327   */\n  pop\n  swap2\n  swap1\n  pop\n  jump\t// out\n    /* \"#utility.yul\":333:513   */\ntag_28:\n    /* \"#utility.yul\":381:458   */\n  0x4e487b7100000000000000000000000000000000000000000000000000000000\n    /* \"#utility.yul\":378:379   */\n  0x00\n    /* \"#utility.yul\":371:459   */\n  mstore\n    /* \"#utility.yul\":478:482   */\n  0x22\n    /* \"#utility.yul\":475:476   */\n  0x04\n    /* \"#utility.yul\":468:483   */\n  mstore\n    /* \"#utility.yul\":502:506   */\n  0x24\n    /* \"#utility.yul\":499:500   */\n  0x00\n    /* \"#utility.yul\":492:507   */\n  revert\n    /* \"contracts/3_data_structures.sol\":69:930  contract DataStructures {... */\ntag_7:\n  dataSize(sub_0)\n  dup1\n  dataOffset(sub_0)\n  0x00\n  codecopy\n  0x00\n  return\nstop\n\nsub_0: assembly {\n        /* \"contracts/3_data_structures.sol\":69:930  contract DataStructures {... */\n      mstore(0x40, 0x80)\n      callvalue\n      dup1\n      iszero\n      tag_1\n      jumpi\n      0x00\n      dup1\n      revert\n    tag_1:\n      pop\n      jumpi(tag_2, lt(calldatasize, 0x04))\n      shr(0xe0, calldataload(0x00))\n      dup1\n      0x3cc1c50d\n      eq\n      tag_3\n      jumpi\n      dup1\n      0x60591cc0\n      eq\n      tag_4\n      jumpi\n      dup1\n      0x89b08f11\n      eq\n      tag_5\n      jumpi\n      dup1\n      0xc0abda2a\n      eq\n      tag_6\n      jumpi\n      dup1\n      0xe52b008f\n      eq\n      tag_7\n      jumpi\n    tag_2:\n      0x00\n      dup1\n      revert\n        /* \"contracts/3_data_structures.sol\":780:832  mapping(address => Customer) public customersAddress */\n    tag_3:\n      tag_8\n      0x04\n      dup1\n      calldatasize\n      sub\n      dup2\n      add\n      swap1\n      tag_9\n      swap2\n      swap1\n      tag_10\n      jump\t// in\n    tag_9:\n      tag_11\n      jump\t// in\n    tag_8:\n      mload(0x40)\n      tag_12\n      swap4\n      swap3\n      swap2\n      swap1\n      tag_13\n      jump\t// in\n    tag_12:\n      mload(0x40)\n      dup1\n      swap2\n      sub\n      swap1\n      return\n        /* \"contracts/3_data_structures.sol\":476:713  function arrayAppend(uint id, string memory _name, string memory _email) public {... */\n    tag_4:\n      tag_14\n      0x04\n      dup1\n      calldatasize\n      sub\n      dup2\n      add\n      swap1\n      tag_15\n      swap2\n      swap1\n      tag_16\n      jump\t// in\n    tag_15:\n      tag_17\n      jump\t// in\n    tag_14:\n      stop\n        /* \"contracts/3_data_structures.sol\":735:774  mapping(address => uint) public wallets */\n    tag_5:\n      tag_18\n      0x04\n      dup1\n      calldatasize\n      sub\n      dup2\n      add\n      swap1\n      tag_19\n      swap2\n      swap1\n      tag_10\n      jump\t// in\n    tag_19:\n      tag_20\n      jump\t// in\n    tag_18:\n      mload(0x40)\n      tag_21\n      swap2\n      swap1\n      tag_22\n      jump\t// in\n    tag_21:\n      mload(0x40)\n      dup1\n      swap2\n      sub\n      swap1\n      return\n        /* \"contracts/3_data_structures.sol\":409:437  Customer [] public customers */\n    tag_6:\n      tag_23\n      0x04\n      dup1\n      calldatasize\n      sub\n      dup2\n      add\n      swap1\n      tag_24\n      swap2\n      swap1\n      tag_25\n      jump\t// in\n    tag_24:\n      tag_26\n      jump\t// in\n    tag_23:\n      mload(0x40)\n      tag_27\n      swap4\n      swap3\n      swap2\n      swap1\n      tag_13\n      jump\t// in\n    tag_27:\n      mload(0x40)\n      dup1\n      swap2\n      sub\n      swap1\n      return\n        /* \"contracts/3_data_structures.sol\":839:928  function assignNumber(uint _number) public {... */\n    tag_7:\n      tag_28\n      0x04\n      dup1\n      calldatasize\n      sub\n      dup2\n      add\n      swap1\n      tag_29\n      swap2\n      swap1\n      tag_25\n      jump\t// in\n    tag_29:\n      tag_30\n      jump\t// in\n    tag_28:\n      stop\n        /* \"contracts/3_data_structures.sol\":780:832  mapping(address => Customer) public customersAddress */\n    tag_11:\n      mstore(0x20, 0x09)\n      dup1\n      0x00\n      mstore\n      keccak256(0x00, 0x40)\n      0x00\n      swap2\n      pop\n      swap1\n      pop\n      dup1\n      0x00\n      add\n      sload\n      swap1\n      dup1\n      0x01\n      add\n      dup1\n      sload\n      tag_31\n      swap1\n      tag_32\n      jump\t// in\n    tag_31:\n      dup1\n      0x1f\n      add\n      0x20\n      dup1\n      swap2\n      div\n      mul\n      0x20\n      add\n      mload(0x40)\n      swap1\n      dup2\n      add\n      0x40\n      mstore\n      dup1\n      swap3\n      swap2\n      swap1\n      dup2\n      dup2\n      mstore\n      0x20\n      add\n      dup3\n      dup1\n      sload\n      tag_33\n      swap1\n      tag_32\n      jump\t// in\n    tag_33:\n      dup1\n      iszero\n      tag_34\n      jumpi\n      dup1\n      0x1f\n      lt\n      tag_35\n      jumpi\n      0x0100\n      dup1\n      dup4\n      sload\n      div\n      mul\n      dup4\n      mstore\n      swap2\n      0x20\n      add\n      swap2\n      jump(tag_34)\n    tag_35:\n      dup3\n      add\n      swap2\n      swap1\n      0x00\n      mstore\n      keccak256(0x00, 0x20)\n      swap1\n    tag_36:\n      dup2\n      sload\n      dup2\n      mstore\n      swap1\n      0x01\n      add\n      swap1\n      0x20\n      add\n      dup1\n      dup4\n      gt\n      tag_36\n      jumpi\n      dup3\n      swap1\n      sub\n      0x1f\n      and\n      dup3\n      add\n      swap2\n    tag_34:\n      pop\n      pop\n      pop\n      pop\n      pop\n      swap1\n      dup1\n      0x02\n      add\n      dup1\n      sload\n      tag_37\n      swap1\n      tag_32\n      jump\t// in\n    tag_37:\n      dup1\n      0x1f\n      add\n      0x20\n      dup1\n      swap2\n      div\n      mul\n      0x20\n      add\n      mload(0x40)\n      swap1\n      dup2\n      add\n      0x40\n      mstore\n      dup1\n      swap3\n      swap2\n      swap1\n      dup2\n      dup2\n      mstore\n      0x20\n      add\n      dup3\n      dup1\n      sload\n      tag_38\n      swap1\n      tag_32\n      jump\t// in\n    tag_38:\n      dup1\n      iszero\n      tag_39\n      jumpi\n      dup1\n      0x1f\n      lt\n      tag_40\n      jumpi\n      0x0100\n      dup1\n      dup4\n      sload\n      div\n      mul\n      dup4\n      mstore\n      swap2\n      0x20\n      add\n      swap2\n      jump(tag_39)\n    tag_40:\n      dup3\n      add\n      swap2\n      swap1\n      0x00\n      mstore\n      keccak256(0x00, 0x20)\n      swap1\n    tag_41:\n      dup2\n      sload\n      dup2\n      mstore\n      swap1\n      0x01\n      add\n      swap1\n      0x20\n      add\n      dup1\n      dup4\n      gt\n      tag_41\n      jumpi\n      dup3\n      swap1\n      sub\n      0x1f\n      and\n      dup3\n      add\n      swap2\n    tag_39:\n      pop\n      pop\n      pop\n      pop\n      pop\n      swap1\n      pop\n      dup4\n      jump\t// out\n        /* \"contracts/3_data_structures.sol\":476:713  function arrayAppend(uint id, string memory _name, string memory _email) public {... */\n    tag_17:\n        /* \"contracts/3_data_structures.sol\":566:593  Customer memory newCustomer */\n      0x00\n        /* \"contracts/3_data_structures.sol\":596:669  Customer(... */\n      mload(0x40)\n      dup1\n      0x60\n      add\n      0x40\n      mstore\n      dup1\n        /* \"contracts/3_data_structures.sol\":618:620  id */\n      dup6\n        /* \"contracts/3_data_structures.sol\":596:669  Customer(... */\n      dup2\n      mstore\n      0x20\n      add\n        /* \"contracts/3_data_structures.sol\":634:639  _name */\n      dup5\n        /* \"contracts/3_data_structures.sol\":596:669  Customer(... */\n      dup2\n      mstore\n      0x20\n      add\n        /* \"contracts/3_data_structures.sol\":653:659  _email */\n      dup4\n        /* \"contracts/3_data_structures.sol\":596:669  Customer(... */\n      dup2\n      mstore\n      pop\n        /* \"contracts/3_data_structures.sol\":566:669  Customer memory newCustomer = Customer(... */\n      swap1\n      pop\n        /* \"contracts/3_data_structures.sol\":679:688  customers */\n      0x07\n        /* \"contracts/3_data_structures.sol\":694:705  newCustomer */\n      dup2\n        /* \"contracts/3_data_structures.sol\":679:706  customers.push(newCustomer) */\n      swap1\n      dup1\n      0x01\n      dup2\n      sload\n      add\n      dup1\n      dup3\n      sstore\n      dup1\n      swap2\n      pop\n      pop\n      0x01\n      swap1\n      sub\n      swap1\n      0x00\n      mstore\n      keccak256(0x00, 0x20)\n      swap1\n      0x03\n      mul\n      add\n      0x00\n      swap1\n      swap2\n      swap1\n      swap2\n      swap1\n      swap2\n      pop\n      0x00\n      dup3\n      add\n      mload\n      dup2\n      0x00\n      add\n      sstore\n      0x20\n      dup3\n      add\n      mload\n      dup2\n      0x01\n      add\n      swap1\n      dup1\n      mload\n      swap1\n      0x20\n      add\n      swap1\n      tag_44\n      swap3\n      swap2\n      swap1\n      tag_45\n      jump\t// in\n    tag_44:\n      pop\n      0x40\n      dup3\n      add\n      mload\n      dup2\n      0x02\n      add\n      swap1\n      dup1\n      mload\n      swap1\n      0x20\n      add\n      swap1\n      tag_46\n      swap3\n      swap2\n      swap1\n      tag_45\n      jump\t// in\n    tag_46:\n      pop\n      pop\n      pop\n        /* \"contracts/3_data_structures.sol\":476:713  function arrayAppend(uint id, string memory _name, string memory _email) public {... */\n      pop\n      pop\n      pop\n      pop\n      jump\t// out\n        /* \"contracts/3_data_structures.sol\":735:774  mapping(address => uint) public wallets */\n    tag_20:\n      mstore(0x20, 0x08)\n      dup1\n      0x00\n      mstore\n      keccak256(0x00, 0x40)\n      0x00\n      swap2\n      pop\n      swap1\n      pop\n      sload\n      dup2\n      jump\t// out\n        /* \"contracts/3_data_structures.sol\":409:437  Customer [] public customers */\n    tag_26:\n      0x07\n      dup2\n      dup2\n      sload\n      dup2\n      lt\n      tag_47\n      jumpi\n      0x00\n      dup1\n      revert\n    tag_47:\n      swap1\n      0x00\n      mstore\n      keccak256(0x00, 0x20)\n      swap1\n      0x03\n      mul\n      add\n      0x00\n      swap2\n      pop\n      swap1\n      pop\n      dup1\n      0x00\n      add\n      sload\n      swap1\n      dup1\n      0x01\n      add\n      dup1\n      sload\n      tag_49\n      swap1\n      tag_32\n      jump\t// in\n    tag_49:\n      dup1\n      0x1f\n      add\n      0x20\n      dup1\n      swap2\n      div\n      mul\n      0x20\n      add\n      mload(0x40)\n      swap1\n      dup2\n      add\n      0x40\n      mstore\n      dup1\n      swap3\n      swap2\n      swap1\n      dup2\n      dup2\n      mstore\n      0x20\n      add\n      dup3\n      dup1\n      sload\n      tag_50\n      swap1\n      tag_32\n      jump\t// in\n    tag_50:\n      dup1\n      iszero\n      tag_51\n      jumpi\n      dup1\n      0x1f\n      lt\n      tag_52\n      jumpi\n      0x0100\n      dup1\n      dup4\n      sload\n      div\n      mul\n      dup4\n      mstore\n      swap2\n      0x20\n      add\n      swap2\n      jump(tag_51)\n    tag_52:\n      dup3\n      add\n      swap2\n      swap1\n      0x00\n      mstore\n      keccak256(0x00, 0x20)\n      swap1\n    tag_53:\n      dup2\n      sload\n      dup2\n      mstore\n      swap1\n      0x01\n      add\n      swap1\n      0x20\n      add\n      dup1\n      dup4\n      gt\n      tag_53\n      jumpi\n      dup3\n      swap1\n      sub\n      0x1f\n      and\n      dup3\n      add\n      swap2\n    tag_51:\n      pop\n      pop\n      pop\n      pop\n      pop\n      swap1\n      dup1\n      0x02\n      add\n      dup1\n      sload\n      tag_54\n      swap1\n      tag_32\n      jump\t// in\n    tag_54:\n      dup1\n      0x1f\n      add\n      0x20\n      dup1\n      swap2\n      div\n      mul\n      0x20\n      add\n      mload(0x40)\n      swap1\n      dup2\n      add\n      0x40\n      mstore\n      dup1\n      swap3\n      swap2\n      swap1\n      dup2\n      dup2\n      mstore\n      0x20\n      add\n      dup3\n      dup1\n      sload\n      tag_55\n      swap1\n      tag_32\n      jump\t// in\n    tag_55:\n      dup1\n      iszero\n      tag_56\n      jumpi\n      dup1\n      0x1f\n      lt\n      tag_57\n      jumpi\n      0x0100\n      dup1\n      dup4\n      sload\n      div\n      mul\n      dup4\n      mstore\n      swap2\n      0x20\n      add\n      swap2\n      jump(tag_56)\n    tag_57:\n      dup3\n      add\n      swap2\n      swap1\n      0x00\n      mstore\n      keccak256(0x00, 0x20)\n      swap1\n    tag_58:\n      dup2\n      sload\n      dup2\n      mstore\n      swap1\n      0x01\n      add\n      swap1\n      0x20\n      add\n      dup1\n      dup4\n      gt\n      tag_58\n      jumpi\n      dup3\n      swap1\n      sub\n      0x1f\n      and\n      dup3\n      add\n      swap2\n    tag_56:\n      pop\n      pop\n      pop\n      pop\n      pop\n      swap1\n      pop\n      dup4\n      jump\t// out\n        /* \"contracts/3_data_structures.sol\":839:928  function assignNumber(uint _number) public {... */\n    tag_30:\n        /* \"contracts/3_data_structures.sol\":914:921  _number */\n      dup1\n        /* \"contracts/3_data_structures.sol\":892:899  wallets */\n      0x08\n        /* \"contracts/3_data_structures.sol\":892:911  wallets[msg.sender] */\n      0x00\n        /* \"contracts/3_data_structures.sol\":900:910  msg.sender */\n      caller\n        /* \"contracts/3_data_structures.sol\":892:911  wallets[msg.sender] */\n      0xffffffffffffffffffffffffffffffffffffffff\n      and\n      0xffffffffffffffffffffffffffffffffffffffff\n      and\n      dup2\n      mstore\n      0x20\n      add\n      swap1\n      dup2\n      mstore\n      0x20\n      add\n      0x00\n      keccak256\n        /* \"contracts/3_data_structures.sol\":892:921  wallets[msg.sender] = _number */\n      dup2\n      swap1\n      sstore\n      pop\n        /* \"contracts/3_data_structures.sol\":839:928  function assignNumber(uint _number) public {... */\n      pop\n      jump\t// out\n    tag_45:\n      dup3\n      dup1\n      sload\n      tag_60\n      swap1\n      tag_32\n      jump\t// in\n    tag_60:\n      swap1\n      0x00\n      mstore\n      keccak256(0x00, 0x20)\n      swap1\n      0x1f\n      add\n      0x20\n      swap1\n      div\n      dup2\n      add\n      swap3\n      dup3\n      tag_62\n      jumpi\n      0x00\n      dup6\n      sstore\n      jump(tag_61)\n    tag_62:\n      dup3\n      0x1f\n      lt\n      tag_63\n      jumpi\n      dup1\n      mload\n      not(0xff)\n      and\n      dup4\n      dup1\n      add\n      or\n      dup6\n      sstore\n      jump(tag_61)\n    tag_63:\n      dup3\n      dup1\n      add\n      0x01\n      add\n      dup6\n      sstore\n      dup3\n      iszero\n      tag_61\n      jumpi\n      swap2\n      dup3\n      add\n    tag_64:\n      dup3\n      dup2\n      gt\n      iszero\n      tag_65\n      jumpi\n      dup3\n      mload\n      dup3\n      sstore\n      swap2\n      0x20\n      add\n      swap2\n      swap1\n      0x01\n      add\n      swap1\n      jump(tag_64)\n    tag_65:\n    tag_61:\n      pop\n      swap1\n      pop\n      tag_66\n      swap2\n      swap1\n      tag_67\n      jump\t// in\n    tag_66:\n      pop\n      swap1\n      jump\t// out\n    tag_67:\n    tag_68:\n      dup1\n      dup3\n      gt\n      iszero\n      tag_69\n      jumpi\n      0x00\n      dup2\n      0x00\n      swap1\n      sstore\n      pop\n      0x01\n      add\n      jump(tag_68)\n    tag_69:\n      pop\n      swap1\n      jump\t// out\n        /* \"#utility.yul\":7:352   */\n    tag_71:\n        /* \"#utility.yul\":85:90   */\n      0x00\n        /* \"#utility.yul\":110:176   */\n      tag_73\n        /* \"#utility.yul\":126:175   */\n      tag_74\n        /* \"#utility.yul\":168:174   */\n      dup5\n        /* \"#utility.yul\":126:175   */\n      tag_75\n      jump\t// in\n    tag_74:\n        /* \"#utility.yul\":110:176   */\n      tag_76\n      jump\t// in\n    tag_73:\n        /* \"#utility.yul\":101:176   */\n      swap1\n      pop\n        /* \"#utility.yul\":199:205   */\n      dup3\n        /* \"#utility.yul\":192:197   */\n      dup2\n        /* \"#utility.yul\":185:206   */\n      mstore\n        /* \"#utility.yul\":237:241   */\n      0x20\n        /* \"#utility.yul\":230:235   */\n      dup2\n        /* \"#utility.yul\":226:242   */\n      add\n        /* \"#utility.yul\":275:278   */\n      dup5\n        /* \"#utility.yul\":266:272   */\n      dup5\n        /* \"#utility.yul\":261:264   */\n      dup5\n        /* \"#utility.yul\":257:273   */\n      add\n        /* \"#utility.yul\":254:279   */\n      gt\n        /* \"#utility.yul\":251:253   */\n      iszero\n      tag_77\n      jumpi\n        /* \"#utility.yul\":292:293   */\n      0x00\n        /* \"#utility.yul\":289:290   */\n      dup1\n        /* \"#utility.yul\":282:294   */\n      revert\n        /* \"#utility.yul\":251:253   */\n    tag_77:\n        /* \"#utility.yul\":305:346   */\n      tag_78\n        /* \"#utility.yul\":339:345   */\n      dup5\n        /* \"#utility.yul\":334:337   */\n      dup3\n        /* \"#utility.yul\":329:332   */\n      dup6\n        /* \"#utility.yul\":305:346   */\n      tag_79\n      jump\t// in\n    tag_78:\n        /* \"#utility.yul\":91:352   */\n      pop\n      swap4\n      swap3\n      pop\n      pop\n      pop\n      jump\t// out\n        /* \"#utility.yul\":358:497   */\n    tag_80:\n        /* \"#utility.yul\":404:409   */\n      0x00\n        /* \"#utility.yul\":442:448   */\n      dup2\n        /* \"#utility.yul\":429:449   */\n      calldataload\n        /* \"#utility.yul\":420:449   */\n      swap1\n      pop\n        /* \"#utility.yul\":458:491   */\n      tag_82\n        /* \"#utility.yul\":485:490   */\n      dup2\n        /* \"#utility.yul\":458:491   */\n      tag_83\n      jump\t// in\n    tag_82:\n        /* \"#utility.yul\":410:497   */\n      swap3\n      swap2\n      pop\n      pop\n      jump\t// out\n        /* \"#utility.yul\":517:790   */\n    tag_84:\n        /* \"#utility.yul\":573:578   */\n      0x00\n        /* \"#utility.yul\":622:625   */\n      dup3\n        /* \"#utility.yul\":615:619   */\n      0x1f\n        /* \"#utility.yul\":607:613   */\n      dup4\n        /* \"#utility.yul\":603:620   */\n      add\n        /* \"#utility.yul\":599:626   */\n      slt\n        /* \"#utility.yul\":589:591   */\n      tag_86\n      jumpi\n        /* \"#utility.yul\":640:641   */\n      0x00\n        /* \"#utility.yul\":637:638   */\n      dup1\n        /* \"#utility.yul\":630:642   */\n      revert\n        /* \"#utility.yul\":589:591   */\n    tag_86:\n        /* \"#utility.yul\":680:686   */\n      dup2\n        /* \"#utility.yul\":667:687   */\n      calldataload\n        /* \"#utility.yul\":705:784   */\n      tag_87\n        /* \"#utility.yul\":780:783   */\n      dup5\n        /* \"#utility.yul\":772:778   */\n      dup3\n        /* \"#utility.yul\":765:769   */\n      0x20\n        /* \"#utility.yul\":757:763   */\n      dup7\n        /* \"#utility.yul\":753:770   */\n      add\n        /* \"#utility.yul\":705:784   */\n      tag_71\n      jump\t// in\n    tag_87:\n        /* \"#utility.yul\":696:784   */\n      swap2\n      pop\n        /* \"#utility.yul\":579:790   */\n      pop\n      swap3\n      swap2\n      pop\n      pop\n      jump\t// out\n        /* \"#utility.yul\":796:935   */\n    tag_88:\n        /* \"#utility.yul\":842:847   */\n      0x00\n        /* \"#utility.yul\":880:886   */\n      dup2\n        /* \"#utility.yul\":867:887   */\n      calldataload\n        /* \"#utility.yul\":858:887   */\n      swap1\n      pop\n        /* \"#utility.yul\":896:929   */\n      tag_90\n        /* \"#utility.yul\":923:928   */\n      dup2\n        /* \"#utility.yul\":896:929   */\n      tag_91\n      jump\t// in\n    tag_90:\n        /* \"#utility.yul\":848:935   */\n      swap3\n      swap2\n      pop\n      pop\n      jump\t// out\n        /* \"#utility.yul\":941:1203   */\n    tag_10:\n        /* \"#utility.yul\":1000:1006   */\n      0x00\n        /* \"#utility.yul\":1049:1051   */\n      0x20\n        /* \"#utility.yul\":1037:1046   */\n      dup3\n        /* \"#utility.yul\":1028:1035   */\n      dup5\n        /* \"#utility.yul\":1024:1047   */\n      sub\n        /* \"#utility.yul\":1020:1052   */\n      slt\n        /* \"#utility.yul\":1017:1019   */\n      iszero\n      tag_93\n      jumpi\n        /* \"#utility.yul\":1065:1066   */\n      0x00\n        /* \"#utility.yul\":1062:1063   */\n      dup1\n        /* \"#utility.yul\":1055:1067   */\n      revert\n        /* \"#utility.yul\":1017:1019   */\n    tag_93:\n        /* \"#utility.yul\":1108:1109   */\n      0x00\n        /* \"#utility.yul\":1133:1186   */\n      tag_94\n        /* \"#utility.yul\":1178:1185   */\n      dup5\n        /* \"#utility.yul\":1169:1175   */\n      dup3\n        /* \"#utility.yul\":1158:1167   */\n      dup6\n        /* \"#utility.yul\":1154:1176   */\n      add\n        /* \"#utility.yul\":1133:1186   */\n      tag_80\n      jump\t// in\n    tag_94:\n        /* \"#utility.yul\":1123:1186   */\n      swap2\n      pop\n        /* \"#utility.yul\":1079:1196   */\n      pop\n        /* \"#utility.yul\":1007:1203   */\n      swap3\n      swap2\n      pop\n      pop\n      jump\t// out\n        /* \"#utility.yul\":1209:1471   */\n    tag_25:\n        /* \"#utility.yul\":1268:1274   */\n      0x00\n        /* \"#utility.yul\":1317:1319   */\n      0x20\n        /* \"#utility.yul\":1305:1314   */\n      dup3\n        /* \"#utility.yul\":1296:1303   */\n      dup5\n        /* \"#utility.yul\":1292:1315   */\n      sub\n        /* \"#utility.yul\":1288:1320   */\n      slt\n        /* \"#utility.yul\":1285:1287   */\n      iszero\n      tag_96\n      jumpi\n        /* \"#utility.yul\":1333:1334   */\n      0x00\n        /* \"#utility.yul\":1330:1331   */\n      dup1\n        /* \"#utility.yul\":1323:1335   */\n      revert\n        /* \"#utility.yul\":1285:1287   */\n    tag_96:\n        /* \"#utility.yul\":1376:1377   */\n      0x00\n        /* \"#utility.yul\":1401:1454   */\n      tag_97\n        /* \"#utility.yul\":1446:1453   */\n      dup5\n        /* \"#utility.yul\":1437:1443   */\n      dup3\n        /* \"#utility.yul\":1426:1435   */\n      dup6\n        /* \"#utility.yul\":1422:1444   */\n      add\n        /* \"#utility.yul\":1401:1454   */\n      tag_88\n      jump\t// in\n    tag_97:\n        /* \"#utility.yul\":1391:1454   */\n      swap2\n      pop\n        /* \"#utility.yul\":1347:1464   */\n      pop\n        /* \"#utility.yul\":1275:1471   */\n      swap3\n      swap2\n      pop\n      pop\n      jump\t// out\n        /* \"#utility.yul\":1477:2255   */\n    tag_16:\n        /* \"#utility.yul\":1574:1580   */\n      0x00\n        /* \"#utility.yul\":1582:1588   */\n      dup1\n        /* \"#utility.yul\":1590:1596   */\n      0x00\n        /* \"#utility.yul\":1639:1641   */\n      0x60\n        /* \"#utility.yul\":1627:1636   */\n      dup5\n        /* \"#utility.yul\":1618:1625   */\n      dup7\n        /* \"#utility.yul\":1614:1637   */\n      sub\n        /* \"#utility.yul\":1610:1642   */\n      slt\n        /* \"#utility.yul\":1607:1609   */\n      iszero\n      tag_99\n      jumpi\n        /* \"#utility.yul\":1655:1656   */\n      0x00\n        /* \"#utility.yul\":1652:1653   */\n      dup1\n        /* \"#utility.yul\":1645:1657   */\n      revert\n        /* \"#utility.yul\":1607:1609   */\n    tag_99:\n        /* \"#utility.yul\":1698:1699   */\n      0x00\n        /* \"#utility.yul\":1723:1776   */\n      tag_100\n        /* \"#utility.yul\":1768:1775   */\n      dup7\n        /* \"#utility.yul\":1759:1765   */\n      dup3\n        /* \"#utility.yul\":1748:1757   */\n      dup8\n        /* \"#utility.yul\":1744:1766   */\n      add\n        /* \"#utility.yul\":1723:1776   */\n      tag_88\n      jump\t// in\n    tag_100:\n        /* \"#utility.yul\":1713:1776   */\n      swap4\n      pop\n        /* \"#utility.yul\":1669:1786   */\n      pop\n        /* \"#utility.yul\":1853:1855   */\n      0x20\n        /* \"#utility.yul\":1842:1851   */\n      dup5\n        /* \"#utility.yul\":1838:1856   */\n      add\n        /* \"#utility.yul\":1825:1857   */\n      calldataload\n        /* \"#utility.yul\":1884:1902   */\n      0xffffffffffffffff\n        /* \"#utility.yul\":1876:1882   */\n      dup2\n        /* \"#utility.yul\":1873:1903   */\n      gt\n        /* \"#utility.yul\":1870:1872   */\n      iszero\n      tag_101\n      jumpi\n        /* \"#utility.yul\":1916:1917   */\n      0x00\n        /* \"#utility.yul\":1913:1914   */\n      dup1\n        /* \"#utility.yul\":1906:1918   */\n      revert\n        /* \"#utility.yul\":1870:1872   */\n    tag_101:\n        /* \"#utility.yul\":1944:2007   */\n      tag_102\n        /* \"#utility.yul\":1999:2006   */\n      dup7\n        /* \"#utility.yul\":1990:1996   */\n      dup3\n        /* \"#utility.yul\":1979:1988   */\n      dup8\n        /* \"#utility.yul\":1975:1997   */\n      add\n        /* \"#utility.yul\":1944:2007   */\n      tag_84\n      jump\t// in\n    tag_102:\n        /* \"#utility.yul\":1934:2007   */\n      swap3\n      pop\n        /* \"#utility.yul\":1796:2017   */\n      pop\n        /* \"#utility.yul\":2084:2086   */\n      0x40\n        /* \"#utility.yul\":2073:2082   */\n      dup5\n        /* \"#utility.yul\":2069:2087   */\n      add\n        /* \"#utility.yul\":2056:2088   */\n      calldataload\n        /* \"#utility.yul\":2115:2133   */\n      0xffffffffffffffff\n        /* \"#utility.yul\":2107:2113   */\n      dup2\n        /* \"#utility.yul\":2104:2134   */\n      gt\n        /* \"#utility.yul\":2101:2103   */\n      iszero\n      tag_103\n      jumpi\n        /* \"#utility.yul\":2147:2148   */\n      0x00\n        /* \"#utility.yul\":2144:2145   */\n      dup1\n        /* \"#utility.yul\":2137:2149   */\n      revert\n        /* \"#utility.yul\":2101:2103   */\n    tag_103:\n        /* \"#utility.yul\":2175:2238   */\n      tag_104\n        /* \"#utility.yul\":2230:2237   */\n      dup7\n        /* \"#utility.yul\":2221:2227   */\n      dup3\n        /* \"#utility.yul\":2210:2219   */\n      dup8\n        /* \"#utility.yul\":2206:2228   */\n      add\n        /* \"#utility.yul\":2175:2238   */\n      tag_84\n      jump\t// in\n    tag_104:\n        /* \"#utility.yul\":2165:2238   */\n      swap2\n      pop\n        /* \"#utility.yul\":2027:2248   */\n      pop\n        /* \"#utility.yul\":1597:2255   */\n      swap3\n      pop\n      swap3\n      pop\n      swap3\n      jump\t// out\n        /* \"#utility.yul\":2261:2625   */\n    tag_105:\n        /* \"#utility.yul\":2349:2352   */\n      0x00\n        /* \"#utility.yul\":2377:2416   */\n      tag_107\n        /* \"#utility.yul\":2410:2415   */\n      dup3\n        /* \"#utility.yul\":2377:2416   */\n      tag_108\n      jump\t// in\n    tag_107:\n        /* \"#utility.yul\":2432:2503   */\n      tag_109\n        /* \"#utility.yul\":2496:2502   */\n      dup2\n        /* \"#utility.yul\":2491:2494   */\n      dup6\n        /* \"#utility.yul\":2432:2503   */\n      tag_110\n      jump\t// in\n    tag_109:\n        /* \"#utility.yul\":2425:2503   */\n      swap4\n      pop\n        /* \"#utility.yul\":2512:2564   */\n      tag_111\n        /* \"#utility.yul\":2557:2563   */\n      dup2\n        /* \"#utility.yul\":2552:2555   */\n      dup6\n        /* \"#utility.yul\":2545:2549   */\n      0x20\n        /* \"#utility.yul\":2538:2543   */\n      dup7\n        /* \"#utility.yul\":2534:2550   */\n      add\n        /* \"#utility.yul\":2512:2564   */\n      tag_112\n      jump\t// in\n    tag_111:\n        /* \"#utility.yul\":2589:2618   */\n      tag_113\n        /* \"#utility.yul\":2611:2617   */\n      dup2\n        /* \"#utility.yul\":2589:2618   */\n      tag_114\n      jump\t// in\n    tag_113:\n        /* \"#utility.yul\":2584:2587   */\n      dup5\n        /* \"#utility.yul\":2580:2619   */\n      add\n        /* \"#utility.yul\":2573:2619   */\n      swap2\n      pop\n        /* \"#utility.yul\":2353:2625   */\n      pop\n      swap3\n      swap2\n      pop\n      pop\n      jump\t// out\n        /* \"#utility.yul\":2631:2749   */\n    tag_115:\n        /* \"#utility.yul\":2718:2742   */\n      tag_117\n        /* \"#utility.yul\":2736:2741   */\n      dup2\n        /* \"#utility.yul\":2718:2742   */\n      tag_118\n      jump\t// in\n    tag_117:\n        /* \"#utility.yul\":2713:2716   */\n      dup3\n        /* \"#utility.yul\":2706:2743   */\n      mstore\n        /* \"#utility.yul\":2696:2749   */\n      pop\n      pop\n      jump\t// out\n        /* \"#utility.yul\":2755:2977   */\n    tag_22:\n        /* \"#utility.yul\":2848:2852   */\n      0x00\n        /* \"#utility.yul\":2886:2888   */\n      0x20\n        /* \"#utility.yul\":2875:2884   */\n      dup3\n        /* \"#utility.yul\":2871:2889   */\n      add\n        /* \"#utility.yul\":2863:2889   */\n      swap1\n      pop\n        /* \"#utility.yul\":2899:2970   */\n      tag_120\n        /* \"#utility.yul\":2967:2968   */\n      0x00\n        /* \"#utility.yul\":2956:2965   */\n      dup4\n        /* \"#utility.yul\":2952:2969   */\n      add\n        /* \"#utility.yul\":2943:2949   */\n      dup5\n        /* \"#utility.yul\":2899:2970   */\n      tag_115\n      jump\t// in\n    tag_120:\n        /* \"#utility.yul\":2853:2977   */\n      swap3\n      swap2\n      pop\n      pop\n      jump\t// out\n        /* \"#utility.yul\":2983:3607   */\n    tag_13:\n        /* \"#utility.yul\":3172:3176   */\n      0x00\n        /* \"#utility.yul\":3210:3212   */\n      0x60\n        /* \"#utility.yul\":3199:3208   */\n      dup3\n        /* \"#utility.yul\":3195:3213   */\n      add\n        /* \"#utility.yul\":3187:3213   */\n      swap1\n      pop\n        /* \"#utility.yul\":3223:3294   */\n      tag_122\n        /* \"#utility.yul\":3291:3292   */\n      0x00\n        /* \"#utility.yul\":3280:3289   */\n      dup4\n        /* \"#utility.yul\":3276:3293   */\n      add\n        /* \"#utility.yul\":3267:3273   */\n      dup7\n        /* \"#utility.yul\":3223:3294   */\n      tag_115\n      jump\t// in\n    tag_122:\n        /* \"#utility.yul\":3341:3350   */\n      dup2\n        /* \"#utility.yul\":3335:3339   */\n      dup2\n        /* \"#utility.yul\":3331:3351   */\n      sub\n        /* \"#utility.yul\":3326:3328   */\n      0x20\n        /* \"#utility.yul\":3315:3324   */\n      dup4\n        /* \"#utility.yul\":3311:3329   */\n      add\n        /* \"#utility.yul\":3304:3352   */\n      mstore\n        /* \"#utility.yul\":3369:3447   */\n      tag_123\n        /* \"#utility.yul\":3442:3446   */\n      dup2\n        /* \"#utility.yul\":3433:3439   */\n      dup6\n        /* \"#utility.yul\":3369:3447   */\n      tag_105\n      jump\t// in\n    tag_123:\n        /* \"#utility.yul\":3361:3447   */\n      swap1\n      pop\n        /* \"#utility.yul\":3494:3503   */\n      dup2\n        /* \"#utility.yul\":3488:3492   */\n      dup2\n        /* \"#utility.yul\":3484:3504   */\n      sub\n        /* \"#utility.yul\":3479:3481   */\n      0x40\n        /* \"#utility.yul\":3468:3477   */\n      dup4\n        /* \"#utility.yul\":3464:3482   */\n      add\n        /* \"#utility.yul\":3457:3505   */\n      mstore\n        /* \"#utility.yul\":3522:3600   */\n      tag_124\n        /* \"#utility.yul\":3595:3599   */\n      dup2\n        /* \"#utility.yul\":3586:3592   */\n      dup5\n        /* \"#utility.yul\":3522:3600   */\n      tag_105\n      jump\t// in\n    tag_124:\n        /* \"#utility.yul\":3514:3600   */\n      swap1\n      pop\n        /* \"#utility.yul\":3177:3607   */\n      swap5\n      swap4\n      pop\n      pop\n      pop\n      pop\n      jump\t// out\n        /* \"#utility.yul\":3613:3742   */\n    tag_76:\n        /* \"#utility.yul\":3647:3653   */\n      0x00\n        /* \"#utility.yul\":3674:3694   */\n      tag_126\n      tag_127\n      jump\t// in\n    tag_126:\n        /* \"#utility.yul\":3664:3694   */\n      swap1\n      pop\n        /* \"#utility.yul\":3703:3736   */\n      tag_128\n        /* \"#utility.yul\":3731:3735   */\n      dup3\n        /* \"#utility.yul\":3723:3729   */\n      dup3\n        /* \"#utility.yul\":3703:3736   */\n      tag_129\n      jump\t// in\n    tag_128:\n        /* \"#utility.yul\":3654:3742   */\n      swap2\n      swap1\n      pop\n      jump\t// out\n        /* \"#utility.yul\":3748:3823   */\n    tag_127:\n        /* \"#utility.yul\":3781:3787   */\n      0x00\n        /* \"#utility.yul\":3814:3816   */\n      0x40\n        /* \"#utility.yul\":3808:3817   */\n      mload\n        /* \"#utility.yul\":3798:3817   */\n      swap1\n      pop\n        /* \"#utility.yul\":3788:3823   */\n      swap1\n      jump\t// out\n        /* \"#utility.yul\":3829:4137   */\n    tag_75:\n        /* \"#utility.yul\":3891:3895   */\n      0x00\n        /* \"#utility.yul\":3981:3999   */\n      0xffffffffffffffff\n        /* \"#utility.yul\":3973:3979   */\n      dup3\n        /* \"#utility.yul\":3970:4000   */\n      gt\n        /* \"#utility.yul\":3967:3969   */\n      iszero\n      tag_132\n      jumpi\n        /* \"#utility.yul\":4003:4021   */\n      tag_133\n      tag_134\n      jump\t// in\n    tag_133:\n        /* \"#utility.yul\":3967:3969   */\n    tag_132:\n        /* \"#utility.yul\":4041:4070   */\n      tag_135\n        /* \"#utility.yul\":4063:4069   */\n      dup3\n        /* \"#utility.yul\":4041:4070   */\n      tag_114\n      jump\t// in\n    tag_135:\n        /* \"#utility.yul\":4033:4070   */\n      swap1\n      pop\n        /* \"#utility.yul\":4125:4129   */\n      0x20\n        /* \"#utility.yul\":4119:4123   */\n      dup2\n        /* \"#utility.yul\":4115:4130   */\n      add\n        /* \"#utility.yul\":4107:4130   */\n      swap1\n      pop\n        /* \"#utility.yul\":3896:4137   */\n      swap2\n      swap1\n      pop\n      jump\t// out\n        /* \"#utility.yul\":4143:4242   */\n    tag_108:\n        /* \"#utility.yul\":4195:4201   */\n      0x00\n        /* \"#utility.yul\":4229:4234   */\n      dup2\n        /* \"#utility.yul\":4223:4235   */\n      mload\n        /* \"#utility.yul\":4213:4235   */\n      swap1\n      pop\n        /* \"#utility.yul\":4202:4242   */\n      swap2\n      swap1\n      pop\n      jump\t// out\n        /* \"#utility.yul\":4248:4417   */\n    tag_110:\n        /* \"#utility.yul\":4332:4343   */\n      0x00\n        /* \"#utility.yul\":4366:4372   */\n      dup3\n        /* \"#utility.yul\":4361:4364   */\n      dup3\n        /* \"#utility.yul\":4354:4373   */\n      mstore\n        /* \"#utility.yul\":4406:4410   */\n      0x20\n        /* \"#utility.yul\":4401:4404   */\n      dup3\n        /* \"#utility.yul\":4397:4411   */\n      add\n        /* \"#utility.yul\":4382:4411   */\n      swap1\n      pop\n        /* \"#utility.yul\":4344:4417   */\n      swap3\n      swap2\n      pop\n      pop\n      jump\t// out\n        /* \"#utility.yul\":4423:4519   */\n    tag_138:\n        /* \"#utility.yul\":4460:4467   */\n      0x00\n        /* \"#utility.yul\":4489:4513   */\n      tag_140\n        /* \"#utility.yul\":4507:4512   */\n      dup3\n        /* \"#utility.yul\":4489:4513   */\n      tag_141\n      jump\t// in\n    tag_140:\n        /* \"#utility.yul\":4478:4513   */\n      swap1\n      pop\n        /* \"#utility.yul\":4468:4519   */\n      swap2\n      swap1\n      pop\n      jump\t// out\n        /* \"#utility.yul\":4525:4651   */\n    tag_141:\n        /* \"#utility.yul\":4562:4569   */\n      0x00\n        /* \"#utility.yul\":4602:4644   */\n      0xffffffffffffffffffffffffffffffffffffffff\n        /* \"#utility.yul\":4595:4600   */\n      dup3\n        /* \"#utility.yul\":4591:4645   */\n      and\n        /* \"#utility.yul\":4580:4645   */\n      swap1\n      pop\n        /* \"#utility.yul\":4570:4651   */\n      swap2\n      swap1\n      pop\n      jump\t// out\n        /* \"#utility.yul\":4657:4734   */\n    tag_118:\n        /* \"#utility.yul\":4694:4701   */\n      0x00\n        /* \"#utility.yul\":4723:4728   */\n      dup2\n        /* \"#utility.yul\":4712:4728   */\n      swap1\n      pop\n        /* \"#utility.yul\":4702:4734   */\n      swap2\n      swap1\n      pop\n      jump\t// out\n        /* \"#utility.yul\":4740:4894   */\n    tag_79:\n        /* \"#utility.yul\":4824:4830   */\n      dup3\n        /* \"#utility.yul\":4819:4822   */\n      dup2\n        /* \"#utility.yul\":4814:4817   */\n      dup4\n        /* \"#utility.yul\":4801:4831   */\n      calldatacopy\n        /* \"#utility.yul\":4886:4887   */\n      0x00\n        /* \"#utility.yul\":4877:4883   */\n      dup4\n        /* \"#utility.yul\":4872:4875   */\n      dup4\n        /* \"#utility.yul\":4868:4884   */\n      add\n        /* \"#utility.yul\":4861:4888   */\n      mstore\n        /* \"#utility.yul\":4791:4894   */\n      pop\n      pop\n      pop\n      jump\t// out\n        /* \"#utility.yul\":4900:5207   */\n    tag_112:\n        /* \"#utility.yul\":4968:4969   */\n      0x00\n        /* \"#utility.yul\":4978:5091   */\n    tag_146:\n        /* \"#utility.yul\":4992:4998   */\n      dup4\n        /* \"#utility.yul\":4989:4990   */\n      dup2\n        /* \"#utility.yul\":4986:4999   */\n      lt\n        /* \"#utility.yul\":4978:5091   */\n      iszero\n      tag_148\n      jumpi\n        /* \"#utility.yul\":5077:5078   */\n      dup1\n        /* \"#utility.yul\":5072:5075   */\n      dup3\n        /* \"#utility.yul\":5068:5079   */\n      add\n        /* \"#utility.yul\":5062:5080   */\n      mload\n        /* \"#utility.yul\":5058:5059   */\n      dup2\n        /* \"#utility.yul\":5053:5056   */\n      dup5\n        /* \"#utility.yul\":5049:5060   */\n      add\n        /* \"#utility.yul\":5042:5081   */\n      mstore\n        /* \"#utility.yul\":5014:5016   */\n      0x20\n        /* \"#utility.yul\":5011:5012   */\n      dup2\n        /* \"#utility.yul\":5007:5017   */\n      add\n        /* \"#utility.yul\":5002:5017   */\n      swap1\n      pop\n        /* \"#utility.yul\":4978:5091   */\n      jump(tag_146)\n    tag_148:\n        /* \"#utility.yul\":5109:5115   */\n      dup4\n        /* \"#utility.yul\":5106:5107   */\n      dup2\n        /* \"#utility.yul\":5103:5116   */\n      gt\n        /* \"#utility.yul\":5100:5102   */\n      iszero\n      tag_149\n      jumpi\n        /* \"#utility.yul\":5189:5190   */\n      0x00\n        /* \"#utility.yul\":5180:5186   */\n      dup5\n        /* \"#utility.yul\":5175:5178   */\n      dup5\n        /* \"#utility.yul\":5171:5187   */\n      add\n        /* \"#utility.yul\":5164:5191   */\n      mstore\n        /* \"#utility.yul\":5100:5102   */\n    tag_149:\n        /* \"#utility.yul\":4949:5207   */\n      pop\n      pop\n      pop\n      pop\n      jump\t// out\n        /* \"#utility.yul\":5213:5533   */\n    tag_32:\n        /* \"#utility.yul\":5257:5263   */\n      0x00\n        /* \"#utility.yul\":5294:5295   */\n      0x02\n        /* \"#utility.yul\":5288:5292   */\n      dup3\n        /* \"#utility.yul\":5284:5296   */\n      div\n        /* \"#utility.yul\":5274:5296   */\n      swap1\n      pop\n        /* \"#utility.yul\":5341:5342   */\n      0x01\n        /* \"#utility.yul\":5335:5339   */\n      dup3\n        /* \"#utility.yul\":5331:5343   */\n      and\n        /* \"#utility.yul\":5362:5380   */\n      dup1\n        /* \"#utility.yul\":5352:5354   */\n      tag_151\n      jumpi\n        /* \"#utility.yul\":5418:5422   */\n      0x7f\n        /* \"#utility.yul\":5410:5416   */\n      dup3\n        /* \"#utility.yul\":5406:5423   */\n      and\n        /* \"#utility.yul\":5396:5423   */\n      swap2\n      pop\n        /* \"#utility.yul\":5352:5354   */\n    tag_151:\n        /* \"#utility.yul\":5480:5482   */\n      0x20\n        /* \"#utility.yul\":5472:5478   */\n      dup3\n        /* \"#utility.yul\":5469:5483   */\n      lt\n        /* \"#utility.yul\":5449:5467   */\n      dup2\n        /* \"#utility.yul\":5446:5484   */\n      eq\n        /* \"#utility.yul\":5443:5445   */\n      iszero\n      tag_152\n      jumpi\n        /* \"#utility.yul\":5499:5517   */\n      tag_153\n      tag_154\n      jump\t// in\n    tag_153:\n        /* \"#utility.yul\":5443:5445   */\n    tag_152:\n        /* \"#utility.yul\":5264:5533   */\n      pop\n      swap2\n      swap1\n      pop\n      jump\t// out\n        /* \"#utility.yul\":5539:5820   */\n    tag_129:\n        /* \"#utility.yul\":5622:5649   */\n      tag_156\n        /* \"#utility.yul\":5644:5648   */\n      dup3\n        /* \"#utility.yul\":5622:5649   */\n      tag_114\n      jump\t// in\n    tag_156:\n        /* \"#utility.yul\":5614:5620   */\n      dup2\n        /* \"#utility.yul\":5610:5650   */\n      add\n        /* \"#utility.yul\":5752:5758   */\n      dup2\n        /* \"#utility.yul\":5740:5750   */\n      dup2\n        /* \"#utility.yul\":5737:5759   */\n      lt\n        /* \"#utility.yul\":5716:5734   */\n      0xffffffffffffffff\n        /* \"#utility.yul\":5704:5714   */\n      dup3\n        /* \"#utility.yul\":5701:5735   */\n      gt\n        /* \"#utility.yul\":5698:5760   */\n      or\n        /* \"#utility.yul\":5695:5697   */\n      iszero\n      tag_157\n      jumpi\n        /* \"#utility.yul\":5763:5781   */\n      tag_158\n      tag_134\n      jump\t// in\n    tag_158:\n        /* \"#utility.yul\":5695:5697   */\n    tag_157:\n        /* \"#utility.yul\":5803:5813   */\n      dup1\n        /* \"#utility.yul\":5799:5801   */\n      0x40\n        /* \"#utility.yul\":5792:5814   */\n      mstore\n        /* \"#utility.yul\":5582:5820   */\n      pop\n      pop\n      pop\n      jump\t// out\n        /* \"#utility.yul\":5826:6006   */\n    tag_154:\n        /* \"#utility.yul\":5874:5951   */\n      0x4e487b7100000000000000000000000000000000000000000000000000000000\n        /* \"#utility.yul\":5871:5872   */\n      0x00\n        /* \"#utility.yul\":5864:5952   */\n      mstore\n        /* \"#utility.yul\":5971:5975   */\n      0x22\n        /* \"#utility.yul\":5968:5969   */\n      0x04\n        /* \"#utility.yul\":5961:5976   */\n      mstore\n        /* \"#utility.yul\":5995:5999   */\n      0x24\n        /* \"#utility.yul\":5992:5993   */\n      0x00\n        /* \"#utility.yul\":5985:6000   */\n      revert\n        /* \"#utility.yul\":6012:6192   */\n    tag_134:\n        /* \"#utility.yul\":6060:6137   */\n      0x4e487b7100000000000000000000000000000000000000000000000000000000\n        /* \"#utility.yul\":6057:6058   */\n      0x00\n        /* \"#utility.yul\":6050:6138   */\n      mstore\n        /* \"#utility.yul\":6157:6161   */\n      0x41\n        /* \"#utility.yul\":6154:6155   */\n      0x04\n        /* \"#utility.yul\":6147:6162   */\n      mstore\n        /* \"#utility.yul\":6181:6185   */\n      0x24\n        /* \"#utility.yul\":6178:6179   */\n      0x00\n        /* \"#utility.yul\":6171:6186   */\n      revert\n        /* \"#utility.yul\":6198:6300   */\n    tag_114:\n        /* \"#utility.yul\":6239:6245   */\n      0x00\n        /* \"#utility.yul\":6290:6292   */\n      0x1f\n        /* \"#utility.yul\":6286:6293   */\n      not\n        /* \"#utility.yul\":6281:6283   */\n      0x1f\n        /* \"#utility.yul\":6274:6279   */\n      dup4\n        /* \"#utility.yul\":6270:6284   */\n      add\n        /* \"#utility.yul\":6266:6294   */\n      and\n        /* \"#utility.yul\":6256:6294   */\n      swap1\n      pop\n        /* \"#utility.yul\":6246:6300   */\n      swap2\n      swap1\n      pop\n      jump\t// out\n        /* \"#utility.yul\":6306:6428   */\n    tag_83:\n        /* \"#utility.yul\":6379:6403   */\n      tag_163\n        /* \"#utility.yul\":6397:6402   */\n      dup2\n        /* \"#utility.yul\":6379:6403   */\n      tag_138\n      jump\t// in\n    tag_163:\n        /* \"#utility.yul\":6372:6377   */\n      dup2\n        /* \"#utility.yul\":6369:6404   */\n      eq\n        /* \"#utility.yul\":6359:6361   */\n      tag_164\n      jumpi\n        /* \"#utility.yul\":6418:6419   */\n      0x00\n        /* \"#utility.yul\":6415:6416   */\n      dup1\n        /* \"#utility.yul\":6408:6420   */\n      revert\n        /* \"#utility.yul\":6359:6361   */\n    tag_164:\n        /* \"#utility.yul\":6349:6428   */\n      pop\n      jump\t// out\n        /* \"#utility.yul\":6434:6556   */\n    tag_91:\n        /* \"#utility.yul\":6507:6531   */\n      tag_166\n        /* \"#utility.yul\":6525:6530   */\n      dup2\n        /* \"#utility.yul\":6507:6531   */\n      tag_118\n      jump\t// in\n    tag_166:\n        /* \"#utility.yul\":6500:6505   */\n      dup2\n        /* \"#utility.yul\":6497:6532   */\n      eq\n        /* \"#utility.yul\":6487:6489   */\n      tag_167\n      jumpi\n        /* \"#utility.yul\":6546:6547   */\n      0x00\n        /* \"#utility.yul\":6543:6544   */\n      dup1\n        /* \"#utility.yul\":6536:6548   */\n      revert\n        /* \"#utility.yul\":6487:6489   */\n    tag_167:\n        /* \"#utility.yul\":6477:6556   */\n      pop\n      jump\t// out\n\n    auxdata: 0xa26469706673582212202da08defba03aea9223441913f60ebf34b5417a58a185f21455c9f010aaacc6564736f6c63430008040033\n}\n",
				"bytecode": {
					"linkReferences": {},
					"object": "60806040526040518060600160405280600181526020016040518060400160405280600781526020017f526f626572746f0000000000000000000000000000000000000000000000000081525081526020016040518060400160405280601381526020017f726f626572746f40726f626572746f2e636f6d0000000000000000000000000081525081525060008082015181600001556020820151816001019080519060200190620000b39291906200010f565b506040820151816002019080519060200190620000d29291906200010f565b5050506040518060200160405280600160ff168152506003906001620000fa929190620001a0565b503480156200010857600080fd5b506200026e565b8280546200011d9062000209565b90600052602060002090601f0160209004810192826200014157600085556200018d565b82601f106200015c57805160ff19168380011785556200018d565b828001600101855582156200018d579182015b828111156200018c5782518255916020019190600101906200016f565b5b5090506200019c9190620001ea565b5090565b8260048101928215620001d7579160200282015b82811115620001d6578251829060ff16905591602001919060010190620001b4565b5b509050620001e69190620001ea565b5090565b5b8082111562000205576000816000905550600101620001eb565b5090565b600060028204905060018216806200022257607f821691505b602082108114156200023957620002386200023f565b5b50919050565b7f4e487b7100000000000000000000000000000000000000000000000000000000600052602260045260246000fd5b610976806200027e6000396000f3fe608060405234801561001057600080fd5b50600436106100575760003560e01c80633cc1c50d1461005c57806360591cc01461008e57806389b08f11146100aa578063c0abda2a146100da578063e52b008f1461010c575b600080fd5b610076600480360381019061007191906105d7565b610128565b6040516100859392919061070b565b60405180910390f35b6100a860048036038101906100a39190610629565b610262565b005b6100c460048036038101906100bf91906105d7565b6102f9565b6040516100d191906106f0565b60405180910390f35b6100f460048036038101906100ef9190610600565b610311565b6040516101039392919061070b565b60405180910390f35b61012660048036038101906101219190610600565b61045b565b005b600960205280600052604060002060009150905080600001549080600101805461015190610840565b80601f016020809104026020016040519081016040528092919081815260200182805461017d90610840565b80156101ca5780601f1061019f576101008083540402835291602001916101ca565b820191906000526020600020905b8154815290600101906020018083116101ad57829003601f168201915b5050505050908060020180546101df90610840565b80601f016020809104026020016040519081016040528092919081815260200182805461020b90610840565b80156102585780601f1061022d57610100808354040283529160200191610258565b820191906000526020600020905b81548152906001019060200180831161023b57829003601f168201915b5050505050905083565b6000604051806060016040528085815260200184815260200183815250905060078190806001815401808255809150506001900390600052602060002090600302016000909190919091506000820151816000015560208201518160010190805190602001906102d39291906104a2565b5060408201518160020190805190602001906102f09291906104a2565b50505050505050565b60086020528060005260406000206000915090505481565b6007818154811061032157600080fd5b906000526020600020906003020160009150905080600001549080600101805461034a90610840565b80601f016020809104026020016040519081016040528092919081815260200182805461037690610840565b80156103c35780601f10610398576101008083540402835291602001916103c3565b820191906000526020600020905b8154815290600101906020018083116103a657829003601f168201915b5050505050908060020180546103d890610840565b80601f016020809104026020016040519081016040528092919081815260200182805461040490610840565b80156104515780601f1061042657610100808354040283529160200191610451565b820191906000526020600020905b81548152906001019060200180831161043457829003601f168201915b5050505050905083565b80600860003373ffffffffffffffffffffffffffffffffffffffff1673ffffffffffffffffffffffffffffffffffffffff1681526020019081526020016000208190555050565b8280546104ae90610840565b90600052602060002090601f0160209004810192826104d05760008555610517565b82601f106104e957805160ff1916838001178555610517565b82800160010185558215610517579182015b828111156105165782518255916020019190600101906104fb565b5b5090506105249190610528565b5090565b5b80821115610541576000816000905550600101610529565b5090565b600061055861055384610775565b610750565b90508281526020810184848401111561057057600080fd5b61057b8482856107fe565b509392505050565b60008135905061059281610912565b92915050565b600082601f8301126105a957600080fd5b81356105b9848260208601610545565b91505092915050565b6000813590506105d181610929565b92915050565b6000602082840312156105e957600080fd5b60006105f784828501610583565b91505092915050565b60006020828403121561061257600080fd5b6000610620848285016105c2565b91505092915050565b60008060006060848603121561063e57600080fd5b600061064c868287016105c2565b935050602084013567ffffffffffffffff81111561066957600080fd5b61067586828701610598565b925050604084013567ffffffffffffffff81111561069257600080fd5b61069e86828701610598565b9150509250925092565b60006106b3826107a6565b6106bd81856107b1565b93506106cd81856020860161080d565b6106d681610901565b840191505092915050565b6106ea816107f4565b82525050565b600060208201905061070560008301846106e1565b92915050565b600060608201905061072060008301866106e1565b818103602083015261073281856106a8565b9050818103604083015261074681846106a8565b9050949350505050565b600061075a61076b565b90506107668282610872565b919050565b6000604051905090565b600067ffffffffffffffff8211156107905761078f6108d2565b5b61079982610901565b9050602081019050919050565b600081519050919050565b600082825260208201905092915050565b60006107cd826107d4565b9050919050565b600073ffffffffffffffffffffffffffffffffffffffff82169050919050565b6000819050919050565b82818337600083830152505050565b60005b8381101561082b578082015181840152602081019050610810565b8381111561083a576000848401525b50505050565b6000600282049050600182168061085857607f821691505b6020821081141561086c5761086b6108a3565b5b50919050565b61087b82610901565b810181811067ffffffffffffffff8211171561089a576108996108d2565b5b80604052505050565b7f4e487b7100000000000000000000000000000000000000000000000000000000600052602260045260246000fd5b7f4e487b7100000000000000000000000000000000000000000000000000000000600052604160045260246000fd5b6000601f19601f8301169050919050565b61091b816107c2565b811461092657600080fd5b50565b610932816107f4565b811461093d57600080fd5b5056fea26469706673582212202da08defba03aea9223441913f60ebf34b5417a58a185f21455c9f010aaacc6564736f6c63430008040033",
					"opcodes": "PUSH1 0x80 PUSH1 0x40 MSTORE PUSH1 0x40 MLOAD DUP1 PUSH1 0x60 ADD PUSH1 0x40 MSTORE DUP1 PUSH1 0x1 DUP2 MSTORE PUSH1 0x20 ADD PUSH1 0x40 MLOAD DUP1 PUSH1 0x40 ADD PUSH1 0x40 MSTORE DUP1 PUSH1 0x7 DUP2 MSTORE PUSH1 0x20 ADD PUSH32 0x526F626572746F00000000000000000000000000000000000000000000000000 DUP2 MSTORE POP DUP2 MSTORE PUSH1 0x20 ADD PUSH1 0x40 MLOAD DUP1 PUSH1 0x40 ADD PUSH1 0x40 MSTORE DUP1 PUSH1 0x13 DUP2 MSTORE PUSH1 0x20 ADD PUSH32 0x726F626572746F40726F626572746F2E636F6D00000000000000000000000000 DUP2 MSTORE POP DUP2 MSTORE POP PUSH1 0x0 DUP1 DUP3 ADD MLOAD DUP2 PUSH1 0x0 ADD SSTORE PUSH1 0x20 DUP3 ADD MLOAD DUP2 PUSH1 0x1 ADD SWAP1 DUP1 MLOAD SWAP1 PUSH1 0x20 ADD SWAP1 PUSH3 0xB3 SWAP3 SWAP2 SWAP1 PUSH3 0x10F JUMP JUMPDEST POP PUSH1 0x40 DUP3 ADD MLOAD DUP2 PUSH1 0x2 ADD SWAP1 DUP1 MLOAD SWAP1 PUSH1 0x20 ADD SWAP1 PUSH3 0xD2 SWAP3 SWAP2 SWAP1 PUSH3 0x10F JUMP JUMPDEST POP POP POP PUSH1 0x40 MLOAD DUP1 PUSH1 0x20 ADD PUSH1 0x40 MSTORE DUP1 PUSH1 0x1 PUSH1 0xFF AND DUP2 MSTORE POP PUSH1 0x3 SWAP1 PUSH1 0x1 PUSH3 0xFA SWAP3 SWAP2 SWAP1 PUSH3 0x1A0 JUMP JUMPDEST POP CALLVALUE DUP1 ISZERO PUSH3 0x108 JUMPI PUSH1 0x0 DUP1 REVERT JUMPDEST POP PUSH3 0x26E JUMP JUMPDEST DUP3 DUP1 SLOAD PUSH3 0x11D SWAP1 PUSH3 0x209 JUMP JUMPDEST SWAP1 PUSH1 0x0 MSTORE PUSH1 0x20 PUSH1 0x0 KECCAK256 SWAP1 PUSH1 0x1F ADD PUSH1 0x20 SWAP1 DIV DUP2 ADD SWAP3 DUP3 PUSH3 0x141 JUMPI PUSH1 0x0 DUP6 SSTORE PUSH3 0x18D JUMP JUMPDEST DUP3 PUSH1 0x1F LT PUSH3 0x15C JUMPI DUP1 MLOAD PUSH1 0xFF NOT AND DUP4 DUP1 ADD OR DUP6 SSTORE PUSH3 0x18D JUMP JUMPDEST DUP3 DUP1 ADD PUSH1 0x1 ADD DUP6 SSTORE DUP3 ISZERO PUSH3 0x18D JUMPI SWAP2 DUP3 ADD JUMPDEST DUP3 DUP2 GT ISZERO PUSH3 0x18C JUMPI DUP3 MLOAD DUP3 SSTORE SWAP2 PUSH1 0x20 ADD SWAP2 SWAP1 PUSH1 0x1 ADD SWAP1 PUSH3 0x16F JUMP JUMPDEST JUMPDEST POP SWAP1 POP PUSH3 0x19C SWAP2 SWAP1 PUSH3 0x1EA JUMP JUMPDEST POP SWAP1 JUMP JUMPDEST DUP3 PUSH1 0x4 DUP2 ADD SWAP3 DUP3 ISZERO PUSH3 0x1D7 JUMPI SWAP2 PUSH1 0x20 MUL DUP3 ADD JUMPDEST DUP3 DUP2 GT ISZERO PUSH3 0x1D6 JUMPI DUP3 MLOAD DUP3 SWAP1 PUSH1 0xFF AND SWAP1 SSTORE SWAP2 PUSH1 0x20 ADD SWAP2 SWAP1 PUSH1 0x1 ADD SWAP1 PUSH3 0x1B4 JUMP JUMPDEST JUMPDEST POP SWAP1 POP PUSH3 0x1E6 SWAP2 SWAP1 PUSH3 0x1EA JUMP JUMPDEST POP SWAP1 JUMP JUMPDEST JUMPDEST DUP1 DUP3 GT ISZERO PUSH3 0x205 JUMPI PUSH1 0x0 DUP2 PUSH1 0x0 SWAP1 SSTORE POP PUSH1 0x1 ADD PUSH3 0x1EB JUMP JUMPDEST POP SWAP1 JUMP JUMPDEST PUSH1 0x0 PUSH1 0x2 DUP3 DIV SWAP1 POP PUSH1 0x1 DUP3 AND DUP1 PUSH3 0x222 JUMPI PUSH1 0x7F DUP3 AND SWAP2 POP JUMPDEST PUSH1 0x20 DUP3 LT DUP2 EQ ISZERO PUSH3 0x239 JUMPI PUSH3 0x238 PUSH3 0x23F JUMP JUMPDEST JUMPDEST POP SWAP2 SWAP1 POP JUMP JUMPDEST PUSH32 0x4E487B7100000000000000000000000000000000000000000000000000000000 PUSH1 0x0 MSTORE PUSH1 0x22 PUSH1 0x4 MSTORE PUSH1 0x24 PUSH1 0x0 REVERT JUMPDEST PUSH2 0x976 DUP1 PUSH3 0x27E PUSH1 0x0 CODECOPY PUSH1 0x0 RETURN INVALID PUSH1 0x80 PUSH1 0x40 MSTORE CALLVALUE DUP1 ISZERO PUSH2 0x10 JUMPI PUSH1 0x0 DUP1 REVERT JUMPDEST POP PUSH1 0x4 CALLDATASIZE LT PUSH2 0x57 JUMPI PUSH1 0x0 CALLDATALOAD PUSH1 0xE0 SHR DUP1 PUSH4 0x3CC1C50D EQ PUSH2 0x5C JUMPI DUP1 PUSH4 0x60591CC0 EQ PUSH2 0x8E JUMPI DUP1 PUSH4 0x89B08F11 EQ PUSH2 0xAA JUMPI DUP1 PUSH4 0xC0ABDA2A EQ PUSH2 0xDA JUMPI DUP1 PUSH4 0xE52B008F EQ PUSH2 0x10C JUMPI JUMPDEST PUSH1 0x0 DUP1 REVERT JUMPDEST PUSH2 0x76 PUSH1 0x4 DUP1 CALLDATASIZE SUB DUP2 ADD SWAP1 PUSH2 0x71 SWAP2 SWAP1 PUSH2 0x5D7 JUMP JUMPDEST PUSH2 0x128 JUMP JUMPDEST PUSH1 0x40 MLOAD PUSH2 0x85 SWAP4 SWAP3 SWAP2 SWAP1 PUSH2 0x70B JUMP JUMPDEST PUSH1 0x40 MLOAD DUP1 SWAP2 SUB SWAP1 RETURN JUMPDEST PUSH2 0xA8 PUSH1 0x4 DUP1 CALLDATASIZE SUB DUP2 ADD SWAP1 PUSH2 0xA3 SWAP2 SWAP1 PUSH2 0x629 JUMP JUMPDEST PUSH2 0x262 JUMP JUMPDEST STOP JUMPDEST PUSH2 0xC4 PUSH1 0x4 DUP1 CALLDATASIZE SUB DUP2 ADD SWAP1 PUSH2 0xBF SWAP2 SWAP1 PUSH2 0x5D7 JUMP JUMPDEST PUSH2 0x2F9 JUMP JUMPDEST PUSH1 0x40 MLOAD PUSH2 0xD1 SWAP2 SWAP1 PUSH2 0x6F0 JUMP JUMPDEST PUSH1 0x40 MLOAD DUP1 SWAP2 SUB SWAP1 RETURN JUMPDEST PUSH2 0xF4 PUSH1 0x4 DUP1 CALLDATASIZE SUB DUP2 ADD SWAP1 PUSH2 0xEF SWAP2 SWAP1 PUSH2 0x600 JUMP JUMPDEST PUSH2 0x311 JUMP JUMPDEST PUSH1 0x40 MLOAD PUSH2 0x103 SWAP4 SWAP3 SWAP2 SWAP1 PUSH2 0x70B JUMP JUMPDEST PUSH1 0x40 MLOAD DUP1 SWAP2 SUB SWAP1 RETURN JUMPDEST PUSH2 0x126 PUSH1 0x4 DUP1 CALLDATASIZE SUB DUP2 ADD SWAP1 PUSH2 0x121 SWAP2 SWAP1 PUSH2 0x600 JUMP JUMPDEST PUSH2 0x45B JUMP JUMPDEST STOP JUMPDEST PUSH1 0x9 PUSH1 0x20 MSTORE DUP1 PUSH1 0x0 MSTORE PUSH1 0x40 PUSH1 0x0 KECCAK256 PUSH1 0x0 SWAP2 POP SWAP1 POP DUP1 PUSH1 0x0 ADD SLOAD SWAP1 DUP1 PUSH1 0x1 ADD DUP1 SLOAD PUSH2 0x151 SWAP1 PUSH2 0x840 JUMP JUMPDEST DUP1 PUSH1 0x1F ADD PUSH1 0x20 DUP1 SWAP2 DIV MUL PUSH1 0x20 ADD PUSH1 0x40 MLOAD SWAP1 DUP2 ADD PUSH1 0x40 MSTORE DUP1 SWAP3 SWAP2 SWAP1 DUP2 DUP2 MSTORE PUSH1 0x20 ADD DUP3 DUP1 SLOAD PUSH2 0x17D SWAP1 PUSH2 0x840 JUMP JUMPDEST DUP1 ISZERO PUSH2 0x1CA JUMPI DUP1 PUSH1 0x1F LT PUSH2 0x19F JUMPI PUSH2 0x100 DUP1 DUP4 SLOAD DIV MUL DUP4 MSTORE SWAP2 PUSH1 0x20 ADD SWAP2 PUSH2 0x1CA JUMP JUMPDEST DUP3 ADD SWAP2 SWAP1 PUSH1 0x0 MSTORE PUSH1 0x20 PUSH1 0x0 KECCAK256 SWAP1 JUMPDEST DUP2 SLOAD DUP2 MSTORE SWAP1 PUSH1 0x1 ADD SWAP1 PUSH1 0x20 ADD DUP1 DUP4 GT PUSH2 0x1AD JUMPI DUP3 SWAP1 SUB PUSH1 0x1F AND DUP3 ADD SWAP2 JUMPDEST POP POP POP POP POP SWAP1 DUP1 PUSH1 0x2 ADD DUP1 SLOAD PUSH2 0x1DF SWAP1 PUSH2 0x840 JUMP JUMPDEST DUP1 PUSH1 0x1F ADD PUSH1 0x20 DUP1 SWAP2 DIV MUL PUSH1 0x20 ADD PUSH1 0x40 MLOAD SWAP1 DUP2 ADD PUSH1 0x40 MSTORE DUP1 SWAP3 SWAP2 SWAP1 DUP2 DUP2 MSTORE PUSH1 0x20 ADD DUP3 DUP1 SLOAD PUSH2 0x20B SWAP1 PUSH2 0x840 JUMP JUMPDEST DUP1 ISZERO PUSH2 0x258 JUMPI DUP1 PUSH1 0x1F LT PUSH2 0x22D JUMPI PUSH2 0x100 DUP1 DUP4 SLOAD DIV MUL DUP4 MSTORE SWAP2 PUSH1 0x20 ADD SWAP2 PUSH2 0x258 JUMP JUMPDEST DUP3 ADD SWAP2 SWAP1 PUSH1 0x0 MSTORE PUSH1 0x20 PUSH1 0x0 KECCAK256 SWAP1 JUMPDEST DUP2 SLOAD DUP2 MSTORE SWAP1 PUSH1 0x1 ADD SWAP1 PUSH1 0x20 ADD DUP1 DUP4 GT PUSH2 0x23B JUMPI DUP3 SWAP1 SUB PUSH1 0x1F AND DUP3 ADD SWAP2 JUMPDEST POP POP POP POP POP SWAP1 POP DUP4 JUMP JUMPDEST PUSH1 0x0 PUSH1 0x40 MLOAD DUP1 PUSH1 0x60 ADD PUSH1 0x40 MSTORE DUP1 DUP6 DUP2 MSTORE PUSH1 0x20 ADD DUP5 DUP2 MSTORE PUSH1 0x20 ADD DUP4 DUP2 MSTORE POP SWAP1 POP PUSH1 0x7 DUP2 SWAP1 DUP1 PUSH1 0x1 DUP2 SLOAD ADD DUP1 DUP3 SSTORE DUP1 SWAP2 POP POP PUSH1 0x1 SWAP1 SUB SWAP1 PUSH1 0x0 MSTORE PUSH1 0x20 PUSH1 0x0 KECCAK256 SWAP1 PUSH1 0x3 MUL ADD PUSH1 0x0 SWAP1 SWAP2 SWAP1 SWAP2 SWAP1 SWAP2 POP PUSH1 0x0 DUP3 ADD MLOAD DUP2 PUSH1 0x0 ADD SSTORE PUSH1 0x20 DUP3 ADD MLOAD DUP2 PUSH1 0x1 ADD SWAP1 DUP1 MLOAD SWAP1 PUSH1 0x20 ADD SWAP1 PUSH2 0x2D3 SWAP3 SWAP2 SWAP1 PUSH2 0x4A2 JUMP JUMPDEST POP PUSH1 0x40 DUP3 ADD MLOAD DUP2 PUSH1 0x2 ADD SWAP1 DUP1 MLOAD SWAP1 PUSH1 0x20 ADD SWAP1 PUSH2 0x2F0 SWAP3 SWAP2 SWAP1 PUSH2 0x4A2 JUMP JUMPDEST POP POP POP POP POP POP POP JUMP JUMPDEST PUSH1 0x8 PUSH1 0x20 MSTORE DUP1 PUSH1 0x0 MSTORE PUSH1 0x40 PUSH1 0x0 KECCAK256 PUSH1 0x0 SWAP2 POP SWAP1 POP SLOAD DUP2 JUMP JUMPDEST PUSH1 0x7 DUP2 DUP2 SLOAD DUP2 LT PUSH2 0x321 JUMPI PUSH1 0x0 DUP1 REVERT JUMPDEST SWAP1 PUSH1 0x0 MSTORE PUSH1 0x20 PUSH1 0x0 KECCAK256 SWAP1 PUSH1 0x3 MUL ADD PUSH1 0x0 SWAP2 POP SWAP1 POP DUP1 PUSH1 0x0 ADD SLOAD SWAP1 DUP1 PUSH1 0x1 ADD DUP1 SLOAD PUSH2 0x34A SWAP1 PUSH2 0x840 JUMP JUMPDEST DUP1 PUSH1 0x1F ADD PUSH1 0x20 DUP1 SWAP2 DIV MUL PUSH1 0x20 ADD PUSH1 0x40 MLOAD SWAP1 DUP2 ADD PUSH1 0x40 MSTORE DUP1 SWAP3 SWAP2 SWAP1 DUP2 DUP2 MSTORE PUSH1 0x20 ADD DUP3 DUP1 SLOAD PUSH2 0x376 SWAP1 PUSH2 0x840 JUMP JUMPDEST DUP1 ISZERO PUSH2 0x3C3 JUMPI DUP1 PUSH1 0x1F LT PUSH2 0x398 JUMPI PUSH2 0x100 DUP1 DUP4 SLOAD DIV MUL DUP4 MSTORE SWAP2 PUSH1 0x20 ADD SWAP2 PUSH2 0x3C3 JUMP JUMPDEST DUP3 ADD SWAP2 SWAP1 PUSH1 0x0 MSTORE PUSH1 0x20 PUSH1 0x0 KECCAK256 SWAP1 JUMPDEST DUP2 SLOAD DUP2 MSTORE SWAP1 PUSH1 0x1 ADD SWAP1 PUSH1 0x20 ADD DUP1 DUP4 GT PUSH2 0x3A6 JUMPI DUP3 SWAP1 SUB PUSH1 0x1F AND DUP3 ADD SWAP2 JUMPDEST POP POP POP POP POP SWAP1 DUP1 PUSH1 0x2 ADD DUP1 SLOAD PUSH2 0x3D8 SWAP1 PUSH2 0x840 JUMP JUMPDEST DUP1 PUSH1 0x1F ADD PUSH1 0x20 DUP1 SWAP2 DIV MUL PUSH1 0x20 ADD PUSH1 0x40 MLOAD SWAP1 DUP2 ADD PUSH1 0x40 MSTORE DUP1 SWAP3 SWAP2 SWAP1 DUP2 DUP2 MSTORE PUSH1 0x20 ADD DUP3 DUP1 SLOAD PUSH2 0x404 SWAP1 PUSH2 0x840 JUMP JUMPDEST DUP1 ISZERO PUSH2 0x451 JUMPI DUP1 PUSH1 0x1F LT PUSH2 0x426 JUMPI PUSH2 0x100 DUP1 DUP4 SLOAD DIV MUL DUP4 MSTORE SWAP2 PUSH1 0x20 ADD SWAP2 PUSH2 0x451 JUMP JUMPDEST DUP3 ADD SWAP2 SWAP1 PUSH1 0x0 MSTORE PUSH1 0x20 PUSH1 0x0 KECCAK256 SWAP1 JUMPDEST DUP2 SLOAD DUP2 MSTORE SWAP1 PUSH1 0x1 ADD SWAP1 PUSH1 0x20 ADD DUP1 DUP4 GT PUSH2 0x434 JUMPI DUP3 SWAP1 SUB PUSH1 0x1F AND DUP3 ADD SWAP2 JUMPDEST POP POP POP POP POP SWAP1 POP DUP4 JUMP JUMPDEST DUP1 PUSH1 0x8 PUSH1 0x0 CALLER PUSH20 0xFFFFFFFFFFFFFFFFFFFFFFFFFFFFFFFFFFFFFFFF AND PUSH20 0xFFFFFFFFFFFFFFFFFFFFFFFFFFFFFFFFFFFFFFFF AND DUP2 MSTORE PUSH1 0x20 ADD SWAP1 DUP2 MSTORE PUSH1 0x20 ADD PUSH1 0x0 KECCAK256 DUP2 SWAP1 SSTORE POP POP JUMP JUMPDEST DUP3 DUP1 SLOAD PUSH2 0x4AE SWAP1 PUSH2 0x840 JUMP JUMPDEST SWAP1 PUSH1 0x0 MSTORE PUSH1 0x20 PUSH1 0x0 KECCAK256 SWAP1 PUSH1 0x1F ADD PUSH1 0x20 SWAP1 DIV DUP2 ADD SWAP3 DUP3 PUSH2 0x4D0 JUMPI PUSH1 0x0 DUP6 SSTORE PUSH2 0x517 JUMP JUMPDEST DUP3 PUSH1 0x1F LT PUSH2 0x4E9 JUMPI DUP1 MLOAD PUSH1 0xFF NOT AND DUP4 DUP1 ADD OR DUP6 SSTORE PUSH2 0x517 JUMP JUMPDEST DUP3 DUP1 ADD PUSH1 0x1 ADD DUP6 SSTORE DUP3 ISZERO PUSH2 0x517 JUMPI SWAP2 DUP3 ADD JUMPDEST DUP3 DUP2 GT ISZERO PUSH2 0x516 JUMPI DUP3 MLOAD DUP3 SSTORE SWAP2 PUSH1 0x20 ADD SWAP2 SWAP1 PUSH1 0x1 ADD SWAP1 PUSH2 0x4FB JUMP JUMPDEST JUMPDEST POP SWAP1 POP PUSH2 0x524 SWAP2 SWAP1 PUSH2 0x528 JUMP JUMPDEST POP SWAP1 JUMP JUMPDEST JUMPDEST DUP1 DUP3 GT ISZERO PUSH2 0x541 JUMPI PUSH1 0x0 DUP2 PUSH1 0x0 SWAP1 SSTORE POP PUSH1 0x1 ADD PUSH2 0x529 JUMP JUMPDEST POP SWAP1 JUMP JUMPDEST PUSH1 0x0 PUSH2 0x558 PUSH2 0x553 DUP5 PUSH2 0x775 JUMP JUMPDEST PUSH2 0x750 JUMP JUMPDEST SWAP1 POP DUP3 DUP2 MSTORE PUSH1 0x20 DUP2 ADD DUP5 DUP5 DUP5 ADD GT ISZERO PUSH2 0x570 JUMPI PUSH1 0x0 DUP1 REVERT JUMPDEST PUSH2 0x57B DUP5 DUP3 DUP6 PUSH2 0x7FE JUMP JUMPDEST POP SWAP4 SWAP3 POP POP POP JUMP JUMPDEST PUSH1 0x0 DUP2 CALLDATALOAD SWAP1 POP PUSH2 0x592 DUP2 PUSH2 0x912 JUMP JUMPDEST SWAP3 SWAP2 POP POP JUMP JUMPDEST PUSH1 0x0 DUP3 PUSH1 0x1F DUP4 ADD SLT PUSH2 0x5A9 JUMPI PUSH1 0x0 DUP1 REVERT JUMPDEST DUP2 CALLDATALOAD PUSH2 0x5B9 DUP5 DUP3 PUSH1 0x20 DUP7 ADD PUSH2 0x545 JUMP JUMPDEST SWAP2 POP POP SWAP3 SWAP2 POP POP JUMP JUMPDEST PUSH1 0x0 DUP2 CALLDATALOAD SWAP1 POP PUSH2 0x5D1 DUP2 PUSH2 0x929 JUMP JUMPDEST SWAP3 SWAP2 POP POP JUMP JUMPDEST PUSH1 0x0 PUSH1 0x20 DUP3 DUP5 SUB SLT ISZERO PUSH2 0x5E9 JUMPI PUSH1 0x0 DUP1 REVERT JUMPDEST PUSH1 0x0 PUSH2 0x5F7 DUP5 DUP3 DUP6 ADD PUSH2 0x583 JUMP JUMPDEST SWAP2 POP POP SWAP3 SWAP2 POP POP JUMP JUMPDEST PUSH1 0x0 PUSH1 0x20 DUP3 DUP5 SUB SLT ISZERO PUSH2 0x612 JUMPI PUSH1 0x0 DUP1 REVERT JUMPDEST PUSH1 0x0 PUSH2 0x620 DUP5 DUP3 DUP6 ADD PUSH2 0x5C2 JUMP JUMPDEST SWAP2 POP POP SWAP3 SWAP2 POP POP JUMP JUMPDEST PUSH1 0x0 DUP1 PUSH1 0x0 PUSH1 0x60 DUP5 DUP7 SUB SLT ISZERO PUSH2 0x63E JUMPI PUSH1 0x0 DUP1 REVERT JUMPDEST PUSH1 0x0 PUSH2 0x64C DUP7 DUP3 DUP8 ADD PUSH2 0x5C2 JUMP JUMPDEST SWAP4 POP POP PUSH1 0x20 DUP5 ADD CALLDATALOAD PUSH8 0xFFFFFFFFFFFFFFFF DUP2 GT ISZERO PUSH2 0x669 JUMPI PUSH1 0x0 DUP1 REVERT JUMPDEST PUSH2 0x675 DUP7 DUP3 DUP8 ADD PUSH2 0x598 JUMP JUMPDEST SWAP3 POP POP PUSH1 0x40 DUP5 ADD CALLDATALOAD PUSH8 0xFFFFFFFFFFFFFFFF DUP2 GT ISZERO PUSH2 0x692 JUMPI PUSH1 0x0 DUP1 REVERT JUMPDEST PUSH2 0x69E DUP7 DUP3 DUP8 ADD PUSH2 0x598 JUMP JUMPDEST SWAP2 POP POP SWAP3 POP SWAP3 POP SWAP3 JUMP JUMPDEST PUSH1 0x0 PUSH2 0x6B3 DUP3 PUSH2 0x7A6 JUMP JUMPDEST PUSH2 0x6BD DUP2 DUP6 PUSH2 0x7B1 JUMP JUMPDEST SWAP4 POP PUSH2 0x6CD DUP2 DUP6 PUSH1 0x20 DUP7 ADD PUSH2 0x80D JUMP JUMPDEST PUSH2 0x6D6 DUP2 PUSH2 0x901 JUMP JUMPDEST DUP5 ADD SWAP2 POP POP SWAP3 SWAP2 POP POP JUMP JUMPDEST PUSH2 0x6EA DUP2 PUSH2 0x7F4 JUMP JUMPDEST DUP3 MSTORE POP POP JUMP JUMPDEST PUSH1 0x0 PUSH1 0x20 DUP3 ADD SWAP1 POP PUSH2 0x705 PUSH1 0x0 DUP4 ADD DUP5 PUSH2 0x6E1 JUMP JUMPDEST SWAP3 SWAP2 POP POP JUMP JUMPDEST PUSH1 0x0 PUSH1 0x60 DUP3 ADD SWAP1 POP PUSH2 0x720 PUSH1 0x0 DUP4 ADD DUP7 PUSH2 0x6E1 JUMP JUMPDEST DUP2 DUP2 SUB PUSH1 0x20 DUP4 ADD MSTORE PUSH2 0x732 DUP2 DUP6 PUSH2 0x6A8 JUMP JUMPDEST SWAP1 POP DUP2 DUP2 SUB PUSH1 0x40 DUP4 ADD MSTORE PUSH2 0x746 DUP2 DUP5 PUSH2 0x6A8 JUMP JUMPDEST SWAP1 POP SWAP5 SWAP4 POP POP POP POP JUMP JUMPDEST PUSH1 0x0 PUSH2 0x75A PUSH2 0x76B JUMP JUMPDEST SWAP1 POP PUSH2 0x766 DUP3 DUP3 PUSH2 0x872 JUMP JUMPDEST SWAP2 SWAP1 POP JUMP JUMPDEST PUSH1 0x0 PUSH1 0x40 MLOAD SWAP1 POP SWAP1 JUMP JUMPDEST PUSH1 0x0 PUSH8 0xFFFFFFFFFFFFFFFF DUP3 GT ISZERO PUSH2 0x790 JUMPI PUSH2 0x78F PUSH2 0x8D2 JUMP JUMPDEST JUMPDEST PUSH2 0x799 DUP3 PUSH2 0x901 JUMP JUMPDEST SWAP1 POP PUSH1 0x20 DUP2 ADD SWAP1 POP SWAP2 SWAP1 POP JUMP JUMPDEST PUSH1 0x0 DUP2 MLOAD SWAP1 POP SWAP2 SWAP1 POP JUMP JUMPDEST PUSH1 0x0 DUP3 DUP3 MSTORE PUSH1 0x20 DUP3 ADD SWAP1 POP SWAP3 SWAP2 POP POP JUMP JUMPDEST PUSH1 0x0 PUSH2 0x7CD DUP3 PUSH2 0x7D4 JUMP JUMPDEST SWAP1 POP SWAP2 SWAP1 POP JUMP JUMPDEST PUSH1 0x0 PUSH20 0xFFFFFFFFFFFFFFFFFFFFFFFFFFFFFFFFFFFFFFFF DUP3 AND SWAP1 POP SWAP2 SWAP1 POP JUMP JUMPDEST PUSH1 0x0 DUP2 SWAP1 POP SWAP2 SWAP1 POP JUMP JUMPDEST DUP3 DUP2 DUP4 CALLDATACOPY PUSH1 0x0 DUP4 DUP4 ADD MSTORE POP POP POP JUMP JUMPDEST PUSH1 0x0 JUMPDEST DUP4 DUP2 LT ISZERO PUSH2 0x82B JUMPI DUP1 DUP3 ADD MLOAD DUP2 DUP5 ADD MSTORE PUSH1 0x20 DUP2 ADD SWAP1 POP PUSH2 0x810 JUMP JUMPDEST DUP4 DUP2 GT ISZERO PUSH2 0x83A JUMPI PUSH1 0x0 DUP5 DUP5 ADD MSTORE JUMPDEST POP POP POP POP JUMP JUMPDEST PUSH1 0x0 PUSH1 0x2 DUP3 DIV SWAP1 POP PUSH1 0x1 DUP3 AND DUP1 PUSH2 0x858 JUMPI PUSH1 0x7F DUP3 AND SWAP2 POP JUMPDEST PUSH1 0x20 DUP3 LT DUP2 EQ ISZERO PUSH2 0x86C JUMPI PUSH2 0x86B PUSH2 0x8A3 JUMP JUMPDEST JUMPDEST POP SWAP2 SWAP1 POP JUMP JUMPDEST PUSH2 0x87B DUP3 PUSH2 0x901 JUMP JUMPDEST DUP2 ADD DUP2 DUP2 LT PUSH8 0xFFFFFFFFFFFFFFFF DUP3 GT OR ISZERO PUSH2 0x89A JUMPI PUSH2 0x899 PUSH2 0x8D2 JUMP JUMPDEST JUMPDEST DUP1 PUSH1 0x40 MSTORE POP POP POP JUMP JUMPDEST PUSH32 0x4E487B7100000000000000000000000000000000000000000000000000000000 PUSH1 0x0 MSTORE PUSH1 0x22 PUSH1 0x4 MSTORE PUSH1 0x24 PUSH1 0x0 REVERT JUMPDEST PUSH32 0x4E487B7100000000000000000000000000000000000000000000000000000000 PUSH1 0x0 MSTORE PUSH1 0x41 PUSH1 0x4 MSTORE PUSH1 0x24 PUSH1 0x0 REVERT JUMPDEST PUSH1 0x0 PUSH1 0x1F NOT PUSH1 0x1F DUP4 ADD AND SWAP1 POP SWAP2 SWAP1 POP JUMP JUMPDEST PUSH2 0x91B DUP2 PUSH2 0x7C2 JUMP JUMPDEST DUP2 EQ PUSH2 0x926 JUMPI PUSH1 0x0 DUP1 REVERT JUMPDEST POP JUMP JUMPDEST PUSH2 0x932 DUP2 PUSH2 0x7F4 JUMP JUMPDEST DUP2 EQ PUSH2 0x93D JUMPI PUSH1 0x0 DUP1 REVERT JUMPDEST POP JUMP INVALID LOG2 PUSH5 0x6970667358 0x22 SLT KECCAK256 0x2D LOG0 DUP14 0xEF 0xBA SUB 0xAE 0xA9 0x22 CALLVALUE COINBASE SWAP2 EXTCODEHASH PUSH1 0xEB RETURN 0x4B SLOAD OR 0xA5 DUP11 XOR 0x5F 0x21 GASLIMIT 0x5C SWAP16 ADD EXP 0xAA 0xCC PUSH6 0x64736F6C6343 STOP ADDMOD DIV STOP CALLER "
				},
				"gasEstimates": {
					"creation": {
						"codeDepositCost": "484400",
						"executionCost": "infinite",
						"totalCost": "infinite"
					},
					"external": {
						"arrayAppend(uint256,string,string)": "infinite",
						"assignNumber(uint256)": "20575",
						"customers(uint256)": "infinite",
						"customersAddress(address)": "infinite",
						"wallets(address)": "1536"
					}
				},
				"methodIdentifiers": {
					"arrayAppend(uint256,string,string)": "60591cc0",
					"assignNumber(uint256)": "e52b008f",
					"customers(uint256)": "c0abda2a",
					"customersAddress(address)": "3cc1c50d",
					"wallets(address)": "89b08f11"
				}
			},
			"storageLayout": {
				"storage": [
					{
						"astId": 16,
						"contract": "contracts/3_data_structures.sol:DataStructures",
						"label": "customer1",
						"offset": 0,
						"slot": "0",
						"type": "t_struct(Customer)8_storage"
					},
					{
						"astId": 22,
						"contract": "contracts/3_data_structures.sol:DataStructures",
						"label": "ages",
						"offset": 0,
						"slot": "3",
						"type": "t_array(t_uint256)4_storage"
					},
					{
						"astId": 26,
						"contract": "contracts/3_data_structures.sol:DataStructures",
						"label": "customers",
						"offset": 0,
						"slot": "7",
						"type": "t_array(t_struct(Customer)8_storage)dyn_storage"
					},
					{
						"astId": 55,
						"contract": "contracts/3_data_structures.sol:DataStructures",
						"label": "wallets",
						"offset": 0,
						"slot": "8",
						"type": "t_mapping(t_address,t_uint256)"
					},
					{
						"astId": 60,
						"contract": "contracts/3_data_structures.sol:DataStructures",
						"label": "customersAddress",
						"offset": 0,
						"slot": "9",
						"type": "t_mapping(t_address,t_struct(Customer)8_storage)"
					}
				],
				"types": {
					"t_address": {
						"encoding": "inplace",
						"label": "address",
						"numberOfBytes": "20"
					},
					"t_array(t_struct(Customer)8_storage)dyn_storage": {
						"base": "t_struct(Customer)8_storage",
						"encoding": "dynamic_array",
						"label": "struct DataStructures.Customer[]",
						"numberOfBytes": "32"
					},
					"t_array(t_uint256)4_storage": {
						"base": "t_uint256",
						"encoding": "inplace",
						"label": "uint256[4]",
						"numberOfBytes": "128"
					},
					"t_mapping(t_address,t_struct(Customer)8_storage)": {
						"encoding": "mapping",
						"key": "t_address",
						"label": "mapping(address => struct DataStructures.Customer)",
						"numberOfBytes": "32",
						"value": "t_struct(Customer)8_storage"
					},
					"t_mapping(t_address,t_uint256)": {
						"encoding": "mapping",
						"key": "t_address",
						"label": "mapping(address => uint256)",
						"numberOfBytes": "32",
						"value": "t_uint256"
					},
					"t_string_storage": {
						"encoding": "bytes",
						"label": "string",
						"numberOfBytes": "32"
					},
					"t_struct(Customer)8_storage": {
						"encoding": "inplace",
						"label": "struct DataStructures.Customer",
						"members": [
							{
								"astId": 3,
								"contract": "contracts/3_data_structures.sol:DataStructures",
								"label": "id",
								"offset": 0,
								"slot": "0",
								"type": "t_uint256"
							},
							{
								"astId": 5,
								"contract": "contracts/3_data_structures.sol:DataStructures",
								"label": "name",
								"offset": 0,
								"slot": "1",
								"type": "t_string_storage"
							},
							{
								"astId": 7,
								"contract": "contracts/3_data_structures.sol:DataStructures",
								"label": "email",
								"offset": 0,
								"slot": "2",
								"type": "t_string_storage"
							}
						],
						"numberOfBytes": "96"
					},
					"t_uint256": {
						"encoding": "inplace",
						"label": "uint256",
						"numberOfBytes": "32"
					}
				}
			},
			"userdoc": {
				"kind": "user",
				"methods": {},
				"version": 1
			}
		}
	}
}