{
	"contracts/2_variable_modifiers.sol": {
		"VariableModifiers": {
			"abi": [
				{
					"inputs": [],
					"name": "boolFalse",
					"outputs": [
						{
							"internalType": "bool",
							"name": "",
							"type": "bool"
						}
					],
					"stateMutability": "view",
					"type": "function"
				},
				{
					"inputs": [],
					"name": "boolTrue",
					"outputs": [
						{
							"internalType": "bool",
							"name": "",
							"type": "bool"
						}
					],
					"stateMutability": "view",
					"type": "function"
				},
				{
					"inputs": [],
					"name": "c",
					"outputs": [
						{
							"internalType": "uint16",
							"name": "",
							"type": "uint16"
						}
					],
					"stateMutability": "view",
					"type": "function"
				},
				{
					"inputs": [],
					"name": "e",
					"outputs": [
						{
							"internalType": "int32",
							"name": "",
							"type": "int32"
						}
					],
					"stateMutability": "view",
					"type": "function"
				},
				{
					"inputs": [],
					"name": "pl",
					"outputs": [
						{
							"internalType": "string",
							"name": "",
							"type": "string"
						}
					],
					"stateMutability": "view",
					"type": "function"
				},
				{
					"inputs": [],
					"name": "surname",
					"outputs": [
						{
							"internalType": "string",
							"name": "",
							"type": "string"
						}
					],
					"stateMutability": "view",
					"type": "function"
				}
			],
			"devdoc": {
				"kind": "dev",
				"methods": {},
				"version": 1
			},
			"evm": {
				"assembly": "    /* \"contracts/2_variable_modifiers.sol\":69:513  contract VariableModifiers {... */\n  mstore(0x40, 0x80)\n    /* \"contracts/2_variable_modifiers.sol\":167:170  255 */\n  0xff\n    /* \"contracts/2_variable_modifiers.sol\":157:170  uint8 b = 255 */\n  0x01\n  exp(0x0100, 0x00)\n  dup2\n  sload\n  dup2\n  0xff\n  mul\n  not\n  and\n  swap1\n  dup4\n  0xff\n  and\n  mul\n  or\n  swap1\n  sstore\n  pop\n    /* \"contracts/2_variable_modifiers.sol\":194:197  811 */\n  0x032b\n    /* \"contracts/2_variable_modifiers.sol\":176:197  uint16 public c = 811 */\n  0x01\n  dup1\n  0x0100\n  exp\n  dup2\n  sload\n  dup2\n  0xffff\n  mul\n  not\n  and\n  swap1\n  dup4\n  0xffff\n  and\n  mul\n  or\n  swap1\n  sstore\n  pop\n    /* \"contracts/2_variable_modifiers.sol\":250:254  -255 */\n  0xffffffffffffffffffffffffffffffffffffffffffffffffffffffffffffff01\n    /* \"contracts/2_variable_modifiers.sol\":242:254  int d = -255 */\n  0x02\n  sstore\n    /* \"contracts/2_variable_modifiers.sol\":277:281  -255 */\n  0xffffffffffffffffffffffffffffffffffffffffffffffffffffffffffffff01\n    /* \"contracts/2_variable_modifiers.sol\":260:281  int32 public e = -255 */\n  0x03\n  exp(0x0100, 0x00)\n  dup2\n  sload\n  dup2\n  0xffffffff\n  mul\n  not\n  and\n  swap1\n  dup4\n  0x03\n  signextend\n  0xffffffff\n  and\n  mul\n  or\n  swap1\n  sstore\n  pop\n    /* \"contracts/2_variable_modifiers.sol\":336:359  string name = \"Roberto\" */\n  mload(0x40)\n  dup1\n  0x40\n  add\n  0x40\n  mstore\n  dup1\n  0x07\n  dup2\n  mstore\n  0x20\n  add\n  0x526f626572746f00000000000000000000000000000000000000000000000000\n  dup2\n  mstore\n  pop\n  0x05\n  swap1\n  dup1\n  mload\n  swap1\n  0x20\n  add\n  swap1\n  tag_1\n  swap3\n  swap2\n  swap1\n  tag_2\n  jump\t// in\ntag_1:\n  pop\n    /* \"contracts/2_variable_modifiers.sol\":365:394  string public pl = \"Solidity\" */\n  mload(0x40)\n  dup1\n  0x40\n  add\n  0x40\n  mstore\n  dup1\n  0x08\n  dup2\n  mstore\n  0x20\n  add\n  0x536f6c6964697479000000000000000000000000000000000000000000000000\n  dup2\n  mstore\n  pop\n  0x06\n  swap1\n  dup1\n  mload\n  swap1\n  0x20\n  add\n  swap1\n  tag_3\n  swap3\n  swap2\n  swap1\n  tag_2\n  jump\t// in\ntag_3:\n  pop\n    /* \"contracts/2_variable_modifiers.sol\":458:462  true */\n  0x01\n    /* \"contracts/2_variable_modifiers.sol\":435:462  bool public boolTrue = true */\n  0x07\n  exp(0x0100, 0x01)\n  dup2\n  sload\n  dup2\n  0xff\n  mul\n  not\n  and\n  swap1\n  dup4\n  iszero\n  iszero\n  mul\n  or\n  swap1\n  sstore\n  pop\n    /* \"contracts/2_variable_modifiers.sol\":492:497  false */\n  0x00\n    /* \"contracts/2_variable_modifiers.sol\":468:497  bool public boolFalse = false */\n  0x07\n  exp(0x0100, 0x02)\n  dup2\n  sload\n  dup2\n  0xff\n  mul\n  not\n  and\n  swap1\n  dup4\n  iszero\n  iszero\n  mul\n  or\n  swap1\n  sstore\n  pop\n    /* \"contracts/2_variable_modifiers.sol\":69:513  contract VariableModifiers {... */\n  callvalue\n  dup1\n  iszero\n  tag_4\n  jumpi\n  0x00\n  dup1\n  revert\ntag_4:\n  pop\n  jump(tag_5)\ntag_2:\n  dup3\n  dup1\n  sload\n  tag_6\n  swap1\n  tag_7\n  jump\t// in\ntag_6:\n  swap1\n  0x00\n  mstore\n  keccak256(0x00, 0x20)\n  swap1\n  0x1f\n  add\n  0x20\n  swap1\n  div\n  dup2\n  add\n  swap3\n  dup3\n  tag_9\n  jumpi\n  0x00\n  dup6\n  sstore\n  jump(tag_8)\ntag_9:\n  dup3\n  0x1f\n  lt\n  tag_10\n  jumpi\n  dup1\n  mload\n  not(0xff)\n  and\n  dup4\n  dup1\n  add\n  or\n  dup6\n  sstore\n  jump(tag_8)\ntag_10:\n  dup3\n  dup1\n  add\n  0x01\n  add\n  dup6\n  sstore\n  dup3\n  iszero\n  tag_8\n  jumpi\n  swap2\n  dup3\n  add\ntag_11:\n  dup3\n  dup2\n  gt\n  iszero\n  tag_12\n  jumpi\n  dup3\n  mload\n  dup3\n  sstore\n  swap2\n  0x20\n  add\n  swap2\n  swap1\n  0x01\n  add\n  swap1\n  jump(tag_11)\ntag_12:\ntag_8:\n  pop\n  swap1\n  pop\n  tag_13\n  swap2\n  swap1\n  tag_14\n  jump\t// in\ntag_13:\n  pop\n  swap1\n  jump\t// out\ntag_14:\ntag_15:\n  dup1\n  dup3\n  gt\n  iszero\n  tag_16\n  jumpi\n  0x00\n  dup2\n  0x00\n  swap1\n  sstore\n  pop\n  0x01\n  add\n  jump(tag_15)\ntag_16:\n  pop\n  swap1\n  jump\t// out\n    /* \"#utility.yul\":7:327   */\ntag_7:\n    /* \"#utility.yul\":51:57   */\n  0x00\n    /* \"#utility.yul\":88:89   */\n  0x02\n    /* \"#utility.yul\":82:86   */\n  dup3\n    /* \"#utility.yul\":78:90   */\n  div\n    /* \"#utility.yul\":68:90   */\n  swap1\n  pop\n    /* \"#utility.yul\":135:136   */\n  0x01\n    /* \"#utility.yul\":129:133   */\n  dup3\n    /* \"#utility.yul\":125:137   */\n  and\n    /* \"#utility.yul\":156:174   */\n  dup1\n    /* \"#utility.yul\":146:148   */\n  tag_19\n  jumpi\n    /* \"#utility.yul\":212:216   */\n  0x7f\n    /* \"#utility.yul\":204:210   */\n  dup3\n    /* \"#utility.yul\":200:217   */\n  and\n    /* \"#utility.yul\":190:217   */\n  swap2\n  pop\n    /* \"#utility.yul\":146:148   */\ntag_19:\n    /* \"#utility.yul\":274:276   */\n  0x20\n    /* \"#utility.yul\":266:272   */\n  dup3\n    /* \"#utility.yul\":263:277   */\n  lt\n    /* \"#utility.yul\":243:261   */\n  dup2\n    /* \"#utility.yul\":240:278   */\n  eq\n    /* \"#utility.yul\":237:239   */\n  iszero\n  tag_20\n  jumpi\n    /* \"#utility.yul\":293:311   */\n  tag_21\n  tag_22\n  jump\t// in\ntag_21:\n    /* \"#utility.yul\":237:239   */\ntag_20:\n    /* \"#utility.yul\":58:327   */\n  pop\n  swap2\n  swap1\n  pop\n  jump\t// out\n    /* \"#utility.yul\":333:513   */\ntag_22:\n    /* \"#utility.yul\":381:458   */\n  0x4e487b7100000000000000000000000000000000000000000000000000000000\n    /* \"#utility.yul\":378:379   */\n  0x00\n    /* \"#utility.yul\":371:459   */\n  mstore\n    /* \"#utility.yul\":478:482   */\n  0x22\n    /* \"#utility.yul\":475:476   */\n  0x04\n    /* \"#utility.yul\":468:483   */\n  mstore\n    /* \"#utility.yul\":502:506   */\n  0x24\n    /* \"#utility.yul\":499:500   */\n  0x00\n    /* \"#utility.yul\":492:507   */\n  revert\n    /* \"contracts/2_variable_modifiers.sol\":69:513  contract VariableModifiers {... */\ntag_5:\n  dataSize(sub_0)\n  dup1\n  dataOffset(sub_0)\n  0x00\n  codecopy\n  0x00\n  return\nstop\n\nsub_0: assembly {\n        /* \"contracts/2_variable_modifiers.sol\":69:513  contract VariableModifiers {... */\n      mstore(0x40, 0x80)\n      callvalue\n      dup1\n      iszero\n      tag_1\n      jumpi\n      0x00\n      dup1\n      revert\n    tag_1:\n      pop\n      jumpi(tag_2, lt(calldatasize, 0x04))\n      shr(0xe0, calldataload(0x00))\n      dup1\n      0x222a90ac\n      eq\n      tag_3\n      jumpi\n      dup1\n      0x42fb0109\n      eq\n      tag_4\n      jumpi\n      dup1\n      0x90e1437c\n      eq\n      tag_5\n      jumpi\n      dup1\n      0xb38fee92\n      eq\n      tag_6\n      jumpi\n      dup1\n      0xc3da42b8\n      eq\n      tag_7\n      jumpi\n      dup1\n      0xffae15ba\n      eq\n      tag_8\n      jumpi\n    tag_2:\n      0x00\n      dup1\n      revert\n        /* \"contracts/2_variable_modifiers.sol\":468:497  bool public boolFalse = false */\n    tag_3:\n      tag_9\n      tag_10\n      jump\t// in\n    tag_9:\n      mload(0x40)\n      tag_11\n      swap2\n      swap1\n      tag_12\n      jump\t// in\n    tag_11:\n      mload(0x40)\n      dup1\n      swap2\n      sub\n      swap1\n      return\n        /* \"contracts/2_variable_modifiers.sol\":435:462  bool public boolTrue = true */\n    tag_4:\n      tag_13\n      tag_14\n      jump\t// in\n    tag_13:\n      mload(0x40)\n      tag_15\n      swap2\n      swap1\n      tag_12\n      jump\t// in\n    tag_15:\n      mload(0x40)\n      dup1\n      swap2\n      sub\n      swap1\n      return\n        /* \"contracts/2_variable_modifiers.sol\":365:394  string public pl = \"Solidity\" */\n    tag_5:\n      tag_16\n      tag_17\n      jump\t// in\n    tag_16:\n      mload(0x40)\n      tag_18\n      swap2\n      swap1\n      tag_19\n      jump\t// in\n    tag_18:\n      mload(0x40)\n      dup1\n      swap2\n      sub\n      swap1\n      return\n        /* \"contracts/2_variable_modifiers.sol\":309:330  string public surname */\n    tag_6:\n      tag_20\n      tag_21\n      jump\t// in\n    tag_20:\n      mload(0x40)\n      tag_22\n      swap2\n      swap1\n      tag_19\n      jump\t// in\n    tag_22:\n      mload(0x40)\n      dup1\n      swap2\n      sub\n      swap1\n      return\n        /* \"contracts/2_variable_modifiers.sol\":176:197  uint16 public c = 811 */\n    tag_7:\n      tag_23\n      tag_24\n      jump\t// in\n    tag_23:\n      mload(0x40)\n      tag_25\n      swap2\n      swap1\n      tag_26\n      jump\t// in\n    tag_25:\n      mload(0x40)\n      dup1\n      swap2\n      sub\n      swap1\n      return\n        /* \"contracts/2_variable_modifiers.sol\":260:281  int32 public e = -255 */\n    tag_8:\n      tag_27\n      tag_28\n      jump\t// in\n    tag_27:\n      mload(0x40)\n      tag_29\n      swap2\n      swap1\n      tag_30\n      jump\t// in\n    tag_29:\n      mload(0x40)\n      dup1\n      swap2\n      sub\n      swap1\n      return\n        /* \"contracts/2_variable_modifiers.sol\":468:497  bool public boolFalse = false */\n    tag_10:\n      0x07\n      0x02\n      swap1\n      sload\n      swap1\n      0x0100\n      exp\n      swap1\n      div\n      0xff\n      and\n      dup2\n      jump\t// out\n        /* \"contracts/2_variable_modifiers.sol\":435:462  bool public boolTrue = true */\n    tag_14:\n      0x07\n      0x01\n      swap1\n      sload\n      swap1\n      0x0100\n      exp\n      swap1\n      div\n      0xff\n      and\n      dup2\n      jump\t// out\n        /* \"contracts/2_variable_modifiers.sol\":365:394  string public pl = \"Solidity\" */\n    tag_17:\n      0x06\n      dup1\n      sload\n      tag_31\n      swap1\n      tag_32\n      jump\t// in\n    tag_31:\n      dup1\n      0x1f\n      add\n      0x20\n      dup1\n      swap2\n      div\n      mul\n      0x20\n      add\n      mload(0x40)\n      swap1\n      dup2\n      add\n      0x40\n      mstore\n      dup1\n      swap3\n      swap2\n      swap1\n      dup2\n      dup2\n      mstore\n      0x20\n      add\n      dup3\n      dup1\n      sload\n      tag_33\n      swap1\n      tag_32\n      jump\t// in\n    tag_33:\n      dup1\n      iszero\n      tag_34\n      jumpi\n      dup1\n      0x1f\n      lt\n      tag_35\n      jumpi\n      0x0100\n      dup1\n      dup4\n      sload\n      div\n      mul\n      dup4\n      mstore\n      swap2\n      0x20\n      add\n      swap2\n      jump(tag_34)\n    tag_35:\n      dup3\n      add\n      swap2\n      swap1\n      0x00\n      mstore\n      keccak256(0x00, 0x20)\n      swap1\n    tag_36:\n      dup2\n      sload\n      dup2\n      mstore\n      swap1\n      0x01\n      add\n      swap1\n      0x20\n      add\n      dup1\n      dup4\n      gt\n      tag_36\n      jumpi\n      dup3\n      swap1\n      sub\n      0x1f\n      and\n      dup3\n      add\n      swap2\n    tag_34:\n      pop\n      pop\n      pop\n      pop\n      pop\n      dup2\n      jump\t// out\n        /* \"contracts/2_variable_modifiers.sol\":309:330  string public surname */\n    tag_21:\n      0x04\n      dup1\n      sload\n      tag_37\n      swap1\n      tag_32\n      jump\t// in\n    tag_37:\n      dup1\n      0x1f\n      add\n      0x20\n      dup1\n      swap2\n      div\n      mul\n      0x20\n      add\n      mload(0x40)\n      swap1\n      dup2\n      add\n      0x40\n      mstore\n      dup1\n      swap3\n      swap2\n      swap1\n      dup2\n      dup2\n      mstore\n      0x20\n      add\n      dup3\n      dup1\n      sload\n      tag_38\n      swap1\n      tag_32\n      jump\t// in\n    tag_38:\n      dup1\n      iszero\n      tag_39\n      jumpi\n      dup1\n      0x1f\n      lt\n      tag_40\n      jumpi\n      0x0100\n      dup1\n      dup4\n      sload\n      div\n      mul\n      dup4\n      mstore\n      swap2\n      0x20\n      add\n      swap2\n      jump(tag_39)\n    tag_40:\n      dup3\n      add\n      swap2\n      swap1\n      0x00\n      mstore\n      keccak256(0x00, 0x20)\n      swap1\n    tag_41:\n      dup2\n      sload\n      dup2\n      mstore\n      swap1\n      0x01\n      add\n      swap1\n      0x20\n      add\n      dup1\n      dup4\n      gt\n      tag_41\n      jumpi\n      dup3\n      swap1\n      sub\n      0x1f\n      and\n      dup3\n      add\n      swap2\n    tag_39:\n      pop\n      pop\n      pop\n      pop\n      pop\n      dup2\n      jump\t// out\n        /* \"contracts/2_variable_modifiers.sol\":176:197  uint16 public c = 811 */\n    tag_24:\n      0x01\n      dup1\n      sload\n      swap1\n      0x0100\n      exp\n      swap1\n      div\n      0xffff\n      and\n      dup2\n      jump\t// out\n        /* \"contracts/2_variable_modifiers.sol\":260:281  int32 public e = -255 */\n    tag_28:\n      0x03\n      0x00\n      swap1\n      sload\n      swap1\n      0x0100\n      exp\n      swap1\n      div\n      0x03\n      signextend\n      dup2\n      jump\t// out\n        /* \"#utility.yul\":7:116   */\n    tag_43:\n        /* \"#utility.yul\":88:109   */\n      tag_45\n        /* \"#utility.yul\":103:108   */\n      dup2\n        /* \"#utility.yul\":88:109   */\n      tag_46\n      jump\t// in\n    tag_45:\n        /* \"#utility.yul\":83:86   */\n      dup3\n        /* \"#utility.yul\":76:110   */\n      mstore\n        /* \"#utility.yul\":66:116   */\n      pop\n      pop\n      jump\t// out\n        /* \"#utility.yul\":122:234   */\n    tag_47:\n        /* \"#utility.yul\":205:227   */\n      tag_49\n        /* \"#utility.yul\":221:226   */\n      dup2\n        /* \"#utility.yul\":205:227   */\n      tag_50\n      jump\t// in\n    tag_49:\n        /* \"#utility.yul\":200:203   */\n      dup3\n        /* \"#utility.yul\":193:228   */\n      mstore\n        /* \"#utility.yul\":183:234   */\n      pop\n      pop\n      jump\t// out\n        /* \"#utility.yul\":240:604   */\n    tag_51:\n        /* \"#utility.yul\":328:331   */\n      0x00\n        /* \"#utility.yul\":356:395   */\n      tag_53\n        /* \"#utility.yul\":389:394   */\n      dup3\n        /* \"#utility.yul\":356:395   */\n      tag_54\n      jump\t// in\n    tag_53:\n        /* \"#utility.yul\":411:482   */\n      tag_55\n        /* \"#utility.yul\":475:481   */\n      dup2\n        /* \"#utility.yul\":470:473   */\n      dup6\n        /* \"#utility.yul\":411:482   */\n      tag_56\n      jump\t// in\n    tag_55:\n        /* \"#utility.yul\":404:482   */\n      swap4\n      pop\n        /* \"#utility.yul\":491:543   */\n      tag_57\n        /* \"#utility.yul\":536:542   */\n      dup2\n        /* \"#utility.yul\":531:534   */\n      dup6\n        /* \"#utility.yul\":524:528   */\n      0x20\n        /* \"#utility.yul\":517:522   */\n      dup7\n        /* \"#utility.yul\":513:529   */\n      add\n        /* \"#utility.yul\":491:543   */\n      tag_58\n      jump\t// in\n    tag_57:\n        /* \"#utility.yul\":568:597   */\n      tag_59\n        /* \"#utility.yul\":590:596   */\n      dup2\n        /* \"#utility.yul\":568:597   */\n      tag_60\n      jump\t// in\n    tag_59:\n        /* \"#utility.yul\":563:566   */\n      dup5\n        /* \"#utility.yul\":559:598   */\n      add\n        /* \"#utility.yul\":552:598   */\n      swap2\n      pop\n        /* \"#utility.yul\":332:604   */\n      pop\n      swap3\n      swap2\n      pop\n      pop\n      jump\t// out\n        /* \"#utility.yul\":610:725   */\n    tag_61:\n        /* \"#utility.yul\":695:718   */\n      tag_63\n        /* \"#utility.yul\":712:717   */\n      dup2\n        /* \"#utility.yul\":695:718   */\n      tag_64\n      jump\t// in\n    tag_63:\n        /* \"#utility.yul\":690:693   */\n      dup3\n        /* \"#utility.yul\":683:719   */\n      mstore\n        /* \"#utility.yul\":673:725   */\n      pop\n      pop\n      jump\t// out\n        /* \"#utility.yul\":731:941   */\n    tag_12:\n        /* \"#utility.yul\":818:822   */\n      0x00\n        /* \"#utility.yul\":856:858   */\n      0x20\n        /* \"#utility.yul\":845:854   */\n      dup3\n        /* \"#utility.yul\":841:859   */\n      add\n        /* \"#utility.yul\":833:859   */\n      swap1\n      pop\n        /* \"#utility.yul\":869:934   */\n      tag_66\n        /* \"#utility.yul\":931:932   */\n      0x00\n        /* \"#utility.yul\":920:929   */\n      dup4\n        /* \"#utility.yul\":916:933   */\n      add\n        /* \"#utility.yul\":907:913   */\n      dup5\n        /* \"#utility.yul\":869:934   */\n      tag_43\n      jump\t// in\n    tag_66:\n        /* \"#utility.yul\":823:941   */\n      swap3\n      swap2\n      pop\n      pop\n      jump\t// out\n        /* \"#utility.yul\":947:1161   */\n    tag_30:\n        /* \"#utility.yul\":1036:1040   */\n      0x00\n        /* \"#utility.yul\":1074:1076   */\n      0x20\n        /* \"#utility.yul\":1063:1072   */\n      dup3\n        /* \"#utility.yul\":1059:1077   */\n      add\n        /* \"#utility.yul\":1051:1077   */\n      swap1\n      pop\n        /* \"#utility.yul\":1087:1154   */\n      tag_68\n        /* \"#utility.yul\":1151:1152   */\n      0x00\n        /* \"#utility.yul\":1140:1149   */\n      dup4\n        /* \"#utility.yul\":1136:1153   */\n      add\n        /* \"#utility.yul\":1127:1133   */\n      dup5\n        /* \"#utility.yul\":1087:1154   */\n      tag_47\n      jump\t// in\n    tag_68:\n        /* \"#utility.yul\":1041:1161   */\n      swap3\n      swap2\n      pop\n      pop\n      jump\t// out\n        /* \"#utility.yul\":1167:1480   */\n    tag_19:\n        /* \"#utility.yul\":1280:1284   */\n      0x00\n        /* \"#utility.yul\":1318:1320   */\n      0x20\n        /* \"#utility.yul\":1307:1316   */\n      dup3\n        /* \"#utility.yul\":1303:1321   */\n      add\n        /* \"#utility.yul\":1295:1321   */\n      swap1\n      pop\n        /* \"#utility.yul\":1367:1376   */\n      dup2\n        /* \"#utility.yul\":1361:1365   */\n      dup2\n        /* \"#utility.yul\":1357:1377   */\n      sub\n        /* \"#utility.yul\":1353:1354   */\n      0x00\n        /* \"#utility.yul\":1342:1351   */\n      dup4\n        /* \"#utility.yul\":1338:1355   */\n      add\n        /* \"#utility.yul\":1331:1378   */\n      mstore\n        /* \"#utility.yul\":1395:1473   */\n      tag_70\n        /* \"#utility.yul\":1468:1472   */\n      dup2\n        /* \"#utility.yul\":1459:1465   */\n      dup5\n        /* \"#utility.yul\":1395:1473   */\n      tag_51\n      jump\t// in\n    tag_70:\n        /* \"#utility.yul\":1387:1473   */\n      swap1\n      pop\n        /* \"#utility.yul\":1285:1480   */\n      swap3\n      swap2\n      pop\n      pop\n      jump\t// out\n        /* \"#utility.yul\":1486:1704   */\n    tag_26:\n        /* \"#utility.yul\":1577:1581   */\n      0x00\n        /* \"#utility.yul\":1615:1617   */\n      0x20\n        /* \"#utility.yul\":1604:1613   */\n      dup3\n        /* \"#utility.yul\":1600:1618   */\n      add\n        /* \"#utility.yul\":1592:1618   */\n      swap1\n      pop\n        /* \"#utility.yul\":1628:1697   */\n      tag_72\n        /* \"#utility.yul\":1694:1695   */\n      0x00\n        /* \"#utility.yul\":1683:1692   */\n      dup4\n        /* \"#utility.yul\":1679:1696   */\n      add\n        /* \"#utility.yul\":1670:1676   */\n      dup5\n        /* \"#utility.yul\":1628:1697   */\n      tag_61\n      jump\t// in\n    tag_72:\n        /* \"#utility.yul\":1582:1704   */\n      swap3\n      swap2\n      pop\n      pop\n      jump\t// out\n        /* \"#utility.yul\":1710:1809   */\n    tag_54:\n        /* \"#utility.yul\":1762:1768   */\n      0x00\n        /* \"#utility.yul\":1796:1801   */\n      dup2\n        /* \"#utility.yul\":1790:1802   */\n      mload\n        /* \"#utility.yul\":1780:1802   */\n      swap1\n      pop\n        /* \"#utility.yul\":1769:1809   */\n      swap2\n      swap1\n      pop\n      jump\t// out\n        /* \"#utility.yul\":1815:1984   */\n    tag_56:\n        /* \"#utility.yul\":1899:1910   */\n      0x00\n        /* \"#utility.yul\":1933:1939   */\n      dup3\n        /* \"#utility.yul\":1928:1931   */\n      dup3\n        /* \"#utility.yul\":1921:1940   */\n      mstore\n        /* \"#utility.yul\":1973:1977   */\n      0x20\n        /* \"#utility.yul\":1968:1971   */\n      dup3\n        /* \"#utility.yul\":1964:1978   */\n      add\n        /* \"#utility.yul\":1949:1978   */\n      swap1\n      pop\n        /* \"#utility.yul\":1911:1984   */\n      swap3\n      swap2\n      pop\n      pop\n      jump\t// out\n        /* \"#utility.yul\":1990:2080   */\n    tag_46:\n        /* \"#utility.yul\":2024:2031   */\n      0x00\n        /* \"#utility.yul\":2067:2072   */\n      dup2\n        /* \"#utility.yul\":2060:2073   */\n      iszero\n        /* \"#utility.yul\":2053:2074   */\n      iszero\n        /* \"#utility.yul\":2042:2074   */\n      swap1\n      pop\n        /* \"#utility.yul\":2032:2080   */\n      swap2\n      swap1\n      pop\n      jump\t// out\n        /* \"#utility.yul\":2086:2176   */\n    tag_50:\n        /* \"#utility.yul\":2121:2128   */\n      0x00\n        /* \"#utility.yul\":2164:2169   */\n      dup2\n        /* \"#utility.yul\":2161:2162   */\n      0x03\n        /* \"#utility.yul\":2150:2170   */\n      signextend\n        /* \"#utility.yul\":2139:2170   */\n      swap1\n      pop\n        /* \"#utility.yul\":2129:2176   */\n      swap2\n      swap1\n      pop\n      jump\t// out\n        /* \"#utility.yul\":2182:2271   */\n    tag_64:\n        /* \"#utility.yul\":2218:2225   */\n      0x00\n        /* \"#utility.yul\":2258:2264   */\n      0xffff\n        /* \"#utility.yul\":2251:2256   */\n      dup3\n        /* \"#utility.yul\":2247:2265   */\n      and\n        /* \"#utility.yul\":2236:2265   */\n      swap1\n      pop\n        /* \"#utility.yul\":2226:2271   */\n      swap2\n      swap1\n      pop\n      jump\t// out\n        /* \"#utility.yul\":2277:2584   */\n    tag_58:\n        /* \"#utility.yul\":2345:2346   */\n      0x00\n        /* \"#utility.yul\":2355:2468   */\n    tag_79:\n        /* \"#utility.yul\":2369:2375   */\n      dup4\n        /* \"#utility.yul\":2366:2367   */\n      dup2\n        /* \"#utility.yul\":2363:2376   */\n      lt\n        /* \"#utility.yul\":2355:2468   */\n      iszero\n      tag_81\n      jumpi\n        /* \"#utility.yul\":2454:2455   */\n      dup1\n        /* \"#utility.yul\":2449:2452   */\n      dup3\n        /* \"#utility.yul\":2445:2456   */\n      add\n        /* \"#utility.yul\":2439:2457   */\n      mload\n        /* \"#utility.yul\":2435:2436   */\n      dup2\n        /* \"#utility.yul\":2430:2433   */\n      dup5\n        /* \"#utility.yul\":2426:2437   */\n      add\n        /* \"#utility.yul\":2419:2458   */\n      mstore\n        /* \"#utility.yul\":2391:2393   */\n      0x20\n        /* \"#utility.yul\":2388:2389   */\n      dup2\n        /* \"#utility.yul\":2384:2394   */\n      add\n        /* \"#utility.yul\":2379:2394   */\n      swap1\n      pop\n        /* \"#utility.yul\":2355:2468   */\n      jump(tag_79)\n    tag_81:\n        /* \"#utility.yul\":2486:2492   */\n      dup4\n        /* \"#utility.yul\":2483:2484   */\n      dup2\n        /* \"#utility.yul\":2480:2493   */\n      gt\n        /* \"#utility.yul\":2477:2479   */\n      iszero\n      tag_82\n      jumpi\n        /* \"#utility.yul\":2566:2567   */\n      0x00\n        /* \"#utility.yul\":2557:2563   */\n      dup5\n        /* \"#utility.yul\":2552:2555   */\n      dup5\n        /* \"#utility.yul\":2548:2564   */\n      add\n        /* \"#utility.yul\":2541:2568   */\n      mstore\n        /* \"#utility.yul\":2477:2479   */\n    tag_82:\n        /* \"#utility.yul\":2326:2584   */\n      pop\n      pop\n      pop\n      pop\n      jump\t// out\n        /* \"#utility.yul\":2590:2910   */\n    tag_32:\n        /* \"#utility.yul\":2634:2640   */\n      0x00\n        /* \"#utility.yul\":2671:2672   */\n      0x02\n        /* \"#utility.yul\":2665:2669   */\n      dup3\n        /* \"#utility.yul\":2661:2673   */\n      div\n        /* \"#utility.yul\":2651:2673   */\n      swap1\n      pop\n        /* \"#utility.yul\":2718:2719   */\n      0x01\n        /* \"#utility.yul\":2712:2716   */\n      dup3\n        /* \"#utility.yul\":2708:2720   */\n      and\n        /* \"#utility.yul\":2739:2757   */\n      dup1\n        /* \"#utility.yul\":2729:2731   */\n      tag_84\n      jumpi\n        /* \"#utility.yul\":2795:2799   */\n      0x7f\n        /* \"#utility.yul\":2787:2793   */\n      dup3\n        /* \"#utility.yul\":2783:2800   */\n      and\n        /* \"#utility.yul\":2773:2800   */\n      swap2\n      pop\n        /* \"#utility.yul\":2729:2731   */\n    tag_84:\n        /* \"#utility.yul\":2857:2859   */\n      0x20\n        /* \"#utility.yul\":2849:2855   */\n      dup3\n        /* \"#utility.yul\":2846:2860   */\n      lt\n        /* \"#utility.yul\":2826:2844   */\n      dup2\n        /* \"#utility.yul\":2823:2861   */\n      eq\n        /* \"#utility.yul\":2820:2822   */\n      iszero\n      tag_85\n      jumpi\n        /* \"#utility.yul\":2876:2894   */\n      tag_86\n      tag_87\n      jump\t// in\n    tag_86:\n        /* \"#utility.yul\":2820:2822   */\n    tag_85:\n        /* \"#utility.yul\":2641:2910   */\n      pop\n      swap2\n      swap1\n      pop\n      jump\t// out\n        /* \"#utility.yul\":2916:3096   */\n    tag_87:\n        /* \"#utility.yul\":2964:3041   */\n      0x4e487b7100000000000000000000000000000000000000000000000000000000\n        /* \"#utility.yul\":2961:2962   */\n      0x00\n        /* \"#utility.yul\":2954:3042   */\n      mstore\n        /* \"#utility.yul\":3061:3065   */\n      0x22\n        /* \"#utility.yul\":3058:3059   */\n      0x04\n        /* \"#utility.yul\":3051:3066   */\n      mstore\n        /* \"#utility.yul\":3085:3089   */\n      0x24\n        /* \"#utility.yul\":3082:3083   */\n      0x00\n        /* \"#utility.yul\":3075:3090   */\n      revert\n        /* \"#utility.yul\":3102:3204   */\n    tag_60:\n        /* \"#utility.yul\":3143:3149   */\n      0x00\n        /* \"#utility.yul\":3194:3196   */\n      0x1f\n        /* \"#utility.yul\":3190:3197   */\n      not\n        /* \"#utility.yul\":3185:3187   */\n      0x1f\n        /* \"#utility.yul\":3178:3183   */\n      dup4\n        /* \"#utility.yul\":3174:3188   */\n      add\n        /* \"#utility.yul\":3170:3198   */\n      and\n        /* \"#utility.yul\":3160:3198   */\n      swap1\n      pop\n        /* \"#utility.yul\":3150:3204   */\n      swap2\n      swap1\n      pop\n      jump\t// out\n\n    auxdata: 0xa26469706673582212204cf61921acb93b9d9d06210e452e72b1e991bc71c6c08a077fa62fb1f43da5a664736f6c63430008050033\n}\n",
				"bytecode": {
					"linkReferences": {},
					"object": "608060405260ff600160006101000a81548160ff021916908360ff16021790555061032b6001806101000a81548161ffff021916908361ffff1602179055507fffffffffffffffffffffffffffffffffffffffffffffffffffffffffffffff016002557fffffffffffffffffffffffffffffffffffffffffffffffffffffffffffffff01600360006101000a81548163ffffffff021916908360030b63ffffffff1602179055506040518060400160405280600781526020017f526f626572746f00000000000000000000000000000000000000000000000000815250600590805190602001906100f1929190610186565b506040518060400160405280600881526020017f536f6c69646974790000000000000000000000000000000000000000000000008152506006908051906020019061013d929190610186565b506001600760016101000a81548160ff0219169083151502179055506000600760026101000a81548160ff02191690831515021790555034801561018057600080fd5b5061028a565b82805461019290610229565b90600052602060002090601f0160209004810192826101b457600085556101fb565b82601f106101cd57805160ff19168380011785556101fb565b828001600101855582156101fb579182015b828111156101fa5782518255916020019190600101906101df565b5b509050610208919061020c565b5090565b5b8082111561022557600081600090555060010161020d565b5090565b6000600282049050600182168061024157607f821691505b602082108114156102555761025461025b565b5b50919050565b7f4e487b7100000000000000000000000000000000000000000000000000000000600052602260045260246000fd5b610479806102996000396000f3fe608060405234801561001057600080fd5b50600436106100625760003560e01c8063222a90ac1461006757806342fb01091461008557806390e1437c146100a3578063b38fee92146100c1578063c3da42b8146100df578063ffae15ba146100fd575b600080fd5b61006f61011b565b60405161007c91906102e8565b60405180910390f35b61008d61012e565b60405161009a91906102e8565b60405180910390f35b6100ab610141565b6040516100b8919061031e565b60405180910390f35b6100c96101cf565b6040516100d6919061031e565b60405180910390f35b6100e761025d565b6040516100f49190610340565b60405180910390f35b61010561026f565b6040516101129190610303565b60405180910390f35b600760029054906101000a900460ff1681565b600760019054906101000a900460ff1681565b6006805461014e906103d1565b80601f016020809104026020016040519081016040528092919081815260200182805461017a906103d1565b80156101c75780601f1061019c576101008083540402835291602001916101c7565b820191906000526020600020905b8154815290600101906020018083116101aa57829003601f168201915b505050505081565b600480546101dc906103d1565b80601f0160208091040260200160405190810160405280929190818152602001828054610208906103d1565b80156102555780601f1061022a57610100808354040283529160200191610255565b820191906000526020600020905b81548152906001019060200180831161023857829003601f168201915b505050505081565b60018054906101000a900461ffff1681565b600360009054906101000a900460030b81565b61028b81610377565b82525050565b61029a81610383565b82525050565b60006102ab8261035b565b6102b58185610366565b93506102c581856020860161039e565b6102ce81610432565b840191505092915050565b6102e281610390565b82525050565b60006020820190506102fd6000830184610282565b92915050565b60006020820190506103186000830184610291565b92915050565b6000602082019050818103600083015261033881846102a0565b905092915050565b600060208201905061035560008301846102d9565b92915050565b600081519050919050565b600082825260208201905092915050565b60008115159050919050565b60008160030b9050919050565b600061ffff82169050919050565b60005b838110156103bc5780820151818401526020810190506103a1565b838111156103cb576000848401525b50505050565b600060028204905060018216806103e957607f821691505b602082108114156103fd576103fc610403565b5b50919050565b7f4e487b7100000000000000000000000000000000000000000000000000000000600052602260045260246000fd5b6000601f19601f830116905091905056fea26469706673582212204cf61921acb93b9d9d06210e452e72b1e991bc71c6c08a077fa62fb1f43da5a664736f6c63430008050033",
					"opcodes": "PUSH1 0x80 PUSH1 0x40 MSTORE PUSH1 0xFF PUSH1 0x1 PUSH1 0x0 PUSH2 0x100 EXP DUP2 SLOAD DUP2 PUSH1 0xFF MUL NOT AND SWAP1 DUP4 PUSH1 0xFF AND MUL OR SWAP1 SSTORE POP PUSH2 0x32B PUSH1 0x1 DUP1 PUSH2 0x100 EXP DUP2 SLOAD DUP2 PUSH2 0xFFFF MUL NOT AND SWAP1 DUP4 PUSH2 0xFFFF AND MUL OR SWAP1 SSTORE POP PUSH32 0xFFFFFFFFFFFFFFFFFFFFFFFFFFFFFFFFFFFFFFFFFFFFFFFFFFFFFFFFFFFFFF01 PUSH1 0x2 SSTORE PUSH32 0xFFFFFFFFFFFFFFFFFFFFFFFFFFFFFFFFFFFFFFFFFFFFFFFFFFFFFFFFFFFFFF01 PUSH1 0x3 PUSH1 0x0 PUSH2 0x100 EXP DUP2 SLOAD DUP2 PUSH4 0xFFFFFFFF MUL NOT AND SWAP1 DUP4 PUSH1 0x3 SIGNEXTEND PUSH4 0xFFFFFFFF AND MUL OR SWAP1 SSTORE POP PUSH1 0x40 MLOAD DUP1 PUSH1 0x40 ADD PUSH1 0x40 MSTORE DUP1 PUSH1 0x7 DUP2 MSTORE PUSH1 0x20 ADD PUSH32 0x526F626572746F00000000000000000000000000000000000000000000000000 DUP2 MSTORE POP PUSH1 0x5 SWAP1 DUP1 MLOAD SWAP1 PUSH1 0x20 ADD SWAP1 PUSH2 0xF1 SWAP3 SWAP2 SWAP1 PUSH2 0x186 JUMP JUMPDEST POP PUSH1 0x40 MLOAD DUP1 PUSH1 0x40 ADD PUSH1 0x40 MSTORE DUP1 PUSH1 0x8 DUP2 MSTORE PUSH1 0x20 ADD PUSH32 0x536F6C6964697479000000000000000000000000000000000000000000000000 DUP2 MSTORE POP PUSH1 0x6 SWAP1 DUP1 MLOAD SWAP1 PUSH1 0x20 ADD SWAP1 PUSH2 0x13D SWAP3 SWAP2 SWAP1 PUSH2 0x186 JUMP JUMPDEST POP PUSH1 0x1 PUSH1 0x7 PUSH1 0x1 PUSH2 0x100 EXP DUP2 SLOAD DUP2 PUSH1 0xFF MUL NOT AND SWAP1 DUP4 ISZERO ISZERO MUL OR SWAP1 SSTORE POP PUSH1 0x0 PUSH1 0x7 PUSH1 0x2 PUSH2 0x100 EXP DUP2 SLOAD DUP2 PUSH1 0xFF MUL NOT AND SWAP1 DUP4 ISZERO ISZERO MUL OR SWAP1 SSTORE POP CALLVALUE DUP1 ISZERO PUSH2 0x180 JUMPI PUSH1 0x0 DUP1 REVERT JUMPDEST POP PUSH2 0x28A JUMP JUMPDEST DUP3 DUP1 SLOAD PUSH2 0x192 SWAP1 PUSH2 0x229 JUMP JUMPDEST SWAP1 PUSH1 0x0 MSTORE PUSH1 0x20 PUSH1 0x0 KECCAK256 SWAP1 PUSH1 0x1F ADD PUSH1 0x20 SWAP1 DIV DUP2 ADD SWAP3 DUP3 PUSH2 0x1B4 JUMPI PUSH1 0x0 DUP6 SSTORE PUSH2 0x1FB JUMP JUMPDEST DUP3 PUSH1 0x1F LT PUSH2 0x1CD JUMPI DUP1 MLOAD PUSH1 0xFF NOT AND DUP4 DUP1 ADD OR DUP6 SSTORE PUSH2 0x1FB JUMP JUMPDEST DUP3 DUP1 ADD PUSH1 0x1 ADD DUP6 SSTORE DUP3 ISZERO PUSH2 0x1FB JUMPI SWAP2 DUP3 ADD JUMPDEST DUP3 DUP2 GT ISZERO PUSH2 0x1FA JUMPI DUP3 MLOAD DUP3 SSTORE SWAP2 PUSH1 0x20 ADD SWAP2 SWAP1 PUSH1 0x1 ADD SWAP1 PUSH2 0x1DF JUMP JUMPDEST JUMPDEST POP SWAP1 POP PUSH2 0x208 SWAP2 SWAP1 PUSH2 0x20C JUMP JUMPDEST POP SWAP1 JUMP JUMPDEST JUMPDEST DUP1 DUP3 GT ISZERO PUSH2 0x225 JUMPI PUSH1 0x0 DUP2 PUSH1 0x0 SWAP1 SSTORE POP PUSH1 0x1 ADD PUSH2 0x20D JUMP JUMPDEST POP SWAP1 JUMP JUMPDEST PUSH1 0x0 PUSH1 0x2 DUP3 DIV SWAP1 POP PUSH1 0x1 DUP3 AND DUP1 PUSH2 0x241 JUMPI PUSH1 0x7F DUP3 AND SWAP2 POP JUMPDEST PUSH1 0x20 DUP3 LT DUP2 EQ ISZERO PUSH2 0x255 JUMPI PUSH2 0x254 PUSH2 0x25B JUMP JUMPDEST JUMPDEST POP SWAP2 SWAP1 POP JUMP JUMPDEST PUSH32 0x4E487B7100000000000000000000000000000000000000000000000000000000 PUSH1 0x0 MSTORE PUSH1 0x22 PUSH1 0x4 MSTORE PUSH1 0x24 PUSH1 0x0 REVERT JUMPDEST PUSH2 0x479 DUP1 PUSH2 0x299 PUSH1 0x0 CODECOPY PUSH1 0x0 RETURN INVALID PUSH1 0x80 PUSH1 0x40 MSTORE CALLVALUE DUP1 ISZERO PUSH2 0x10 JUMPI PUSH1 0x0 DUP1 REVERT JUMPDEST POP PUSH1 0x4 CALLDATASIZE LT PUSH2 0x62 JUMPI PUSH1 0x0 CALLDATALOAD PUSH1 0xE0 SHR DUP1 PUSH4 0x222A90AC EQ PUSH2 0x67 JUMPI DUP1 PUSH4 0x42FB0109 EQ PUSH2 0x85 JUMPI DUP1 PUSH4 0x90E1437C EQ PUSH2 0xA3 JUMPI DUP1 PUSH4 0xB38FEE92 EQ PUSH2 0xC1 JUMPI DUP1 PUSH4 0xC3DA42B8 EQ PUSH2 0xDF JUMPI DUP1 PUSH4 0xFFAE15BA EQ PUSH2 0xFD JUMPI JUMPDEST PUSH1 0x0 DUP1 REVERT JUMPDEST PUSH2 0x6F PUSH2 0x11B JUMP JUMPDEST PUSH1 0x40 MLOAD PUSH2 0x7C SWAP2 SWAP1 PUSH2 0x2E8 JUMP JUMPDEST PUSH1 0x40 MLOAD DUP1 SWAP2 SUB SWAP1 RETURN JUMPDEST PUSH2 0x8D PUSH2 0x12E JUMP JUMPDEST PUSH1 0x40 MLOAD PUSH2 0x9A SWAP2 SWAP1 PUSH2 0x2E8 JUMP JUMPDEST PUSH1 0x40 MLOAD DUP1 SWAP2 SUB SWAP1 RETURN JUMPDEST PUSH2 0xAB PUSH2 0x141 JUMP JUMPDEST PUSH1 0x40 MLOAD PUSH2 0xB8 SWAP2 SWAP1 PUSH2 0x31E JUMP JUMPDEST PUSH1 0x40 MLOAD DUP1 SWAP2 SUB SWAP1 RETURN JUMPDEST PUSH2 0xC9 PUSH2 0x1CF JUMP JUMPDEST PUSH1 0x40 MLOAD PUSH2 0xD6 SWAP2 SWAP1 PUSH2 0x31E JUMP JUMPDEST PUSH1 0x40 MLOAD DUP1 SWAP2 SUB SWAP1 RETURN JUMPDEST PUSH2 0xE7 PUSH2 0x25D JUMP JUMPDEST PUSH1 0x40 MLOAD PUSH2 0xF4 SWAP2 SWAP1 PUSH2 0x340 JUMP JUMPDEST PUSH1 0x40 MLOAD DUP1 SWAP2 SUB SWAP1 RETURN JUMPDEST PUSH2 0x105 PUSH2 0x26F JUMP JUMPDEST PUSH1 0x40 MLOAD PUSH2 0x112 SWAP2 SWAP1 PUSH2 0x303 JUMP JUMPDEST PUSH1 0x40 MLOAD DUP1 SWAP2 SUB SWAP1 RETURN JUMPDEST PUSH1 0x7 PUSH1 0x2 SWAP1 SLOAD SWAP1 PUSH2 0x100 EXP SWAP1 DIV PUSH1 0xFF AND DUP2 JUMP JUMPDEST PUSH1 0x7 PUSH1 0x1 SWAP1 SLOAD SWAP1 PUSH2 0x100 EXP SWAP1 DIV PUSH1 0xFF AND DUP2 JUMP JUMPDEST PUSH1 0x6 DUP1 SLOAD PUSH2 0x14E SWAP1 PUSH2 0x3D1 JUMP JUMPDEST DUP1 PUSH1 0x1F ADD PUSH1 0x20 DUP1 SWAP2 DIV MUL PUSH1 0x20 ADD PUSH1 0x40 MLOAD SWAP1 DUP2 ADD PUSH1 0x40 MSTORE DUP1 SWAP3 SWAP2 SWAP1 DUP2 DUP2 MSTORE PUSH1 0x20 ADD DUP3 DUP1 SLOAD PUSH2 0x17A SWAP1 PUSH2 0x3D1 JUMP JUMPDEST DUP1 ISZERO PUSH2 0x1C7 JUMPI DUP1 PUSH1 0x1F LT PUSH2 0x19C JUMPI PUSH2 0x100 DUP1 DUP4 SLOAD DIV MUL DUP4 MSTORE SWAP2 PUSH1 0x20 ADD SWAP2 PUSH2 0x1C7 JUMP JUMPDEST DUP3 ADD SWAP2 SWAP1 PUSH1 0x0 MSTORE PUSH1 0x20 PUSH1 0x0 KECCAK256 SWAP1 JUMPDEST DUP2 SLOAD DUP2 MSTORE SWAP1 PUSH1 0x1 ADD SWAP1 PUSH1 0x20 ADD DUP1 DUP4 GT PUSH2 0x1AA JUMPI DUP3 SWAP1 SUB PUSH1 0x1F AND DUP3 ADD SWAP2 JUMPDEST POP POP POP POP POP DUP2 JUMP JUMPDEST PUSH1 0x4 DUP1 SLOAD PUSH2 0x1DC SWAP1 PUSH2 0x3D1 JUMP JUMPDEST DUP1 PUSH1 0x1F ADD PUSH1 0x20 DUP1 SWAP2 DIV MUL PUSH1 0x20 ADD PUSH1 0x40 MLOAD SWAP1 DUP2 ADD PUSH1 0x40 MSTORE DUP1 SWAP3 SWAP2 SWAP1 DUP2 DUP2 MSTORE PUSH1 0x20 ADD DUP3 DUP1 SLOAD PUSH2 0x208 SWAP1 PUSH2 0x3D1 JUMP JUMPDEST DUP1 ISZERO PUSH2 0x255 JUMPI DUP1 PUSH1 0x1F LT PUSH2 0x22A JUMPI PUSH2 0x100 DUP1 DUP4 SLOAD DIV MUL DUP4 MSTORE SWAP2 PUSH1 0x20 ADD SWAP2 PUSH2 0x255 JUMP JUMPDEST DUP3 ADD SWAP2 SWAP1 PUSH1 0x0 MSTORE PUSH1 0x20 PUSH1 0x0 KECCAK256 SWAP1 JUMPDEST DUP2 SLOAD DUP2 MSTORE SWAP1 PUSH1 0x1 ADD SWAP1 PUSH1 0x20 ADD DUP1 DUP4 GT PUSH2 0x238 JUMPI DUP3 SWAP1 SUB PUSH1 0x1F AND DUP3 ADD SWAP2 JUMPDEST POP POP POP POP POP DUP2 JUMP JUMPDEST PUSH1 0x1 DUP1 SLOAD SWAP1 PUSH2 0x100 EXP SWAP1 DIV PUSH2 0xFFFF AND DUP2 JUMP JUMPDEST PUSH1 0x3 PUSH1 0x0 SWAP1 SLOAD SWAP1 PUSH2 0x100 EXP SWAP1 DIV PUSH1 0x3 SIGNEXTEND DUP2 JUMP JUMPDEST PUSH2 0x28B DUP2 PUSH2 0x377 JUMP JUMPDEST DUP3 MSTORE POP POP JUMP JUMPDEST PUSH2 0x29A DUP2 PUSH2 0x383 JUMP JUMPDEST DUP3 MSTORE POP POP JUMP JUMPDEST PUSH1 0x0 PUSH2 0x2AB DUP3 PUSH2 0x35B JUMP JUMPDEST PUSH2 0x2B5 DUP2 DUP6 PUSH2 0x366 JUMP JUMPDEST SWAP4 POP PUSH2 0x2C5 DUP2 DUP6 PUSH1 0x20 DUP7 ADD PUSH2 0x39E JUMP JUMPDEST PUSH2 0x2CE DUP2 PUSH2 0x432 JUMP JUMPDEST DUP5 ADD SWAP2 POP POP SWAP3 SWAP2 POP POP JUMP JUMPDEST PUSH2 0x2E2 DUP2 PUSH2 0x390 JUMP JUMPDEST DUP3 MSTORE POP POP JUMP JUMPDEST PUSH1 0x0 PUSH1 0x20 DUP3 ADD SWAP1 POP PUSH2 0x2FD PUSH1 0x0 DUP4 ADD DUP5 PUSH2 0x282 JUMP JUMPDEST SWAP3 SWAP2 POP POP JUMP JUMPDEST PUSH1 0x0 PUSH1 0x20 DUP3 ADD SWAP1 POP PUSH2 0x318 PUSH1 0x0 DUP4 ADD DUP5 PUSH2 0x291 JUMP JUMPDEST SWAP3 SWAP2 POP POP JUMP JUMPDEST PUSH1 0x0 PUSH1 0x20 DUP3 ADD SWAP1 POP DUP2 DUP2 SUB PUSH1 0x0 DUP4 ADD MSTORE PUSH2 0x338 DUP2 DUP5 PUSH2 0x2A0 JUMP JUMPDEST SWAP1 POP SWAP3 SWAP2 POP POP JUMP JUMPDEST PUSH1 0x0 PUSH1 0x20 DUP3 ADD SWAP1 POP PUSH2 0x355 PUSH1 0x0 DUP4 ADD DUP5 PUSH2 0x2D9 JUMP JUMPDEST SWAP3 SWAP2 POP POP JUMP JUMPDEST PUSH1 0x0 DUP2 MLOAD SWAP1 POP SWAP2 SWAP1 POP JUMP JUMPDEST PUSH1 0x0 DUP3 DUP3 MSTORE PUSH1 0x20 DUP3 ADD SWAP1 POP SWAP3 SWAP2 POP POP JUMP JUMPDEST PUSH1 0x0 DUP2 ISZERO ISZERO SWAP1 POP SWAP2 SWAP1 POP JUMP JUMPDEST PUSH1 0x0 DUP2 PUSH1 0x3 SIGNEXTEND SWAP1 POP SWAP2 SWAP1 POP JUMP JUMPDEST PUSH1 0x0 PUSH2 0xFFFF DUP3 AND SWAP1 POP SWAP2 SWAP1 POP JUMP JUMPDEST PUSH1 0x0 JUMPDEST DUP4 DUP2 LT ISZERO PUSH2 0x3BC JUMPI DUP1 DUP3 ADD MLOAD DUP2 DUP5 ADD MSTORE PUSH1 0x20 DUP2 ADD SWAP1 POP PUSH2 0x3A1 JUMP JUMPDEST DUP4 DUP2 GT ISZERO PUSH2 0x3CB JUMPI PUSH1 0x0 DUP5 DUP5 ADD MSTORE JUMPDEST POP POP POP POP JUMP JUMPDEST PUSH1 0x0 PUSH1 0x2 DUP3 DIV SWAP1 POP PUSH1 0x1 DUP3 AND DUP1 PUSH2 0x3E9 JUMPI PUSH1 0x7F DUP3 AND SWAP2 POP JUMPDEST PUSH1 0x20 DUP3 LT DUP2 EQ ISZERO PUSH2 0x3FD JUMPI PUSH2 0x3FC PUSH2 0x403 JUMP JUMPDEST JUMPDEST POP SWAP2 SWAP1 POP JUMP JUMPDEST PUSH32 0x4E487B7100000000000000000000000000000000000000000000000000000000 PUSH1 0x0 MSTORE PUSH1 0x22 PUSH1 0x4 MSTORE PUSH1 0x24 PUSH1 0x0 REVERT JUMPDEST PUSH1 0x0 PUSH1 0x1F NOT PUSH1 0x1F DUP4 ADD AND SWAP1 POP SWAP2 SWAP1 POP JUMP INVALID LOG2 PUSH5 0x6970667358 0x22 SLT KECCAK256 0x4C 0xF6 NOT 0x21 0xAC 0xB9 EXTCODESIZE SWAP14 SWAP14 MOD 0x21 0xE GASLIMIT 0x2E PUSH19 0xB1E991BC71C6C08A077FA62FB1F43DA5A66473 PUSH16 0x6C634300080500330000000000000000 "
				},
				"gasEstimates": {
					"creation": {
						"codeDepositCost": "229000",
						"executionCost": "infinite",
						"totalCost": "infinite"
					},
					"external": {
						"boolFalse()": "2499",
						"boolTrue()": "2521",
						"c()": "2584",
						"e()": "2563",
						"pl()": "infinite",
						"surname()": "infinite"
					}
				},
				"methodIdentifiers": {
					"boolFalse()": "222a90ac",
					"boolTrue()": "42fb0109",
					"c()": "c3da42b8",
					"e()": "ffae15ba",
					"pl()": "90e1437c",
					"surname()": "b38fee92"
				}
			},
			"storageLayout": {
				"storage": [
					{
						"astId": 3,
						"contract": "contracts/2_variable_modifiers.sol:VariableModifiers",
						"label": "a",
						"offset": 0,
						"slot": "0",
						"type": "t_uint256"
					},
					{
						"astId": 6,
						"contract": "contracts/2_variable_modifiers.sol:VariableModifiers",
						"label": "b",
						"offset": 0,
						"slot": "1",
						"type": "t_uint8"
					},
					{
						"astId": 9,
						"contract": "contracts/2_variable_modifiers.sol:VariableModifiers",
						"label": "c",
						"offset": 1,
						"slot": "1",
						"type": "t_uint16"
					},
					{
						"astId": 13,
						"contract": "contracts/2_variable_modifiers.sol:VariableModifiers",
						"label": "d",
						"offset": 0,
						"slot": "2",
						"type": "t_int256"
					},
					{
						"astId": 17,
						"contract": "contracts/2_variable_modifiers.sol:VariableModifiers",
						"label": "e",
						"offset": 0,
						"slot": "3",
						"type": "t_int32"
					},
					{
						"astId": 19,
						"contract": "contracts/2_variable_modifiers.sol:VariableModifiers",
						"label": "surname",
						"offset": 0,
						"slot": "4",
						"type": "t_string_storage"
					},
					{
						"astId": 22,
						"contract": "contracts/2_variable_modifiers.sol:VariableModifiers",
						"label": "name",
						"offset": 0,
						"slot": "5",
						"type": "t_string_storage"
					},
					{
						"astId": 25,
						"contract": "contracts/2_variable_modifiers.sol:VariableModifiers",
						"label": "pl",
						"offset": 0,
						"slot": "6",
						"type": "t_string_storage"
					},
					{
						"astId": 27,
						"contract": "contracts/2_variable_modifiers.sol:VariableModifiers",
						"label": "boolean",
						"offset": 0,
						"slot": "7",
						"type": "t_bool"
					},
					{
						"astId": 30,
						"contract": "contracts/2_variable_modifiers.sol:VariableModifiers",
						"label": "boolTrue",
						"offset": 1,
						"slot": "7",
						"type": "t_bool"
					},
					{
						"astId": 33,
						"contract": "contracts/2_variable_modifiers.sol:VariableModifiers",
						"label": "boolFalse",
						"offset": 2,
						"slot": "7",
						"type": "t_bool"
					}
				],
				"types": {
					"t_bool": {
						"encoding": "inplace",
						"label": "bool",
						"numberOfBytes": "1"
					},
					"t_int256": {
						"encoding": "inplace",
						"label": "int256",
						"numberOfBytes": "32"
					},
					"t_int32": {
						"encoding": "inplace",
						"label": "int32",
						"numberOfBytes": "4"
					},
					"t_string_storage": {
						"encoding": "bytes",
						"label": "string",
						"numberOfBytes": "32"
					},
					"t_uint16": {
						"encoding": "inplace",
						"label": "uint16",
						"numberOfBytes": "2"
					},
					"t_uint256": {
						"encoding": "inplace",
						"label": "uint256",
						"numberOfBytes": "32"
					},
					"t_uint8": {
						"encoding": "inplace",
						"label": "uint8",
						"numberOfBytes": "1"
					}
				}
			},
			"userdoc": {
				"kind": "user",
				"methods": {},
				"version": 1
			}
		}
	}
}