{
	"contracts/2_variable_modifiers.sol": {
		"VariableModifiers": {
			"abi": [
				{
					"inputs": [],
					"name": "boolFalse",
					"outputs": [
						{
							"internalType": "bool",
							"name": "",
							"type": "bool"
						}
					],
					"stateMutability": "view",
					"type": "function"
				},
				{
					"inputs": [],
					"name": "boolTrue",
					"outputs": [
						{
							"internalType": "bool",
							"name": "",
							"type": "bool"
						}
					],
					"stateMutability": "view",
					"type": "function"
				},
				{
					"inputs": [],
					"name": "c",
					"outputs": [
						{
							"internalType": "uint16",
							"name": "",
							"type": "uint16"
						}
					],
					"stateMutability": "view",
					"type": "function"
				},
				{
					"inputs": [],
					"name": "changeToAda",
					"outputs": [],
					"stateMutability": "nonpayable",
					"type": "function"
				},
				{
					"inputs": [],
					"name": "changeToBNB",
					"outputs": [],
					"stateMutability": "nonpayable",
					"type": "function"
				},
				{
					"inputs": [],
					"name": "changeToBTC",
					"outputs": [],
					"stateMutability": "nonpayable",
					"type": "function"
				},
				{
					"inputs": [],
					"name": "changeToEther",
					"outputs": [],
					"stateMutability": "nonpayable",
					"type": "function"
				},
				{
					"inputs": [],
					"name": "defaultChoice",
					"outputs": [
						{
							"internalType": "enum VariableModifiers.tokens",
							"name": "",
							"type": "uint8"
						}
					],
					"stateMutability": "view",
					"type": "function"
				},
				{
					"inputs": [],
					"name": "e",
					"outputs": [
						{
							"internalType": "int32",
							"name": "",
							"type": "int32"
						}
					],
					"stateMutability": "view",
					"type": "function"
				},
				{
					"inputs": [],
					"name": "friendAddress",
					"outputs": [
						{
							"internalType": "address",
							"name": "",
							"type": "address"
						}
					],
					"stateMutability": "view",
					"type": "function"
				},
				{
					"inputs": [],
					"name": "hash",
					"outputs": [
						{
							"internalType": "bytes32",
							"name": "",
							"type": "bytes32"
						}
					],
					"stateMutability": "view",
					"type": "function"
				},
				{
					"inputs": [],
					"name": "owner",
					"outputs": [
						{
							"internalType": "address",
							"name": "",
							"type": "address"
						}
					],
					"stateMutability": "view",
					"type": "function"
				},
				{
					"inputs": [],
					"name": "pl",
					"outputs": [
						{
							"internalType": "string",
							"name": "",
							"type": "string"
						}
					],
					"stateMutability": "view",
					"type": "function"
				},
				{
					"inputs": [],
					"name": "state",
					"outputs": [
						{
							"internalType": "enum VariableModifiers.tokens",
							"name": "",
							"type": "uint8"
						}
					],
					"stateMutability": "view",
					"type": "function"
				},
				{
					"inputs": [],
					"name": "surname",
					"outputs": [
						{
							"internalType": "string",
							"name": "",
							"type": "string"
						}
					],
					"stateMutability": "view",
					"type": "function"
				}
			],
			"devdoc": {
				"kind": "dev",
				"methods": {},
				"version": 1
			},
			"evm": {
				"assembly": "    /* \"contracts/2_variable_modifiers.sol\":69:1283  contract VariableModifiers {... */\n  mstore(0x40, 0x80)\n    /* \"contracts/2_variable_modifiers.sol\":167:170  255 */\n  0xff\n    /* \"contracts/2_variable_modifiers.sol\":157:170  uint8 b = 255 */\n  0x01\n  exp(0x0100, 0x00)\n  dup2\n  sload\n  dup2\n  0xff\n  mul\n  not\n  and\n  swap1\n  dup4\n  0xff\n  and\n  mul\n  or\n  swap1\n  sstore\n  pop\n    /* \"contracts/2_variable_modifiers.sol\":194:197  811 */\n  0x032b\n    /* \"contracts/2_variable_modifiers.sol\":176:197  uint16 public c = 811 */\n  0x01\n  dup1\n  0x0100\n  exp\n  dup2\n  sload\n  dup2\n  0xffff\n  mul\n  not\n  and\n  swap1\n  dup4\n  0xffff\n  and\n  mul\n  or\n  swap1\n  sstore\n  pop\n    /* \"contracts/2_variable_modifiers.sol\":250:254  -255 */\n  0xffffffffffffffffffffffffffffffffffffffffffffffffffffffffffffff01\n    /* \"contracts/2_variable_modifiers.sol\":242:254  int d = -255 */\n  0x02\n  sstore\n    /* \"contracts/2_variable_modifiers.sol\":277:281  -255 */\n  0xffffffffffffffffffffffffffffffffffffffffffffffffffffffffffffff01\n    /* \"contracts/2_variable_modifiers.sol\":260:281  int32 public e = -255 */\n  0x03\n  exp(0x0100, 0x00)\n  dup2\n  sload\n  dup2\n  0xffffffff\n  mul\n  not\n  and\n  swap1\n  dup4\n  0x03\n  signextend\n  0xffffffff\n  and\n  mul\n  or\n  swap1\n  sstore\n  pop\n    /* \"contracts/2_variable_modifiers.sol\":329:352  string name = \"Roberto\" */\n  mload(0x40)\n  dup1\n  0x40\n  add\n  0x40\n  mstore\n  dup1\n  0x07\n  dup2\n  mstore\n  0x20\n  add\n  0x526f626572746f00000000000000000000000000000000000000000000000000\n  dup2\n  mstore\n  pop\n  0x05\n  swap1\n  dup1\n  mload\n  swap1\n  0x20\n  add\n  swap1\n  tag_1\n  swap3\n  swap2\n  swap1\n  tag_2\n  jump\t// in\ntag_1:\n  pop\n    /* \"contracts/2_variable_modifiers.sol\":358:387  string public pl = \"Solidity\" */\n  mload(0x40)\n  dup1\n  0x40\n  add\n  0x40\n  mstore\n  dup1\n  0x08\n  dup2\n  mstore\n  0x20\n  add\n  0x536f6c6964697479000000000000000000000000000000000000000000000000\n  dup2\n  mstore\n  pop\n  0x06\n  swap1\n  dup1\n  mload\n  swap1\n  0x20\n  add\n  swap1\n  tag_3\n  swap3\n  swap2\n  swap1\n  tag_2\n  jump\t// in\ntag_3:\n  pop\n    /* \"contracts/2_variable_modifiers.sol\":451:455  true */\n  0x01\n    /* \"contracts/2_variable_modifiers.sol\":428:455  bool public boolTrue = true */\n  0x07\n  exp(0x0100, 0x01)\n  dup2\n  sload\n  dup2\n  0xff\n  mul\n  not\n  and\n  swap1\n  dup4\n  iszero\n  iszero\n  mul\n  or\n  swap1\n  sstore\n  pop\n    /* \"contracts/2_variable_modifiers.sol\":485:490  false */\n  0x00\n    /* \"contracts/2_variable_modifiers.sol\":461:490  bool public boolFalse = false */\n  0x07\n  exp(0x0100, 0x02)\n  dup2\n  sload\n  dup2\n  0xff\n  mul\n  not\n  and\n  swap1\n  dup4\n  iszero\n  iszero\n  mul\n  or\n  swap1\n  sstore\n  pop\n    /* \"contracts/2_variable_modifiers.sol\":682:686  name */\n  0x05\n    /* \"contracts/2_variable_modifiers.sol\":688:695  surname */\n  0x04\n    /* \"contracts/2_variable_modifiers.sol\":665:696  abi.encodePacked(name, surname) */\n  add(0x20, mload(0x40))\n  tag_4\n  swap3\n  swap2\n  swap1\n  tag_5\n  jump\t// in\ntag_4:\n  mload(0x40)\n  0x20\n  dup2\n  dup4\n  sub\n  sub\n  dup2\n  mstore\n  swap1\n  0x40\n  mstore\n    /* \"contracts/2_variable_modifiers.sol\":655:697  keccak256(abi.encodePacked(name, surname)) */\n  dup1\n  mload\n  swap1\n  0x20\n  add\n  keccak256\n    /* \"contracts/2_variable_modifiers.sol\":633:697  bytes32 public hash = keccak256(abi.encodePacked(name, surname)) */\n  0x0b\n  sstore\n    /* \"contracts/2_variable_modifiers.sol\":773:815  0x5B38Da6a701c568545dCfcB03FcB875f56beddC4 */\n  0x5b38da6a701c568545dcfcb03fcb875f56beddc4\n    /* \"contracts/2_variable_modifiers.sol\":742:815  address public friendAddress = 0x5B38Da6a701c568545dCfcB03FcB875f56beddC4 */\n  0x0d\n  exp(0x0100, 0x00)\n  dup2\n  sload\n  dup2\n  0xffffffffffffffffffffffffffffffffffffffff\n  mul\n  not\n  and\n  swap1\n  dup4\n  0xffffffffffffffffffffffffffffffffffffffff\n  and\n  mul\n  or\n  swap1\n  sstore\n  pop\n    /* \"contracts/2_variable_modifiers.sol\":844:854  msg.sender */\n  caller\n    /* \"contracts/2_variable_modifiers.sol\":821:854  address public owner = msg.sender */\n  0x0e\n  exp(0x0100, 0x00)\n  dup2\n  sload\n  dup2\n  0xffffffffffffffffffffffffffffffffffffffff\n  mul\n  not\n  and\n  swap1\n  dup4\n  0xffffffffffffffffffffffffffffffffffffffff\n  and\n  mul\n  or\n  swap1\n  sstore\n  pop\n    /* \"contracts/2_variable_modifiers.sol\":69:1283  contract VariableModifiers {... */\n  callvalue\n  dup1\n  iszero\n  tag_6\n  jumpi\n  0x00\n  dup1\n  revert\ntag_6:\n  pop\n  jump(tag_7)\ntag_2:\n  dup3\n  dup1\n  sload\n  tag_8\n  swap1\n  tag_9\n  jump\t// in\ntag_8:\n  swap1\n  0x00\n  mstore\n  keccak256(0x00, 0x20)\n  swap1\n  0x1f\n  add\n  0x20\n  swap1\n  div\n  dup2\n  add\n  swap3\n  dup3\n  tag_11\n  jumpi\n  0x00\n  dup6\n  sstore\n  jump(tag_10)\ntag_11:\n  dup3\n  0x1f\n  lt\n  tag_12\n  jumpi\n  dup1\n  mload\n  not(0xff)\n  and\n  dup4\n  dup1\n  add\n  or\n  dup6\n  sstore\n  jump(tag_10)\ntag_12:\n  dup3\n  dup1\n  add\n  0x01\n  add\n  dup6\n  sstore\n  dup3\n  iszero\n  tag_10\n  jumpi\n  swap2\n  dup3\n  add\ntag_13:\n  dup3\n  dup2\n  gt\n  iszero\n  tag_14\n  jumpi\n  dup3\n  mload\n  dup3\n  sstore\n  swap2\n  0x20\n  add\n  swap2\n  swap1\n  0x01\n  add\n  swap1\n  jump(tag_13)\ntag_14:\ntag_10:\n  pop\n  swap1\n  pop\n  tag_15\n  swap2\n  swap1\n  tag_16\n  jump\t// in\ntag_15:\n  pop\n  swap1\n  jump\t// out\ntag_16:\ntag_17:\n  dup1\n  dup3\n  gt\n  iszero\n  tag_18\n  jumpi\n  0x00\n  dup2\n  0x00\n  swap1\n  sstore\n  pop\n  0x01\n  add\n  jump(tag_17)\ntag_18:\n  pop\n  swap1\n  jump\t// out\n    /* \"#utility.yul\":31:876   */\ntag_20:\n    /* \"#utility.yul\":134:137   */\n  0x00\n    /* \"#utility.yul\":171:176   */\n  dup2\n    /* \"#utility.yul\":165:177   */\n  sload\n    /* \"#utility.yul\":200:236   */\n  tag_22\n    /* \"#utility.yul\":226:235   */\n  dup2\n    /* \"#utility.yul\":200:236   */\n  tag_9\n  jump\t// in\ntag_22:\n    /* \"#utility.yul\":252:341   */\n  tag_23\n    /* \"#utility.yul\":334:340   */\n  dup2\n    /* \"#utility.yul\":329:332   */\n  dup7\n    /* \"#utility.yul\":252:341   */\n  tag_24\n  jump\t// in\ntag_23:\n    /* \"#utility.yul\":245:341   */\n  swap5\n  pop\n    /* \"#utility.yul\":372:373   */\n  0x01\n    /* \"#utility.yul\":361:370   */\n  dup3\n    /* \"#utility.yul\":357:374   */\n  and\n    /* \"#utility.yul\":388:389   */\n  0x00\n    /* \"#utility.yul\":383:520   */\n  dup2\n  eq\n  tag_26\n  jumpi\n    /* \"#utility.yul\":534:535   */\n  0x01\n    /* \"#utility.yul\":529:870   */\n  dup2\n  eq\n  tag_27\n  jumpi\n    /* \"#utility.yul\":350:870   */\n  jump(tag_25)\n    /* \"#utility.yul\":383:520   */\ntag_26:\n    /* \"#utility.yul\":467:471   */\n  0xff\n    /* \"#utility.yul\":463:472   */\n  not\n    /* \"#utility.yul\":452:461   */\n  dup4\n    /* \"#utility.yul\":448:473   */\n  and\n    /* \"#utility.yul\":443:446   */\n  dup7\n    /* \"#utility.yul\":436:474   */\n  mstore\n    /* \"#utility.yul\":503:509   */\n  dup2\n    /* \"#utility.yul\":498:501   */\n  dup7\n    /* \"#utility.yul\":494:510   */\n  add\n    /* \"#utility.yul\":487:510   */\n  swap4\n  pop\n    /* \"#utility.yul\":383:520   */\n  jump(tag_25)\n    /* \"#utility.yul\":529:870   */\ntag_27:\n    /* \"#utility.yul\":596:634   */\n  tag_28\n    /* \"#utility.yul\":628:633   */\n  dup6\n    /* \"#utility.yul\":596:634   */\n  tag_29\n  jump\t// in\ntag_28:\n    /* \"#utility.yul\":656:657   */\n  0x00\n    /* \"#utility.yul\":670:824   */\ntag_30:\n    /* \"#utility.yul\":684:690   */\n  dup4\n    /* \"#utility.yul\":681:682   */\n  dup2\n    /* \"#utility.yul\":678:691   */\n  lt\n    /* \"#utility.yul\":670:824   */\n  iszero\n  tag_32\n  jumpi\n    /* \"#utility.yul\":758:765   */\n  dup2\n    /* \"#utility.yul\":752:766   */\n  sload\n    /* \"#utility.yul\":748:749   */\n  dup2\n    /* \"#utility.yul\":743:746   */\n  dup10\n    /* \"#utility.yul\":739:750   */\n  add\n    /* \"#utility.yul\":732:767   */\n  mstore\n    /* \"#utility.yul\":808:809   */\n  0x01\n    /* \"#utility.yul\":799:806   */\n  dup3\n    /* \"#utility.yul\":795:810   */\n  add\n    /* \"#utility.yul\":784:810   */\n  swap2\n  pop\n    /* \"#utility.yul\":706:710   */\n  0x20\n    /* \"#utility.yul\":703:704   */\n  dup2\n    /* \"#utility.yul\":699:711   */\n  add\n    /* \"#utility.yul\":694:711   */\n  swap1\n  pop\n    /* \"#utility.yul\":670:824   */\n  jump(tag_30)\ntag_32:\n    /* \"#utility.yul\":853:859   */\n  dup4\n    /* \"#utility.yul\":848:851   */\n  dup9\n    /* \"#utility.yul\":844:860   */\n  add\n    /* \"#utility.yul\":837:860   */\n  swap6\n  pop\n    /* \"#utility.yul\":536:870   */\n  pop\n  pop\n    /* \"#utility.yul\":350:870   */\ntag_25:\n  pop\n    /* \"#utility.yul\":138:876   */\n  pop\n  pop\n  swap3\n  swap2\n  pop\n  pop\n  jump\t// out\n    /* \"#utility.yul\":882:1305   */\ntag_5:\n    /* \"#utility.yul\":1056:1059   */\n  0x00\n    /* \"#utility.yul\":1078:1170   */\n  tag_34\n    /* \"#utility.yul\":1166:1169   */\n  dup3\n    /* \"#utility.yul\":1157:1163   */\n  dup6\n    /* \"#utility.yul\":1078:1170   */\n  tag_20\n  jump\t// in\ntag_34:\n    /* \"#utility.yul\":1071:1170   */\n  swap2\n  pop\n    /* \"#utility.yul\":1187:1279   */\n  tag_35\n    /* \"#utility.yul\":1275:1278   */\n  dup3\n    /* \"#utility.yul\":1266:1272   */\n  dup5\n    /* \"#utility.yul\":1187:1279   */\n  tag_20\n  jump\t// in\ntag_35:\n    /* \"#utility.yul\":1180:1279   */\n  swap2\n  pop\n    /* \"#utility.yul\":1296:1299   */\n  dup2\n    /* \"#utility.yul\":1289:1299   */\n  swap1\n  pop\n    /* \"#utility.yul\":1060:1305   */\n  swap4\n  swap3\n  pop\n  pop\n  pop\n  jump\t// out\n    /* \"#utility.yul\":1311:1452   */\ntag_29:\n    /* \"#utility.yul\":1360:1364   */\n  0x00\n    /* \"#utility.yul\":1383:1386   */\n  dup2\n    /* \"#utility.yul\":1375:1386   */\n  swap1\n  pop\n    /* \"#utility.yul\":1406:1409   */\n  dup2\n    /* \"#utility.yul\":1403:1404   */\n  0x00\n    /* \"#utility.yul\":1396:1410   */\n  mstore\n    /* \"#utility.yul\":1440:1444   */\n  0x20\n    /* \"#utility.yul\":1437:1438   */\n  0x00\n    /* \"#utility.yul\":1427:1445   */\n  keccak256\n    /* \"#utility.yul\":1419:1445   */\n  swap1\n  pop\n    /* \"#utility.yul\":1365:1452   */\n  swap2\n  swap1\n  pop\n  jump\t// out\n    /* \"#utility.yul\":1458:1606   */\ntag_24:\n    /* \"#utility.yul\":1560:1571   */\n  0x00\n    /* \"#utility.yul\":1597:1600   */\n  dup2\n    /* \"#utility.yul\":1582:1600   */\n  swap1\n  pop\n    /* \"#utility.yul\":1572:1606   */\n  swap3\n  swap2\n  pop\n  pop\n  jump\t// out\n    /* \"#utility.yul\":1612:1932   */\ntag_9:\n    /* \"#utility.yul\":1656:1662   */\n  0x00\n    /* \"#utility.yul\":1693:1694   */\n  0x02\n    /* \"#utility.yul\":1687:1691   */\n  dup3\n    /* \"#utility.yul\":1683:1695   */\n  div\n    /* \"#utility.yul\":1673:1695   */\n  swap1\n  pop\n    /* \"#utility.yul\":1740:1741   */\n  0x01\n    /* \"#utility.yul\":1734:1738   */\n  dup3\n    /* \"#utility.yul\":1730:1742   */\n  and\n    /* \"#utility.yul\":1761:1779   */\n  dup1\n    /* \"#utility.yul\":1751:1753   */\n  tag_39\n  jumpi\n    /* \"#utility.yul\":1817:1821   */\n  0x7f\n    /* \"#utility.yul\":1809:1815   */\n  dup3\n    /* \"#utility.yul\":1805:1822   */\n  and\n    /* \"#utility.yul\":1795:1822   */\n  swap2\n  pop\n    /* \"#utility.yul\":1751:1753   */\ntag_39:\n    /* \"#utility.yul\":1879:1881   */\n  0x20\n    /* \"#utility.yul\":1871:1877   */\n  dup3\n    /* \"#utility.yul\":1868:1882   */\n  lt\n    /* \"#utility.yul\":1848:1866   */\n  dup2\n    /* \"#utility.yul\":1845:1883   */\n  eq\n    /* \"#utility.yul\":1842:1844   */\n  iszero\n  tag_40\n  jumpi\n    /* \"#utility.yul\":1898:1916   */\n  tag_41\n  tag_42\n  jump\t// in\ntag_41:\n    /* \"#utility.yul\":1842:1844   */\ntag_40:\n    /* \"#utility.yul\":1663:1932   */\n  pop\n  swap2\n  swap1\n  pop\n  jump\t// out\n    /* \"#utility.yul\":1938:2118   */\ntag_42:\n    /* \"#utility.yul\":1986:2063   */\n  0x4e487b7100000000000000000000000000000000000000000000000000000000\n    /* \"#utility.yul\":1983:1984   */\n  0x00\n    /* \"#utility.yul\":1976:2064   */\n  mstore\n    /* \"#utility.yul\":2083:2087   */\n  0x22\n    /* \"#utility.yul\":2080:2081   */\n  0x04\n    /* \"#utility.yul\":2073:2088   */\n  mstore\n    /* \"#utility.yul\":2107:2111   */\n  0x24\n    /* \"#utility.yul\":2104:2105   */\n  0x00\n    /* \"#utility.yul\":2097:2112   */\n  revert\n    /* \"contracts/2_variable_modifiers.sol\":69:1283  contract VariableModifiers {... */\ntag_7:\n  dataSize(sub_0)\n  dup1\n  dataOffset(sub_0)\n  0x00\n  codecopy\n  0x00\n  return\nstop\n\nsub_0: assembly {\n        /* \"contracts/2_variable_modifiers.sol\":69:1283  contract VariableModifiers {... */\n      mstore(0x40, 0x80)\n      callvalue\n      dup1\n      iszero\n      tag_1\n      jumpi\n      0x00\n      dup1\n      revert\n    tag_1:\n      pop\n      jumpi(tag_2, lt(calldatasize, 0x04))\n      shr(0xe0, calldataload(0x00))\n      dup1\n      0x91d101af\n      gt\n      tag_18\n      jumpi\n      dup1\n      0xc4370ebf\n      gt\n      tag_19\n      jumpi\n      dup1\n      0xc4370ebf\n      eq\n      tag_14\n      jumpi\n      dup1\n      0xcd99a846\n      eq\n      tag_15\n      jumpi\n      dup1\n      0xff4479d8\n      eq\n      tag_16\n      jumpi\n      dup1\n      0xffae15ba\n      eq\n      tag_17\n      jumpi\n      jump(tag_2)\n    tag_19:\n      dup1\n      0x91d101af\n      eq\n      tag_10\n      jumpi\n      dup1\n      0xb38fee92\n      eq\n      tag_11\n      jumpi\n      dup1\n      0xc19d93fb\n      eq\n      tag_12\n      jumpi\n      dup1\n      0xc3da42b8\n      eq\n      tag_13\n      jumpi\n      jump(tag_2)\n    tag_18:\n      dup1\n      0x42fb0109\n      gt\n      tag_20\n      jumpi\n      dup1\n      0x42fb0109\n      eq\n      tag_6\n      jumpi\n      dup1\n      0x62b57af4\n      eq\n      tag_7\n      jumpi\n      dup1\n      0x8da5cb5b\n      eq\n      tag_8\n      jumpi\n      dup1\n      0x90e1437c\n      eq\n      tag_9\n      jumpi\n      jump(tag_2)\n    tag_20:\n      dup1\n      0x09bd5a60\n      eq\n      tag_3\n      jumpi\n      dup1\n      0x0b9239fb\n      eq\n      tag_4\n      jumpi\n      dup1\n      0x222a90ac\n      eq\n      tag_5\n      jumpi\n    tag_2:\n      0x00\n      dup1\n      revert\n        /* \"contracts/2_variable_modifiers.sol\":633:697  bytes32 public hash = keccak256(abi.encodePacked(name, surname)) */\n    tag_3:\n      tag_21\n      tag_22\n      jump\t// in\n    tag_21:\n      mload(0x40)\n      tag_23\n      swap2\n      swap1\n      tag_24\n      jump\t// in\n    tag_23:\n      mload(0x40)\n      dup1\n      swap2\n      sub\n      swap1\n      return\n        /* \"contracts/2_variable_modifiers.sol\":742:815  address public friendAddress = 0x5B38Da6a701c568545dCfcB03FcB875f56beddC4 */\n    tag_4:\n      tag_25\n      tag_26\n      jump\t// in\n    tag_25:\n      mload(0x40)\n      tag_27\n      swap2\n      swap1\n      tag_28\n      jump\t// in\n    tag_27:\n      mload(0x40)\n      dup1\n      swap2\n      sub\n      swap1\n      return\n        /* \"contracts/2_variable_modifiers.sol\":461:490  bool public boolFalse = false */\n    tag_5:\n      tag_29\n      tag_30\n      jump\t// in\n    tag_29:\n      mload(0x40)\n      tag_31\n      swap2\n      swap1\n      tag_32\n      jump\t// in\n    tag_31:\n      mload(0x40)\n      dup1\n      swap2\n      sub\n      swap1\n      return\n        /* \"contracts/2_variable_modifiers.sol\":428:455  bool public boolTrue = true */\n    tag_6:\n      tag_33\n      tag_34\n      jump\t// in\n    tag_33:\n      mload(0x40)\n      tag_35\n      swap2\n      swap1\n      tag_32\n      jump\t// in\n    tag_35:\n      mload(0x40)\n      dup1\n      swap2\n      sub\n      swap1\n      return\n        /* \"contracts/2_variable_modifiers.sol\":1074:1139  function changeToAda() public {... */\n    tag_7:\n      tag_36\n      tag_37\n      jump\t// in\n    tag_36:\n      stop\n        /* \"contracts/2_variable_modifiers.sol\":821:854  address public owner = msg.sender */\n    tag_8:\n      tag_38\n      tag_39\n      jump\t// in\n    tag_38:\n      mload(0x40)\n      tag_40\n      swap2\n      swap1\n      tag_28\n      jump\t// in\n    tag_40:\n      mload(0x40)\n      dup1\n      swap2\n      sub\n      swap1\n      return\n        /* \"contracts/2_variable_modifiers.sol\":358:387  string public pl = \"Solidity\" */\n    tag_9:\n      tag_41\n      tag_42\n      jump\t// in\n    tag_41:\n      mload(0x40)\n      tag_43\n      swap2\n      swap1\n      tag_44\n      jump\t// in\n    tag_43:\n      mload(0x40)\n      dup1\n      swap2\n      sub\n      swap1\n      return\n        /* \"contracts/2_variable_modifiers.sol\":1216:1281  function changeToBTC() public {... */\n    tag_10:\n      tag_45\n      tag_46\n      jump\t// in\n    tag_45:\n      stop\n        /* \"contracts/2_variable_modifiers.sol\":302:323  string public surname */\n    tag_11:\n      tag_47\n      tag_48\n      jump\t// in\n    tag_47:\n      mload(0x40)\n      tag_49\n      swap2\n      swap1\n      tag_44\n      jump\t// in\n    tag_49:\n      mload(0x40)\n      dup1\n      swap2\n      sub\n      swap1\n      return\n        /* \"contracts/2_variable_modifiers.sol\":973:992  tokens public state */\n    tag_12:\n      tag_50\n      tag_51\n      jump\t// in\n    tag_50:\n      mload(0x40)\n      tag_52\n      swap2\n      swap1\n      tag_53\n      jump\t// in\n    tag_52:\n      mload(0x40)\n      dup1\n      swap2\n      sub\n      swap1\n      return\n        /* \"contracts/2_variable_modifiers.sol\":176:197  uint16 public c = 811 */\n    tag_13:\n      tag_54\n      tag_55\n      jump\t// in\n    tag_54:\n      mload(0x40)\n      tag_56\n      swap2\n      swap1\n      tag_57\n      jump\t// in\n    tag_56:\n      mload(0x40)\n      dup1\n      swap2\n      sub\n      swap1\n      return\n        /* \"contracts/2_variable_modifiers.sol\":1145:1210  function changeToBNB() public {... */\n    tag_14:\n      tag_58\n      tag_59\n      jump\t// in\n    tag_58:\n      stop\n        /* \"contracts/2_variable_modifiers.sol\":918:967  tokens public constant defaultChoice = tokens.BTC */\n    tag_15:\n      tag_60\n      tag_61\n      jump\t// in\n    tag_60:\n      mload(0x40)\n      tag_62\n      swap2\n      swap1\n      tag_53\n      jump\t// in\n    tag_62:\n      mload(0x40)\n      dup1\n      swap2\n      sub\n      swap1\n      return\n        /* \"contracts/2_variable_modifiers.sol\":999:1068  function changeToEther() public {... */\n    tag_16:\n      tag_63\n      tag_64\n      jump\t// in\n    tag_63:\n      stop\n        /* \"contracts/2_variable_modifiers.sol\":260:281  int32 public e = -255 */\n    tag_17:\n      tag_65\n      tag_66\n      jump\t// in\n    tag_65:\n      mload(0x40)\n      tag_67\n      swap2\n      swap1\n      tag_68\n      jump\t// in\n    tag_67:\n      mload(0x40)\n      dup1\n      swap2\n      sub\n      swap1\n      return\n        /* \"contracts/2_variable_modifiers.sol\":633:697  bytes32 public hash = keccak256(abi.encodePacked(name, surname)) */\n    tag_22:\n      sload(0x0b)\n      dup2\n      jump\t// out\n        /* \"contracts/2_variable_modifiers.sol\":742:815  address public friendAddress = 0x5B38Da6a701c568545dCfcB03FcB875f56beddC4 */\n    tag_26:\n      0x0d\n      0x00\n      swap1\n      sload\n      swap1\n      0x0100\n      exp\n      swap1\n      div\n      0xffffffffffffffffffffffffffffffffffffffff\n      and\n      dup2\n      jump\t// out\n        /* \"contracts/2_variable_modifiers.sol\":461:490  bool public boolFalse = false */\n    tag_30:\n      0x07\n      0x02\n      swap1\n      sload\n      swap1\n      0x0100\n      exp\n      swap1\n      div\n      0xff\n      and\n      dup2\n      jump\t// out\n        /* \"contracts/2_variable_modifiers.sol\":428:455  bool public boolTrue = true */\n    tag_34:\n      0x07\n      0x01\n      swap1\n      sload\n      swap1\n      0x0100\n      exp\n      swap1\n      div\n      0xff\n      and\n      dup2\n      jump\t// out\n        /* \"contracts/2_variable_modifiers.sol\":1074:1139  function changeToAda() public {... */\n    tag_37:\n        /* \"contracts/2_variable_modifiers.sol\":1122:1132  tokens.ADA */\n      0x00\n        /* \"contracts/2_variable_modifiers.sol\":1114:1119  state */\n      0x0e\n      0x14\n        /* \"contracts/2_variable_modifiers.sol\":1114:1132  state = tokens.ADA */\n      0x0100\n      exp\n      dup2\n      sload\n      dup2\n      0xff\n      mul\n      not\n      and\n      swap1\n      dup4\n      0x03\n      dup2\n      gt\n      iszero\n      tag_70\n      jumpi\n      tag_71\n      tag_72\n      jump\t// in\n    tag_71:\n    tag_70:\n      mul\n      or\n      swap1\n      sstore\n      pop\n        /* \"contracts/2_variable_modifiers.sol\":1074:1139  function changeToAda() public {... */\n      jump\t// out\n        /* \"contracts/2_variable_modifiers.sol\":821:854  address public owner = msg.sender */\n    tag_39:\n      0x0e\n      0x00\n      swap1\n      sload\n      swap1\n      0x0100\n      exp\n      swap1\n      div\n      0xffffffffffffffffffffffffffffffffffffffff\n      and\n      dup2\n      jump\t// out\n        /* \"contracts/2_variable_modifiers.sol\":358:387  string public pl = \"Solidity\" */\n    tag_42:\n      0x06\n      dup1\n      sload\n      tag_73\n      swap1\n      tag_74\n      jump\t// in\n    tag_73:\n      dup1\n      0x1f\n      add\n      0x20\n      dup1\n      swap2\n      div\n      mul\n      0x20\n      add\n      mload(0x40)\n      swap1\n      dup2\n      add\n      0x40\n      mstore\n      dup1\n      swap3\n      swap2\n      swap1\n      dup2\n      dup2\n      mstore\n      0x20\n      add\n      dup3\n      dup1\n      sload\n      tag_75\n      swap1\n      tag_74\n      jump\t// in\n    tag_75:\n      dup1\n      iszero\n      tag_76\n      jumpi\n      dup1\n      0x1f\n      lt\n      tag_77\n      jumpi\n      0x0100\n      dup1\n      dup4\n      sload\n      div\n      mul\n      dup4\n      mstore\n      swap2\n      0x20\n      add\n      swap2\n      jump(tag_76)\n    tag_77:\n      dup3\n      add\n      swap2\n      swap1\n      0x00\n      mstore\n      keccak256(0x00, 0x20)\n      swap1\n    tag_78:\n      dup2\n      sload\n      dup2\n      mstore\n      swap1\n      0x01\n      add\n      swap1\n      0x20\n      add\n      dup1\n      dup4\n      gt\n      tag_78\n      jumpi\n      dup3\n      swap1\n      sub\n      0x1f\n      and\n      dup3\n      add\n      swap2\n    tag_76:\n      pop\n      pop\n      pop\n      pop\n      pop\n      dup2\n      jump\t// out\n        /* \"contracts/2_variable_modifiers.sol\":1216:1281  function changeToBTC() public {... */\n    tag_46:\n        /* \"contracts/2_variable_modifiers.sol\":1264:1274  tokens.BTC */\n      0x03\n        /* \"contracts/2_variable_modifiers.sol\":1256:1261  state */\n      0x0e\n      0x14\n        /* \"contracts/2_variable_modifiers.sol\":1256:1274  state = tokens.BTC */\n      0x0100\n      exp\n      dup2\n      sload\n      dup2\n      0xff\n      mul\n      not\n      and\n      swap1\n      dup4\n      0x03\n      dup2\n      gt\n      iszero\n      tag_80\n      jumpi\n      tag_81\n      tag_72\n      jump\t// in\n    tag_81:\n    tag_80:\n      mul\n      or\n      swap1\n      sstore\n      pop\n        /* \"contracts/2_variable_modifiers.sol\":1216:1281  function changeToBTC() public {... */\n      jump\t// out\n        /* \"contracts/2_variable_modifiers.sol\":302:323  string public surname */\n    tag_48:\n      0x04\n      dup1\n      sload\n      tag_82\n      swap1\n      tag_74\n      jump\t// in\n    tag_82:\n      dup1\n      0x1f\n      add\n      0x20\n      dup1\n      swap2\n      div\n      mul\n      0x20\n      add\n      mload(0x40)\n      swap1\n      dup2\n      add\n      0x40\n      mstore\n      dup1\n      swap3\n      swap2\n      swap1\n      dup2\n      dup2\n      mstore\n      0x20\n      add\n      dup3\n      dup1\n      sload\n      tag_83\n      swap1\n      tag_74\n      jump\t// in\n    tag_83:\n      dup1\n      iszero\n      tag_84\n      jumpi\n      dup1\n      0x1f\n      lt\n      tag_85\n      jumpi\n      0x0100\n      dup1\n      dup4\n      sload\n      div\n      mul\n      dup4\n      mstore\n      swap2\n      0x20\n      add\n      swap2\n      jump(tag_84)\n    tag_85:\n      dup3\n      add\n      swap2\n      swap1\n      0x00\n      mstore\n      keccak256(0x00, 0x20)\n      swap1\n    tag_86:\n      dup2\n      sload\n      dup2\n      mstore\n      swap1\n      0x01\n      add\n      swap1\n      0x20\n      add\n      dup1\n      dup4\n      gt\n      tag_86\n      jumpi\n      dup3\n      swap1\n      sub\n      0x1f\n      and\n      dup3\n      add\n      swap2\n    tag_84:\n      pop\n      pop\n      pop\n      pop\n      pop\n      dup2\n      jump\t// out\n        /* \"contracts/2_variable_modifiers.sol\":973:992  tokens public state */\n    tag_51:\n      0x0e\n      0x14\n      swap1\n      sload\n      swap1\n      0x0100\n      exp\n      swap1\n      div\n      0xff\n      and\n      dup2\n      jump\t// out\n        /* \"contracts/2_variable_modifiers.sol\":176:197  uint16 public c = 811 */\n    tag_55:\n      0x01\n      dup1\n      sload\n      swap1\n      0x0100\n      exp\n      swap1\n      div\n      0xffff\n      and\n      dup2\n      jump\t// out\n        /* \"contracts/2_variable_modifiers.sol\":1145:1210  function changeToBNB() public {... */\n    tag_59:\n        /* \"contracts/2_variable_modifiers.sol\":1193:1203  tokens.BNB */\n      0x02\n        /* \"contracts/2_variable_modifiers.sol\":1185:1190  state */\n      0x0e\n      0x14\n        /* \"contracts/2_variable_modifiers.sol\":1185:1203  state = tokens.BNB */\n      0x0100\n      exp\n      dup2\n      sload\n      dup2\n      0xff\n      mul\n      not\n      and\n      swap1\n      dup4\n      0x03\n      dup2\n      gt\n      iszero\n      tag_88\n      jumpi\n      tag_89\n      tag_72\n      jump\t// in\n    tag_89:\n    tag_88:\n      mul\n      or\n      swap1\n      sstore\n      pop\n        /* \"contracts/2_variable_modifiers.sol\":1145:1210  function changeToBNB() public {... */\n      jump\t// out\n        /* \"contracts/2_variable_modifiers.sol\":918:967  tokens public constant defaultChoice = tokens.BTC */\n    tag_61:\n        /* \"contracts/2_variable_modifiers.sol\":957:967  tokens.BTC */\n      0x03\n        /* \"contracts/2_variable_modifiers.sol\":918:967  tokens public constant defaultChoice = tokens.BTC */\n      dup2\n      jump\t// out\n        /* \"contracts/2_variable_modifiers.sol\":999:1068  function changeToEther() public {... */\n    tag_64:\n        /* \"contracts/2_variable_modifiers.sol\":1049:1061  tokens.ETHER */\n      0x01\n        /* \"contracts/2_variable_modifiers.sol\":1041:1046  state */\n      0x0e\n      0x14\n        /* \"contracts/2_variable_modifiers.sol\":1041:1061  state = tokens.ETHER */\n      0x0100\n      exp\n      dup2\n      sload\n      dup2\n      0xff\n      mul\n      not\n      and\n      swap1\n      dup4\n      0x03\n      dup2\n      gt\n      iszero\n      tag_91\n      jumpi\n      tag_92\n      tag_72\n      jump\t// in\n    tag_92:\n    tag_91:\n      mul\n      or\n      swap1\n      sstore\n      pop\n        /* \"contracts/2_variable_modifiers.sol\":999:1068  function changeToEther() public {... */\n      jump\t// out\n        /* \"contracts/2_variable_modifiers.sol\":260:281  int32 public e = -255 */\n    tag_66:\n      0x03\n      0x00\n      swap1\n      sload\n      swap1\n      0x0100\n      exp\n      swap1\n      div\n      0x03\n      signextend\n      dup2\n      jump\t// out\n        /* \"#utility.yul\":7:125   */\n    tag_94:\n        /* \"#utility.yul\":94:118   */\n      tag_96\n        /* \"#utility.yul\":112:117   */\n      dup2\n        /* \"#utility.yul\":94:118   */\n      tag_97\n      jump\t// in\n    tag_96:\n        /* \"#utility.yul\":89:92   */\n      dup3\n        /* \"#utility.yul\":82:119   */\n      mstore\n        /* \"#utility.yul\":72:125   */\n      pop\n      pop\n      jump\t// out\n        /* \"#utility.yul\":131:240   */\n    tag_98:\n        /* \"#utility.yul\":212:233   */\n      tag_100\n        /* \"#utility.yul\":227:232   */\n      dup2\n        /* \"#utility.yul\":212:233   */\n      tag_101\n      jump\t// in\n    tag_100:\n        /* \"#utility.yul\":207:210   */\n      dup3\n        /* \"#utility.yul\":200:234   */\n      mstore\n        /* \"#utility.yul\":190:240   */\n      pop\n      pop\n      jump\t// out\n        /* \"#utility.yul\":246:364   */\n    tag_102:\n        /* \"#utility.yul\":333:357   */\n      tag_104\n        /* \"#utility.yul\":351:356   */\n      dup2\n        /* \"#utility.yul\":333:357   */\n      tag_105\n      jump\t// in\n    tag_104:\n        /* \"#utility.yul\":328:331   */\n      dup3\n        /* \"#utility.yul\":321:358   */\n      mstore\n        /* \"#utility.yul\":311:364   */\n      pop\n      pop\n      jump\t// out\n        /* \"#utility.yul\":370:515   */\n    tag_106:\n        /* \"#utility.yul\":464:508   */\n      tag_108\n        /* \"#utility.yul\":502:507   */\n      dup2\n        /* \"#utility.yul\":464:508   */\n      tag_109\n      jump\t// in\n    tag_108:\n        /* \"#utility.yul\":459:462   */\n      dup3\n        /* \"#utility.yul\":452:509   */\n      mstore\n        /* \"#utility.yul\":442:515   */\n      pop\n      pop\n      jump\t// out\n        /* \"#utility.yul\":521:633   */\n    tag_110:\n        /* \"#utility.yul\":604:626   */\n      tag_112\n        /* \"#utility.yul\":620:625   */\n      dup2\n        /* \"#utility.yul\":604:626   */\n      tag_113\n      jump\t// in\n    tag_112:\n        /* \"#utility.yul\":599:602   */\n      dup3\n        /* \"#utility.yul\":592:627   */\n      mstore\n        /* \"#utility.yul\":582:633   */\n      pop\n      pop\n      jump\t// out\n        /* \"#utility.yul\":639:1003   */\n    tag_114:\n        /* \"#utility.yul\":727:730   */\n      0x00\n        /* \"#utility.yul\":755:794   */\n      tag_116\n        /* \"#utility.yul\":788:793   */\n      dup3\n        /* \"#utility.yul\":755:794   */\n      tag_117\n      jump\t// in\n    tag_116:\n        /* \"#utility.yul\":810:881   */\n      tag_118\n        /* \"#utility.yul\":874:880   */\n      dup2\n        /* \"#utility.yul\":869:872   */\n      dup6\n        /* \"#utility.yul\":810:881   */\n      tag_119\n      jump\t// in\n    tag_118:\n        /* \"#utility.yul\":803:881   */\n      swap4\n      pop\n        /* \"#utility.yul\":890:942   */\n      tag_120\n        /* \"#utility.yul\":935:941   */\n      dup2\n        /* \"#utility.yul\":930:933   */\n      dup6\n        /* \"#utility.yul\":923:927   */\n      0x20\n        /* \"#utility.yul\":916:921   */\n      dup7\n        /* \"#utility.yul\":912:928   */\n      add\n        /* \"#utility.yul\":890:942   */\n      tag_121\n      jump\t// in\n    tag_120:\n        /* \"#utility.yul\":967:996   */\n      tag_122\n        /* \"#utility.yul\":989:995   */\n      dup2\n        /* \"#utility.yul\":967:996   */\n      tag_123\n      jump\t// in\n    tag_122:\n        /* \"#utility.yul\":962:965   */\n      dup5\n        /* \"#utility.yul\":958:997   */\n      add\n        /* \"#utility.yul\":951:997   */\n      swap2\n      pop\n        /* \"#utility.yul\":731:1003   */\n      pop\n      swap3\n      swap2\n      pop\n      pop\n      jump\t// out\n        /* \"#utility.yul\":1009:1124   */\n    tag_124:\n        /* \"#utility.yul\":1094:1117   */\n      tag_126\n        /* \"#utility.yul\":1111:1116   */\n      dup2\n        /* \"#utility.yul\":1094:1117   */\n      tag_127\n      jump\t// in\n    tag_126:\n        /* \"#utility.yul\":1089:1092   */\n      dup3\n        /* \"#utility.yul\":1082:1118   */\n      mstore\n        /* \"#utility.yul\":1072:1124   */\n      pop\n      pop\n      jump\t// out\n        /* \"#utility.yul\":1130:1352   */\n    tag_28:\n        /* \"#utility.yul\":1223:1227   */\n      0x00\n        /* \"#utility.yul\":1261:1263   */\n      0x20\n        /* \"#utility.yul\":1250:1259   */\n      dup3\n        /* \"#utility.yul\":1246:1264   */\n      add\n        /* \"#utility.yul\":1238:1264   */\n      swap1\n      pop\n        /* \"#utility.yul\":1274:1345   */\n      tag_129\n        /* \"#utility.yul\":1342:1343   */\n      0x00\n        /* \"#utility.yul\":1331:1340   */\n      dup4\n        /* \"#utility.yul\":1327:1344   */\n      add\n        /* \"#utility.yul\":1318:1324   */\n      dup5\n        /* \"#utility.yul\":1274:1345   */\n      tag_94\n      jump\t// in\n    tag_129:\n        /* \"#utility.yul\":1228:1352   */\n      swap3\n      swap2\n      pop\n      pop\n      jump\t// out\n        /* \"#utility.yul\":1358:1568   */\n    tag_32:\n        /* \"#utility.yul\":1445:1449   */\n      0x00\n        /* \"#utility.yul\":1483:1485   */\n      0x20\n        /* \"#utility.yul\":1472:1481   */\n      dup3\n        /* \"#utility.yul\":1468:1486   */\n      add\n        /* \"#utility.yul\":1460:1486   */\n      swap1\n      pop\n        /* \"#utility.yul\":1496:1561   */\n      tag_131\n        /* \"#utility.yul\":1558:1559   */\n      0x00\n        /* \"#utility.yul\":1547:1556   */\n      dup4\n        /* \"#utility.yul\":1543:1560   */\n      add\n        /* \"#utility.yul\":1534:1540   */\n      dup5\n        /* \"#utility.yul\":1496:1561   */\n      tag_98\n      jump\t// in\n    tag_131:\n        /* \"#utility.yul\":1450:1568   */\n      swap3\n      swap2\n      pop\n      pop\n      jump\t// out\n        /* \"#utility.yul\":1574:1796   */\n    tag_24:\n        /* \"#utility.yul\":1667:1671   */\n      0x00\n        /* \"#utility.yul\":1705:1707   */\n      0x20\n        /* \"#utility.yul\":1694:1703   */\n      dup3\n        /* \"#utility.yul\":1690:1708   */\n      add\n        /* \"#utility.yul\":1682:1708   */\n      swap1\n      pop\n        /* \"#utility.yul\":1718:1789   */\n      tag_133\n        /* \"#utility.yul\":1786:1787   */\n      0x00\n        /* \"#utility.yul\":1775:1784   */\n      dup4\n        /* \"#utility.yul\":1771:1788   */\n      add\n        /* \"#utility.yul\":1762:1768   */\n      dup5\n        /* \"#utility.yul\":1718:1789   */\n      tag_102\n      jump\t// in\n    tag_133:\n        /* \"#utility.yul\":1672:1796   */\n      swap3\n      swap2\n      pop\n      pop\n      jump\t// out\n        /* \"#utility.yul\":1802:2038   */\n    tag_53:\n        /* \"#utility.yul\":1902:1906   */\n      0x00\n        /* \"#utility.yul\":1940:1942   */\n      0x20\n        /* \"#utility.yul\":1929:1938   */\n      dup3\n        /* \"#utility.yul\":1925:1943   */\n      add\n        /* \"#utility.yul\":1917:1943   */\n      swap1\n      pop\n        /* \"#utility.yul\":1953:2031   */\n      tag_135\n        /* \"#utility.yul\":2028:2029   */\n      0x00\n        /* \"#utility.yul\":2017:2026   */\n      dup4\n        /* \"#utility.yul\":2013:2030   */\n      add\n        /* \"#utility.yul\":2004:2010   */\n      dup5\n        /* \"#utility.yul\":1953:2031   */\n      tag_106\n      jump\t// in\n    tag_135:\n        /* \"#utility.yul\":1907:2038   */\n      swap3\n      swap2\n      pop\n      pop\n      jump\t// out\n        /* \"#utility.yul\":2044:2258   */\n    tag_68:\n        /* \"#utility.yul\":2133:2137   */\n      0x00\n        /* \"#utility.yul\":2171:2173   */\n      0x20\n        /* \"#utility.yul\":2160:2169   */\n      dup3\n        /* \"#utility.yul\":2156:2174   */\n      add\n        /* \"#utility.yul\":2148:2174   */\n      swap1\n      pop\n        /* \"#utility.yul\":2184:2251   */\n      tag_137\n        /* \"#utility.yul\":2248:2249   */\n      0x00\n        /* \"#utility.yul\":2237:2246   */\n      dup4\n        /* \"#utility.yul\":2233:2250   */\n      add\n        /* \"#utility.yul\":2224:2230   */\n      dup5\n        /* \"#utility.yul\":2184:2251   */\n      tag_110\n      jump\t// in\n    tag_137:\n        /* \"#utility.yul\":2138:2258   */\n      swap3\n      swap2\n      pop\n      pop\n      jump\t// out\n        /* \"#utility.yul\":2264:2577   */\n    tag_44:\n        /* \"#utility.yul\":2377:2381   */\n      0x00\n        /* \"#utility.yul\":2415:2417   */\n      0x20\n        /* \"#utility.yul\":2404:2413   */\n      dup3\n        /* \"#utility.yul\":2400:2418   */\n      add\n        /* \"#utility.yul\":2392:2418   */\n      swap1\n      pop\n        /* \"#utility.yul\":2464:2473   */\n      dup2\n        /* \"#utility.yul\":2458:2462   */\n      dup2\n        /* \"#utility.yul\":2454:2474   */\n      sub\n        /* \"#utility.yul\":2450:2451   */\n      0x00\n        /* \"#utility.yul\":2439:2448   */\n      dup4\n        /* \"#utility.yul\":2435:2452   */\n      add\n        /* \"#utility.yul\":2428:2475   */\n      mstore\n        /* \"#utility.yul\":2492:2570   */\n      tag_139\n        /* \"#utility.yul\":2565:2569   */\n      dup2\n        /* \"#utility.yul\":2556:2562   */\n      dup5\n        /* \"#utility.yul\":2492:2570   */\n      tag_114\n      jump\t// in\n    tag_139:\n        /* \"#utility.yul\":2484:2570   */\n      swap1\n      pop\n        /* \"#utility.yul\":2382:2577   */\n      swap3\n      swap2\n      pop\n      pop\n      jump\t// out\n        /* \"#utility.yul\":2583:2801   */\n    tag_57:\n        /* \"#utility.yul\":2674:2678   */\n      0x00\n        /* \"#utility.yul\":2712:2714   */\n      0x20\n        /* \"#utility.yul\":2701:2710   */\n      dup3\n        /* \"#utility.yul\":2697:2715   */\n      add\n        /* \"#utility.yul\":2689:2715   */\n      swap1\n      pop\n        /* \"#utility.yul\":2725:2794   */\n      tag_141\n        /* \"#utility.yul\":2791:2792   */\n      0x00\n        /* \"#utility.yul\":2780:2789   */\n      dup4\n        /* \"#utility.yul\":2776:2793   */\n      add\n        /* \"#utility.yul\":2767:2773   */\n      dup5\n        /* \"#utility.yul\":2725:2794   */\n      tag_124\n      jump\t// in\n    tag_141:\n        /* \"#utility.yul\":2679:2801   */\n      swap3\n      swap2\n      pop\n      pop\n      jump\t// out\n        /* \"#utility.yul\":2807:2906   */\n    tag_117:\n        /* \"#utility.yul\":2859:2865   */\n      0x00\n        /* \"#utility.yul\":2893:2898   */\n      dup2\n        /* \"#utility.yul\":2887:2899   */\n      mload\n        /* \"#utility.yul\":2877:2899   */\n      swap1\n      pop\n        /* \"#utility.yul\":2866:2906   */\n      swap2\n      swap1\n      pop\n      jump\t// out\n        /* \"#utility.yul\":2912:3081   */\n    tag_119:\n        /* \"#utility.yul\":2996:3007   */\n      0x00\n        /* \"#utility.yul\":3030:3036   */\n      dup3\n        /* \"#utility.yul\":3025:3028   */\n      dup3\n        /* \"#utility.yul\":3018:3037   */\n      mstore\n        /* \"#utility.yul\":3070:3074   */\n      0x20\n        /* \"#utility.yul\":3065:3068   */\n      dup3\n        /* \"#utility.yul\":3061:3075   */\n      add\n        /* \"#utility.yul\":3046:3075   */\n      swap1\n      pop\n        /* \"#utility.yul\":3008:3081   */\n      swap3\n      swap2\n      pop\n      pop\n      jump\t// out\n        /* \"#utility.yul\":3087:3183   */\n    tag_97:\n        /* \"#utility.yul\":3124:3131   */\n      0x00\n        /* \"#utility.yul\":3153:3177   */\n      tag_145\n        /* \"#utility.yul\":3171:3176   */\n      dup3\n        /* \"#utility.yul\":3153:3177   */\n      tag_146\n      jump\t// in\n    tag_145:\n        /* \"#utility.yul\":3142:3177   */\n      swap1\n      pop\n        /* \"#utility.yul\":3132:3183   */\n      swap2\n      swap1\n      pop\n      jump\t// out\n        /* \"#utility.yul\":3189:3279   */\n    tag_101:\n        /* \"#utility.yul\":3223:3230   */\n      0x00\n        /* \"#utility.yul\":3266:3271   */\n      dup2\n        /* \"#utility.yul\":3259:3272   */\n      iszero\n        /* \"#utility.yul\":3252:3273   */\n      iszero\n        /* \"#utility.yul\":3241:3273   */\n      swap1\n      pop\n        /* \"#utility.yul\":3231:3279   */\n      swap2\n      swap1\n      pop\n      jump\t// out\n        /* \"#utility.yul\":3285:3362   */\n    tag_105:\n        /* \"#utility.yul\":3322:3329   */\n      0x00\n        /* \"#utility.yul\":3351:3356   */\n      dup2\n        /* \"#utility.yul\":3340:3356   */\n      swap1\n      pop\n        /* \"#utility.yul\":3330:3362   */\n      swap2\n      swap1\n      pop\n      jump\t// out\n        /* \"#utility.yul\":3368:3497   */\n    tag_149:\n        /* \"#utility.yul\":3414:3421   */\n      0x00\n        /* \"#utility.yul\":3443:3448   */\n      dup2\n        /* \"#utility.yul\":3432:3448   */\n      swap1\n      pop\n        /* \"#utility.yul\":3449:3491   */\n      tag_151\n        /* \"#utility.yul\":3485:3490   */\n      dup3\n        /* \"#utility.yul\":3449:3491   */\n      tag_152\n      jump\t// in\n    tag_151:\n        /* \"#utility.yul\":3422:3497   */\n      swap2\n      swap1\n      pop\n      jump\t// out\n        /* \"#utility.yul\":3503:3593   */\n    tag_113:\n        /* \"#utility.yul\":3538:3545   */\n      0x00\n        /* \"#utility.yul\":3581:3586   */\n      dup2\n        /* \"#utility.yul\":3578:3579   */\n      0x03\n        /* \"#utility.yul\":3567:3587   */\n      signextend\n        /* \"#utility.yul\":3556:3587   */\n      swap1\n      pop\n        /* \"#utility.yul\":3546:3593   */\n      swap2\n      swap1\n      pop\n      jump\t// out\n        /* \"#utility.yul\":3599:3688   */\n    tag_127:\n        /* \"#utility.yul\":3635:3642   */\n      0x00\n        /* \"#utility.yul\":3675:3681   */\n      0xffff\n        /* \"#utility.yul\":3668:3673   */\n      dup3\n        /* \"#utility.yul\":3664:3682   */\n      and\n        /* \"#utility.yul\":3653:3682   */\n      swap1\n      pop\n        /* \"#utility.yul\":3643:3688   */\n      swap2\n      swap1\n      pop\n      jump\t// out\n        /* \"#utility.yul\":3694:3820   */\n    tag_146:\n        /* \"#utility.yul\":3731:3738   */\n      0x00\n        /* \"#utility.yul\":3771:3813   */\n      0xffffffffffffffffffffffffffffffffffffffff\n        /* \"#utility.yul\":3764:3769   */\n      dup3\n        /* \"#utility.yul\":3760:3814   */\n      and\n        /* \"#utility.yul\":3749:3814   */\n      swap1\n      pop\n        /* \"#utility.yul\":3739:3820   */\n      swap2\n      swap1\n      pop\n      jump\t// out\n        /* \"#utility.yul\":3826:3955   */\n    tag_109:\n        /* \"#utility.yul\":3883:3892   */\n      0x00\n        /* \"#utility.yul\":3916:3949   */\n      tag_157\n        /* \"#utility.yul\":3943:3948   */\n      dup3\n        /* \"#utility.yul\":3916:3949   */\n      tag_149\n      jump\t// in\n    tag_157:\n        /* \"#utility.yul\":3903:3949   */\n      swap1\n      pop\n        /* \"#utility.yul\":3893:3955   */\n      swap2\n      swap1\n      pop\n      jump\t// out\n        /* \"#utility.yul\":3961:4268   */\n    tag_121:\n        /* \"#utility.yul\":4029:4030   */\n      0x00\n        /* \"#utility.yul\":4039:4152   */\n    tag_159:\n        /* \"#utility.yul\":4053:4059   */\n      dup4\n        /* \"#utility.yul\":4050:4051   */\n      dup2\n        /* \"#utility.yul\":4047:4060   */\n      lt\n        /* \"#utility.yul\":4039:4152   */\n      iszero\n      tag_161\n      jumpi\n        /* \"#utility.yul\":4138:4139   */\n      dup1\n        /* \"#utility.yul\":4133:4136   */\n      dup3\n        /* \"#utility.yul\":4129:4140   */\n      add\n        /* \"#utility.yul\":4123:4141   */\n      mload\n        /* \"#utility.yul\":4119:4120   */\n      dup2\n        /* \"#utility.yul\":4114:4117   */\n      dup5\n        /* \"#utility.yul\":4110:4121   */\n      add\n        /* \"#utility.yul\":4103:4142   */\n      mstore\n        /* \"#utility.yul\":4075:4077   */\n      0x20\n        /* \"#utility.yul\":4072:4073   */\n      dup2\n        /* \"#utility.yul\":4068:4078   */\n      add\n        /* \"#utility.yul\":4063:4078   */\n      swap1\n      pop\n        /* \"#utility.yul\":4039:4152   */\n      jump(tag_159)\n    tag_161:\n        /* \"#utility.yul\":4170:4176   */\n      dup4\n        /* \"#utility.yul\":4167:4168   */\n      dup2\n        /* \"#utility.yul\":4164:4177   */\n      gt\n        /* \"#utility.yul\":4161:4163   */\n      iszero\n      tag_162\n      jumpi\n        /* \"#utility.yul\":4250:4251   */\n      0x00\n        /* \"#utility.yul\":4241:4247   */\n      dup5\n        /* \"#utility.yul\":4236:4239   */\n      dup5\n        /* \"#utility.yul\":4232:4248   */\n      add\n        /* \"#utility.yul\":4225:4252   */\n      mstore\n        /* \"#utility.yul\":4161:4163   */\n    tag_162:\n        /* \"#utility.yul\":4010:4268   */\n      pop\n      pop\n      pop\n      pop\n      jump\t// out\n        /* \"#utility.yul\":4274:4594   */\n    tag_74:\n        /* \"#utility.yul\":4318:4324   */\n      0x00\n        /* \"#utility.yul\":4355:4356   */\n      0x02\n        /* \"#utility.yul\":4349:4353   */\n      dup3\n        /* \"#utility.yul\":4345:4357   */\n      div\n        /* \"#utility.yul\":4335:4357   */\n      swap1\n      pop\n        /* \"#utility.yul\":4402:4403   */\n      0x01\n        /* \"#utility.yul\":4396:4400   */\n      dup3\n        /* \"#utility.yul\":4392:4404   */\n      and\n        /* \"#utility.yul\":4423:4441   */\n      dup1\n        /* \"#utility.yul\":4413:4415   */\n      tag_164\n      jumpi\n        /* \"#utility.yul\":4479:4483   */\n      0x7f\n        /* \"#utility.yul\":4471:4477   */\n      dup3\n        /* \"#utility.yul\":4467:4484   */\n      and\n        /* \"#utility.yul\":4457:4484   */\n      swap2\n      pop\n        /* \"#utility.yul\":4413:4415   */\n    tag_164:\n        /* \"#utility.yul\":4541:4543   */\n      0x20\n        /* \"#utility.yul\":4533:4539   */\n      dup3\n        /* \"#utility.yul\":4530:4544   */\n      lt\n        /* \"#utility.yul\":4510:4528   */\n      dup2\n        /* \"#utility.yul\":4507:4545   */\n      eq\n        /* \"#utility.yul\":4504:4506   */\n      iszero\n      tag_165\n      jumpi\n        /* \"#utility.yul\":4560:4578   */\n      tag_166\n      tag_167\n      jump\t// in\n    tag_166:\n        /* \"#utility.yul\":4504:4506   */\n    tag_165:\n        /* \"#utility.yul\":4325:4594   */\n      pop\n      swap2\n      swap1\n      pop\n      jump\t// out\n        /* \"#utility.yul\":4600:4780   */\n    tag_72:\n        /* \"#utility.yul\":4648:4725   */\n      0x4e487b7100000000000000000000000000000000000000000000000000000000\n        /* \"#utility.yul\":4645:4646   */\n      0x00\n        /* \"#utility.yul\":4638:4726   */\n      mstore\n        /* \"#utility.yul\":4745:4749   */\n      0x21\n        /* \"#utility.yul\":4742:4743   */\n      0x04\n        /* \"#utility.yul\":4735:4750   */\n      mstore\n        /* \"#utility.yul\":4769:4773   */\n      0x24\n        /* \"#utility.yul\":4766:4767   */\n      0x00\n        /* \"#utility.yul\":4759:4774   */\n      revert\n        /* \"#utility.yul\":4786:4966   */\n    tag_167:\n        /* \"#utility.yul\":4834:4911   */\n      0x4e487b7100000000000000000000000000000000000000000000000000000000\n        /* \"#utility.yul\":4831:4832   */\n      0x00\n        /* \"#utility.yul\":4824:4912   */\n      mstore\n        /* \"#utility.yul\":4931:4935   */\n      0x22\n        /* \"#utility.yul\":4928:4929   */\n      0x04\n        /* \"#utility.yul\":4921:4936   */\n      mstore\n        /* \"#utility.yul\":4955:4959   */\n      0x24\n        /* \"#utility.yul\":4952:4953   */\n      0x00\n        /* \"#utility.yul\":4945:4960   */\n      revert\n        /* \"#utility.yul\":4972:5074   */\n    tag_123:\n        /* \"#utility.yul\":5013:5019   */\n      0x00\n        /* \"#utility.yul\":5064:5066   */\n      0x1f\n        /* \"#utility.yul\":5060:5067   */\n      not\n        /* \"#utility.yul\":5055:5057   */\n      0x1f\n        /* \"#utility.yul\":5048:5053   */\n      dup4\n        /* \"#utility.yul\":5044:5058   */\n      add\n        /* \"#utility.yul\":5040:5068   */\n      and\n        /* \"#utility.yul\":5030:5068   */\n      swap1\n      pop\n        /* \"#utility.yul\":5020:5074   */\n      swap2\n      swap1\n      pop\n      jump\t// out\n        /* \"#utility.yul\":5080:5194   */\n    tag_152:\n        /* \"#utility.yul\":5162:5163   */\n      0x04\n        /* \"#utility.yul\":5155:5160   */\n      dup2\n        /* \"#utility.yul\":5152:5164   */\n      lt\n        /* \"#utility.yul\":5142:5144   */\n      tag_172\n      jumpi\n        /* \"#utility.yul\":5168:5186   */\n      tag_173\n      tag_72\n      jump\t// in\n    tag_173:\n        /* \"#utility.yul\":5142:5144   */\n    tag_172:\n        /* \"#utility.yul\":5132:5194   */\n      pop\n      jump\t// out\n\n    auxdata: 0xa26469706673582212206b05d002ab5cb0ceadfaa24007685642978f3d294fe37372b195a7fcb01c231164736f6c63430008050033\n}\n",
				"bytecode": {
					"linkReferences": {},
					"object": "608060405260ff600160006101000a81548160ff021916908360ff16021790555061032b6001806101000a81548161ffff021916908361ffff1602179055507fffffffffffffffffffffffffffffffffffffffffffffffffffffffffffffff016002557fffffffffffffffffffffffffffffffffffffffffffffffffffffffffffffff01600360006101000a81548163ffffffff021916908360030b63ffffffff1602179055506040518060400160405280600781526020017f526f626572746f0000000000000000000000000000000000000000000000000081525060059080519060200190620000f392919062000252565b506040518060400160405280600881526020017f536f6c6964697479000000000000000000000000000000000000000000000000815250600690805190602001906200014192919062000252565b506001600760016101000a81548160ff0219169083151502179055506000600760026101000a81548160ff021916908315150217905550600560046040516020016200018f9291906200038d565b60405160208183030381529060405280519060200120600b55735b38da6a701c568545dcfcb03fcb875f56beddc4600d60006101000a81548173ffffffffffffffffffffffffffffffffffffffff021916908373ffffffffffffffffffffffffffffffffffffffff16021790555033600e60006101000a81548173ffffffffffffffffffffffffffffffffffffffff021916908373ffffffffffffffffffffffffffffffffffffffff1602179055503480156200024b57600080fd5b506200043a565b8280546200026090620003d5565b90600052602060002090601f016020900481019282620002845760008555620002d0565b82601f106200029f57805160ff1916838001178555620002d0565b82800160010185558215620002d0579182015b82811115620002cf578251825591602001919060010190620002b2565b5b509050620002df9190620002e3565b5090565b5b80821115620002fe576000816000905550600101620002e4565b5090565b600081546200031181620003d5565b6200031d8186620003ca565b945060018216600081146200033b57600181146200034d5762000384565b60ff1983168652818601935062000384565b6200035885620003b5565b60005b838110156200037c578154818901526001820191506020810190506200035b565b838801955050505b50505092915050565b60006200039b828562000302565b9150620003a9828462000302565b91508190509392505050565b60008190508160005260206000209050919050565b600081905092915050565b60006002820490506001821680620003ee57607f821691505b602082108114156200040557620004046200040b565b5b50919050565b7f4e487b7100000000000000000000000000000000000000000000000000000000600052602260045260246000fd5b61080a806200044a6000396000f3fe608060405234801561001057600080fd5b50600436106100f55760003560e01c806391d101af11610097578063c4370ebf11610066578063c4370ebf1461021c578063cd99a84614610226578063ff4479d814610244578063ffae15ba1461024e576100f5565b806391d101af146101b8578063b38fee92146101c2578063c19d93fb146101e0578063c3da42b8146101fe576100f5565b806342fb0109116100d357806342fb01091461015457806362b57af4146101725780638da5cb5b1461017c57806390e1437c1461019a576100f5565b806309bd5a60146100fa5780630b9239fb14610118578063222a90ac14610136575b600080fd5b61010261026c565b60405161010f91906105ba565b60405180910390f35b610120610272565b60405161012d9190610584565b60405180910390f35b61013e610298565b60405161014b919061059f565b60405180910390f35b61015c6102ab565b604051610169919061059f565b60405180910390f35b61017a6102be565b005b6101846102eb565b6040516101919190610584565b60405180910390f35b6101a2610311565b6040516101af919061060b565b60405180910390f35b6101c061039f565b005b6101ca6103cc565b6040516101d7919061060b565b60405180910390f35b6101e861045a565b6040516101f591906105d5565b60405180910390f35b61020661046d565b604051610213919061062d565b60405180910390f35b61022461047f565b005b61022e6104ac565b60405161023b91906105d5565b60405180910390f35b61024c6104b1565b005b6102566104de565b60405161026391906105f0565b60405180910390f35b600b5481565b600d60009054906101000a900473ffffffffffffffffffffffffffffffffffffffff1681565b600760029054906101000a900460ff1681565b600760019054906101000a900460ff1681565b6000600e60146101000a81548160ff021916908360038111156102e4576102e3610751565b5b0217905550565b600e60009054906101000a900473ffffffffffffffffffffffffffffffffffffffff1681565b6006805461031e9061071f565b80601f016020809104026020016040519081016040528092919081815260200182805461034a9061071f565b80156103975780601f1061036c57610100808354040283529160200191610397565b820191906000526020600020905b81548152906001019060200180831161037a57829003601f168201915b505050505081565b6003600e60146101000a81548160ff021916908360038111156103c5576103c4610751565b5b0217905550565b600480546103d99061071f565b80601f01602080910402602001604051908101604052809291908181526020018280546104059061071f565b80156104525780601f1061042757610100808354040283529160200191610452565b820191906000526020600020905b81548152906001019060200180831161043557829003601f168201915b505050505081565b600e60149054906101000a900460ff1681565b60018054906101000a900461ffff1681565b6002600e60146101000a81548160ff021916908360038111156104a5576104a4610751565b5b0217905550565b600381565b6001600e60146101000a81548160ff021916908360038111156104d7576104d6610751565b5b0217905550565b600360009054906101000a900460030b81565b6104fa81610664565b82525050565b61050981610676565b82525050565b61051881610682565b82525050565b610527816106da565b82525050565b6105368161069f565b82525050565b600061054782610648565b6105518185610653565b93506105618185602086016106ec565b61056a816107af565b840191505092915050565b61057e816106ac565b82525050565b600060208201905061059960008301846104f1565b92915050565b60006020820190506105b46000830184610500565b92915050565b60006020820190506105cf600083018461050f565b92915050565b60006020820190506105ea600083018461051e565b92915050565b6000602082019050610605600083018461052d565b92915050565b60006020820190508181036000830152610625818461053c565b905092915050565b60006020820190506106426000830184610575565b92915050565b600081519050919050565b600082825260208201905092915050565b600061066f826106ba565b9050919050565b60008115159050919050565b6000819050919050565b600081905061069a826107c0565b919050565b60008160030b9050919050565b600061ffff82169050919050565b600073ffffffffffffffffffffffffffffffffffffffff82169050919050565b60006106e58261068c565b9050919050565b60005b8381101561070a5780820151818401526020810190506106ef565b83811115610719576000848401525b50505050565b6000600282049050600182168061073757607f821691505b6020821081141561074b5761074a610780565b5b50919050565b7f4e487b7100000000000000000000000000000000000000000000000000000000600052602160045260246000fd5b7f4e487b7100000000000000000000000000000000000000000000000000000000600052602260045260246000fd5b6000601f19601f8301169050919050565b600481106107d1576107d0610751565b5b5056fea26469706673582212206b05d002ab5cb0ceadfaa24007685642978f3d294fe37372b195a7fcb01c231164736f6c63430008050033",
					"opcodes": "PUSH1 0x80 PUSH1 0x40 MSTORE PUSH1 0xFF PUSH1 0x1 PUSH1 0x0 PUSH2 0x100 EXP DUP2 SLOAD DUP2 PUSH1 0xFF MUL NOT AND SWAP1 DUP4 PUSH1 0xFF AND MUL OR SWAP1 SSTORE POP PUSH2 0x32B PUSH1 0x1 DUP1 PUSH2 0x100 EXP DUP2 SLOAD DUP2 PUSH2 0xFFFF MUL NOT AND SWAP1 DUP4 PUSH2 0xFFFF AND MUL OR SWAP1 SSTORE POP PUSH32 0xFFFFFFFFFFFFFFFFFFFFFFFFFFFFFFFFFFFFFFFFFFFFFFFFFFFFFFFFFFFFFF01 PUSH1 0x2 SSTORE PUSH32 0xFFFFFFFFFFFFFFFFFFFFFFFFFFFFFFFFFFFFFFFFFFFFFFFFFFFFFFFFFFFFFF01 PUSH1 0x3 PUSH1 0x0 PUSH2 0x100 EXP DUP2 SLOAD DUP2 PUSH4 0xFFFFFFFF MUL NOT AND SWAP1 DUP4 PUSH1 0x3 SIGNEXTEND PUSH4 0xFFFFFFFF AND MUL OR SWAP1 SSTORE POP PUSH1 0x40 MLOAD DUP1 PUSH1 0x40 ADD PUSH1 0x40 MSTORE DUP1 PUSH1 0x7 DUP2 MSTORE PUSH1 0x20 ADD PUSH32 0x526F626572746F00000000000000000000000000000000000000000000000000 DUP2 MSTORE POP PUSH1 0x5 SWAP1 DUP1 MLOAD SWAP1 PUSH1 0x20 ADD SWAP1 PUSH3 0xF3 SWAP3 SWAP2 SWAP1 PUSH3 0x252 JUMP JUMPDEST POP PUSH1 0x40 MLOAD DUP1 PUSH1 0x40 ADD PUSH1 0x40 MSTORE DUP1 PUSH1 0x8 DUP2 MSTORE PUSH1 0x20 ADD PUSH32 0x536F6C6964697479000000000000000000000000000000000000000000000000 DUP2 MSTORE POP PUSH1 0x6 SWAP1 DUP1 MLOAD SWAP1 PUSH1 0x20 ADD SWAP1 PUSH3 0x141 SWAP3 SWAP2 SWAP1 PUSH3 0x252 JUMP JUMPDEST POP PUSH1 0x1 PUSH1 0x7 PUSH1 0x1 PUSH2 0x100 EXP DUP2 SLOAD DUP2 PUSH1 0xFF MUL NOT AND SWAP1 DUP4 ISZERO ISZERO MUL OR SWAP1 SSTORE POP PUSH1 0x0 PUSH1 0x7 PUSH1 0x2 PUSH2 0x100 EXP DUP2 SLOAD DUP2 PUSH1 0xFF MUL NOT AND SWAP1 DUP4 ISZERO ISZERO MUL OR SWAP1 SSTORE POP PUSH1 0x5 PUSH1 0x4 PUSH1 0x40 MLOAD PUSH1 0x20 ADD PUSH3 0x18F SWAP3 SWAP2 SWAP1 PUSH3 0x38D JUMP JUMPDEST PUSH1 0x40 MLOAD PUSH1 0x20 DUP2 DUP4 SUB SUB DUP2 MSTORE SWAP1 PUSH1 0x40 MSTORE DUP1 MLOAD SWAP1 PUSH1 0x20 ADD KECCAK256 PUSH1 0xB SSTORE PUSH20 0x5B38DA6A701C568545DCFCB03FCB875F56BEDDC4 PUSH1 0xD PUSH1 0x0 PUSH2 0x100 EXP DUP2 SLOAD DUP2 PUSH20 0xFFFFFFFFFFFFFFFFFFFFFFFFFFFFFFFFFFFFFFFF MUL NOT AND SWAP1 DUP4 PUSH20 0xFFFFFFFFFFFFFFFFFFFFFFFFFFFFFFFFFFFFFFFF AND MUL OR SWAP1 SSTORE POP CALLER PUSH1 0xE PUSH1 0x0 PUSH2 0x100 EXP DUP2 SLOAD DUP2 PUSH20 0xFFFFFFFFFFFFFFFFFFFFFFFFFFFFFFFFFFFFFFFF MUL NOT AND SWAP1 DUP4 PUSH20 0xFFFFFFFFFFFFFFFFFFFFFFFFFFFFFFFFFFFFFFFF AND MUL OR SWAP1 SSTORE POP CALLVALUE DUP1 ISZERO PUSH3 0x24B JUMPI PUSH1 0x0 DUP1 REVERT JUMPDEST POP PUSH3 0x43A JUMP JUMPDEST DUP3 DUP1 SLOAD PUSH3 0x260 SWAP1 PUSH3 0x3D5 JUMP JUMPDEST SWAP1 PUSH1 0x0 MSTORE PUSH1 0x20 PUSH1 0x0 KECCAK256 SWAP1 PUSH1 0x1F ADD PUSH1 0x20 SWAP1 DIV DUP2 ADD SWAP3 DUP3 PUSH3 0x284 JUMPI PUSH1 0x0 DUP6 SSTORE PUSH3 0x2D0 JUMP JUMPDEST DUP3 PUSH1 0x1F LT PUSH3 0x29F JUMPI DUP1 MLOAD PUSH1 0xFF NOT AND DUP4 DUP1 ADD OR DUP6 SSTORE PUSH3 0x2D0 JUMP JUMPDEST DUP3 DUP1 ADD PUSH1 0x1 ADD DUP6 SSTORE DUP3 ISZERO PUSH3 0x2D0 JUMPI SWAP2 DUP3 ADD JUMPDEST DUP3 DUP2 GT ISZERO PUSH3 0x2CF JUMPI DUP3 MLOAD DUP3 SSTORE SWAP2 PUSH1 0x20 ADD SWAP2 SWAP1 PUSH1 0x1 ADD SWAP1 PUSH3 0x2B2 JUMP JUMPDEST JUMPDEST POP SWAP1 POP PUSH3 0x2DF SWAP2 SWAP1 PUSH3 0x2E3 JUMP JUMPDEST POP SWAP1 JUMP JUMPDEST JUMPDEST DUP1 DUP3 GT ISZERO PUSH3 0x2FE JUMPI PUSH1 0x0 DUP2 PUSH1 0x0 SWAP1 SSTORE POP PUSH1 0x1 ADD PUSH3 0x2E4 JUMP JUMPDEST POP SWAP1 JUMP JUMPDEST PUSH1 0x0 DUP2 SLOAD PUSH3 0x311 DUP2 PUSH3 0x3D5 JUMP JUMPDEST PUSH3 0x31D DUP2 DUP7 PUSH3 0x3CA JUMP JUMPDEST SWAP5 POP PUSH1 0x1 DUP3 AND PUSH1 0x0 DUP2 EQ PUSH3 0x33B JUMPI PUSH1 0x1 DUP2 EQ PUSH3 0x34D JUMPI PUSH3 0x384 JUMP JUMPDEST PUSH1 0xFF NOT DUP4 AND DUP7 MSTORE DUP2 DUP7 ADD SWAP4 POP PUSH3 0x384 JUMP JUMPDEST PUSH3 0x358 DUP6 PUSH3 0x3B5 JUMP JUMPDEST PUSH1 0x0 JUMPDEST DUP4 DUP2 LT ISZERO PUSH3 0x37C JUMPI DUP2 SLOAD DUP2 DUP10 ADD MSTORE PUSH1 0x1 DUP3 ADD SWAP2 POP PUSH1 0x20 DUP2 ADD SWAP1 POP PUSH3 0x35B JUMP JUMPDEST DUP4 DUP9 ADD SWAP6 POP POP POP JUMPDEST POP POP POP SWAP3 SWAP2 POP POP JUMP JUMPDEST PUSH1 0x0 PUSH3 0x39B DUP3 DUP6 PUSH3 0x302 JUMP JUMPDEST SWAP2 POP PUSH3 0x3A9 DUP3 DUP5 PUSH3 0x302 JUMP JUMPDEST SWAP2 POP DUP2 SWAP1 POP SWAP4 SWAP3 POP POP POP JUMP JUMPDEST PUSH1 0x0 DUP2 SWAP1 POP DUP2 PUSH1 0x0 MSTORE PUSH1 0x20 PUSH1 0x0 KECCAK256 SWAP1 POP SWAP2 SWAP1 POP JUMP JUMPDEST PUSH1 0x0 DUP2 SWAP1 POP SWAP3 SWAP2 POP POP JUMP JUMPDEST PUSH1 0x0 PUSH1 0x2 DUP3 DIV SWAP1 POP PUSH1 0x1 DUP3 AND DUP1 PUSH3 0x3EE JUMPI PUSH1 0x7F DUP3 AND SWAP2 POP JUMPDEST PUSH1 0x20 DUP3 LT DUP2 EQ ISZERO PUSH3 0x405 JUMPI PUSH3 0x404 PUSH3 0x40B JUMP JUMPDEST JUMPDEST POP SWAP2 SWAP1 POP JUMP JUMPDEST PUSH32 0x4E487B7100000000000000000000000000000000000000000000000000000000 PUSH1 0x0 MSTORE PUSH1 0x22 PUSH1 0x4 MSTORE PUSH1 0x24 PUSH1 0x0 REVERT JUMPDEST PUSH2 0x80A DUP1 PUSH3 0x44A PUSH1 0x0 CODECOPY PUSH1 0x0 RETURN INVALID PUSH1 0x80 PUSH1 0x40 MSTORE CALLVALUE DUP1 ISZERO PUSH2 0x10 JUMPI PUSH1 0x0 DUP1 REVERT JUMPDEST POP PUSH1 0x4 CALLDATASIZE LT PUSH2 0xF5 JUMPI PUSH1 0x0 CALLDATALOAD PUSH1 0xE0 SHR DUP1 PUSH4 0x91D101AF GT PUSH2 0x97 JUMPI DUP1 PUSH4 0xC4370EBF GT PUSH2 0x66 JUMPI DUP1 PUSH4 0xC4370EBF EQ PUSH2 0x21C JUMPI DUP1 PUSH4 0xCD99A846 EQ PUSH2 0x226 JUMPI DUP1 PUSH4 0xFF4479D8 EQ PUSH2 0x244 JUMPI DUP1 PUSH4 0xFFAE15BA EQ PUSH2 0x24E JUMPI PUSH2 0xF5 JUMP JUMPDEST DUP1 PUSH4 0x91D101AF EQ PUSH2 0x1B8 JUMPI DUP1 PUSH4 0xB38FEE92 EQ PUSH2 0x1C2 JUMPI DUP1 PUSH4 0xC19D93FB EQ PUSH2 0x1E0 JUMPI DUP1 PUSH4 0xC3DA42B8 EQ PUSH2 0x1FE JUMPI PUSH2 0xF5 JUMP JUMPDEST DUP1 PUSH4 0x42FB0109 GT PUSH2 0xD3 JUMPI DUP1 PUSH4 0x42FB0109 EQ PUSH2 0x154 JUMPI DUP1 PUSH4 0x62B57AF4 EQ PUSH2 0x172 JUMPI DUP1 PUSH4 0x8DA5CB5B EQ PUSH2 0x17C JUMPI DUP1 PUSH4 0x90E1437C EQ PUSH2 0x19A JUMPI PUSH2 0xF5 JUMP JUMPDEST DUP1 PUSH4 0x9BD5A60 EQ PUSH2 0xFA JUMPI DUP1 PUSH4 0xB9239FB EQ PUSH2 0x118 JUMPI DUP1 PUSH4 0x222A90AC EQ PUSH2 0x136 JUMPI JUMPDEST PUSH1 0x0 DUP1 REVERT JUMPDEST PUSH2 0x102 PUSH2 0x26C JUMP JUMPDEST PUSH1 0x40 MLOAD PUSH2 0x10F SWAP2 SWAP1 PUSH2 0x5BA JUMP JUMPDEST PUSH1 0x40 MLOAD DUP1 SWAP2 SUB SWAP1 RETURN JUMPDEST PUSH2 0x120 PUSH2 0x272 JUMP JUMPDEST PUSH1 0x40 MLOAD PUSH2 0x12D SWAP2 SWAP1 PUSH2 0x584 JUMP JUMPDEST PUSH1 0x40 MLOAD DUP1 SWAP2 SUB SWAP1 RETURN JUMPDEST PUSH2 0x13E PUSH2 0x298 JUMP JUMPDEST PUSH1 0x40 MLOAD PUSH2 0x14B SWAP2 SWAP1 PUSH2 0x59F JUMP JUMPDEST PUSH1 0x40 MLOAD DUP1 SWAP2 SUB SWAP1 RETURN JUMPDEST PUSH2 0x15C PUSH2 0x2AB JUMP JUMPDEST PUSH1 0x40 MLOAD PUSH2 0x169 SWAP2 SWAP1 PUSH2 0x59F JUMP JUMPDEST PUSH1 0x40 MLOAD DUP1 SWAP2 SUB SWAP1 RETURN JUMPDEST PUSH2 0x17A PUSH2 0x2BE JUMP JUMPDEST STOP JUMPDEST PUSH2 0x184 PUSH2 0x2EB JUMP JUMPDEST PUSH1 0x40 MLOAD PUSH2 0x191 SWAP2 SWAP1 PUSH2 0x584 JUMP JUMPDEST PUSH1 0x40 MLOAD DUP1 SWAP2 SUB SWAP1 RETURN JUMPDEST PUSH2 0x1A2 PUSH2 0x311 JUMP JUMPDEST PUSH1 0x40 MLOAD PUSH2 0x1AF SWAP2 SWAP1 PUSH2 0x60B JUMP JUMPDEST PUSH1 0x40 MLOAD DUP1 SWAP2 SUB SWAP1 RETURN JUMPDEST PUSH2 0x1C0 PUSH2 0x39F JUMP JUMPDEST STOP JUMPDEST PUSH2 0x1CA PUSH2 0x3CC JUMP JUMPDEST PUSH1 0x40 MLOAD PUSH2 0x1D7 SWAP2 SWAP1 PUSH2 0x60B JUMP JUMPDEST PUSH1 0x40 MLOAD DUP1 SWAP2 SUB SWAP1 RETURN JUMPDEST PUSH2 0x1E8 PUSH2 0x45A JUMP JUMPDEST PUSH1 0x40 MLOAD PUSH2 0x1F5 SWAP2 SWAP1 PUSH2 0x5D5 JUMP JUMPDEST PUSH1 0x40 MLOAD DUP1 SWAP2 SUB SWAP1 RETURN JUMPDEST PUSH2 0x206 PUSH2 0x46D JUMP JUMPDEST PUSH1 0x40 MLOAD PUSH2 0x213 SWAP2 SWAP1 PUSH2 0x62D JUMP JUMPDEST PUSH1 0x40 MLOAD DUP1 SWAP2 SUB SWAP1 RETURN JUMPDEST PUSH2 0x224 PUSH2 0x47F JUMP JUMPDEST STOP JUMPDEST PUSH2 0x22E PUSH2 0x4AC JUMP JUMPDEST PUSH1 0x40 MLOAD PUSH2 0x23B SWAP2 SWAP1 PUSH2 0x5D5 JUMP JUMPDEST PUSH1 0x40 MLOAD DUP1 SWAP2 SUB SWAP1 RETURN JUMPDEST PUSH2 0x24C PUSH2 0x4B1 JUMP JUMPDEST STOP JUMPDEST PUSH2 0x256 PUSH2 0x4DE JUMP JUMPDEST PUSH1 0x40 MLOAD PUSH2 0x263 SWAP2 SWAP1 PUSH2 0x5F0 JUMP JUMPDEST PUSH1 0x40 MLOAD DUP1 SWAP2 SUB SWAP1 RETURN JUMPDEST PUSH1 0xB SLOAD DUP2 JUMP JUMPDEST PUSH1 0xD PUSH1 0x0 SWAP1 SLOAD SWAP1 PUSH2 0x100 EXP SWAP1 DIV PUSH20 0xFFFFFFFFFFFFFFFFFFFFFFFFFFFFFFFFFFFFFFFF AND DUP2 JUMP JUMPDEST PUSH1 0x7 PUSH1 0x2 SWAP1 SLOAD SWAP1 PUSH2 0x100 EXP SWAP1 DIV PUSH1 0xFF AND DUP2 JUMP JUMPDEST PUSH1 0x7 PUSH1 0x1 SWAP1 SLOAD SWAP1 PUSH2 0x100 EXP SWAP1 DIV PUSH1 0xFF AND DUP2 JUMP JUMPDEST PUSH1 0x0 PUSH1 0xE PUSH1 0x14 PUSH2 0x100 EXP DUP2 SLOAD DUP2 PUSH1 0xFF MUL NOT AND SWAP1 DUP4 PUSH1 0x3 DUP2 GT ISZERO PUSH2 0x2E4 JUMPI PUSH2 0x2E3 PUSH2 0x751 JUMP JUMPDEST JUMPDEST MUL OR SWAP1 SSTORE POP JUMP JUMPDEST PUSH1 0xE PUSH1 0x0 SWAP1 SLOAD SWAP1 PUSH2 0x100 EXP SWAP1 DIV PUSH20 0xFFFFFFFFFFFFFFFFFFFFFFFFFFFFFFFFFFFFFFFF AND DUP2 JUMP JUMPDEST PUSH1 0x6 DUP1 SLOAD PUSH2 0x31E SWAP1 PUSH2 0x71F JUMP JUMPDEST DUP1 PUSH1 0x1F ADD PUSH1 0x20 DUP1 SWAP2 DIV MUL PUSH1 0x20 ADD PUSH1 0x40 MLOAD SWAP1 DUP2 ADD PUSH1 0x40 MSTORE DUP1 SWAP3 SWAP2 SWAP1 DUP2 DUP2 MSTORE PUSH1 0x20 ADD DUP3 DUP1 SLOAD PUSH2 0x34A SWAP1 PUSH2 0x71F JUMP JUMPDEST DUP1 ISZERO PUSH2 0x397 JUMPI DUP1 PUSH1 0x1F LT PUSH2 0x36C JUMPI PUSH2 0x100 DUP1 DUP4 SLOAD DIV MUL DUP4 MSTORE SWAP2 PUSH1 0x20 ADD SWAP2 PUSH2 0x397 JUMP JUMPDEST DUP3 ADD SWAP2 SWAP1 PUSH1 0x0 MSTORE PUSH1 0x20 PUSH1 0x0 KECCAK256 SWAP1 JUMPDEST DUP2 SLOAD DUP2 MSTORE SWAP1 PUSH1 0x1 ADD SWAP1 PUSH1 0x20 ADD DUP1 DUP4 GT PUSH2 0x37A JUMPI DUP3 SWAP1 SUB PUSH1 0x1F AND DUP3 ADD SWAP2 JUMPDEST POP POP POP POP POP DUP2 JUMP JUMPDEST PUSH1 0x3 PUSH1 0xE PUSH1 0x14 PUSH2 0x100 EXP DUP2 SLOAD DUP2 PUSH1 0xFF MUL NOT AND SWAP1 DUP4 PUSH1 0x3 DUP2 GT ISZERO PUSH2 0x3C5 JUMPI PUSH2 0x3C4 PUSH2 0x751 JUMP JUMPDEST JUMPDEST MUL OR SWAP1 SSTORE POP JUMP JUMPDEST PUSH1 0x4 DUP1 SLOAD PUSH2 0x3D9 SWAP1 PUSH2 0x71F JUMP JUMPDEST DUP1 PUSH1 0x1F ADD PUSH1 0x20 DUP1 SWAP2 DIV MUL PUSH1 0x20 ADD PUSH1 0x40 MLOAD SWAP1 DUP2 ADD PUSH1 0x40 MSTORE DUP1 SWAP3 SWAP2 SWAP1 DUP2 DUP2 MSTORE PUSH1 0x20 ADD DUP3 DUP1 SLOAD PUSH2 0x405 SWAP1 PUSH2 0x71F JUMP JUMPDEST DUP1 ISZERO PUSH2 0x452 JUMPI DUP1 PUSH1 0x1F LT PUSH2 0x427 JUMPI PUSH2 0x100 DUP1 DUP4 SLOAD DIV MUL DUP4 MSTORE SWAP2 PUSH1 0x20 ADD SWAP2 PUSH2 0x452 JUMP JUMPDEST DUP3 ADD SWAP2 SWAP1 PUSH1 0x0 MSTORE PUSH1 0x20 PUSH1 0x0 KECCAK256 SWAP1 JUMPDEST DUP2 SLOAD DUP2 MSTORE SWAP1 PUSH1 0x1 ADD SWAP1 PUSH1 0x20 ADD DUP1 DUP4 GT PUSH2 0x435 JUMPI DUP3 SWAP1 SUB PUSH1 0x1F AND DUP3 ADD SWAP2 JUMPDEST POP POP POP POP POP DUP2 JUMP JUMPDEST PUSH1 0xE PUSH1 0x14 SWAP1 SLOAD SWAP1 PUSH2 0x100 EXP SWAP1 DIV PUSH1 0xFF AND DUP2 JUMP JUMPDEST PUSH1 0x1 DUP1 SLOAD SWAP1 PUSH2 0x100 EXP SWAP1 DIV PUSH2 0xFFFF AND DUP2 JUMP JUMPDEST PUSH1 0x2 PUSH1 0xE PUSH1 0x14 PUSH2 0x100 EXP DUP2 SLOAD DUP2 PUSH1 0xFF MUL NOT AND SWAP1 DUP4 PUSH1 0x3 DUP2 GT ISZERO PUSH2 0x4A5 JUMPI PUSH2 0x4A4 PUSH2 0x751 JUMP JUMPDEST JUMPDEST MUL OR SWAP1 SSTORE POP JUMP JUMPDEST PUSH1 0x3 DUP2 JUMP JUMPDEST PUSH1 0x1 PUSH1 0xE PUSH1 0x14 PUSH2 0x100 EXP DUP2 SLOAD DUP2 PUSH1 0xFF MUL NOT AND SWAP1 DUP4 PUSH1 0x3 DUP2 GT ISZERO PUSH2 0x4D7 JUMPI PUSH2 0x4D6 PUSH2 0x751 JUMP JUMPDEST JUMPDEST MUL OR SWAP1 SSTORE POP JUMP JUMPDEST PUSH1 0x3 PUSH1 0x0 SWAP1 SLOAD SWAP1 PUSH2 0x100 EXP SWAP1 DIV PUSH1 0x3 SIGNEXTEND DUP2 JUMP JUMPDEST PUSH2 0x4FA DUP2 PUSH2 0x664 JUMP JUMPDEST DUP3 MSTORE POP POP JUMP JUMPDEST PUSH2 0x509 DUP2 PUSH2 0x676 JUMP JUMPDEST DUP3 MSTORE POP POP JUMP JUMPDEST PUSH2 0x518 DUP2 PUSH2 0x682 JUMP JUMPDEST DUP3 MSTORE POP POP JUMP JUMPDEST PUSH2 0x527 DUP2 PUSH2 0x6DA JUMP JUMPDEST DUP3 MSTORE POP POP JUMP JUMPDEST PUSH2 0x536 DUP2 PUSH2 0x69F JUMP JUMPDEST DUP3 MSTORE POP POP JUMP JUMPDEST PUSH1 0x0 PUSH2 0x547 DUP3 PUSH2 0x648 JUMP JUMPDEST PUSH2 0x551 DUP2 DUP6 PUSH2 0x653 JUMP JUMPDEST SWAP4 POP PUSH2 0x561 DUP2 DUP6 PUSH1 0x20 DUP7 ADD PUSH2 0x6EC JUMP JUMPDEST PUSH2 0x56A DUP2 PUSH2 0x7AF JUMP JUMPDEST DUP5 ADD SWAP2 POP POP SWAP3 SWAP2 POP POP JUMP JUMPDEST PUSH2 0x57E DUP2 PUSH2 0x6AC JUMP JUMPDEST DUP3 MSTORE POP POP JUMP JUMPDEST PUSH1 0x0 PUSH1 0x20 DUP3 ADD SWAP1 POP PUSH2 0x599 PUSH1 0x0 DUP4 ADD DUP5 PUSH2 0x4F1 JUMP JUMPDEST SWAP3 SWAP2 POP POP JUMP JUMPDEST PUSH1 0x0 PUSH1 0x20 DUP3 ADD SWAP1 POP PUSH2 0x5B4 PUSH1 0x0 DUP4 ADD DUP5 PUSH2 0x500 JUMP JUMPDEST SWAP3 SWAP2 POP POP JUMP JUMPDEST PUSH1 0x0 PUSH1 0x20 DUP3 ADD SWAP1 POP PUSH2 0x5CF PUSH1 0x0 DUP4 ADD DUP5 PUSH2 0x50F JUMP JUMPDEST SWAP3 SWAP2 POP POP JUMP JUMPDEST PUSH1 0x0 PUSH1 0x20 DUP3 ADD SWAP1 POP PUSH2 0x5EA PUSH1 0x0 DUP4 ADD DUP5 PUSH2 0x51E JUMP JUMPDEST SWAP3 SWAP2 POP POP JUMP JUMPDEST PUSH1 0x0 PUSH1 0x20 DUP3 ADD SWAP1 POP PUSH2 0x605 PUSH1 0x0 DUP4 ADD DUP5 PUSH2 0x52D JUMP JUMPDEST SWAP3 SWAP2 POP POP JUMP JUMPDEST PUSH1 0x0 PUSH1 0x20 DUP3 ADD SWAP1 POP DUP2 DUP2 SUB PUSH1 0x0 DUP4 ADD MSTORE PUSH2 0x625 DUP2 DUP5 PUSH2 0x53C JUMP JUMPDEST SWAP1 POP SWAP3 SWAP2 POP POP JUMP JUMPDEST PUSH1 0x0 PUSH1 0x20 DUP3 ADD SWAP1 POP PUSH2 0x642 PUSH1 0x0 DUP4 ADD DUP5 PUSH2 0x575 JUMP JUMPDEST SWAP3 SWAP2 POP POP JUMP JUMPDEST PUSH1 0x0 DUP2 MLOAD SWAP1 POP SWAP2 SWAP1 POP JUMP JUMPDEST PUSH1 0x0 DUP3 DUP3 MSTORE PUSH1 0x20 DUP3 ADD SWAP1 POP SWAP3 SWAP2 POP POP JUMP JUMPDEST PUSH1 0x0 PUSH2 0x66F DUP3 PUSH2 0x6BA JUMP JUMPDEST SWAP1 POP SWAP2 SWAP1 POP JUMP JUMPDEST PUSH1 0x0 DUP2 ISZERO ISZERO SWAP1 POP SWAP2 SWAP1 POP JUMP JUMPDEST PUSH1 0x0 DUP2 SWAP1 POP SWAP2 SWAP1 POP JUMP JUMPDEST PUSH1 0x0 DUP2 SWAP1 POP PUSH2 0x69A DUP3 PUSH2 0x7C0 JUMP JUMPDEST SWAP2 SWAP1 POP JUMP JUMPDEST PUSH1 0x0 DUP2 PUSH1 0x3 SIGNEXTEND SWAP1 POP SWAP2 SWAP1 POP JUMP JUMPDEST PUSH1 0x0 PUSH2 0xFFFF DUP3 AND SWAP1 POP SWAP2 SWAP1 POP JUMP JUMPDEST PUSH1 0x0 PUSH20 0xFFFFFFFFFFFFFFFFFFFFFFFFFFFFFFFFFFFFFFFF DUP3 AND SWAP1 POP SWAP2 SWAP1 POP JUMP JUMPDEST PUSH1 0x0 PUSH2 0x6E5 DUP3 PUSH2 0x68C JUMP JUMPDEST SWAP1 POP SWAP2 SWAP1 POP JUMP JUMPDEST PUSH1 0x0 JUMPDEST DUP4 DUP2 LT ISZERO PUSH2 0x70A JUMPI DUP1 DUP3 ADD MLOAD DUP2 DUP5 ADD MSTORE PUSH1 0x20 DUP2 ADD SWAP1 POP PUSH2 0x6EF JUMP JUMPDEST DUP4 DUP2 GT ISZERO PUSH2 0x719 JUMPI PUSH1 0x0 DUP5 DUP5 ADD MSTORE JUMPDEST POP POP POP POP JUMP JUMPDEST PUSH1 0x0 PUSH1 0x2 DUP3 DIV SWAP1 POP PUSH1 0x1 DUP3 AND DUP1 PUSH2 0x737 JUMPI PUSH1 0x7F DUP3 AND SWAP2 POP JUMPDEST PUSH1 0x20 DUP3 LT DUP2 EQ ISZERO PUSH2 0x74B JUMPI PUSH2 0x74A PUSH2 0x780 JUMP JUMPDEST JUMPDEST POP SWAP2 SWAP1 POP JUMP JUMPDEST PUSH32 0x4E487B7100000000000000000000000000000000000000000000000000000000 PUSH1 0x0 MSTORE PUSH1 0x21 PUSH1 0x4 MSTORE PUSH1 0x24 PUSH1 0x0 REVERT JUMPDEST PUSH32 0x4E487B7100000000000000000000000000000000000000000000000000000000 PUSH1 0x0 MSTORE PUSH1 0x22 PUSH1 0x4 MSTORE PUSH1 0x24 PUSH1 0x0 REVERT JUMPDEST PUSH1 0x0 PUSH1 0x1F NOT PUSH1 0x1F DUP4 ADD AND SWAP1 POP SWAP2 SWAP1 POP JUMP JUMPDEST PUSH1 0x4 DUP2 LT PUSH2 0x7D1 JUMPI PUSH2 0x7D0 PUSH2 0x751 JUMP JUMPDEST JUMPDEST POP JUMP INVALID LOG2 PUSH5 0x6970667358 0x22 SLT KECCAK256 PUSH12 0x5D002AB5CB0CEADFAA24007 PUSH9 0x5642978F3D294FE373 PUSH19 0xB195A7FCB01C231164736F6C63430008050033 "
				},
				"gasEstimates": {
					"creation": {
						"codeDepositCost": "411600",
						"executionCost": "infinite",
						"totalCost": "infinite"
					},
					"external": {
						"boolFalse()": "2589",
						"boolTrue()": "2544",
						"c()": "2607",
						"changeToAda()": "24526",
						"changeToBNB()": "24503",
						"changeToBTC()": "24504",
						"changeToEther()": "24547",
						"defaultChoice()": "468",
						"e()": "2563",
						"friendAddress()": "2560",
						"hash()": "2453",
						"owner()": "2581",
						"pl()": "infinite",
						"state()": "2677",
						"surname()": "infinite"
					}
				},
				"methodIdentifiers": {
					"boolFalse()": "222a90ac",
					"boolTrue()": "42fb0109",
					"c()": "c3da42b8",
					"changeToAda()": "62b57af4",
					"changeToBNB()": "c4370ebf",
					"changeToBTC()": "91d101af",
					"changeToEther()": "ff4479d8",
					"defaultChoice()": "cd99a846",
					"e()": "ffae15ba",
					"friendAddress()": "0b9239fb",
					"hash()": "09bd5a60",
					"owner()": "8da5cb5b",
					"pl()": "90e1437c",
					"state()": "c19d93fb",
					"surname()": "b38fee92"
				}
			},
			"storageLayout": {
				"storage": [
					{
						"astId": 3,
						"contract": "contracts/2_variable_modifiers.sol:VariableModifiers",
						"label": "a",
						"offset": 0,
						"slot": "0",
						"type": "t_uint256"
					},
					{
						"astId": 6,
						"contract": "contracts/2_variable_modifiers.sol:VariableModifiers",
						"label": "b",
						"offset": 0,
						"slot": "1",
						"type": "t_uint8"
					},
					{
						"astId": 9,
						"contract": "contracts/2_variable_modifiers.sol:VariableModifiers",
						"label": "c",
						"offset": 1,
						"slot": "1",
						"type": "t_uint16"
					},
					{
						"astId": 13,
						"contract": "contracts/2_variable_modifiers.sol:VariableModifiers",
						"label": "d",
						"offset": 0,
						"slot": "2",
						"type": "t_int256"
					},
					{
						"astId": 17,
						"contract": "contracts/2_variable_modifiers.sol:VariableModifiers",
						"label": "e",
						"offset": 0,
						"slot": "3",
						"type": "t_int32"
					},
					{
						"astId": 19,
						"contract": "contracts/2_variable_modifiers.sol:VariableModifiers",
						"label": "surname",
						"offset": 0,
						"slot": "4",
						"type": "t_string_storage"
					},
					{
						"astId": 22,
						"contract": "contracts/2_variable_modifiers.sol:VariableModifiers",
						"label": "name",
						"offset": 0,
						"slot": "5",
						"type": "t_string_storage"
					},
					{
						"astId": 25,
						"contract": "contracts/2_variable_modifiers.sol:VariableModifiers",
						"label": "pl",
						"offset": 0,
						"slot": "6",
						"type": "t_string_storage"
					},
					{
						"astId": 27,
						"contract": "contracts/2_variable_modifiers.sol:VariableModifiers",
						"label": "boolean",
						"offset": 0,
						"slot": "7",
						"type": "t_bool"
					},
					{
						"astId": 30,
						"contract": "contracts/2_variable_modifiers.sol:VariableModifiers",
						"label": "boolTrue",
						"offset": 1,
						"slot": "7",
						"type": "t_bool"
					},
					{
						"astId": 33,
						"contract": "contracts/2_variable_modifiers.sol:VariableModifiers",
						"label": "boolFalse",
						"offset": 2,
						"slot": "7",
						"type": "t_bool"
					},
					{
						"astId": 35,
						"contract": "contracts/2_variable_modifiers.sol:VariableModifiers",
						"label": "testingBytes",
						"offset": 0,
						"slot": "8",
						"type": "t_bytes32"
					},
					{
						"astId": 37,
						"contract": "contracts/2_variable_modifiers.sol:VariableModifiers",
						"label": "lessBytes",
						"offset": 0,
						"slot": "9",
						"type": "t_bytes4"
					},
					{
						"astId": 39,
						"contract": "contracts/2_variable_modifiers.sol:VariableModifiers",
						"label": "eightBytes",
						"offset": 4,
						"slot": "9",
						"type": "t_bytes8"
					},
					{
						"astId": 41,
						"contract": "contracts/2_variable_modifiers.sol:VariableModifiers",
						"label": "oldBytesCrash",
						"offset": 0,
						"slot": "10",
						"type": "t_bytes_storage"
					},
					{
						"astId": 50,
						"contract": "contracts/2_variable_modifiers.sol:VariableModifiers",
						"label": "hash",
						"offset": 0,
						"slot": "11",
						"type": "t_bytes32"
					},
					{
						"astId": 52,
						"contract": "contracts/2_variable_modifiers.sol:VariableModifiers",
						"label": "myAddress",
						"offset": 0,
						"slot": "12",
						"type": "t_address"
					},
					{
						"astId": 55,
						"contract": "contracts/2_variable_modifiers.sol:VariableModifiers",
						"label": "friendAddress",
						"offset": 0,
						"slot": "13",
						"type": "t_address"
					},
					{
						"astId": 59,
						"contract": "contracts/2_variable_modifiers.sol:VariableModifiers",
						"label": "owner",
						"offset": 0,
						"slot": "14",
						"type": "t_address"
					},
					{
						"astId": 72,
						"contract": "contracts/2_variable_modifiers.sol:VariableModifiers",
						"label": "state",
						"offset": 20,
						"slot": "14",
						"type": "t_enum(tokens)64"
					}
				],
				"types": {
					"t_address": {
						"encoding": "inplace",
						"label": "address",
						"numberOfBytes": "20"
					},
					"t_bool": {
						"encoding": "inplace",
						"label": "bool",
						"numberOfBytes": "1"
					},
					"t_bytes32": {
						"encoding": "inplace",
						"label": "bytes32",
						"numberOfBytes": "32"
					},
					"t_bytes4": {
						"encoding": "inplace",
						"label": "bytes4",
						"numberOfBytes": "4"
					},
					"t_bytes8": {
						"encoding": "inplace",
						"label": "bytes8",
						"numberOfBytes": "8"
					},
					"t_bytes_storage": {
						"encoding": "bytes",
						"label": "bytes",
						"numberOfBytes": "32"
					},
					"t_enum(tokens)64": {
						"encoding": "inplace",
						"label": "enum VariableModifiers.tokens",
						"numberOfBytes": "1"
					},
					"t_int256": {
						"encoding": "inplace",
						"label": "int256",
						"numberOfBytes": "32"
					},
					"t_int32": {
						"encoding": "inplace",
						"label": "int32",
						"numberOfBytes": "4"
					},
					"t_string_storage": {
						"encoding": "bytes",
						"label": "string",
						"numberOfBytes": "32"
					},
					"t_uint16": {
						"encoding": "inplace",
						"label": "uint16",
						"numberOfBytes": "2"
					},
					"t_uint256": {
						"encoding": "inplace",
						"label": "uint256",
						"numberOfBytes": "32"
					},
					"t_uint8": {
						"encoding": "inplace",
						"label": "uint8",
						"numberOfBytes": "1"
					}
				}
			},
			"userdoc": {
				"kind": "user",
				"methods": {},
				"version": 1
			}
		}
	}
}