{
	"contracts/5_payable_functions.sol": {
		"etherSend": {
			"abi": [
				{
					"inputs": [],
					"stateMutability": "payable",
					"type": "constructor"
				},
				{
					"anonymous": false,
					"inputs": [
						{
							"indexed": false,
							"internalType": "bool",
							"name": "",
							"type": "bool"
						},
						{
							"indexed": false,
							"internalType": "bytes",
							"name": "",
							"type": "bytes"
						}
					],
					"name": "callStatus",
					"type": "event"
				},
				{
					"anonymous": false,
					"inputs": [
						{
							"indexed": false,
							"internalType": "bool",
							"name": "",
							"type": "bool"
						}
					],
					"name": "sendStatus",
					"type": "event"
				},
				{
					"inputs": [
						{
							"internalType": "address payable",
							"name": "_to",
							"type": "address"
						}
					],
					"name": "sendViaCall",
					"outputs": [],
					"stateMutability": "payable",
					"type": "function"
				},
				{
					"inputs": [
						{
							"internalType": "address payable",
							"name": "_to",
							"type": "address"
						}
					],
					"name": "sendViaSend",
					"outputs": [],
					"stateMutability": "payable",
					"type": "function"
				},
				{
					"inputs": [
						{
							"internalType": "address payable",
							"name": "_to",
							"type": "address"
						}
					],
					"name": "sendViaTransfer",
					"outputs": [],
					"stateMutability": "payable",
					"type": "function"
				},
				{
					"stateMutability": "payable",
					"type": "receive"
				}
			],
			"devdoc": {
				"kind": "dev",
				"methods": {},
				"version": 1
			},
			"evm": {
				"assembly": "    /* \"contracts/5_payable_functions.sol\":69:681  contract etherSend {... */\n  mstore(0x40, 0x80)\n  dataSize(sub_0)\n  dup1\n  dataOffset(sub_0)\n  0x00\n  codecopy\n  0x00\n  return\nstop\n\nsub_0: assembly {\n        /* \"contracts/5_payable_functions.sol\":69:681  contract etherSend {... */\n      mstore(0x40, 0x80)\n      jumpi(tag_1, lt(calldatasize, 0x04))\n      shr(0xe0, calldataload(0x00))\n      dup1\n      0x636e082b\n      eq\n      tag_3\n      jumpi\n      dup1\n      0x74be4806\n      eq\n      tag_4\n      jumpi\n      dup1\n      0x830c29ae\n      eq\n      tag_5\n      jumpi\n      jump(tag_2)\n    tag_1:\n      jumpi(tag_2, calldatasize)\n      stop\n    tag_2:\n      0x00\n      dup1\n      revert\n        /* \"contracts/5_payable_functions.sol\":254:353  function sendViaTransfer(address payable _to) public payable {... */\n    tag_3:\n      tag_8\n      0x04\n      dup1\n      calldatasize\n      sub\n      dup2\n      add\n      swap1\n      tag_9\n      swap2\n      swap1\n      tag_10\n      jump\t// in\n    tag_9:\n      tag_11\n      jump\t// in\n    tag_8:\n      stop\n        /* \"contracts/5_payable_functions.sol\":371:559  function sendViaSend(address payable _to) public payable {... */\n    tag_4:\n      tag_12\n      0x04\n      dup1\n      calldatasize\n      sub\n      dup2\n      add\n      swap1\n      tag_13\n      swap2\n      swap1\n      tag_10\n      jump\t// in\n    tag_13:\n      tag_14\n      jump\t// in\n    tag_12:\n      stop\n        /* \"contracts/5_payable_functions.sol\":577:679  function sendViaCall(address payable _to) public payable {... */\n    tag_5:\n      tag_15\n      0x04\n      dup1\n      calldatasize\n      sub\n      dup2\n      add\n      swap1\n      tag_16\n      swap2\n      swap1\n      tag_10\n      jump\t// in\n    tag_16:\n      tag_17\n      jump\t// in\n    tag_15:\n      stop\n        /* \"contracts/5_payable_functions.sol\":254:353  function sendViaTransfer(address payable _to) public payable {... */\n    tag_11:\n        /* \"contracts/5_payable_functions.sol\":325:328  _to */\n      dup1\n        /* \"contracts/5_payable_functions.sol\":325:337  _to.transfer */\n      0xffffffffffffffffffffffffffffffffffffffff\n      and\n        /* \"contracts/5_payable_functions.sol\":325:346  _to.transfer(1 ether) */\n      0x08fc\n        /* \"contracts/5_payable_functions.sol\":338:345  1 ether */\n      0x0de0b6b3a7640000\n        /* \"contracts/5_payable_functions.sol\":325:346  _to.transfer(1 ether) */\n      swap1\n      dup2\n      iszero\n      mul\n      swap1\n      mload(0x40)\n      0x00\n      mload(0x40)\n      dup1\n      dup4\n      sub\n      dup2\n      dup6\n      dup9\n      dup9\n      call\n      swap4\n      pop\n      pop\n      pop\n      pop\n      iszero\n      dup1\n      iszero\n      tag_20\n      jumpi\n      returndatasize\n      0x00\n      dup1\n      returndatacopy\n      revert(0x00, returndatasize)\n    tag_20:\n      pop\n        /* \"contracts/5_payable_functions.sol\":254:353  function sendViaTransfer(address payable _to) public payable {... */\n      pop\n      jump\t// out\n        /* \"contracts/5_payable_functions.sol\":371:559  function sendViaSend(address payable _to) public payable {... */\n    tag_14:\n        /* \"contracts/5_payable_functions.sol\":438:447  bool sent */\n      0x00\n        /* \"contracts/5_payable_functions.sol\":450:453  _to */\n      dup2\n        /* \"contracts/5_payable_functions.sol\":450:458  _to.send */\n      0xffffffffffffffffffffffffffffffffffffffff\n      and\n        /* \"contracts/5_payable_functions.sol\":450:467  _to.send(1 ether) */\n      0x08fc\n        /* \"contracts/5_payable_functions.sol\":459:466  1 ether */\n      0x0de0b6b3a7640000\n        /* \"contracts/5_payable_functions.sol\":450:467  _to.send(1 ether) */\n      swap1\n      dup2\n      iszero\n      mul\n      swap1\n      mload(0x40)\n      0x00\n      mload(0x40)\n      dup1\n      dup4\n      sub\n      dup2\n      dup6\n      dup9\n      dup9\n      call\n      swap4\n      pop\n      pop\n      pop\n      pop\n        /* \"contracts/5_payable_functions.sol\":438:467  bool sent = _to.send(1 ether) */\n      swap1\n      pop\n        /* \"contracts/5_payable_functions.sol\":482:498  sendStatus(sent) */\n      0x0c46a72a145bed1fc3c2d4b0e023bd11ddb1e3204a898f4119357ecde6d5fe99\n        /* \"contracts/5_payable_functions.sol\":493:497  sent */\n      dup2\n        /* \"contracts/5_payable_functions.sol\":482:498  sendStatus(sent) */\n      mload(0x40)\n      tag_23\n      swap2\n      swap1\n      tag_24\n      jump\t// in\n    tag_23:\n      mload(0x40)\n      dup1\n      swap2\n      sub\n      swap1\n      log1\n        /* \"contracts/5_payable_functions.sol\":524:528  true */\n      0x01\n        /* \"contracts/5_payable_functions.sol\":516:528  sent == true */\n      iszero\n      iszero\n        /* \"contracts/5_payable_functions.sol\":516:520  sent */\n      dup2\n        /* \"contracts/5_payable_functions.sol\":516:528  sent == true */\n      iszero\n      iszero\n      eq\n        /* \"contracts/5_payable_functions.sol\":508:552  require(sent == true, \"The delivery failed\") */\n      tag_25\n      jumpi\n      mload(0x40)\n      0x08c379a000000000000000000000000000000000000000000000000000000000\n      dup2\n      mstore\n      0x04\n      add\n      tag_26\n      swap1\n      tag_27\n      jump\t// in\n    tag_26:\n      mload(0x40)\n      dup1\n      swap2\n      sub\n      swap1\n      revert\n    tag_25:\n        /* \"contracts/5_payable_functions.sol\":371:559  function sendViaSend(address payable _to) public payable {... */\n      pop\n      pop\n      jump\t// out\n        /* \"contracts/5_payable_functions.sol\":577:679  function sendViaCall(address payable _to) public payable {... */\n    tag_17:\n        /* \"contracts/5_payable_functions.sol\":644:647  _to */\n      dup1\n        /* \"contracts/5_payable_functions.sol\":644:652  _to.call */\n      0xffffffffffffffffffffffffffffffffffffffff\n      and\n        /* \"contracts/5_payable_functions.sol\":660:667  1 ether */\n      0x0de0b6b3a7640000\n        /* \"contracts/5_payable_functions.sol\":644:672  _to.call{value: 1 ether}(\"\") */\n      mload(0x40)\n      tag_29\n      swap1\n      tag_30\n      jump\t// in\n    tag_29:\n      0x00\n      mload(0x40)\n      dup1\n      dup4\n      sub\n      dup2\n      dup6\n      dup8\n      gas\n      call\n      swap3\n      pop\n      pop\n      pop\n      returndatasize\n      dup1\n      0x00\n      dup2\n      eq\n      tag_33\n      jumpi\n      mload(0x40)\n      swap2\n      pop\n      and(add(returndatasize, 0x3f), not(0x1f))\n      dup3\n      add\n      0x40\n      mstore\n      returndatasize\n      dup3\n      mstore\n      returndatasize\n      0x00\n      0x20\n      dup5\n      add\n      returndatacopy\n      jump(tag_32)\n    tag_33:\n      0x60\n      swap2\n      pop\n    tag_32:\n      pop\n      pop\n      pop\n        /* \"contracts/5_payable_functions.sol\":577:679  function sendViaCall(address payable _to) public payable {... */\n      pop\n      jump\t// out\n        /* \"#utility.yul\":7:162   */\n    tag_35:\n        /* \"#utility.yul\":61:66   */\n      0x00\n        /* \"#utility.yul\":99:105   */\n      dup2\n        /* \"#utility.yul\":86:106   */\n      calldataload\n        /* \"#utility.yul\":77:106   */\n      swap1\n      pop\n        /* \"#utility.yul\":115:156   */\n      tag_37\n        /* \"#utility.yul\":150:155   */\n      dup2\n        /* \"#utility.yul\":115:156   */\n      tag_38\n      jump\t// in\n    tag_37:\n        /* \"#utility.yul\":67:162   */\n      swap3\n      swap2\n      pop\n      pop\n      jump\t// out\n        /* \"#utility.yul\":168:446   */\n    tag_10:\n        /* \"#utility.yul\":235:241   */\n      0x00\n        /* \"#utility.yul\":284:286   */\n      0x20\n        /* \"#utility.yul\":272:281   */\n      dup3\n        /* \"#utility.yul\":263:270   */\n      dup5\n        /* \"#utility.yul\":259:282   */\n      sub\n        /* \"#utility.yul\":255:287   */\n      slt\n        /* \"#utility.yul\":252:254   */\n      iszero\n      tag_40\n      jumpi\n        /* \"#utility.yul\":300:301   */\n      0x00\n        /* \"#utility.yul\":297:298   */\n      dup1\n        /* \"#utility.yul\":290:302   */\n      revert\n        /* \"#utility.yul\":252:254   */\n    tag_40:\n        /* \"#utility.yul\":343:344   */\n      0x00\n        /* \"#utility.yul\":368:429   */\n      tag_41\n        /* \"#utility.yul\":421:428   */\n      dup5\n        /* \"#utility.yul\":412:418   */\n      dup3\n        /* \"#utility.yul\":401:410   */\n      dup6\n        /* \"#utility.yul\":397:419   */\n      add\n        /* \"#utility.yul\":368:429   */\n      tag_35\n      jump\t// in\n    tag_41:\n        /* \"#utility.yul\":358:429   */\n      swap2\n      pop\n        /* \"#utility.yul\":314:439   */\n      pop\n        /* \"#utility.yul\":242:446   */\n      swap3\n      swap2\n      pop\n      pop\n      jump\t// out\n        /* \"#utility.yul\":452:561   */\n    tag_42:\n        /* \"#utility.yul\":533:554   */\n      tag_44\n        /* \"#utility.yul\":548:553   */\n      dup2\n        /* \"#utility.yul\":533:554   */\n      tag_45\n      jump\t// in\n    tag_44:\n        /* \"#utility.yul\":528:531   */\n      dup3\n        /* \"#utility.yul\":521:555   */\n      mstore\n        /* \"#utility.yul\":511:561   */\n      pop\n      pop\n      jump\t// out\n        /* \"#utility.yul\":567:933   */\n    tag_46:\n        /* \"#utility.yul\":709:712   */\n      0x00\n        /* \"#utility.yul\":730:797   */\n      tag_48\n        /* \"#utility.yul\":794:796   */\n      0x13\n        /* \"#utility.yul\":789:792   */\n      dup4\n        /* \"#utility.yul\":730:797   */\n      tag_49\n      jump\t// in\n    tag_48:\n        /* \"#utility.yul\":723:797   */\n      swap2\n      pop\n        /* \"#utility.yul\":806:899   */\n      tag_50\n        /* \"#utility.yul\":895:898   */\n      dup3\n        /* \"#utility.yul\":806:899   */\n      tag_51\n      jump\t// in\n    tag_50:\n        /* \"#utility.yul\":924:926   */\n      0x20\n        /* \"#utility.yul\":919:922   */\n      dup3\n        /* \"#utility.yul\":915:927   */\n      add\n        /* \"#utility.yul\":908:927   */\n      swap1\n      pop\n        /* \"#utility.yul\":713:933   */\n      swap2\n      swap1\n      pop\n      jump\t// out\n        /* \"#utility.yul\":939:1337   */\n    tag_52:\n        /* \"#utility.yul\":1098:1101   */\n      0x00\n        /* \"#utility.yul\":1119:1202   */\n      tag_54\n        /* \"#utility.yul\":1200:1201   */\n      0x00\n        /* \"#utility.yul\":1195:1198   */\n      dup4\n        /* \"#utility.yul\":1119:1202   */\n      tag_55\n      jump\t// in\n    tag_54:\n        /* \"#utility.yul\":1112:1202   */\n      swap2\n      pop\n        /* \"#utility.yul\":1211:1304   */\n      tag_56\n        /* \"#utility.yul\":1300:1303   */\n      dup3\n        /* \"#utility.yul\":1211:1304   */\n      tag_57\n      jump\t// in\n    tag_56:\n        /* \"#utility.yul\":1329:1330   */\n      0x00\n        /* \"#utility.yul\":1324:1327   */\n      dup3\n        /* \"#utility.yul\":1320:1331   */\n      add\n        /* \"#utility.yul\":1313:1331   */\n      swap1\n      pop\n        /* \"#utility.yul\":1102:1337   */\n      swap2\n      swap1\n      pop\n      jump\t// out\n        /* \"#utility.yul\":1343:1722   */\n    tag_30:\n        /* \"#utility.yul\":1527:1530   */\n      0x00\n        /* \"#utility.yul\":1549:1696   */\n      tag_59\n        /* \"#utility.yul\":1692:1695   */\n      dup3\n        /* \"#utility.yul\":1549:1696   */\n      tag_52\n      jump\t// in\n    tag_59:\n        /* \"#utility.yul\":1542:1696   */\n      swap2\n      pop\n        /* \"#utility.yul\":1713:1716   */\n      dup2\n        /* \"#utility.yul\":1706:1716   */\n      swap1\n      pop\n        /* \"#utility.yul\":1531:1722   */\n      swap2\n      swap1\n      pop\n      jump\t// out\n        /* \"#utility.yul\":1728:1938   */\n    tag_24:\n        /* \"#utility.yul\":1815:1819   */\n      0x00\n        /* \"#utility.yul\":1853:1855   */\n      0x20\n        /* \"#utility.yul\":1842:1851   */\n      dup3\n        /* \"#utility.yul\":1838:1856   */\n      add\n        /* \"#utility.yul\":1830:1856   */\n      swap1\n      pop\n        /* \"#utility.yul\":1866:1931   */\n      tag_61\n        /* \"#utility.yul\":1928:1929   */\n      0x00\n        /* \"#utility.yul\":1917:1926   */\n      dup4\n        /* \"#utility.yul\":1913:1930   */\n      add\n        /* \"#utility.yul\":1904:1910   */\n      dup5\n        /* \"#utility.yul\":1866:1931   */\n      tag_42\n      jump\t// in\n    tag_61:\n        /* \"#utility.yul\":1820:1938   */\n      swap3\n      swap2\n      pop\n      pop\n      jump\t// out\n        /* \"#utility.yul\":1944:2363   */\n    tag_27:\n        /* \"#utility.yul\":2110:2114   */\n      0x00\n        /* \"#utility.yul\":2148:2150   */\n      0x20\n        /* \"#utility.yul\":2137:2146   */\n      dup3\n        /* \"#utility.yul\":2133:2151   */\n      add\n        /* \"#utility.yul\":2125:2151   */\n      swap1\n      pop\n        /* \"#utility.yul\":2197:2206   */\n      dup2\n        /* \"#utility.yul\":2191:2195   */\n      dup2\n        /* \"#utility.yul\":2187:2207   */\n      sub\n        /* \"#utility.yul\":2183:2184   */\n      0x00\n        /* \"#utility.yul\":2172:2181   */\n      dup4\n        /* \"#utility.yul\":2168:2185   */\n      add\n        /* \"#utility.yul\":2161:2208   */\n      mstore\n        /* \"#utility.yul\":2225:2356   */\n      tag_63\n        /* \"#utility.yul\":2351:2355   */\n      dup2\n        /* \"#utility.yul\":2225:2356   */\n      tag_46\n      jump\t// in\n    tag_63:\n        /* \"#utility.yul\":2217:2356   */\n      swap1\n      pop\n        /* \"#utility.yul\":2115:2363   */\n      swap2\n      swap1\n      pop\n      jump\t// out\n        /* \"#utility.yul\":2369:2516   */\n    tag_55:\n        /* \"#utility.yul\":2470:2481   */\n      0x00\n        /* \"#utility.yul\":2507:2510   */\n      dup2\n        /* \"#utility.yul\":2492:2510   */\n      swap1\n      pop\n        /* \"#utility.yul\":2482:2516   */\n      swap3\n      swap2\n      pop\n      pop\n      jump\t// out\n        /* \"#utility.yul\":2522:2691   */\n    tag_49:\n        /* \"#utility.yul\":2606:2617   */\n      0x00\n        /* \"#utility.yul\":2640:2646   */\n      dup3\n        /* \"#utility.yul\":2635:2638   */\n      dup3\n        /* \"#utility.yul\":2628:2647   */\n      mstore\n        /* \"#utility.yul\":2680:2684   */\n      0x20\n        /* \"#utility.yul\":2675:2678   */\n      dup3\n        /* \"#utility.yul\":2671:2685   */\n      add\n        /* \"#utility.yul\":2656:2685   */\n      swap1\n      pop\n        /* \"#utility.yul\":2618:2691   */\n      swap3\n      swap2\n      pop\n      pop\n      jump\t// out\n        /* \"#utility.yul\":2697:2801   */\n    tag_66:\n        /* \"#utility.yul\":2742:2749   */\n      0x00\n        /* \"#utility.yul\":2771:2795   */\n      tag_68\n        /* \"#utility.yul\":2789:2794   */\n      dup3\n        /* \"#utility.yul\":2771:2795   */\n      tag_69\n      jump\t// in\n    tag_68:\n        /* \"#utility.yul\":2760:2795   */\n      swap1\n      pop\n        /* \"#utility.yul\":2750:2801   */\n      swap2\n      swap1\n      pop\n      jump\t// out\n        /* \"#utility.yul\":2807:2897   */\n    tag_45:\n        /* \"#utility.yul\":2841:2848   */\n      0x00\n        /* \"#utility.yul\":2884:2889   */\n      dup2\n        /* \"#utility.yul\":2877:2890   */\n      iszero\n        /* \"#utility.yul\":2870:2891   */\n      iszero\n        /* \"#utility.yul\":2859:2891   */\n      swap1\n      pop\n        /* \"#utility.yul\":2849:2897   */\n      swap2\n      swap1\n      pop\n      jump\t// out\n        /* \"#utility.yul\":2903:3029   */\n    tag_69:\n        /* \"#utility.yul\":2940:2947   */\n      0x00\n        /* \"#utility.yul\":2980:3022   */\n      0xffffffffffffffffffffffffffffffffffffffff\n        /* \"#utility.yul\":2973:2978   */\n      dup3\n        /* \"#utility.yul\":2969:3023   */\n      and\n        /* \"#utility.yul\":2958:3023   */\n      swap1\n      pop\n        /* \"#utility.yul\":2948:3029   */\n      swap2\n      swap1\n      pop\n      jump\t// out\n        /* \"#utility.yul\":3035:3204   */\n    tag_51:\n        /* \"#utility.yul\":3175:3196   */\n      0x5468652064656c6976657279206661696c656400000000000000000000000000\n        /* \"#utility.yul\":3171:3172   */\n      0x00\n        /* \"#utility.yul\":3163:3169   */\n      dup3\n        /* \"#utility.yul\":3159:3173   */\n      add\n        /* \"#utility.yul\":3152:3197   */\n      mstore\n        /* \"#utility.yul\":3141:3204   */\n      pop\n      jump\t// out\n        /* \"#utility.yul\":3210:3324   */\n    tag_57:\n        /* \"#utility.yul\":3316:3324   */\n      pop\n      jump\t// out\n        /* \"#utility.yul\":3330:3468   */\n    tag_38:\n        /* \"#utility.yul\":3411:3443   */\n      tag_75\n        /* \"#utility.yul\":3437:3442   */\n      dup2\n        /* \"#utility.yul\":3411:3443   */\n      tag_66\n      jump\t// in\n    tag_75:\n        /* \"#utility.yul\":3404:3409   */\n      dup2\n        /* \"#utility.yul\":3401:3444   */\n      eq\n        /* \"#utility.yul\":3391:3393   */\n      tag_76\n      jumpi\n        /* \"#utility.yul\":3458:3459   */\n      0x00\n        /* \"#utility.yul\":3455:3456   */\n      dup1\n        /* \"#utility.yul\":3448:3460   */\n      revert\n        /* \"#utility.yul\":3391:3393   */\n    tag_76:\n        /* \"#utility.yul\":3381:3468   */\n      pop\n      jump\t// out\n\n    auxdata: 0xa2646970667358221220a4a031ad561c4057e3156645137151d878627515fbe798a226956ba00102b67f64736f6c63430008040033\n}\n",
				"bytecode": {
					"linkReferences": {},
					"object": "60806040526103d7806100136000396000f3fe6080604052600436106100385760003560e01c8063636e082b1461004457806374be480614610060578063830c29ae1461007c5761003f565b3661003f57005b600080fd5b61005e60048036038101906100599190610236565b610098565b005b61007a60048036038101906100759190610236565b6100ea565b005b61009660048036038101906100919190610236565b6101ad565b005b8073ffffffffffffffffffffffffffffffffffffffff166108fc670de0b6b3a76400009081150290604051600060405180830381858888f193505050501580156100e6573d6000803e3d6000fd5b5050565b60008173ffffffffffffffffffffffffffffffffffffffff166108fc670de0b6b3a76400009081150290604051600060405180830381858888f1935050505090507f0c46a72a145bed1fc3c2d4b0e023bd11ddb1e3204a898f4119357ecde6d5fe998160405161015a91906102c9565b60405180910390a160011515811515146101a9576040517f08c379a00000000000000000000000000000000000000000000000000000000081526004016101a0906102e4565b60405180910390fd5b5050565b8073ffffffffffffffffffffffffffffffffffffffff16670de0b6b3a76400006040516101d9906102b4565b60006040518083038185875af1925050503d8060008114610216576040519150601f19603f3d011682016040523d82523d6000602084013e61021b565b606091505b50505050565b6000813590506102308161038a565b92915050565b60006020828403121561024857600080fd5b600061025684828501610221565b91505092915050565b61026881610332565b82525050565b600061027b60138361030f565b91506102868261035e565b602082019050919050565b600061029e600083610304565b91506102a982610387565b600082019050919050565b60006102bf82610291565b9150819050919050565b60006020820190506102de600083018461025f565b92915050565b600060208201905081810360008301526102fd8161026e565b9050919050565b600081905092915050565b600082825260208201905092915050565b600061032b8261033e565b9050919050565b60008115159050919050565b600073ffffffffffffffffffffffffffffffffffffffff82169050919050565b7f5468652064656c6976657279206661696c656400000000000000000000000000600082015250565b50565b61039381610320565b811461039e57600080fd5b5056fea2646970667358221220a4a031ad561c4057e3156645137151d878627515fbe798a226956ba00102b67f64736f6c63430008040033",
					"opcodes": "PUSH1 0x80 PUSH1 0x40 MSTORE PUSH2 0x3D7 DUP1 PUSH2 0x13 PUSH1 0x0 CODECOPY PUSH1 0x0 RETURN INVALID PUSH1 0x80 PUSH1 0x40 MSTORE PUSH1 0x4 CALLDATASIZE LT PUSH2 0x38 JUMPI PUSH1 0x0 CALLDATALOAD PUSH1 0xE0 SHR DUP1 PUSH4 0x636E082B EQ PUSH2 0x44 JUMPI DUP1 PUSH4 0x74BE4806 EQ PUSH2 0x60 JUMPI DUP1 PUSH4 0x830C29AE EQ PUSH2 0x7C JUMPI PUSH2 0x3F JUMP JUMPDEST CALLDATASIZE PUSH2 0x3F JUMPI STOP JUMPDEST PUSH1 0x0 DUP1 REVERT JUMPDEST PUSH2 0x5E PUSH1 0x4 DUP1 CALLDATASIZE SUB DUP2 ADD SWAP1 PUSH2 0x59 SWAP2 SWAP1 PUSH2 0x236 JUMP JUMPDEST PUSH2 0x98 JUMP JUMPDEST STOP JUMPDEST PUSH2 0x7A PUSH1 0x4 DUP1 CALLDATASIZE SUB DUP2 ADD SWAP1 PUSH2 0x75 SWAP2 SWAP1 PUSH2 0x236 JUMP JUMPDEST PUSH2 0xEA JUMP JUMPDEST STOP JUMPDEST PUSH2 0x96 PUSH1 0x4 DUP1 CALLDATASIZE SUB DUP2 ADD SWAP1 PUSH2 0x91 SWAP2 SWAP1 PUSH2 0x236 JUMP JUMPDEST PUSH2 0x1AD JUMP JUMPDEST STOP JUMPDEST DUP1 PUSH20 0xFFFFFFFFFFFFFFFFFFFFFFFFFFFFFFFFFFFFFFFF AND PUSH2 0x8FC PUSH8 0xDE0B6B3A7640000 SWAP1 DUP2 ISZERO MUL SWAP1 PUSH1 0x40 MLOAD PUSH1 0x0 PUSH1 0x40 MLOAD DUP1 DUP4 SUB DUP2 DUP6 DUP9 DUP9 CALL SWAP4 POP POP POP POP ISZERO DUP1 ISZERO PUSH2 0xE6 JUMPI RETURNDATASIZE PUSH1 0x0 DUP1 RETURNDATACOPY RETURNDATASIZE PUSH1 0x0 REVERT JUMPDEST POP POP JUMP JUMPDEST PUSH1 0x0 DUP2 PUSH20 0xFFFFFFFFFFFFFFFFFFFFFFFFFFFFFFFFFFFFFFFF AND PUSH2 0x8FC PUSH8 0xDE0B6B3A7640000 SWAP1 DUP2 ISZERO MUL SWAP1 PUSH1 0x40 MLOAD PUSH1 0x0 PUSH1 0x40 MLOAD DUP1 DUP4 SUB DUP2 DUP6 DUP9 DUP9 CALL SWAP4 POP POP POP POP SWAP1 POP PUSH32 0xC46A72A145BED1FC3C2D4B0E023BD11DDB1E3204A898F4119357ECDE6D5FE99 DUP2 PUSH1 0x40 MLOAD PUSH2 0x15A SWAP2 SWAP1 PUSH2 0x2C9 JUMP JUMPDEST PUSH1 0x40 MLOAD DUP1 SWAP2 SUB SWAP1 LOG1 PUSH1 0x1 ISZERO ISZERO DUP2 ISZERO ISZERO EQ PUSH2 0x1A9 JUMPI PUSH1 0x40 MLOAD PUSH32 0x8C379A000000000000000000000000000000000000000000000000000000000 DUP2 MSTORE PUSH1 0x4 ADD PUSH2 0x1A0 SWAP1 PUSH2 0x2E4 JUMP JUMPDEST PUSH1 0x40 MLOAD DUP1 SWAP2 SUB SWAP1 REVERT JUMPDEST POP POP JUMP JUMPDEST DUP1 PUSH20 0xFFFFFFFFFFFFFFFFFFFFFFFFFFFFFFFFFFFFFFFF AND PUSH8 0xDE0B6B3A7640000 PUSH1 0x40 MLOAD PUSH2 0x1D9 SWAP1 PUSH2 0x2B4 JUMP JUMPDEST PUSH1 0x0 PUSH1 0x40 MLOAD DUP1 DUP4 SUB DUP2 DUP6 DUP8 GAS CALL SWAP3 POP POP POP RETURNDATASIZE DUP1 PUSH1 0x0 DUP2 EQ PUSH2 0x216 JUMPI PUSH1 0x40 MLOAD SWAP2 POP PUSH1 0x1F NOT PUSH1 0x3F RETURNDATASIZE ADD AND DUP3 ADD PUSH1 0x40 MSTORE RETURNDATASIZE DUP3 MSTORE RETURNDATASIZE PUSH1 0x0 PUSH1 0x20 DUP5 ADD RETURNDATACOPY PUSH2 0x21B JUMP JUMPDEST PUSH1 0x60 SWAP2 POP JUMPDEST POP POP POP POP JUMP JUMPDEST PUSH1 0x0 DUP2 CALLDATALOAD SWAP1 POP PUSH2 0x230 DUP2 PUSH2 0x38A JUMP JUMPDEST SWAP3 SWAP2 POP POP JUMP JUMPDEST PUSH1 0x0 PUSH1 0x20 DUP3 DUP5 SUB SLT ISZERO PUSH2 0x248 JUMPI PUSH1 0x0 DUP1 REVERT JUMPDEST PUSH1 0x0 PUSH2 0x256 DUP5 DUP3 DUP6 ADD PUSH2 0x221 JUMP JUMPDEST SWAP2 POP POP SWAP3 SWAP2 POP POP JUMP JUMPDEST PUSH2 0x268 DUP2 PUSH2 0x332 JUMP JUMPDEST DUP3 MSTORE POP POP JUMP JUMPDEST PUSH1 0x0 PUSH2 0x27B PUSH1 0x13 DUP4 PUSH2 0x30F JUMP JUMPDEST SWAP2 POP PUSH2 0x286 DUP3 PUSH2 0x35E JUMP JUMPDEST PUSH1 0x20 DUP3 ADD SWAP1 POP SWAP2 SWAP1 POP JUMP JUMPDEST PUSH1 0x0 PUSH2 0x29E PUSH1 0x0 DUP4 PUSH2 0x304 JUMP JUMPDEST SWAP2 POP PUSH2 0x2A9 DUP3 PUSH2 0x387 JUMP JUMPDEST PUSH1 0x0 DUP3 ADD SWAP1 POP SWAP2 SWAP1 POP JUMP JUMPDEST PUSH1 0x0 PUSH2 0x2BF DUP3 PUSH2 0x291 JUMP JUMPDEST SWAP2 POP DUP2 SWAP1 POP SWAP2 SWAP1 POP JUMP JUMPDEST PUSH1 0x0 PUSH1 0x20 DUP3 ADD SWAP1 POP PUSH2 0x2DE PUSH1 0x0 DUP4 ADD DUP5 PUSH2 0x25F JUMP JUMPDEST SWAP3 SWAP2 POP POP JUMP JUMPDEST PUSH1 0x0 PUSH1 0x20 DUP3 ADD SWAP1 POP DUP2 DUP2 SUB PUSH1 0x0 DUP4 ADD MSTORE PUSH2 0x2FD DUP2 PUSH2 0x26E JUMP JUMPDEST SWAP1 POP SWAP2 SWAP1 POP JUMP JUMPDEST PUSH1 0x0 DUP2 SWAP1 POP SWAP3 SWAP2 POP POP JUMP JUMPDEST PUSH1 0x0 DUP3 DUP3 MSTORE PUSH1 0x20 DUP3 ADD SWAP1 POP SWAP3 SWAP2 POP POP JUMP JUMPDEST PUSH1 0x0 PUSH2 0x32B DUP3 PUSH2 0x33E JUMP JUMPDEST SWAP1 POP SWAP2 SWAP1 POP JUMP JUMPDEST PUSH1 0x0 DUP2 ISZERO ISZERO SWAP1 POP SWAP2 SWAP1 POP JUMP JUMPDEST PUSH1 0x0 PUSH20 0xFFFFFFFFFFFFFFFFFFFFFFFFFFFFFFFFFFFFFFFF DUP3 AND SWAP1 POP SWAP2 SWAP1 POP JUMP JUMPDEST PUSH32 0x5468652064656C6976657279206661696C656400000000000000000000000000 PUSH1 0x0 DUP3 ADD MSTORE POP JUMP JUMPDEST POP JUMP JUMPDEST PUSH2 0x393 DUP2 PUSH2 0x320 JUMP JUMPDEST DUP2 EQ PUSH2 0x39E JUMPI PUSH1 0x0 DUP1 REVERT JUMPDEST POP JUMP INVALID LOG2 PUSH5 0x6970667358 0x22 SLT KECCAK256 LOG4 LOG0 BALANCE 0xAD JUMP SHR BLOCKHASH JUMPI 0xE3 ISZERO PUSH7 0x45137151D87862 PUSH22 0x15FBE798A226956BA00102B67F64736F6C6343000804 STOP CALLER "
				},
				"gasEstimates": {
					"creation": {
						"codeDepositCost": "196600",
						"executionCost": "214",
						"totalCost": "196814"
					},
					"external": {
						"sendViaCall(address)": "infinite",
						"sendViaSend(address)": "infinite",
						"sendViaTransfer(address)": "infinite"
					}
				},
				"methodIdentifiers": {
					"sendViaCall(address)": "830c29ae",
					"sendViaSend(address)": "74be4806",
					"sendViaTransfer(address)": "636e082b"
				}
			},
			"storageLayout": {
				"storage": [],
				"types": null
			},
			"userdoc": {
				"kind": "user",
				"methods": {},
				"version": 1
			}
		}
	}
}