{
	"contracts/3_data_structures.sol": {
		"DataStructures": {
			"abi": [
				{
					"inputs": [
						{
							"internalType": "uint256",
							"name": "id",
							"type": "uint256"
						},
						{
							"internalType": "string",
							"name": "_name",
							"type": "string"
						},
						{
							"internalType": "string",
							"name": "_email",
							"type": "string"
						}
					],
					"name": "arrayAppend",
					"outputs": [],
					"stateMutability": "nonpayable",
					"type": "function"
				},
				{
					"inputs": [
						{
							"components": [
								{
									"internalType": "uint256",
									"name": "id",
									"type": "uint256"
								},
								{
									"internalType": "string",
									"name": "name",
									"type": "string"
								},
								{
									"internalType": "string",
									"name": "email",
									"type": "string"
								}
							],
							"internalType": "struct DataStructures.Customer[]",
							"name": "_customers",
							"type": "tuple[]"
						}
					],
					"name": "assignList",
					"outputs": [],
					"stateMutability": "nonpayable",
					"type": "function"
				},
				{
					"inputs": [
						{
							"internalType": "uint256",
							"name": "_number",
							"type": "uint256"
						}
					],
					"name": "assignNumber",
					"outputs": [],
					"stateMutability": "nonpayable",
					"type": "function"
				},
				{
					"inputs": [
						{
							"internalType": "uint256",
							"name": "",
							"type": "uint256"
						}
					],
					"name": "customers",
					"outputs": [
						{
							"internalType": "uint256",
							"name": "id",
							"type": "uint256"
						},
						{
							"internalType": "string",
							"name": "name",
							"type": "string"
						},
						{
							"internalType": "string",
							"name": "email",
							"type": "string"
						}
					],
					"stateMutability": "view",
					"type": "function"
				},
				{
					"inputs": [
						{
							"internalType": "address",
							"name": "",
							"type": "address"
						},
						{
							"internalType": "uint256",
							"name": "",
							"type": "uint256"
						}
					],
					"name": "customersAddress",
					"outputs": [
						{
							"internalType": "uint256",
							"name": "id",
							"type": "uint256"
						},
						{
							"internalType": "string",
							"name": "name",
							"type": "string"
						},
						{
							"internalType": "string",
							"name": "email",
							"type": "string"
						}
					],
					"stateMutability": "view",
					"type": "function"
				},
				{
					"inputs": [
						{
							"internalType": "address",
							"name": "",
							"type": "address"
						}
					],
					"name": "wallets",
					"outputs": [
						{
							"internalType": "uint256",
							"name": "",
							"type": "uint256"
						}
					],
					"stateMutability": "view",
					"type": "function"
				}
			],
			"devdoc": {
				"kind": "dev",
				"methods": {},
				"version": 1
			},
			"evm": {
				"assembly": "    /* \"contracts/3_data_structures.sol\":69:1128  contract DataStructures {... */\n  mstore(0x40, 0x80)\n    /* \"contracts/3_data_structures.sol\":272:347  Customer(... */\n  mload(0x40)\n  dup1\n  0x60\n  add\n  0x40\n  mstore\n  dup1\n    /* \"contracts/3_data_structures.sol\":290:291  1 */\n  0x01\n    /* \"contracts/3_data_structures.sol\":272:347  Customer(... */\n  dup2\n  mstore\n  0x20\n  add\n  mload(0x40)\n  dup1\n  0x40\n  add\n  0x40\n  mstore\n  dup1\n  0x07\n  dup2\n  mstore\n  0x20\n  add\n  0x526f626572746f00000000000000000000000000000000000000000000000000\n  dup2\n  mstore\n  pop\n  dup2\n  mstore\n  0x20\n  add\n  mload(0x40)\n  dup1\n  0x40\n  add\n  0x40\n  mstore\n  dup1\n  0x13\n  dup2\n  mstore\n  0x20\n  add\n  0x726f626572746f40726f626572746f2e636f6d00000000000000000000000000\n  dup2\n  mstore\n  pop\n  dup2\n  mstore\n  pop\n    /* \"contracts/3_data_structures.sol\":251:347  Customer customer1 = Customer(... */\n  0x00\n  dup1\n  dup3\n  add\n  mload\n  dup2\n  0x00\n  add\n  sstore\n  0x20\n  dup3\n  add\n  mload\n  dup2\n  0x01\n  add\n  swap1\n  dup1\n  mload\n  swap1\n  0x20\n  add\n  swap1\n  tag_1\n  swap3\n  swap2\n  swap1\n  tag_2\n  jump\t// in\ntag_1:\n  pop\n  0x40\n  dup3\n  add\n  mload\n  dup2\n  0x02\n  add\n  swap1\n  dup1\n  mload\n  swap1\n  0x20\n  add\n  swap1\n  tag_3\n  swap3\n  swap2\n  swap1\n  tag_2\n  jump\t// in\ntag_3:\n  pop\n  pop\n  pop\n    /* \"contracts/3_data_structures.sol\":385:403  uint[4] ages = [1] */\n  mload(0x40)\n  dup1\n  0x20\n  add\n  0x40\n  mstore\n  dup1\n    /* \"contracts/3_data_structures.sol\":401:402  1 */\n  0x01\n    /* \"contracts/3_data_structures.sol\":385:403  uint[4] ages = [1] */\n  0xff\n  and\n  dup2\n  mstore\n  pop\n  0x03\n  swap1\n  0x01\n  tag_4\n  swap3\n  swap2\n  swap1\n  tag_5\n  jump\t// in\ntag_4:\n  pop\n    /* \"contracts/3_data_structures.sol\":69:1128  contract DataStructures {... */\n  callvalue\n  dup1\n  iszero\n  tag_6\n  jumpi\n  0x00\n  dup1\n  revert\ntag_6:\n  pop\n  jump(tag_7)\ntag_2:\n  dup3\n  dup1\n  sload\n  tag_8\n  swap1\n  tag_9\n  jump\t// in\ntag_8:\n  swap1\n  0x00\n  mstore\n  keccak256(0x00, 0x20)\n  swap1\n  0x1f\n  add\n  0x20\n  swap1\n  div\n  dup2\n  add\n  swap3\n  dup3\n  tag_11\n  jumpi\n  0x00\n  dup6\n  sstore\n  jump(tag_10)\ntag_11:\n  dup3\n  0x1f\n  lt\n  tag_12\n  jumpi\n  dup1\n  mload\n  not(0xff)\n  and\n  dup4\n  dup1\n  add\n  or\n  dup6\n  sstore\n  jump(tag_10)\ntag_12:\n  dup3\n  dup1\n  add\n  0x01\n  add\n  dup6\n  sstore\n  dup3\n  iszero\n  tag_10\n  jumpi\n  swap2\n  dup3\n  add\ntag_13:\n  dup3\n  dup2\n  gt\n  iszero\n  tag_14\n  jumpi\n  dup3\n  mload\n  dup3\n  sstore\n  swap2\n  0x20\n  add\n  swap2\n  swap1\n  0x01\n  add\n  swap1\n  jump(tag_13)\ntag_14:\ntag_10:\n  pop\n  swap1\n  pop\n  tag_15\n  swap2\n  swap1\n  tag_16\n  jump\t// in\ntag_15:\n  pop\n  swap1\n  jump\t// out\ntag_5:\n  dup3\n  0x04\n  dup2\n  add\n  swap3\n  dup3\n  iszero\n  tag_17\n  jumpi\n  swap2\n  0x20\n  mul\n  dup3\n  add\ntag_18:\n  dup3\n  dup2\n  gt\n  iszero\n  tag_19\n  jumpi\n  dup3\n  mload\n  dup3\n  swap1\n  0xff\n  and\n  swap1\n  sstore\n  swap2\n  0x20\n  add\n  swap2\n  swap1\n  0x01\n  add\n  swap1\n  jump(tag_18)\ntag_19:\ntag_17:\n  pop\n  swap1\n  pop\n  tag_20\n  swap2\n  swap1\n  tag_16\n  jump\t// in\ntag_20:\n  pop\n  swap1\n  jump\t// out\ntag_16:\ntag_21:\n  dup1\n  dup3\n  gt\n  iszero\n  tag_22\n  jumpi\n  0x00\n  dup2\n  0x00\n  swap1\n  sstore\n  pop\n  0x01\n  add\n  jump(tag_21)\ntag_22:\n  pop\n  swap1\n  jump\t// out\n    /* \"#utility.yul\":7:327   */\ntag_9:\n    /* \"#utility.yul\":51:57   */\n  0x00\n    /* \"#utility.yul\":88:89   */\n  0x02\n    /* \"#utility.yul\":82:86   */\n  dup3\n    /* \"#utility.yul\":78:90   */\n  div\n    /* \"#utility.yul\":68:90   */\n  swap1\n  pop\n    /* \"#utility.yul\":135:136   */\n  0x01\n    /* \"#utility.yul\":129:133   */\n  dup3\n    /* \"#utility.yul\":125:137   */\n  and\n    /* \"#utility.yul\":156:174   */\n  dup1\n    /* \"#utility.yul\":146:148   */\n  tag_25\n  jumpi\n    /* \"#utility.yul\":212:216   */\n  0x7f\n    /* \"#utility.yul\":204:210   */\n  dup3\n    /* \"#utility.yul\":200:217   */\n  and\n    /* \"#utility.yul\":190:217   */\n  swap2\n  pop\n    /* \"#utility.yul\":146:148   */\ntag_25:\n    /* \"#utility.yul\":274:276   */\n  0x20\n    /* \"#utility.yul\":266:272   */\n  dup3\n    /* \"#utility.yul\":263:277   */\n  lt\n    /* \"#utility.yul\":243:261   */\n  dup2\n    /* \"#utility.yul\":240:278   */\n  eq\n    /* \"#utility.yul\":237:239   */\n  iszero\n  tag_26\n  jumpi\n    /* \"#utility.yul\":293:311   */\n  tag_27\n  tag_28\n  jump\t// in\ntag_27:\n    /* \"#utility.yul\":237:239   */\ntag_26:\n    /* \"#utility.yul\":58:327   */\n  pop\n  swap2\n  swap1\n  pop\n  jump\t// out\n    /* \"#utility.yul\":333:513   */\ntag_28:\n    /* \"#utility.yul\":381:458   */\n  0x4e487b7100000000000000000000000000000000000000000000000000000000\n    /* \"#utility.yul\":378:379   */\n  0x00\n    /* \"#utility.yul\":371:459   */\n  mstore\n    /* \"#utility.yul\":478:482   */\n  0x22\n    /* \"#utility.yul\":475:476   */\n  0x04\n    /* \"#utility.yul\":468:483   */\n  mstore\n    /* \"#utility.yul\":502:506   */\n  0x24\n    /* \"#utility.yul\":499:500   */\n  0x00\n    /* \"#utility.yul\":492:507   */\n  revert\n    /* \"contracts/3_data_structures.sol\":69:1128  contract DataStructures {... */\ntag_7:\n  dataSize(sub_0)\n  dup1\n  dataOffset(sub_0)\n  0x00\n  codecopy\n  0x00\n  return\nstop\n\nsub_0: assembly {\n        /* \"contracts/3_data_structures.sol\":69:1128  contract DataStructures {... */\n      mstore(0x40, 0x80)\n      callvalue\n      dup1\n      iszero\n      tag_1\n      jumpi\n      0x00\n      dup1\n      revert\n    tag_1:\n      pop\n      jumpi(tag_2, lt(calldatasize, 0x04))\n      shr(0xe0, calldataload(0x00))\n      dup1\n      0x60591cc0\n      eq\n      tag_3\n      jumpi\n      dup1\n      0x89b08f11\n      eq\n      tag_4\n      jumpi\n      dup1\n      0xb45aed86\n      eq\n      tag_5\n      jumpi\n      dup1\n      0xc0abda2a\n      eq\n      tag_6\n      jumpi\n      dup1\n      0xe52b008f\n      eq\n      tag_7\n      jumpi\n      dup1\n      0xe7cf5fe7\n      eq\n      tag_8\n      jumpi\n    tag_2:\n      0x00\n      dup1\n      revert\n        /* \"contracts/3_data_structures.sol\":475:712  function arrayAppend(uint id, string memory _name, string memory _email) public {... */\n    tag_3:\n      tag_9\n      0x04\n      dup1\n      calldatasize\n      sub\n      dup2\n      add\n      swap1\n      tag_10\n      swap2\n      swap1\n      tag_11\n      jump\t// in\n    tag_10:\n      tag_12\n      jump\t// in\n    tag_9:\n      stop\n        /* \"contracts/3_data_structures.sol\":734:773  mapping(address => uint) public wallets */\n    tag_4:\n      tag_13\n      0x04\n      dup1\n      calldatasize\n      sub\n      dup2\n      add\n      swap1\n      tag_14\n      swap2\n      swap1\n      tag_15\n      jump\t// in\n    tag_14:\n      tag_16\n      jump\t// in\n    tag_13:\n      mload(0x40)\n      tag_17\n      swap2\n      swap1\n      tag_18\n      jump\t// in\n    tag_17:\n      mload(0x40)\n      dup1\n      swap2\n      sub\n      swap1\n      return\n        /* \"contracts/3_data_structures.sol\":779:833  mapping(address => Customer[]) public customersAddress */\n    tag_5:\n      tag_19\n      0x04\n      dup1\n      calldatasize\n      sub\n      dup2\n      add\n      swap1\n      tag_20\n      swap2\n      swap1\n      tag_21\n      jump\t// in\n    tag_20:\n      tag_22\n      jump\t// in\n    tag_19:\n      mload(0x40)\n      tag_23\n      swap4\n      swap3\n      swap2\n      swap1\n      tag_24\n      jump\t// in\n    tag_23:\n      mload(0x40)\n      dup1\n      swap2\n      sub\n      swap1\n      return\n        /* \"contracts/3_data_structures.sol\":409:436  Customer[] public customers */\n    tag_6:\n      tag_25\n      0x04\n      dup1\n      calldatasize\n      sub\n      dup2\n      add\n      swap1\n      tag_26\n      swap2\n      swap1\n      tag_27\n      jump\t// in\n    tag_26:\n      tag_28\n      jump\t// in\n    tag_25:\n      mload(0x40)\n      tag_29\n      swap4\n      swap3\n      swap2\n      swap1\n      tag_24\n      jump\t// in\n    tag_29:\n      mload(0x40)\n      dup1\n      swap2\n      sub\n      swap1\n      return\n        /* \"contracts/3_data_structures.sol\":840:929  function assignNumber(uint _number) public {... */\n    tag_7:\n      tag_30\n      0x04\n      dup1\n      calldatasize\n      sub\n      dup2\n      add\n      swap1\n      tag_31\n      swap2\n      swap1\n      tag_27\n      jump\t// in\n    tag_31:\n      tag_32\n      jump\t// in\n    tag_30:\n      stop\n        /* \"contracts/3_data_structures.sol\":935:1126  function assignList(Customer[] memory _customers) public {... */\n    tag_8:\n      tag_33\n      0x04\n      dup1\n      calldatasize\n      sub\n      dup2\n      add\n      swap1\n      tag_34\n      swap2\n      swap1\n      tag_35\n      jump\t// in\n    tag_34:\n      tag_36\n      jump\t// in\n    tag_33:\n      stop\n        /* \"contracts/3_data_structures.sol\":475:712  function arrayAppend(uint id, string memory _name, string memory _email) public {... */\n    tag_12:\n        /* \"contracts/3_data_structures.sol\":565:592  Customer memory newCustomer */\n      0x00\n        /* \"contracts/3_data_structures.sol\":595:668  Customer(... */\n      mload(0x40)\n      dup1\n      0x60\n      add\n      0x40\n      mstore\n      dup1\n        /* \"contracts/3_data_structures.sol\":617:619  id */\n      dup6\n        /* \"contracts/3_data_structures.sol\":595:668  Customer(... */\n      dup2\n      mstore\n      0x20\n      add\n        /* \"contracts/3_data_structures.sol\":633:638  _name */\n      dup5\n        /* \"contracts/3_data_structures.sol\":595:668  Customer(... */\n      dup2\n      mstore\n      0x20\n      add\n        /* \"contracts/3_data_structures.sol\":652:658  _email */\n      dup4\n        /* \"contracts/3_data_structures.sol\":595:668  Customer(... */\n      dup2\n      mstore\n      pop\n        /* \"contracts/3_data_structures.sol\":565:668  Customer memory newCustomer = Customer(... */\n      swap1\n      pop\n        /* \"contracts/3_data_structures.sol\":678:687  customers */\n      0x07\n        /* \"contracts/3_data_structures.sol\":693:704  newCustomer */\n      dup2\n        /* \"contracts/3_data_structures.sol\":678:705  customers.push(newCustomer) */\n      swap1\n      dup1\n      0x01\n      dup2\n      sload\n      add\n      dup1\n      dup3\n      sstore\n      dup1\n      swap2\n      pop\n      pop\n      0x01\n      swap1\n      sub\n      swap1\n      0x00\n      mstore\n      keccak256(0x00, 0x20)\n      swap1\n      0x03\n      mul\n      add\n      0x00\n      swap1\n      swap2\n      swap1\n      swap2\n      swap1\n      swap2\n      pop\n      0x00\n      dup3\n      add\n      mload\n      dup2\n      0x00\n      add\n      sstore\n      0x20\n      dup3\n      add\n      mload\n      dup2\n      0x01\n      add\n      swap1\n      dup1\n      mload\n      swap1\n      0x20\n      add\n      swap1\n      tag_39\n      swap3\n      swap2\n      swap1\n      tag_40\n      jump\t// in\n    tag_39:\n      pop\n      0x40\n      dup3\n      add\n      mload\n      dup2\n      0x02\n      add\n      swap1\n      dup1\n      mload\n      swap1\n      0x20\n      add\n      swap1\n      tag_41\n      swap3\n      swap2\n      swap1\n      tag_40\n      jump\t// in\n    tag_41:\n      pop\n      pop\n      pop\n        /* \"contracts/3_data_structures.sol\":475:712  function arrayAppend(uint id, string memory _name, string memory _email) public {... */\n      pop\n      pop\n      pop\n      pop\n      jump\t// out\n        /* \"contracts/3_data_structures.sol\":734:773  mapping(address => uint) public wallets */\n    tag_16:\n      mstore(0x20, 0x08)\n      dup1\n      0x00\n      mstore\n      keccak256(0x00, 0x40)\n      0x00\n      swap2\n      pop\n      swap1\n      pop\n      sload\n      dup2\n      jump\t// out\n        /* \"contracts/3_data_structures.sol\":779:833  mapping(address => Customer[]) public customersAddress */\n    tag_22:\n      mstore(0x20, 0x09)\n      dup2\n      0x00\n      mstore\n      keccak256(0x00, 0x40)\n      dup2\n      dup2\n      sload\n      dup2\n      lt\n      tag_42\n      jumpi\n      0x00\n      dup1\n      revert\n    tag_42:\n      swap1\n      0x00\n      mstore\n      keccak256(0x00, 0x20)\n      swap1\n      0x03\n      mul\n      add\n      0x00\n      swap2\n      pop\n      swap2\n      pop\n      pop\n      dup1\n      0x00\n      add\n      sload\n      swap1\n      dup1\n      0x01\n      add\n      dup1\n      sload\n      tag_44\n      swap1\n      tag_45\n      jump\t// in\n    tag_44:\n      dup1\n      0x1f\n      add\n      0x20\n      dup1\n      swap2\n      div\n      mul\n      0x20\n      add\n      mload(0x40)\n      swap1\n      dup2\n      add\n      0x40\n      mstore\n      dup1\n      swap3\n      swap2\n      swap1\n      dup2\n      dup2\n      mstore\n      0x20\n      add\n      dup3\n      dup1\n      sload\n      tag_46\n      swap1\n      tag_45\n      jump\t// in\n    tag_46:\n      dup1\n      iszero\n      tag_47\n      jumpi\n      dup1\n      0x1f\n      lt\n      tag_48\n      jumpi\n      0x0100\n      dup1\n      dup4\n      sload\n      div\n      mul\n      dup4\n      mstore\n      swap2\n      0x20\n      add\n      swap2\n      jump(tag_47)\n    tag_48:\n      dup3\n      add\n      swap2\n      swap1\n      0x00\n      mstore\n      keccak256(0x00, 0x20)\n      swap1\n    tag_49:\n      dup2\n      sload\n      dup2\n      mstore\n      swap1\n      0x01\n      add\n      swap1\n      0x20\n      add\n      dup1\n      dup4\n      gt\n      tag_49\n      jumpi\n      dup3\n      swap1\n      sub\n      0x1f\n      and\n      dup3\n      add\n      swap2\n    tag_47:\n      pop\n      pop\n      pop\n      pop\n      pop\n      swap1\n      dup1\n      0x02\n      add\n      dup1\n      sload\n      tag_50\n      swap1\n      tag_45\n      jump\t// in\n    tag_50:\n      dup1\n      0x1f\n      add\n      0x20\n      dup1\n      swap2\n      div\n      mul\n      0x20\n      add\n      mload(0x40)\n      swap1\n      dup2\n      add\n      0x40\n      mstore\n      dup1\n      swap3\n      swap2\n      swap1\n      dup2\n      dup2\n      mstore\n      0x20\n      add\n      dup3\n      dup1\n      sload\n      tag_51\n      swap1\n      tag_45\n      jump\t// in\n    tag_51:\n      dup1\n      iszero\n      tag_52\n      jumpi\n      dup1\n      0x1f\n      lt\n      tag_53\n      jumpi\n      0x0100\n      dup1\n      dup4\n      sload\n      div\n      mul\n      dup4\n      mstore\n      swap2\n      0x20\n      add\n      swap2\n      jump(tag_52)\n    tag_53:\n      dup3\n      add\n      swap2\n      swap1\n      0x00\n      mstore\n      keccak256(0x00, 0x20)\n      swap1\n    tag_54:\n      dup2\n      sload\n      dup2\n      mstore\n      swap1\n      0x01\n      add\n      swap1\n      0x20\n      add\n      dup1\n      dup4\n      gt\n      tag_54\n      jumpi\n      dup3\n      swap1\n      sub\n      0x1f\n      and\n      dup3\n      add\n      swap2\n    tag_52:\n      pop\n      pop\n      pop\n      pop\n      pop\n      swap1\n      pop\n      dup4\n      jump\t// out\n        /* \"contracts/3_data_structures.sol\":409:436  Customer[] public customers */\n    tag_28:\n      0x07\n      dup2\n      dup2\n      sload\n      dup2\n      lt\n      tag_55\n      jumpi\n      0x00\n      dup1\n      revert\n    tag_55:\n      swap1\n      0x00\n      mstore\n      keccak256(0x00, 0x20)\n      swap1\n      0x03\n      mul\n      add\n      0x00\n      swap2\n      pop\n      swap1\n      pop\n      dup1\n      0x00\n      add\n      sload\n      swap1\n      dup1\n      0x01\n      add\n      dup1\n      sload\n      tag_57\n      swap1\n      tag_45\n      jump\t// in\n    tag_57:\n      dup1\n      0x1f\n      add\n      0x20\n      dup1\n      swap2\n      div\n      mul\n      0x20\n      add\n      mload(0x40)\n      swap1\n      dup2\n      add\n      0x40\n      mstore\n      dup1\n      swap3\n      swap2\n      swap1\n      dup2\n      dup2\n      mstore\n      0x20\n      add\n      dup3\n      dup1\n      sload\n      tag_58\n      swap1\n      tag_45\n      jump\t// in\n    tag_58:\n      dup1\n      iszero\n      tag_59\n      jumpi\n      dup1\n      0x1f\n      lt\n      tag_60\n      jumpi\n      0x0100\n      dup1\n      dup4\n      sload\n      div\n      mul\n      dup4\n      mstore\n      swap2\n      0x20\n      add\n      swap2\n      jump(tag_59)\n    tag_60:\n      dup3\n      add\n      swap2\n      swap1\n      0x00\n      mstore\n      keccak256(0x00, 0x20)\n      swap1\n    tag_61:\n      dup2\n      sload\n      dup2\n      mstore\n      swap1\n      0x01\n      add\n      swap1\n      0x20\n      add\n      dup1\n      dup4\n      gt\n      tag_61\n      jumpi\n      dup3\n      swap1\n      sub\n      0x1f\n      and\n      dup3\n      add\n      swap2\n    tag_59:\n      pop\n      pop\n      pop\n      pop\n      pop\n      swap1\n      dup1\n      0x02\n      add\n      dup1\n      sload\n      tag_62\n      swap1\n      tag_45\n      jump\t// in\n    tag_62:\n      dup1\n      0x1f\n      add\n      0x20\n      dup1\n      swap2\n      div\n      mul\n      0x20\n      add\n      mload(0x40)\n      swap1\n      dup2\n      add\n      0x40\n      mstore\n      dup1\n      swap3\n      swap2\n      swap1\n      dup2\n      dup2\n      mstore\n      0x20\n      add\n      dup3\n      dup1\n      sload\n      tag_63\n      swap1\n      tag_45\n      jump\t// in\n    tag_63:\n      dup1\n      iszero\n      tag_64\n      jumpi\n      dup1\n      0x1f\n      lt\n      tag_65\n      jumpi\n      0x0100\n      dup1\n      dup4\n      sload\n      div\n      mul\n      dup4\n      mstore\n      swap2\n      0x20\n      add\n      swap2\n      jump(tag_64)\n    tag_65:\n      dup3\n      add\n      swap2\n      swap1\n      0x00\n      mstore\n      keccak256(0x00, 0x20)\n      swap1\n    tag_66:\n      dup2\n      sload\n      dup2\n      mstore\n      swap1\n      0x01\n      add\n      swap1\n      0x20\n      add\n      dup1\n      dup4\n      gt\n      tag_66\n      jumpi\n      dup3\n      swap1\n      sub\n      0x1f\n      and\n      dup3\n      add\n      swap2\n    tag_64:\n      pop\n      pop\n      pop\n      pop\n      pop\n      swap1\n      pop\n      dup4\n      jump\t// out\n        /* \"contracts/3_data_structures.sol\":840:929  function assignNumber(uint _number) public {... */\n    tag_32:\n        /* \"contracts/3_data_structures.sol\":915:922  _number */\n      dup1\n        /* \"contracts/3_data_structures.sol\":893:900  wallets */\n      0x08\n        /* \"contracts/3_data_structures.sol\":893:912  wallets[msg.sender] */\n      0x00\n        /* \"contracts/3_data_structures.sol\":901:911  msg.sender */\n      caller\n        /* \"contracts/3_data_structures.sol\":893:912  wallets[msg.sender] */\n      0xffffffffffffffffffffffffffffffffffffffff\n      and\n      0xffffffffffffffffffffffffffffffffffffffff\n      and\n      dup2\n      mstore\n      0x20\n      add\n      swap1\n      dup2\n      mstore\n      0x20\n      add\n      0x00\n      keccak256\n        /* \"contracts/3_data_structures.sol\":893:922  wallets[msg.sender] = _number */\n      dup2\n      swap1\n      sstore\n      pop\n        /* \"contracts/3_data_structures.sol\":840:929  function assignNumber(uint _number) public {... */\n      pop\n      jump\t// out\n        /* \"contracts/3_data_structures.sol\":935:1126  function assignList(Customer[] memory _customers) public {... */\n    tag_36:\n        /* \"contracts/3_data_structures.sol\":1007:1013  uint i */\n      0x00\n        /* \"contracts/3_data_structures.sol\":1002:1120  for (uint i = 0; i < _customers.length; i++) {... */\n    tag_69:\n        /* \"contracts/3_data_structures.sol\":1023:1033  _customers */\n      dup2\n        /* \"contracts/3_data_structures.sol\":1023:1040  _customers.length */\n      mload\n        /* \"contracts/3_data_structures.sol\":1019:1020  i */\n      dup2\n        /* \"contracts/3_data_structures.sol\":1019:1040  i < _customers.length */\n      lt\n        /* \"contracts/3_data_structures.sol\":1002:1120  for (uint i = 0; i < _customers.length; i++) {... */\n      iszero\n      tag_70\n      jumpi\n        /* \"contracts/3_data_structures.sol\":1061:1077  customersAddress */\n      0x09\n        /* \"contracts/3_data_structures.sol\":1061:1089  customersAddress[msg.sender] */\n      0x00\n        /* \"contracts/3_data_structures.sol\":1078:1088  msg.sender */\n      caller\n        /* \"contracts/3_data_structures.sol\":1061:1089  customersAddress[msg.sender] */\n      0xffffffffffffffffffffffffffffffffffffffff\n      and\n      0xffffffffffffffffffffffffffffffffffffffff\n      and\n      dup2\n      mstore\n      0x20\n      add\n      swap1\n      dup2\n      mstore\n      0x20\n      add\n      0x00\n      keccak256\n        /* \"contracts/3_data_structures.sol\":1095:1105  _customers */\n      dup3\n        /* \"contracts/3_data_structures.sol\":1106:1107  i */\n      dup3\n        /* \"contracts/3_data_structures.sol\":1095:1108  _customers[i] */\n      dup2\n      mload\n      dup2\n      lt\n      tag_72\n      jumpi\n      mstore(0x00, 0x4e487b7100000000000000000000000000000000000000000000000000000000)\n      mstore(0x04, 0x32)\n      revert(0x00, 0x24)\n    tag_72:\n      0x20\n      mul\n      0x20\n      add\n      add\n      mload\n        /* \"contracts/3_data_structures.sol\":1061:1109  customersAddress[msg.sender].push(_customers[i]) */\n      swap1\n      dup1\n      0x01\n      dup2\n      sload\n      add\n      dup1\n      dup3\n      sstore\n      dup1\n      swap2\n      pop\n      pop\n      0x01\n      swap1\n      sub\n      swap1\n      0x00\n      mstore\n      keccak256(0x00, 0x20)\n      swap1\n      0x03\n      mul\n      add\n      0x00\n      swap1\n      swap2\n      swap1\n      swap2\n      swap1\n      swap2\n      pop\n      0x00\n      dup3\n      add\n      mload\n      dup2\n      0x00\n      add\n      sstore\n      0x20\n      dup3\n      add\n      mload\n      dup2\n      0x01\n      add\n      swap1\n      dup1\n      mload\n      swap1\n      0x20\n      add\n      swap1\n      tag_74\n      swap3\n      swap2\n      swap1\n      tag_40\n      jump\t// in\n    tag_74:\n      pop\n      0x40\n      dup3\n      add\n      mload\n      dup2\n      0x02\n      add\n      swap1\n      dup1\n      mload\n      swap1\n      0x20\n      add\n      swap1\n      tag_75\n      swap3\n      swap2\n      swap1\n      tag_40\n      jump\t// in\n    tag_75:\n      pop\n      pop\n      pop\n        /* \"contracts/3_data_structures.sol\":1042:1045  i++ */\n      dup1\n      dup1\n      tag_76\n      swap1\n      tag_77\n      jump\t// in\n    tag_76:\n      swap2\n      pop\n      pop\n        /* \"contracts/3_data_structures.sol\":1002:1120  for (uint i = 0; i < _customers.length; i++) {... */\n      jump(tag_69)\n    tag_70:\n      pop\n        /* \"contracts/3_data_structures.sol\":935:1126  function assignList(Customer[] memory _customers) public {... */\n      pop\n      jump\t// out\n    tag_40:\n      dup3\n      dup1\n      sload\n      tag_78\n      swap1\n      tag_45\n      jump\t// in\n    tag_78:\n      swap1\n      0x00\n      mstore\n      keccak256(0x00, 0x20)\n      swap1\n      0x1f\n      add\n      0x20\n      swap1\n      div\n      dup2\n      add\n      swap3\n      dup3\n      tag_80\n      jumpi\n      0x00\n      dup6\n      sstore\n      jump(tag_79)\n    tag_80:\n      dup3\n      0x1f\n      lt\n      tag_81\n      jumpi\n      dup1\n      mload\n      not(0xff)\n      and\n      dup4\n      dup1\n      add\n      or\n      dup6\n      sstore\n      jump(tag_79)\n    tag_81:\n      dup3\n      dup1\n      add\n      0x01\n      add\n      dup6\n      sstore\n      dup3\n      iszero\n      tag_79\n      jumpi\n      swap2\n      dup3\n      add\n    tag_82:\n      dup3\n      dup2\n      gt\n      iszero\n      tag_83\n      jumpi\n      dup3\n      mload\n      dup3\n      sstore\n      swap2\n      0x20\n      add\n      swap2\n      swap1\n      0x01\n      add\n      swap1\n      jump(tag_82)\n    tag_83:\n    tag_79:\n      pop\n      swap1\n      pop\n      tag_84\n      swap2\n      swap1\n      tag_85\n      jump\t// in\n    tag_84:\n      pop\n      swap1\n      jump\t// out\n    tag_85:\n    tag_86:\n      dup1\n      dup3\n      gt\n      iszero\n      tag_87\n      jumpi\n      0x00\n      dup2\n      0x00\n      swap1\n      sstore\n      pop\n      0x01\n      add\n      jump(tag_86)\n    tag_87:\n      pop\n      swap1\n      jump\t// out\n        /* \"#utility.yul\":47:909   */\n    tag_89:\n        /* \"#utility.yul\":166:171   */\n      0x00\n        /* \"#utility.yul\":191:295   */\n      tag_91\n        /* \"#utility.yul\":207:294   */\n      tag_92\n        /* \"#utility.yul\":287:293   */\n      dup5\n        /* \"#utility.yul\":207:294   */\n      tag_93\n      jump\t// in\n    tag_92:\n        /* \"#utility.yul\":191:295   */\n      tag_94\n      jump\t// in\n    tag_91:\n        /* \"#utility.yul\":182:295   */\n      swap1\n      pop\n        /* \"#utility.yul\":315:320   */\n      dup1\n        /* \"#utility.yul\":344:350   */\n      dup4\n        /* \"#utility.yul\":337:342   */\n      dup3\n        /* \"#utility.yul\":330:351   */\n      mstore\n        /* \"#utility.yul\":378:382   */\n      0x20\n        /* \"#utility.yul\":371:376   */\n      dup3\n        /* \"#utility.yul\":367:383   */\n      add\n        /* \"#utility.yul\":360:383   */\n      swap1\n      pop\n        /* \"#utility.yul\":404:410   */\n      dup3\n        /* \"#utility.yul\":454:457   */\n      dup6\n        /* \"#utility.yul\":446:450   */\n      0x20\n        /* \"#utility.yul\":438:444   */\n      dup7\n        /* \"#utility.yul\":434:451   */\n      mul\n        /* \"#utility.yul\":429:432   */\n      dup3\n        /* \"#utility.yul\":425:452   */\n      add\n        /* \"#utility.yul\":422:458   */\n      gt\n        /* \"#utility.yul\":419:421   */\n      iszero\n      tag_95\n      jumpi\n        /* \"#utility.yul\":483:484   */\n      0x00\n        /* \"#utility.yul\":480:481   */\n      dup1\n        /* \"#utility.yul\":473:485   */\n      revert\n        /* \"#utility.yul\":419:421   */\n    tag_95:\n        /* \"#utility.yul\":519:520   */\n      0x00\n        /* \"#utility.yul\":504:903   */\n    tag_96:\n        /* \"#utility.yul\":529:535   */\n      dup6\n        /* \"#utility.yul\":526:527   */\n      dup2\n        /* \"#utility.yul\":523:536   */\n      lt\n        /* \"#utility.yul\":504:903   */\n      iszero\n      tag_98\n      jumpi\n        /* \"#utility.yul\":611:614   */\n      dup2\n        /* \"#utility.yul\":598:615   */\n      calldataload\n        /* \"#utility.yul\":647:665   */\n      0xffffffffffffffff\n        /* \"#utility.yul\":634:645   */\n      dup2\n        /* \"#utility.yul\":631:666   */\n      gt\n        /* \"#utility.yul\":628:630   */\n      iszero\n      tag_99\n      jumpi\n        /* \"#utility.yul\":679:680   */\n      0x00\n        /* \"#utility.yul\":676:677   */\n      dup1\n        /* \"#utility.yul\":669:681   */\n      revert\n        /* \"#utility.yul\":628:630   */\n    tag_99:\n        /* \"#utility.yul\":726:737   */\n      dup1\n        /* \"#utility.yul\":718:724   */\n      dup7\n        /* \"#utility.yul\":714:738   */\n      add\n        /* \"#utility.yul\":764:824   */\n      tag_100\n        /* \"#utility.yul\":820:823   */\n      dup10\n        /* \"#utility.yul\":808:818   */\n      dup3\n        /* \"#utility.yul\":764:824   */\n      tag_101\n      jump\t// in\n    tag_100:\n        /* \"#utility.yul\":759:762   */\n      dup6\n        /* \"#utility.yul\":752:825   */\n      mstore\n        /* \"#utility.yul\":854:858   */\n      0x20\n        /* \"#utility.yul\":849:852   */\n      dup6\n        /* \"#utility.yul\":845:859   */\n      add\n        /* \"#utility.yul\":838:859   */\n      swap5\n      pop\n        /* \"#utility.yul\":888:892   */\n      0x20\n        /* \"#utility.yul\":883:886   */\n      dup5\n        /* \"#utility.yul\":879:893   */\n      add\n        /* \"#utility.yul\":872:893   */\n      swap4\n      pop\n        /* \"#utility.yul\":564:903   */\n      pop\n      pop\n        /* \"#utility.yul\":551:552   */\n      0x01\n        /* \"#utility.yul\":548:549   */\n      dup2\n        /* \"#utility.yul\":544:553   */\n      add\n        /* \"#utility.yul\":539:553   */\n      swap1\n      pop\n        /* \"#utility.yul\":504:903   */\n      jump(tag_96)\n    tag_98:\n        /* \"#utility.yul\":508:522   */\n      pop\n        /* \"#utility.yul\":172:909   */\n      pop\n      pop\n      swap4\n      swap3\n      pop\n      pop\n      pop\n      jump\t// out\n        /* \"#utility.yul\":915:1260   */\n    tag_102:\n        /* \"#utility.yul\":993:998   */\n      0x00\n        /* \"#utility.yul\":1018:1084   */\n      tag_104\n        /* \"#utility.yul\":1034:1083   */\n      tag_105\n        /* \"#utility.yul\":1076:1082   */\n      dup5\n        /* \"#utility.yul\":1034:1083   */\n      tag_106\n      jump\t// in\n    tag_105:\n        /* \"#utility.yul\":1018:1084   */\n      tag_94\n      jump\t// in\n    tag_104:\n        /* \"#utility.yul\":1009:1084   */\n      swap1\n      pop\n        /* \"#utility.yul\":1107:1113   */\n      dup3\n        /* \"#utility.yul\":1100:1105   */\n      dup2\n        /* \"#utility.yul\":1093:1114   */\n      mstore\n        /* \"#utility.yul\":1145:1149   */\n      0x20\n        /* \"#utility.yul\":1138:1143   */\n      dup2\n        /* \"#utility.yul\":1134:1150   */\n      add\n        /* \"#utility.yul\":1183:1186   */\n      dup5\n        /* \"#utility.yul\":1174:1180   */\n      dup5\n        /* \"#utility.yul\":1169:1172   */\n      dup5\n        /* \"#utility.yul\":1165:1181   */\n      add\n        /* \"#utility.yul\":1162:1187   */\n      gt\n        /* \"#utility.yul\":1159:1161   */\n      iszero\n      tag_107\n      jumpi\n        /* \"#utility.yul\":1200:1201   */\n      0x00\n        /* \"#utility.yul\":1197:1198   */\n      dup1\n        /* \"#utility.yul\":1190:1202   */\n      revert\n        /* \"#utility.yul\":1159:1161   */\n    tag_107:\n        /* \"#utility.yul\":1213:1254   */\n      tag_108\n        /* \"#utility.yul\":1247:1253   */\n      dup5\n        /* \"#utility.yul\":1242:1245   */\n      dup3\n        /* \"#utility.yul\":1237:1240   */\n      dup6\n        /* \"#utility.yul\":1213:1254   */\n      tag_109\n      jump\t// in\n    tag_108:\n        /* \"#utility.yul\":999:1260   */\n      pop\n      swap4\n      swap3\n      pop\n      pop\n      pop\n      jump\t// out\n        /* \"#utility.yul\":1266:1405   */\n    tag_110:\n        /* \"#utility.yul\":1312:1317   */\n      0x00\n        /* \"#utility.yul\":1350:1356   */\n      dup2\n        /* \"#utility.yul\":1337:1357   */\n      calldataload\n        /* \"#utility.yul\":1328:1357   */\n      swap1\n      pop\n        /* \"#utility.yul\":1366:1399   */\n      tag_112\n        /* \"#utility.yul\":1393:1398   */\n      dup2\n        /* \"#utility.yul\":1366:1399   */\n      tag_113\n      jump\t// in\n    tag_112:\n        /* \"#utility.yul\":1318:1405   */\n      swap3\n      swap2\n      pop\n      pop\n      jump\t// out\n        /* \"#utility.yul\":1451:1800   */\n    tag_114:\n        /* \"#utility.yul\":1545:1550   */\n      0x00\n        /* \"#utility.yul\":1594:1597   */\n      dup3\n        /* \"#utility.yul\":1587:1591   */\n      0x1f\n        /* \"#utility.yul\":1579:1585   */\n      dup4\n        /* \"#utility.yul\":1575:1592   */\n      add\n        /* \"#utility.yul\":1571:1598   */\n      slt\n        /* \"#utility.yul\":1561:1563   */\n      tag_116\n      jumpi\n        /* \"#utility.yul\":1612:1613   */\n      0x00\n        /* \"#utility.yul\":1609:1610   */\n      dup1\n        /* \"#utility.yul\":1602:1614   */\n      revert\n        /* \"#utility.yul\":1561:1563   */\n    tag_116:\n        /* \"#utility.yul\":1652:1658   */\n      dup2\n        /* \"#utility.yul\":1639:1659   */\n      calldataload\n        /* \"#utility.yul\":1677:1794   */\n      tag_117\n        /* \"#utility.yul\":1790:1793   */\n      dup5\n        /* \"#utility.yul\":1782:1788   */\n      dup3\n        /* \"#utility.yul\":1775:1779   */\n      0x20\n        /* \"#utility.yul\":1767:1773   */\n      dup7\n        /* \"#utility.yul\":1763:1780   */\n      add\n        /* \"#utility.yul\":1677:1794   */\n      tag_89\n      jump\t// in\n    tag_117:\n        /* \"#utility.yul\":1668:1794   */\n      swap2\n      pop\n        /* \"#utility.yul\":1551:1800   */\n      pop\n      swap3\n      swap2\n      pop\n      pop\n      jump\t// out\n        /* \"#utility.yul\":1820:2093   */\n    tag_118:\n        /* \"#utility.yul\":1876:1881   */\n      0x00\n        /* \"#utility.yul\":1925:1928   */\n      dup3\n        /* \"#utility.yul\":1918:1922   */\n      0x1f\n        /* \"#utility.yul\":1910:1916   */\n      dup4\n        /* \"#utility.yul\":1906:1923   */\n      add\n        /* \"#utility.yul\":1902:1929   */\n      slt\n        /* \"#utility.yul\":1892:1894   */\n      tag_120\n      jumpi\n        /* \"#utility.yul\":1943:1944   */\n      0x00\n        /* \"#utility.yul\":1940:1941   */\n      dup1\n        /* \"#utility.yul\":1933:1945   */\n      revert\n        /* \"#utility.yul\":1892:1894   */\n    tag_120:\n        /* \"#utility.yul\":1983:1989   */\n      dup2\n        /* \"#utility.yul\":1970:1990   */\n      calldataload\n        /* \"#utility.yul\":2008:2087   */\n      tag_121\n        /* \"#utility.yul\":2083:2086   */\n      dup5\n        /* \"#utility.yul\":2075:2081   */\n      dup3\n        /* \"#utility.yul\":2068:2072   */\n      0x20\n        /* \"#utility.yul\":2060:2066   */\n      dup7\n        /* \"#utility.yul\":2056:2073   */\n      add\n        /* \"#utility.yul\":2008:2087   */\n      tag_102\n      jump\t// in\n    tag_121:\n        /* \"#utility.yul\":1999:2087   */\n      swap2\n      pop\n        /* \"#utility.yul\":1882:2093   */\n      pop\n      swap3\n      swap2\n      pop\n      pop\n      jump\t// out\n        /* \"#utility.yul\":2137:3008   */\n    tag_101:\n        /* \"#utility.yul\":2209:2214   */\n      0x00\n        /* \"#utility.yul\":2253:2257   */\n      0x60\n        /* \"#utility.yul\":2241:2250   */\n      dup3\n        /* \"#utility.yul\":2236:2239   */\n      dup5\n        /* \"#utility.yul\":2232:2251   */\n      sub\n        /* \"#utility.yul\":2228:2258   */\n      slt\n        /* \"#utility.yul\":2225:2227   */\n      iszero\n      tag_123\n      jumpi\n        /* \"#utility.yul\":2271:2272   */\n      0x00\n        /* \"#utility.yul\":2268:2269   */\n      dup1\n        /* \"#utility.yul\":2261:2273   */\n      revert\n        /* \"#utility.yul\":2225:2227   */\n    tag_123:\n        /* \"#utility.yul\":2293:2314   */\n      tag_124\n        /* \"#utility.yul\":2309:2313   */\n      0x60\n        /* \"#utility.yul\":2293:2314   */\n      tag_94\n      jump\t// in\n    tag_124:\n        /* \"#utility.yul\":2284:2314   */\n      swap1\n      pop\n        /* \"#utility.yul\":2371:2372   */\n      0x00\n        /* \"#utility.yul\":2411:2460   */\n      tag_125\n        /* \"#utility.yul\":2456:2459   */\n      dup5\n        /* \"#utility.yul\":2447:2453   */\n      dup3\n        /* \"#utility.yul\":2436:2445   */\n      dup6\n        /* \"#utility.yul\":2432:2454   */\n      add\n        /* \"#utility.yul\":2411:2460   */\n      tag_126\n      jump\t// in\n    tag_125:\n        /* \"#utility.yul\":2404:2408   */\n      0x00\n        /* \"#utility.yul\":2397:2402   */\n      dup4\n        /* \"#utility.yul\":2393:2409   */\n      add\n        /* \"#utility.yul\":2386:2461   */\n      mstore\n        /* \"#utility.yul\":2324:2472   */\n      pop\n        /* \"#utility.yul\":2559:2561   */\n      0x20\n        /* \"#utility.yul\":2548:2557   */\n      dup3\n        /* \"#utility.yul\":2544:2562   */\n      add\n        /* \"#utility.yul\":2531:2563   */\n      calldataload\n        /* \"#utility.yul\":2590:2608   */\n      0xffffffffffffffff\n        /* \"#utility.yul\":2582:2588   */\n      dup2\n        /* \"#utility.yul\":2579:2609   */\n      gt\n        /* \"#utility.yul\":2576:2578   */\n      iszero\n      tag_127\n      jumpi\n        /* \"#utility.yul\":2622:2623   */\n      0x00\n        /* \"#utility.yul\":2619:2620   */\n      dup1\n        /* \"#utility.yul\":2612:2624   */\n      revert\n        /* \"#utility.yul\":2576:2578   */\n    tag_127:\n        /* \"#utility.yul\":2665:2724   */\n      tag_128\n        /* \"#utility.yul\":2720:2723   */\n      dup5\n        /* \"#utility.yul\":2711:2717   */\n      dup3\n        /* \"#utility.yul\":2700:2709   */\n      dup6\n        /* \"#utility.yul\":2696:2718   */\n      add\n        /* \"#utility.yul\":2665:2724   */\n      tag_118\n      jump\t// in\n    tag_128:\n        /* \"#utility.yul\":2658:2662   */\n      0x20\n        /* \"#utility.yul\":2651:2656   */\n      dup4\n        /* \"#utility.yul\":2647:2663   */\n      add\n        /* \"#utility.yul\":2640:2725   */\n      mstore\n        /* \"#utility.yul\":2482:2736   */\n      pop\n        /* \"#utility.yul\":2824:2826   */\n      0x40\n        /* \"#utility.yul\":2813:2822   */\n      dup3\n        /* \"#utility.yul\":2809:2827   */\n      add\n        /* \"#utility.yul\":2796:2828   */\n      calldataload\n        /* \"#utility.yul\":2855:2873   */\n      0xffffffffffffffff\n        /* \"#utility.yul\":2847:2853   */\n      dup2\n        /* \"#utility.yul\":2844:2874   */\n      gt\n        /* \"#utility.yul\":2841:2843   */\n      iszero\n      tag_129\n      jumpi\n        /* \"#utility.yul\":2887:2888   */\n      0x00\n        /* \"#utility.yul\":2884:2885   */\n      dup1\n        /* \"#utility.yul\":2877:2889   */\n      revert\n        /* \"#utility.yul\":2841:2843   */\n    tag_129:\n        /* \"#utility.yul\":2930:2989   */\n      tag_130\n        /* \"#utility.yul\":2985:2988   */\n      dup5\n        /* \"#utility.yul\":2976:2982   */\n      dup3\n        /* \"#utility.yul\":2965:2974   */\n      dup6\n        /* \"#utility.yul\":2961:2983   */\n      add\n        /* \"#utility.yul\":2930:2989   */\n      tag_118\n      jump\t// in\n    tag_130:\n        /* \"#utility.yul\":2923:2927   */\n      0x40\n        /* \"#utility.yul\":2916:2921   */\n      dup4\n        /* \"#utility.yul\":2912:2928   */\n      add\n        /* \"#utility.yul\":2905:2990   */\n      mstore\n        /* \"#utility.yul\":2746:3001   */\n      pop\n        /* \"#utility.yul\":2215:3008   */\n      swap3\n      swap2\n      pop\n      pop\n      jump\t// out\n        /* \"#utility.yul\":3014:3153   */\n    tag_126:\n        /* \"#utility.yul\":3060:3065   */\n      0x00\n        /* \"#utility.yul\":3098:3104   */\n      dup2\n        /* \"#utility.yul\":3085:3105   */\n      calldataload\n        /* \"#utility.yul\":3076:3105   */\n      swap1\n      pop\n        /* \"#utility.yul\":3114:3147   */\n      tag_132\n        /* \"#utility.yul\":3141:3146   */\n      dup2\n        /* \"#utility.yul\":3114:3147   */\n      tag_133\n      jump\t// in\n    tag_132:\n        /* \"#utility.yul\":3066:3153   */\n      swap3\n      swap2\n      pop\n      pop\n      jump\t// out\n        /* \"#utility.yul\":3159:3421   */\n    tag_15:\n        /* \"#utility.yul\":3218:3224   */\n      0x00\n        /* \"#utility.yul\":3267:3269   */\n      0x20\n        /* \"#utility.yul\":3255:3264   */\n      dup3\n        /* \"#utility.yul\":3246:3253   */\n      dup5\n        /* \"#utility.yul\":3242:3265   */\n      sub\n        /* \"#utility.yul\":3238:3270   */\n      slt\n        /* \"#utility.yul\":3235:3237   */\n      iszero\n      tag_135\n      jumpi\n        /* \"#utility.yul\":3283:3284   */\n      0x00\n        /* \"#utility.yul\":3280:3281   */\n      dup1\n        /* \"#utility.yul\":3273:3285   */\n      revert\n        /* \"#utility.yul\":3235:3237   */\n    tag_135:\n        /* \"#utility.yul\":3326:3327   */\n      0x00\n        /* \"#utility.yul\":3351:3404   */\n      tag_136\n        /* \"#utility.yul\":3396:3403   */\n      dup5\n        /* \"#utility.yul\":3387:3393   */\n      dup3\n        /* \"#utility.yul\":3376:3385   */\n      dup6\n        /* \"#utility.yul\":3372:3394   */\n      add\n        /* \"#utility.yul\":3351:3404   */\n      tag_110\n      jump\t// in\n    tag_136:\n        /* \"#utility.yul\":3341:3404   */\n      swap2\n      pop\n        /* \"#utility.yul\":3297:3414   */\n      pop\n        /* \"#utility.yul\":3225:3421   */\n      swap3\n      swap2\n      pop\n      pop\n      jump\t// out\n        /* \"#utility.yul\":3427:3834   */\n    tag_21:\n        /* \"#utility.yul\":3495:3501   */\n      0x00\n        /* \"#utility.yul\":3503:3509   */\n      dup1\n        /* \"#utility.yul\":3552:3554   */\n      0x40\n        /* \"#utility.yul\":3540:3549   */\n      dup4\n        /* \"#utility.yul\":3531:3538   */\n      dup6\n        /* \"#utility.yul\":3527:3550   */\n      sub\n        /* \"#utility.yul\":3523:3555   */\n      slt\n        /* \"#utility.yul\":3520:3522   */\n      iszero\n      tag_138\n      jumpi\n        /* \"#utility.yul\":3568:3569   */\n      0x00\n        /* \"#utility.yul\":3565:3566   */\n      dup1\n        /* \"#utility.yul\":3558:3570   */\n      revert\n        /* \"#utility.yul\":3520:3522   */\n    tag_138:\n        /* \"#utility.yul\":3611:3612   */\n      0x00\n        /* \"#utility.yul\":3636:3689   */\n      tag_139\n        /* \"#utility.yul\":3681:3688   */\n      dup6\n        /* \"#utility.yul\":3672:3678   */\n      dup3\n        /* \"#utility.yul\":3661:3670   */\n      dup7\n        /* \"#utility.yul\":3657:3679   */\n      add\n        /* \"#utility.yul\":3636:3689   */\n      tag_110\n      jump\t// in\n    tag_139:\n        /* \"#utility.yul\":3626:3689   */\n      swap3\n      pop\n        /* \"#utility.yul\":3582:3699   */\n      pop\n        /* \"#utility.yul\":3738:3740   */\n      0x20\n        /* \"#utility.yul\":3764:3817   */\n      tag_140\n        /* \"#utility.yul\":3809:3816   */\n      dup6\n        /* \"#utility.yul\":3800:3806   */\n      dup3\n        /* \"#utility.yul\":3789:3798   */\n      dup7\n        /* \"#utility.yul\":3785:3807   */\n      add\n        /* \"#utility.yul\":3764:3817   */\n      tag_126\n      jump\t// in\n    tag_140:\n        /* \"#utility.yul\":3754:3817   */\n      swap2\n      pop\n        /* \"#utility.yul\":3709:3827   */\n      pop\n        /* \"#utility.yul\":3510:3834   */\n      swap3\n      pop\n      swap3\n      swap1\n      pop\n      jump\t// out\n        /* \"#utility.yul\":3840:4291   */\n    tag_35:\n        /* \"#utility.yul\":3947:3953   */\n      0x00\n        /* \"#utility.yul\":3996:3998   */\n      0x20\n        /* \"#utility.yul\":3984:3993   */\n      dup3\n        /* \"#utility.yul\":3975:3982   */\n      dup5\n        /* \"#utility.yul\":3971:3994   */\n      sub\n        /* \"#utility.yul\":3967:3999   */\n      slt\n        /* \"#utility.yul\":3964:3966   */\n      iszero\n      tag_142\n      jumpi\n        /* \"#utility.yul\":4012:4013   */\n      0x00\n        /* \"#utility.yul\":4009:4010   */\n      dup1\n        /* \"#utility.yul\":4002:4014   */\n      revert\n        /* \"#utility.yul\":3964:3966   */\n    tag_142:\n        /* \"#utility.yul\":4083:4084   */\n      0x00\n        /* \"#utility.yul\":4072:4081   */\n      dup3\n        /* \"#utility.yul\":4068:4085   */\n      add\n        /* \"#utility.yul\":4055:4086   */\n      calldataload\n        /* \"#utility.yul\":4113:4131   */\n      0xffffffffffffffff\n        /* \"#utility.yul\":4105:4111   */\n      dup2\n        /* \"#utility.yul\":4102:4132   */\n      gt\n        /* \"#utility.yul\":4099:4101   */\n      iszero\n      tag_143\n      jumpi\n        /* \"#utility.yul\":4145:4146   */\n      0x00\n        /* \"#utility.yul\":4142:4143   */\n      dup1\n        /* \"#utility.yul\":4135:4147   */\n      revert\n        /* \"#utility.yul\":4099:4101   */\n    tag_143:\n        /* \"#utility.yul\":4173:4274   */\n      tag_144\n        /* \"#utility.yul\":4266:4273   */\n      dup5\n        /* \"#utility.yul\":4257:4263   */\n      dup3\n        /* \"#utility.yul\":4246:4255   */\n      dup6\n        /* \"#utility.yul\":4242:4264   */\n      add\n        /* \"#utility.yul\":4173:4274   */\n      tag_114\n      jump\t// in\n    tag_144:\n        /* \"#utility.yul\":4163:4274   */\n      swap2\n      pop\n        /* \"#utility.yul\":4026:4284   */\n      pop\n        /* \"#utility.yul\":3954:4291   */\n      swap3\n      swap2\n      pop\n      pop\n      jump\t// out\n        /* \"#utility.yul\":4297:4559   */\n    tag_27:\n        /* \"#utility.yul\":4356:4362   */\n      0x00\n        /* \"#utility.yul\":4405:4407   */\n      0x20\n        /* \"#utility.yul\":4393:4402   */\n      dup3\n        /* \"#utility.yul\":4384:4391   */\n      dup5\n        /* \"#utility.yul\":4380:4403   */\n      sub\n        /* \"#utility.yul\":4376:4408   */\n      slt\n        /* \"#utility.yul\":4373:4375   */\n      iszero\n      tag_146\n      jumpi\n        /* \"#utility.yul\":4421:4422   */\n      0x00\n        /* \"#utility.yul\":4418:4419   */\n      dup1\n        /* \"#utility.yul\":4411:4423   */\n      revert\n        /* \"#utility.yul\":4373:4375   */\n    tag_146:\n        /* \"#utility.yul\":4464:4465   */\n      0x00\n        /* \"#utility.yul\":4489:4542   */\n      tag_147\n        /* \"#utility.yul\":4534:4541   */\n      dup5\n        /* \"#utility.yul\":4525:4531   */\n      dup3\n        /* \"#utility.yul\":4514:4523   */\n      dup6\n        /* \"#utility.yul\":4510:4532   */\n      add\n        /* \"#utility.yul\":4489:4542   */\n      tag_126\n      jump\t// in\n    tag_147:\n        /* \"#utility.yul\":4479:4542   */\n      swap2\n      pop\n        /* \"#utility.yul\":4435:4552   */\n      pop\n        /* \"#utility.yul\":4363:4559   */\n      swap3\n      swap2\n      pop\n      pop\n      jump\t// out\n        /* \"#utility.yul\":4565:5343   */\n    tag_11:\n        /* \"#utility.yul\":4662:4668   */\n      0x00\n        /* \"#utility.yul\":4670:4676   */\n      dup1\n        /* \"#utility.yul\":4678:4684   */\n      0x00\n        /* \"#utility.yul\":4727:4729   */\n      0x60\n        /* \"#utility.yul\":4715:4724   */\n      dup5\n        /* \"#utility.yul\":4706:4713   */\n      dup7\n        /* \"#utility.yul\":4702:4725   */\n      sub\n        /* \"#utility.yul\":4698:4730   */\n      slt\n        /* \"#utility.yul\":4695:4697   */\n      iszero\n      tag_149\n      jumpi\n        /* \"#utility.yul\":4743:4744   */\n      0x00\n        /* \"#utility.yul\":4740:4741   */\n      dup1\n        /* \"#utility.yul\":4733:4745   */\n      revert\n        /* \"#utility.yul\":4695:4697   */\n    tag_149:\n        /* \"#utility.yul\":4786:4787   */\n      0x00\n        /* \"#utility.yul\":4811:4864   */\n      tag_150\n        /* \"#utility.yul\":4856:4863   */\n      dup7\n        /* \"#utility.yul\":4847:4853   */\n      dup3\n        /* \"#utility.yul\":4836:4845   */\n      dup8\n        /* \"#utility.yul\":4832:4854   */\n      add\n        /* \"#utility.yul\":4811:4864   */\n      tag_126\n      jump\t// in\n    tag_150:\n        /* \"#utility.yul\":4801:4864   */\n      swap4\n      pop\n        /* \"#utility.yul\":4757:4874   */\n      pop\n        /* \"#utility.yul\":4941:4943   */\n      0x20\n        /* \"#utility.yul\":4930:4939   */\n      dup5\n        /* \"#utility.yul\":4926:4944   */\n      add\n        /* \"#utility.yul\":4913:4945   */\n      calldataload\n        /* \"#utility.yul\":4972:4990   */\n      0xffffffffffffffff\n        /* \"#utility.yul\":4964:4970   */\n      dup2\n        /* \"#utility.yul\":4961:4991   */\n      gt\n        /* \"#utility.yul\":4958:4960   */\n      iszero\n      tag_151\n      jumpi\n        /* \"#utility.yul\":5004:5005   */\n      0x00\n        /* \"#utility.yul\":5001:5002   */\n      dup1\n        /* \"#utility.yul\":4994:5006   */\n      revert\n        /* \"#utility.yul\":4958:4960   */\n    tag_151:\n        /* \"#utility.yul\":5032:5095   */\n      tag_152\n        /* \"#utility.yul\":5087:5094   */\n      dup7\n        /* \"#utility.yul\":5078:5084   */\n      dup3\n        /* \"#utility.yul\":5067:5076   */\n      dup8\n        /* \"#utility.yul\":5063:5085   */\n      add\n        /* \"#utility.yul\":5032:5095   */\n      tag_118\n      jump\t// in\n    tag_152:\n        /* \"#utility.yul\":5022:5095   */\n      swap3\n      pop\n        /* \"#utility.yul\":4884:5105   */\n      pop\n        /* \"#utility.yul\":5172:5174   */\n      0x40\n        /* \"#utility.yul\":5161:5170   */\n      dup5\n        /* \"#utility.yul\":5157:5175   */\n      add\n        /* \"#utility.yul\":5144:5176   */\n      calldataload\n        /* \"#utility.yul\":5203:5221   */\n      0xffffffffffffffff\n        /* \"#utility.yul\":5195:5201   */\n      dup2\n        /* \"#utility.yul\":5192:5222   */\n      gt\n        /* \"#utility.yul\":5189:5191   */\n      iszero\n      tag_153\n      jumpi\n        /* \"#utility.yul\":5235:5236   */\n      0x00\n        /* \"#utility.yul\":5232:5233   */\n      dup1\n        /* \"#utility.yul\":5225:5237   */\n      revert\n        /* \"#utility.yul\":5189:5191   */\n    tag_153:\n        /* \"#utility.yul\":5263:5326   */\n      tag_154\n        /* \"#utility.yul\":5318:5325   */\n      dup7\n        /* \"#utility.yul\":5309:5315   */\n      dup3\n        /* \"#utility.yul\":5298:5307   */\n      dup8\n        /* \"#utility.yul\":5294:5316   */\n      add\n        /* \"#utility.yul\":5263:5326   */\n      tag_118\n      jump\t// in\n    tag_154:\n        /* \"#utility.yul\":5253:5326   */\n      swap2\n      pop\n        /* \"#utility.yul\":5115:5336   */\n      pop\n        /* \"#utility.yul\":4685:5343   */\n      swap3\n      pop\n      swap3\n      pop\n      swap3\n      jump\t// out\n        /* \"#utility.yul\":5349:5713   */\n    tag_155:\n        /* \"#utility.yul\":5437:5440   */\n      0x00\n        /* \"#utility.yul\":5465:5504   */\n      tag_157\n        /* \"#utility.yul\":5498:5503   */\n      dup3\n        /* \"#utility.yul\":5465:5504   */\n      tag_158\n      jump\t// in\n    tag_157:\n        /* \"#utility.yul\":5520:5591   */\n      tag_159\n        /* \"#utility.yul\":5584:5590   */\n      dup2\n        /* \"#utility.yul\":5579:5582   */\n      dup6\n        /* \"#utility.yul\":5520:5591   */\n      tag_160\n      jump\t// in\n    tag_159:\n        /* \"#utility.yul\":5513:5591   */\n      swap4\n      pop\n        /* \"#utility.yul\":5600:5652   */\n      tag_161\n        /* \"#utility.yul\":5645:5651   */\n      dup2\n        /* \"#utility.yul\":5640:5643   */\n      dup6\n        /* \"#utility.yul\":5633:5637   */\n      0x20\n        /* \"#utility.yul\":5626:5631   */\n      dup7\n        /* \"#utility.yul\":5622:5638   */\n      add\n        /* \"#utility.yul\":5600:5652   */\n      tag_162\n      jump\t// in\n    tag_161:\n        /* \"#utility.yul\":5677:5706   */\n      tag_163\n        /* \"#utility.yul\":5699:5705   */\n      dup2\n        /* \"#utility.yul\":5677:5706   */\n      tag_164\n      jump\t// in\n    tag_163:\n        /* \"#utility.yul\":5672:5675   */\n      dup5\n        /* \"#utility.yul\":5668:5707   */\n      add\n        /* \"#utility.yul\":5661:5707   */\n      swap2\n      pop\n        /* \"#utility.yul\":5441:5713   */\n      pop\n      swap3\n      swap2\n      pop\n      pop\n      jump\t// out\n        /* \"#utility.yul\":5719:5837   */\n    tag_165:\n        /* \"#utility.yul\":5806:5830   */\n      tag_167\n        /* \"#utility.yul\":5824:5829   */\n      dup2\n        /* \"#utility.yul\":5806:5830   */\n      tag_168\n      jump\t// in\n    tag_167:\n        /* \"#utility.yul\":5801:5804   */\n      dup3\n        /* \"#utility.yul\":5794:5831   */\n      mstore\n        /* \"#utility.yul\":5784:5837   */\n      pop\n      pop\n      jump\t// out\n        /* \"#utility.yul\":5843:6065   */\n    tag_18:\n        /* \"#utility.yul\":5936:5940   */\n      0x00\n        /* \"#utility.yul\":5974:5976   */\n      0x20\n        /* \"#utility.yul\":5963:5972   */\n      dup3\n        /* \"#utility.yul\":5959:5977   */\n      add\n        /* \"#utility.yul\":5951:5977   */\n      swap1\n      pop\n        /* \"#utility.yul\":5987:6058   */\n      tag_170\n        /* \"#utility.yul\":6055:6056   */\n      0x00\n        /* \"#utility.yul\":6044:6053   */\n      dup4\n        /* \"#utility.yul\":6040:6057   */\n      add\n        /* \"#utility.yul\":6031:6037   */\n      dup5\n        /* \"#utility.yul\":5987:6058   */\n      tag_165\n      jump\t// in\n    tag_170:\n        /* \"#utility.yul\":5941:6065   */\n      swap3\n      swap2\n      pop\n      pop\n      jump\t// out\n        /* \"#utility.yul\":6071:6695   */\n    tag_24:\n        /* \"#utility.yul\":6260:6264   */\n      0x00\n        /* \"#utility.yul\":6298:6300   */\n      0x60\n        /* \"#utility.yul\":6287:6296   */\n      dup3\n        /* \"#utility.yul\":6283:6301   */\n      add\n        /* \"#utility.yul\":6275:6301   */\n      swap1\n      pop\n        /* \"#utility.yul\":6311:6382   */\n      tag_172\n        /* \"#utility.yul\":6379:6380   */\n      0x00\n        /* \"#utility.yul\":6368:6377   */\n      dup4\n        /* \"#utility.yul\":6364:6381   */\n      add\n        /* \"#utility.yul\":6355:6361   */\n      dup7\n        /* \"#utility.yul\":6311:6382   */\n      tag_165\n      jump\t// in\n    tag_172:\n        /* \"#utility.yul\":6429:6438   */\n      dup2\n        /* \"#utility.yul\":6423:6427   */\n      dup2\n        /* \"#utility.yul\":6419:6439   */\n      sub\n        /* \"#utility.yul\":6414:6416   */\n      0x20\n        /* \"#utility.yul\":6403:6412   */\n      dup4\n        /* \"#utility.yul\":6399:6417   */\n      add\n        /* \"#utility.yul\":6392:6440   */\n      mstore\n        /* \"#utility.yul\":6457:6535   */\n      tag_173\n        /* \"#utility.yul\":6530:6534   */\n      dup2\n        /* \"#utility.yul\":6521:6527   */\n      dup6\n        /* \"#utility.yul\":6457:6535   */\n      tag_155\n      jump\t// in\n    tag_173:\n        /* \"#utility.yul\":6449:6535   */\n      swap1\n      pop\n        /* \"#utility.yul\":6582:6591   */\n      dup2\n        /* \"#utility.yul\":6576:6580   */\n      dup2\n        /* \"#utility.yul\":6572:6592   */\n      sub\n        /* \"#utility.yul\":6567:6569   */\n      0x40\n        /* \"#utility.yul\":6556:6565   */\n      dup4\n        /* \"#utility.yul\":6552:6570   */\n      add\n        /* \"#utility.yul\":6545:6593   */\n      mstore\n        /* \"#utility.yul\":6610:6688   */\n      tag_174\n        /* \"#utility.yul\":6683:6687   */\n      dup2\n        /* \"#utility.yul\":6674:6680   */\n      dup5\n        /* \"#utility.yul\":6610:6688   */\n      tag_155\n      jump\t// in\n    tag_174:\n        /* \"#utility.yul\":6602:6688   */\n      swap1\n      pop\n        /* \"#utility.yul\":6265:6695   */\n      swap5\n      swap4\n      pop\n      pop\n      pop\n      pop\n      jump\t// out\n        /* \"#utility.yul\":6701:6830   */\n    tag_94:\n        /* \"#utility.yul\":6735:6741   */\n      0x00\n        /* \"#utility.yul\":6762:6782   */\n      tag_176\n      tag_177\n      jump\t// in\n    tag_176:\n        /* \"#utility.yul\":6752:6782   */\n      swap1\n      pop\n        /* \"#utility.yul\":6791:6824   */\n      tag_178\n        /* \"#utility.yul\":6819:6823   */\n      dup3\n        /* \"#utility.yul\":6811:6817   */\n      dup3\n        /* \"#utility.yul\":6791:6824   */\n      tag_179\n      jump\t// in\n    tag_178:\n        /* \"#utility.yul\":6742:6830   */\n      swap2\n      swap1\n      pop\n      jump\t// out\n        /* \"#utility.yul\":6836:6911   */\n    tag_177:\n        /* \"#utility.yul\":6869:6875   */\n      0x00\n        /* \"#utility.yul\":6902:6904   */\n      0x40\n        /* \"#utility.yul\":6896:6905   */\n      mload\n        /* \"#utility.yul\":6886:6905   */\n      swap1\n      pop\n        /* \"#utility.yul\":6876:6911   */\n      swap1\n      jump\t// out\n        /* \"#utility.yul\":6917:7251   */\n    tag_93:\n        /* \"#utility.yul\":7017:7021   */\n      0x00\n        /* \"#utility.yul\":7107:7125   */\n      0xffffffffffffffff\n        /* \"#utility.yul\":7099:7105   */\n      dup3\n        /* \"#utility.yul\":7096:7126   */\n      gt\n        /* \"#utility.yul\":7093:7095   */\n      iszero\n      tag_182\n      jumpi\n        /* \"#utility.yul\":7129:7147   */\n      tag_183\n      tag_184\n      jump\t// in\n    tag_183:\n        /* \"#utility.yul\":7093:7095   */\n    tag_182:\n        /* \"#utility.yul\":7179:7183   */\n      0x20\n        /* \"#utility.yul\":7171:7177   */\n      dup3\n        /* \"#utility.yul\":7167:7184   */\n      mul\n        /* \"#utility.yul\":7159:7184   */\n      swap1\n      pop\n        /* \"#utility.yul\":7239:7243   */\n      0x20\n        /* \"#utility.yul\":7233:7237   */\n      dup2\n        /* \"#utility.yul\":7229:7244   */\n      add\n        /* \"#utility.yul\":7221:7244   */\n      swap1\n      pop\n        /* \"#utility.yul\":7022:7251   */\n      swap2\n      swap1\n      pop\n      jump\t// out\n        /* \"#utility.yul\":7257:7565   */\n    tag_106:\n        /* \"#utility.yul\":7319:7323   */\n      0x00\n        /* \"#utility.yul\":7409:7427   */\n      0xffffffffffffffff\n        /* \"#utility.yul\":7401:7407   */\n      dup3\n        /* \"#utility.yul\":7398:7428   */\n      gt\n        /* \"#utility.yul\":7395:7397   */\n      iszero\n      tag_186\n      jumpi\n        /* \"#utility.yul\":7431:7449   */\n      tag_187\n      tag_184\n      jump\t// in\n    tag_187:\n        /* \"#utility.yul\":7395:7397   */\n    tag_186:\n        /* \"#utility.yul\":7469:7498   */\n      tag_188\n        /* \"#utility.yul\":7491:7497   */\n      dup3\n        /* \"#utility.yul\":7469:7498   */\n      tag_164\n      jump\t// in\n    tag_188:\n        /* \"#utility.yul\":7461:7498   */\n      swap1\n      pop\n        /* \"#utility.yul\":7553:7557   */\n      0x20\n        /* \"#utility.yul\":7547:7551   */\n      dup2\n        /* \"#utility.yul\":7543:7558   */\n      add\n        /* \"#utility.yul\":7535:7558   */\n      swap1\n      pop\n        /* \"#utility.yul\":7324:7565   */\n      swap2\n      swap1\n      pop\n      jump\t// out\n        /* \"#utility.yul\":7571:7670   */\n    tag_158:\n        /* \"#utility.yul\":7623:7629   */\n      0x00\n        /* \"#utility.yul\":7657:7662   */\n      dup2\n        /* \"#utility.yul\":7651:7663   */\n      mload\n        /* \"#utility.yul\":7641:7663   */\n      swap1\n      pop\n        /* \"#utility.yul\":7630:7670   */\n      swap2\n      swap1\n      pop\n      jump\t// out\n        /* \"#utility.yul\":7676:7845   */\n    tag_160:\n        /* \"#utility.yul\":7760:7771   */\n      0x00\n        /* \"#utility.yul\":7794:7800   */\n      dup3\n        /* \"#utility.yul\":7789:7792   */\n      dup3\n        /* \"#utility.yul\":7782:7801   */\n      mstore\n        /* \"#utility.yul\":7834:7838   */\n      0x20\n        /* \"#utility.yul\":7829:7832   */\n      dup3\n        /* \"#utility.yul\":7825:7839   */\n      add\n        /* \"#utility.yul\":7810:7839   */\n      swap1\n      pop\n        /* \"#utility.yul\":7772:7845   */\n      swap3\n      swap2\n      pop\n      pop\n      jump\t// out\n        /* \"#utility.yul\":7851:7947   */\n    tag_191:\n        /* \"#utility.yul\":7888:7895   */\n      0x00\n        /* \"#utility.yul\":7917:7941   */\n      tag_193\n        /* \"#utility.yul\":7935:7940   */\n      dup3\n        /* \"#utility.yul\":7917:7941   */\n      tag_194\n      jump\t// in\n    tag_193:\n        /* \"#utility.yul\":7906:7941   */\n      swap1\n      pop\n        /* \"#utility.yul\":7896:7947   */\n      swap2\n      swap1\n      pop\n      jump\t// out\n        /* \"#utility.yul\":7953:8079   */\n    tag_194:\n        /* \"#utility.yul\":7990:7997   */\n      0x00\n        /* \"#utility.yul\":8030:8072   */\n      0xffffffffffffffffffffffffffffffffffffffff\n        /* \"#utility.yul\":8023:8028   */\n      dup3\n        /* \"#utility.yul\":8019:8073   */\n      and\n        /* \"#utility.yul\":8008:8073   */\n      swap1\n      pop\n        /* \"#utility.yul\":7998:8079   */\n      swap2\n      swap1\n      pop\n      jump\t// out\n        /* \"#utility.yul\":8085:8162   */\n    tag_168:\n        /* \"#utility.yul\":8122:8129   */\n      0x00\n        /* \"#utility.yul\":8151:8156   */\n      dup2\n        /* \"#utility.yul\":8140:8156   */\n      swap1\n      pop\n        /* \"#utility.yul\":8130:8162   */\n      swap2\n      swap1\n      pop\n      jump\t// out\n        /* \"#utility.yul\":8168:8322   */\n    tag_109:\n        /* \"#utility.yul\":8252:8258   */\n      dup3\n        /* \"#utility.yul\":8247:8250   */\n      dup2\n        /* \"#utility.yul\":8242:8245   */\n      dup4\n        /* \"#utility.yul\":8229:8259   */\n      calldatacopy\n        /* \"#utility.yul\":8314:8315   */\n      0x00\n        /* \"#utility.yul\":8305:8311   */\n      dup4\n        /* \"#utility.yul\":8300:8303   */\n      dup4\n        /* \"#utility.yul\":8296:8312   */\n      add\n        /* \"#utility.yul\":8289:8316   */\n      mstore\n        /* \"#utility.yul\":8219:8322   */\n      pop\n      pop\n      pop\n      jump\t// out\n        /* \"#utility.yul\":8328:8635   */\n    tag_162:\n        /* \"#utility.yul\":8396:8397   */\n      0x00\n        /* \"#utility.yul\":8406:8519   */\n    tag_199:\n        /* \"#utility.yul\":8420:8426   */\n      dup4\n        /* \"#utility.yul\":8417:8418   */\n      dup2\n        /* \"#utility.yul\":8414:8427   */\n      lt\n        /* \"#utility.yul\":8406:8519   */\n      iszero\n      tag_201\n      jumpi\n        /* \"#utility.yul\":8505:8506   */\n      dup1\n        /* \"#utility.yul\":8500:8503   */\n      dup3\n        /* \"#utility.yul\":8496:8507   */\n      add\n        /* \"#utility.yul\":8490:8508   */\n      mload\n        /* \"#utility.yul\":8486:8487   */\n      dup2\n        /* \"#utility.yul\":8481:8484   */\n      dup5\n        /* \"#utility.yul\":8477:8488   */\n      add\n        /* \"#utility.yul\":8470:8509   */\n      mstore\n        /* \"#utility.yul\":8442:8444   */\n      0x20\n        /* \"#utility.yul\":8439:8440   */\n      dup2\n        /* \"#utility.yul\":8435:8445   */\n      add\n        /* \"#utility.yul\":8430:8445   */\n      swap1\n      pop\n        /* \"#utility.yul\":8406:8519   */\n      jump(tag_199)\n    tag_201:\n        /* \"#utility.yul\":8537:8543   */\n      dup4\n        /* \"#utility.yul\":8534:8535   */\n      dup2\n        /* \"#utility.yul\":8531:8544   */\n      gt\n        /* \"#utility.yul\":8528:8530   */\n      iszero\n      tag_202\n      jumpi\n        /* \"#utility.yul\":8617:8618   */\n      0x00\n        /* \"#utility.yul\":8608:8614   */\n      dup5\n        /* \"#utility.yul\":8603:8606   */\n      dup5\n        /* \"#utility.yul\":8599:8615   */\n      add\n        /* \"#utility.yul\":8592:8619   */\n      mstore\n        /* \"#utility.yul\":8528:8530   */\n    tag_202:\n        /* \"#utility.yul\":8377:8635   */\n      pop\n      pop\n      pop\n      pop\n      jump\t// out\n        /* \"#utility.yul\":8641:8961   */\n    tag_45:\n        /* \"#utility.yul\":8685:8691   */\n      0x00\n        /* \"#utility.yul\":8722:8723   */\n      0x02\n        /* \"#utility.yul\":8716:8720   */\n      dup3\n        /* \"#utility.yul\":8712:8724   */\n      div\n        /* \"#utility.yul\":8702:8724   */\n      swap1\n      pop\n        /* \"#utility.yul\":8769:8770   */\n      0x01\n        /* \"#utility.yul\":8763:8767   */\n      dup3\n        /* \"#utility.yul\":8759:8771   */\n      and\n        /* \"#utility.yul\":8790:8808   */\n      dup1\n        /* \"#utility.yul\":8780:8782   */\n      tag_204\n      jumpi\n        /* \"#utility.yul\":8846:8850   */\n      0x7f\n        /* \"#utility.yul\":8838:8844   */\n      dup3\n        /* \"#utility.yul\":8834:8851   */\n      and\n        /* \"#utility.yul\":8824:8851   */\n      swap2\n      pop\n        /* \"#utility.yul\":8780:8782   */\n    tag_204:\n        /* \"#utility.yul\":8908:8910   */\n      0x20\n        /* \"#utility.yul\":8900:8906   */\n      dup3\n        /* \"#utility.yul\":8897:8911   */\n      lt\n        /* \"#utility.yul\":8877:8895   */\n      dup2\n        /* \"#utility.yul\":8874:8912   */\n      eq\n        /* \"#utility.yul\":8871:8873   */\n      iszero\n      tag_205\n      jumpi\n        /* \"#utility.yul\":8927:8945   */\n      tag_206\n      tag_207\n      jump\t// in\n    tag_206:\n        /* \"#utility.yul\":8871:8873   */\n    tag_205:\n        /* \"#utility.yul\":8692:8961   */\n      pop\n      swap2\n      swap1\n      pop\n      jump\t// out\n        /* \"#utility.yul\":8967:9248   */\n    tag_179:\n        /* \"#utility.yul\":9050:9077   */\n      tag_209\n        /* \"#utility.yul\":9072:9076   */\n      dup3\n        /* \"#utility.yul\":9050:9077   */\n      tag_164\n      jump\t// in\n    tag_209:\n        /* \"#utility.yul\":9042:9048   */\n      dup2\n        /* \"#utility.yul\":9038:9078   */\n      add\n        /* \"#utility.yul\":9180:9186   */\n      dup2\n        /* \"#utility.yul\":9168:9178   */\n      dup2\n        /* \"#utility.yul\":9165:9187   */\n      lt\n        /* \"#utility.yul\":9144:9162   */\n      0xffffffffffffffff\n        /* \"#utility.yul\":9132:9142   */\n      dup3\n        /* \"#utility.yul\":9129:9163   */\n      gt\n        /* \"#utility.yul\":9126:9188   */\n      or\n        /* \"#utility.yul\":9123:9125   */\n      iszero\n      tag_210\n      jumpi\n        /* \"#utility.yul\":9191:9209   */\n      tag_211\n      tag_184\n      jump\t// in\n    tag_211:\n        /* \"#utility.yul\":9123:9125   */\n    tag_210:\n        /* \"#utility.yul\":9231:9241   */\n      dup1\n        /* \"#utility.yul\":9227:9229   */\n      0x40\n        /* \"#utility.yul\":9220:9242   */\n      mstore\n        /* \"#utility.yul\":9010:9248   */\n      pop\n      pop\n      pop\n      jump\t// out\n        /* \"#utility.yul\":9254:9487   */\n    tag_77:\n        /* \"#utility.yul\":9293:9296   */\n      0x00\n        /* \"#utility.yul\":9316:9340   */\n      tag_213\n        /* \"#utility.yul\":9334:9339   */\n      dup3\n        /* \"#utility.yul\":9316:9340   */\n      tag_168\n      jump\t// in\n    tag_213:\n        /* \"#utility.yul\":9307:9340   */\n      swap2\n      pop\n        /* \"#utility.yul\":9362:9428   */\n      0xffffffffffffffffffffffffffffffffffffffffffffffffffffffffffffffff\n        /* \"#utility.yul\":9355:9360   */\n      dup3\n        /* \"#utility.yul\":9352:9429   */\n      eq\n        /* \"#utility.yul\":9349:9351   */\n      iszero\n      tag_214\n      jumpi\n        /* \"#utility.yul\":9432:9450   */\n      tag_215\n      tag_216\n      jump\t// in\n    tag_215:\n        /* \"#utility.yul\":9349:9351   */\n    tag_214:\n        /* \"#utility.yul\":9479:9480   */\n      0x01\n        /* \"#utility.yul\":9472:9477   */\n      dup3\n        /* \"#utility.yul\":9468:9481   */\n      add\n        /* \"#utility.yul\":9461:9481   */\n      swap1\n      pop\n        /* \"#utility.yul\":9297:9487   */\n      swap2\n      swap1\n      pop\n      jump\t// out\n        /* \"#utility.yul\":9493:9673   */\n    tag_216:\n        /* \"#utility.yul\":9541:9618   */\n      0x4e487b7100000000000000000000000000000000000000000000000000000000\n        /* \"#utility.yul\":9538:9539   */\n      0x00\n        /* \"#utility.yul\":9531:9619   */\n      mstore\n        /* \"#utility.yul\":9638:9642   */\n      0x11\n        /* \"#utility.yul\":9635:9636   */\n      0x04\n        /* \"#utility.yul\":9628:9643   */\n      mstore\n        /* \"#utility.yul\":9662:9666   */\n      0x24\n        /* \"#utility.yul\":9659:9660   */\n      0x00\n        /* \"#utility.yul\":9652:9667   */\n      revert\n        /* \"#utility.yul\":9679:9859   */\n    tag_207:\n        /* \"#utility.yul\":9727:9804   */\n      0x4e487b7100000000000000000000000000000000000000000000000000000000\n        /* \"#utility.yul\":9724:9725   */\n      0x00\n        /* \"#utility.yul\":9717:9805   */\n      mstore\n        /* \"#utility.yul\":9824:9828   */\n      0x22\n        /* \"#utility.yul\":9821:9822   */\n      0x04\n        /* \"#utility.yul\":9814:9829   */\n      mstore\n        /* \"#utility.yul\":9848:9852   */\n      0x24\n        /* \"#utility.yul\":9845:9846   */\n      0x00\n        /* \"#utility.yul\":9838:9853   */\n      revert\n        /* \"#utility.yul\":9865:10045   */\n    tag_184:\n        /* \"#utility.yul\":9913:9990   */\n      0x4e487b7100000000000000000000000000000000000000000000000000000000\n        /* \"#utility.yul\":9910:9911   */\n      0x00\n        /* \"#utility.yul\":9903:9991   */\n      mstore\n        /* \"#utility.yul\":10010:10014   */\n      0x41\n        /* \"#utility.yul\":10007:10008   */\n      0x04\n        /* \"#utility.yul\":10000:10015   */\n      mstore\n        /* \"#utility.yul\":10034:10038   */\n      0x24\n        /* \"#utility.yul\":10031:10032   */\n      0x00\n        /* \"#utility.yul\":10024:10039   */\n      revert\n        /* \"#utility.yul\":10051:10153   */\n    tag_164:\n        /* \"#utility.yul\":10092:10098   */\n      0x00\n        /* \"#utility.yul\":10143:10145   */\n      0x1f\n        /* \"#utility.yul\":10139:10146   */\n      not\n        /* \"#utility.yul\":10134:10136   */\n      0x1f\n        /* \"#utility.yul\":10127:10132   */\n      dup4\n        /* \"#utility.yul\":10123:10137   */\n      add\n        /* \"#utility.yul\":10119:10147   */\n      and\n        /* \"#utility.yul\":10109:10147   */\n      swap1\n      pop\n        /* \"#utility.yul\":10099:10153   */\n      swap2\n      swap1\n      pop\n      jump\t// out\n        /* \"#utility.yul\":10159:10281   */\n    tag_113:\n        /* \"#utility.yul\":10232:10256   */\n      tag_222\n        /* \"#utility.yul\":10250:10255   */\n      dup2\n        /* \"#utility.yul\":10232:10256   */\n      tag_191\n      jump\t// in\n    tag_222:\n        /* \"#utility.yul\":10225:10230   */\n      dup2\n        /* \"#utility.yul\":10222:10257   */\n      eq\n        /* \"#utility.yul\":10212:10214   */\n      tag_223\n      jumpi\n        /* \"#utility.yul\":10271:10272   */\n      0x00\n        /* \"#utility.yul\":10268:10269   */\n      dup1\n        /* \"#utility.yul\":10261:10273   */\n      revert\n        /* \"#utility.yul\":10212:10214   */\n    tag_223:\n        /* \"#utility.yul\":10202:10281   */\n      pop\n      jump\t// out\n        /* \"#utility.yul\":10287:10409   */\n    tag_133:\n        /* \"#utility.yul\":10360:10384   */\n      tag_225\n        /* \"#utility.yul\":10378:10383   */\n      dup2\n        /* \"#utility.yul\":10360:10384   */\n      tag_168\n      jump\t// in\n    tag_225:\n        /* \"#utility.yul\":10353:10358   */\n      dup2\n        /* \"#utility.yul\":10350:10385   */\n      eq\n        /* \"#utility.yul\":10340:10342   */\n      tag_226\n      jumpi\n        /* \"#utility.yul\":10399:10400   */\n      0x00\n        /* \"#utility.yul\":10396:10397   */\n      dup1\n        /* \"#utility.yul\":10389:10401   */\n      revert\n        /* \"#utility.yul\":10340:10342   */\n    tag_226:\n        /* \"#utility.yul\":10330:10409   */\n      pop\n      jump\t// out\n\n    auxdata: 0xa264697066735822122034a36e012acec47c7b5a8f3f84f6c1ddd513458ffde5b0fb367849d736d6b4d764736f6c63430008040033\n}\n",
				"bytecode": {
					"linkReferences": {},
					"object": "60806040526040518060600160405280600181526020016040518060400160405280600781526020017f526f626572746f0000000000000000000000000000000000000000000000000081525081526020016040518060400160405280601381526020017f726f626572746f40726f626572746f2e636f6d0000000000000000000000000081525081525060008082015181600001556020820151816001019080519060200190620000b39291906200010f565b506040820151816002019080519060200190620000d29291906200010f565b5050506040518060200160405280600160ff168152506003906001620000fa929190620001a0565b503480156200010857600080fd5b506200026e565b8280546200011d9062000209565b90600052602060002090601f0160209004810192826200014157600085556200018d565b82601f106200015c57805160ff19168380011785556200018d565b828001600101855582156200018d579182015b828111156200018c5782518255916020019190600101906200016f565b5b5090506200019c9190620001ea565b5090565b8260048101928215620001d7579160200282015b82811115620001d6578251829060ff16905591602001919060010190620001b4565b5b509050620001e69190620001ea565b5090565b5b8082111562000205576000816000905550600101620001eb565b5090565b600060028204905060018216806200022257607f821691505b602082108114156200023957620002386200023f565b5b50919050565b7f4e487b7100000000000000000000000000000000000000000000000000000000600052602260045260246000fd5b610d2d806200027e6000396000f3fe608060405234801561001057600080fd5b50600436106100625760003560e01c806360591cc01461006757806389b08f1114610083578063b45aed86146100b3578063c0abda2a146100e5578063e52b008f14610117578063e7cf5fe714610133575b600080fd5b610081600480360381019061007c919061093c565b61014f565b005b61009d6004803603810190610098919061086d565b6101e6565b6040516100aa9190610a03565b60405180910390f35b6100cd60048036038101906100c89190610896565b6101fe565b6040516100dc93929190610a1e565b60405180910390f35b6100ff60048036038101906100fa9190610913565b610355565b60405161010e93929190610a1e565b60405180910390f35b610131600480360381019061012c9190610913565b61049f565b005b61014d600480360381019061014891906108d2565b6104e6565b005b6000604051806060016040528085815260200184815260200183815250905060078190806001815401808255809150506001900390600052602060002090600302016000909190919091506000820151816000015560208201518160010190805190602001906101c09291906105f8565b5060408201518160020190805190602001906101dd9291906105f8565b50505050505050565b60086020528060005260406000206000915090505481565b6009602052816000526040600020818154811061021a57600080fd5b90600052602060002090600302016000915091505080600001549080600101805461024490610b7f565b80601f016020809104026020016040519081016040528092919081815260200182805461027090610b7f565b80156102bd5780601f10610292576101008083540402835291602001916102bd565b820191906000526020600020905b8154815290600101906020018083116102a057829003601f168201915b5050505050908060020180546102d290610b7f565b80601f01602080910402602001604051908101604052809291908181526020018280546102fe90610b7f565b801561034b5780601f106103205761010080835404028352916020019161034b565b820191906000526020600020905b81548152906001019060200180831161032e57829003601f168201915b5050505050905083565b6007818154811061036557600080fd5b906000526020600020906003020160009150905080600001549080600101805461038e90610b7f565b80601f01602080910402602001604051908101604052809291908181526020018280546103ba90610b7f565b80156104075780601f106103dc57610100808354040283529160200191610407565b820191906000526020600020905b8154815290600101906020018083116103ea57829003601f168201915b50505050509080600201805461041c90610b7f565b80601f016020809104026020016040519081016040528092919081815260200182805461044890610b7f565b80156104955780601f1061046a57610100808354040283529160200191610495565b820191906000526020600020905b81548152906001019060200180831161047857829003601f168201915b5050505050905083565b80600860003373ffffffffffffffffffffffffffffffffffffffff1673ffffffffffffffffffffffffffffffffffffffff1681526020019081526020016000208190555050565b60005b81518110156105f457600960003373ffffffffffffffffffffffffffffffffffffffff1673ffffffffffffffffffffffffffffffffffffffff16815260200190815260200160002082828151811061056a577f4e487b7100000000000000000000000000000000000000000000000000000000600052603260045260246000fd5b602002602001015190806001815401808255809150506001900390600052602060002090600302016000909190919091506000820151816000015560208201518160010190805190602001906105c19291906105f8565b5060408201518160020190805190602001906105de9291906105f8565b50505080806105ec90610be2565b9150506104e9565b5050565b82805461060490610b7f565b90600052602060002090601f016020900481019282610626576000855561066d565b82601f1061063f57805160ff191683800117855561066d565b8280016001018555821561066d579182015b8281111561066c578251825591602001919060010190610651565b5b50905061067a919061067e565b5090565b5b8082111561069757600081600090555060010161067f565b5090565b60006106ae6106a984610a88565b610a63565b905080838252602082019050828560208602820111156106cd57600080fd5b60005b8581101561071757813567ffffffffffffffff8111156106ef57600080fd5b8086016106fc89826107c8565b855260208501945060208401935050506001810190506106d0565b5050509392505050565b600061073461072f84610ab4565b610a63565b90508281526020810184848401111561074c57600080fd5b610757848285610b3d565b509392505050565b60008135905061076e81610cc9565b92915050565b600082601f83011261078557600080fd5b813561079584826020860161069b565b91505092915050565b600082601f8301126107af57600080fd5b81356107bf848260208601610721565b91505092915050565b6000606082840312156107da57600080fd5b6107e46060610a63565b905060006107f484828501610858565b600083015250602082013567ffffffffffffffff81111561081457600080fd5b6108208482850161079e565b602083015250604082013567ffffffffffffffff81111561084057600080fd5b61084c8482850161079e565b60408301525092915050565b60008135905061086781610ce0565b92915050565b60006020828403121561087f57600080fd5b600061088d8482850161075f565b91505092915050565b600080604083850312156108a957600080fd5b60006108b78582860161075f565b92505060206108c885828601610858565b9150509250929050565b6000602082840312156108e457600080fd5b600082013567ffffffffffffffff8111156108fe57600080fd5b61090a84828501610774565b91505092915050565b60006020828403121561092557600080fd5b600061093384828501610858565b91505092915050565b60008060006060848603121561095157600080fd5b600061095f86828701610858565b935050602084013567ffffffffffffffff81111561097c57600080fd5b6109888682870161079e565b925050604084013567ffffffffffffffff8111156109a557600080fd5b6109b18682870161079e565b9150509250925092565b60006109c682610ae5565b6109d08185610af0565b93506109e0818560208601610b4c565b6109e981610cb8565b840191505092915050565b6109fd81610b33565b82525050565b6000602082019050610a1860008301846109f4565b92915050565b6000606082019050610a3360008301866109f4565b8181036020830152610a4581856109bb565b90508181036040830152610a5981846109bb565b9050949350505050565b6000610a6d610a7e565b9050610a798282610bb1565b919050565b6000604051905090565b600067ffffffffffffffff821115610aa357610aa2610c89565b5b602082029050602081019050919050565b600067ffffffffffffffff821115610acf57610ace610c89565b5b610ad882610cb8565b9050602081019050919050565b600081519050919050565b600082825260208201905092915050565b6000610b0c82610b13565b9050919050565b600073ffffffffffffffffffffffffffffffffffffffff82169050919050565b6000819050919050565b82818337600083830152505050565b60005b83811015610b6a578082015181840152602081019050610b4f565b83811115610b79576000848401525b50505050565b60006002820490506001821680610b9757607f821691505b60208210811415610bab57610baa610c5a565b5b50919050565b610bba82610cb8565b810181811067ffffffffffffffff82111715610bd957610bd8610c89565b5b80604052505050565b6000610bed82610b33565b91507fffffffffffffffffffffffffffffffffffffffffffffffffffffffffffffffff821415610c2057610c1f610c2b565b5b600182019050919050565b7f4e487b7100000000000000000000000000000000000000000000000000000000600052601160045260246000fd5b7f4e487b7100000000000000000000000000000000000000000000000000000000600052602260045260246000fd5b7f4e487b7100000000000000000000000000000000000000000000000000000000600052604160045260246000fd5b6000601f19601f8301169050919050565b610cd281610b01565b8114610cdd57600080fd5b50565b610ce981610b33565b8114610cf457600080fd5b5056fea264697066735822122034a36e012acec47c7b5a8f3f84f6c1ddd513458ffde5b0fb367849d736d6b4d764736f6c63430008040033",
					"opcodes": "PUSH1 0x80 PUSH1 0x40 MSTORE PUSH1 0x40 MLOAD DUP1 PUSH1 0x60 ADD PUSH1 0x40 MSTORE DUP1 PUSH1 0x1 DUP2 MSTORE PUSH1 0x20 ADD PUSH1 0x40 MLOAD DUP1 PUSH1 0x40 ADD PUSH1 0x40 MSTORE DUP1 PUSH1 0x7 DUP2 MSTORE PUSH1 0x20 ADD PUSH32 0x526F626572746F00000000000000000000000000000000000000000000000000 DUP2 MSTORE POP DUP2 MSTORE PUSH1 0x20 ADD PUSH1 0x40 MLOAD DUP1 PUSH1 0x40 ADD PUSH1 0x40 MSTORE DUP1 PUSH1 0x13 DUP2 MSTORE PUSH1 0x20 ADD PUSH32 0x726F626572746F40726F626572746F2E636F6D00000000000000000000000000 DUP2 MSTORE POP DUP2 MSTORE POP PUSH1 0x0 DUP1 DUP3 ADD MLOAD DUP2 PUSH1 0x0 ADD SSTORE PUSH1 0x20 DUP3 ADD MLOAD DUP2 PUSH1 0x1 ADD SWAP1 DUP1 MLOAD SWAP1 PUSH1 0x20 ADD SWAP1 PUSH3 0xB3 SWAP3 SWAP2 SWAP1 PUSH3 0x10F JUMP JUMPDEST POP PUSH1 0x40 DUP3 ADD MLOAD DUP2 PUSH1 0x2 ADD SWAP1 DUP1 MLOAD SWAP1 PUSH1 0x20 ADD SWAP1 PUSH3 0xD2 SWAP3 SWAP2 SWAP1 PUSH3 0x10F JUMP JUMPDEST POP POP POP PUSH1 0x40 MLOAD DUP1 PUSH1 0x20 ADD PUSH1 0x40 MSTORE DUP1 PUSH1 0x1 PUSH1 0xFF AND DUP2 MSTORE POP PUSH1 0x3 SWAP1 PUSH1 0x1 PUSH3 0xFA SWAP3 SWAP2 SWAP1 PUSH3 0x1A0 JUMP JUMPDEST POP CALLVALUE DUP1 ISZERO PUSH3 0x108 JUMPI PUSH1 0x0 DUP1 REVERT JUMPDEST POP PUSH3 0x26E JUMP JUMPDEST DUP3 DUP1 SLOAD PUSH3 0x11D SWAP1 PUSH3 0x209 JUMP JUMPDEST SWAP1 PUSH1 0x0 MSTORE PUSH1 0x20 PUSH1 0x0 KECCAK256 SWAP1 PUSH1 0x1F ADD PUSH1 0x20 SWAP1 DIV DUP2 ADD SWAP3 DUP3 PUSH3 0x141 JUMPI PUSH1 0x0 DUP6 SSTORE PUSH3 0x18D JUMP JUMPDEST DUP3 PUSH1 0x1F LT PUSH3 0x15C JUMPI DUP1 MLOAD PUSH1 0xFF NOT AND DUP4 DUP1 ADD OR DUP6 SSTORE PUSH3 0x18D JUMP JUMPDEST DUP3 DUP1 ADD PUSH1 0x1 ADD DUP6 SSTORE DUP3 ISZERO PUSH3 0x18D JUMPI SWAP2 DUP3 ADD JUMPDEST DUP3 DUP2 GT ISZERO PUSH3 0x18C JUMPI DUP3 MLOAD DUP3 SSTORE SWAP2 PUSH1 0x20 ADD SWAP2 SWAP1 PUSH1 0x1 ADD SWAP1 PUSH3 0x16F JUMP JUMPDEST JUMPDEST POP SWAP1 POP PUSH3 0x19C SWAP2 SWAP1 PUSH3 0x1EA JUMP JUMPDEST POP SWAP1 JUMP JUMPDEST DUP3 PUSH1 0x4 DUP2 ADD SWAP3 DUP3 ISZERO PUSH3 0x1D7 JUMPI SWAP2 PUSH1 0x20 MUL DUP3 ADD JUMPDEST DUP3 DUP2 GT ISZERO PUSH3 0x1D6 JUMPI DUP3 MLOAD DUP3 SWAP1 PUSH1 0xFF AND SWAP1 SSTORE SWAP2 PUSH1 0x20 ADD SWAP2 SWAP1 PUSH1 0x1 ADD SWAP1 PUSH3 0x1B4 JUMP JUMPDEST JUMPDEST POP SWAP1 POP PUSH3 0x1E6 SWAP2 SWAP1 PUSH3 0x1EA JUMP JUMPDEST POP SWAP1 JUMP JUMPDEST JUMPDEST DUP1 DUP3 GT ISZERO PUSH3 0x205 JUMPI PUSH1 0x0 DUP2 PUSH1 0x0 SWAP1 SSTORE POP PUSH1 0x1 ADD PUSH3 0x1EB JUMP JUMPDEST POP SWAP1 JUMP JUMPDEST PUSH1 0x0 PUSH1 0x2 DUP3 DIV SWAP1 POP PUSH1 0x1 DUP3 AND DUP1 PUSH3 0x222 JUMPI PUSH1 0x7F DUP3 AND SWAP2 POP JUMPDEST PUSH1 0x20 DUP3 LT DUP2 EQ ISZERO PUSH3 0x239 JUMPI PUSH3 0x238 PUSH3 0x23F JUMP JUMPDEST JUMPDEST POP SWAP2 SWAP1 POP JUMP JUMPDEST PUSH32 0x4E487B7100000000000000000000000000000000000000000000000000000000 PUSH1 0x0 MSTORE PUSH1 0x22 PUSH1 0x4 MSTORE PUSH1 0x24 PUSH1 0x0 REVERT JUMPDEST PUSH2 0xD2D DUP1 PUSH3 0x27E PUSH1 0x0 CODECOPY PUSH1 0x0 RETURN INVALID PUSH1 0x80 PUSH1 0x40 MSTORE CALLVALUE DUP1 ISZERO PUSH2 0x10 JUMPI PUSH1 0x0 DUP1 REVERT JUMPDEST POP PUSH1 0x4 CALLDATASIZE LT PUSH2 0x62 JUMPI PUSH1 0x0 CALLDATALOAD PUSH1 0xE0 SHR DUP1 PUSH4 0x60591CC0 EQ PUSH2 0x67 JUMPI DUP1 PUSH4 0x89B08F11 EQ PUSH2 0x83 JUMPI DUP1 PUSH4 0xB45AED86 EQ PUSH2 0xB3 JUMPI DUP1 PUSH4 0xC0ABDA2A EQ PUSH2 0xE5 JUMPI DUP1 PUSH4 0xE52B008F EQ PUSH2 0x117 JUMPI DUP1 PUSH4 0xE7CF5FE7 EQ PUSH2 0x133 JUMPI JUMPDEST PUSH1 0x0 DUP1 REVERT JUMPDEST PUSH2 0x81 PUSH1 0x4 DUP1 CALLDATASIZE SUB DUP2 ADD SWAP1 PUSH2 0x7C SWAP2 SWAP1 PUSH2 0x93C JUMP JUMPDEST PUSH2 0x14F JUMP JUMPDEST STOP JUMPDEST PUSH2 0x9D PUSH1 0x4 DUP1 CALLDATASIZE SUB DUP2 ADD SWAP1 PUSH2 0x98 SWAP2 SWAP1 PUSH2 0x86D JUMP JUMPDEST PUSH2 0x1E6 JUMP JUMPDEST PUSH1 0x40 MLOAD PUSH2 0xAA SWAP2 SWAP1 PUSH2 0xA03 JUMP JUMPDEST PUSH1 0x40 MLOAD DUP1 SWAP2 SUB SWAP1 RETURN JUMPDEST PUSH2 0xCD PUSH1 0x4 DUP1 CALLDATASIZE SUB DUP2 ADD SWAP1 PUSH2 0xC8 SWAP2 SWAP1 PUSH2 0x896 JUMP JUMPDEST PUSH2 0x1FE JUMP JUMPDEST PUSH1 0x40 MLOAD PUSH2 0xDC SWAP4 SWAP3 SWAP2 SWAP1 PUSH2 0xA1E JUMP JUMPDEST PUSH1 0x40 MLOAD DUP1 SWAP2 SUB SWAP1 RETURN JUMPDEST PUSH2 0xFF PUSH1 0x4 DUP1 CALLDATASIZE SUB DUP2 ADD SWAP1 PUSH2 0xFA SWAP2 SWAP1 PUSH2 0x913 JUMP JUMPDEST PUSH2 0x355 JUMP JUMPDEST PUSH1 0x40 MLOAD PUSH2 0x10E SWAP4 SWAP3 SWAP2 SWAP1 PUSH2 0xA1E JUMP JUMPDEST PUSH1 0x40 MLOAD DUP1 SWAP2 SUB SWAP1 RETURN JUMPDEST PUSH2 0x131 PUSH1 0x4 DUP1 CALLDATASIZE SUB DUP2 ADD SWAP1 PUSH2 0x12C SWAP2 SWAP1 PUSH2 0x913 JUMP JUMPDEST PUSH2 0x49F JUMP JUMPDEST STOP JUMPDEST PUSH2 0x14D PUSH1 0x4 DUP1 CALLDATASIZE SUB DUP2 ADD SWAP1 PUSH2 0x148 SWAP2 SWAP1 PUSH2 0x8D2 JUMP JUMPDEST PUSH2 0x4E6 JUMP JUMPDEST STOP JUMPDEST PUSH1 0x0 PUSH1 0x40 MLOAD DUP1 PUSH1 0x60 ADD PUSH1 0x40 MSTORE DUP1 DUP6 DUP2 MSTORE PUSH1 0x20 ADD DUP5 DUP2 MSTORE PUSH1 0x20 ADD DUP4 DUP2 MSTORE POP SWAP1 POP PUSH1 0x7 DUP2 SWAP1 DUP1 PUSH1 0x1 DUP2 SLOAD ADD DUP1 DUP3 SSTORE DUP1 SWAP2 POP POP PUSH1 0x1 SWAP1 SUB SWAP1 PUSH1 0x0 MSTORE PUSH1 0x20 PUSH1 0x0 KECCAK256 SWAP1 PUSH1 0x3 MUL ADD PUSH1 0x0 SWAP1 SWAP2 SWAP1 SWAP2 SWAP1 SWAP2 POP PUSH1 0x0 DUP3 ADD MLOAD DUP2 PUSH1 0x0 ADD SSTORE PUSH1 0x20 DUP3 ADD MLOAD DUP2 PUSH1 0x1 ADD SWAP1 DUP1 MLOAD SWAP1 PUSH1 0x20 ADD SWAP1 PUSH2 0x1C0 SWAP3 SWAP2 SWAP1 PUSH2 0x5F8 JUMP JUMPDEST POP PUSH1 0x40 DUP3 ADD MLOAD DUP2 PUSH1 0x2 ADD SWAP1 DUP1 MLOAD SWAP1 PUSH1 0x20 ADD SWAP1 PUSH2 0x1DD SWAP3 SWAP2 SWAP1 PUSH2 0x5F8 JUMP JUMPDEST POP POP POP POP POP POP POP JUMP JUMPDEST PUSH1 0x8 PUSH1 0x20 MSTORE DUP1 PUSH1 0x0 MSTORE PUSH1 0x40 PUSH1 0x0 KECCAK256 PUSH1 0x0 SWAP2 POP SWAP1 POP SLOAD DUP2 JUMP JUMPDEST PUSH1 0x9 PUSH1 0x20 MSTORE DUP2 PUSH1 0x0 MSTORE PUSH1 0x40 PUSH1 0x0 KECCAK256 DUP2 DUP2 SLOAD DUP2 LT PUSH2 0x21A JUMPI PUSH1 0x0 DUP1 REVERT JUMPDEST SWAP1 PUSH1 0x0 MSTORE PUSH1 0x20 PUSH1 0x0 KECCAK256 SWAP1 PUSH1 0x3 MUL ADD PUSH1 0x0 SWAP2 POP SWAP2 POP POP DUP1 PUSH1 0x0 ADD SLOAD SWAP1 DUP1 PUSH1 0x1 ADD DUP1 SLOAD PUSH2 0x244 SWAP1 PUSH2 0xB7F JUMP JUMPDEST DUP1 PUSH1 0x1F ADD PUSH1 0x20 DUP1 SWAP2 DIV MUL PUSH1 0x20 ADD PUSH1 0x40 MLOAD SWAP1 DUP2 ADD PUSH1 0x40 MSTORE DUP1 SWAP3 SWAP2 SWAP1 DUP2 DUP2 MSTORE PUSH1 0x20 ADD DUP3 DUP1 SLOAD PUSH2 0x270 SWAP1 PUSH2 0xB7F JUMP JUMPDEST DUP1 ISZERO PUSH2 0x2BD JUMPI DUP1 PUSH1 0x1F LT PUSH2 0x292 JUMPI PUSH2 0x100 DUP1 DUP4 SLOAD DIV MUL DUP4 MSTORE SWAP2 PUSH1 0x20 ADD SWAP2 PUSH2 0x2BD JUMP JUMPDEST DUP3 ADD SWAP2 SWAP1 PUSH1 0x0 MSTORE PUSH1 0x20 PUSH1 0x0 KECCAK256 SWAP1 JUMPDEST DUP2 SLOAD DUP2 MSTORE SWAP1 PUSH1 0x1 ADD SWAP1 PUSH1 0x20 ADD DUP1 DUP4 GT PUSH2 0x2A0 JUMPI DUP3 SWAP1 SUB PUSH1 0x1F AND DUP3 ADD SWAP2 JUMPDEST POP POP POP POP POP SWAP1 DUP1 PUSH1 0x2 ADD DUP1 SLOAD PUSH2 0x2D2 SWAP1 PUSH2 0xB7F JUMP JUMPDEST DUP1 PUSH1 0x1F ADD PUSH1 0x20 DUP1 SWAP2 DIV MUL PUSH1 0x20 ADD PUSH1 0x40 MLOAD SWAP1 DUP2 ADD PUSH1 0x40 MSTORE DUP1 SWAP3 SWAP2 SWAP1 DUP2 DUP2 MSTORE PUSH1 0x20 ADD DUP3 DUP1 SLOAD PUSH2 0x2FE SWAP1 PUSH2 0xB7F JUMP JUMPDEST DUP1 ISZERO PUSH2 0x34B JUMPI DUP1 PUSH1 0x1F LT PUSH2 0x320 JUMPI PUSH2 0x100 DUP1 DUP4 SLOAD DIV MUL DUP4 MSTORE SWAP2 PUSH1 0x20 ADD SWAP2 PUSH2 0x34B JUMP JUMPDEST DUP3 ADD SWAP2 SWAP1 PUSH1 0x0 MSTORE PUSH1 0x20 PUSH1 0x0 KECCAK256 SWAP1 JUMPDEST DUP2 SLOAD DUP2 MSTORE SWAP1 PUSH1 0x1 ADD SWAP1 PUSH1 0x20 ADD DUP1 DUP4 GT PUSH2 0x32E JUMPI DUP3 SWAP1 SUB PUSH1 0x1F AND DUP3 ADD SWAP2 JUMPDEST POP POP POP POP POP SWAP1 POP DUP4 JUMP JUMPDEST PUSH1 0x7 DUP2 DUP2 SLOAD DUP2 LT PUSH2 0x365 JUMPI PUSH1 0x0 DUP1 REVERT JUMPDEST SWAP1 PUSH1 0x0 MSTORE PUSH1 0x20 PUSH1 0x0 KECCAK256 SWAP1 PUSH1 0x3 MUL ADD PUSH1 0x0 SWAP2 POP SWAP1 POP DUP1 PUSH1 0x0 ADD SLOAD SWAP1 DUP1 PUSH1 0x1 ADD DUP1 SLOAD PUSH2 0x38E SWAP1 PUSH2 0xB7F JUMP JUMPDEST DUP1 PUSH1 0x1F ADD PUSH1 0x20 DUP1 SWAP2 DIV MUL PUSH1 0x20 ADD PUSH1 0x40 MLOAD SWAP1 DUP2 ADD PUSH1 0x40 MSTORE DUP1 SWAP3 SWAP2 SWAP1 DUP2 DUP2 MSTORE PUSH1 0x20 ADD DUP3 DUP1 SLOAD PUSH2 0x3BA SWAP1 PUSH2 0xB7F JUMP JUMPDEST DUP1 ISZERO PUSH2 0x407 JUMPI DUP1 PUSH1 0x1F LT PUSH2 0x3DC JUMPI PUSH2 0x100 DUP1 DUP4 SLOAD DIV MUL DUP4 MSTORE SWAP2 PUSH1 0x20 ADD SWAP2 PUSH2 0x407 JUMP JUMPDEST DUP3 ADD SWAP2 SWAP1 PUSH1 0x0 MSTORE PUSH1 0x20 PUSH1 0x0 KECCAK256 SWAP1 JUMPDEST DUP2 SLOAD DUP2 MSTORE SWAP1 PUSH1 0x1 ADD SWAP1 PUSH1 0x20 ADD DUP1 DUP4 GT PUSH2 0x3EA JUMPI DUP3 SWAP1 SUB PUSH1 0x1F AND DUP3 ADD SWAP2 JUMPDEST POP POP POP POP POP SWAP1 DUP1 PUSH1 0x2 ADD DUP1 SLOAD PUSH2 0x41C SWAP1 PUSH2 0xB7F JUMP JUMPDEST DUP1 PUSH1 0x1F ADD PUSH1 0x20 DUP1 SWAP2 DIV MUL PUSH1 0x20 ADD PUSH1 0x40 MLOAD SWAP1 DUP2 ADD PUSH1 0x40 MSTORE DUP1 SWAP3 SWAP2 SWAP1 DUP2 DUP2 MSTORE PUSH1 0x20 ADD DUP3 DUP1 SLOAD PUSH2 0x448 SWAP1 PUSH2 0xB7F JUMP JUMPDEST DUP1 ISZERO PUSH2 0x495 JUMPI DUP1 PUSH1 0x1F LT PUSH2 0x46A JUMPI PUSH2 0x100 DUP1 DUP4 SLOAD DIV MUL DUP4 MSTORE SWAP2 PUSH1 0x20 ADD SWAP2 PUSH2 0x495 JUMP JUMPDEST DUP3 ADD SWAP2 SWAP1 PUSH1 0x0 MSTORE PUSH1 0x20 PUSH1 0x0 KECCAK256 SWAP1 JUMPDEST DUP2 SLOAD DUP2 MSTORE SWAP1 PUSH1 0x1 ADD SWAP1 PUSH1 0x20 ADD DUP1 DUP4 GT PUSH2 0x478 JUMPI DUP3 SWAP1 SUB PUSH1 0x1F AND DUP3 ADD SWAP2 JUMPDEST POP POP POP POP POP SWAP1 POP DUP4 JUMP JUMPDEST DUP1 PUSH1 0x8 PUSH1 0x0 CALLER PUSH20 0xFFFFFFFFFFFFFFFFFFFFFFFFFFFFFFFFFFFFFFFF AND PUSH20 0xFFFFFFFFFFFFFFFFFFFFFFFFFFFFFFFFFFFFFFFF AND DUP2 MSTORE PUSH1 0x20 ADD SWAP1 DUP2 MSTORE PUSH1 0x20 ADD PUSH1 0x0 KECCAK256 DUP2 SWAP1 SSTORE POP POP JUMP JUMPDEST PUSH1 0x0 JUMPDEST DUP2 MLOAD DUP2 LT ISZERO PUSH2 0x5F4 JUMPI PUSH1 0x9 PUSH1 0x0 CALLER PUSH20 0xFFFFFFFFFFFFFFFFFFFFFFFFFFFFFFFFFFFFFFFF AND PUSH20 0xFFFFFFFFFFFFFFFFFFFFFFFFFFFFFFFFFFFFFFFF AND DUP2 MSTORE PUSH1 0x20 ADD SWAP1 DUP2 MSTORE PUSH1 0x20 ADD PUSH1 0x0 KECCAK256 DUP3 DUP3 DUP2 MLOAD DUP2 LT PUSH2 0x56A JUMPI PUSH32 0x4E487B7100000000000000000000000000000000000000000000000000000000 PUSH1 0x0 MSTORE PUSH1 0x32 PUSH1 0x4 MSTORE PUSH1 0x24 PUSH1 0x0 REVERT JUMPDEST PUSH1 0x20 MUL PUSH1 0x20 ADD ADD MLOAD SWAP1 DUP1 PUSH1 0x1 DUP2 SLOAD ADD DUP1 DUP3 SSTORE DUP1 SWAP2 POP POP PUSH1 0x1 SWAP1 SUB SWAP1 PUSH1 0x0 MSTORE PUSH1 0x20 PUSH1 0x0 KECCAK256 SWAP1 PUSH1 0x3 MUL ADD PUSH1 0x0 SWAP1 SWAP2 SWAP1 SWAP2 SWAP1 SWAP2 POP PUSH1 0x0 DUP3 ADD MLOAD DUP2 PUSH1 0x0 ADD SSTORE PUSH1 0x20 DUP3 ADD MLOAD DUP2 PUSH1 0x1 ADD SWAP1 DUP1 MLOAD SWAP1 PUSH1 0x20 ADD SWAP1 PUSH2 0x5C1 SWAP3 SWAP2 SWAP1 PUSH2 0x5F8 JUMP JUMPDEST POP PUSH1 0x40 DUP3 ADD MLOAD DUP2 PUSH1 0x2 ADD SWAP1 DUP1 MLOAD SWAP1 PUSH1 0x20 ADD SWAP1 PUSH2 0x5DE SWAP3 SWAP2 SWAP1 PUSH2 0x5F8 JUMP JUMPDEST POP POP POP DUP1 DUP1 PUSH2 0x5EC SWAP1 PUSH2 0xBE2 JUMP JUMPDEST SWAP2 POP POP PUSH2 0x4E9 JUMP JUMPDEST POP POP JUMP JUMPDEST DUP3 DUP1 SLOAD PUSH2 0x604 SWAP1 PUSH2 0xB7F JUMP JUMPDEST SWAP1 PUSH1 0x0 MSTORE PUSH1 0x20 PUSH1 0x0 KECCAK256 SWAP1 PUSH1 0x1F ADD PUSH1 0x20 SWAP1 DIV DUP2 ADD SWAP3 DUP3 PUSH2 0x626 JUMPI PUSH1 0x0 DUP6 SSTORE PUSH2 0x66D JUMP JUMPDEST DUP3 PUSH1 0x1F LT PUSH2 0x63F JUMPI DUP1 MLOAD PUSH1 0xFF NOT AND DUP4 DUP1 ADD OR DUP6 SSTORE PUSH2 0x66D JUMP JUMPDEST DUP3 DUP1 ADD PUSH1 0x1 ADD DUP6 SSTORE DUP3 ISZERO PUSH2 0x66D JUMPI SWAP2 DUP3 ADD JUMPDEST DUP3 DUP2 GT ISZERO PUSH2 0x66C JUMPI DUP3 MLOAD DUP3 SSTORE SWAP2 PUSH1 0x20 ADD SWAP2 SWAP1 PUSH1 0x1 ADD SWAP1 PUSH2 0x651 JUMP JUMPDEST JUMPDEST POP SWAP1 POP PUSH2 0x67A SWAP2 SWAP1 PUSH2 0x67E JUMP JUMPDEST POP SWAP1 JUMP JUMPDEST JUMPDEST DUP1 DUP3 GT ISZERO PUSH2 0x697 JUMPI PUSH1 0x0 DUP2 PUSH1 0x0 SWAP1 SSTORE POP PUSH1 0x1 ADD PUSH2 0x67F JUMP JUMPDEST POP SWAP1 JUMP JUMPDEST PUSH1 0x0 PUSH2 0x6AE PUSH2 0x6A9 DUP5 PUSH2 0xA88 JUMP JUMPDEST PUSH2 0xA63 JUMP JUMPDEST SWAP1 POP DUP1 DUP4 DUP3 MSTORE PUSH1 0x20 DUP3 ADD SWAP1 POP DUP3 DUP6 PUSH1 0x20 DUP7 MUL DUP3 ADD GT ISZERO PUSH2 0x6CD JUMPI PUSH1 0x0 DUP1 REVERT JUMPDEST PUSH1 0x0 JUMPDEST DUP6 DUP2 LT ISZERO PUSH2 0x717 JUMPI DUP2 CALLDATALOAD PUSH8 0xFFFFFFFFFFFFFFFF DUP2 GT ISZERO PUSH2 0x6EF JUMPI PUSH1 0x0 DUP1 REVERT JUMPDEST DUP1 DUP7 ADD PUSH2 0x6FC DUP10 DUP3 PUSH2 0x7C8 JUMP JUMPDEST DUP6 MSTORE PUSH1 0x20 DUP6 ADD SWAP5 POP PUSH1 0x20 DUP5 ADD SWAP4 POP POP POP PUSH1 0x1 DUP2 ADD SWAP1 POP PUSH2 0x6D0 JUMP JUMPDEST POP POP POP SWAP4 SWAP3 POP POP POP JUMP JUMPDEST PUSH1 0x0 PUSH2 0x734 PUSH2 0x72F DUP5 PUSH2 0xAB4 JUMP JUMPDEST PUSH2 0xA63 JUMP JUMPDEST SWAP1 POP DUP3 DUP2 MSTORE PUSH1 0x20 DUP2 ADD DUP5 DUP5 DUP5 ADD GT ISZERO PUSH2 0x74C JUMPI PUSH1 0x0 DUP1 REVERT JUMPDEST PUSH2 0x757 DUP5 DUP3 DUP6 PUSH2 0xB3D JUMP JUMPDEST POP SWAP4 SWAP3 POP POP POP JUMP JUMPDEST PUSH1 0x0 DUP2 CALLDATALOAD SWAP1 POP PUSH2 0x76E DUP2 PUSH2 0xCC9 JUMP JUMPDEST SWAP3 SWAP2 POP POP JUMP JUMPDEST PUSH1 0x0 DUP3 PUSH1 0x1F DUP4 ADD SLT PUSH2 0x785 JUMPI PUSH1 0x0 DUP1 REVERT JUMPDEST DUP2 CALLDATALOAD PUSH2 0x795 DUP5 DUP3 PUSH1 0x20 DUP7 ADD PUSH2 0x69B JUMP JUMPDEST SWAP2 POP POP SWAP3 SWAP2 POP POP JUMP JUMPDEST PUSH1 0x0 DUP3 PUSH1 0x1F DUP4 ADD SLT PUSH2 0x7AF JUMPI PUSH1 0x0 DUP1 REVERT JUMPDEST DUP2 CALLDATALOAD PUSH2 0x7BF DUP5 DUP3 PUSH1 0x20 DUP7 ADD PUSH2 0x721 JUMP JUMPDEST SWAP2 POP POP SWAP3 SWAP2 POP POP JUMP JUMPDEST PUSH1 0x0 PUSH1 0x60 DUP3 DUP5 SUB SLT ISZERO PUSH2 0x7DA JUMPI PUSH1 0x0 DUP1 REVERT JUMPDEST PUSH2 0x7E4 PUSH1 0x60 PUSH2 0xA63 JUMP JUMPDEST SWAP1 POP PUSH1 0x0 PUSH2 0x7F4 DUP5 DUP3 DUP6 ADD PUSH2 0x858 JUMP JUMPDEST PUSH1 0x0 DUP4 ADD MSTORE POP PUSH1 0x20 DUP3 ADD CALLDATALOAD PUSH8 0xFFFFFFFFFFFFFFFF DUP2 GT ISZERO PUSH2 0x814 JUMPI PUSH1 0x0 DUP1 REVERT JUMPDEST PUSH2 0x820 DUP5 DUP3 DUP6 ADD PUSH2 0x79E JUMP JUMPDEST PUSH1 0x20 DUP4 ADD MSTORE POP PUSH1 0x40 DUP3 ADD CALLDATALOAD PUSH8 0xFFFFFFFFFFFFFFFF DUP2 GT ISZERO PUSH2 0x840 JUMPI PUSH1 0x0 DUP1 REVERT JUMPDEST PUSH2 0x84C DUP5 DUP3 DUP6 ADD PUSH2 0x79E JUMP JUMPDEST PUSH1 0x40 DUP4 ADD MSTORE POP SWAP3 SWAP2 POP POP JUMP JUMPDEST PUSH1 0x0 DUP2 CALLDATALOAD SWAP1 POP PUSH2 0x867 DUP2 PUSH2 0xCE0 JUMP JUMPDEST SWAP3 SWAP2 POP POP JUMP JUMPDEST PUSH1 0x0 PUSH1 0x20 DUP3 DUP5 SUB SLT ISZERO PUSH2 0x87F JUMPI PUSH1 0x0 DUP1 REVERT JUMPDEST PUSH1 0x0 PUSH2 0x88D DUP5 DUP3 DUP6 ADD PUSH2 0x75F JUMP JUMPDEST SWAP2 POP POP SWAP3 SWAP2 POP POP JUMP JUMPDEST PUSH1 0x0 DUP1 PUSH1 0x40 DUP4 DUP6 SUB SLT ISZERO PUSH2 0x8A9 JUMPI PUSH1 0x0 DUP1 REVERT JUMPDEST PUSH1 0x0 PUSH2 0x8B7 DUP6 DUP3 DUP7 ADD PUSH2 0x75F JUMP JUMPDEST SWAP3 POP POP PUSH1 0x20 PUSH2 0x8C8 DUP6 DUP3 DUP7 ADD PUSH2 0x858 JUMP JUMPDEST SWAP2 POP POP SWAP3 POP SWAP3 SWAP1 POP JUMP JUMPDEST PUSH1 0x0 PUSH1 0x20 DUP3 DUP5 SUB SLT ISZERO PUSH2 0x8E4 JUMPI PUSH1 0x0 DUP1 REVERT JUMPDEST PUSH1 0x0 DUP3 ADD CALLDATALOAD PUSH8 0xFFFFFFFFFFFFFFFF DUP2 GT ISZERO PUSH2 0x8FE JUMPI PUSH1 0x0 DUP1 REVERT JUMPDEST PUSH2 0x90A DUP5 DUP3 DUP6 ADD PUSH2 0x774 JUMP JUMPDEST SWAP2 POP POP SWAP3 SWAP2 POP POP JUMP JUMPDEST PUSH1 0x0 PUSH1 0x20 DUP3 DUP5 SUB SLT ISZERO PUSH2 0x925 JUMPI PUSH1 0x0 DUP1 REVERT JUMPDEST PUSH1 0x0 PUSH2 0x933 DUP5 DUP3 DUP6 ADD PUSH2 0x858 JUMP JUMPDEST SWAP2 POP POP SWAP3 SWAP2 POP POP JUMP JUMPDEST PUSH1 0x0 DUP1 PUSH1 0x0 PUSH1 0x60 DUP5 DUP7 SUB SLT ISZERO PUSH2 0x951 JUMPI PUSH1 0x0 DUP1 REVERT JUMPDEST PUSH1 0x0 PUSH2 0x95F DUP7 DUP3 DUP8 ADD PUSH2 0x858 JUMP JUMPDEST SWAP4 POP POP PUSH1 0x20 DUP5 ADD CALLDATALOAD PUSH8 0xFFFFFFFFFFFFFFFF DUP2 GT ISZERO PUSH2 0x97C JUMPI PUSH1 0x0 DUP1 REVERT JUMPDEST PUSH2 0x988 DUP7 DUP3 DUP8 ADD PUSH2 0x79E JUMP JUMPDEST SWAP3 POP POP PUSH1 0x40 DUP5 ADD CALLDATALOAD PUSH8 0xFFFFFFFFFFFFFFFF DUP2 GT ISZERO PUSH2 0x9A5 JUMPI PUSH1 0x0 DUP1 REVERT JUMPDEST PUSH2 0x9B1 DUP7 DUP3 DUP8 ADD PUSH2 0x79E JUMP JUMPDEST SWAP2 POP POP SWAP3 POP SWAP3 POP SWAP3 JUMP JUMPDEST PUSH1 0x0 PUSH2 0x9C6 DUP3 PUSH2 0xAE5 JUMP JUMPDEST PUSH2 0x9D0 DUP2 DUP6 PUSH2 0xAF0 JUMP JUMPDEST SWAP4 POP PUSH2 0x9E0 DUP2 DUP6 PUSH1 0x20 DUP7 ADD PUSH2 0xB4C JUMP JUMPDEST PUSH2 0x9E9 DUP2 PUSH2 0xCB8 JUMP JUMPDEST DUP5 ADD SWAP2 POP POP SWAP3 SWAP2 POP POP JUMP JUMPDEST PUSH2 0x9FD DUP2 PUSH2 0xB33 JUMP JUMPDEST DUP3 MSTORE POP POP JUMP JUMPDEST PUSH1 0x0 PUSH1 0x20 DUP3 ADD SWAP1 POP PUSH2 0xA18 PUSH1 0x0 DUP4 ADD DUP5 PUSH2 0x9F4 JUMP JUMPDEST SWAP3 SWAP2 POP POP JUMP JUMPDEST PUSH1 0x0 PUSH1 0x60 DUP3 ADD SWAP1 POP PUSH2 0xA33 PUSH1 0x0 DUP4 ADD DUP7 PUSH2 0x9F4 JUMP JUMPDEST DUP2 DUP2 SUB PUSH1 0x20 DUP4 ADD MSTORE PUSH2 0xA45 DUP2 DUP6 PUSH2 0x9BB JUMP JUMPDEST SWAP1 POP DUP2 DUP2 SUB PUSH1 0x40 DUP4 ADD MSTORE PUSH2 0xA59 DUP2 DUP5 PUSH2 0x9BB JUMP JUMPDEST SWAP1 POP SWAP5 SWAP4 POP POP POP POP JUMP JUMPDEST PUSH1 0x0 PUSH2 0xA6D PUSH2 0xA7E JUMP JUMPDEST SWAP1 POP PUSH2 0xA79 DUP3 DUP3 PUSH2 0xBB1 JUMP JUMPDEST SWAP2 SWAP1 POP JUMP JUMPDEST PUSH1 0x0 PUSH1 0x40 MLOAD SWAP1 POP SWAP1 JUMP JUMPDEST PUSH1 0x0 PUSH8 0xFFFFFFFFFFFFFFFF DUP3 GT ISZERO PUSH2 0xAA3 JUMPI PUSH2 0xAA2 PUSH2 0xC89 JUMP JUMPDEST JUMPDEST PUSH1 0x20 DUP3 MUL SWAP1 POP PUSH1 0x20 DUP2 ADD SWAP1 POP SWAP2 SWAP1 POP JUMP JUMPDEST PUSH1 0x0 PUSH8 0xFFFFFFFFFFFFFFFF DUP3 GT ISZERO PUSH2 0xACF JUMPI PUSH2 0xACE PUSH2 0xC89 JUMP JUMPDEST JUMPDEST PUSH2 0xAD8 DUP3 PUSH2 0xCB8 JUMP JUMPDEST SWAP1 POP PUSH1 0x20 DUP2 ADD SWAP1 POP SWAP2 SWAP1 POP JUMP JUMPDEST PUSH1 0x0 DUP2 MLOAD SWAP1 POP SWAP2 SWAP1 POP JUMP JUMPDEST PUSH1 0x0 DUP3 DUP3 MSTORE PUSH1 0x20 DUP3 ADD SWAP1 POP SWAP3 SWAP2 POP POP JUMP JUMPDEST PUSH1 0x0 PUSH2 0xB0C DUP3 PUSH2 0xB13 JUMP JUMPDEST SWAP1 POP SWAP2 SWAP1 POP JUMP JUMPDEST PUSH1 0x0 PUSH20 0xFFFFFFFFFFFFFFFFFFFFFFFFFFFFFFFFFFFFFFFF DUP3 AND SWAP1 POP SWAP2 SWAP1 POP JUMP JUMPDEST PUSH1 0x0 DUP2 SWAP1 POP SWAP2 SWAP1 POP JUMP JUMPDEST DUP3 DUP2 DUP4 CALLDATACOPY PUSH1 0x0 DUP4 DUP4 ADD MSTORE POP POP POP JUMP JUMPDEST PUSH1 0x0 JUMPDEST DUP4 DUP2 LT ISZERO PUSH2 0xB6A JUMPI DUP1 DUP3 ADD MLOAD DUP2 DUP5 ADD MSTORE PUSH1 0x20 DUP2 ADD SWAP1 POP PUSH2 0xB4F JUMP JUMPDEST DUP4 DUP2 GT ISZERO PUSH2 0xB79 JUMPI PUSH1 0x0 DUP5 DUP5 ADD MSTORE JUMPDEST POP POP POP POP JUMP JUMPDEST PUSH1 0x0 PUSH1 0x2 DUP3 DIV SWAP1 POP PUSH1 0x1 DUP3 AND DUP1 PUSH2 0xB97 JUMPI PUSH1 0x7F DUP3 AND SWAP2 POP JUMPDEST PUSH1 0x20 DUP3 LT DUP2 EQ ISZERO PUSH2 0xBAB JUMPI PUSH2 0xBAA PUSH2 0xC5A JUMP JUMPDEST JUMPDEST POP SWAP2 SWAP1 POP JUMP JUMPDEST PUSH2 0xBBA DUP3 PUSH2 0xCB8 JUMP JUMPDEST DUP2 ADD DUP2 DUP2 LT PUSH8 0xFFFFFFFFFFFFFFFF DUP3 GT OR ISZERO PUSH2 0xBD9 JUMPI PUSH2 0xBD8 PUSH2 0xC89 JUMP JUMPDEST JUMPDEST DUP1 PUSH1 0x40 MSTORE POP POP POP JUMP JUMPDEST PUSH1 0x0 PUSH2 0xBED DUP3 PUSH2 0xB33 JUMP JUMPDEST SWAP2 POP PUSH32 0xFFFFFFFFFFFFFFFFFFFFFFFFFFFFFFFFFFFFFFFFFFFFFFFFFFFFFFFFFFFFFFFF DUP3 EQ ISZERO PUSH2 0xC20 JUMPI PUSH2 0xC1F PUSH2 0xC2B JUMP JUMPDEST JUMPDEST PUSH1 0x1 DUP3 ADD SWAP1 POP SWAP2 SWAP1 POP JUMP JUMPDEST PUSH32 0x4E487B7100000000000000000000000000000000000000000000000000000000 PUSH1 0x0 MSTORE PUSH1 0x11 PUSH1 0x4 MSTORE PUSH1 0x24 PUSH1 0x0 REVERT JUMPDEST PUSH32 0x4E487B7100000000000000000000000000000000000000000000000000000000 PUSH1 0x0 MSTORE PUSH1 0x22 PUSH1 0x4 MSTORE PUSH1 0x24 PUSH1 0x0 REVERT JUMPDEST PUSH32 0x4E487B7100000000000000000000000000000000000000000000000000000000 PUSH1 0x0 MSTORE PUSH1 0x41 PUSH1 0x4 MSTORE PUSH1 0x24 PUSH1 0x0 REVERT JUMPDEST PUSH1 0x0 PUSH1 0x1F NOT PUSH1 0x1F DUP4 ADD AND SWAP1 POP SWAP2 SWAP1 POP JUMP JUMPDEST PUSH2 0xCD2 DUP2 PUSH2 0xB01 JUMP JUMPDEST DUP2 EQ PUSH2 0xCDD JUMPI PUSH1 0x0 DUP1 REVERT JUMPDEST POP JUMP JUMPDEST PUSH2 0xCE9 DUP2 PUSH2 0xB33 JUMP JUMPDEST DUP2 EQ PUSH2 0xCF4 JUMPI PUSH1 0x0 DUP1 REVERT JUMPDEST POP JUMP INVALID LOG2 PUSH5 0x6970667358 0x22 SLT KECCAK256 CALLVALUE LOG3 PUSH15 0x12ACEC47C7B5A8F3F84F6C1DDD513 GASLIMIT DUP16 REVERT 0xE5 0xB0 0xFB CALLDATASIZE PUSH25 0x49D736D6B4D764736F6C634300080400330000000000000000 "
				},
				"gasEstimates": {
					"creation": {
						"codeDepositCost": "674600",
						"executionCost": "infinite",
						"totalCost": "infinite"
					},
					"external": {
						"arrayAppend(uint256,string,string)": "infinite",
						"assignList((uint256,string,string)[])": "infinite",
						"assignNumber(uint256)": "20575",
						"customers(uint256)": "infinite",
						"customersAddress(address,uint256)": "infinite",
						"wallets(address)": "1514"
					}
				},
				"methodIdentifiers": {
					"arrayAppend(uint256,string,string)": "60591cc0",
					"assignList((uint256,string,string)[])": "e7cf5fe7",
					"assignNumber(uint256)": "e52b008f",
					"customers(uint256)": "c0abda2a",
					"customersAddress(address,uint256)": "b45aed86",
					"wallets(address)": "89b08f11"
				}
			},
			"storageLayout": {
				"storage": [
					{
						"astId": 16,
						"contract": "contracts/3_data_structures.sol:DataStructures",
						"label": "customer1",
						"offset": 0,
						"slot": "0",
						"type": "t_struct(Customer)8_storage"
					},
					{
						"astId": 22,
						"contract": "contracts/3_data_structures.sol:DataStructures",
						"label": "ages",
						"offset": 0,
						"slot": "3",
						"type": "t_array(t_uint256)4_storage"
					},
					{
						"astId": 26,
						"contract": "contracts/3_data_structures.sol:DataStructures",
						"label": "customers",
						"offset": 0,
						"slot": "7",
						"type": "t_array(t_struct(Customer)8_storage)dyn_storage"
					},
					{
						"astId": 55,
						"contract": "contracts/3_data_structures.sol:DataStructures",
						"label": "wallets",
						"offset": 0,
						"slot": "8",
						"type": "t_mapping(t_address,t_uint256)"
					},
					{
						"astId": 61,
						"contract": "contracts/3_data_structures.sol:DataStructures",
						"label": "customersAddress",
						"offset": 0,
						"slot": "9",
						"type": "t_mapping(t_address,t_array(t_struct(Customer)8_storage)dyn_storage)"
					}
				],
				"types": {
					"t_address": {
						"encoding": "inplace",
						"label": "address",
						"numberOfBytes": "20"
					},
					"t_array(t_struct(Customer)8_storage)dyn_storage": {
						"base": "t_struct(Customer)8_storage",
						"encoding": "dynamic_array",
						"label": "struct DataStructures.Customer[]",
						"numberOfBytes": "32"
					},
					"t_array(t_uint256)4_storage": {
						"base": "t_uint256",
						"encoding": "inplace",
						"label": "uint256[4]",
						"numberOfBytes": "128"
					},
					"t_mapping(t_address,t_array(t_struct(Customer)8_storage)dyn_storage)": {
						"encoding": "mapping",
						"key": "t_address",
						"label": "mapping(address => struct DataStructures.Customer[])",
						"numberOfBytes": "32",
						"value": "t_array(t_struct(Customer)8_storage)dyn_storage"
					},
					"t_mapping(t_address,t_uint256)": {
						"encoding": "mapping",
						"key": "t_address",
						"label": "mapping(address => uint256)",
						"numberOfBytes": "32",
						"value": "t_uint256"
					},
					"t_string_storage": {
						"encoding": "bytes",
						"label": "string",
						"numberOfBytes": "32"
					},
					"t_struct(Customer)8_storage": {
						"encoding": "inplace",
						"label": "struct DataStructures.Customer",
						"members": [
							{
								"astId": 3,
								"contract": "contracts/3_data_structures.sol:DataStructures",
								"label": "id",
								"offset": 0,
								"slot": "0",
								"type": "t_uint256"
							},
							{
								"astId": 5,
								"contract": "contracts/3_data_structures.sol:DataStructures",
								"label": "name",
								"offset": 0,
								"slot": "1",
								"type": "t_string_storage"
							},
							{
								"astId": 7,
								"contract": "contracts/3_data_structures.sol:DataStructures",
								"label": "email",
								"offset": 0,
								"slot": "2",
								"type": "t_string_storage"
							}
						],
						"numberOfBytes": "96"
					},
					"t_uint256": {
						"encoding": "inplace",
						"label": "uint256",
						"numberOfBytes": "32"
					}
				}
			},
			"userdoc": {
				"kind": "user",
				"methods": {},
				"version": 1
			}
		}
	}
}