{
	"contracts/2_variable_modifiers.sol": {
		"VariableModifiers": {
			"abi": [
				{
					"inputs": [],
					"name": "c",
					"outputs": [
						{
							"internalType": "uint16",
							"name": "",
							"type": "uint16"
						}
					],
					"stateMutability": "view",
					"type": "function"
				},
				{
					"inputs": [],
					"name": "e",
					"outputs": [
						{
							"internalType": "int32",
							"name": "",
							"type": "int32"
						}
					],
					"stateMutability": "view",
					"type": "function"
				},
				{
					"inputs": [],
					"name": "pl",
					"outputs": [
						{
							"internalType": "string",
							"name": "",
							"type": "string"
						}
					],
					"stateMutability": "view",
					"type": "function"
				}
			],
			"devdoc": {
				"kind": "dev",
				"methods": {},
				"version": 1
			},
			"evm": {
				"assembly": "    /* \"contracts/2_variable_modifiers.sol\":69:369  contract VariableModifiers {... */\n  mstore(0x40, 0x80)\n    /* \"contracts/2_variable_modifiers.sol\":167:170  255 */\n  0xff\n    /* \"contracts/2_variable_modifiers.sol\":157:170  uint8 b = 255 */\n  0x01\n  exp(0x0100, 0x00)\n  dup2\n  sload\n  dup2\n  0xff\n  mul\n  not\n  and\n  swap1\n  dup4\n  0xff\n  and\n  mul\n  or\n  swap1\n  sstore\n  pop\n    /* \"contracts/2_variable_modifiers.sol\":194:197  811 */\n  0x032b\n    /* \"contracts/2_variable_modifiers.sol\":176:197  uint16 public c = 811 */\n  0x01\n  dup1\n  0x0100\n  exp\n  dup2\n  sload\n  dup2\n  0xffff\n  mul\n  not\n  and\n  swap1\n  dup4\n  0xffff\n  and\n  mul\n  or\n  swap1\n  sstore\n  pop\n    /* \"contracts/2_variable_modifiers.sol\":250:254  -255 */\n  0xffffffffffffffffffffffffffffffffffffffffffffffffffffffffffffff01\n    /* \"contracts/2_variable_modifiers.sol\":242:254  int d = -255 */\n  0x02\n  sstore\n    /* \"contracts/2_variable_modifiers.sol\":277:281  -255 */\n  0xffffffffffffffffffffffffffffffffffffffffffffffffffffffffffffff01\n    /* \"contracts/2_variable_modifiers.sol\":260:281  int32 public e = -255 */\n  0x03\n  exp(0x0100, 0x00)\n  dup2\n  sload\n  dup2\n  0xffffffff\n  mul\n  not\n  and\n  swap1\n  dup4\n  0x03\n  signextend\n  0xffffffff\n  and\n  mul\n  or\n  swap1\n  sstore\n  pop\n    /* \"contracts/2_variable_modifiers.sol\":309:332  string name = \"Roberto\" */\n  mload(0x40)\n  dup1\n  0x40\n  add\n  0x40\n  mstore\n  dup1\n  0x07\n  dup2\n  mstore\n  0x20\n  add\n  0x526f626572746f00000000000000000000000000000000000000000000000000\n  dup2\n  mstore\n  pop\n  0x04\n  swap1\n  dup1\n  mload\n  swap1\n  0x20\n  add\n  swap1\n  tag_1\n  swap3\n  swap2\n  swap1\n  tag_2\n  jump\t// in\ntag_1:\n  pop\n    /* \"contracts/2_variable_modifiers.sol\":338:366  string public pl = \"Solidiy\" */\n  mload(0x40)\n  dup1\n  0x40\n  add\n  0x40\n  mstore\n  dup1\n  0x07\n  dup2\n  mstore\n  0x20\n  add\n  0x536f6c6964697900000000000000000000000000000000000000000000000000\n  dup2\n  mstore\n  pop\n  0x05\n  swap1\n  dup1\n  mload\n  swap1\n  0x20\n  add\n  swap1\n  tag_3\n  swap3\n  swap2\n  swap1\n  tag_2\n  jump\t// in\ntag_3:\n  pop\n    /* \"contracts/2_variable_modifiers.sol\":69:369  contract VariableModifiers {... */\n  callvalue\n  dup1\n  iszero\n  tag_4\n  jumpi\n  0x00\n  dup1\n  revert\ntag_4:\n  pop\n  jump(tag_5)\ntag_2:\n  dup3\n  dup1\n  sload\n  tag_6\n  swap1\n  tag_7\n  jump\t// in\ntag_6:\n  swap1\n  0x00\n  mstore\n  keccak256(0x00, 0x20)\n  swap1\n  0x1f\n  add\n  0x20\n  swap1\n  div\n  dup2\n  add\n  swap3\n  dup3\n  tag_9\n  jumpi\n  0x00\n  dup6\n  sstore\n  jump(tag_8)\ntag_9:\n  dup3\n  0x1f\n  lt\n  tag_10\n  jumpi\n  dup1\n  mload\n  not(0xff)\n  and\n  dup4\n  dup1\n  add\n  or\n  dup6\n  sstore\n  jump(tag_8)\ntag_10:\n  dup3\n  dup1\n  add\n  0x01\n  add\n  dup6\n  sstore\n  dup3\n  iszero\n  tag_8\n  jumpi\n  swap2\n  dup3\n  add\ntag_11:\n  dup3\n  dup2\n  gt\n  iszero\n  tag_12\n  jumpi\n  dup3\n  mload\n  dup3\n  sstore\n  swap2\n  0x20\n  add\n  swap2\n  swap1\n  0x01\n  add\n  swap1\n  jump(tag_11)\ntag_12:\ntag_8:\n  pop\n  swap1\n  pop\n  tag_13\n  swap2\n  swap1\n  tag_14\n  jump\t// in\ntag_13:\n  pop\n  swap1\n  jump\t// out\ntag_14:\ntag_15:\n  dup1\n  dup3\n  gt\n  iszero\n  tag_16\n  jumpi\n  0x00\n  dup2\n  0x00\n  swap1\n  sstore\n  pop\n  0x01\n  add\n  jump(tag_15)\ntag_16:\n  pop\n  swap1\n  jump\t// out\n    /* \"#utility.yul\":7:327   */\ntag_7:\n    /* \"#utility.yul\":51:57   */\n  0x00\n    /* \"#utility.yul\":88:89   */\n  0x02\n    /* \"#utility.yul\":82:86   */\n  dup3\n    /* \"#utility.yul\":78:90   */\n  div\n    /* \"#utility.yul\":68:90   */\n  swap1\n  pop\n    /* \"#utility.yul\":135:136   */\n  0x01\n    /* \"#utility.yul\":129:133   */\n  dup3\n    /* \"#utility.yul\":125:137   */\n  and\n    /* \"#utility.yul\":156:174   */\n  dup1\n    /* \"#utility.yul\":146:148   */\n  tag_19\n  jumpi\n    /* \"#utility.yul\":212:216   */\n  0x7f\n    /* \"#utility.yul\":204:210   */\n  dup3\n    /* \"#utility.yul\":200:217   */\n  and\n    /* \"#utility.yul\":190:217   */\n  swap2\n  pop\n    /* \"#utility.yul\":146:148   */\ntag_19:\n    /* \"#utility.yul\":274:276   */\n  0x20\n    /* \"#utility.yul\":266:272   */\n  dup3\n    /* \"#utility.yul\":263:277   */\n  lt\n    /* \"#utility.yul\":243:261   */\n  dup2\n    /* \"#utility.yul\":240:278   */\n  eq\n    /* \"#utility.yul\":237:239   */\n  iszero\n  tag_20\n  jumpi\n    /* \"#utility.yul\":293:311   */\n  tag_21\n  tag_22\n  jump\t// in\ntag_21:\n    /* \"#utility.yul\":237:239   */\ntag_20:\n    /* \"#utility.yul\":58:327   */\n  pop\n  swap2\n  swap1\n  pop\n  jump\t// out\n    /* \"#utility.yul\":333:513   */\ntag_22:\n    /* \"#utility.yul\":381:458   */\n  0x4e487b7100000000000000000000000000000000000000000000000000000000\n    /* \"#utility.yul\":378:379   */\n  0x00\n    /* \"#utility.yul\":371:459   */\n  mstore\n    /* \"#utility.yul\":478:482   */\n  0x22\n    /* \"#utility.yul\":475:476   */\n  0x04\n    /* \"#utility.yul\":468:483   */\n  mstore\n    /* \"#utility.yul\":502:506   */\n  0x24\n    /* \"#utility.yul\":499:500   */\n  0x00\n    /* \"#utility.yul\":492:507   */\n  revert\n    /* \"contracts/2_variable_modifiers.sol\":69:369  contract VariableModifiers {... */\ntag_5:\n  dataSize(sub_0)\n  dup1\n  dataOffset(sub_0)\n  0x00\n  codecopy\n  0x00\n  return\nstop\n\nsub_0: assembly {\n        /* \"contracts/2_variable_modifiers.sol\":69:369  contract VariableModifiers {... */\n      mstore(0x40, 0x80)\n      callvalue\n      dup1\n      iszero\n      tag_1\n      jumpi\n      0x00\n      dup1\n      revert\n    tag_1:\n      pop\n      jumpi(tag_2, lt(calldatasize, 0x04))\n      shr(0xe0, calldataload(0x00))\n      dup1\n      0x90e1437c\n      eq\n      tag_3\n      jumpi\n      dup1\n      0xc3da42b8\n      eq\n      tag_4\n      jumpi\n      dup1\n      0xffae15ba\n      eq\n      tag_5\n      jumpi\n    tag_2:\n      0x00\n      dup1\n      revert\n        /* \"contracts/2_variable_modifiers.sol\":338:366  string public pl = \"Solidiy\" */\n    tag_3:\n      tag_6\n      tag_7\n      jump\t// in\n    tag_6:\n      mload(0x40)\n      tag_8\n      swap2\n      swap1\n      tag_9\n      jump\t// in\n    tag_8:\n      mload(0x40)\n      dup1\n      swap2\n      sub\n      swap1\n      return\n        /* \"contracts/2_variable_modifiers.sol\":176:197  uint16 public c = 811 */\n    tag_4:\n      tag_10\n      tag_11\n      jump\t// in\n    tag_10:\n      mload(0x40)\n      tag_12\n      swap2\n      swap1\n      tag_13\n      jump\t// in\n    tag_12:\n      mload(0x40)\n      dup1\n      swap2\n      sub\n      swap1\n      return\n        /* \"contracts/2_variable_modifiers.sol\":260:281  int32 public e = -255 */\n    tag_5:\n      tag_14\n      tag_15\n      jump\t// in\n    tag_14:\n      mload(0x40)\n      tag_16\n      swap2\n      swap1\n      tag_17\n      jump\t// in\n    tag_16:\n      mload(0x40)\n      dup1\n      swap2\n      sub\n      swap1\n      return\n        /* \"contracts/2_variable_modifiers.sol\":338:366  string public pl = \"Solidiy\" */\n    tag_7:\n      0x05\n      dup1\n      sload\n      tag_18\n      swap1\n      tag_19\n      jump\t// in\n    tag_18:\n      dup1\n      0x1f\n      add\n      0x20\n      dup1\n      swap2\n      div\n      mul\n      0x20\n      add\n      mload(0x40)\n      swap1\n      dup2\n      add\n      0x40\n      mstore\n      dup1\n      swap3\n      swap2\n      swap1\n      dup2\n      dup2\n      mstore\n      0x20\n      add\n      dup3\n      dup1\n      sload\n      tag_20\n      swap1\n      tag_19\n      jump\t// in\n    tag_20:\n      dup1\n      iszero\n      tag_21\n      jumpi\n      dup1\n      0x1f\n      lt\n      tag_22\n      jumpi\n      0x0100\n      dup1\n      dup4\n      sload\n      div\n      mul\n      dup4\n      mstore\n      swap2\n      0x20\n      add\n      swap2\n      jump(tag_21)\n    tag_22:\n      dup3\n      add\n      swap2\n      swap1\n      0x00\n      mstore\n      keccak256(0x00, 0x20)\n      swap1\n    tag_23:\n      dup2\n      sload\n      dup2\n      mstore\n      swap1\n      0x01\n      add\n      swap1\n      0x20\n      add\n      dup1\n      dup4\n      gt\n      tag_23\n      jumpi\n      dup3\n      swap1\n      sub\n      0x1f\n      and\n      dup3\n      add\n      swap2\n    tag_21:\n      pop\n      pop\n      pop\n      pop\n      pop\n      dup2\n      jump\t// out\n        /* \"contracts/2_variable_modifiers.sol\":176:197  uint16 public c = 811 */\n    tag_11:\n      0x01\n      dup1\n      sload\n      swap1\n      0x0100\n      exp\n      swap1\n      div\n      0xffff\n      and\n      dup2\n      jump\t// out\n        /* \"contracts/2_variable_modifiers.sol\":260:281  int32 public e = -255 */\n    tag_15:\n      0x03\n      0x00\n      swap1\n      sload\n      swap1\n      0x0100\n      exp\n      swap1\n      div\n      0x03\n      signextend\n      dup2\n      jump\t// out\n        /* \"#utility.yul\":7:119   */\n    tag_25:\n        /* \"#utility.yul\":90:112   */\n      tag_27\n        /* \"#utility.yul\":106:111   */\n      dup2\n        /* \"#utility.yul\":90:112   */\n      tag_28\n      jump\t// in\n    tag_27:\n        /* \"#utility.yul\":85:88   */\n      dup3\n        /* \"#utility.yul\":78:113   */\n      mstore\n        /* \"#utility.yul\":68:119   */\n      pop\n      pop\n      jump\t// out\n        /* \"#utility.yul\":125:489   */\n    tag_29:\n        /* \"#utility.yul\":213:216   */\n      0x00\n        /* \"#utility.yul\":241:280   */\n      tag_31\n        /* \"#utility.yul\":274:279   */\n      dup3\n        /* \"#utility.yul\":241:280   */\n      tag_32\n      jump\t// in\n    tag_31:\n        /* \"#utility.yul\":296:367   */\n      tag_33\n        /* \"#utility.yul\":360:366   */\n      dup2\n        /* \"#utility.yul\":355:358   */\n      dup6\n        /* \"#utility.yul\":296:367   */\n      tag_34\n      jump\t// in\n    tag_33:\n        /* \"#utility.yul\":289:367   */\n      swap4\n      pop\n        /* \"#utility.yul\":376:428   */\n      tag_35\n        /* \"#utility.yul\":421:427   */\n      dup2\n        /* \"#utility.yul\":416:419   */\n      dup6\n        /* \"#utility.yul\":409:413   */\n      0x20\n        /* \"#utility.yul\":402:407   */\n      dup7\n        /* \"#utility.yul\":398:414   */\n      add\n        /* \"#utility.yul\":376:428   */\n      tag_36\n      jump\t// in\n    tag_35:\n        /* \"#utility.yul\":453:482   */\n      tag_37\n        /* \"#utility.yul\":475:481   */\n      dup2\n        /* \"#utility.yul\":453:482   */\n      tag_38\n      jump\t// in\n    tag_37:\n        /* \"#utility.yul\":448:451   */\n      dup5\n        /* \"#utility.yul\":444:483   */\n      add\n        /* \"#utility.yul\":437:483   */\n      swap2\n      pop\n        /* \"#utility.yul\":217:489   */\n      pop\n      swap3\n      swap2\n      pop\n      pop\n      jump\t// out\n        /* \"#utility.yul\":495:610   */\n    tag_39:\n        /* \"#utility.yul\":580:603   */\n      tag_41\n        /* \"#utility.yul\":597:602   */\n      dup2\n        /* \"#utility.yul\":580:603   */\n      tag_42\n      jump\t// in\n    tag_41:\n        /* \"#utility.yul\":575:578   */\n      dup3\n        /* \"#utility.yul\":568:604   */\n      mstore\n        /* \"#utility.yul\":558:610   */\n      pop\n      pop\n      jump\t// out\n        /* \"#utility.yul\":616:830   */\n    tag_17:\n        /* \"#utility.yul\":705:709   */\n      0x00\n        /* \"#utility.yul\":743:745   */\n      0x20\n        /* \"#utility.yul\":732:741   */\n      dup3\n        /* \"#utility.yul\":728:746   */\n      add\n        /* \"#utility.yul\":720:746   */\n      swap1\n      pop\n        /* \"#utility.yul\":756:823   */\n      tag_44\n        /* \"#utility.yul\":820:821   */\n      0x00\n        /* \"#utility.yul\":809:818   */\n      dup4\n        /* \"#utility.yul\":805:822   */\n      add\n        /* \"#utility.yul\":796:802   */\n      dup5\n        /* \"#utility.yul\":756:823   */\n      tag_25\n      jump\t// in\n    tag_44:\n        /* \"#utility.yul\":710:830   */\n      swap3\n      swap2\n      pop\n      pop\n      jump\t// out\n        /* \"#utility.yul\":836:1149   */\n    tag_9:\n        /* \"#utility.yul\":949:953   */\n      0x00\n        /* \"#utility.yul\":987:989   */\n      0x20\n        /* \"#utility.yul\":976:985   */\n      dup3\n        /* \"#utility.yul\":972:990   */\n      add\n        /* \"#utility.yul\":964:990   */\n      swap1\n      pop\n        /* \"#utility.yul\":1036:1045   */\n      dup2\n        /* \"#utility.yul\":1030:1034   */\n      dup2\n        /* \"#utility.yul\":1026:1046   */\n      sub\n        /* \"#utility.yul\":1022:1023   */\n      0x00\n        /* \"#utility.yul\":1011:1020   */\n      dup4\n        /* \"#utility.yul\":1007:1024   */\n      add\n        /* \"#utility.yul\":1000:1047   */\n      mstore\n        /* \"#utility.yul\":1064:1142   */\n      tag_46\n        /* \"#utility.yul\":1137:1141   */\n      dup2\n        /* \"#utility.yul\":1128:1134   */\n      dup5\n        /* \"#utility.yul\":1064:1142   */\n      tag_29\n      jump\t// in\n    tag_46:\n        /* \"#utility.yul\":1056:1142   */\n      swap1\n      pop\n        /* \"#utility.yul\":954:1149   */\n      swap3\n      swap2\n      pop\n      pop\n      jump\t// out\n        /* \"#utility.yul\":1155:1373   */\n    tag_13:\n        /* \"#utility.yul\":1246:1250   */\n      0x00\n        /* \"#utility.yul\":1284:1286   */\n      0x20\n        /* \"#utility.yul\":1273:1282   */\n      dup3\n        /* \"#utility.yul\":1269:1287   */\n      add\n        /* \"#utility.yul\":1261:1287   */\n      swap1\n      pop\n        /* \"#utility.yul\":1297:1366   */\n      tag_48\n        /* \"#utility.yul\":1363:1364   */\n      0x00\n        /* \"#utility.yul\":1352:1361   */\n      dup4\n        /* \"#utility.yul\":1348:1365   */\n      add\n        /* \"#utility.yul\":1339:1345   */\n      dup5\n        /* \"#utility.yul\":1297:1366   */\n      tag_39\n      jump\t// in\n    tag_48:\n        /* \"#utility.yul\":1251:1373   */\n      swap3\n      swap2\n      pop\n      pop\n      jump\t// out\n        /* \"#utility.yul\":1379:1478   */\n    tag_32:\n        /* \"#utility.yul\":1431:1437   */\n      0x00\n        /* \"#utility.yul\":1465:1470   */\n      dup2\n        /* \"#utility.yul\":1459:1471   */\n      mload\n        /* \"#utility.yul\":1449:1471   */\n      swap1\n      pop\n        /* \"#utility.yul\":1438:1478   */\n      swap2\n      swap1\n      pop\n      jump\t// out\n        /* \"#utility.yul\":1484:1653   */\n    tag_34:\n        /* \"#utility.yul\":1568:1579   */\n      0x00\n        /* \"#utility.yul\":1602:1608   */\n      dup3\n        /* \"#utility.yul\":1597:1600   */\n      dup3\n        /* \"#utility.yul\":1590:1609   */\n      mstore\n        /* \"#utility.yul\":1642:1646   */\n      0x20\n        /* \"#utility.yul\":1637:1640   */\n      dup3\n        /* \"#utility.yul\":1633:1647   */\n      add\n        /* \"#utility.yul\":1618:1647   */\n      swap1\n      pop\n        /* \"#utility.yul\":1580:1653   */\n      swap3\n      swap2\n      pop\n      pop\n      jump\t// out\n        /* \"#utility.yul\":1659:1749   */\n    tag_28:\n        /* \"#utility.yul\":1694:1701   */\n      0x00\n        /* \"#utility.yul\":1737:1742   */\n      dup2\n        /* \"#utility.yul\":1734:1735   */\n      0x03\n        /* \"#utility.yul\":1723:1743   */\n      signextend\n        /* \"#utility.yul\":1712:1743   */\n      swap1\n      pop\n        /* \"#utility.yul\":1702:1749   */\n      swap2\n      swap1\n      pop\n      jump\t// out\n        /* \"#utility.yul\":1755:1844   */\n    tag_42:\n        /* \"#utility.yul\":1791:1798   */\n      0x00\n        /* \"#utility.yul\":1831:1837   */\n      0xffff\n        /* \"#utility.yul\":1824:1829   */\n      dup3\n        /* \"#utility.yul\":1820:1838   */\n      and\n        /* \"#utility.yul\":1809:1838   */\n      swap1\n      pop\n        /* \"#utility.yul\":1799:1844   */\n      swap2\n      swap1\n      pop\n      jump\t// out\n        /* \"#utility.yul\":1850:2157   */\n    tag_36:\n        /* \"#utility.yul\":1918:1919   */\n      0x00\n        /* \"#utility.yul\":1928:2041   */\n    tag_54:\n        /* \"#utility.yul\":1942:1948   */\n      dup4\n        /* \"#utility.yul\":1939:1940   */\n      dup2\n        /* \"#utility.yul\":1936:1949   */\n      lt\n        /* \"#utility.yul\":1928:2041   */\n      iszero\n      tag_56\n      jumpi\n        /* \"#utility.yul\":2027:2028   */\n      dup1\n        /* \"#utility.yul\":2022:2025   */\n      dup3\n        /* \"#utility.yul\":2018:2029   */\n      add\n        /* \"#utility.yul\":2012:2030   */\n      mload\n        /* \"#utility.yul\":2008:2009   */\n      dup2\n        /* \"#utility.yul\":2003:2006   */\n      dup5\n        /* \"#utility.yul\":1999:2010   */\n      add\n        /* \"#utility.yul\":1992:2031   */\n      mstore\n        /* \"#utility.yul\":1964:1966   */\n      0x20\n        /* \"#utility.yul\":1961:1962   */\n      dup2\n        /* \"#utility.yul\":1957:1967   */\n      add\n        /* \"#utility.yul\":1952:1967   */\n      swap1\n      pop\n        /* \"#utility.yul\":1928:2041   */\n      jump(tag_54)\n    tag_56:\n        /* \"#utility.yul\":2059:2065   */\n      dup4\n        /* \"#utility.yul\":2056:2057   */\n      dup2\n        /* \"#utility.yul\":2053:2066   */\n      gt\n        /* \"#utility.yul\":2050:2052   */\n      iszero\n      tag_57\n      jumpi\n        /* \"#utility.yul\":2139:2140   */\n      0x00\n        /* \"#utility.yul\":2130:2136   */\n      dup5\n        /* \"#utility.yul\":2125:2128   */\n      dup5\n        /* \"#utility.yul\":2121:2137   */\n      add\n        /* \"#utility.yul\":2114:2141   */\n      mstore\n        /* \"#utility.yul\":2050:2052   */\n    tag_57:\n        /* \"#utility.yul\":1899:2157   */\n      pop\n      pop\n      pop\n      pop\n      jump\t// out\n        /* \"#utility.yul\":2163:2483   */\n    tag_19:\n        /* \"#utility.yul\":2207:2213   */\n      0x00\n        /* \"#utility.yul\":2244:2245   */\n      0x02\n        /* \"#utility.yul\":2238:2242   */\n      dup3\n        /* \"#utility.yul\":2234:2246   */\n      div\n        /* \"#utility.yul\":2224:2246   */\n      swap1\n      pop\n        /* \"#utility.yul\":2291:2292   */\n      0x01\n        /* \"#utility.yul\":2285:2289   */\n      dup3\n        /* \"#utility.yul\":2281:2293   */\n      and\n        /* \"#utility.yul\":2312:2330   */\n      dup1\n        /* \"#utility.yul\":2302:2304   */\n      tag_59\n      jumpi\n        /* \"#utility.yul\":2368:2372   */\n      0x7f\n        /* \"#utility.yul\":2360:2366   */\n      dup3\n        /* \"#utility.yul\":2356:2373   */\n      and\n        /* \"#utility.yul\":2346:2373   */\n      swap2\n      pop\n        /* \"#utility.yul\":2302:2304   */\n    tag_59:\n        /* \"#utility.yul\":2430:2432   */\n      0x20\n        /* \"#utility.yul\":2422:2428   */\n      dup3\n        /* \"#utility.yul\":2419:2433   */\n      lt\n        /* \"#utility.yul\":2399:2417   */\n      dup2\n        /* \"#utility.yul\":2396:2434   */\n      eq\n        /* \"#utility.yul\":2393:2395   */\n      iszero\n      tag_60\n      jumpi\n        /* \"#utility.yul\":2449:2467   */\n      tag_61\n      tag_62\n      jump\t// in\n    tag_61:\n        /* \"#utility.yul\":2393:2395   */\n    tag_60:\n        /* \"#utility.yul\":2214:2483   */\n      pop\n      swap2\n      swap1\n      pop\n      jump\t// out\n        /* \"#utility.yul\":2489:2669   */\n    tag_62:\n        /* \"#utility.yul\":2537:2614   */\n      0x4e487b7100000000000000000000000000000000000000000000000000000000\n        /* \"#utility.yul\":2534:2535   */\n      0x00\n        /* \"#utility.yul\":2527:2615   */\n      mstore\n        /* \"#utility.yul\":2634:2638   */\n      0x22\n        /* \"#utility.yul\":2631:2632   */\n      0x04\n        /* \"#utility.yul\":2624:2639   */\n      mstore\n        /* \"#utility.yul\":2658:2662   */\n      0x24\n        /* \"#utility.yul\":2655:2656   */\n      0x00\n        /* \"#utility.yul\":2648:2663   */\n      revert\n        /* \"#utility.yul\":2675:2777   */\n    tag_38:\n        /* \"#utility.yul\":2716:2722   */\n      0x00\n        /* \"#utility.yul\":2767:2769   */\n      0x1f\n        /* \"#utility.yul\":2763:2770   */\n      not\n        /* \"#utility.yul\":2758:2760   */\n      0x1f\n        /* \"#utility.yul\":2751:2756   */\n      dup4\n        /* \"#utility.yul\":2747:2761   */\n      add\n        /* \"#utility.yul\":2743:2771   */\n      and\n        /* \"#utility.yul\":2733:2771   */\n      swap1\n      pop\n        /* \"#utility.yul\":2723:2777   */\n      swap2\n      swap1\n      pop\n      jump\t// out\n\n    auxdata: 0xa26469706673582212205e22ae6c1d0a394abec8e862a35abab27853e0c244439bf524662cf358a5dcbb64736f6c63430008050033\n}\n",
				"bytecode": {
					"linkReferences": {},
					"object": "608060405260ff600160006101000a81548160ff021916908360ff16021790555061032b6001806101000a81548161ffff021916908361ffff1602179055507fffffffffffffffffffffffffffffffffffffffffffffffffffffffffffffff016002557fffffffffffffffffffffffffffffffffffffffffffffffffffffffffffffff01600360006101000a81548163ffffffff021916908360030b63ffffffff1602179055506040518060400160405280600781526020017f526f626572746f00000000000000000000000000000000000000000000000000815250600490805190602001906100f1929190610150565b506040518060400160405280600781526020017f536f6c69646979000000000000000000000000000000000000000000000000008152506005908051906020019061013d929190610150565b5034801561014a57600080fd5b50610254565b82805461015c906101f3565b90600052602060002090601f01602090048101928261017e57600085556101c5565b82601f1061019757805160ff19168380011785556101c5565b828001600101855582156101c5579182015b828111156101c45782518255916020019190600101906101a9565b5b5090506101d291906101d6565b5090565b5b808211156101ef5760008160009055506001016101d7565b5090565b6000600282049050600182168061020b57607f821691505b6020821081141561021f5761021e610225565b5b50919050565b7f4e487b7100000000000000000000000000000000000000000000000000000000600052602260045260246000fd5b610314806102636000396000f3fe608060405234801561001057600080fd5b50600436106100415760003560e01c806390e1437c14610046578063c3da42b814610064578063ffae15ba14610082575b600080fd5b61004e6100a0565b60405161005b91906101c5565b60405180910390f35b61006c61012e565b60405161007991906101e7565b60405180910390f35b61008a610140565b60405161009791906101aa565b60405180910390f35b600580546100ad9061026c565b80601f01602080910402602001604051908101604052809291908181526020018280546100d99061026c565b80156101265780601f106100fb57610100808354040283529160200191610126565b820191906000526020600020905b81548152906001019060200180831161010957829003601f168201915b505050505081565b60018054906101000a900461ffff1681565b600360009054906101000a900460030b81565b61015c8161021e565b82525050565b600061016d82610202565b610177818561020d565b9350610187818560208601610239565b610190816102cd565b840191505092915050565b6101a48161022b565b82525050565b60006020820190506101bf6000830184610153565b92915050565b600060208201905081810360008301526101df8184610162565b905092915050565b60006020820190506101fc600083018461019b565b92915050565b600081519050919050565b600082825260208201905092915050565b60008160030b9050919050565b600061ffff82169050919050565b60005b8381101561025757808201518184015260208101905061023c565b83811115610266576000848401525b50505050565b6000600282049050600182168061028457607f821691505b602082108114156102985761029761029e565b5b50919050565b7f4e487b7100000000000000000000000000000000000000000000000000000000600052602260045260246000fd5b6000601f19601f830116905091905056fea26469706673582212205e22ae6c1d0a394abec8e862a35abab27853e0c244439bf524662cf358a5dcbb64736f6c63430008050033",
					"opcodes": "PUSH1 0x80 PUSH1 0x40 MSTORE PUSH1 0xFF PUSH1 0x1 PUSH1 0x0 PUSH2 0x100 EXP DUP2 SLOAD DUP2 PUSH1 0xFF MUL NOT AND SWAP1 DUP4 PUSH1 0xFF AND MUL OR SWAP1 SSTORE POP PUSH2 0x32B PUSH1 0x1 DUP1 PUSH2 0x100 EXP DUP2 SLOAD DUP2 PUSH2 0xFFFF MUL NOT AND SWAP1 DUP4 PUSH2 0xFFFF AND MUL OR SWAP1 SSTORE POP PUSH32 0xFFFFFFFFFFFFFFFFFFFFFFFFFFFFFFFFFFFFFFFFFFFFFFFFFFFFFFFFFFFFFF01 PUSH1 0x2 SSTORE PUSH32 0xFFFFFFFFFFFFFFFFFFFFFFFFFFFFFFFFFFFFFFFFFFFFFFFFFFFFFFFFFFFFFF01 PUSH1 0x3 PUSH1 0x0 PUSH2 0x100 EXP DUP2 SLOAD DUP2 PUSH4 0xFFFFFFFF MUL NOT AND SWAP1 DUP4 PUSH1 0x3 SIGNEXTEND PUSH4 0xFFFFFFFF AND MUL OR SWAP1 SSTORE POP PUSH1 0x40 MLOAD DUP1 PUSH1 0x40 ADD PUSH1 0x40 MSTORE DUP1 PUSH1 0x7 DUP2 MSTORE PUSH1 0x20 ADD PUSH32 0x526F626572746F00000000000000000000000000000000000000000000000000 DUP2 MSTORE POP PUSH1 0x4 SWAP1 DUP1 MLOAD SWAP1 PUSH1 0x20 ADD SWAP1 PUSH2 0xF1 SWAP3 SWAP2 SWAP1 PUSH2 0x150 JUMP JUMPDEST POP PUSH1 0x40 MLOAD DUP1 PUSH1 0x40 ADD PUSH1 0x40 MSTORE DUP1 PUSH1 0x7 DUP2 MSTORE PUSH1 0x20 ADD PUSH32 0x536F6C6964697900000000000000000000000000000000000000000000000000 DUP2 MSTORE POP PUSH1 0x5 SWAP1 DUP1 MLOAD SWAP1 PUSH1 0x20 ADD SWAP1 PUSH2 0x13D SWAP3 SWAP2 SWAP1 PUSH2 0x150 JUMP JUMPDEST POP CALLVALUE DUP1 ISZERO PUSH2 0x14A JUMPI PUSH1 0x0 DUP1 REVERT JUMPDEST POP PUSH2 0x254 JUMP JUMPDEST DUP3 DUP1 SLOAD PUSH2 0x15C SWAP1 PUSH2 0x1F3 JUMP JUMPDEST SWAP1 PUSH1 0x0 MSTORE PUSH1 0x20 PUSH1 0x0 KECCAK256 SWAP1 PUSH1 0x1F ADD PUSH1 0x20 SWAP1 DIV DUP2 ADD SWAP3 DUP3 PUSH2 0x17E JUMPI PUSH1 0x0 DUP6 SSTORE PUSH2 0x1C5 JUMP JUMPDEST DUP3 PUSH1 0x1F LT PUSH2 0x197 JUMPI DUP1 MLOAD PUSH1 0xFF NOT AND DUP4 DUP1 ADD OR DUP6 SSTORE PUSH2 0x1C5 JUMP JUMPDEST DUP3 DUP1 ADD PUSH1 0x1 ADD DUP6 SSTORE DUP3 ISZERO PUSH2 0x1C5 JUMPI SWAP2 DUP3 ADD JUMPDEST DUP3 DUP2 GT ISZERO PUSH2 0x1C4 JUMPI DUP3 MLOAD DUP3 SSTORE SWAP2 PUSH1 0x20 ADD SWAP2 SWAP1 PUSH1 0x1 ADD SWAP1 PUSH2 0x1A9 JUMP JUMPDEST JUMPDEST POP SWAP1 POP PUSH2 0x1D2 SWAP2 SWAP1 PUSH2 0x1D6 JUMP JUMPDEST POP SWAP1 JUMP JUMPDEST JUMPDEST DUP1 DUP3 GT ISZERO PUSH2 0x1EF JUMPI PUSH1 0x0 DUP2 PUSH1 0x0 SWAP1 SSTORE POP PUSH1 0x1 ADD PUSH2 0x1D7 JUMP JUMPDEST POP SWAP1 JUMP JUMPDEST PUSH1 0x0 PUSH1 0x2 DUP3 DIV SWAP1 POP PUSH1 0x1 DUP3 AND DUP1 PUSH2 0x20B JUMPI PUSH1 0x7F DUP3 AND SWAP2 POP JUMPDEST PUSH1 0x20 DUP3 LT DUP2 EQ ISZERO PUSH2 0x21F JUMPI PUSH2 0x21E PUSH2 0x225 JUMP JUMPDEST JUMPDEST POP SWAP2 SWAP1 POP JUMP JUMPDEST PUSH32 0x4E487B7100000000000000000000000000000000000000000000000000000000 PUSH1 0x0 MSTORE PUSH1 0x22 PUSH1 0x4 MSTORE PUSH1 0x24 PUSH1 0x0 REVERT JUMPDEST PUSH2 0x314 DUP1 PUSH2 0x263 PUSH1 0x0 CODECOPY PUSH1 0x0 RETURN INVALID PUSH1 0x80 PUSH1 0x40 MSTORE CALLVALUE DUP1 ISZERO PUSH2 0x10 JUMPI PUSH1 0x0 DUP1 REVERT JUMPDEST POP PUSH1 0x4 CALLDATASIZE LT PUSH2 0x41 JUMPI PUSH1 0x0 CALLDATALOAD PUSH1 0xE0 SHR DUP1 PUSH4 0x90E1437C EQ PUSH2 0x46 JUMPI DUP1 PUSH4 0xC3DA42B8 EQ PUSH2 0x64 JUMPI DUP1 PUSH4 0xFFAE15BA EQ PUSH2 0x82 JUMPI JUMPDEST PUSH1 0x0 DUP1 REVERT JUMPDEST PUSH2 0x4E PUSH2 0xA0 JUMP JUMPDEST PUSH1 0x40 MLOAD PUSH2 0x5B SWAP2 SWAP1 PUSH2 0x1C5 JUMP JUMPDEST PUSH1 0x40 MLOAD DUP1 SWAP2 SUB SWAP1 RETURN JUMPDEST PUSH2 0x6C PUSH2 0x12E JUMP JUMPDEST PUSH1 0x40 MLOAD PUSH2 0x79 SWAP2 SWAP1 PUSH2 0x1E7 JUMP JUMPDEST PUSH1 0x40 MLOAD DUP1 SWAP2 SUB SWAP1 RETURN JUMPDEST PUSH2 0x8A PUSH2 0x140 JUMP JUMPDEST PUSH1 0x40 MLOAD PUSH2 0x97 SWAP2 SWAP1 PUSH2 0x1AA JUMP JUMPDEST PUSH1 0x40 MLOAD DUP1 SWAP2 SUB SWAP1 RETURN JUMPDEST PUSH1 0x5 DUP1 SLOAD PUSH2 0xAD SWAP1 PUSH2 0x26C JUMP JUMPDEST DUP1 PUSH1 0x1F ADD PUSH1 0x20 DUP1 SWAP2 DIV MUL PUSH1 0x20 ADD PUSH1 0x40 MLOAD SWAP1 DUP2 ADD PUSH1 0x40 MSTORE DUP1 SWAP3 SWAP2 SWAP1 DUP2 DUP2 MSTORE PUSH1 0x20 ADD DUP3 DUP1 SLOAD PUSH2 0xD9 SWAP1 PUSH2 0x26C JUMP JUMPDEST DUP1 ISZERO PUSH2 0x126 JUMPI DUP1 PUSH1 0x1F LT PUSH2 0xFB JUMPI PUSH2 0x100 DUP1 DUP4 SLOAD DIV MUL DUP4 MSTORE SWAP2 PUSH1 0x20 ADD SWAP2 PUSH2 0x126 JUMP JUMPDEST DUP3 ADD SWAP2 SWAP1 PUSH1 0x0 MSTORE PUSH1 0x20 PUSH1 0x0 KECCAK256 SWAP1 JUMPDEST DUP2 SLOAD DUP2 MSTORE SWAP1 PUSH1 0x1 ADD SWAP1 PUSH1 0x20 ADD DUP1 DUP4 GT PUSH2 0x109 JUMPI DUP3 SWAP1 SUB PUSH1 0x1F AND DUP3 ADD SWAP2 JUMPDEST POP POP POP POP POP DUP2 JUMP JUMPDEST PUSH1 0x1 DUP1 SLOAD SWAP1 PUSH2 0x100 EXP SWAP1 DIV PUSH2 0xFFFF AND DUP2 JUMP JUMPDEST PUSH1 0x3 PUSH1 0x0 SWAP1 SLOAD SWAP1 PUSH2 0x100 EXP SWAP1 DIV PUSH1 0x3 SIGNEXTEND DUP2 JUMP JUMPDEST PUSH2 0x15C DUP2 PUSH2 0x21E JUMP JUMPDEST DUP3 MSTORE POP POP JUMP JUMPDEST PUSH1 0x0 PUSH2 0x16D DUP3 PUSH2 0x202 JUMP JUMPDEST PUSH2 0x177 DUP2 DUP6 PUSH2 0x20D JUMP JUMPDEST SWAP4 POP PUSH2 0x187 DUP2 DUP6 PUSH1 0x20 DUP7 ADD PUSH2 0x239 JUMP JUMPDEST PUSH2 0x190 DUP2 PUSH2 0x2CD JUMP JUMPDEST DUP5 ADD SWAP2 POP POP SWAP3 SWAP2 POP POP JUMP JUMPDEST PUSH2 0x1A4 DUP2 PUSH2 0x22B JUMP JUMPDEST DUP3 MSTORE POP POP JUMP JUMPDEST PUSH1 0x0 PUSH1 0x20 DUP3 ADD SWAP1 POP PUSH2 0x1BF PUSH1 0x0 DUP4 ADD DUP5 PUSH2 0x153 JUMP JUMPDEST SWAP3 SWAP2 POP POP JUMP JUMPDEST PUSH1 0x0 PUSH1 0x20 DUP3 ADD SWAP1 POP DUP2 DUP2 SUB PUSH1 0x0 DUP4 ADD MSTORE PUSH2 0x1DF DUP2 DUP5 PUSH2 0x162 JUMP JUMPDEST SWAP1 POP SWAP3 SWAP2 POP POP JUMP JUMPDEST PUSH1 0x0 PUSH1 0x20 DUP3 ADD SWAP1 POP PUSH2 0x1FC PUSH1 0x0 DUP4 ADD DUP5 PUSH2 0x19B JUMP JUMPDEST SWAP3 SWAP2 POP POP JUMP JUMPDEST PUSH1 0x0 DUP2 MLOAD SWAP1 POP SWAP2 SWAP1 POP JUMP JUMPDEST PUSH1 0x0 DUP3 DUP3 MSTORE PUSH1 0x20 DUP3 ADD SWAP1 POP SWAP3 SWAP2 POP POP JUMP JUMPDEST PUSH1 0x0 DUP2 PUSH1 0x3 SIGNEXTEND SWAP1 POP SWAP2 SWAP1 POP JUMP JUMPDEST PUSH1 0x0 PUSH2 0xFFFF DUP3 AND SWAP1 POP SWAP2 SWAP1 POP JUMP JUMPDEST PUSH1 0x0 JUMPDEST DUP4 DUP2 LT ISZERO PUSH2 0x257 JUMPI DUP1 DUP3 ADD MLOAD DUP2 DUP5 ADD MSTORE PUSH1 0x20 DUP2 ADD SWAP1 POP PUSH2 0x23C JUMP JUMPDEST DUP4 DUP2 GT ISZERO PUSH2 0x266 JUMPI PUSH1 0x0 DUP5 DUP5 ADD MSTORE JUMPDEST POP POP POP POP JUMP JUMPDEST PUSH1 0x0 PUSH1 0x2 DUP3 DIV SWAP1 POP PUSH1 0x1 DUP3 AND DUP1 PUSH2 0x284 JUMPI PUSH1 0x7F DUP3 AND SWAP2 POP JUMPDEST PUSH1 0x20 DUP3 LT DUP2 EQ ISZERO PUSH2 0x298 JUMPI PUSH2 0x297 PUSH2 0x29E JUMP JUMPDEST JUMPDEST POP SWAP2 SWAP1 POP JUMP JUMPDEST PUSH32 0x4E487B7100000000000000000000000000000000000000000000000000000000 PUSH1 0x0 MSTORE PUSH1 0x22 PUSH1 0x4 MSTORE PUSH1 0x24 PUSH1 0x0 REVERT JUMPDEST PUSH1 0x0 PUSH1 0x1F NOT PUSH1 0x1F DUP4 ADD AND SWAP1 POP SWAP2 SWAP1 POP JUMP INVALID LOG2 PUSH5 0x6970667358 0x22 SLT KECCAK256 0x5E 0x22 0xAE PUSH13 0x1D0A394ABEC8E862A35ABAB278 MSTORE8 0xE0 0xC2 DIFFICULTY NUMBER SWAP12 CREATE2 0x24 PUSH7 0x2CF358A5DCBB64 PUSH20 0x6F6C634300080500330000000000000000000000 "
				},
				"gasEstimates": {
					"creation": {
						"codeDepositCost": "157600",
						"executionCost": "infinite",
						"totalCost": "infinite"
					},
					"external": {
						"c()": "2518",
						"e()": "2497",
						"pl()": "infinite"
					}
				},
				"methodIdentifiers": {
					"c()": "c3da42b8",
					"e()": "ffae15ba",
					"pl()": "90e1437c"
				}
			},
			"storageLayout": {
				"storage": [
					{
						"astId": 3,
						"contract": "contracts/2_variable_modifiers.sol:VariableModifiers",
						"label": "a",
						"offset": 0,
						"slot": "0",
						"type": "t_uint256"
					},
					{
						"astId": 6,
						"contract": "contracts/2_variable_modifiers.sol:VariableModifiers",
						"label": "b",
						"offset": 0,
						"slot": "1",
						"type": "t_uint8"
					},
					{
						"astId": 9,
						"contract": "contracts/2_variable_modifiers.sol:VariableModifiers",
						"label": "c",
						"offset": 1,
						"slot": "1",
						"type": "t_uint16"
					},
					{
						"astId": 13,
						"contract": "contracts/2_variable_modifiers.sol:VariableModifiers",
						"label": "d",
						"offset": 0,
						"slot": "2",
						"type": "t_int256"
					},
					{
						"astId": 17,
						"contract": "contracts/2_variable_modifiers.sol:VariableModifiers",
						"label": "e",
						"offset": 0,
						"slot": "3",
						"type": "t_int32"
					},
					{
						"astId": 20,
						"contract": "contracts/2_variable_modifiers.sol:VariableModifiers",
						"label": "name",
						"offset": 0,
						"slot": "4",
						"type": "t_string_storage"
					},
					{
						"astId": 23,
						"contract": "contracts/2_variable_modifiers.sol:VariableModifiers",
						"label": "pl",
						"offset": 0,
						"slot": "5",
						"type": "t_string_storage"
					}
				],
				"types": {
					"t_int256": {
						"encoding": "inplace",
						"label": "int256",
						"numberOfBytes": "32"
					},
					"t_int32": {
						"encoding": "inplace",
						"label": "int32",
						"numberOfBytes": "4"
					},
					"t_string_storage": {
						"encoding": "bytes",
						"label": "string",
						"numberOfBytes": "32"
					},
					"t_uint16": {
						"encoding": "inplace",
						"label": "uint16",
						"numberOfBytes": "2"
					},
					"t_uint256": {
						"encoding": "inplace",
						"label": "uint256",
						"numberOfBytes": "32"
					},
					"t_uint8": {
						"encoding": "inplace",
						"label": "uint8",
						"numberOfBytes": "1"
					}
				}
			},
			"userdoc": {
				"kind": "user",
				"methods": {},
				"version": 1
			}
		}
	}
}