{
	"contracts/7_math_operations.sol": {
		"MathOperations": {
			"abi": [
				{
					"inputs": [
						{
							"internalType": "uint256",
							"name": "a",
							"type": "uint256"
						},
						{
							"internalType": "uint256",
							"name": "b",
							"type": "uint256"
						}
					],
					"name": "division",
					"outputs": [
						{
							"internalType": "uint256",
							"name": "",
							"type": "uint256"
						}
					],
					"stateMutability": "pure",
					"type": "function"
				},
				{
					"inputs": [
						{
							"internalType": "uint256",
							"name": "a",
							"type": "uint256"
						},
						{
							"internalType": "uint256",
							"name": "b",
							"type": "uint256"
						}
					],
					"name": "pow",
					"outputs": [
						{
							"internalType": "uint256",
							"name": "",
							"type": "uint256"
						}
					],
					"stateMutability": "pure",
					"type": "function"
				},
				{
					"inputs": [
						{
							"internalType": "uint256",
							"name": "a",
							"type": "uint256"
						},
						{
							"internalType": "uint256",
							"name": "b",
							"type": "uint256"
						}
					],
					"name": "product",
					"outputs": [
						{
							"internalType": "uint256",
							"name": "",
							"type": "uint256"
						}
					],
					"stateMutability": "pure",
					"type": "function"
				},
				{
					"inputs": [
						{
							"internalType": "uint256",
							"name": "a",
							"type": "uint256"
						},
						{
							"internalType": "uint256",
							"name": "b",
							"type": "uint256"
						}
					],
					"name": "substract",
					"outputs": [
						{
							"internalType": "uint256",
							"name": "",
							"type": "uint256"
						}
					],
					"stateMutability": "pure",
					"type": "function"
				},
				{
					"inputs": [
						{
							"internalType": "uint256",
							"name": "a",
							"type": "uint256"
						},
						{
							"internalType": "uint256",
							"name": "b",
							"type": "uint256"
						}
					],
					"name": "sum",
					"outputs": [
						{
							"internalType": "uint256",
							"name": "",
							"type": "uint256"
						}
					],
					"stateMutability": "pure",
					"type": "function"
				}
			],
			"devdoc": {
				"kind": "dev",
				"methods": {},
				"version": 1
			},
			"evm": {
				"assembly": "    /* \"contracts/7_math_operations.sol\":69:565  contract MathOperations {... */\n  mstore(0x40, 0x80)\n  callvalue\n  dup1\n  iszero\n  tag_1\n  jumpi\n  0x00\n  dup1\n  revert\ntag_1:\n  pop\n  dataSize(sub_0)\n  dup1\n  dataOffset(sub_0)\n  0x00\n  codecopy\n  0x00\n  return\nstop\n\nsub_0: assembly {\n        /* \"contracts/7_math_operations.sol\":69:565  contract MathOperations {... */\n      mstore(0x40, 0x80)\n      callvalue\n      dup1\n      iszero\n      tag_1\n      jumpi\n      0x00\n      dup1\n      revert\n    tag_1:\n      pop\n      jumpi(tag_2, lt(calldatasize, 0x04))\n      shr(0xe0, calldataload(0x00))\n      dup1\n      0x2e4c697f\n      eq\n      tag_3\n      jumpi\n      dup1\n      0x5d4e1e5c\n      eq\n      tag_4\n      jumpi\n      dup1\n      0xba88c3b7\n      eq\n      tag_5\n      jumpi\n      dup1\n      0xcad0899b\n      eq\n      tag_6\n      jumpi\n      dup1\n      0xe0068052\n      eq\n      tag_7\n      jumpi\n    tag_2:\n      0x00\n      dup1\n      revert\n        /* \"contracts/7_math_operations.sol\":479:563  function pow(uint a, uint b) public pure returns (uint) {... */\n    tag_3:\n      tag_8\n      0x04\n      dup1\n      calldatasize\n      sub\n      dup2\n      add\n      swap1\n      tag_9\n      swap2\n      swap1\n      tag_10\n      jump\t// in\n    tag_9:\n      tag_11\n      jump\t// in\n    tag_8:\n      mload(0x40)\n      tag_12\n      swap2\n      swap1\n      tag_13\n      jump\t// in\n    tag_12:\n      mload(0x40)\n      dup1\n      swap2\n      sub\n      swap1\n      return\n        /* \"contracts/7_math_operations.sol\":191:282  function substract(uint a, uint b) public pure returns (uint) {... */\n    tag_4:\n      tag_14\n      0x04\n      dup1\n      calldatasize\n      sub\n      dup2\n      add\n      swap1\n      tag_15\n      swap2\n      swap1\n      tag_10\n      jump\t// in\n    tag_15:\n      tag_16\n      jump\t// in\n    tag_14:\n      mload(0x40)\n      tag_17\n      swap2\n      swap1\n      tag_13\n      jump\t// in\n    tag_17:\n      mload(0x40)\n      dup1\n      swap2\n      sub\n      swap1\n      return\n        /* \"contracts/7_math_operations.sol\":288:377  function product(uint a, uint b) public pure returns (uint) {... */\n    tag_5:\n      tag_18\n      0x04\n      dup1\n      calldatasize\n      sub\n      dup2\n      add\n      swap1\n      tag_19\n      swap2\n      swap1\n      tag_10\n      jump\t// in\n    tag_19:\n      tag_20\n      jump\t// in\n    tag_18:\n      mload(0x40)\n      tag_21\n      swap2\n      swap1\n      tag_13\n      jump\t// in\n    tag_21:\n      mload(0x40)\n      dup1\n      swap2\n      sub\n      swap1\n      return\n        /* \"contracts/7_math_operations.sol\":100:185  function sum(uint a, uint b) public pure returns (uint) {... */\n    tag_6:\n      tag_22\n      0x04\n      dup1\n      calldatasize\n      sub\n      dup2\n      add\n      swap1\n      tag_23\n      swap2\n      swap1\n      tag_10\n      jump\t// in\n    tag_23:\n      tag_24\n      jump\t// in\n    tag_22:\n      mload(0x40)\n      tag_25\n      swap2\n      swap1\n      tag_13\n      jump\t// in\n    tag_25:\n      mload(0x40)\n      dup1\n      swap2\n      sub\n      swap1\n      return\n        /* \"contracts/7_math_operations.sol\":383:473  function division(uint a, uint b) public pure returns (uint) {... */\n    tag_7:\n      tag_26\n      0x04\n      dup1\n      calldatasize\n      sub\n      dup2\n      add\n      swap1\n      tag_27\n      swap2\n      swap1\n      tag_10\n      jump\t// in\n    tag_27:\n      tag_28\n      jump\t// in\n    tag_26:\n      mload(0x40)\n      tag_29\n      swap2\n      swap1\n      tag_13\n      jump\t// in\n    tag_29:\n      mload(0x40)\n      dup1\n      swap2\n      sub\n      swap1\n      return\n        /* \"contracts/7_math_operations.sol\":479:563  function pow(uint a, uint b) public pure returns (uint) {... */\n    tag_11:\n        /* \"contracts/7_math_operations.sol\":529:533  uint */\n      0x00\n        /* \"contracts/7_math_operations.sol\":555:556  b */\n      dup2\n        /* \"contracts/7_math_operations.sol\":552:553  a */\n      dup4\n        /* \"contracts/7_math_operations.sol\":552:556  a**b */\n      tag_31\n      swap2\n      swap1\n      tag_32\n      jump\t// in\n    tag_31:\n        /* \"contracts/7_math_operations.sol\":545:556  return a**b */\n      swap1\n      pop\n        /* \"contracts/7_math_operations.sol\":479:563  function pow(uint a, uint b) public pure returns (uint) {... */\n      swap3\n      swap2\n      pop\n      pop\n      jump\t// out\n        /* \"contracts/7_math_operations.sol\":191:282  function substract(uint a, uint b) public pure returns (uint) {... */\n    tag_16:\n        /* \"contracts/7_math_operations.sol\":247:251  uint */\n      0x00\n        /* \"contracts/7_math_operations.sol\":274:275  b */\n      dup2\n        /* \"contracts/7_math_operations.sol\":270:271  a */\n      dup4\n        /* \"contracts/7_math_operations.sol\":270:275  a - b */\n      tag_34\n      swap2\n      swap1\n      tag_35\n      jump\t// in\n    tag_34:\n        /* \"contracts/7_math_operations.sol\":263:275  return a - b */\n      swap1\n      pop\n        /* \"contracts/7_math_operations.sol\":191:282  function substract(uint a, uint b) public pure returns (uint) {... */\n      swap3\n      swap2\n      pop\n      pop\n      jump\t// out\n        /* \"contracts/7_math_operations.sol\":288:377  function product(uint a, uint b) public pure returns (uint) {... */\n    tag_20:\n        /* \"contracts/7_math_operations.sol\":342:346  uint */\n      0x00\n        /* \"contracts/7_math_operations.sol\":369:370  b */\n      dup2\n        /* \"contracts/7_math_operations.sol\":365:366  a */\n      dup4\n        /* \"contracts/7_math_operations.sol\":365:370  a * b */\n      tag_37\n      swap2\n      swap1\n      tag_38\n      jump\t// in\n    tag_37:\n        /* \"contracts/7_math_operations.sol\":358:370  return a * b */\n      swap1\n      pop\n        /* \"contracts/7_math_operations.sol\":288:377  function product(uint a, uint b) public pure returns (uint) {... */\n      swap3\n      swap2\n      pop\n      pop\n      jump\t// out\n        /* \"contracts/7_math_operations.sol\":100:185  function sum(uint a, uint b) public pure returns (uint) {... */\n    tag_24:\n        /* \"contracts/7_math_operations.sol\":150:154  uint */\n      0x00\n        /* \"contracts/7_math_operations.sol\":177:178  b */\n      dup2\n        /* \"contracts/7_math_operations.sol\":173:174  a */\n      dup4\n        /* \"contracts/7_math_operations.sol\":173:178  a + b */\n      tag_40\n      swap2\n      swap1\n      tag_41\n      jump\t// in\n    tag_40:\n        /* \"contracts/7_math_operations.sol\":166:178  return a + b */\n      swap1\n      pop\n        /* \"contracts/7_math_operations.sol\":100:185  function sum(uint a, uint b) public pure returns (uint) {... */\n      swap3\n      swap2\n      pop\n      pop\n      jump\t// out\n        /* \"contracts/7_math_operations.sol\":383:473  function division(uint a, uint b) public pure returns (uint) {... */\n    tag_28:\n        /* \"contracts/7_math_operations.sol\":438:442  uint */\n      0x00\n        /* \"contracts/7_math_operations.sol\":465:466  b */\n      dup2\n        /* \"contracts/7_math_operations.sol\":461:462  a */\n      dup4\n        /* \"contracts/7_math_operations.sol\":461:466  a / b */\n      tag_43\n      swap2\n      swap1\n      tag_44\n      jump\t// in\n    tag_43:\n        /* \"contracts/7_math_operations.sol\":454:466  return a / b */\n      swap1\n      pop\n        /* \"contracts/7_math_operations.sol\":383:473  function division(uint a, uint b) public pure returns (uint) {... */\n      swap3\n      swap2\n      pop\n      pop\n      jump\t// out\n        /* \"#utility.yul\":7:146   */\n    tag_46:\n        /* \"#utility.yul\":53:58   */\n      0x00\n        /* \"#utility.yul\":91:97   */\n      dup2\n        /* \"#utility.yul\":78:98   */\n      calldataload\n        /* \"#utility.yul\":69:98   */\n      swap1\n      pop\n        /* \"#utility.yul\":107:140   */\n      tag_48\n        /* \"#utility.yul\":134:139   */\n      dup2\n        /* \"#utility.yul\":107:140   */\n      tag_49\n      jump\t// in\n    tag_48:\n        /* \"#utility.yul\":7:146   */\n      swap3\n      swap2\n      pop\n      pop\n      jump\t// out\n        /* \"#utility.yul\":152:626   */\n    tag_10:\n        /* \"#utility.yul\":220:226   */\n      0x00\n        /* \"#utility.yul\":228:234   */\n      dup1\n        /* \"#utility.yul\":277:279   */\n      0x40\n        /* \"#utility.yul\":265:274   */\n      dup4\n        /* \"#utility.yul\":256:263   */\n      dup6\n        /* \"#utility.yul\":252:275   */\n      sub\n        /* \"#utility.yul\":248:280   */\n      slt\n        /* \"#utility.yul\":245:364   */\n      iszero\n      tag_51\n      jumpi\n        /* \"#utility.yul\":283:362   */\n      tag_52\n      tag_53\n      jump\t// in\n    tag_52:\n        /* \"#utility.yul\":245:364   */\n    tag_51:\n        /* \"#utility.yul\":403:404   */\n      0x00\n        /* \"#utility.yul\":428:481   */\n      tag_54\n        /* \"#utility.yul\":473:480   */\n      dup6\n        /* \"#utility.yul\":464:470   */\n      dup3\n        /* \"#utility.yul\":453:462   */\n      dup7\n        /* \"#utility.yul\":449:471   */\n      add\n        /* \"#utility.yul\":428:481   */\n      tag_46\n      jump\t// in\n    tag_54:\n        /* \"#utility.yul\":418:481   */\n      swap3\n      pop\n        /* \"#utility.yul\":374:491   */\n      pop\n        /* \"#utility.yul\":530:532   */\n      0x20\n        /* \"#utility.yul\":556:609   */\n      tag_55\n        /* \"#utility.yul\":601:608   */\n      dup6\n        /* \"#utility.yul\":592:598   */\n      dup3\n        /* \"#utility.yul\":581:590   */\n      dup7\n        /* \"#utility.yul\":577:599   */\n      add\n        /* \"#utility.yul\":556:609   */\n      tag_46\n      jump\t// in\n    tag_55:\n        /* \"#utility.yul\":546:609   */\n      swap2\n      pop\n        /* \"#utility.yul\":501:619   */\n      pop\n        /* \"#utility.yul\":152:626   */\n      swap3\n      pop\n      swap3\n      swap1\n      pop\n      jump\t// out\n        /* \"#utility.yul\":632:750   */\n    tag_56:\n        /* \"#utility.yul\":719:743   */\n      tag_58\n        /* \"#utility.yul\":737:742   */\n      dup2\n        /* \"#utility.yul\":719:743   */\n      tag_59\n      jump\t// in\n    tag_58:\n        /* \"#utility.yul\":714:717   */\n      dup3\n        /* \"#utility.yul\":707:744   */\n      mstore\n        /* \"#utility.yul\":632:750   */\n      pop\n      pop\n      jump\t// out\n        /* \"#utility.yul\":756:978   */\n    tag_13:\n        /* \"#utility.yul\":849:853   */\n      0x00\n        /* \"#utility.yul\":887:889   */\n      0x20\n        /* \"#utility.yul\":876:885   */\n      dup3\n        /* \"#utility.yul\":872:890   */\n      add\n        /* \"#utility.yul\":864:890   */\n      swap1\n      pop\n        /* \"#utility.yul\":900:971   */\n      tag_61\n        /* \"#utility.yul\":968:969   */\n      0x00\n        /* \"#utility.yul\":957:966   */\n      dup4\n        /* \"#utility.yul\":953:970   */\n      add\n        /* \"#utility.yul\":944:950   */\n      dup5\n        /* \"#utility.yul\":900:971   */\n      tag_56\n      jump\t// in\n    tag_61:\n        /* \"#utility.yul\":756:978   */\n      swap3\n      swap2\n      pop\n      pop\n      jump\t// out\n        /* \"#utility.yul\":1065:1370   */\n    tag_41:\n        /* \"#utility.yul\":1105:1108   */\n      0x00\n        /* \"#utility.yul\":1124:1144   */\n      tag_65\n        /* \"#utility.yul\":1142:1143   */\n      dup3\n        /* \"#utility.yul\":1124:1144   */\n      tag_59\n      jump\t// in\n    tag_65:\n        /* \"#utility.yul\":1119:1144   */\n      swap2\n      pop\n        /* \"#utility.yul\":1158:1178   */\n      tag_66\n        /* \"#utility.yul\":1176:1177   */\n      dup4\n        /* \"#utility.yul\":1158:1178   */\n      tag_59\n      jump\t// in\n    tag_66:\n        /* \"#utility.yul\":1153:1178   */\n      swap3\n      pop\n        /* \"#utility.yul\":1312:1313   */\n      dup3\n        /* \"#utility.yul\":1244:1310   */\n      0xffffffffffffffffffffffffffffffffffffffffffffffffffffffffffffffff\n        /* \"#utility.yul\":1240:1314   */\n      sub\n        /* \"#utility.yul\":1237:1238   */\n      dup3\n        /* \"#utility.yul\":1234:1315   */\n      gt\n        /* \"#utility.yul\":1231:1338   */\n      iszero\n      tag_67\n      jumpi\n        /* \"#utility.yul\":1318:1336   */\n      tag_68\n      tag_69\n      jump\t// in\n    tag_68:\n        /* \"#utility.yul\":1231:1338   */\n    tag_67:\n        /* \"#utility.yul\":1362:1363   */\n      dup3\n        /* \"#utility.yul\":1359:1360   */\n      dup3\n        /* \"#utility.yul\":1355:1364   */\n      add\n        /* \"#utility.yul\":1348:1364   */\n      swap1\n      pop\n        /* \"#utility.yul\":1065:1370   */\n      swap3\n      swap2\n      pop\n      pop\n      jump\t// out\n        /* \"#utility.yul\":1376:1561   */\n    tag_44:\n        /* \"#utility.yul\":1416:1417   */\n      0x00\n        /* \"#utility.yul\":1433:1453   */\n      tag_71\n        /* \"#utility.yul\":1451:1452   */\n      dup3\n        /* \"#utility.yul\":1433:1453   */\n      tag_59\n      jump\t// in\n    tag_71:\n        /* \"#utility.yul\":1428:1453   */\n      swap2\n      pop\n        /* \"#utility.yul\":1467:1487   */\n      tag_72\n        /* \"#utility.yul\":1485:1486   */\n      dup4\n        /* \"#utility.yul\":1467:1487   */\n      tag_59\n      jump\t// in\n    tag_72:\n        /* \"#utility.yul\":1462:1487   */\n      swap3\n      pop\n        /* \"#utility.yul\":1506:1507   */\n      dup3\n        /* \"#utility.yul\":1496:1531   */\n      tag_73\n      jumpi\n        /* \"#utility.yul\":1511:1529   */\n      tag_74\n      tag_75\n      jump\t// in\n    tag_74:\n        /* \"#utility.yul\":1496:1531   */\n    tag_73:\n        /* \"#utility.yul\":1553:1554   */\n      dup3\n        /* \"#utility.yul\":1550:1551   */\n      dup3\n        /* \"#utility.yul\":1546:1555   */\n      div\n        /* \"#utility.yul\":1541:1555   */\n      swap1\n      pop\n        /* \"#utility.yul\":1376:1561   */\n      swap3\n      swap2\n      pop\n      pop\n      jump\t// out\n        /* \"#utility.yul\":1567:2415   */\n    tag_76:\n        /* \"#utility.yul\":1628:1633   */\n      0x00\n        /* \"#utility.yul\":1635:1639   */\n      dup1\n        /* \"#utility.yul\":1659:1665   */\n      dup3\n        /* \"#utility.yul\":1650:1665   */\n      swap2\n      pop\n        /* \"#utility.yul\":1683:1688   */\n      dup4\n        /* \"#utility.yul\":1674:1688   */\n      swap1\n      pop\n        /* \"#utility.yul\":1697:2409   */\n    tag_78:\n        /* \"#utility.yul\":1718:1719   */\n      0x01\n        /* \"#utility.yul\":1708:1716   */\n      dup6\n        /* \"#utility.yul\":1705:1720   */\n      gt\n        /* \"#utility.yul\":1697:2409   */\n      iszero\n      tag_80\n      jumpi\n        /* \"#utility.yul\":1813:1817   */\n      dup1\n        /* \"#utility.yul\":1808:1811   */\n      dup7\n        /* \"#utility.yul\":1804:1818   */\n      div\n        /* \"#utility.yul\":1798:1802   */\n      dup2\n        /* \"#utility.yul\":1795:1819   */\n      gt\n        /* \"#utility.yul\":1792:1842   */\n      iszero\n      tag_81\n      jumpi\n        /* \"#utility.yul\":1822:1840   */\n      tag_82\n      tag_69\n      jump\t// in\n    tag_82:\n        /* \"#utility.yul\":1792:1842   */\n    tag_81:\n        /* \"#utility.yul\":1872:1873   */\n      0x01\n        /* \"#utility.yul\":1862:1870   */\n      dup6\n        /* \"#utility.yul\":1858:1874   */\n      and\n        /* \"#utility.yul\":1855:2306   */\n      iszero\n      tag_83\n      jumpi\n        /* \"#utility.yul\":2287:2291   */\n      dup1\n        /* \"#utility.yul\":2280:2285   */\n      dup3\n        /* \"#utility.yul\":2276:2292   */\n      mul\n        /* \"#utility.yul\":2267:2292   */\n      swap2\n      pop\n        /* \"#utility.yul\":1855:2306   */\n    tag_83:\n        /* \"#utility.yul\":2337:2341   */\n      dup1\n        /* \"#utility.yul\":2331:2335   */\n      dup2\n        /* \"#utility.yul\":2327:2342   */\n      mul\n        /* \"#utility.yul\":2319:2342   */\n      swap1\n      pop\n        /* \"#utility.yul\":2367:2399   */\n      tag_84\n        /* \"#utility.yul\":2390:2398   */\n      dup6\n        /* \"#utility.yul\":2367:2399   */\n      tag_85\n      jump\t// in\n    tag_84:\n        /* \"#utility.yul\":2355:2399   */\n      swap5\n      pop\n        /* \"#utility.yul\":1697:2409   */\n      jump(tag_78)\n    tag_80:\n        /* \"#utility.yul\":1567:2415   */\n      swap5\n      pop\n      swap5\n      swap3\n      pop\n      pop\n      pop\n      jump\t// out\n        /* \"#utility.yul\":2421:2706   */\n    tag_32:\n        /* \"#utility.yul\":2481:2486   */\n      0x00\n        /* \"#utility.yul\":2505:2528   */\n      tag_87\n        /* \"#utility.yul\":2523:2527   */\n      dup3\n        /* \"#utility.yul\":2505:2528   */\n      tag_59\n      jump\t// in\n    tag_87:\n        /* \"#utility.yul\":2497:2528   */\n      swap2\n      pop\n        /* \"#utility.yul\":2549:2576   */\n      tag_88\n        /* \"#utility.yul\":2567:2575   */\n      dup4\n        /* \"#utility.yul\":2549:2576   */\n      tag_59\n      jump\t// in\n    tag_88:\n        /* \"#utility.yul\":2537:2576   */\n      swap3\n      pop\n        /* \"#utility.yul\":2595:2699   */\n      tag_89\n        /* \"#utility.yul\":2632:2698   */\n      0xffffffffffffffffffffffffffffffffffffffffffffffffffffffffffffffff\n        /* \"#utility.yul\":2622:2630   */\n      dup5\n        /* \"#utility.yul\":2616:2620   */\n      dup5\n        /* \"#utility.yul\":2595:2699   */\n      tag_90\n      jump\t// in\n    tag_89:\n        /* \"#utility.yul\":2586:2699   */\n      swap1\n      pop\n        /* \"#utility.yul\":2421:2706   */\n      swap3\n      swap2\n      pop\n      pop\n      jump\t// out\n        /* \"#utility.yul\":2712:3785   */\n    tag_90:\n        /* \"#utility.yul\":2766:2771   */\n      0x00\n        /* \"#utility.yul\":2957:2965   */\n      dup3\n        /* \"#utility.yul\":2947:2987   */\n      tag_92\n      jumpi\n        /* \"#utility.yul\":2978:2979   */\n      0x01\n        /* \"#utility.yul\":2969:2979   */\n      swap1\n      pop\n        /* \"#utility.yul\":2980:2985   */\n      jump(tag_91)\n        /* \"#utility.yul\":2947:2987   */\n    tag_92:\n        /* \"#utility.yul\":3006:3010   */\n      dup2\n        /* \"#utility.yul\":2996:3032   */\n      tag_93\n      jumpi\n        /* \"#utility.yul\":3023:3024   */\n      0x00\n        /* \"#utility.yul\":3014:3024   */\n      swap1\n      pop\n        /* \"#utility.yul\":3025:3030   */\n      jump(tag_91)\n        /* \"#utility.yul\":2996:3032   */\n    tag_93:\n        /* \"#utility.yul\":3092:3096   */\n      dup2\n        /* \"#utility.yul\":3140:3141   */\n      0x01\n        /* \"#utility.yul\":3135:3162   */\n      dup2\n      eq\n      tag_95\n      jumpi\n        /* \"#utility.yul\":3176:3177   */\n      0x02\n        /* \"#utility.yul\":3171:3362   */\n      dup2\n      eq\n      tag_96\n      jumpi\n        /* \"#utility.yul\":3085:3362   */\n      jump(tag_94)\n        /* \"#utility.yul\":3135:3162   */\n    tag_95:\n        /* \"#utility.yul\":3153:3154   */\n      0x01\n        /* \"#utility.yul\":3144:3154   */\n      swap2\n      pop\n        /* \"#utility.yul\":3155:3160   */\n      pop\n      jump(tag_91)\n        /* \"#utility.yul\":3171:3362   */\n    tag_96:\n        /* \"#utility.yul\":3216:3219   */\n      0xff\n        /* \"#utility.yul\":3206:3214   */\n      dup5\n        /* \"#utility.yul\":3203:3220   */\n      gt\n        /* \"#utility.yul\":3200:3243   */\n      iszero\n      tag_97\n      jumpi\n        /* \"#utility.yul\":3223:3241   */\n      tag_98\n      tag_69\n      jump\t// in\n    tag_98:\n        /* \"#utility.yul\":3200:3243   */\n    tag_97:\n        /* \"#utility.yul\":3272:3280   */\n      dup4\n        /* \"#utility.yul\":3269:3270   */\n      0x02\n        /* \"#utility.yul\":3265:3281   */\n      exp\n        /* \"#utility.yul\":3256:3281   */\n      swap2\n      pop\n        /* \"#utility.yul\":3307:3310   */\n      dup5\n        /* \"#utility.yul\":3300:3305   */\n      dup3\n        /* \"#utility.yul\":3297:3311   */\n      gt\n        /* \"#utility.yul\":3294:3334   */\n      iszero\n      tag_99\n      jumpi\n        /* \"#utility.yul\":3314:3332   */\n      tag_100\n      tag_69\n      jump\t// in\n    tag_100:\n        /* \"#utility.yul\":3294:3334   */\n    tag_99:\n        /* \"#utility.yul\":3347:3352   */\n      pop\n      jump(tag_91)\n        /* \"#utility.yul\":3085:3362   */\n    tag_94:\n      pop\n        /* \"#utility.yul\":3471:3473   */\n      0x20\n        /* \"#utility.yul\":3461:3469   */\n      dup4\n        /* \"#utility.yul\":3458:3474   */\n      lt\n        /* \"#utility.yul\":3452:3455   */\n      0x0133\n        /* \"#utility.yul\":3446:3450   */\n      dup4\n        /* \"#utility.yul\":3443:3456   */\n      lt\n        /* \"#utility.yul\":3439:3475   */\n      and\n        /* \"#utility.yul\":3421:3423   */\n      0x4e\n        /* \"#utility.yul\":3411:3419   */\n      dup5\n        /* \"#utility.yul\":3408:3424   */\n      lt\n        /* \"#utility.yul\":3403:3405   */\n      0x0b\n        /* \"#utility.yul\":3397:3401   */\n      dup5\n        /* \"#utility.yul\":3394:3406   */\n      lt\n        /* \"#utility.yul\":3390:3425   */\n      and\n        /* \"#utility.yul\":3374:3485   */\n      or\n        /* \"#utility.yul\":3371:3617   */\n      iszero\n      tag_101\n      jumpi\n        /* \"#utility.yul\":3527:3535   */\n      dup3\n        /* \"#utility.yul\":3521:3525   */\n      dup3\n        /* \"#utility.yul\":3517:3536   */\n      exp\n        /* \"#utility.yul\":3508:3536   */\n      swap1\n      pop\n        /* \"#utility.yul\":3562:3565   */\n      dup4\n        /* \"#utility.yul\":3555:3560   */\n      dup2\n        /* \"#utility.yul\":3552:3566   */\n      gt\n        /* \"#utility.yul\":3549:3589   */\n      iszero\n      tag_102\n      jumpi\n        /* \"#utility.yul\":3569:3587   */\n      tag_103\n      tag_69\n      jump\t// in\n    tag_103:\n        /* \"#utility.yul\":3549:3589   */\n    tag_102:\n        /* \"#utility.yul\":3602:3607   */\n      jump(tag_91)\n        /* \"#utility.yul\":3371:3617   */\n    tag_101:\n        /* \"#utility.yul\":3642:3684   */\n      tag_104\n        /* \"#utility.yul\":3680:3683   */\n      dup5\n        /* \"#utility.yul\":3670:3678   */\n      dup5\n        /* \"#utility.yul\":3664:3668   */\n      dup5\n        /* \"#utility.yul\":3661:3662   */\n      0x01\n        /* \"#utility.yul\":3642:3684   */\n      tag_76\n      jump\t// in\n    tag_104:\n        /* \"#utility.yul\":3627:3684   */\n      swap3\n      pop\n      swap1\n      pop\n        /* \"#utility.yul\":3716:3720   */\n      dup2\n        /* \"#utility.yul\":3711:3714   */\n      dup5\n        /* \"#utility.yul\":3707:3721   */\n      div\n        /* \"#utility.yul\":3700:3705   */\n      dup2\n        /* \"#utility.yul\":3697:3722   */\n      gt\n        /* \"#utility.yul\":3694:3745   */\n      iszero\n      tag_105\n      jumpi\n        /* \"#utility.yul\":3725:3743   */\n      tag_106\n      tag_69\n      jump\t// in\n    tag_106:\n        /* \"#utility.yul\":3694:3745   */\n    tag_105:\n        /* \"#utility.yul\":3774:3778   */\n      dup2\n        /* \"#utility.yul\":3767:3772   */\n      dup2\n        /* \"#utility.yul\":3763:3779   */\n      mul\n        /* \"#utility.yul\":3754:3779   */\n      swap1\n      pop\n        /* \"#utility.yul\":2712:3785   */\n    tag_91:\n      swap4\n      swap3\n      pop\n      pop\n      pop\n      jump\t// out\n        /* \"#utility.yul\":3791:4139   */\n    tag_38:\n        /* \"#utility.yul\":3831:3838   */\n      0x00\n        /* \"#utility.yul\":3854:3874   */\n      tag_108\n        /* \"#utility.yul\":3872:3873   */\n      dup3\n        /* \"#utility.yul\":3854:3874   */\n      tag_59\n      jump\t// in\n    tag_108:\n        /* \"#utility.yul\":3849:3874   */\n      swap2\n      pop\n        /* \"#utility.yul\":3888:3908   */\n      tag_109\n        /* \"#utility.yul\":3906:3907   */\n      dup4\n        /* \"#utility.yul\":3888:3908   */\n      tag_59\n      jump\t// in\n    tag_109:\n        /* \"#utility.yul\":3883:3908   */\n      swap3\n      pop\n        /* \"#utility.yul\":4076:4077   */\n      dup2\n        /* \"#utility.yul\":4008:4074   */\n      0xffffffffffffffffffffffffffffffffffffffffffffffffffffffffffffffff\n        /* \"#utility.yul\":4004:4078   */\n      div\n        /* \"#utility.yul\":4001:4002   */\n      dup4\n        /* \"#utility.yul\":3998:4079   */\n      gt\n        /* \"#utility.yul\":3993:3994   */\n      dup3\n        /* \"#utility.yul\":3986:3995   */\n      iszero\n        /* \"#utility.yul\":3979:3996   */\n      iszero\n        /* \"#utility.yul\":3975:4080   */\n      and\n        /* \"#utility.yul\":3972:4103   */\n      iszero\n      tag_110\n      jumpi\n        /* \"#utility.yul\":4083:4101   */\n      tag_111\n      tag_69\n      jump\t// in\n    tag_111:\n        /* \"#utility.yul\":3972:4103   */\n    tag_110:\n        /* \"#utility.yul\":4131:4132   */\n      dup3\n        /* \"#utility.yul\":4128:4129   */\n      dup3\n        /* \"#utility.yul\":4124:4133   */\n      mul\n        /* \"#utility.yul\":4113:4133   */\n      swap1\n      pop\n        /* \"#utility.yul\":3791:4139   */\n      swap3\n      swap2\n      pop\n      pop\n      jump\t// out\n        /* \"#utility.yul\":4145:4336   */\n    tag_35:\n        /* \"#utility.yul\":4185:4189   */\n      0x00\n        /* \"#utility.yul\":4205:4225   */\n      tag_113\n        /* \"#utility.yul\":4223:4224   */\n      dup3\n        /* \"#utility.yul\":4205:4225   */\n      tag_59\n      jump\t// in\n    tag_113:\n        /* \"#utility.yul\":4200:4225   */\n      swap2\n      pop\n        /* \"#utility.yul\":4239:4259   */\n      tag_114\n        /* \"#utility.yul\":4257:4258   */\n      dup4\n        /* \"#utility.yul\":4239:4259   */\n      tag_59\n      jump\t// in\n    tag_114:\n        /* \"#utility.yul\":4234:4259   */\n      swap3\n      pop\n        /* \"#utility.yul\":4278:4279   */\n      dup3\n        /* \"#utility.yul\":4275:4276   */\n      dup3\n        /* \"#utility.yul\":4272:4280   */\n      lt\n        /* \"#utility.yul\":4269:4303   */\n      iszero\n      tag_115\n      jumpi\n        /* \"#utility.yul\":4283:4301   */\n      tag_116\n      tag_69\n      jump\t// in\n    tag_116:\n        /* \"#utility.yul\":4269:4303   */\n    tag_115:\n        /* \"#utility.yul\":4328:4329   */\n      dup3\n        /* \"#utility.yul\":4325:4326   */\n      dup3\n        /* \"#utility.yul\":4321:4330   */\n      sub\n        /* \"#utility.yul\":4313:4330   */\n      swap1\n      pop\n        /* \"#utility.yul\":4145:4336   */\n      swap3\n      swap2\n      pop\n      pop\n      jump\t// out\n        /* \"#utility.yul\":4342:4419   */\n    tag_59:\n        /* \"#utility.yul\":4379:4386   */\n      0x00\n        /* \"#utility.yul\":4408:4413   */\n      dup2\n        /* \"#utility.yul\":4397:4413   */\n      swap1\n      pop\n        /* \"#utility.yul\":4342:4419   */\n      swap2\n      swap1\n      pop\n      jump\t// out\n        /* \"#utility.yul\":4425:4605   */\n    tag_69:\n        /* \"#utility.yul\":4473:4550   */\n      0x4e487b7100000000000000000000000000000000000000000000000000000000\n        /* \"#utility.yul\":4470:4471   */\n      0x00\n        /* \"#utility.yul\":4463:4551   */\n      mstore\n        /* \"#utility.yul\":4570:4574   */\n      0x11\n        /* \"#utility.yul\":4567:4568   */\n      0x04\n        /* \"#utility.yul\":4560:4575   */\n      mstore\n        /* \"#utility.yul\":4594:4598   */\n      0x24\n        /* \"#utility.yul\":4591:4592   */\n      0x00\n        /* \"#utility.yul\":4584:4599   */\n      revert\n        /* \"#utility.yul\":4611:4791   */\n    tag_75:\n        /* \"#utility.yul\":4659:4736   */\n      0x4e487b7100000000000000000000000000000000000000000000000000000000\n        /* \"#utility.yul\":4656:4657   */\n      0x00\n        /* \"#utility.yul\":4649:4737   */\n      mstore\n        /* \"#utility.yul\":4756:4760   */\n      0x12\n        /* \"#utility.yul\":4753:4754   */\n      0x04\n        /* \"#utility.yul\":4746:4761   */\n      mstore\n        /* \"#utility.yul\":4780:4784   */\n      0x24\n        /* \"#utility.yul\":4777:4778   */\n      0x00\n        /* \"#utility.yul\":4770:4785   */\n      revert\n        /* \"#utility.yul\":4920:5037   */\n    tag_53:\n        /* \"#utility.yul\":5029:5030   */\n      0x00\n        /* \"#utility.yul\":5026:5027   */\n      dup1\n        /* \"#utility.yul\":5019:5031   */\n      revert\n        /* \"#utility.yul\":5043:5145   */\n    tag_85:\n        /* \"#utility.yul\":5085:5093   */\n      0x00\n        /* \"#utility.yul\":5132:5137   */\n      dup2\n        /* \"#utility.yul\":5129:5130   */\n      0x01\n        /* \"#utility.yul\":5125:5138   */\n      shr\n        /* \"#utility.yul\":5104:5138   */\n      swap1\n      pop\n        /* \"#utility.yul\":5043:5145   */\n      swap2\n      swap1\n      pop\n      jump\t// out\n        /* \"#utility.yul\":5151:5273   */\n    tag_49:\n        /* \"#utility.yul\":5224:5248   */\n      tag_125\n        /* \"#utility.yul\":5242:5247   */\n      dup2\n        /* \"#utility.yul\":5224:5248   */\n      tag_59\n      jump\t// in\n    tag_125:\n        /* \"#utility.yul\":5217:5222   */\n      dup2\n        /* \"#utility.yul\":5214:5249   */\n      eq\n        /* \"#utility.yul\":5204:5267   */\n      tag_126\n      jumpi\n        /* \"#utility.yul\":5263:5264   */\n      0x00\n        /* \"#utility.yul\":5260:5261   */\n      dup1\n        /* \"#utility.yul\":5253:5265   */\n      revert\n        /* \"#utility.yul\":5204:5267   */\n    tag_126:\n        /* \"#utility.yul\":5151:5273   */\n      pop\n      jump\t// out\n\n    auxdata: 0xa26469706673582212206ab400521398624d0f90bdce9d7429db43f594c815802bc191f4bc659698fd1264736f6c63430008070033\n}\n",
				"bytecode": {
					"linkReferences": {},
					"object": "608060405234801561001057600080fd5b50610586806100206000396000f3fe608060405234801561001057600080fd5b50600436106100575760003560e01c80632e4c697f1461005c5780635d4e1e5c1461008c578063ba88c3b7146100bc578063cad0899b146100ec578063e00680521461011c575b600080fd5b610076600480360381019061007191906101cf565b61014c565b604051610083919061021e565b60405180910390f35b6100a660048036038101906100a191906101cf565b610162565b6040516100b3919061021e565b60405180910390f35b6100d660048036038101906100d191906101cf565b610178565b6040516100e3919061021e565b60405180910390f35b610106600480360381019061010191906101cf565b61018e565b604051610113919061021e565b60405180910390f35b610136600480360381019061013191906101cf565b6101a4565b604051610143919061021e565b60405180910390f35b6000818361015a9190610313565b905092915050565b60008183610170919061048b565b905092915050565b600081836101869190610431565b905092915050565b6000818361019c9190610239565b905092915050565b600081836101b2919061028f565b905092915050565b6000813590506101c981610539565b92915050565b600080604083850312156101e6576101e5610527565b5b60006101f4858286016101ba565b9250506020610205858286016101ba565b9150509250929050565b610218816104bf565b82525050565b6000602082019050610233600083018461020f565b92915050565b6000610244826104bf565b915061024f836104bf565b9250827fffffffffffffffffffffffffffffffffffffffffffffffffffffffffffffffff03821115610284576102836104c9565b5b828201905092915050565b600061029a826104bf565b91506102a5836104bf565b9250826102b5576102b46104f8565b5b828204905092915050565b6000808291508390505b600185111561030a578086048111156102e6576102e56104c9565b5b60018516156102f55780820291505b80810290506103038561052c565b94506102ca565b94509492505050565b600061031e826104bf565b9150610329836104bf565b92506103567fffffffffffffffffffffffffffffffffffffffffffffffffffffffffffffffff848461035e565b905092915050565b60008261036e576001905061042a565b8161037c576000905061042a565b8160018114610392576002811461039c576103cb565b600191505061042a565b60ff8411156103ae576103ad6104c9565b5b8360020a9150848211156103c5576103c46104c9565b5b5061042a565b5060208310610133831016604e8410600b84101617156104005782820a9050838111156103fb576103fa6104c9565b5b61042a565b61040d84848460016102c0565b92509050818404811115610424576104236104c9565b5b81810290505b9392505050565b600061043c826104bf565b9150610447836104bf565b9250817fffffffffffffffffffffffffffffffffffffffffffffffffffffffffffffffff04831182151516156104805761047f6104c9565b5b828202905092915050565b6000610496826104bf565b91506104a1836104bf565b9250828210156104b4576104b36104c9565b5b828203905092915050565b6000819050919050565b7f4e487b7100000000000000000000000000000000000000000000000000000000600052601160045260246000fd5b7f4e487b7100000000000000000000000000000000000000000000000000000000600052601260045260246000fd5b600080fd5b60008160011c9050919050565b610542816104bf565b811461054d57600080fd5b5056fea26469706673582212206ab400521398624d0f90bdce9d7429db43f594c815802bc191f4bc659698fd1264736f6c63430008070033",
					"opcodes": "PUSH1 0x80 PUSH1 0x40 MSTORE CALLVALUE DUP1 ISZERO PUSH2 0x10 JUMPI PUSH1 0x0 DUP1 REVERT JUMPDEST POP PUSH2 0x586 DUP1 PUSH2 0x20 PUSH1 0x0 CODECOPY PUSH1 0x0 RETURN INVALID PUSH1 0x80 PUSH1 0x40 MSTORE CALLVALUE DUP1 ISZERO PUSH2 0x10 JUMPI PUSH1 0x0 DUP1 REVERT JUMPDEST POP PUSH1 0x4 CALLDATASIZE LT PUSH2 0x57 JUMPI PUSH1 0x0 CALLDATALOAD PUSH1 0xE0 SHR DUP1 PUSH4 0x2E4C697F EQ PUSH2 0x5C JUMPI DUP1 PUSH4 0x5D4E1E5C EQ PUSH2 0x8C JUMPI DUP1 PUSH4 0xBA88C3B7 EQ PUSH2 0xBC JUMPI DUP1 PUSH4 0xCAD0899B EQ PUSH2 0xEC JUMPI DUP1 PUSH4 0xE0068052 EQ PUSH2 0x11C JUMPI JUMPDEST PUSH1 0x0 DUP1 REVERT JUMPDEST PUSH2 0x76 PUSH1 0x4 DUP1 CALLDATASIZE SUB DUP2 ADD SWAP1 PUSH2 0x71 SWAP2 SWAP1 PUSH2 0x1CF JUMP JUMPDEST PUSH2 0x14C JUMP JUMPDEST PUSH1 0x40 MLOAD PUSH2 0x83 SWAP2 SWAP1 PUSH2 0x21E JUMP JUMPDEST PUSH1 0x40 MLOAD DUP1 SWAP2 SUB SWAP1 RETURN JUMPDEST PUSH2 0xA6 PUSH1 0x4 DUP1 CALLDATASIZE SUB DUP2 ADD SWAP1 PUSH2 0xA1 SWAP2 SWAP1 PUSH2 0x1CF JUMP JUMPDEST PUSH2 0x162 JUMP JUMPDEST PUSH1 0x40 MLOAD PUSH2 0xB3 SWAP2 SWAP1 PUSH2 0x21E JUMP JUMPDEST PUSH1 0x40 MLOAD DUP1 SWAP2 SUB SWAP1 RETURN JUMPDEST PUSH2 0xD6 PUSH1 0x4 DUP1 CALLDATASIZE SUB DUP2 ADD SWAP1 PUSH2 0xD1 SWAP2 SWAP1 PUSH2 0x1CF JUMP JUMPDEST PUSH2 0x178 JUMP JUMPDEST PUSH1 0x40 MLOAD PUSH2 0xE3 SWAP2 SWAP1 PUSH2 0x21E JUMP JUMPDEST PUSH1 0x40 MLOAD DUP1 SWAP2 SUB SWAP1 RETURN JUMPDEST PUSH2 0x106 PUSH1 0x4 DUP1 CALLDATASIZE SUB DUP2 ADD SWAP1 PUSH2 0x101 SWAP2 SWAP1 PUSH2 0x1CF JUMP JUMPDEST PUSH2 0x18E JUMP JUMPDEST PUSH1 0x40 MLOAD PUSH2 0x113 SWAP2 SWAP1 PUSH2 0x21E JUMP JUMPDEST PUSH1 0x40 MLOAD DUP1 SWAP2 SUB SWAP1 RETURN JUMPDEST PUSH2 0x136 PUSH1 0x4 DUP1 CALLDATASIZE SUB DUP2 ADD SWAP1 PUSH2 0x131 SWAP2 SWAP1 PUSH2 0x1CF JUMP JUMPDEST PUSH2 0x1A4 JUMP JUMPDEST PUSH1 0x40 MLOAD PUSH2 0x143 SWAP2 SWAP1 PUSH2 0x21E JUMP JUMPDEST PUSH1 0x40 MLOAD DUP1 SWAP2 SUB SWAP1 RETURN JUMPDEST PUSH1 0x0 DUP2 DUP4 PUSH2 0x15A SWAP2 SWAP1 PUSH2 0x313 JUMP JUMPDEST SWAP1 POP SWAP3 SWAP2 POP POP JUMP JUMPDEST PUSH1 0x0 DUP2 DUP4 PUSH2 0x170 SWAP2 SWAP1 PUSH2 0x48B JUMP JUMPDEST SWAP1 POP SWAP3 SWAP2 POP POP JUMP JUMPDEST PUSH1 0x0 DUP2 DUP4 PUSH2 0x186 SWAP2 SWAP1 PUSH2 0x431 JUMP JUMPDEST SWAP1 POP SWAP3 SWAP2 POP POP JUMP JUMPDEST PUSH1 0x0 DUP2 DUP4 PUSH2 0x19C SWAP2 SWAP1 PUSH2 0x239 JUMP JUMPDEST SWAP1 POP SWAP3 SWAP2 POP POP JUMP JUMPDEST PUSH1 0x0 DUP2 DUP4 PUSH2 0x1B2 SWAP2 SWAP1 PUSH2 0x28F JUMP JUMPDEST SWAP1 POP SWAP3 SWAP2 POP POP JUMP JUMPDEST PUSH1 0x0 DUP2 CALLDATALOAD SWAP1 POP PUSH2 0x1C9 DUP2 PUSH2 0x539 JUMP JUMPDEST SWAP3 SWAP2 POP POP JUMP JUMPDEST PUSH1 0x0 DUP1 PUSH1 0x40 DUP4 DUP6 SUB SLT ISZERO PUSH2 0x1E6 JUMPI PUSH2 0x1E5 PUSH2 0x527 JUMP JUMPDEST JUMPDEST PUSH1 0x0 PUSH2 0x1F4 DUP6 DUP3 DUP7 ADD PUSH2 0x1BA JUMP JUMPDEST SWAP3 POP POP PUSH1 0x20 PUSH2 0x205 DUP6 DUP3 DUP7 ADD PUSH2 0x1BA JUMP JUMPDEST SWAP2 POP POP SWAP3 POP SWAP3 SWAP1 POP JUMP JUMPDEST PUSH2 0x218 DUP2 PUSH2 0x4BF JUMP JUMPDEST DUP3 MSTORE POP POP JUMP JUMPDEST PUSH1 0x0 PUSH1 0x20 DUP3 ADD SWAP1 POP PUSH2 0x233 PUSH1 0x0 DUP4 ADD DUP5 PUSH2 0x20F JUMP JUMPDEST SWAP3 SWAP2 POP POP JUMP JUMPDEST PUSH1 0x0 PUSH2 0x244 DUP3 PUSH2 0x4BF JUMP JUMPDEST SWAP2 POP PUSH2 0x24F DUP4 PUSH2 0x4BF JUMP JUMPDEST SWAP3 POP DUP3 PUSH32 0xFFFFFFFFFFFFFFFFFFFFFFFFFFFFFFFFFFFFFFFFFFFFFFFFFFFFFFFFFFFFFFFF SUB DUP3 GT ISZERO PUSH2 0x284 JUMPI PUSH2 0x283 PUSH2 0x4C9 JUMP JUMPDEST JUMPDEST DUP3 DUP3 ADD SWAP1 POP SWAP3 SWAP2 POP POP JUMP JUMPDEST PUSH1 0x0 PUSH2 0x29A DUP3 PUSH2 0x4BF JUMP JUMPDEST SWAP2 POP PUSH2 0x2A5 DUP4 PUSH2 0x4BF JUMP JUMPDEST SWAP3 POP DUP3 PUSH2 0x2B5 JUMPI PUSH2 0x2B4 PUSH2 0x4F8 JUMP JUMPDEST JUMPDEST DUP3 DUP3 DIV SWAP1 POP SWAP3 SWAP2 POP POP JUMP JUMPDEST PUSH1 0x0 DUP1 DUP3 SWAP2 POP DUP4 SWAP1 POP JUMPDEST PUSH1 0x1 DUP6 GT ISZERO PUSH2 0x30A JUMPI DUP1 DUP7 DIV DUP2 GT ISZERO PUSH2 0x2E6 JUMPI PUSH2 0x2E5 PUSH2 0x4C9 JUMP JUMPDEST JUMPDEST PUSH1 0x1 DUP6 AND ISZERO PUSH2 0x2F5 JUMPI DUP1 DUP3 MUL SWAP2 POP JUMPDEST DUP1 DUP2 MUL SWAP1 POP PUSH2 0x303 DUP6 PUSH2 0x52C JUMP JUMPDEST SWAP5 POP PUSH2 0x2CA JUMP JUMPDEST SWAP5 POP SWAP5 SWAP3 POP POP POP JUMP JUMPDEST PUSH1 0x0 PUSH2 0x31E DUP3 PUSH2 0x4BF JUMP JUMPDEST SWAP2 POP PUSH2 0x329 DUP4 PUSH2 0x4BF JUMP JUMPDEST SWAP3 POP PUSH2 0x356 PUSH32 0xFFFFFFFFFFFFFFFFFFFFFFFFFFFFFFFFFFFFFFFFFFFFFFFFFFFFFFFFFFFFFFFF DUP5 DUP5 PUSH2 0x35E JUMP JUMPDEST SWAP1 POP SWAP3 SWAP2 POP POP JUMP JUMPDEST PUSH1 0x0 DUP3 PUSH2 0x36E JUMPI PUSH1 0x1 SWAP1 POP PUSH2 0x42A JUMP JUMPDEST DUP2 PUSH2 0x37C JUMPI PUSH1 0x0 SWAP1 POP PUSH2 0x42A JUMP JUMPDEST DUP2 PUSH1 0x1 DUP2 EQ PUSH2 0x392 JUMPI PUSH1 0x2 DUP2 EQ PUSH2 0x39C JUMPI PUSH2 0x3CB JUMP JUMPDEST PUSH1 0x1 SWAP2 POP POP PUSH2 0x42A JUMP JUMPDEST PUSH1 0xFF DUP5 GT ISZERO PUSH2 0x3AE JUMPI PUSH2 0x3AD PUSH2 0x4C9 JUMP JUMPDEST JUMPDEST DUP4 PUSH1 0x2 EXP SWAP2 POP DUP5 DUP3 GT ISZERO PUSH2 0x3C5 JUMPI PUSH2 0x3C4 PUSH2 0x4C9 JUMP JUMPDEST JUMPDEST POP PUSH2 0x42A JUMP JUMPDEST POP PUSH1 0x20 DUP4 LT PUSH2 0x133 DUP4 LT AND PUSH1 0x4E DUP5 LT PUSH1 0xB DUP5 LT AND OR ISZERO PUSH2 0x400 JUMPI DUP3 DUP3 EXP SWAP1 POP DUP4 DUP2 GT ISZERO PUSH2 0x3FB JUMPI PUSH2 0x3FA PUSH2 0x4C9 JUMP JUMPDEST JUMPDEST PUSH2 0x42A JUMP JUMPDEST PUSH2 0x40D DUP5 DUP5 DUP5 PUSH1 0x1 PUSH2 0x2C0 JUMP JUMPDEST SWAP3 POP SWAP1 POP DUP2 DUP5 DIV DUP2 GT ISZERO PUSH2 0x424 JUMPI PUSH2 0x423 PUSH2 0x4C9 JUMP JUMPDEST JUMPDEST DUP2 DUP2 MUL SWAP1 POP JUMPDEST SWAP4 SWAP3 POP POP POP JUMP JUMPDEST PUSH1 0x0 PUSH2 0x43C DUP3 PUSH2 0x4BF JUMP JUMPDEST SWAP2 POP PUSH2 0x447 DUP4 PUSH2 0x4BF JUMP JUMPDEST SWAP3 POP DUP2 PUSH32 0xFFFFFFFFFFFFFFFFFFFFFFFFFFFFFFFFFFFFFFFFFFFFFFFFFFFFFFFFFFFFFFFF DIV DUP4 GT DUP3 ISZERO ISZERO AND ISZERO PUSH2 0x480 JUMPI PUSH2 0x47F PUSH2 0x4C9 JUMP JUMPDEST JUMPDEST DUP3 DUP3 MUL SWAP1 POP SWAP3 SWAP2 POP POP JUMP JUMPDEST PUSH1 0x0 PUSH2 0x496 DUP3 PUSH2 0x4BF JUMP JUMPDEST SWAP2 POP PUSH2 0x4A1 DUP4 PUSH2 0x4BF JUMP JUMPDEST SWAP3 POP DUP3 DUP3 LT ISZERO PUSH2 0x4B4 JUMPI PUSH2 0x4B3 PUSH2 0x4C9 JUMP JUMPDEST JUMPDEST DUP3 DUP3 SUB SWAP1 POP SWAP3 SWAP2 POP POP JUMP JUMPDEST PUSH1 0x0 DUP2 SWAP1 POP SWAP2 SWAP1 POP JUMP JUMPDEST PUSH32 0x4E487B7100000000000000000000000000000000000000000000000000000000 PUSH1 0x0 MSTORE PUSH1 0x11 PUSH1 0x4 MSTORE PUSH1 0x24 PUSH1 0x0 REVERT JUMPDEST PUSH32 0x4E487B7100000000000000000000000000000000000000000000000000000000 PUSH1 0x0 MSTORE PUSH1 0x12 PUSH1 0x4 MSTORE PUSH1 0x24 PUSH1 0x0 REVERT JUMPDEST PUSH1 0x0 DUP1 REVERT JUMPDEST PUSH1 0x0 DUP2 PUSH1 0x1 SHR SWAP1 POP SWAP2 SWAP1 POP JUMP JUMPDEST PUSH2 0x542 DUP2 PUSH2 0x4BF JUMP JUMPDEST DUP2 EQ PUSH2 0x54D JUMPI PUSH1 0x0 DUP1 REVERT JUMPDEST POP JUMP INVALID LOG2 PUSH5 0x6970667358 0x22 SLT KECCAK256 PUSH11 0xB400521398624D0F90BDCE SWAP14 PUSH21 0x29DB43F594C815802BC191F4BC659698FD1264736F PUSH13 0x63430008070033000000000000 "
				},
				"gasEstimates": {
					"creation": {
						"codeDepositCost": "282800",
						"executionCost": "324",
						"totalCost": "283124"
					},
					"external": {
						"division(uint256,uint256)": "infinite",
						"pow(uint256,uint256)": "infinite",
						"product(uint256,uint256)": "infinite",
						"substract(uint256,uint256)": "infinite",
						"sum(uint256,uint256)": "infinite"
					}
				},
				"methodIdentifiers": {
					"division(uint256,uint256)": "e0068052",
					"pow(uint256,uint256)": "2e4c697f",
					"product(uint256,uint256)": "ba88c3b7",
					"substract(uint256,uint256)": "5d4e1e5c",
					"sum(uint256,uint256)": "cad0899b"
				}
			},
			"storageLayout": {
				"storage": [],
				"types": null
			},
			"userdoc": {
				"kind": "user",
				"methods": {},
				"version": 1
			}
		}
	}
}