{
	"contracts/2_variable_modifiers.sol": {
		"VariableModifiers": {
			"abi": [
				{
					"inputs": [],
					"name": "boolFalse",
					"outputs": [
						{
							"internalType": "bool",
							"name": "",
							"type": "bool"
						}
					],
					"stateMutability": "view",
					"type": "function"
				},
				{
					"inputs": [],
					"name": "boolTrue",
					"outputs": [
						{
							"internalType": "bool",
							"name": "",
							"type": "bool"
						}
					],
					"stateMutability": "view",
					"type": "function"
				},
				{
					"inputs": [],
					"name": "c",
					"outputs": [
						{
							"internalType": "uint16",
							"name": "",
							"type": "uint16"
						}
					],
					"stateMutability": "view",
					"type": "function"
				},
				{
					"inputs": [],
					"name": "changeToAda",
					"outputs": [],
					"stateMutability": "nonpayable",
					"type": "function"
				},
				{
					"inputs": [],
					"name": "changeToBNB",
					"outputs": [],
					"stateMutability": "nonpayable",
					"type": "function"
				},
				{
					"inputs": [],
					"name": "changeToBTC",
					"outputs": [],
					"stateMutability": "nonpayable",
					"type": "function"
				},
				{
					"inputs": [],
					"name": "changeToEther",
					"outputs": [],
					"stateMutability": "nonpayable",
					"type": "function"
				},
				{
					"inputs": [],
					"name": "defaultChoice",
					"outputs": [
						{
							"internalType": "enum VariableModifiers.tokens",
							"name": "",
							"type": "uint8"
						}
					],
					"stateMutability": "view",
					"type": "function"
				},
				{
					"inputs": [],
					"name": "e",
					"outputs": [
						{
							"internalType": "int32",
							"name": "",
							"type": "int32"
						}
					],
					"stateMutability": "view",
					"type": "function"
				},
				{
					"inputs": [],
					"name": "friendAddress",
					"outputs": [
						{
							"internalType": "address",
							"name": "",
							"type": "address"
						}
					],
					"stateMutability": "view",
					"type": "function"
				},
				{
					"inputs": [],
					"name": "hash_keccak256",
					"outputs": [
						{
							"internalType": "bytes32",
							"name": "",
							"type": "bytes32"
						}
					],
					"stateMutability": "view",
					"type": "function"
				},
				{
					"inputs": [],
					"name": "hash_ripemd160",
					"outputs": [
						{
							"internalType": "bytes20",
							"name": "",
							"type": "bytes20"
						}
					],
					"stateMutability": "view",
					"type": "function"
				},
				{
					"inputs": [],
					"name": "hash_sha256",
					"outputs": [
						{
							"internalType": "bytes32",
							"name": "",
							"type": "bytes32"
						}
					],
					"stateMutability": "view",
					"type": "function"
				},
				{
					"inputs": [],
					"name": "owner",
					"outputs": [
						{
							"internalType": "address",
							"name": "",
							"type": "address"
						}
					],
					"stateMutability": "view",
					"type": "function"
				},
				{
					"inputs": [],
					"name": "pl",
					"outputs": [
						{
							"internalType": "string",
							"name": "",
							"type": "string"
						}
					],
					"stateMutability": "view",
					"type": "function"
				},
				{
					"inputs": [],
					"name": "state",
					"outputs": [
						{
							"internalType": "enum VariableModifiers.tokens",
							"name": "",
							"type": "uint8"
						}
					],
					"stateMutability": "view",
					"type": "function"
				},
				{
					"inputs": [],
					"name": "surname",
					"outputs": [
						{
							"internalType": "string",
							"name": "",
							"type": "string"
						}
					],
					"stateMutability": "view",
					"type": "function"
				}
			],
			"devdoc": {
				"kind": "dev",
				"methods": {},
				"version": 1
			},
			"evm": {
				"assembly": "    /* \"contracts/2_variable_modifiers.sol\":69:1444  contract VariableModifiers {... */\n  mstore(0x40, 0x80)\n    /* \"contracts/2_variable_modifiers.sol\":167:170  255 */\n  0xff\n    /* \"contracts/2_variable_modifiers.sol\":157:170  uint8 b = 255 */\n  0x01\n  exp(0x0100, 0x00)\n  dup2\n  sload\n  dup2\n  0xff\n  mul\n  not\n  and\n  swap1\n  dup4\n  0xff\n  and\n  mul\n  or\n  swap1\n  sstore\n  pop\n    /* \"contracts/2_variable_modifiers.sol\":194:197  811 */\n  0x032b\n    /* \"contracts/2_variable_modifiers.sol\":176:197  uint16 public c = 811 */\n  0x01\n  dup1\n  0x0100\n  exp\n  dup2\n  sload\n  dup2\n  0xffff\n  mul\n  not\n  and\n  swap1\n  dup4\n  0xffff\n  and\n  mul\n  or\n  swap1\n  sstore\n  pop\n    /* \"contracts/2_variable_modifiers.sol\":250:254  -255 */\n  0xffffffffffffffffffffffffffffffffffffffffffffffffffffffffffffff01\n    /* \"contracts/2_variable_modifiers.sol\":242:254  int d = -255 */\n  0x02\n  sstore\n    /* \"contracts/2_variable_modifiers.sol\":277:281  -255 */\n  0xffffffffffffffffffffffffffffffffffffffffffffffffffffffffffffff01\n    /* \"contracts/2_variable_modifiers.sol\":260:281  int32 public e = -255 */\n  0x03\n  exp(0x0100, 0x00)\n  dup2\n  sload\n  dup2\n  0xffffffff\n  mul\n  not\n  and\n  swap1\n  dup4\n  0x03\n  signextend\n  0xffffffff\n  and\n  mul\n  or\n  swap1\n  sstore\n  pop\n    /* \"contracts/2_variable_modifiers.sol\":329:352  string name = \"Roberto\" */\n  mload(0x40)\n  dup1\n  0x40\n  add\n  0x40\n  mstore\n  dup1\n  0x07\n  dup2\n  mstore\n  0x20\n  add\n  0x526f626572746f00000000000000000000000000000000000000000000000000\n  dup2\n  mstore\n  pop\n  0x05\n  swap1\n  dup1\n  mload\n  swap1\n  0x20\n  add\n  swap1\n  tag_1\n  swap3\n  swap2\n  swap1\n  tag_2\n  jump\t// in\ntag_1:\n  pop\n    /* \"contracts/2_variable_modifiers.sol\":358:387  string public pl = \"Solidity\" */\n  mload(0x40)\n  dup1\n  0x40\n  add\n  0x40\n  mstore\n  dup1\n  0x08\n  dup2\n  mstore\n  0x20\n  add\n  0x536f6c6964697479000000000000000000000000000000000000000000000000\n  dup2\n  mstore\n  pop\n  0x06\n  swap1\n  dup1\n  mload\n  swap1\n  0x20\n  add\n  swap1\n  tag_3\n  swap3\n  swap2\n  swap1\n  tag_2\n  jump\t// in\ntag_3:\n  pop\n    /* \"contracts/2_variable_modifiers.sol\":451:455  true */\n  0x01\n    /* \"contracts/2_variable_modifiers.sol\":428:455  bool public boolTrue = true */\n  0x07\n  exp(0x0100, 0x01)\n  dup2\n  sload\n  dup2\n  0xff\n  mul\n  not\n  and\n  swap1\n  dup4\n  iszero\n  iszero\n  mul\n  or\n  swap1\n  sstore\n  pop\n    /* \"contracts/2_variable_modifiers.sol\":485:490  false */\n  0x00\n    /* \"contracts/2_variable_modifiers.sol\":461:490  bool public boolFalse = false */\n  0x07\n  exp(0x0100, 0x02)\n  dup2\n  sload\n  dup2\n  0xff\n  mul\n  not\n  and\n  swap1\n  dup4\n  iszero\n  iszero\n  mul\n  or\n  swap1\n  sstore\n  pop\n    /* \"contracts/2_variable_modifiers.sol\":692:696  name */\n  0x05\n    /* \"contracts/2_variable_modifiers.sol\":698:705  surname */\n  0x04\n    /* \"contracts/2_variable_modifiers.sol\":675:706  abi.encodePacked(name, surname) */\n  add(0x20, mload(0x40))\n  tag_4\n  swap3\n  swap2\n  swap1\n  tag_5\n  jump\t// in\ntag_4:\n  mload(0x40)\n  0x20\n  dup2\n  dup4\n  sub\n  sub\n  dup2\n  mstore\n  swap1\n  0x40\n  mstore\n    /* \"contracts/2_variable_modifiers.sol\":665:707  keccak256(abi.encodePacked(name, surname)) */\n  dup1\n  mload\n  swap1\n  0x20\n  add\n  keccak256\n    /* \"contracts/2_variable_modifiers.sol\":633:707  bytes32 public hash_keccak256 = keccak256(abi.encodePacked(name, surname)) */\n  0x0b\n  sstore\n    /* \"contracts/2_variable_modifiers.sol\":742:796  sha256(abi.encodePacked(\"Henlo world\", int(32432432))) */\n  0x02\n    /* \"contracts/2_variable_modifiers.sol\":785:793  32432432 */\n  0x01eee130\n    /* \"contracts/2_variable_modifiers.sol\":749:795  abi.encodePacked(\"Henlo world\", int(32432432)) */\n  add(0x20, mload(0x40))\n  tag_6\n  swap2\n  swap1\n  tag_7\n  jump\t// in\ntag_6:\n  mload(0x40)\n  0x20\n  dup2\n  dup4\n  sub\n  sub\n  dup2\n  mstore\n  swap1\n  0x40\n  mstore\n    /* \"contracts/2_variable_modifiers.sol\":742:796  sha256(abi.encodePacked(\"Henlo world\", int(32432432))) */\n  mload(0x40)\n  tag_8\n  swap2\n  swap1\n  tag_9\n  jump\t// in\ntag_8:\n  0x20\n  mload(0x40)\n  dup1\n  dup4\n  sub\n  dup2\n  dup6\n  gas\n  staticcall\n  iszero\n  dup1\n  iszero\n  tag_11\n  jumpi\n  returndatasize\n  0x00\n  dup1\n  returndatacopy\n  revert(0x00, returndatasize)\ntag_11:\n  pop\n  pop\n  pop\n  mload(0x40)\n  returndatasize\n  not(0x1f)\n  0x1f\n  dup3\n  add\n  and\n  dup3\n  add\n  dup1\n  0x40\n  mstore\n  pop\n  dup2\n  add\n  swap1\n  tag_12\n  swap2\n  swap1\n  tag_13\n  jump\t// in\ntag_12:\n    /* \"contracts/2_variable_modifiers.sol\":713:796  bytes32 public hash_sha256 = sha256(abi.encodePacked(\"Henlo world\", int(32432432))) */\n  0x0c\n  sstore\n    /* \"contracts/2_variable_modifiers.sol\":834:858  ripemd160(\"Henlo world\") */\n  0x03\n  mload(0x40)\n  tag_14\n  swap1\n  tag_15\n  jump\t// in\ntag_14:\n  0x20\n  mload(0x40)\n  dup1\n  dup4\n  sub\n  dup2\n  dup6\n  gas\n  staticcall\n  iszero\n  dup1\n  iszero\n  tag_17\n  jumpi\n  returndatasize\n  0x00\n  dup1\n  returndatacopy\n  revert(0x00, returndatasize)\ntag_17:\n  pop\n  pop\n  pop\n  shl(0x60, mload(mload(0x40)))\n    /* \"contracts/2_variable_modifiers.sol\":802:858  bytes20 public hash_ripemd160 = ripemd160(\"Henlo world\") */\n  0x0d\n  exp(0x0100, 0x00)\n  dup2\n  sload\n  dup2\n  0xffffffffffffffffffffffffffffffffffffffff\n  mul\n  not\n  and\n  swap1\n  dup4\n  0x60\n  shr\n  mul\n  or\n  swap1\n  sstore\n  pop\n    /* \"contracts/2_variable_modifiers.sol\":934:976  0x5B38Da6a701c568545dCfcB03FcB875f56beddC4 */\n  0x5b38da6a701c568545dcfcb03fcb875f56beddc4\n    /* \"contracts/2_variable_modifiers.sol\":903:976  address public friendAddress = 0x5B38Da6a701c568545dCfcB03FcB875f56beddC4 */\n  0x0f\n  exp(0x0100, 0x00)\n  dup2\n  sload\n  dup2\n  0xffffffffffffffffffffffffffffffffffffffff\n  mul\n  not\n  and\n  swap1\n  dup4\n  0xffffffffffffffffffffffffffffffffffffffff\n  and\n  mul\n  or\n  swap1\n  sstore\n  pop\n    /* \"contracts/2_variable_modifiers.sol\":1005:1015  msg.sender */\n  caller\n    /* \"contracts/2_variable_modifiers.sol\":982:1015  address public owner = msg.sender */\n  0x10\n  exp(0x0100, 0x00)\n  dup2\n  sload\n  dup2\n  0xffffffffffffffffffffffffffffffffffffffff\n  mul\n  not\n  and\n  swap1\n  dup4\n  0xffffffffffffffffffffffffffffffffffffffff\n  and\n  mul\n  or\n  swap1\n  sstore\n  pop\n    /* \"contracts/2_variable_modifiers.sol\":69:1444  contract VariableModifiers {... */\n  callvalue\n  dup1\n  iszero\n  tag_18\n  jumpi\n  0x00\n  dup1\n  revert\ntag_18:\n  pop\n  jump(tag_19)\ntag_2:\n  dup3\n  dup1\n  sload\n  tag_20\n  swap1\n  tag_21\n  jump\t// in\ntag_20:\n  swap1\n  0x00\n  mstore\n  keccak256(0x00, 0x20)\n  swap1\n  0x1f\n  add\n  0x20\n  swap1\n  div\n  dup2\n  add\n  swap3\n  dup3\n  tag_23\n  jumpi\n  0x00\n  dup6\n  sstore\n  jump(tag_22)\ntag_23:\n  dup3\n  0x1f\n  lt\n  tag_24\n  jumpi\n  dup1\n  mload\n  not(0xff)\n  and\n  dup4\n  dup1\n  add\n  or\n  dup6\n  sstore\n  jump(tag_22)\ntag_24:\n  dup3\n  dup1\n  add\n  0x01\n  add\n  dup6\n  sstore\n  dup3\n  iszero\n  tag_22\n  jumpi\n  swap2\n  dup3\n  add\ntag_25:\n  dup3\n  dup2\n  gt\n  iszero\n  tag_26\n  jumpi\n  dup3\n  mload\n  dup3\n  sstore\n  swap2\n  0x20\n  add\n  swap2\n  swap1\n  0x01\n  add\n  swap1\n  jump(tag_25)\ntag_26:\ntag_22:\n  pop\n  swap1\n  pop\n  tag_27\n  swap2\n  swap1\n  tag_28\n  jump\t// in\ntag_27:\n  pop\n  swap1\n  jump\t// out\ntag_28:\ntag_29:\n  dup1\n  dup3\n  gt\n  iszero\n  tag_30\n  jumpi\n  0x00\n  dup2\n  0x00\n  swap1\n  sstore\n  pop\n  0x01\n  add\n  jump(tag_29)\ntag_30:\n  pop\n  swap1\n  jump\t// out\n    /* \"#utility.yul\":7:150   */\ntag_32:\n    /* \"#utility.yul\":64:69   */\n  0x00\n    /* \"#utility.yul\":95:101   */\n  dup2\n    /* \"#utility.yul\":89:102   */\n  mload\n    /* \"#utility.yul\":80:102   */\n  swap1\n  pop\n    /* \"#utility.yul\":111:144   */\n  tag_34\n    /* \"#utility.yul\":138:143   */\n  dup2\n    /* \"#utility.yul\":111:144   */\n  tag_35\n  jump\t// in\ntag_34:\n    /* \"#utility.yul\":70:150   */\n  swap3\n  swap2\n  pop\n  pop\n  jump\t// out\n    /* \"#utility.yul\":156:507   */\ntag_13:\n    /* \"#utility.yul\":226:232   */\n  0x00\n    /* \"#utility.yul\":275:277   */\n  0x20\n    /* \"#utility.yul\":263:272   */\n  dup3\n    /* \"#utility.yul\":254:261   */\n  dup5\n    /* \"#utility.yul\":250:273   */\n  sub\n    /* \"#utility.yul\":246:278   */\n  slt\n    /* \"#utility.yul\":243:245   */\n  iszero\n  tag_37\n  jumpi\n    /* \"#utility.yul\":281:360   */\n  tag_38\n  tag_39\n  jump\t// in\ntag_38:\n    /* \"#utility.yul\":243:245   */\ntag_37:\n    /* \"#utility.yul\":401:402   */\n  0x00\n    /* \"#utility.yul\":426:490   */\n  tag_40\n    /* \"#utility.yul\":482:489   */\n  dup5\n    /* \"#utility.yul\":473:479   */\n  dup3\n    /* \"#utility.yul\":462:471   */\n  dup6\n    /* \"#utility.yul\":458:480   */\n  add\n    /* \"#utility.yul\":426:490   */\n  tag_32\n  jump\t// in\ntag_40:\n    /* \"#utility.yul\":416:490   */\n  swap2\n  pop\n    /* \"#utility.yul\":372:500   */\n  pop\n    /* \"#utility.yul\":233:507   */\n  swap3\n  swap2\n  pop\n  pop\n  jump\t// out\n    /* \"#utility.yul\":513:886   */\ntag_41:\n    /* \"#utility.yul\":617:620   */\n  0x00\n    /* \"#utility.yul\":645:683   */\n  tag_43\n    /* \"#utility.yul\":677:682   */\n  dup3\n    /* \"#utility.yul\":645:683   */\n  tag_44\n  jump\t// in\ntag_43:\n    /* \"#utility.yul\":699:787   */\n  tag_45\n    /* \"#utility.yul\":780:786   */\n  dup2\n    /* \"#utility.yul\":775:778   */\n  dup6\n    /* \"#utility.yul\":699:787   */\n  tag_46\n  jump\t// in\ntag_45:\n    /* \"#utility.yul\":692:787   */\n  swap4\n  pop\n    /* \"#utility.yul\":796:848   */\n  tag_47\n    /* \"#utility.yul\":841:847   */\n  dup2\n    /* \"#utility.yul\":836:839   */\n  dup6\n    /* \"#utility.yul\":829:833   */\n  0x20\n    /* \"#utility.yul\":822:827   */\n  dup7\n    /* \"#utility.yul\":818:834   */\n  add\n    /* \"#utility.yul\":796:848   */\n  tag_48\n  jump\t// in\ntag_47:\n    /* \"#utility.yul\":873:879   */\n  dup1\n    /* \"#utility.yul\":868:871   */\n  dup5\n    /* \"#utility.yul\":864:880   */\n  add\n    /* \"#utility.yul\":857:880   */\n  swap2\n  pop\n    /* \"#utility.yul\":621:886   */\n  pop\n  swap3\n  swap2\n  pop\n  pop\n  jump\t// out\n    /* \"#utility.yul\":892:1045   */\ntag_49:\n    /* \"#utility.yul\":995:1038   */\n  tag_51\n    /* \"#utility.yul\":1014:1037   */\n  tag_52\n    /* \"#utility.yul\":1031:1036   */\n  dup3\n    /* \"#utility.yul\":1014:1037   */\n  tag_53\n  jump\t// in\ntag_52:\n    /* \"#utility.yul\":995:1038   */\n  tag_54\n  jump\t// in\ntag_51:\n    /* \"#utility.yul\":990:993   */\n  dup3\n    /* \"#utility.yul\":983:1039   */\n  mstore\n    /* \"#utility.yul\":973:1045   */\n  pop\n  pop\n  jump\t// out\n    /* \"#utility.yul\":1075:1920   */\ntag_55:\n    /* \"#utility.yul\":1178:1181   */\n  0x00\n    /* \"#utility.yul\":1215:1220   */\n  dup2\n    /* \"#utility.yul\":1209:1221   */\n  sload\n    /* \"#utility.yul\":1244:1280   */\n  tag_57\n    /* \"#utility.yul\":1270:1279   */\n  dup2\n    /* \"#utility.yul\":1244:1280   */\n  tag_21\n  jump\t// in\ntag_57:\n    /* \"#utility.yul\":1296:1385   */\n  tag_58\n    /* \"#utility.yul\":1378:1384   */\n  dup2\n    /* \"#utility.yul\":1373:1376   */\n  dup7\n    /* \"#utility.yul\":1296:1385   */\n  tag_59\n  jump\t// in\ntag_58:\n    /* \"#utility.yul\":1289:1385   */\n  swap5\n  pop\n    /* \"#utility.yul\":1416:1417   */\n  0x01\n    /* \"#utility.yul\":1405:1414   */\n  dup3\n    /* \"#utility.yul\":1401:1418   */\n  and\n    /* \"#utility.yul\":1432:1433   */\n  0x00\n    /* \"#utility.yul\":1427:1564   */\n  dup2\n  eq\n  tag_61\n  jumpi\n    /* \"#utility.yul\":1578:1579   */\n  0x01\n    /* \"#utility.yul\":1573:1914   */\n  dup2\n  eq\n  tag_62\n  jumpi\n    /* \"#utility.yul\":1394:1914   */\n  jump(tag_60)\n    /* \"#utility.yul\":1427:1564   */\ntag_61:\n    /* \"#utility.yul\":1511:1515   */\n  0xff\n    /* \"#utility.yul\":1507:1516   */\n  not\n    /* \"#utility.yul\":1496:1505   */\n  dup4\n    /* \"#utility.yul\":1492:1517   */\n  and\n    /* \"#utility.yul\":1487:1490   */\n  dup7\n    /* \"#utility.yul\":1480:1518   */\n  mstore\n    /* \"#utility.yul\":1547:1553   */\n  dup2\n    /* \"#utility.yul\":1542:1545   */\n  dup7\n    /* \"#utility.yul\":1538:1554   */\n  add\n    /* \"#utility.yul\":1531:1554   */\n  swap4\n  pop\n    /* \"#utility.yul\":1427:1564   */\n  jump(tag_60)\n    /* \"#utility.yul\":1573:1914   */\ntag_62:\n    /* \"#utility.yul\":1640:1678   */\n  tag_63\n    /* \"#utility.yul\":1672:1677   */\n  dup6\n    /* \"#utility.yul\":1640:1678   */\n  tag_64\n  jump\t// in\ntag_63:\n    /* \"#utility.yul\":1700:1701   */\n  0x00\n    /* \"#utility.yul\":1714:1868   */\ntag_65:\n    /* \"#utility.yul\":1728:1734   */\n  dup4\n    /* \"#utility.yul\":1725:1726   */\n  dup2\n    /* \"#utility.yul\":1722:1735   */\n  lt\n    /* \"#utility.yul\":1714:1868   */\n  iszero\n  tag_67\n  jumpi\n    /* \"#utility.yul\":1802:1809   */\n  dup2\n    /* \"#utility.yul\":1796:1810   */\n  sload\n    /* \"#utility.yul\":1792:1793   */\n  dup2\n    /* \"#utility.yul\":1787:1790   */\n  dup10\n    /* \"#utility.yul\":1783:1794   */\n  add\n    /* \"#utility.yul\":1776:1811   */\n  mstore\n    /* \"#utility.yul\":1852:1853   */\n  0x01\n    /* \"#utility.yul\":1843:1850   */\n  dup3\n    /* \"#utility.yul\":1839:1854   */\n  add\n    /* \"#utility.yul\":1828:1854   */\n  swap2\n  pop\n    /* \"#utility.yul\":1750:1754   */\n  0x20\n    /* \"#utility.yul\":1747:1748   */\n  dup2\n    /* \"#utility.yul\":1743:1755   */\n  add\n    /* \"#utility.yul\":1738:1755   */\n  swap1\n  pop\n    /* \"#utility.yul\":1714:1868   */\n  jump(tag_65)\ntag_67:\n    /* \"#utility.yul\":1897:1903   */\n  dup4\n    /* \"#utility.yul\":1892:1895   */\n  dup9\n    /* \"#utility.yul\":1888:1904   */\n  add\n    /* \"#utility.yul\":1881:1904   */\n  swap6\n  pop\n    /* \"#utility.yul\":1580:1914   */\n  pop\n  pop\n    /* \"#utility.yul\":1394:1914   */\ntag_60:\n  pop\n    /* \"#utility.yul\":1182:1920   */\n  pop\n  pop\n  swap3\n  swap2\n  pop\n  pop\n  jump\t// out\n    /* \"#utility.yul\":1926:2326   */\ntag_68:\n    /* \"#utility.yul\":2085:2088   */\n  0x00\n    /* \"#utility.yul\":2106:2190   */\n  tag_70\n    /* \"#utility.yul\":2187:2189   */\n  0x0b\n    /* \"#utility.yul\":2182:2185   */\n  dup4\n    /* \"#utility.yul\":2106:2190   */\n  tag_46\n  jump\t// in\ntag_70:\n    /* \"#utility.yul\":2099:2190   */\n  swap2\n  pop\n    /* \"#utility.yul\":2199:2292   */\n  tag_71\n    /* \"#utility.yul\":2288:2291   */\n  dup3\n    /* \"#utility.yul\":2199:2292   */\n  tag_72\n  jump\t// in\ntag_71:\n    /* \"#utility.yul\":2317:2319   */\n  0x0b\n    /* \"#utility.yul\":2312:2315   */\n  dup3\n    /* \"#utility.yul\":2308:2320   */\n  add\n    /* \"#utility.yul\":2301:2320   */\n  swap1\n  pop\n    /* \"#utility.yul\":2089:2326   */\n  swap2\n  swap1\n  pop\n  jump\t// out\n    /* \"#utility.yul\":2332:2734   */\ntag_73:\n    /* \"#utility.yul\":2492:2495   */\n  0x00\n    /* \"#utility.yul\":2513:2598   */\n  tag_75\n    /* \"#utility.yul\":2595:2597   */\n  0x0b\n    /* \"#utility.yul\":2590:2593   */\n  dup4\n    /* \"#utility.yul\":2513:2598   */\n  tag_59\n  jump\t// in\ntag_75:\n    /* \"#utility.yul\":2506:2598   */\n  swap2\n  pop\n    /* \"#utility.yul\":2607:2700   */\n  tag_76\n    /* \"#utility.yul\":2696:2699   */\n  dup3\n    /* \"#utility.yul\":2607:2700   */\n  tag_72\n  jump\t// in\ntag_76:\n    /* \"#utility.yul\":2725:2727   */\n  0x0b\n    /* \"#utility.yul\":2720:2723   */\n  dup3\n    /* \"#utility.yul\":2716:2728   */\n  add\n    /* \"#utility.yul\":2709:2728   */\n  swap1\n  pop\n    /* \"#utility.yul\":2496:2734   */\n  swap2\n  swap1\n  pop\n  jump\t// out\n    /* \"#utility.yul\":2740:3011   */\ntag_9:\n    /* \"#utility.yul\":2870:2873   */\n  0x00\n    /* \"#utility.yul\":2892:2985   */\n  tag_78\n    /* \"#utility.yul\":2981:2984   */\n  dup3\n    /* \"#utility.yul\":2972:2978   */\n  dup5\n    /* \"#utility.yul\":2892:2985   */\n  tag_41\n  jump\t// in\ntag_78:\n    /* \"#utility.yul\":2885:2985   */\n  swap2\n  pop\n    /* \"#utility.yul\":3002:3005   */\n  dup2\n    /* \"#utility.yul\":2995:3005   */\n  swap1\n  pop\n    /* \"#utility.yul\":2874:3011   */\n  swap3\n  swap2\n  pop\n  pop\n  jump\t// out\n    /* \"#utility.yul\":3017:3440   */\ntag_5:\n    /* \"#utility.yul\":3191:3194   */\n  0x00\n    /* \"#utility.yul\":3213:3305   */\n  tag_80\n    /* \"#utility.yul\":3301:3304   */\n  dup3\n    /* \"#utility.yul\":3292:3298   */\n  dup6\n    /* \"#utility.yul\":3213:3305   */\n  tag_55\n  jump\t// in\ntag_80:\n    /* \"#utility.yul\":3206:3305   */\n  swap2\n  pop\n    /* \"#utility.yul\":3322:3414   */\n  tag_81\n    /* \"#utility.yul\":3410:3413   */\n  dup3\n    /* \"#utility.yul\":3401:3407   */\n  dup5\n    /* \"#utility.yul\":3322:3414   */\n  tag_55\n  jump\t// in\ntag_81:\n    /* \"#utility.yul\":3315:3414   */\n  swap2\n  pop\n    /* \"#utility.yul\":3431:3434   */\n  dup2\n    /* \"#utility.yul\":3424:3434   */\n  swap1\n  pop\n    /* \"#utility.yul\":3195:3440   */\n  swap4\n  swap3\n  pop\n  pop\n  pop\n  jump\t// out\n    /* \"#utility.yul\":3446:3825   */\ntag_15:\n    /* \"#utility.yul\":3630:3633   */\n  0x00\n    /* \"#utility.yul\":3652:3799   */\n  tag_83\n    /* \"#utility.yul\":3795:3798   */\n  dup3\n    /* \"#utility.yul\":3652:3799   */\n  tag_68\n  jump\t// in\ntag_83:\n    /* \"#utility.yul\":3645:3799   */\n  swap2\n  pop\n    /* \"#utility.yul\":3816:3819   */\n  dup2\n    /* \"#utility.yul\":3809:3819   */\n  swap1\n  pop\n    /* \"#utility.yul\":3634:3825   */\n  swap2\n  swap1\n  pop\n  jump\t// out\n    /* \"#utility.yul\":3831:4349   */\ntag_7:\n    /* \"#utility.yul\":4042:4045   */\n  0x00\n    /* \"#utility.yul\":4064:4212   */\n  tag_85\n    /* \"#utility.yul\":4208:4211   */\n  dup3\n    /* \"#utility.yul\":4064:4212   */\n  tag_73\n  jump\t// in\ntag_85:\n    /* \"#utility.yul\":4057:4212   */\n  swap2\n  pop\n    /* \"#utility.yul\":4222:4295   */\n  tag_86\n    /* \"#utility.yul\":4291:4294   */\n  dup3\n    /* \"#utility.yul\":4282:4288   */\n  dup5\n    /* \"#utility.yul\":4222:4295   */\n  tag_49\n  jump\t// in\ntag_86:\n    /* \"#utility.yul\":4320:4322   */\n  0x20\n    /* \"#utility.yul\":4315:4318   */\n  dup3\n    /* \"#utility.yul\":4311:4323   */\n  add\n    /* \"#utility.yul\":4304:4323   */\n  swap2\n  pop\n    /* \"#utility.yul\":4340:4343   */\n  dup2\n    /* \"#utility.yul\":4333:4343   */\n  swap1\n  pop\n    /* \"#utility.yul\":4046:4349   */\n  swap3\n  swap2\n  pop\n  pop\n  jump\t// out\n    /* \"#utility.yul\":4436:4577   */\ntag_64:\n    /* \"#utility.yul\":4485:4489   */\n  0x00\n    /* \"#utility.yul\":4508:4511   */\n  dup2\n    /* \"#utility.yul\":4500:4511   */\n  swap1\n  pop\n    /* \"#utility.yul\":4531:4534   */\n  dup2\n    /* \"#utility.yul\":4528:4529   */\n  0x00\n    /* \"#utility.yul\":4521:4535   */\n  mstore\n    /* \"#utility.yul\":4565:4569   */\n  0x20\n    /* \"#utility.yul\":4562:4563   */\n  0x00\n    /* \"#utility.yul\":4552:4570   */\n  keccak256\n    /* \"#utility.yul\":4544:4570   */\n  swap1\n  pop\n    /* \"#utility.yul\":4490:4577   */\n  swap2\n  swap1\n  pop\n  jump\t// out\n    /* \"#utility.yul\":4583:4681   */\ntag_44:\n    /* \"#utility.yul\":4634:4640   */\n  0x00\n    /* \"#utility.yul\":4668:4673   */\n  dup2\n    /* \"#utility.yul\":4662:4674   */\n  mload\n    /* \"#utility.yul\":4652:4674   */\n  swap1\n  pop\n    /* \"#utility.yul\":4641:4681   */\n  swap2\n  swap1\n  pop\n  jump\t// out\n    /* \"#utility.yul\":4687:4834   */\ntag_46:\n    /* \"#utility.yul\":4788:4799   */\n  0x00\n    /* \"#utility.yul\":4825:4828   */\n  dup2\n    /* \"#utility.yul\":4810:4828   */\n  swap1\n  pop\n    /* \"#utility.yul\":4800:4834   */\n  swap3\n  swap2\n  pop\n  pop\n  jump\t// out\n    /* \"#utility.yul\":4840:4988   */\ntag_59:\n    /* \"#utility.yul\":4942:4953   */\n  0x00\n    /* \"#utility.yul\":4979:4982   */\n  dup2\n    /* \"#utility.yul\":4964:4982   */\n  swap1\n  pop\n    /* \"#utility.yul\":4954:4988   */\n  swap3\n  swap2\n  pop\n  pop\n  jump\t// out\n    /* \"#utility.yul\":4994:5071   */\ntag_93:\n    /* \"#utility.yul\":5031:5038   */\n  0x00\n    /* \"#utility.yul\":5060:5065   */\n  dup2\n    /* \"#utility.yul\":5049:5065   */\n  swap1\n  pop\n    /* \"#utility.yul\":5039:5071   */\n  swap2\n  swap1\n  pop\n  jump\t// out\n    /* \"#utility.yul\":5077:5153   */\ntag_53:\n    /* \"#utility.yul\":5113:5120   */\n  0x00\n    /* \"#utility.yul\":5142:5147   */\n  dup2\n    /* \"#utility.yul\":5131:5147   */\n  swap1\n  pop\n    /* \"#utility.yul\":5121:5153   */\n  swap2\n  swap1\n  pop\n  jump\t// out\n    /* \"#utility.yul\":5159:5466   */\ntag_48:\n    /* \"#utility.yul\":5227:5228   */\n  0x00\n    /* \"#utility.yul\":5237:5350   */\ntag_97:\n    /* \"#utility.yul\":5251:5257   */\n  dup4\n    /* \"#utility.yul\":5248:5249   */\n  dup2\n    /* \"#utility.yul\":5245:5258   */\n  lt\n    /* \"#utility.yul\":5237:5350   */\n  iszero\n  tag_99\n  jumpi\n    /* \"#utility.yul\":5336:5337   */\n  dup1\n    /* \"#utility.yul\":5331:5334   */\n  dup3\n    /* \"#utility.yul\":5327:5338   */\n  add\n    /* \"#utility.yul\":5321:5339   */\n  mload\n    /* \"#utility.yul\":5317:5318   */\n  dup2\n    /* \"#utility.yul\":5312:5315   */\n  dup5\n    /* \"#utility.yul\":5308:5319   */\n  add\n    /* \"#utility.yul\":5301:5340   */\n  mstore\n    /* \"#utility.yul\":5273:5275   */\n  0x20\n    /* \"#utility.yul\":5270:5271   */\n  dup2\n    /* \"#utility.yul\":5266:5276   */\n  add\n    /* \"#utility.yul\":5261:5276   */\n  swap1\n  pop\n    /* \"#utility.yul\":5237:5350   */\n  jump(tag_97)\ntag_99:\n    /* \"#utility.yul\":5368:5374   */\n  dup4\n    /* \"#utility.yul\":5365:5366   */\n  dup2\n    /* \"#utility.yul\":5362:5375   */\n  gt\n    /* \"#utility.yul\":5359:5361   */\n  iszero\n  tag_100\n  jumpi\n    /* \"#utility.yul\":5448:5449   */\n  0x00\n    /* \"#utility.yul\":5439:5445   */\n  dup5\n    /* \"#utility.yul\":5434:5437   */\n  dup5\n    /* \"#utility.yul\":5430:5446   */\n  add\n    /* \"#utility.yul\":5423:5450   */\n  mstore\n    /* \"#utility.yul\":5359:5361   */\ntag_100:\n    /* \"#utility.yul\":5208:5466   */\n  pop\n  pop\n  pop\n  pop\n  jump\t// out\n    /* \"#utility.yul\":5472:5792   */\ntag_21:\n    /* \"#utility.yul\":5516:5522   */\n  0x00\n    /* \"#utility.yul\":5553:5554   */\n  0x02\n    /* \"#utility.yul\":5547:5551   */\n  dup3\n    /* \"#utility.yul\":5543:5555   */\n  div\n    /* \"#utility.yul\":5533:5555   */\n  swap1\n  pop\n    /* \"#utility.yul\":5600:5601   */\n  0x01\n    /* \"#utility.yul\":5594:5598   */\n  dup3\n    /* \"#utility.yul\":5590:5602   */\n  and\n    /* \"#utility.yul\":5621:5639   */\n  dup1\n    /* \"#utility.yul\":5611:5613   */\n  tag_102\n  jumpi\n    /* \"#utility.yul\":5677:5681   */\n  0x7f\n    /* \"#utility.yul\":5669:5675   */\n  dup3\n    /* \"#utility.yul\":5665:5682   */\n  and\n    /* \"#utility.yul\":5655:5682   */\n  swap2\n  pop\n    /* \"#utility.yul\":5611:5613   */\ntag_102:\n    /* \"#utility.yul\":5739:5741   */\n  0x20\n    /* \"#utility.yul\":5731:5737   */\n  dup3\n    /* \"#utility.yul\":5728:5742   */\n  lt\n    /* \"#utility.yul\":5708:5726   */\n  dup2\n    /* \"#utility.yul\":5705:5743   */\n  eq\n    /* \"#utility.yul\":5702:5704   */\n  iszero\n  tag_103\n  jumpi\n    /* \"#utility.yul\":5758:5776   */\n  tag_104\n  tag_105\n  jump\t// in\ntag_104:\n    /* \"#utility.yul\":5702:5704   */\ntag_103:\n    /* \"#utility.yul\":5523:5792   */\n  pop\n  swap2\n  swap1\n  pop\n  jump\t// out\n    /* \"#utility.yul\":5798:5876   */\ntag_54:\n    /* \"#utility.yul\":5836:5843   */\n  0x00\n    /* \"#utility.yul\":5865:5870   */\n  dup2\n    /* \"#utility.yul\":5854:5870   */\n  swap1\n  pop\n    /* \"#utility.yul\":5844:5876   */\n  swap2\n  swap1\n  pop\n  jump\t// out\n    /* \"#utility.yul\":5882:6062   */\ntag_105:\n    /* \"#utility.yul\":5930:6007   */\n  0x4e487b7100000000000000000000000000000000000000000000000000000000\n    /* \"#utility.yul\":5927:5928   */\n  0x00\n    /* \"#utility.yul\":5920:6008   */\n  mstore\n    /* \"#utility.yul\":6027:6031   */\n  0x22\n    /* \"#utility.yul\":6024:6025   */\n  0x04\n    /* \"#utility.yul\":6017:6032   */\n  mstore\n    /* \"#utility.yul\":6051:6055   */\n  0x24\n    /* \"#utility.yul\":6048:6049   */\n  0x00\n    /* \"#utility.yul\":6041:6056   */\n  revert\n    /* \"#utility.yul\":6191:6308   */\ntag_39:\n    /* \"#utility.yul\":6300:6301   */\n  0x00\n    /* \"#utility.yul\":6297:6298   */\n  dup1\n    /* \"#utility.yul\":6290:6302   */\n  revert\n    /* \"#utility.yul\":6314:6475   */\ntag_72:\n    /* \"#utility.yul\":6454:6467   */\n  0x48656e6c6f20776f726c64000000000000000000000000000000000000000000\n    /* \"#utility.yul\":6450:6451   */\n  0x00\n    /* \"#utility.yul\":6442:6448   */\n  dup3\n    /* \"#utility.yul\":6438:6452   */\n  add\n    /* \"#utility.yul\":6431:6468   */\n  mstore\n    /* \"#utility.yul\":6420:6475   */\n  pop\n  jump\t// out\n    /* \"#utility.yul\":6481:6603   */\ntag_35:\n    /* \"#utility.yul\":6554:6578   */\n  tag_113\n    /* \"#utility.yul\":6572:6577   */\n  dup2\n    /* \"#utility.yul\":6554:6578   */\n  tag_93\n  jump\t// in\ntag_113:\n    /* \"#utility.yul\":6547:6552   */\n  dup2\n    /* \"#utility.yul\":6544:6579   */\n  eq\n    /* \"#utility.yul\":6534:6536   */\n  tag_114\n  jumpi\n    /* \"#utility.yul\":6593:6594   */\n  0x00\n    /* \"#utility.yul\":6590:6591   */\n  dup1\n    /* \"#utility.yul\":6583:6595   */\n  revert\n    /* \"#utility.yul\":6534:6536   */\ntag_114:\n    /* \"#utility.yul\":6524:6603   */\n  pop\n  jump\t// out\n    /* \"contracts/2_variable_modifiers.sol\":69:1444  contract VariableModifiers {... */\ntag_19:\n  dataSize(sub_0)\n  dup1\n  dataOffset(sub_0)\n  0x00\n  codecopy\n  0x00\n  return\nstop\n\nsub_0: assembly {\n        /* \"contracts/2_variable_modifiers.sol\":69:1444  contract VariableModifiers {... */\n      mstore(0x40, 0x80)\n      callvalue\n      dup1\n      iszero\n      tag_1\n      jumpi\n      0x00\n      dup1\n      revert\n    tag_1:\n      pop\n      jumpi(tag_2, lt(calldatasize, 0x04))\n      shr(0xe0, calldataload(0x00))\n      dup1\n      0x91d101af\n      gt\n      tag_20\n      jumpi\n      dup1\n      0xc3da42b8\n      gt\n      tag_21\n      jumpi\n      dup1\n      0xc3da42b8\n      eq\n      tag_15\n      jumpi\n      dup1\n      0xc4370ebf\n      eq\n      tag_16\n      jumpi\n      dup1\n      0xcd99a846\n      eq\n      tag_17\n      jumpi\n      dup1\n      0xff4479d8\n      eq\n      tag_18\n      jumpi\n      dup1\n      0xffae15ba\n      eq\n      tag_19\n      jumpi\n      jump(tag_2)\n    tag_21:\n      dup1\n      0x91d101af\n      eq\n      tag_11\n      jumpi\n      dup1\n      0xaf0c2ea7\n      eq\n      tag_12\n      jumpi\n      dup1\n      0xb38fee92\n      eq\n      tag_13\n      jumpi\n      dup1\n      0xc19d93fb\n      eq\n      tag_14\n      jumpi\n      jump(tag_2)\n    tag_20:\n      dup1\n      0x62b57af4\n      gt\n      tag_22\n      jumpi\n      dup1\n      0x62b57af4\n      eq\n      tag_7\n      jumpi\n      dup1\n      0x66e41d20\n      eq\n      tag_8\n      jumpi\n      dup1\n      0x8da5cb5b\n      eq\n      tag_9\n      jumpi\n      dup1\n      0x90e1437c\n      eq\n      tag_10\n      jumpi\n      jump(tag_2)\n    tag_22:\n      dup1\n      0x0b9239fb\n      eq\n      tag_3\n      jumpi\n      dup1\n      0x222a90ac\n      eq\n      tag_4\n      jumpi\n      dup1\n      0x42fb0109\n      eq\n      tag_5\n      jumpi\n      dup1\n      0x5c480680\n      eq\n      tag_6\n      jumpi\n    tag_2:\n      0x00\n      dup1\n      revert\n        /* \"contracts/2_variable_modifiers.sol\":903:976  address public friendAddress = 0x5B38Da6a701c568545dCfcB03FcB875f56beddC4 */\n    tag_3:\n      tag_23\n      tag_24\n      jump\t// in\n    tag_23:\n      mload(0x40)\n      tag_25\n      swap2\n      swap1\n      tag_26\n      jump\t// in\n    tag_25:\n      mload(0x40)\n      dup1\n      swap2\n      sub\n      swap1\n      return\n        /* \"contracts/2_variable_modifiers.sol\":461:490  bool public boolFalse = false */\n    tag_4:\n      tag_27\n      tag_28\n      jump\t// in\n    tag_27:\n      mload(0x40)\n      tag_29\n      swap2\n      swap1\n      tag_30\n      jump\t// in\n    tag_29:\n      mload(0x40)\n      dup1\n      swap2\n      sub\n      swap1\n      return\n        /* \"contracts/2_variable_modifiers.sol\":428:455  bool public boolTrue = true */\n    tag_5:\n      tag_31\n      tag_32\n      jump\t// in\n    tag_31:\n      mload(0x40)\n      tag_33\n      swap2\n      swap1\n      tag_30\n      jump\t// in\n    tag_33:\n      mload(0x40)\n      dup1\n      swap2\n      sub\n      swap1\n      return\n        /* \"contracts/2_variable_modifiers.sol\":633:707  bytes32 public hash_keccak256 = keccak256(abi.encodePacked(name, surname)) */\n    tag_6:\n      tag_34\n      tag_35\n      jump\t// in\n    tag_34:\n      mload(0x40)\n      tag_36\n      swap2\n      swap1\n      tag_37\n      jump\t// in\n    tag_36:\n      mload(0x40)\n      dup1\n      swap2\n      sub\n      swap1\n      return\n        /* \"contracts/2_variable_modifiers.sol\":1235:1300  function changeToAda() public {... */\n    tag_7:\n      tag_38\n      tag_39\n      jump\t// in\n    tag_38:\n      stop\n        /* \"contracts/2_variable_modifiers.sol\":713:796  bytes32 public hash_sha256 = sha256(abi.encodePacked(\"Henlo world\", int(32432432))) */\n    tag_8:\n      tag_40\n      tag_41\n      jump\t// in\n    tag_40:\n      mload(0x40)\n      tag_42\n      swap2\n      swap1\n      tag_37\n      jump\t// in\n    tag_42:\n      mload(0x40)\n      dup1\n      swap2\n      sub\n      swap1\n      return\n        /* \"contracts/2_variable_modifiers.sol\":982:1015  address public owner = msg.sender */\n    tag_9:\n      tag_43\n      tag_44\n      jump\t// in\n    tag_43:\n      mload(0x40)\n      tag_45\n      swap2\n      swap1\n      tag_26\n      jump\t// in\n    tag_45:\n      mload(0x40)\n      dup1\n      swap2\n      sub\n      swap1\n      return\n        /* \"contracts/2_variable_modifiers.sol\":358:387  string public pl = \"Solidity\" */\n    tag_10:\n      tag_46\n      tag_47\n      jump\t// in\n    tag_46:\n      mload(0x40)\n      tag_48\n      swap2\n      swap1\n      tag_49\n      jump\t// in\n    tag_48:\n      mload(0x40)\n      dup1\n      swap2\n      sub\n      swap1\n      return\n        /* \"contracts/2_variable_modifiers.sol\":1377:1442  function changeToBTC() public {... */\n    tag_11:\n      tag_50\n      tag_51\n      jump\t// in\n    tag_50:\n      stop\n        /* \"contracts/2_variable_modifiers.sol\":802:858  bytes20 public hash_ripemd160 = ripemd160(\"Henlo world\") */\n    tag_12:\n      tag_52\n      tag_53\n      jump\t// in\n    tag_52:\n      mload(0x40)\n      tag_54\n      swap2\n      swap1\n      tag_55\n      jump\t// in\n    tag_54:\n      mload(0x40)\n      dup1\n      swap2\n      sub\n      swap1\n      return\n        /* \"contracts/2_variable_modifiers.sol\":302:323  string public surname */\n    tag_13:\n      tag_56\n      tag_57\n      jump\t// in\n    tag_56:\n      mload(0x40)\n      tag_58\n      swap2\n      swap1\n      tag_49\n      jump\t// in\n    tag_58:\n      mload(0x40)\n      dup1\n      swap2\n      sub\n      swap1\n      return\n        /* \"contracts/2_variable_modifiers.sol\":1134:1153  tokens public state */\n    tag_14:\n      tag_59\n      tag_60\n      jump\t// in\n    tag_59:\n      mload(0x40)\n      tag_61\n      swap2\n      swap1\n      tag_62\n      jump\t// in\n    tag_61:\n      mload(0x40)\n      dup1\n      swap2\n      sub\n      swap1\n      return\n        /* \"contracts/2_variable_modifiers.sol\":176:197  uint16 public c = 811 */\n    tag_15:\n      tag_63\n      tag_64\n      jump\t// in\n    tag_63:\n      mload(0x40)\n      tag_65\n      swap2\n      swap1\n      tag_66\n      jump\t// in\n    tag_65:\n      mload(0x40)\n      dup1\n      swap2\n      sub\n      swap1\n      return\n        /* \"contracts/2_variable_modifiers.sol\":1306:1371  function changeToBNB() public {... */\n    tag_16:\n      tag_67\n      tag_68\n      jump\t// in\n    tag_67:\n      stop\n        /* \"contracts/2_variable_modifiers.sol\":1079:1128  tokens public constant defaultChoice = tokens.BTC */\n    tag_17:\n      tag_69\n      tag_70\n      jump\t// in\n    tag_69:\n      mload(0x40)\n      tag_71\n      swap2\n      swap1\n      tag_62\n      jump\t// in\n    tag_71:\n      mload(0x40)\n      dup1\n      swap2\n      sub\n      swap1\n      return\n        /* \"contracts/2_variable_modifiers.sol\":1160:1229  function changeToEther() public {... */\n    tag_18:\n      tag_72\n      tag_73\n      jump\t// in\n    tag_72:\n      stop\n        /* \"contracts/2_variable_modifiers.sol\":260:281  int32 public e = -255 */\n    tag_19:\n      tag_74\n      tag_75\n      jump\t// in\n    tag_74:\n      mload(0x40)\n      tag_76\n      swap2\n      swap1\n      tag_77\n      jump\t// in\n    tag_76:\n      mload(0x40)\n      dup1\n      swap2\n      sub\n      swap1\n      return\n        /* \"contracts/2_variable_modifiers.sol\":903:976  address public friendAddress = 0x5B38Da6a701c568545dCfcB03FcB875f56beddC4 */\n    tag_24:\n      0x0f\n      0x00\n      swap1\n      sload\n      swap1\n      0x0100\n      exp\n      swap1\n      div\n      0xffffffffffffffffffffffffffffffffffffffff\n      and\n      dup2\n      jump\t// out\n        /* \"contracts/2_variable_modifiers.sol\":461:490  bool public boolFalse = false */\n    tag_28:\n      0x07\n      0x02\n      swap1\n      sload\n      swap1\n      0x0100\n      exp\n      swap1\n      div\n      0xff\n      and\n      dup2\n      jump\t// out\n        /* \"contracts/2_variable_modifiers.sol\":428:455  bool public boolTrue = true */\n    tag_32:\n      0x07\n      0x01\n      swap1\n      sload\n      swap1\n      0x0100\n      exp\n      swap1\n      div\n      0xff\n      and\n      dup2\n      jump\t// out\n        /* \"contracts/2_variable_modifiers.sol\":633:707  bytes32 public hash_keccak256 = keccak256(abi.encodePacked(name, surname)) */\n    tag_35:\n      sload(0x0b)\n      dup2\n      jump\t// out\n        /* \"contracts/2_variable_modifiers.sol\":1235:1300  function changeToAda() public {... */\n    tag_39:\n        /* \"contracts/2_variable_modifiers.sol\":1283:1293  tokens.ADA */\n      0x00\n        /* \"contracts/2_variable_modifiers.sol\":1275:1280  state */\n      0x10\n      0x14\n        /* \"contracts/2_variable_modifiers.sol\":1275:1293  state = tokens.ADA */\n      0x0100\n      exp\n      dup2\n      sload\n      dup2\n      0xff\n      mul\n      not\n      and\n      swap1\n      dup4\n      0x03\n      dup2\n      gt\n      iszero\n      tag_79\n      jumpi\n      tag_80\n      tag_81\n      jump\t// in\n    tag_80:\n    tag_79:\n      mul\n      or\n      swap1\n      sstore\n      pop\n        /* \"contracts/2_variable_modifiers.sol\":1235:1300  function changeToAda() public {... */\n      jump\t// out\n        /* \"contracts/2_variable_modifiers.sol\":713:796  bytes32 public hash_sha256 = sha256(abi.encodePacked(\"Henlo world\", int(32432432))) */\n    tag_41:\n      sload(0x0c)\n      dup2\n      jump\t// out\n        /* \"contracts/2_variable_modifiers.sol\":982:1015  address public owner = msg.sender */\n    tag_44:\n      0x10\n      0x00\n      swap1\n      sload\n      swap1\n      0x0100\n      exp\n      swap1\n      div\n      0xffffffffffffffffffffffffffffffffffffffff\n      and\n      dup2\n      jump\t// out\n        /* \"contracts/2_variable_modifiers.sol\":358:387  string public pl = \"Solidity\" */\n    tag_47:\n      0x06\n      dup1\n      sload\n      tag_82\n      swap1\n      tag_83\n      jump\t// in\n    tag_82:\n      dup1\n      0x1f\n      add\n      0x20\n      dup1\n      swap2\n      div\n      mul\n      0x20\n      add\n      mload(0x40)\n      swap1\n      dup2\n      add\n      0x40\n      mstore\n      dup1\n      swap3\n      swap2\n      swap1\n      dup2\n      dup2\n      mstore\n      0x20\n      add\n      dup3\n      dup1\n      sload\n      tag_84\n      swap1\n      tag_83\n      jump\t// in\n    tag_84:\n      dup1\n      iszero\n      tag_85\n      jumpi\n      dup1\n      0x1f\n      lt\n      tag_86\n      jumpi\n      0x0100\n      dup1\n      dup4\n      sload\n      div\n      mul\n      dup4\n      mstore\n      swap2\n      0x20\n      add\n      swap2\n      jump(tag_85)\n    tag_86:\n      dup3\n      add\n      swap2\n      swap1\n      0x00\n      mstore\n      keccak256(0x00, 0x20)\n      swap1\n    tag_87:\n      dup2\n      sload\n      dup2\n      mstore\n      swap1\n      0x01\n      add\n      swap1\n      0x20\n      add\n      dup1\n      dup4\n      gt\n      tag_87\n      jumpi\n      dup3\n      swap1\n      sub\n      0x1f\n      and\n      dup3\n      add\n      swap2\n    tag_85:\n      pop\n      pop\n      pop\n      pop\n      pop\n      dup2\n      jump\t// out\n        /* \"contracts/2_variable_modifiers.sol\":1377:1442  function changeToBTC() public {... */\n    tag_51:\n        /* \"contracts/2_variable_modifiers.sol\":1425:1435  tokens.BTC */\n      0x03\n        /* \"contracts/2_variable_modifiers.sol\":1417:1422  state */\n      0x10\n      0x14\n        /* \"contracts/2_variable_modifiers.sol\":1417:1435  state = tokens.BTC */\n      0x0100\n      exp\n      dup2\n      sload\n      dup2\n      0xff\n      mul\n      not\n      and\n      swap1\n      dup4\n      0x03\n      dup2\n      gt\n      iszero\n      tag_89\n      jumpi\n      tag_90\n      tag_81\n      jump\t// in\n    tag_90:\n    tag_89:\n      mul\n      or\n      swap1\n      sstore\n      pop\n        /* \"contracts/2_variable_modifiers.sol\":1377:1442  function changeToBTC() public {... */\n      jump\t// out\n        /* \"contracts/2_variable_modifiers.sol\":802:858  bytes20 public hash_ripemd160 = ripemd160(\"Henlo world\") */\n    tag_53:\n      0x0d\n      0x00\n      swap1\n      sload\n      swap1\n      0x0100\n      exp\n      swap1\n      div\n      0x60\n      shl\n      dup2\n      jump\t// out\n        /* \"contracts/2_variable_modifiers.sol\":302:323  string public surname */\n    tag_57:\n      0x04\n      dup1\n      sload\n      tag_91\n      swap1\n      tag_83\n      jump\t// in\n    tag_91:\n      dup1\n      0x1f\n      add\n      0x20\n      dup1\n      swap2\n      div\n      mul\n      0x20\n      add\n      mload(0x40)\n      swap1\n      dup2\n      add\n      0x40\n      mstore\n      dup1\n      swap3\n      swap2\n      swap1\n      dup2\n      dup2\n      mstore\n      0x20\n      add\n      dup3\n      dup1\n      sload\n      tag_92\n      swap1\n      tag_83\n      jump\t// in\n    tag_92:\n      dup1\n      iszero\n      tag_93\n      jumpi\n      dup1\n      0x1f\n      lt\n      tag_94\n      jumpi\n      0x0100\n      dup1\n      dup4\n      sload\n      div\n      mul\n      dup4\n      mstore\n      swap2\n      0x20\n      add\n      swap2\n      jump(tag_93)\n    tag_94:\n      dup3\n      add\n      swap2\n      swap1\n      0x00\n      mstore\n      keccak256(0x00, 0x20)\n      swap1\n    tag_95:\n      dup2\n      sload\n      dup2\n      mstore\n      swap1\n      0x01\n      add\n      swap1\n      0x20\n      add\n      dup1\n      dup4\n      gt\n      tag_95\n      jumpi\n      dup3\n      swap1\n      sub\n      0x1f\n      and\n      dup3\n      add\n      swap2\n    tag_93:\n      pop\n      pop\n      pop\n      pop\n      pop\n      dup2\n      jump\t// out\n        /* \"contracts/2_variable_modifiers.sol\":1134:1153  tokens public state */\n    tag_60:\n      0x10\n      0x14\n      swap1\n      sload\n      swap1\n      0x0100\n      exp\n      swap1\n      div\n      0xff\n      and\n      dup2\n      jump\t// out\n        /* \"contracts/2_variable_modifiers.sol\":176:197  uint16 public c = 811 */\n    tag_64:\n      0x01\n      dup1\n      sload\n      swap1\n      0x0100\n      exp\n      swap1\n      div\n      0xffff\n      and\n      dup2\n      jump\t// out\n        /* \"contracts/2_variable_modifiers.sol\":1306:1371  function changeToBNB() public {... */\n    tag_68:\n        /* \"contracts/2_variable_modifiers.sol\":1354:1364  tokens.BNB */\n      0x02\n        /* \"contracts/2_variable_modifiers.sol\":1346:1351  state */\n      0x10\n      0x14\n        /* \"contracts/2_variable_modifiers.sol\":1346:1364  state = tokens.BNB */\n      0x0100\n      exp\n      dup2\n      sload\n      dup2\n      0xff\n      mul\n      not\n      and\n      swap1\n      dup4\n      0x03\n      dup2\n      gt\n      iszero\n      tag_97\n      jumpi\n      tag_98\n      tag_81\n      jump\t// in\n    tag_98:\n    tag_97:\n      mul\n      or\n      swap1\n      sstore\n      pop\n        /* \"contracts/2_variable_modifiers.sol\":1306:1371  function changeToBNB() public {... */\n      jump\t// out\n        /* \"contracts/2_variable_modifiers.sol\":1079:1128  tokens public constant defaultChoice = tokens.BTC */\n    tag_70:\n        /* \"contracts/2_variable_modifiers.sol\":1118:1128  tokens.BTC */\n      0x03\n        /* \"contracts/2_variable_modifiers.sol\":1079:1128  tokens public constant defaultChoice = tokens.BTC */\n      dup2\n      jump\t// out\n        /* \"contracts/2_variable_modifiers.sol\":1160:1229  function changeToEther() public {... */\n    tag_73:\n        /* \"contracts/2_variable_modifiers.sol\":1210:1222  tokens.ETHER */\n      0x01\n        /* \"contracts/2_variable_modifiers.sol\":1202:1207  state */\n      0x10\n      0x14\n        /* \"contracts/2_variable_modifiers.sol\":1202:1222  state = tokens.ETHER */\n      0x0100\n      exp\n      dup2\n      sload\n      dup2\n      0xff\n      mul\n      not\n      and\n      swap1\n      dup4\n      0x03\n      dup2\n      gt\n      iszero\n      tag_100\n      jumpi\n      tag_101\n      tag_81\n      jump\t// in\n    tag_101:\n    tag_100:\n      mul\n      or\n      swap1\n      sstore\n      pop\n        /* \"contracts/2_variable_modifiers.sol\":1160:1229  function changeToEther() public {... */\n      jump\t// out\n        /* \"contracts/2_variable_modifiers.sol\":260:281  int32 public e = -255 */\n    tag_75:\n      0x03\n      0x00\n      swap1\n      sload\n      swap1\n      0x0100\n      exp\n      swap1\n      div\n      0x03\n      signextend\n      dup2\n      jump\t// out\n        /* \"#utility.yul\":7:125   */\n    tag_103:\n        /* \"#utility.yul\":94:118   */\n      tag_105\n        /* \"#utility.yul\":112:117   */\n      dup2\n        /* \"#utility.yul\":94:118   */\n      tag_106\n      jump\t// in\n    tag_105:\n        /* \"#utility.yul\":89:92   */\n      dup3\n        /* \"#utility.yul\":82:119   */\n      mstore\n        /* \"#utility.yul\":72:125   */\n      pop\n      pop\n      jump\t// out\n        /* \"#utility.yul\":131:240   */\n    tag_107:\n        /* \"#utility.yul\":212:233   */\n      tag_109\n        /* \"#utility.yul\":227:232   */\n      dup2\n        /* \"#utility.yul\":212:233   */\n      tag_110\n      jump\t// in\n    tag_109:\n        /* \"#utility.yul\":207:210   */\n      dup3\n        /* \"#utility.yul\":200:234   */\n      mstore\n        /* \"#utility.yul\":190:240   */\n      pop\n      pop\n      jump\t// out\n        /* \"#utility.yul\":246:364   */\n    tag_111:\n        /* \"#utility.yul\":333:357   */\n      tag_113\n        /* \"#utility.yul\":351:356   */\n      dup2\n        /* \"#utility.yul\":333:357   */\n      tag_114\n      jump\t// in\n    tag_113:\n        /* \"#utility.yul\":328:331   */\n      dup3\n        /* \"#utility.yul\":321:358   */\n      mstore\n        /* \"#utility.yul\":311:364   */\n      pop\n      pop\n      jump\t// out\n        /* \"#utility.yul\":370:488   */\n    tag_115:\n        /* \"#utility.yul\":457:481   */\n      tag_117\n        /* \"#utility.yul\":475:480   */\n      dup2\n        /* \"#utility.yul\":457:481   */\n      tag_118\n      jump\t// in\n    tag_117:\n        /* \"#utility.yul\":452:455   */\n      dup3\n        /* \"#utility.yul\":445:482   */\n      mstore\n        /* \"#utility.yul\":435:488   */\n      pop\n      pop\n      jump\t// out\n        /* \"#utility.yul\":494:639   */\n    tag_119:\n        /* \"#utility.yul\":588:632   */\n      tag_121\n        /* \"#utility.yul\":626:631   */\n      dup2\n        /* \"#utility.yul\":588:632   */\n      tag_122\n      jump\t// in\n    tag_121:\n        /* \"#utility.yul\":583:586   */\n      dup3\n        /* \"#utility.yul\":576:633   */\n      mstore\n        /* \"#utility.yul\":566:639   */\n      pop\n      pop\n      jump\t// out\n        /* \"#utility.yul\":645:757   */\n    tag_123:\n        /* \"#utility.yul\":728:750   */\n      tag_125\n        /* \"#utility.yul\":744:749   */\n      dup2\n        /* \"#utility.yul\":728:750   */\n      tag_126\n      jump\t// in\n    tag_125:\n        /* \"#utility.yul\":723:726   */\n      dup3\n        /* \"#utility.yul\":716:751   */\n      mstore\n        /* \"#utility.yul\":706:757   */\n      pop\n      pop\n      jump\t// out\n        /* \"#utility.yul\":763:1127   */\n    tag_127:\n        /* \"#utility.yul\":851:854   */\n      0x00\n        /* \"#utility.yul\":879:918   */\n      tag_129\n        /* \"#utility.yul\":912:917   */\n      dup3\n        /* \"#utility.yul\":879:918   */\n      tag_130\n      jump\t// in\n    tag_129:\n        /* \"#utility.yul\":934:1005   */\n      tag_131\n        /* \"#utility.yul\":998:1004   */\n      dup2\n        /* \"#utility.yul\":993:996   */\n      dup6\n        /* \"#utility.yul\":934:1005   */\n      tag_132\n      jump\t// in\n    tag_131:\n        /* \"#utility.yul\":927:1005   */\n      swap4\n      pop\n        /* \"#utility.yul\":1014:1066   */\n      tag_133\n        /* \"#utility.yul\":1059:1065   */\n      dup2\n        /* \"#utility.yul\":1054:1057   */\n      dup6\n        /* \"#utility.yul\":1047:1051   */\n      0x20\n        /* \"#utility.yul\":1040:1045   */\n      dup7\n        /* \"#utility.yul\":1036:1052   */\n      add\n        /* \"#utility.yul\":1014:1066   */\n      tag_134\n      jump\t// in\n    tag_133:\n        /* \"#utility.yul\":1091:1120   */\n      tag_135\n        /* \"#utility.yul\":1113:1119   */\n      dup2\n        /* \"#utility.yul\":1091:1120   */\n      tag_136\n      jump\t// in\n    tag_135:\n        /* \"#utility.yul\":1086:1089   */\n      dup5\n        /* \"#utility.yul\":1082:1121   */\n      add\n        /* \"#utility.yul\":1075:1121   */\n      swap2\n      pop\n        /* \"#utility.yul\":855:1127   */\n      pop\n      swap3\n      swap2\n      pop\n      pop\n      jump\t// out\n        /* \"#utility.yul\":1133:1248   */\n    tag_137:\n        /* \"#utility.yul\":1218:1241   */\n      tag_139\n        /* \"#utility.yul\":1235:1240   */\n      dup2\n        /* \"#utility.yul\":1218:1241   */\n      tag_140\n      jump\t// in\n    tag_139:\n        /* \"#utility.yul\":1213:1216   */\n      dup3\n        /* \"#utility.yul\":1206:1242   */\n      mstore\n        /* \"#utility.yul\":1196:1248   */\n      pop\n      pop\n      jump\t// out\n        /* \"#utility.yul\":1254:1476   */\n    tag_26:\n        /* \"#utility.yul\":1347:1351   */\n      0x00\n        /* \"#utility.yul\":1385:1387   */\n      0x20\n        /* \"#utility.yul\":1374:1383   */\n      dup3\n        /* \"#utility.yul\":1370:1388   */\n      add\n        /* \"#utility.yul\":1362:1388   */\n      swap1\n      pop\n        /* \"#utility.yul\":1398:1469   */\n      tag_142\n        /* \"#utility.yul\":1466:1467   */\n      0x00\n        /* \"#utility.yul\":1455:1464   */\n      dup4\n        /* \"#utility.yul\":1451:1468   */\n      add\n        /* \"#utility.yul\":1442:1448   */\n      dup5\n        /* \"#utility.yul\":1398:1469   */\n      tag_103\n      jump\t// in\n    tag_142:\n        /* \"#utility.yul\":1352:1476   */\n      swap3\n      swap2\n      pop\n      pop\n      jump\t// out\n        /* \"#utility.yul\":1482:1692   */\n    tag_30:\n        /* \"#utility.yul\":1569:1573   */\n      0x00\n        /* \"#utility.yul\":1607:1609   */\n      0x20\n        /* \"#utility.yul\":1596:1605   */\n      dup3\n        /* \"#utility.yul\":1592:1610   */\n      add\n        /* \"#utility.yul\":1584:1610   */\n      swap1\n      pop\n        /* \"#utility.yul\":1620:1685   */\n      tag_144\n        /* \"#utility.yul\":1682:1683   */\n      0x00\n        /* \"#utility.yul\":1671:1680   */\n      dup4\n        /* \"#utility.yul\":1667:1684   */\n      add\n        /* \"#utility.yul\":1658:1664   */\n      dup5\n        /* \"#utility.yul\":1620:1685   */\n      tag_107\n      jump\t// in\n    tag_144:\n        /* \"#utility.yul\":1574:1692   */\n      swap3\n      swap2\n      pop\n      pop\n      jump\t// out\n        /* \"#utility.yul\":1698:1920   */\n    tag_55:\n        /* \"#utility.yul\":1791:1795   */\n      0x00\n        /* \"#utility.yul\":1829:1831   */\n      0x20\n        /* \"#utility.yul\":1818:1827   */\n      dup3\n        /* \"#utility.yul\":1814:1832   */\n      add\n        /* \"#utility.yul\":1806:1832   */\n      swap1\n      pop\n        /* \"#utility.yul\":1842:1913   */\n      tag_146\n        /* \"#utility.yul\":1910:1911   */\n      0x00\n        /* \"#utility.yul\":1899:1908   */\n      dup4\n        /* \"#utility.yul\":1895:1912   */\n      add\n        /* \"#utility.yul\":1886:1892   */\n      dup5\n        /* \"#utility.yul\":1842:1913   */\n      tag_111\n      jump\t// in\n    tag_146:\n        /* \"#utility.yul\":1796:1920   */\n      swap3\n      swap2\n      pop\n      pop\n      jump\t// out\n        /* \"#utility.yul\":1926:2148   */\n    tag_37:\n        /* \"#utility.yul\":2019:2023   */\n      0x00\n        /* \"#utility.yul\":2057:2059   */\n      0x20\n        /* \"#utility.yul\":2046:2055   */\n      dup3\n        /* \"#utility.yul\":2042:2060   */\n      add\n        /* \"#utility.yul\":2034:2060   */\n      swap1\n      pop\n        /* \"#utility.yul\":2070:2141   */\n      tag_148\n        /* \"#utility.yul\":2138:2139   */\n      0x00\n        /* \"#utility.yul\":2127:2136   */\n      dup4\n        /* \"#utility.yul\":2123:2140   */\n      add\n        /* \"#utility.yul\":2114:2120   */\n      dup5\n        /* \"#utility.yul\":2070:2141   */\n      tag_115\n      jump\t// in\n    tag_148:\n        /* \"#utility.yul\":2024:2148   */\n      swap3\n      swap2\n      pop\n      pop\n      jump\t// out\n        /* \"#utility.yul\":2154:2390   */\n    tag_62:\n        /* \"#utility.yul\":2254:2258   */\n      0x00\n        /* \"#utility.yul\":2292:2294   */\n      0x20\n        /* \"#utility.yul\":2281:2290   */\n      dup3\n        /* \"#utility.yul\":2277:2295   */\n      add\n        /* \"#utility.yul\":2269:2295   */\n      swap1\n      pop\n        /* \"#utility.yul\":2305:2383   */\n      tag_150\n        /* \"#utility.yul\":2380:2381   */\n      0x00\n        /* \"#utility.yul\":2369:2378   */\n      dup4\n        /* \"#utility.yul\":2365:2382   */\n      add\n        /* \"#utility.yul\":2356:2362   */\n      dup5\n        /* \"#utility.yul\":2305:2383   */\n      tag_119\n      jump\t// in\n    tag_150:\n        /* \"#utility.yul\":2259:2390   */\n      swap3\n      swap2\n      pop\n      pop\n      jump\t// out\n        /* \"#utility.yul\":2396:2610   */\n    tag_77:\n        /* \"#utility.yul\":2485:2489   */\n      0x00\n        /* \"#utility.yul\":2523:2525   */\n      0x20\n        /* \"#utility.yul\":2512:2521   */\n      dup3\n        /* \"#utility.yul\":2508:2526   */\n      add\n        /* \"#utility.yul\":2500:2526   */\n      swap1\n      pop\n        /* \"#utility.yul\":2536:2603   */\n      tag_152\n        /* \"#utility.yul\":2600:2601   */\n      0x00\n        /* \"#utility.yul\":2589:2598   */\n      dup4\n        /* \"#utility.yul\":2585:2602   */\n      add\n        /* \"#utility.yul\":2576:2582   */\n      dup5\n        /* \"#utility.yul\":2536:2603   */\n      tag_123\n      jump\t// in\n    tag_152:\n        /* \"#utility.yul\":2490:2610   */\n      swap3\n      swap2\n      pop\n      pop\n      jump\t// out\n        /* \"#utility.yul\":2616:2929   */\n    tag_49:\n        /* \"#utility.yul\":2729:2733   */\n      0x00\n        /* \"#utility.yul\":2767:2769   */\n      0x20\n        /* \"#utility.yul\":2756:2765   */\n      dup3\n        /* \"#utility.yul\":2752:2770   */\n      add\n        /* \"#utility.yul\":2744:2770   */\n      swap1\n      pop\n        /* \"#utility.yul\":2816:2825   */\n      dup2\n        /* \"#utility.yul\":2810:2814   */\n      dup2\n        /* \"#utility.yul\":2806:2826   */\n      sub\n        /* \"#utility.yul\":2802:2803   */\n      0x00\n        /* \"#utility.yul\":2791:2800   */\n      dup4\n        /* \"#utility.yul\":2787:2804   */\n      add\n        /* \"#utility.yul\":2780:2827   */\n      mstore\n        /* \"#utility.yul\":2844:2922   */\n      tag_154\n        /* \"#utility.yul\":2917:2921   */\n      dup2\n        /* \"#utility.yul\":2908:2914   */\n      dup5\n        /* \"#utility.yul\":2844:2922   */\n      tag_127\n      jump\t// in\n    tag_154:\n        /* \"#utility.yul\":2836:2922   */\n      swap1\n      pop\n        /* \"#utility.yul\":2734:2929   */\n      swap3\n      swap2\n      pop\n      pop\n      jump\t// out\n        /* \"#utility.yul\":2935:3153   */\n    tag_66:\n        /* \"#utility.yul\":3026:3030   */\n      0x00\n        /* \"#utility.yul\":3064:3066   */\n      0x20\n        /* \"#utility.yul\":3053:3062   */\n      dup3\n        /* \"#utility.yul\":3049:3067   */\n      add\n        /* \"#utility.yul\":3041:3067   */\n      swap1\n      pop\n        /* \"#utility.yul\":3077:3146   */\n      tag_156\n        /* \"#utility.yul\":3143:3144   */\n      0x00\n        /* \"#utility.yul\":3132:3141   */\n      dup4\n        /* \"#utility.yul\":3128:3145   */\n      add\n        /* \"#utility.yul\":3119:3125   */\n      dup5\n        /* \"#utility.yul\":3077:3146   */\n      tag_137\n      jump\t// in\n    tag_156:\n        /* \"#utility.yul\":3031:3153   */\n      swap3\n      swap2\n      pop\n      pop\n      jump\t// out\n        /* \"#utility.yul\":3159:3258   */\n    tag_130:\n        /* \"#utility.yul\":3211:3217   */\n      0x00\n        /* \"#utility.yul\":3245:3250   */\n      dup2\n        /* \"#utility.yul\":3239:3251   */\n      mload\n        /* \"#utility.yul\":3229:3251   */\n      swap1\n      pop\n        /* \"#utility.yul\":3218:3258   */\n      swap2\n      swap1\n      pop\n      jump\t// out\n        /* \"#utility.yul\":3264:3433   */\n    tag_132:\n        /* \"#utility.yul\":3348:3359   */\n      0x00\n        /* \"#utility.yul\":3382:3388   */\n      dup3\n        /* \"#utility.yul\":3377:3380   */\n      dup3\n        /* \"#utility.yul\":3370:3389   */\n      mstore\n        /* \"#utility.yul\":3422:3426   */\n      0x20\n        /* \"#utility.yul\":3417:3420   */\n      dup3\n        /* \"#utility.yul\":3413:3427   */\n      add\n        /* \"#utility.yul\":3398:3427   */\n      swap1\n      pop\n        /* \"#utility.yul\":3360:3433   */\n      swap3\n      swap2\n      pop\n      pop\n      jump\t// out\n        /* \"#utility.yul\":3439:3535   */\n    tag_106:\n        /* \"#utility.yul\":3476:3483   */\n      0x00\n        /* \"#utility.yul\":3505:3529   */\n      tag_160\n        /* \"#utility.yul\":3523:3528   */\n      dup3\n        /* \"#utility.yul\":3505:3529   */\n      tag_161\n      jump\t// in\n    tag_160:\n        /* \"#utility.yul\":3494:3529   */\n      swap1\n      pop\n        /* \"#utility.yul\":3484:3535   */\n      swap2\n      swap1\n      pop\n      jump\t// out\n        /* \"#utility.yul\":3541:3631   */\n    tag_110:\n        /* \"#utility.yul\":3575:3582   */\n      0x00\n        /* \"#utility.yul\":3618:3623   */\n      dup2\n        /* \"#utility.yul\":3611:3624   */\n      iszero\n        /* \"#utility.yul\":3604:3625   */\n      iszero\n        /* \"#utility.yul\":3593:3625   */\n      swap1\n      pop\n        /* \"#utility.yul\":3583:3631   */\n      swap2\n      swap1\n      pop\n      jump\t// out\n        /* \"#utility.yul\":3637:3787   */\n    tag_114:\n        /* \"#utility.yul\":3674:3681   */\n      0x00\n        /* \"#utility.yul\":3714:3780   */\n      0xffffffffffffffffffffffffffffffffffffffff000000000000000000000000\n        /* \"#utility.yul\":3707:3712   */\n      dup3\n        /* \"#utility.yul\":3703:3781   */\n      and\n        /* \"#utility.yul\":3692:3781   */\n      swap1\n      pop\n        /* \"#utility.yul\":3682:3787   */\n      swap2\n      swap1\n      pop\n      jump\t// out\n        /* \"#utility.yul\":3793:3870   */\n    tag_118:\n        /* \"#utility.yul\":3830:3837   */\n      0x00\n        /* \"#utility.yul\":3859:3864   */\n      dup2\n        /* \"#utility.yul\":3848:3864   */\n      swap1\n      pop\n        /* \"#utility.yul\":3838:3870   */\n      swap2\n      swap1\n      pop\n      jump\t// out\n        /* \"#utility.yul\":3876:4005   */\n    tag_165:\n        /* \"#utility.yul\":3922:3929   */\n      0x00\n        /* \"#utility.yul\":3951:3956   */\n      dup2\n        /* \"#utility.yul\":3940:3956   */\n      swap1\n      pop\n        /* \"#utility.yul\":3957:3999   */\n      tag_167\n        /* \"#utility.yul\":3993:3998   */\n      dup3\n        /* \"#utility.yul\":3957:3999   */\n      tag_168\n      jump\t// in\n    tag_167:\n        /* \"#utility.yul\":3930:4005   */\n      swap2\n      swap1\n      pop\n      jump\t// out\n        /* \"#utility.yul\":4011:4101   */\n    tag_126:\n        /* \"#utility.yul\":4046:4053   */\n      0x00\n        /* \"#utility.yul\":4089:4094   */\n      dup2\n        /* \"#utility.yul\":4086:4087   */\n      0x03\n        /* \"#utility.yul\":4075:4095   */\n      signextend\n        /* \"#utility.yul\":4064:4095   */\n      swap1\n      pop\n        /* \"#utility.yul\":4054:4101   */\n      swap2\n      swap1\n      pop\n      jump\t// out\n        /* \"#utility.yul\":4107:4196   */\n    tag_140:\n        /* \"#utility.yul\":4143:4150   */\n      0x00\n        /* \"#utility.yul\":4183:4189   */\n      0xffff\n        /* \"#utility.yul\":4176:4181   */\n      dup3\n        /* \"#utility.yul\":4172:4190   */\n      and\n        /* \"#utility.yul\":4161:4190   */\n      swap1\n      pop\n        /* \"#utility.yul\":4151:4196   */\n      swap2\n      swap1\n      pop\n      jump\t// out\n        /* \"#utility.yul\":4202:4328   */\n    tag_161:\n        /* \"#utility.yul\":4239:4246   */\n      0x00\n        /* \"#utility.yul\":4279:4321   */\n      0xffffffffffffffffffffffffffffffffffffffff\n        /* \"#utility.yul\":4272:4277   */\n      dup3\n        /* \"#utility.yul\":4268:4322   */\n      and\n        /* \"#utility.yul\":4257:4322   */\n      swap1\n      pop\n        /* \"#utility.yul\":4247:4328   */\n      swap2\n      swap1\n      pop\n      jump\t// out\n        /* \"#utility.yul\":4334:4463   */\n    tag_122:\n        /* \"#utility.yul\":4391:4400   */\n      0x00\n        /* \"#utility.yul\":4424:4457   */\n      tag_173\n        /* \"#utility.yul\":4451:4456   */\n      dup3\n        /* \"#utility.yul\":4424:4457   */\n      tag_165\n      jump\t// in\n    tag_173:\n        /* \"#utility.yul\":4411:4457   */\n      swap1\n      pop\n        /* \"#utility.yul\":4401:4463   */\n      swap2\n      swap1\n      pop\n      jump\t// out\n        /* \"#utility.yul\":4469:4776   */\n    tag_134:\n        /* \"#utility.yul\":4537:4538   */\n      0x00\n        /* \"#utility.yul\":4547:4660   */\n    tag_175:\n        /* \"#utility.yul\":4561:4567   */\n      dup4\n        /* \"#utility.yul\":4558:4559   */\n      dup2\n        /* \"#utility.yul\":4555:4568   */\n      lt\n        /* \"#utility.yul\":4547:4660   */\n      iszero\n      tag_177\n      jumpi\n        /* \"#utility.yul\":4646:4647   */\n      dup1\n        /* \"#utility.yul\":4641:4644   */\n      dup3\n        /* \"#utility.yul\":4637:4648   */\n      add\n        /* \"#utility.yul\":4631:4649   */\n      mload\n        /* \"#utility.yul\":4627:4628   */\n      dup2\n        /* \"#utility.yul\":4622:4625   */\n      dup5\n        /* \"#utility.yul\":4618:4629   */\n      add\n        /* \"#utility.yul\":4611:4650   */\n      mstore\n        /* \"#utility.yul\":4583:4585   */\n      0x20\n        /* \"#utility.yul\":4580:4581   */\n      dup2\n        /* \"#utility.yul\":4576:4586   */\n      add\n        /* \"#utility.yul\":4571:4586   */\n      swap1\n      pop\n        /* \"#utility.yul\":4547:4660   */\n      jump(tag_175)\n    tag_177:\n        /* \"#utility.yul\":4678:4684   */\n      dup4\n        /* \"#utility.yul\":4675:4676   */\n      dup2\n        /* \"#utility.yul\":4672:4685   */\n      gt\n        /* \"#utility.yul\":4669:4671   */\n      iszero\n      tag_178\n      jumpi\n        /* \"#utility.yul\":4758:4759   */\n      0x00\n        /* \"#utility.yul\":4749:4755   */\n      dup5\n        /* \"#utility.yul\":4744:4747   */\n      dup5\n        /* \"#utility.yul\":4740:4756   */\n      add\n        /* \"#utility.yul\":4733:4760   */\n      mstore\n        /* \"#utility.yul\":4669:4671   */\n    tag_178:\n        /* \"#utility.yul\":4518:4776   */\n      pop\n      pop\n      pop\n      pop\n      jump\t// out\n        /* \"#utility.yul\":4782:5102   */\n    tag_83:\n        /* \"#utility.yul\":4826:4832   */\n      0x00\n        /* \"#utility.yul\":4863:4864   */\n      0x02\n        /* \"#utility.yul\":4857:4861   */\n      dup3\n        /* \"#utility.yul\":4853:4865   */\n      div\n        /* \"#utility.yul\":4843:4865   */\n      swap1\n      pop\n        /* \"#utility.yul\":4910:4911   */\n      0x01\n        /* \"#utility.yul\":4904:4908   */\n      dup3\n        /* \"#utility.yul\":4900:4912   */\n      and\n        /* \"#utility.yul\":4931:4949   */\n      dup1\n        /* \"#utility.yul\":4921:4923   */\n      tag_180\n      jumpi\n        /* \"#utility.yul\":4987:4991   */\n      0x7f\n        /* \"#utility.yul\":4979:4985   */\n      dup3\n        /* \"#utility.yul\":4975:4992   */\n      and\n        /* \"#utility.yul\":4965:4992   */\n      swap2\n      pop\n        /* \"#utility.yul\":4921:4923   */\n    tag_180:\n        /* \"#utility.yul\":5049:5051   */\n      0x20\n        /* \"#utility.yul\":5041:5047   */\n      dup3\n        /* \"#utility.yul\":5038:5052   */\n      lt\n        /* \"#utility.yul\":5018:5036   */\n      dup2\n        /* \"#utility.yul\":5015:5053   */\n      eq\n        /* \"#utility.yul\":5012:5014   */\n      iszero\n      tag_181\n      jumpi\n        /* \"#utility.yul\":5068:5086   */\n      tag_182\n      tag_183\n      jump\t// in\n    tag_182:\n        /* \"#utility.yul\":5012:5014   */\n    tag_181:\n        /* \"#utility.yul\":4833:5102   */\n      pop\n      swap2\n      swap1\n      pop\n      jump\t// out\n        /* \"#utility.yul\":5108:5288   */\n    tag_81:\n        /* \"#utility.yul\":5156:5233   */\n      0x4e487b7100000000000000000000000000000000000000000000000000000000\n        /* \"#utility.yul\":5153:5154   */\n      0x00\n        /* \"#utility.yul\":5146:5234   */\n      mstore\n        /* \"#utility.yul\":5253:5257   */\n      0x21\n        /* \"#utility.yul\":5250:5251   */\n      0x04\n        /* \"#utility.yul\":5243:5258   */\n      mstore\n        /* \"#utility.yul\":5277:5281   */\n      0x24\n        /* \"#utility.yul\":5274:5275   */\n      0x00\n        /* \"#utility.yul\":5267:5282   */\n      revert\n        /* \"#utility.yul\":5294:5474   */\n    tag_183:\n        /* \"#utility.yul\":5342:5419   */\n      0x4e487b7100000000000000000000000000000000000000000000000000000000\n        /* \"#utility.yul\":5339:5340   */\n      0x00\n        /* \"#utility.yul\":5332:5420   */\n      mstore\n        /* \"#utility.yul\":5439:5443   */\n      0x22\n        /* \"#utility.yul\":5436:5437   */\n      0x04\n        /* \"#utility.yul\":5429:5444   */\n      mstore\n        /* \"#utility.yul\":5463:5467   */\n      0x24\n        /* \"#utility.yul\":5460:5461   */\n      0x00\n        /* \"#utility.yul\":5453:5468   */\n      revert\n        /* \"#utility.yul\":5480:5582   */\n    tag_136:\n        /* \"#utility.yul\":5521:5527   */\n      0x00\n        /* \"#utility.yul\":5572:5574   */\n      0x1f\n        /* \"#utility.yul\":5568:5575   */\n      not\n        /* \"#utility.yul\":5563:5565   */\n      0x1f\n        /* \"#utility.yul\":5556:5561   */\n      dup4\n        /* \"#utility.yul\":5552:5566   */\n      add\n        /* \"#utility.yul\":5548:5576   */\n      and\n        /* \"#utility.yul\":5538:5576   */\n      swap1\n      pop\n        /* \"#utility.yul\":5528:5582   */\n      swap2\n      swap1\n      pop\n      jump\t// out\n        /* \"#utility.yul\":5588:5702   */\n    tag_168:\n        /* \"#utility.yul\":5670:5671   */\n      0x04\n        /* \"#utility.yul\":5663:5668   */\n      dup2\n        /* \"#utility.yul\":5660:5672   */\n      lt\n        /* \"#utility.yul\":5650:5652   */\n      tag_188\n      jumpi\n        /* \"#utility.yul\":5676:5694   */\n      tag_189\n      tag_81\n      jump\t// in\n    tag_189:\n        /* \"#utility.yul\":5650:5652   */\n    tag_188:\n        /* \"#utility.yul\":5640:5702   */\n      pop\n      jump\t// out\n\n    auxdata: 0xa26469706673582212203057ed5d78799f2abf084d608ac1ea4ae0c7724bd03dc0cb11aeda9c5f37c97a64736f6c63430008050033\n}\n",
				"bytecode": {
					"linkReferences": {},
					"object": "608060405260ff600160006101000a81548160ff021916908360ff16021790555061032b6001806101000a81548161ffff021916908361ffff1602179055507fffffffffffffffffffffffffffffffffffffffffffffffffffffffffffffff016002557fffffffffffffffffffffffffffffffffffffffffffffffffffffffffffffff01600360006101000a81548163ffffffff021916908360030b63ffffffff1602179055506040518060400160405280600781526020017f526f626572746f0000000000000000000000000000000000000000000000000081525060059080519060200190620000f392919062000334565b506040518060400160405280600881526020017f536f6c6964697479000000000000000000000000000000000000000000000000815250600690805190602001906200014192919062000334565b506001600760016101000a81548160ff0219169083151502179055506000600760026101000a81548160ff021916908315150217905550600560046040516020016200018f92919062000571565b60405160208183030381529060405280519060200120600b5560026301eee130604051602001620001c19190620005b0565b604051602081830303815290604052604051620001df919062000558565b602060405180830381855afa158015620001fd573d6000803e3d6000fd5b5050506040513d601f19601f82011682018060405250810190620002229190620003fb565b600c556003604051620002359062000599565b602060405180830381855afa15801562000253573d6000803e3d6000fd5b5050506040515160601b600d60006101000a81548173ffffffffffffffffffffffffffffffffffffffff021916908360601c0217905550735b38da6a701c568545dcfcb03fcb875f56beddc4600f60006101000a81548173ffffffffffffffffffffffffffffffffffffffff021916908373ffffffffffffffffffffffffffffffffffffffff16021790555033601060006101000a81548173ffffffffffffffffffffffffffffffffffffffff021916908373ffffffffffffffffffffffffffffffffffffffff1602179055503480156200032d57600080fd5b5062000711565b82805462000342906200065a565b90600052602060002090601f016020900481019282620003665760008555620003b2565b82601f106200038157805160ff1916838001178555620003b2565b82800160010185558215620003b2579182015b82811115620003b157825182559160200191906001019062000394565b5b509050620003c19190620003c5565b5090565b5b80821115620003e0576000816000905550600101620003c6565b5090565b600081519050620003f581620006f7565b92915050565b600060208284031215620004145762000413620006c9565b5b60006200042484828501620003e4565b91505092915050565b60006200043a82620005ef565b620004468185620005fa565b93506200045881856020860162000624565b80840191505092915050565b6200047962000473826200061a565b62000690565b82525050565b600081546200048e816200065a565b6200049a818662000605565b94506001821660008114620004b85760018114620004ca5762000501565b60ff1983168652818601935062000501565b620004d585620005da565b60005b83811015620004f957815481890152600182019150602081019050620004d8565b838801955050505b50505092915050565b600062000519600b83620005fa565b91506200052682620006ce565b600b82019050919050565b600062000540600b8362000605565b91506200054d82620006ce565b600b82019050919050565b60006200056682846200042d565b915081905092915050565b60006200057f82856200047f565b91506200058d82846200047f565b91508190509392505050565b6000620005a6826200050a565b9150819050919050565b6000620005bd8262000531565b9150620005cb828462000464565b60208201915081905092915050565b60008190508160005260206000209050919050565b600081519050919050565b600081905092915050565b600081905092915050565b6000819050919050565b6000819050919050565b60005b838110156200064457808201518184015260208101905062000627565b8381111562000654576000848401525b50505050565b600060028204905060018216806200067357607f821691505b602082108114156200068a57620006896200069a565b5b50919050565b6000819050919050565b7f4e487b7100000000000000000000000000000000000000000000000000000000600052602260045260246000fd5b600080fd5b7f48656e6c6f20776f726c64000000000000000000000000000000000000000000600082015250565b620007028162000610565b81146200070e57600080fd5b50565b6108cb80620007216000396000f3fe608060405234801561001057600080fd5b506004361061010b5760003560e01c806391d101af116100a2578063c3da42b811610071578063c3da42b814610250578063c4370ebf1461026e578063cd99a84614610278578063ff4479d814610296578063ffae15ba146102a05761010b565b806391d101af146101ec578063af0c2ea7146101f6578063b38fee9214610214578063c19d93fb146102325761010b565b806362b57af4116100de57806362b57af41461018857806366e41d20146101925780638da5cb5b146101b057806390e1437c146101ce5761010b565b80630b9239fb14610110578063222a90ac1461012e57806342fb01091461014c5780635c4806801461016a575b600080fd5b6101186102be565b60405161012591906105fe565b60405180910390f35b6101366102e4565b6040516101439190610619565b60405180910390f35b6101546102f7565b6040516101619190610619565b60405180910390f35b61017261030a565b60405161017f919061064f565b60405180910390f35b610190610310565b005b61019a61033d565b6040516101a7919061064f565b60405180910390f35b6101b8610343565b6040516101c591906105fe565b60405180910390f35b6101d6610369565b6040516101e391906106a0565b60405180910390f35b6101f46103f7565b005b6101fe610424565b60405161020b9190610634565b60405180910390f35b61021c610437565b60405161022991906106a0565b60405180910390f35b61023a6104c5565b604051610247919061066a565b60405180910390f35b6102586104d8565b60405161026591906106c2565b60405180910390f35b6102766104ea565b005b610280610517565b60405161028d919061066a565b60405180910390f35b61029e61051c565b005b6102a8610549565b6040516102b59190610685565b60405180910390f35b600f60009054906101000a900473ffffffffffffffffffffffffffffffffffffffff1681565b600760029054906101000a900460ff1681565b600760019054906101000a900460ff1681565b600b5481565b6000601060146101000a81548160ff0219169083600381111561033657610335610812565b5b0217905550565b600c5481565b601060009054906101000a900473ffffffffffffffffffffffffffffffffffffffff1681565b60068054610376906107e0565b80601f01602080910402602001604051908101604052809291908181526020018280546103a2906107e0565b80156103ef5780601f106103c4576101008083540402835291602001916103ef565b820191906000526020600020905b8154815290600101906020018083116103d257829003601f168201915b505050505081565b6003601060146101000a81548160ff0219169083600381111561041d5761041c610812565b5b0217905550565b600d60009054906101000a900460601b81565b60048054610444906107e0565b80601f0160208091040260200160405190810160405280929190818152602001828054610470906107e0565b80156104bd5780601f10610492576101008083540402835291602001916104bd565b820191906000526020600020905b8154815290600101906020018083116104a057829003601f168201915b505050505081565b601060149054906101000a900460ff1681565b60018054906101000a900461ffff1681565b6002601060146101000a81548160ff021916908360038111156105105761050f610812565b5b0217905550565b600381565b6001601060146101000a81548160ff0219169083600381111561054257610541610812565b5b0217905550565b600360009054906101000a900460030b81565b610565816106f9565b82525050565b6105748161070b565b82525050565b61058381610717565b82525050565b61059281610743565b82525050565b6105a18161079b565b82525050565b6105b081610760565b82525050565b60006105c1826106dd565b6105cb81856106e8565b93506105db8185602086016107ad565b6105e481610870565b840191505092915050565b6105f88161076d565b82525050565b6000602082019050610613600083018461055c565b92915050565b600060208201905061062e600083018461056b565b92915050565b6000602082019050610649600083018461057a565b92915050565b60006020820190506106646000830184610589565b92915050565b600060208201905061067f6000830184610598565b92915050565b600060208201905061069a60008301846105a7565b92915050565b600060208201905081810360008301526106ba81846105b6565b905092915050565b60006020820190506106d760008301846105ef565b92915050565b600081519050919050565b600082825260208201905092915050565b60006107048261077b565b9050919050565b60008115159050919050565b60007fffffffffffffffffffffffffffffffffffffffff00000000000000000000000082169050919050565b6000819050919050565b600081905061075b82610881565b919050565b60008160030b9050919050565b600061ffff82169050919050565b600073ffffffffffffffffffffffffffffffffffffffff82169050919050565b60006107a68261074d565b9050919050565b60005b838110156107cb5780820151818401526020810190506107b0565b838111156107da576000848401525b50505050565b600060028204905060018216806107f857607f821691505b6020821081141561080c5761080b610841565b5b50919050565b7f4e487b7100000000000000000000000000000000000000000000000000000000600052602160045260246000fd5b7f4e487b7100000000000000000000000000000000000000000000000000000000600052602260045260246000fd5b6000601f19601f8301169050919050565b6004811061089257610891610812565b5b5056fea26469706673582212203057ed5d78799f2abf084d608ac1ea4ae0c7724bd03dc0cb11aeda9c5f37c97a64736f6c63430008050033",
					"opcodes": "PUSH1 0x80 PUSH1 0x40 MSTORE PUSH1 0xFF PUSH1 0x1 PUSH1 0x0 PUSH2 0x100 EXP DUP2 SLOAD DUP2 PUSH1 0xFF MUL NOT AND SWAP1 DUP4 PUSH1 0xFF AND MUL OR SWAP1 SSTORE POP PUSH2 0x32B PUSH1 0x1 DUP1 PUSH2 0x100 EXP DUP2 SLOAD DUP2 PUSH2 0xFFFF MUL NOT AND SWAP1 DUP4 PUSH2 0xFFFF AND MUL OR SWAP1 SSTORE POP PUSH32 0xFFFFFFFFFFFFFFFFFFFFFFFFFFFFFFFFFFFFFFFFFFFFFFFFFFFFFFFFFFFFFF01 PUSH1 0x2 SSTORE PUSH32 0xFFFFFFFFFFFFFFFFFFFFFFFFFFFFFFFFFFFFFFFFFFFFFFFFFFFFFFFFFFFFFF01 PUSH1 0x3 PUSH1 0x0 PUSH2 0x100 EXP DUP2 SLOAD DUP2 PUSH4 0xFFFFFFFF MUL NOT AND SWAP1 DUP4 PUSH1 0x3 SIGNEXTEND PUSH4 0xFFFFFFFF AND MUL OR SWAP1 SSTORE POP PUSH1 0x40 MLOAD DUP1 PUSH1 0x40 ADD PUSH1 0x40 MSTORE DUP1 PUSH1 0x7 DUP2 MSTORE PUSH1 0x20 ADD PUSH32 0x526F626572746F00000000000000000000000000000000000000000000000000 DUP2 MSTORE POP PUSH1 0x5 SWAP1 DUP1 MLOAD SWAP1 PUSH1 0x20 ADD SWAP1 PUSH3 0xF3 SWAP3 SWAP2 SWAP1 PUSH3 0x334 JUMP JUMPDEST POP PUSH1 0x40 MLOAD DUP1 PUSH1 0x40 ADD PUSH1 0x40 MSTORE DUP1 PUSH1 0x8 DUP2 MSTORE PUSH1 0x20 ADD PUSH32 0x536F6C6964697479000000000000000000000000000000000000000000000000 DUP2 MSTORE POP PUSH1 0x6 SWAP1 DUP1 MLOAD SWAP1 PUSH1 0x20 ADD SWAP1 PUSH3 0x141 SWAP3 SWAP2 SWAP1 PUSH3 0x334 JUMP JUMPDEST POP PUSH1 0x1 PUSH1 0x7 PUSH1 0x1 PUSH2 0x100 EXP DUP2 SLOAD DUP2 PUSH1 0xFF MUL NOT AND SWAP1 DUP4 ISZERO ISZERO MUL OR SWAP1 SSTORE POP PUSH1 0x0 PUSH1 0x7 PUSH1 0x2 PUSH2 0x100 EXP DUP2 SLOAD DUP2 PUSH1 0xFF MUL NOT AND SWAP1 DUP4 ISZERO ISZERO MUL OR SWAP1 SSTORE POP PUSH1 0x5 PUSH1 0x4 PUSH1 0x40 MLOAD PUSH1 0x20 ADD PUSH3 0x18F SWAP3 SWAP2 SWAP1 PUSH3 0x571 JUMP JUMPDEST PUSH1 0x40 MLOAD PUSH1 0x20 DUP2 DUP4 SUB SUB DUP2 MSTORE SWAP1 PUSH1 0x40 MSTORE DUP1 MLOAD SWAP1 PUSH1 0x20 ADD KECCAK256 PUSH1 0xB SSTORE PUSH1 0x2 PUSH4 0x1EEE130 PUSH1 0x40 MLOAD PUSH1 0x20 ADD PUSH3 0x1C1 SWAP2 SWAP1 PUSH3 0x5B0 JUMP JUMPDEST PUSH1 0x40 MLOAD PUSH1 0x20 DUP2 DUP4 SUB SUB DUP2 MSTORE SWAP1 PUSH1 0x40 MSTORE PUSH1 0x40 MLOAD PUSH3 0x1DF SWAP2 SWAP1 PUSH3 0x558 JUMP JUMPDEST PUSH1 0x20 PUSH1 0x40 MLOAD DUP1 DUP4 SUB DUP2 DUP6 GAS STATICCALL ISZERO DUP1 ISZERO PUSH3 0x1FD JUMPI RETURNDATASIZE PUSH1 0x0 DUP1 RETURNDATACOPY RETURNDATASIZE PUSH1 0x0 REVERT JUMPDEST POP POP POP PUSH1 0x40 MLOAD RETURNDATASIZE PUSH1 0x1F NOT PUSH1 0x1F DUP3 ADD AND DUP3 ADD DUP1 PUSH1 0x40 MSTORE POP DUP2 ADD SWAP1 PUSH3 0x222 SWAP2 SWAP1 PUSH3 0x3FB JUMP JUMPDEST PUSH1 0xC SSTORE PUSH1 0x3 PUSH1 0x40 MLOAD PUSH3 0x235 SWAP1 PUSH3 0x599 JUMP JUMPDEST PUSH1 0x20 PUSH1 0x40 MLOAD DUP1 DUP4 SUB DUP2 DUP6 GAS STATICCALL ISZERO DUP1 ISZERO PUSH3 0x253 JUMPI RETURNDATASIZE PUSH1 0x0 DUP1 RETURNDATACOPY RETURNDATASIZE PUSH1 0x0 REVERT JUMPDEST POP POP POP PUSH1 0x40 MLOAD MLOAD PUSH1 0x60 SHL PUSH1 0xD PUSH1 0x0 PUSH2 0x100 EXP DUP2 SLOAD DUP2 PUSH20 0xFFFFFFFFFFFFFFFFFFFFFFFFFFFFFFFFFFFFFFFF MUL NOT AND SWAP1 DUP4 PUSH1 0x60 SHR MUL OR SWAP1 SSTORE POP PUSH20 0x5B38DA6A701C568545DCFCB03FCB875F56BEDDC4 PUSH1 0xF PUSH1 0x0 PUSH2 0x100 EXP DUP2 SLOAD DUP2 PUSH20 0xFFFFFFFFFFFFFFFFFFFFFFFFFFFFFFFFFFFFFFFF MUL NOT AND SWAP1 DUP4 PUSH20 0xFFFFFFFFFFFFFFFFFFFFFFFFFFFFFFFFFFFFFFFF AND MUL OR SWAP1 SSTORE POP CALLER PUSH1 0x10 PUSH1 0x0 PUSH2 0x100 EXP DUP2 SLOAD DUP2 PUSH20 0xFFFFFFFFFFFFFFFFFFFFFFFFFFFFFFFFFFFFFFFF MUL NOT AND SWAP1 DUP4 PUSH20 0xFFFFFFFFFFFFFFFFFFFFFFFFFFFFFFFFFFFFFFFF AND MUL OR SWAP1 SSTORE POP CALLVALUE DUP1 ISZERO PUSH3 0x32D JUMPI PUSH1 0x0 DUP1 REVERT JUMPDEST POP PUSH3 0x711 JUMP JUMPDEST DUP3 DUP1 SLOAD PUSH3 0x342 SWAP1 PUSH3 0x65A JUMP JUMPDEST SWAP1 PUSH1 0x0 MSTORE PUSH1 0x20 PUSH1 0x0 KECCAK256 SWAP1 PUSH1 0x1F ADD PUSH1 0x20 SWAP1 DIV DUP2 ADD SWAP3 DUP3 PUSH3 0x366 JUMPI PUSH1 0x0 DUP6 SSTORE PUSH3 0x3B2 JUMP JUMPDEST DUP3 PUSH1 0x1F LT PUSH3 0x381 JUMPI DUP1 MLOAD PUSH1 0xFF NOT AND DUP4 DUP1 ADD OR DUP6 SSTORE PUSH3 0x3B2 JUMP JUMPDEST DUP3 DUP1 ADD PUSH1 0x1 ADD DUP6 SSTORE DUP3 ISZERO PUSH3 0x3B2 JUMPI SWAP2 DUP3 ADD JUMPDEST DUP3 DUP2 GT ISZERO PUSH3 0x3B1 JUMPI DUP3 MLOAD DUP3 SSTORE SWAP2 PUSH1 0x20 ADD SWAP2 SWAP1 PUSH1 0x1 ADD SWAP1 PUSH3 0x394 JUMP JUMPDEST JUMPDEST POP SWAP1 POP PUSH3 0x3C1 SWAP2 SWAP1 PUSH3 0x3C5 JUMP JUMPDEST POP SWAP1 JUMP JUMPDEST JUMPDEST DUP1 DUP3 GT ISZERO PUSH3 0x3E0 JUMPI PUSH1 0x0 DUP2 PUSH1 0x0 SWAP1 SSTORE POP PUSH1 0x1 ADD PUSH3 0x3C6 JUMP JUMPDEST POP SWAP1 JUMP JUMPDEST PUSH1 0x0 DUP2 MLOAD SWAP1 POP PUSH3 0x3F5 DUP2 PUSH3 0x6F7 JUMP JUMPDEST SWAP3 SWAP2 POP POP JUMP JUMPDEST PUSH1 0x0 PUSH1 0x20 DUP3 DUP5 SUB SLT ISZERO PUSH3 0x414 JUMPI PUSH3 0x413 PUSH3 0x6C9 JUMP JUMPDEST JUMPDEST PUSH1 0x0 PUSH3 0x424 DUP5 DUP3 DUP6 ADD PUSH3 0x3E4 JUMP JUMPDEST SWAP2 POP POP SWAP3 SWAP2 POP POP JUMP JUMPDEST PUSH1 0x0 PUSH3 0x43A DUP3 PUSH3 0x5EF JUMP JUMPDEST PUSH3 0x446 DUP2 DUP6 PUSH3 0x5FA JUMP JUMPDEST SWAP4 POP PUSH3 0x458 DUP2 DUP6 PUSH1 0x20 DUP7 ADD PUSH3 0x624 JUMP JUMPDEST DUP1 DUP5 ADD SWAP2 POP POP SWAP3 SWAP2 POP POP JUMP JUMPDEST PUSH3 0x479 PUSH3 0x473 DUP3 PUSH3 0x61A JUMP JUMPDEST PUSH3 0x690 JUMP JUMPDEST DUP3 MSTORE POP POP JUMP JUMPDEST PUSH1 0x0 DUP2 SLOAD PUSH3 0x48E DUP2 PUSH3 0x65A JUMP JUMPDEST PUSH3 0x49A DUP2 DUP7 PUSH3 0x605 JUMP JUMPDEST SWAP5 POP PUSH1 0x1 DUP3 AND PUSH1 0x0 DUP2 EQ PUSH3 0x4B8 JUMPI PUSH1 0x1 DUP2 EQ PUSH3 0x4CA JUMPI PUSH3 0x501 JUMP JUMPDEST PUSH1 0xFF NOT DUP4 AND DUP7 MSTORE DUP2 DUP7 ADD SWAP4 POP PUSH3 0x501 JUMP JUMPDEST PUSH3 0x4D5 DUP6 PUSH3 0x5DA JUMP JUMPDEST PUSH1 0x0 JUMPDEST DUP4 DUP2 LT ISZERO PUSH3 0x4F9 JUMPI DUP2 SLOAD DUP2 DUP10 ADD MSTORE PUSH1 0x1 DUP3 ADD SWAP2 POP PUSH1 0x20 DUP2 ADD SWAP1 POP PUSH3 0x4D8 JUMP JUMPDEST DUP4 DUP9 ADD SWAP6 POP POP POP JUMPDEST POP POP POP SWAP3 SWAP2 POP POP JUMP JUMPDEST PUSH1 0x0 PUSH3 0x519 PUSH1 0xB DUP4 PUSH3 0x5FA JUMP JUMPDEST SWAP2 POP PUSH3 0x526 DUP3 PUSH3 0x6CE JUMP JUMPDEST PUSH1 0xB DUP3 ADD SWAP1 POP SWAP2 SWAP1 POP JUMP JUMPDEST PUSH1 0x0 PUSH3 0x540 PUSH1 0xB DUP4 PUSH3 0x605 JUMP JUMPDEST SWAP2 POP PUSH3 0x54D DUP3 PUSH3 0x6CE JUMP JUMPDEST PUSH1 0xB DUP3 ADD SWAP1 POP SWAP2 SWAP1 POP JUMP JUMPDEST PUSH1 0x0 PUSH3 0x566 DUP3 DUP5 PUSH3 0x42D JUMP JUMPDEST SWAP2 POP DUP2 SWAP1 POP SWAP3 SWAP2 POP POP JUMP JUMPDEST PUSH1 0x0 PUSH3 0x57F DUP3 DUP6 PUSH3 0x47F JUMP JUMPDEST SWAP2 POP PUSH3 0x58D DUP3 DUP5 PUSH3 0x47F JUMP JUMPDEST SWAP2 POP DUP2 SWAP1 POP SWAP4 SWAP3 POP POP POP JUMP JUMPDEST PUSH1 0x0 PUSH3 0x5A6 DUP3 PUSH3 0x50A JUMP JUMPDEST SWAP2 POP DUP2 SWAP1 POP SWAP2 SWAP1 POP JUMP JUMPDEST PUSH1 0x0 PUSH3 0x5BD DUP3 PUSH3 0x531 JUMP JUMPDEST SWAP2 POP PUSH3 0x5CB DUP3 DUP5 PUSH3 0x464 JUMP JUMPDEST PUSH1 0x20 DUP3 ADD SWAP2 POP DUP2 SWAP1 POP SWAP3 SWAP2 POP POP JUMP JUMPDEST PUSH1 0x0 DUP2 SWAP1 POP DUP2 PUSH1 0x0 MSTORE PUSH1 0x20 PUSH1 0x0 KECCAK256 SWAP1 POP SWAP2 SWAP1 POP JUMP JUMPDEST PUSH1 0x0 DUP2 MLOAD SWAP1 POP SWAP2 SWAP1 POP JUMP JUMPDEST PUSH1 0x0 DUP2 SWAP1 POP SWAP3 SWAP2 POP POP JUMP JUMPDEST PUSH1 0x0 DUP2 SWAP1 POP SWAP3 SWAP2 POP POP JUMP JUMPDEST PUSH1 0x0 DUP2 SWAP1 POP SWAP2 SWAP1 POP JUMP JUMPDEST PUSH1 0x0 DUP2 SWAP1 POP SWAP2 SWAP1 POP JUMP JUMPDEST PUSH1 0x0 JUMPDEST DUP4 DUP2 LT ISZERO PUSH3 0x644 JUMPI DUP1 DUP3 ADD MLOAD DUP2 DUP5 ADD MSTORE PUSH1 0x20 DUP2 ADD SWAP1 POP PUSH3 0x627 JUMP JUMPDEST DUP4 DUP2 GT ISZERO PUSH3 0x654 JUMPI PUSH1 0x0 DUP5 DUP5 ADD MSTORE JUMPDEST POP POP POP POP JUMP JUMPDEST PUSH1 0x0 PUSH1 0x2 DUP3 DIV SWAP1 POP PUSH1 0x1 DUP3 AND DUP1 PUSH3 0x673 JUMPI PUSH1 0x7F DUP3 AND SWAP2 POP JUMPDEST PUSH1 0x20 DUP3 LT DUP2 EQ ISZERO PUSH3 0x68A JUMPI PUSH3 0x689 PUSH3 0x69A JUMP JUMPDEST JUMPDEST POP SWAP2 SWAP1 POP JUMP JUMPDEST PUSH1 0x0 DUP2 SWAP1 POP SWAP2 SWAP1 POP JUMP JUMPDEST PUSH32 0x4E487B7100000000000000000000000000000000000000000000000000000000 PUSH1 0x0 MSTORE PUSH1 0x22 PUSH1 0x4 MSTORE PUSH1 0x24 PUSH1 0x0 REVERT JUMPDEST PUSH1 0x0 DUP1 REVERT JUMPDEST PUSH32 0x48656E6C6F20776F726C64000000000000000000000000000000000000000000 PUSH1 0x0 DUP3 ADD MSTORE POP JUMP JUMPDEST PUSH3 0x702 DUP2 PUSH3 0x610 JUMP JUMPDEST DUP2 EQ PUSH3 0x70E JUMPI PUSH1 0x0 DUP1 REVERT JUMPDEST POP JUMP JUMPDEST PUSH2 0x8CB DUP1 PUSH3 0x721 PUSH1 0x0 CODECOPY PUSH1 0x0 RETURN INVALID PUSH1 0x80 PUSH1 0x40 MSTORE CALLVALUE DUP1 ISZERO PUSH2 0x10 JUMPI PUSH1 0x0 DUP1 REVERT JUMPDEST POP PUSH1 0x4 CALLDATASIZE LT PUSH2 0x10B JUMPI PUSH1 0x0 CALLDATALOAD PUSH1 0xE0 SHR DUP1 PUSH4 0x91D101AF GT PUSH2 0xA2 JUMPI DUP1 PUSH4 0xC3DA42B8 GT PUSH2 0x71 JUMPI DUP1 PUSH4 0xC3DA42B8 EQ PUSH2 0x250 JUMPI DUP1 PUSH4 0xC4370EBF EQ PUSH2 0x26E JUMPI DUP1 PUSH4 0xCD99A846 EQ PUSH2 0x278 JUMPI DUP1 PUSH4 0xFF4479D8 EQ PUSH2 0x296 JUMPI DUP1 PUSH4 0xFFAE15BA EQ PUSH2 0x2A0 JUMPI PUSH2 0x10B JUMP JUMPDEST DUP1 PUSH4 0x91D101AF EQ PUSH2 0x1EC JUMPI DUP1 PUSH4 0xAF0C2EA7 EQ PUSH2 0x1F6 JUMPI DUP1 PUSH4 0xB38FEE92 EQ PUSH2 0x214 JUMPI DUP1 PUSH4 0xC19D93FB EQ PUSH2 0x232 JUMPI PUSH2 0x10B JUMP JUMPDEST DUP1 PUSH4 0x62B57AF4 GT PUSH2 0xDE JUMPI DUP1 PUSH4 0x62B57AF4 EQ PUSH2 0x188 JUMPI DUP1 PUSH4 0x66E41D20 EQ PUSH2 0x192 JUMPI DUP1 PUSH4 0x8DA5CB5B EQ PUSH2 0x1B0 JUMPI DUP1 PUSH4 0x90E1437C EQ PUSH2 0x1CE JUMPI PUSH2 0x10B JUMP JUMPDEST DUP1 PUSH4 0xB9239FB EQ PUSH2 0x110 JUMPI DUP1 PUSH4 0x222A90AC EQ PUSH2 0x12E JUMPI DUP1 PUSH4 0x42FB0109 EQ PUSH2 0x14C JUMPI DUP1 PUSH4 0x5C480680 EQ PUSH2 0x16A JUMPI JUMPDEST PUSH1 0x0 DUP1 REVERT JUMPDEST PUSH2 0x118 PUSH2 0x2BE JUMP JUMPDEST PUSH1 0x40 MLOAD PUSH2 0x125 SWAP2 SWAP1 PUSH2 0x5FE JUMP JUMPDEST PUSH1 0x40 MLOAD DUP1 SWAP2 SUB SWAP1 RETURN JUMPDEST PUSH2 0x136 PUSH2 0x2E4 JUMP JUMPDEST PUSH1 0x40 MLOAD PUSH2 0x143 SWAP2 SWAP1 PUSH2 0x619 JUMP JUMPDEST PUSH1 0x40 MLOAD DUP1 SWAP2 SUB SWAP1 RETURN JUMPDEST PUSH2 0x154 PUSH2 0x2F7 JUMP JUMPDEST PUSH1 0x40 MLOAD PUSH2 0x161 SWAP2 SWAP1 PUSH2 0x619 JUMP JUMPDEST PUSH1 0x40 MLOAD DUP1 SWAP2 SUB SWAP1 RETURN JUMPDEST PUSH2 0x172 PUSH2 0x30A JUMP JUMPDEST PUSH1 0x40 MLOAD PUSH2 0x17F SWAP2 SWAP1 PUSH2 0x64F JUMP JUMPDEST PUSH1 0x40 MLOAD DUP1 SWAP2 SUB SWAP1 RETURN JUMPDEST PUSH2 0x190 PUSH2 0x310 JUMP JUMPDEST STOP JUMPDEST PUSH2 0x19A PUSH2 0x33D JUMP JUMPDEST PUSH1 0x40 MLOAD PUSH2 0x1A7 SWAP2 SWAP1 PUSH2 0x64F JUMP JUMPDEST PUSH1 0x40 MLOAD DUP1 SWAP2 SUB SWAP1 RETURN JUMPDEST PUSH2 0x1B8 PUSH2 0x343 JUMP JUMPDEST PUSH1 0x40 MLOAD PUSH2 0x1C5 SWAP2 SWAP1 PUSH2 0x5FE JUMP JUMPDEST PUSH1 0x40 MLOAD DUP1 SWAP2 SUB SWAP1 RETURN JUMPDEST PUSH2 0x1D6 PUSH2 0x369 JUMP JUMPDEST PUSH1 0x40 MLOAD PUSH2 0x1E3 SWAP2 SWAP1 PUSH2 0x6A0 JUMP JUMPDEST PUSH1 0x40 MLOAD DUP1 SWAP2 SUB SWAP1 RETURN JUMPDEST PUSH2 0x1F4 PUSH2 0x3F7 JUMP JUMPDEST STOP JUMPDEST PUSH2 0x1FE PUSH2 0x424 JUMP JUMPDEST PUSH1 0x40 MLOAD PUSH2 0x20B SWAP2 SWAP1 PUSH2 0x634 JUMP JUMPDEST PUSH1 0x40 MLOAD DUP1 SWAP2 SUB SWAP1 RETURN JUMPDEST PUSH2 0x21C PUSH2 0x437 JUMP JUMPDEST PUSH1 0x40 MLOAD PUSH2 0x229 SWAP2 SWAP1 PUSH2 0x6A0 JUMP JUMPDEST PUSH1 0x40 MLOAD DUP1 SWAP2 SUB SWAP1 RETURN JUMPDEST PUSH2 0x23A PUSH2 0x4C5 JUMP JUMPDEST PUSH1 0x40 MLOAD PUSH2 0x247 SWAP2 SWAP1 PUSH2 0x66A JUMP JUMPDEST PUSH1 0x40 MLOAD DUP1 SWAP2 SUB SWAP1 RETURN JUMPDEST PUSH2 0x258 PUSH2 0x4D8 JUMP JUMPDEST PUSH1 0x40 MLOAD PUSH2 0x265 SWAP2 SWAP1 PUSH2 0x6C2 JUMP JUMPDEST PUSH1 0x40 MLOAD DUP1 SWAP2 SUB SWAP1 RETURN JUMPDEST PUSH2 0x276 PUSH2 0x4EA JUMP JUMPDEST STOP JUMPDEST PUSH2 0x280 PUSH2 0x517 JUMP JUMPDEST PUSH1 0x40 MLOAD PUSH2 0x28D SWAP2 SWAP1 PUSH2 0x66A JUMP JUMPDEST PUSH1 0x40 MLOAD DUP1 SWAP2 SUB SWAP1 RETURN JUMPDEST PUSH2 0x29E PUSH2 0x51C JUMP JUMPDEST STOP JUMPDEST PUSH2 0x2A8 PUSH2 0x549 JUMP JUMPDEST PUSH1 0x40 MLOAD PUSH2 0x2B5 SWAP2 SWAP1 PUSH2 0x685 JUMP JUMPDEST PUSH1 0x40 MLOAD DUP1 SWAP2 SUB SWAP1 RETURN JUMPDEST PUSH1 0xF PUSH1 0x0 SWAP1 SLOAD SWAP1 PUSH2 0x100 EXP SWAP1 DIV PUSH20 0xFFFFFFFFFFFFFFFFFFFFFFFFFFFFFFFFFFFFFFFF AND DUP2 JUMP JUMPDEST PUSH1 0x7 PUSH1 0x2 SWAP1 SLOAD SWAP1 PUSH2 0x100 EXP SWAP1 DIV PUSH1 0xFF AND DUP2 JUMP JUMPDEST PUSH1 0x7 PUSH1 0x1 SWAP1 SLOAD SWAP1 PUSH2 0x100 EXP SWAP1 DIV PUSH1 0xFF AND DUP2 JUMP JUMPDEST PUSH1 0xB SLOAD DUP2 JUMP JUMPDEST PUSH1 0x0 PUSH1 0x10 PUSH1 0x14 PUSH2 0x100 EXP DUP2 SLOAD DUP2 PUSH1 0xFF MUL NOT AND SWAP1 DUP4 PUSH1 0x3 DUP2 GT ISZERO PUSH2 0x336 JUMPI PUSH2 0x335 PUSH2 0x812 JUMP JUMPDEST JUMPDEST MUL OR SWAP1 SSTORE POP JUMP JUMPDEST PUSH1 0xC SLOAD DUP2 JUMP JUMPDEST PUSH1 0x10 PUSH1 0x0 SWAP1 SLOAD SWAP1 PUSH2 0x100 EXP SWAP1 DIV PUSH20 0xFFFFFFFFFFFFFFFFFFFFFFFFFFFFFFFFFFFFFFFF AND DUP2 JUMP JUMPDEST PUSH1 0x6 DUP1 SLOAD PUSH2 0x376 SWAP1 PUSH2 0x7E0 JUMP JUMPDEST DUP1 PUSH1 0x1F ADD PUSH1 0x20 DUP1 SWAP2 DIV MUL PUSH1 0x20 ADD PUSH1 0x40 MLOAD SWAP1 DUP2 ADD PUSH1 0x40 MSTORE DUP1 SWAP3 SWAP2 SWAP1 DUP2 DUP2 MSTORE PUSH1 0x20 ADD DUP3 DUP1 SLOAD PUSH2 0x3A2 SWAP1 PUSH2 0x7E0 JUMP JUMPDEST DUP1 ISZERO PUSH2 0x3EF JUMPI DUP1 PUSH1 0x1F LT PUSH2 0x3C4 JUMPI PUSH2 0x100 DUP1 DUP4 SLOAD DIV MUL DUP4 MSTORE SWAP2 PUSH1 0x20 ADD SWAP2 PUSH2 0x3EF JUMP JUMPDEST DUP3 ADD SWAP2 SWAP1 PUSH1 0x0 MSTORE PUSH1 0x20 PUSH1 0x0 KECCAK256 SWAP1 JUMPDEST DUP2 SLOAD DUP2 MSTORE SWAP1 PUSH1 0x1 ADD SWAP1 PUSH1 0x20 ADD DUP1 DUP4 GT PUSH2 0x3D2 JUMPI DUP3 SWAP1 SUB PUSH1 0x1F AND DUP3 ADD SWAP2 JUMPDEST POP POP POP POP POP DUP2 JUMP JUMPDEST PUSH1 0x3 PUSH1 0x10 PUSH1 0x14 PUSH2 0x100 EXP DUP2 SLOAD DUP2 PUSH1 0xFF MUL NOT AND SWAP1 DUP4 PUSH1 0x3 DUP2 GT ISZERO PUSH2 0x41D JUMPI PUSH2 0x41C PUSH2 0x812 JUMP JUMPDEST JUMPDEST MUL OR SWAP1 SSTORE POP JUMP JUMPDEST PUSH1 0xD PUSH1 0x0 SWAP1 SLOAD SWAP1 PUSH2 0x100 EXP SWAP1 DIV PUSH1 0x60 SHL DUP2 JUMP JUMPDEST PUSH1 0x4 DUP1 SLOAD PUSH2 0x444 SWAP1 PUSH2 0x7E0 JUMP JUMPDEST DUP1 PUSH1 0x1F ADD PUSH1 0x20 DUP1 SWAP2 DIV MUL PUSH1 0x20 ADD PUSH1 0x40 MLOAD SWAP1 DUP2 ADD PUSH1 0x40 MSTORE DUP1 SWAP3 SWAP2 SWAP1 DUP2 DUP2 MSTORE PUSH1 0x20 ADD DUP3 DUP1 SLOAD PUSH2 0x470 SWAP1 PUSH2 0x7E0 JUMP JUMPDEST DUP1 ISZERO PUSH2 0x4BD JUMPI DUP1 PUSH1 0x1F LT PUSH2 0x492 JUMPI PUSH2 0x100 DUP1 DUP4 SLOAD DIV MUL DUP4 MSTORE SWAP2 PUSH1 0x20 ADD SWAP2 PUSH2 0x4BD JUMP JUMPDEST DUP3 ADD SWAP2 SWAP1 PUSH1 0x0 MSTORE PUSH1 0x20 PUSH1 0x0 KECCAK256 SWAP1 JUMPDEST DUP2 SLOAD DUP2 MSTORE SWAP1 PUSH1 0x1 ADD SWAP1 PUSH1 0x20 ADD DUP1 DUP4 GT PUSH2 0x4A0 JUMPI DUP3 SWAP1 SUB PUSH1 0x1F AND DUP3 ADD SWAP2 JUMPDEST POP POP POP POP POP DUP2 JUMP JUMPDEST PUSH1 0x10 PUSH1 0x14 SWAP1 SLOAD SWAP1 PUSH2 0x100 EXP SWAP1 DIV PUSH1 0xFF AND DUP2 JUMP JUMPDEST PUSH1 0x1 DUP1 SLOAD SWAP1 PUSH2 0x100 EXP SWAP1 DIV PUSH2 0xFFFF AND DUP2 JUMP JUMPDEST PUSH1 0x2 PUSH1 0x10 PUSH1 0x14 PUSH2 0x100 EXP DUP2 SLOAD DUP2 PUSH1 0xFF MUL NOT AND SWAP1 DUP4 PUSH1 0x3 DUP2 GT ISZERO PUSH2 0x510 JUMPI PUSH2 0x50F PUSH2 0x812 JUMP JUMPDEST JUMPDEST MUL OR SWAP1 SSTORE POP JUMP JUMPDEST PUSH1 0x3 DUP2 JUMP JUMPDEST PUSH1 0x1 PUSH1 0x10 PUSH1 0x14 PUSH2 0x100 EXP DUP2 SLOAD DUP2 PUSH1 0xFF MUL NOT AND SWAP1 DUP4 PUSH1 0x3 DUP2 GT ISZERO PUSH2 0x542 JUMPI PUSH2 0x541 PUSH2 0x812 JUMP JUMPDEST JUMPDEST MUL OR SWAP1 SSTORE POP JUMP JUMPDEST PUSH1 0x3 PUSH1 0x0 SWAP1 SLOAD SWAP1 PUSH2 0x100 EXP SWAP1 DIV PUSH1 0x3 SIGNEXTEND DUP2 JUMP JUMPDEST PUSH2 0x565 DUP2 PUSH2 0x6F9 JUMP JUMPDEST DUP3 MSTORE POP POP JUMP JUMPDEST PUSH2 0x574 DUP2 PUSH2 0x70B JUMP JUMPDEST DUP3 MSTORE POP POP JUMP JUMPDEST PUSH2 0x583 DUP2 PUSH2 0x717 JUMP JUMPDEST DUP3 MSTORE POP POP JUMP JUMPDEST PUSH2 0x592 DUP2 PUSH2 0x743 JUMP JUMPDEST DUP3 MSTORE POP POP JUMP JUMPDEST PUSH2 0x5A1 DUP2 PUSH2 0x79B JUMP JUMPDEST DUP3 MSTORE POP POP JUMP JUMPDEST PUSH2 0x5B0 DUP2 PUSH2 0x760 JUMP JUMPDEST DUP3 MSTORE POP POP JUMP JUMPDEST PUSH1 0x0 PUSH2 0x5C1 DUP3 PUSH2 0x6DD JUMP JUMPDEST PUSH2 0x5CB DUP2 DUP6 PUSH2 0x6E8 JUMP JUMPDEST SWAP4 POP PUSH2 0x5DB DUP2 DUP6 PUSH1 0x20 DUP7 ADD PUSH2 0x7AD JUMP JUMPDEST PUSH2 0x5E4 DUP2 PUSH2 0x870 JUMP JUMPDEST DUP5 ADD SWAP2 POP POP SWAP3 SWAP2 POP POP JUMP JUMPDEST PUSH2 0x5F8 DUP2 PUSH2 0x76D JUMP JUMPDEST DUP3 MSTORE POP POP JUMP JUMPDEST PUSH1 0x0 PUSH1 0x20 DUP3 ADD SWAP1 POP PUSH2 0x613 PUSH1 0x0 DUP4 ADD DUP5 PUSH2 0x55C JUMP JUMPDEST SWAP3 SWAP2 POP POP JUMP JUMPDEST PUSH1 0x0 PUSH1 0x20 DUP3 ADD SWAP1 POP PUSH2 0x62E PUSH1 0x0 DUP4 ADD DUP5 PUSH2 0x56B JUMP JUMPDEST SWAP3 SWAP2 POP POP JUMP JUMPDEST PUSH1 0x0 PUSH1 0x20 DUP3 ADD SWAP1 POP PUSH2 0x649 PUSH1 0x0 DUP4 ADD DUP5 PUSH2 0x57A JUMP JUMPDEST SWAP3 SWAP2 POP POP JUMP JUMPDEST PUSH1 0x0 PUSH1 0x20 DUP3 ADD SWAP1 POP PUSH2 0x664 PUSH1 0x0 DUP4 ADD DUP5 PUSH2 0x589 JUMP JUMPDEST SWAP3 SWAP2 POP POP JUMP JUMPDEST PUSH1 0x0 PUSH1 0x20 DUP3 ADD SWAP1 POP PUSH2 0x67F PUSH1 0x0 DUP4 ADD DUP5 PUSH2 0x598 JUMP JUMPDEST SWAP3 SWAP2 POP POP JUMP JUMPDEST PUSH1 0x0 PUSH1 0x20 DUP3 ADD SWAP1 POP PUSH2 0x69A PUSH1 0x0 DUP4 ADD DUP5 PUSH2 0x5A7 JUMP JUMPDEST SWAP3 SWAP2 POP POP JUMP JUMPDEST PUSH1 0x0 PUSH1 0x20 DUP3 ADD SWAP1 POP DUP2 DUP2 SUB PUSH1 0x0 DUP4 ADD MSTORE PUSH2 0x6BA DUP2 DUP5 PUSH2 0x5B6 JUMP JUMPDEST SWAP1 POP SWAP3 SWAP2 POP POP JUMP JUMPDEST PUSH1 0x0 PUSH1 0x20 DUP3 ADD SWAP1 POP PUSH2 0x6D7 PUSH1 0x0 DUP4 ADD DUP5 PUSH2 0x5EF JUMP JUMPDEST SWAP3 SWAP2 POP POP JUMP JUMPDEST PUSH1 0x0 DUP2 MLOAD SWAP1 POP SWAP2 SWAP1 POP JUMP JUMPDEST PUSH1 0x0 DUP3 DUP3 MSTORE PUSH1 0x20 DUP3 ADD SWAP1 POP SWAP3 SWAP2 POP POP JUMP JUMPDEST PUSH1 0x0 PUSH2 0x704 DUP3 PUSH2 0x77B JUMP JUMPDEST SWAP1 POP SWAP2 SWAP1 POP JUMP JUMPDEST PUSH1 0x0 DUP2 ISZERO ISZERO SWAP1 POP SWAP2 SWAP1 POP JUMP JUMPDEST PUSH1 0x0 PUSH32 0xFFFFFFFFFFFFFFFFFFFFFFFFFFFFFFFFFFFFFFFF000000000000000000000000 DUP3 AND SWAP1 POP SWAP2 SWAP1 POP JUMP JUMPDEST PUSH1 0x0 DUP2 SWAP1 POP SWAP2 SWAP1 POP JUMP JUMPDEST PUSH1 0x0 DUP2 SWAP1 POP PUSH2 0x75B DUP3 PUSH2 0x881 JUMP JUMPDEST SWAP2 SWAP1 POP JUMP JUMPDEST PUSH1 0x0 DUP2 PUSH1 0x3 SIGNEXTEND SWAP1 POP SWAP2 SWAP1 POP JUMP JUMPDEST PUSH1 0x0 PUSH2 0xFFFF DUP3 AND SWAP1 POP SWAP2 SWAP1 POP JUMP JUMPDEST PUSH1 0x0 PUSH20 0xFFFFFFFFFFFFFFFFFFFFFFFFFFFFFFFFFFFFFFFF DUP3 AND SWAP1 POP SWAP2 SWAP1 POP JUMP JUMPDEST PUSH1 0x0 PUSH2 0x7A6 DUP3 PUSH2 0x74D JUMP JUMPDEST SWAP1 POP SWAP2 SWAP1 POP JUMP JUMPDEST PUSH1 0x0 JUMPDEST DUP4 DUP2 LT ISZERO PUSH2 0x7CB JUMPI DUP1 DUP3 ADD MLOAD DUP2 DUP5 ADD MSTORE PUSH1 0x20 DUP2 ADD SWAP1 POP PUSH2 0x7B0 JUMP JUMPDEST DUP4 DUP2 GT ISZERO PUSH2 0x7DA JUMPI PUSH1 0x0 DUP5 DUP5 ADD MSTORE JUMPDEST POP POP POP POP JUMP JUMPDEST PUSH1 0x0 PUSH1 0x2 DUP3 DIV SWAP1 POP PUSH1 0x1 DUP3 AND DUP1 PUSH2 0x7F8 JUMPI PUSH1 0x7F DUP3 AND SWAP2 POP JUMPDEST PUSH1 0x20 DUP3 LT DUP2 EQ ISZERO PUSH2 0x80C JUMPI PUSH2 0x80B PUSH2 0x841 JUMP JUMPDEST JUMPDEST POP SWAP2 SWAP1 POP JUMP JUMPDEST PUSH32 0x4E487B7100000000000000000000000000000000000000000000000000000000 PUSH1 0x0 MSTORE PUSH1 0x21 PUSH1 0x4 MSTORE PUSH1 0x24 PUSH1 0x0 REVERT JUMPDEST PUSH32 0x4E487B7100000000000000000000000000000000000000000000000000000000 PUSH1 0x0 MSTORE PUSH1 0x22 PUSH1 0x4 MSTORE PUSH1 0x24 PUSH1 0x0 REVERT JUMPDEST PUSH1 0x0 PUSH1 0x1F NOT PUSH1 0x1F DUP4 ADD AND SWAP1 POP SWAP2 SWAP1 POP JUMP JUMPDEST PUSH1 0x4 DUP2 LT PUSH2 0x892 JUMPI PUSH2 0x891 PUSH2 0x812 JUMP JUMPDEST JUMPDEST POP JUMP INVALID LOG2 PUSH5 0x6970667358 0x22 SLT KECCAK256 ADDRESS JUMPI 0xED 0x5D PUSH25 0x799F2ABF084D608AC1EA4AE0C7724BD03DC0CB11AEDA9C5F37 0xC9 PUSH27 0x64736F6C6343000805003300000000000000000000000000000000 "
				},
				"gasEstimates": {
					"creation": {
						"codeDepositCost": "450200",
						"executionCost": "infinite",
						"totalCost": "infinite"
					},
					"external": {
						"boolFalse()": "2567",
						"boolTrue()": "2589",
						"c()": "2540",
						"changeToAda()": "24504",
						"changeToBNB()": "24525",
						"changeToBTC()": "24504",
						"changeToEther()": "24569",
						"defaultChoice()": "490",
						"e()": "2585",
						"friendAddress()": "2538",
						"hash_keccak256()": "2519",
						"hash_ripemd160()": "2516",
						"hash_sha256()": "2474",
						"owner()": "2581",
						"pl()": "infinite",
						"state()": "2699",
						"surname()": "infinite"
					}
				},
				"methodIdentifiers": {
					"boolFalse()": "222a90ac",
					"boolTrue()": "42fb0109",
					"c()": "c3da42b8",
					"changeToAda()": "62b57af4",
					"changeToBNB()": "c4370ebf",
					"changeToBTC()": "91d101af",
					"changeToEther()": "ff4479d8",
					"defaultChoice()": "cd99a846",
					"e()": "ffae15ba",
					"friendAddress()": "0b9239fb",
					"hash_keccak256()": "5c480680",
					"hash_ripemd160()": "af0c2ea7",
					"hash_sha256()": "66e41d20",
					"owner()": "8da5cb5b",
					"pl()": "90e1437c",
					"state()": "c19d93fb",
					"surname()": "b38fee92"
				}
			},
			"storageLayout": {
				"storage": [
					{
						"astId": 3,
						"contract": "contracts/2_variable_modifiers.sol:VariableModifiers",
						"label": "a",
						"offset": 0,
						"slot": "0",
						"type": "t_uint256"
					},
					{
						"astId": 6,
						"contract": "contracts/2_variable_modifiers.sol:VariableModifiers",
						"label": "b",
						"offset": 0,
						"slot": "1",
						"type": "t_uint8"
					},
					{
						"astId": 9,
						"contract": "contracts/2_variable_modifiers.sol:VariableModifiers",
						"label": "c",
						"offset": 1,
						"slot": "1",
						"type": "t_uint16"
					},
					{
						"astId": 13,
						"contract": "contracts/2_variable_modifiers.sol:VariableModifiers",
						"label": "d",
						"offset": 0,
						"slot": "2",
						"type": "t_int256"
					},
					{
						"astId": 17,
						"contract": "contracts/2_variable_modifiers.sol:VariableModifiers",
						"label": "e",
						"offset": 0,
						"slot": "3",
						"type": "t_int32"
					},
					{
						"astId": 19,
						"contract": "contracts/2_variable_modifiers.sol:VariableModifiers",
						"label": "surname",
						"offset": 0,
						"slot": "4",
						"type": "t_string_storage"
					},
					{
						"astId": 22,
						"contract": "contracts/2_variable_modifiers.sol:VariableModifiers",
						"label": "name",
						"offset": 0,
						"slot": "5",
						"type": "t_string_storage"
					},
					{
						"astId": 25,
						"contract": "contracts/2_variable_modifiers.sol:VariableModifiers",
						"label": "pl",
						"offset": 0,
						"slot": "6",
						"type": "t_string_storage"
					},
					{
						"astId": 27,
						"contract": "contracts/2_variable_modifiers.sol:VariableModifiers",
						"label": "boolean",
						"offset": 0,
						"slot": "7",
						"type": "t_bool"
					},
					{
						"astId": 30,
						"contract": "contracts/2_variable_modifiers.sol:VariableModifiers",
						"label": "boolTrue",
						"offset": 1,
						"slot": "7",
						"type": "t_bool"
					},
					{
						"astId": 33,
						"contract": "contracts/2_variable_modifiers.sol:VariableModifiers",
						"label": "boolFalse",
						"offset": 2,
						"slot": "7",
						"type": "t_bool"
					},
					{
						"astId": 35,
						"contract": "contracts/2_variable_modifiers.sol:VariableModifiers",
						"label": "testingBytes",
						"offset": 0,
						"slot": "8",
						"type": "t_bytes32"
					},
					{
						"astId": 37,
						"contract": "contracts/2_variable_modifiers.sol:VariableModifiers",
						"label": "lessBytes",
						"offset": 0,
						"slot": "9",
						"type": "t_bytes4"
					},
					{
						"astId": 39,
						"contract": "contracts/2_variable_modifiers.sol:VariableModifiers",
						"label": "eightBytes",
						"offset": 4,
						"slot": "9",
						"type": "t_bytes8"
					},
					{
						"astId": 41,
						"contract": "contracts/2_variable_modifiers.sol:VariableModifiers",
						"label": "oldBytesCrash",
						"offset": 0,
						"slot": "10",
						"type": "t_bytes_storage"
					},
					{
						"astId": 50,
						"contract": "contracts/2_variable_modifiers.sol:VariableModifiers",
						"label": "hash_keccak256",
						"offset": 0,
						"slot": "11",
						"type": "t_bytes32"
					},
					{
						"astId": 62,
						"contract": "contracts/2_variable_modifiers.sol:VariableModifiers",
						"label": "hash_sha256",
						"offset": 0,
						"slot": "12",
						"type": "t_bytes32"
					},
					{
						"astId": 67,
						"contract": "contracts/2_variable_modifiers.sol:VariableModifiers",
						"label": "hash_ripemd160",
						"offset": 0,
						"slot": "13",
						"type": "t_bytes20"
					},
					{
						"astId": 69,
						"contract": "contracts/2_variable_modifiers.sol:VariableModifiers",
						"label": "myAddress",
						"offset": 0,
						"slot": "14",
						"type": "t_address"
					},
					{
						"astId": 72,
						"contract": "contracts/2_variable_modifiers.sol:VariableModifiers",
						"label": "friendAddress",
						"offset": 0,
						"slot": "15",
						"type": "t_address"
					},
					{
						"astId": 76,
						"contract": "contracts/2_variable_modifiers.sol:VariableModifiers",
						"label": "owner",
						"offset": 0,
						"slot": "16",
						"type": "t_address"
					},
					{
						"astId": 89,
						"contract": "contracts/2_variable_modifiers.sol:VariableModifiers",
						"label": "state",
						"offset": 20,
						"slot": "16",
						"type": "t_enum(tokens)81"
					}
				],
				"types": {
					"t_address": {
						"encoding": "inplace",
						"label": "address",
						"numberOfBytes": "20"
					},
					"t_bool": {
						"encoding": "inplace",
						"label": "bool",
						"numberOfBytes": "1"
					},
					"t_bytes20": {
						"encoding": "inplace",
						"label": "bytes20",
						"numberOfBytes": "20"
					},
					"t_bytes32": {
						"encoding": "inplace",
						"label": "bytes32",
						"numberOfBytes": "32"
					},
					"t_bytes4": {
						"encoding": "inplace",
						"label": "bytes4",
						"numberOfBytes": "4"
					},
					"t_bytes8": {
						"encoding": "inplace",
						"label": "bytes8",
						"numberOfBytes": "8"
					},
					"t_bytes_storage": {
						"encoding": "bytes",
						"label": "bytes",
						"numberOfBytes": "32"
					},
					"t_enum(tokens)81": {
						"encoding": "inplace",
						"label": "enum VariableModifiers.tokens",
						"numberOfBytes": "1"
					},
					"t_int256": {
						"encoding": "inplace",
						"label": "int256",
						"numberOfBytes": "32"
					},
					"t_int32": {
						"encoding": "inplace",
						"label": "int32",
						"numberOfBytes": "4"
					},
					"t_string_storage": {
						"encoding": "bytes",
						"label": "string",
						"numberOfBytes": "32"
					},
					"t_uint16": {
						"encoding": "inplace",
						"label": "uint16",
						"numberOfBytes": "2"
					},
					"t_uint256": {
						"encoding": "inplace",
						"label": "uint256",
						"numberOfBytes": "32"
					},
					"t_uint8": {
						"encoding": "inplace",
						"label": "uint8",
						"numberOfBytes": "1"
					}
				}
			},
			"userdoc": {
				"kind": "user",
				"methods": {},
				"version": 1
			}
		}
	}
}