{
	"contracts/3_data_structures.sol": {
		"DataStructures": {
			"abi": [
				{
					"inputs": [
						{
							"internalType": "uint256",
							"name": "id",
							"type": "uint256"
						},
						{
							"internalType": "string",
							"name": "_name",
							"type": "string"
						},
						{
							"internalType": "string",
							"name": "_email",
							"type": "string"
						}
					],
					"name": "arrayAppend",
					"outputs": [],
					"stateMutability": "nonpayable",
					"type": "function"
				},
				{
					"inputs": [
						{
							"internalType": "uint256",
							"name": "_number",
							"type": "uint256"
						}
					],
					"name": "assignNumber",
					"outputs": [],
					"stateMutability": "nonpayable",
					"type": "function"
				},
				{
					"inputs": [
						{
							"internalType": "uint256",
							"name": "",
							"type": "uint256"
						}
					],
					"name": "customers",
					"outputs": [
						{
							"internalType": "uint256",
							"name": "id",
							"type": "uint256"
						},
						{
							"internalType": "string",
							"name": "name",
							"type": "string"
						},
						{
							"internalType": "string",
							"name": "email",
							"type": "string"
						}
					],
					"stateMutability": "view",
					"type": "function"
				},
				{
					"inputs": [
						{
							"internalType": "address",
							"name": "",
							"type": "address"
						},
						{
							"internalType": "uint256",
							"name": "",
							"type": "uint256"
						}
					],
					"name": "customersAddress",
					"outputs": [
						{
							"internalType": "uint256",
							"name": "id",
							"type": "uint256"
						},
						{
							"internalType": "string",
							"name": "name",
							"type": "string"
						},
						{
							"internalType": "string",
							"name": "email",
							"type": "string"
						}
					],
					"stateMutability": "view",
					"type": "function"
				},
				{
					"inputs": [
						{
							"internalType": "address",
							"name": "",
							"type": "address"
						}
					],
					"name": "wallets",
					"outputs": [
						{
							"internalType": "uint256",
							"name": "",
							"type": "uint256"
						}
					],
					"stateMutability": "view",
					"type": "function"
				}
			],
			"devdoc": {
				"kind": "dev",
				"methods": {},
				"version": 1
			},
			"evm": {
				"assembly": "    /* \"contracts/3_data_structures.sol\":69:931  contract DataStructures {... */\n  mstore(0x40, 0x80)\n    /* \"contracts/3_data_structures.sol\":272:347  Customer(... */\n  mload(0x40)\n  dup1\n  0x60\n  add\n  0x40\n  mstore\n  dup1\n    /* \"contracts/3_data_structures.sol\":290:291  1 */\n  0x01\n    /* \"contracts/3_data_structures.sol\":272:347  Customer(... */\n  dup2\n  mstore\n  0x20\n  add\n  mload(0x40)\n  dup1\n  0x40\n  add\n  0x40\n  mstore\n  dup1\n  0x07\n  dup2\n  mstore\n  0x20\n  add\n  0x526f626572746f00000000000000000000000000000000000000000000000000\n  dup2\n  mstore\n  pop\n  dup2\n  mstore\n  0x20\n  add\n  mload(0x40)\n  dup1\n  0x40\n  add\n  0x40\n  mstore\n  dup1\n  0x13\n  dup2\n  mstore\n  0x20\n  add\n  0x726f626572746f40726f626572746f2e636f6d00000000000000000000000000\n  dup2\n  mstore\n  pop\n  dup2\n  mstore\n  pop\n    /* \"contracts/3_data_structures.sol\":251:347  Customer customer1 = Customer(... */\n  0x00\n  dup1\n  dup3\n  add\n  mload\n  dup2\n  0x00\n  add\n  sstore\n  0x20\n  dup3\n  add\n  mload\n  dup2\n  0x01\n  add\n  swap1\n  dup1\n  mload\n  swap1\n  0x20\n  add\n  swap1\n  tag_1\n  swap3\n  swap2\n  swap1\n  tag_2\n  jump\t// in\ntag_1:\n  pop\n  0x40\n  dup3\n  add\n  mload\n  dup2\n  0x02\n  add\n  swap1\n  dup1\n  mload\n  swap1\n  0x20\n  add\n  swap1\n  tag_3\n  swap3\n  swap2\n  swap1\n  tag_2\n  jump\t// in\ntag_3:\n  pop\n  pop\n  pop\n    /* \"contracts/3_data_structures.sol\":385:403  uint[4] ages = [1] */\n  mload(0x40)\n  dup1\n  0x20\n  add\n  0x40\n  mstore\n  dup1\n    /* \"contracts/3_data_structures.sol\":401:402  1 */\n  0x01\n    /* \"contracts/3_data_structures.sol\":385:403  uint[4] ages = [1] */\n  0xff\n  and\n  dup2\n  mstore\n  pop\n  0x03\n  swap1\n  0x01\n  tag_4\n  swap3\n  swap2\n  swap1\n  tag_5\n  jump\t// in\ntag_4:\n  pop\n    /* \"contracts/3_data_structures.sol\":69:931  contract DataStructures {... */\n  callvalue\n  dup1\n  iszero\n  tag_6\n  jumpi\n  0x00\n  dup1\n  revert\ntag_6:\n  pop\n  jump(tag_7)\ntag_2:\n  dup3\n  dup1\n  sload\n  tag_8\n  swap1\n  tag_9\n  jump\t// in\ntag_8:\n  swap1\n  0x00\n  mstore\n  keccak256(0x00, 0x20)\n  swap1\n  0x1f\n  add\n  0x20\n  swap1\n  div\n  dup2\n  add\n  swap3\n  dup3\n  tag_11\n  jumpi\n  0x00\n  dup6\n  sstore\n  jump(tag_10)\ntag_11:\n  dup3\n  0x1f\n  lt\n  tag_12\n  jumpi\n  dup1\n  mload\n  not(0xff)\n  and\n  dup4\n  dup1\n  add\n  or\n  dup6\n  sstore\n  jump(tag_10)\ntag_12:\n  dup3\n  dup1\n  add\n  0x01\n  add\n  dup6\n  sstore\n  dup3\n  iszero\n  tag_10\n  jumpi\n  swap2\n  dup3\n  add\ntag_13:\n  dup3\n  dup2\n  gt\n  iszero\n  tag_14\n  jumpi\n  dup3\n  mload\n  dup3\n  sstore\n  swap2\n  0x20\n  add\n  swap2\n  swap1\n  0x01\n  add\n  swap1\n  jump(tag_13)\ntag_14:\ntag_10:\n  pop\n  swap1\n  pop\n  tag_15\n  swap2\n  swap1\n  tag_16\n  jump\t// in\ntag_15:\n  pop\n  swap1\n  jump\t// out\ntag_5:\n  dup3\n  0x04\n  dup2\n  add\n  swap3\n  dup3\n  iszero\n  tag_17\n  jumpi\n  swap2\n  0x20\n  mul\n  dup3\n  add\ntag_18:\n  dup3\n  dup2\n  gt\n  iszero\n  tag_19\n  jumpi\n  dup3\n  mload\n  dup3\n  swap1\n  0xff\n  and\n  swap1\n  sstore\n  swap2\n  0x20\n  add\n  swap2\n  swap1\n  0x01\n  add\n  swap1\n  jump(tag_18)\ntag_19:\ntag_17:\n  pop\n  swap1\n  pop\n  tag_20\n  swap2\n  swap1\n  tag_16\n  jump\t// in\ntag_20:\n  pop\n  swap1\n  jump\t// out\ntag_16:\ntag_21:\n  dup1\n  dup3\n  gt\n  iszero\n  tag_22\n  jumpi\n  0x00\n  dup2\n  0x00\n  swap1\n  sstore\n  pop\n  0x01\n  add\n  jump(tag_21)\ntag_22:\n  pop\n  swap1\n  jump\t// out\n    /* \"#utility.yul\":7:327   */\ntag_9:\n    /* \"#utility.yul\":51:57   */\n  0x00\n    /* \"#utility.yul\":88:89   */\n  0x02\n    /* \"#utility.yul\":82:86   */\n  dup3\n    /* \"#utility.yul\":78:90   */\n  div\n    /* \"#utility.yul\":68:90   */\n  swap1\n  pop\n    /* \"#utility.yul\":135:136   */\n  0x01\n    /* \"#utility.yul\":129:133   */\n  dup3\n    /* \"#utility.yul\":125:137   */\n  and\n    /* \"#utility.yul\":156:174   */\n  dup1\n    /* \"#utility.yul\":146:148   */\n  tag_25\n  jumpi\n    /* \"#utility.yul\":212:216   */\n  0x7f\n    /* \"#utility.yul\":204:210   */\n  dup3\n    /* \"#utility.yul\":200:217   */\n  and\n    /* \"#utility.yul\":190:217   */\n  swap2\n  pop\n    /* \"#utility.yul\":146:148   */\ntag_25:\n    /* \"#utility.yul\":274:276   */\n  0x20\n    /* \"#utility.yul\":266:272   */\n  dup3\n    /* \"#utility.yul\":263:277   */\n  lt\n    /* \"#utility.yul\":243:261   */\n  dup2\n    /* \"#utility.yul\":240:278   */\n  eq\n    /* \"#utility.yul\":237:239   */\n  iszero\n  tag_26\n  jumpi\n    /* \"#utility.yul\":293:311   */\n  tag_27\n  tag_28\n  jump\t// in\ntag_27:\n    /* \"#utility.yul\":237:239   */\ntag_26:\n    /* \"#utility.yul\":58:327   */\n  pop\n  swap2\n  swap1\n  pop\n  jump\t// out\n    /* \"#utility.yul\":333:513   */\ntag_28:\n    /* \"#utility.yul\":381:458   */\n  0x4e487b7100000000000000000000000000000000000000000000000000000000\n    /* \"#utility.yul\":378:379   */\n  0x00\n    /* \"#utility.yul\":371:459   */\n  mstore\n    /* \"#utility.yul\":478:482   */\n  0x22\n    /* \"#utility.yul\":475:476   */\n  0x04\n    /* \"#utility.yul\":468:483   */\n  mstore\n    /* \"#utility.yul\":502:506   */\n  0x24\n    /* \"#utility.yul\":499:500   */\n  0x00\n    /* \"#utility.yul\":492:507   */\n  revert\n    /* \"contracts/3_data_structures.sol\":69:931  contract DataStructures {... */\ntag_7:\n  dataSize(sub_0)\n  dup1\n  dataOffset(sub_0)\n  0x00\n  codecopy\n  0x00\n  return\nstop\n\nsub_0: assembly {\n        /* \"contracts/3_data_structures.sol\":69:931  contract DataStructures {... */\n      mstore(0x40, 0x80)\n      callvalue\n      dup1\n      iszero\n      tag_1\n      jumpi\n      0x00\n      dup1\n      revert\n    tag_1:\n      pop\n      jumpi(tag_2, lt(calldatasize, 0x04))\n      shr(0xe0, calldataload(0x00))\n      dup1\n      0x60591cc0\n      eq\n      tag_3\n      jumpi\n      dup1\n      0x89b08f11\n      eq\n      tag_4\n      jumpi\n      dup1\n      0xb45aed86\n      eq\n      tag_5\n      jumpi\n      dup1\n      0xc0abda2a\n      eq\n      tag_6\n      jumpi\n      dup1\n      0xe52b008f\n      eq\n      tag_7\n      jumpi\n    tag_2:\n      0x00\n      dup1\n      revert\n        /* \"contracts/3_data_structures.sol\":475:712  function arrayAppend(uint id, string memory _name, string memory _email) public {... */\n    tag_3:\n      tag_8\n      0x04\n      dup1\n      calldatasize\n      sub\n      dup2\n      add\n      swap1\n      tag_9\n      swap2\n      swap1\n      tag_10\n      jump\t// in\n    tag_9:\n      tag_11\n      jump\t// in\n    tag_8:\n      stop\n        /* \"contracts/3_data_structures.sol\":734:773  mapping(address => uint) public wallets */\n    tag_4:\n      tag_12\n      0x04\n      dup1\n      calldatasize\n      sub\n      dup2\n      add\n      swap1\n      tag_13\n      swap2\n      swap1\n      tag_14\n      jump\t// in\n    tag_13:\n      tag_15\n      jump\t// in\n    tag_12:\n      mload(0x40)\n      tag_16\n      swap2\n      swap1\n      tag_17\n      jump\t// in\n    tag_16:\n      mload(0x40)\n      dup1\n      swap2\n      sub\n      swap1\n      return\n        /* \"contracts/3_data_structures.sol\":779:833  mapping(address => Customer[]) public customersAddress */\n    tag_5:\n      tag_18\n      0x04\n      dup1\n      calldatasize\n      sub\n      dup2\n      add\n      swap1\n      tag_19\n      swap2\n      swap1\n      tag_20\n      jump\t// in\n    tag_19:\n      tag_21\n      jump\t// in\n    tag_18:\n      mload(0x40)\n      tag_22\n      swap4\n      swap3\n      swap2\n      swap1\n      tag_23\n      jump\t// in\n    tag_22:\n      mload(0x40)\n      dup1\n      swap2\n      sub\n      swap1\n      return\n        /* \"contracts/3_data_structures.sol\":409:436  Customer[] public customers */\n    tag_6:\n      tag_24\n      0x04\n      dup1\n      calldatasize\n      sub\n      dup2\n      add\n      swap1\n      tag_25\n      swap2\n      swap1\n      tag_26\n      jump\t// in\n    tag_25:\n      tag_27\n      jump\t// in\n    tag_24:\n      mload(0x40)\n      tag_28\n      swap4\n      swap3\n      swap2\n      swap1\n      tag_23\n      jump\t// in\n    tag_28:\n      mload(0x40)\n      dup1\n      swap2\n      sub\n      swap1\n      return\n        /* \"contracts/3_data_structures.sol\":840:929  function assignNumber(uint _number) public {... */\n    tag_7:\n      tag_29\n      0x04\n      dup1\n      calldatasize\n      sub\n      dup2\n      add\n      swap1\n      tag_30\n      swap2\n      swap1\n      tag_26\n      jump\t// in\n    tag_30:\n      tag_31\n      jump\t// in\n    tag_29:\n      stop\n        /* \"contracts/3_data_structures.sol\":475:712  function arrayAppend(uint id, string memory _name, string memory _email) public {... */\n    tag_11:\n        /* \"contracts/3_data_structures.sol\":565:592  Customer memory newCustomer */\n      0x00\n        /* \"contracts/3_data_structures.sol\":595:668  Customer(... */\n      mload(0x40)\n      dup1\n      0x60\n      add\n      0x40\n      mstore\n      dup1\n        /* \"contracts/3_data_structures.sol\":617:619  id */\n      dup6\n        /* \"contracts/3_data_structures.sol\":595:668  Customer(... */\n      dup2\n      mstore\n      0x20\n      add\n        /* \"contracts/3_data_structures.sol\":633:638  _name */\n      dup5\n        /* \"contracts/3_data_structures.sol\":595:668  Customer(... */\n      dup2\n      mstore\n      0x20\n      add\n        /* \"contracts/3_data_structures.sol\":652:658  _email */\n      dup4\n        /* \"contracts/3_data_structures.sol\":595:668  Customer(... */\n      dup2\n      mstore\n      pop\n        /* \"contracts/3_data_structures.sol\":565:668  Customer memory newCustomer = Customer(... */\n      swap1\n      pop\n        /* \"contracts/3_data_structures.sol\":678:687  customers */\n      0x07\n        /* \"contracts/3_data_structures.sol\":693:704  newCustomer */\n      dup2\n        /* \"contracts/3_data_structures.sol\":678:705  customers.push(newCustomer) */\n      swap1\n      dup1\n      0x01\n      dup2\n      sload\n      add\n      dup1\n      dup3\n      sstore\n      dup1\n      swap2\n      pop\n      pop\n      0x01\n      swap1\n      sub\n      swap1\n      0x00\n      mstore\n      keccak256(0x00, 0x20)\n      swap1\n      0x03\n      mul\n      add\n      0x00\n      swap1\n      swap2\n      swap1\n      swap2\n      swap1\n      swap2\n      pop\n      0x00\n      dup3\n      add\n      mload\n      dup2\n      0x00\n      add\n      sstore\n      0x20\n      dup3\n      add\n      mload\n      dup2\n      0x01\n      add\n      swap1\n      dup1\n      mload\n      swap1\n      0x20\n      add\n      swap1\n      tag_34\n      swap3\n      swap2\n      swap1\n      tag_35\n      jump\t// in\n    tag_34:\n      pop\n      0x40\n      dup3\n      add\n      mload\n      dup2\n      0x02\n      add\n      swap1\n      dup1\n      mload\n      swap1\n      0x20\n      add\n      swap1\n      tag_36\n      swap3\n      swap2\n      swap1\n      tag_35\n      jump\t// in\n    tag_36:\n      pop\n      pop\n      pop\n        /* \"contracts/3_data_structures.sol\":475:712  function arrayAppend(uint id, string memory _name, string memory _email) public {... */\n      pop\n      pop\n      pop\n      pop\n      jump\t// out\n        /* \"contracts/3_data_structures.sol\":734:773  mapping(address => uint) public wallets */\n    tag_15:\n      mstore(0x20, 0x08)\n      dup1\n      0x00\n      mstore\n      keccak256(0x00, 0x40)\n      0x00\n      swap2\n      pop\n      swap1\n      pop\n      sload\n      dup2\n      jump\t// out\n        /* \"contracts/3_data_structures.sol\":779:833  mapping(address => Customer[]) public customersAddress */\n    tag_21:\n      mstore(0x20, 0x09)\n      dup2\n      0x00\n      mstore\n      keccak256(0x00, 0x40)\n      dup2\n      dup2\n      sload\n      dup2\n      lt\n      tag_37\n      jumpi\n      0x00\n      dup1\n      revert\n    tag_37:\n      swap1\n      0x00\n      mstore\n      keccak256(0x00, 0x20)\n      swap1\n      0x03\n      mul\n      add\n      0x00\n      swap2\n      pop\n      swap2\n      pop\n      pop\n      dup1\n      0x00\n      add\n      sload\n      swap1\n      dup1\n      0x01\n      add\n      dup1\n      sload\n      tag_39\n      swap1\n      tag_40\n      jump\t// in\n    tag_39:\n      dup1\n      0x1f\n      add\n      0x20\n      dup1\n      swap2\n      div\n      mul\n      0x20\n      add\n      mload(0x40)\n      swap1\n      dup2\n      add\n      0x40\n      mstore\n      dup1\n      swap3\n      swap2\n      swap1\n      dup2\n      dup2\n      mstore\n      0x20\n      add\n      dup3\n      dup1\n      sload\n      tag_41\n      swap1\n      tag_40\n      jump\t// in\n    tag_41:\n      dup1\n      iszero\n      tag_42\n      jumpi\n      dup1\n      0x1f\n      lt\n      tag_43\n      jumpi\n      0x0100\n      dup1\n      dup4\n      sload\n      div\n      mul\n      dup4\n      mstore\n      swap2\n      0x20\n      add\n      swap2\n      jump(tag_42)\n    tag_43:\n      dup3\n      add\n      swap2\n      swap1\n      0x00\n      mstore\n      keccak256(0x00, 0x20)\n      swap1\n    tag_44:\n      dup2\n      sload\n      dup2\n      mstore\n      swap1\n      0x01\n      add\n      swap1\n      0x20\n      add\n      dup1\n      dup4\n      gt\n      tag_44\n      jumpi\n      dup3\n      swap1\n      sub\n      0x1f\n      and\n      dup3\n      add\n      swap2\n    tag_42:\n      pop\n      pop\n      pop\n      pop\n      pop\n      swap1\n      dup1\n      0x02\n      add\n      dup1\n      sload\n      tag_45\n      swap1\n      tag_40\n      jump\t// in\n    tag_45:\n      dup1\n      0x1f\n      add\n      0x20\n      dup1\n      swap2\n      div\n      mul\n      0x20\n      add\n      mload(0x40)\n      swap1\n      dup2\n      add\n      0x40\n      mstore\n      dup1\n      swap3\n      swap2\n      swap1\n      dup2\n      dup2\n      mstore\n      0x20\n      add\n      dup3\n      dup1\n      sload\n      tag_46\n      swap1\n      tag_40\n      jump\t// in\n    tag_46:\n      dup1\n      iszero\n      tag_47\n      jumpi\n      dup1\n      0x1f\n      lt\n      tag_48\n      jumpi\n      0x0100\n      dup1\n      dup4\n      sload\n      div\n      mul\n      dup4\n      mstore\n      swap2\n      0x20\n      add\n      swap2\n      jump(tag_47)\n    tag_48:\n      dup3\n      add\n      swap2\n      swap1\n      0x00\n      mstore\n      keccak256(0x00, 0x20)\n      swap1\n    tag_49:\n      dup2\n      sload\n      dup2\n      mstore\n      swap1\n      0x01\n      add\n      swap1\n      0x20\n      add\n      dup1\n      dup4\n      gt\n      tag_49\n      jumpi\n      dup3\n      swap1\n      sub\n      0x1f\n      and\n      dup3\n      add\n      swap2\n    tag_47:\n      pop\n      pop\n      pop\n      pop\n      pop\n      swap1\n      pop\n      dup4\n      jump\t// out\n        /* \"contracts/3_data_structures.sol\":409:436  Customer[] public customers */\n    tag_27:\n      0x07\n      dup2\n      dup2\n      sload\n      dup2\n      lt\n      tag_50\n      jumpi\n      0x00\n      dup1\n      revert\n    tag_50:\n      swap1\n      0x00\n      mstore\n      keccak256(0x00, 0x20)\n      swap1\n      0x03\n      mul\n      add\n      0x00\n      swap2\n      pop\n      swap1\n      pop\n      dup1\n      0x00\n      add\n      sload\n      swap1\n      dup1\n      0x01\n      add\n      dup1\n      sload\n      tag_52\n      swap1\n      tag_40\n      jump\t// in\n    tag_52:\n      dup1\n      0x1f\n      add\n      0x20\n      dup1\n      swap2\n      div\n      mul\n      0x20\n      add\n      mload(0x40)\n      swap1\n      dup2\n      add\n      0x40\n      mstore\n      dup1\n      swap3\n      swap2\n      swap1\n      dup2\n      dup2\n      mstore\n      0x20\n      add\n      dup3\n      dup1\n      sload\n      tag_53\n      swap1\n      tag_40\n      jump\t// in\n    tag_53:\n      dup1\n      iszero\n      tag_54\n      jumpi\n      dup1\n      0x1f\n      lt\n      tag_55\n      jumpi\n      0x0100\n      dup1\n      dup4\n      sload\n      div\n      mul\n      dup4\n      mstore\n      swap2\n      0x20\n      add\n      swap2\n      jump(tag_54)\n    tag_55:\n      dup3\n      add\n      swap2\n      swap1\n      0x00\n      mstore\n      keccak256(0x00, 0x20)\n      swap1\n    tag_56:\n      dup2\n      sload\n      dup2\n      mstore\n      swap1\n      0x01\n      add\n      swap1\n      0x20\n      add\n      dup1\n      dup4\n      gt\n      tag_56\n      jumpi\n      dup3\n      swap1\n      sub\n      0x1f\n      and\n      dup3\n      add\n      swap2\n    tag_54:\n      pop\n      pop\n      pop\n      pop\n      pop\n      swap1\n      dup1\n      0x02\n      add\n      dup1\n      sload\n      tag_57\n      swap1\n      tag_40\n      jump\t// in\n    tag_57:\n      dup1\n      0x1f\n      add\n      0x20\n      dup1\n      swap2\n      div\n      mul\n      0x20\n      add\n      mload(0x40)\n      swap1\n      dup2\n      add\n      0x40\n      mstore\n      dup1\n      swap3\n      swap2\n      swap1\n      dup2\n      dup2\n      mstore\n      0x20\n      add\n      dup3\n      dup1\n      sload\n      tag_58\n      swap1\n      tag_40\n      jump\t// in\n    tag_58:\n      dup1\n      iszero\n      tag_59\n      jumpi\n      dup1\n      0x1f\n      lt\n      tag_60\n      jumpi\n      0x0100\n      dup1\n      dup4\n      sload\n      div\n      mul\n      dup4\n      mstore\n      swap2\n      0x20\n      add\n      swap2\n      jump(tag_59)\n    tag_60:\n      dup3\n      add\n      swap2\n      swap1\n      0x00\n      mstore\n      keccak256(0x00, 0x20)\n      swap1\n    tag_61:\n      dup2\n      sload\n      dup2\n      mstore\n      swap1\n      0x01\n      add\n      swap1\n      0x20\n      add\n      dup1\n      dup4\n      gt\n      tag_61\n      jumpi\n      dup3\n      swap1\n      sub\n      0x1f\n      and\n      dup3\n      add\n      swap2\n    tag_59:\n      pop\n      pop\n      pop\n      pop\n      pop\n      swap1\n      pop\n      dup4\n      jump\t// out\n        /* \"contracts/3_data_structures.sol\":840:929  function assignNumber(uint _number) public {... */\n    tag_31:\n        /* \"contracts/3_data_structures.sol\":915:922  _number */\n      dup1\n        /* \"contracts/3_data_structures.sol\":893:900  wallets */\n      0x08\n        /* \"contracts/3_data_structures.sol\":893:912  wallets[msg.sender] */\n      0x00\n        /* \"contracts/3_data_structures.sol\":901:911  msg.sender */\n      caller\n        /* \"contracts/3_data_structures.sol\":893:912  wallets[msg.sender] */\n      0xffffffffffffffffffffffffffffffffffffffff\n      and\n      0xffffffffffffffffffffffffffffffffffffffff\n      and\n      dup2\n      mstore\n      0x20\n      add\n      swap1\n      dup2\n      mstore\n      0x20\n      add\n      0x00\n      keccak256\n        /* \"contracts/3_data_structures.sol\":893:922  wallets[msg.sender] = _number */\n      dup2\n      swap1\n      sstore\n      pop\n        /* \"contracts/3_data_structures.sol\":840:929  function assignNumber(uint _number) public {... */\n      pop\n      jump\t// out\n    tag_35:\n      dup3\n      dup1\n      sload\n      tag_63\n      swap1\n      tag_40\n      jump\t// in\n    tag_63:\n      swap1\n      0x00\n      mstore\n      keccak256(0x00, 0x20)\n      swap1\n      0x1f\n      add\n      0x20\n      swap1\n      div\n      dup2\n      add\n      swap3\n      dup3\n      tag_65\n      jumpi\n      0x00\n      dup6\n      sstore\n      jump(tag_64)\n    tag_65:\n      dup3\n      0x1f\n      lt\n      tag_66\n      jumpi\n      dup1\n      mload\n      not(0xff)\n      and\n      dup4\n      dup1\n      add\n      or\n      dup6\n      sstore\n      jump(tag_64)\n    tag_66:\n      dup3\n      dup1\n      add\n      0x01\n      add\n      dup6\n      sstore\n      dup3\n      iszero\n      tag_64\n      jumpi\n      swap2\n      dup3\n      add\n    tag_67:\n      dup3\n      dup2\n      gt\n      iszero\n      tag_68\n      jumpi\n      dup3\n      mload\n      dup3\n      sstore\n      swap2\n      0x20\n      add\n      swap2\n      swap1\n      0x01\n      add\n      swap1\n      jump(tag_67)\n    tag_68:\n    tag_64:\n      pop\n      swap1\n      pop\n      tag_69\n      swap2\n      swap1\n      tag_70\n      jump\t// in\n    tag_69:\n      pop\n      swap1\n      jump\t// out\n    tag_70:\n    tag_71:\n      dup1\n      dup3\n      gt\n      iszero\n      tag_72\n      jumpi\n      0x00\n      dup2\n      0x00\n      swap1\n      sstore\n      pop\n      0x01\n      add\n      jump(tag_71)\n    tag_72:\n      pop\n      swap1\n      jump\t// out\n        /* \"#utility.yul\":7:352   */\n    tag_74:\n        /* \"#utility.yul\":85:90   */\n      0x00\n        /* \"#utility.yul\":110:176   */\n      tag_76\n        /* \"#utility.yul\":126:175   */\n      tag_77\n        /* \"#utility.yul\":168:174   */\n      dup5\n        /* \"#utility.yul\":126:175   */\n      tag_78\n      jump\t// in\n    tag_77:\n        /* \"#utility.yul\":110:176   */\n      tag_79\n      jump\t// in\n    tag_76:\n        /* \"#utility.yul\":101:176   */\n      swap1\n      pop\n        /* \"#utility.yul\":199:205   */\n      dup3\n        /* \"#utility.yul\":192:197   */\n      dup2\n        /* \"#utility.yul\":185:206   */\n      mstore\n        /* \"#utility.yul\":237:241   */\n      0x20\n        /* \"#utility.yul\":230:235   */\n      dup2\n        /* \"#utility.yul\":226:242   */\n      add\n        /* \"#utility.yul\":275:278   */\n      dup5\n        /* \"#utility.yul\":266:272   */\n      dup5\n        /* \"#utility.yul\":261:264   */\n      dup5\n        /* \"#utility.yul\":257:273   */\n      add\n        /* \"#utility.yul\":254:279   */\n      gt\n        /* \"#utility.yul\":251:253   */\n      iszero\n      tag_80\n      jumpi\n        /* \"#utility.yul\":292:293   */\n      0x00\n        /* \"#utility.yul\":289:290   */\n      dup1\n        /* \"#utility.yul\":282:294   */\n      revert\n        /* \"#utility.yul\":251:253   */\n    tag_80:\n        /* \"#utility.yul\":305:346   */\n      tag_81\n        /* \"#utility.yul\":339:345   */\n      dup5\n        /* \"#utility.yul\":334:337   */\n      dup3\n        /* \"#utility.yul\":329:332   */\n      dup6\n        /* \"#utility.yul\":305:346   */\n      tag_82\n      jump\t// in\n    tag_81:\n        /* \"#utility.yul\":91:352   */\n      pop\n      swap4\n      swap3\n      pop\n      pop\n      pop\n      jump\t// out\n        /* \"#utility.yul\":358:497   */\n    tag_83:\n        /* \"#utility.yul\":404:409   */\n      0x00\n        /* \"#utility.yul\":442:448   */\n      dup2\n        /* \"#utility.yul\":429:449   */\n      calldataload\n        /* \"#utility.yul\":420:449   */\n      swap1\n      pop\n        /* \"#utility.yul\":458:491   */\n      tag_85\n        /* \"#utility.yul\":485:490   */\n      dup2\n        /* \"#utility.yul\":458:491   */\n      tag_86\n      jump\t// in\n    tag_85:\n        /* \"#utility.yul\":410:497   */\n      swap3\n      swap2\n      pop\n      pop\n      jump\t// out\n        /* \"#utility.yul\":517:790   */\n    tag_87:\n        /* \"#utility.yul\":573:578   */\n      0x00\n        /* \"#utility.yul\":622:625   */\n      dup3\n        /* \"#utility.yul\":615:619   */\n      0x1f\n        /* \"#utility.yul\":607:613   */\n      dup4\n        /* \"#utility.yul\":603:620   */\n      add\n        /* \"#utility.yul\":599:626   */\n      slt\n        /* \"#utility.yul\":589:591   */\n      tag_89\n      jumpi\n        /* \"#utility.yul\":640:641   */\n      0x00\n        /* \"#utility.yul\":637:638   */\n      dup1\n        /* \"#utility.yul\":630:642   */\n      revert\n        /* \"#utility.yul\":589:591   */\n    tag_89:\n        /* \"#utility.yul\":680:686   */\n      dup2\n        /* \"#utility.yul\":667:687   */\n      calldataload\n        /* \"#utility.yul\":705:784   */\n      tag_90\n        /* \"#utility.yul\":780:783   */\n      dup5\n        /* \"#utility.yul\":772:778   */\n      dup3\n        /* \"#utility.yul\":765:769   */\n      0x20\n        /* \"#utility.yul\":757:763   */\n      dup7\n        /* \"#utility.yul\":753:770   */\n      add\n        /* \"#utility.yul\":705:784   */\n      tag_74\n      jump\t// in\n    tag_90:\n        /* \"#utility.yul\":696:784   */\n      swap2\n      pop\n        /* \"#utility.yul\":579:790   */\n      pop\n      swap3\n      swap2\n      pop\n      pop\n      jump\t// out\n        /* \"#utility.yul\":796:935   */\n    tag_91:\n        /* \"#utility.yul\":842:847   */\n      0x00\n        /* \"#utility.yul\":880:886   */\n      dup2\n        /* \"#utility.yul\":867:887   */\n      calldataload\n        /* \"#utility.yul\":858:887   */\n      swap1\n      pop\n        /* \"#utility.yul\":896:929   */\n      tag_93\n        /* \"#utility.yul\":923:928   */\n      dup2\n        /* \"#utility.yul\":896:929   */\n      tag_94\n      jump\t// in\n    tag_93:\n        /* \"#utility.yul\":848:935   */\n      swap3\n      swap2\n      pop\n      pop\n      jump\t// out\n        /* \"#utility.yul\":941:1203   */\n    tag_14:\n        /* \"#utility.yul\":1000:1006   */\n      0x00\n        /* \"#utility.yul\":1049:1051   */\n      0x20\n        /* \"#utility.yul\":1037:1046   */\n      dup3\n        /* \"#utility.yul\":1028:1035   */\n      dup5\n        /* \"#utility.yul\":1024:1047   */\n      sub\n        /* \"#utility.yul\":1020:1052   */\n      slt\n        /* \"#utility.yul\":1017:1019   */\n      iszero\n      tag_96\n      jumpi\n        /* \"#utility.yul\":1065:1066   */\n      0x00\n        /* \"#utility.yul\":1062:1063   */\n      dup1\n        /* \"#utility.yul\":1055:1067   */\n      revert\n        /* \"#utility.yul\":1017:1019   */\n    tag_96:\n        /* \"#utility.yul\":1108:1109   */\n      0x00\n        /* \"#utility.yul\":1133:1186   */\n      tag_97\n        /* \"#utility.yul\":1178:1185   */\n      dup5\n        /* \"#utility.yul\":1169:1175   */\n      dup3\n        /* \"#utility.yul\":1158:1167   */\n      dup6\n        /* \"#utility.yul\":1154:1176   */\n      add\n        /* \"#utility.yul\":1133:1186   */\n      tag_83\n      jump\t// in\n    tag_97:\n        /* \"#utility.yul\":1123:1186   */\n      swap2\n      pop\n        /* \"#utility.yul\":1079:1196   */\n      pop\n        /* \"#utility.yul\":1007:1203   */\n      swap3\n      swap2\n      pop\n      pop\n      jump\t// out\n        /* \"#utility.yul\":1209:1616   */\n    tag_20:\n        /* \"#utility.yul\":1277:1283   */\n      0x00\n        /* \"#utility.yul\":1285:1291   */\n      dup1\n        /* \"#utility.yul\":1334:1336   */\n      0x40\n        /* \"#utility.yul\":1322:1331   */\n      dup4\n        /* \"#utility.yul\":1313:1320   */\n      dup6\n        /* \"#utility.yul\":1309:1332   */\n      sub\n        /* \"#utility.yul\":1305:1337   */\n      slt\n        /* \"#utility.yul\":1302:1304   */\n      iszero\n      tag_99\n      jumpi\n        /* \"#utility.yul\":1350:1351   */\n      0x00\n        /* \"#utility.yul\":1347:1348   */\n      dup1\n        /* \"#utility.yul\":1340:1352   */\n      revert\n        /* \"#utility.yul\":1302:1304   */\n    tag_99:\n        /* \"#utility.yul\":1393:1394   */\n      0x00\n        /* \"#utility.yul\":1418:1471   */\n      tag_100\n        /* \"#utility.yul\":1463:1470   */\n      dup6\n        /* \"#utility.yul\":1454:1460   */\n      dup3\n        /* \"#utility.yul\":1443:1452   */\n      dup7\n        /* \"#utility.yul\":1439:1461   */\n      add\n        /* \"#utility.yul\":1418:1471   */\n      tag_83\n      jump\t// in\n    tag_100:\n        /* \"#utility.yul\":1408:1471   */\n      swap3\n      pop\n        /* \"#utility.yul\":1364:1481   */\n      pop\n        /* \"#utility.yul\":1520:1522   */\n      0x20\n        /* \"#utility.yul\":1546:1599   */\n      tag_101\n        /* \"#utility.yul\":1591:1598   */\n      dup6\n        /* \"#utility.yul\":1582:1588   */\n      dup3\n        /* \"#utility.yul\":1571:1580   */\n      dup7\n        /* \"#utility.yul\":1567:1589   */\n      add\n        /* \"#utility.yul\":1546:1599   */\n      tag_91\n      jump\t// in\n    tag_101:\n        /* \"#utility.yul\":1536:1599   */\n      swap2\n      pop\n        /* \"#utility.yul\":1491:1609   */\n      pop\n        /* \"#utility.yul\":1292:1616   */\n      swap3\n      pop\n      swap3\n      swap1\n      pop\n      jump\t// out\n        /* \"#utility.yul\":1622:1884   */\n    tag_26:\n        /* \"#utility.yul\":1681:1687   */\n      0x00\n        /* \"#utility.yul\":1730:1732   */\n      0x20\n        /* \"#utility.yul\":1718:1727   */\n      dup3\n        /* \"#utility.yul\":1709:1716   */\n      dup5\n        /* \"#utility.yul\":1705:1728   */\n      sub\n        /* \"#utility.yul\":1701:1733   */\n      slt\n        /* \"#utility.yul\":1698:1700   */\n      iszero\n      tag_103\n      jumpi\n        /* \"#utility.yul\":1746:1747   */\n      0x00\n        /* \"#utility.yul\":1743:1744   */\n      dup1\n        /* \"#utility.yul\":1736:1748   */\n      revert\n        /* \"#utility.yul\":1698:1700   */\n    tag_103:\n        /* \"#utility.yul\":1789:1790   */\n      0x00\n        /* \"#utility.yul\":1814:1867   */\n      tag_104\n        /* \"#utility.yul\":1859:1866   */\n      dup5\n        /* \"#utility.yul\":1850:1856   */\n      dup3\n        /* \"#utility.yul\":1839:1848   */\n      dup6\n        /* \"#utility.yul\":1835:1857   */\n      add\n        /* \"#utility.yul\":1814:1867   */\n      tag_91\n      jump\t// in\n    tag_104:\n        /* \"#utility.yul\":1804:1867   */\n      swap2\n      pop\n        /* \"#utility.yul\":1760:1877   */\n      pop\n        /* \"#utility.yul\":1688:1884   */\n      swap3\n      swap2\n      pop\n      pop\n      jump\t// out\n        /* \"#utility.yul\":1890:2668   */\n    tag_10:\n        /* \"#utility.yul\":1987:1993   */\n      0x00\n        /* \"#utility.yul\":1995:2001   */\n      dup1\n        /* \"#utility.yul\":2003:2009   */\n      0x00\n        /* \"#utility.yul\":2052:2054   */\n      0x60\n        /* \"#utility.yul\":2040:2049   */\n      dup5\n        /* \"#utility.yul\":2031:2038   */\n      dup7\n        /* \"#utility.yul\":2027:2050   */\n      sub\n        /* \"#utility.yul\":2023:2055   */\n      slt\n        /* \"#utility.yul\":2020:2022   */\n      iszero\n      tag_106\n      jumpi\n        /* \"#utility.yul\":2068:2069   */\n      0x00\n        /* \"#utility.yul\":2065:2066   */\n      dup1\n        /* \"#utility.yul\":2058:2070   */\n      revert\n        /* \"#utility.yul\":2020:2022   */\n    tag_106:\n        /* \"#utility.yul\":2111:2112   */\n      0x00\n        /* \"#utility.yul\":2136:2189   */\n      tag_107\n        /* \"#utility.yul\":2181:2188   */\n      dup7\n        /* \"#utility.yul\":2172:2178   */\n      dup3\n        /* \"#utility.yul\":2161:2170   */\n      dup8\n        /* \"#utility.yul\":2157:2179   */\n      add\n        /* \"#utility.yul\":2136:2189   */\n      tag_91\n      jump\t// in\n    tag_107:\n        /* \"#utility.yul\":2126:2189   */\n      swap4\n      pop\n        /* \"#utility.yul\":2082:2199   */\n      pop\n        /* \"#utility.yul\":2266:2268   */\n      0x20\n        /* \"#utility.yul\":2255:2264   */\n      dup5\n        /* \"#utility.yul\":2251:2269   */\n      add\n        /* \"#utility.yul\":2238:2270   */\n      calldataload\n        /* \"#utility.yul\":2297:2315   */\n      0xffffffffffffffff\n        /* \"#utility.yul\":2289:2295   */\n      dup2\n        /* \"#utility.yul\":2286:2316   */\n      gt\n        /* \"#utility.yul\":2283:2285   */\n      iszero\n      tag_108\n      jumpi\n        /* \"#utility.yul\":2329:2330   */\n      0x00\n        /* \"#utility.yul\":2326:2327   */\n      dup1\n        /* \"#utility.yul\":2319:2331   */\n      revert\n        /* \"#utility.yul\":2283:2285   */\n    tag_108:\n        /* \"#utility.yul\":2357:2420   */\n      tag_109\n        /* \"#utility.yul\":2412:2419   */\n      dup7\n        /* \"#utility.yul\":2403:2409   */\n      dup3\n        /* \"#utility.yul\":2392:2401   */\n      dup8\n        /* \"#utility.yul\":2388:2410   */\n      add\n        /* \"#utility.yul\":2357:2420   */\n      tag_87\n      jump\t// in\n    tag_109:\n        /* \"#utility.yul\":2347:2420   */\n      swap3\n      pop\n        /* \"#utility.yul\":2209:2430   */\n      pop\n        /* \"#utility.yul\":2497:2499   */\n      0x40\n        /* \"#utility.yul\":2486:2495   */\n      dup5\n        /* \"#utility.yul\":2482:2500   */\n      add\n        /* \"#utility.yul\":2469:2501   */\n      calldataload\n        /* \"#utility.yul\":2528:2546   */\n      0xffffffffffffffff\n        /* \"#utility.yul\":2520:2526   */\n      dup2\n        /* \"#utility.yul\":2517:2547   */\n      gt\n        /* \"#utility.yul\":2514:2516   */\n      iszero\n      tag_110\n      jumpi\n        /* \"#utility.yul\":2560:2561   */\n      0x00\n        /* \"#utility.yul\":2557:2558   */\n      dup1\n        /* \"#utility.yul\":2550:2562   */\n      revert\n        /* \"#utility.yul\":2514:2516   */\n    tag_110:\n        /* \"#utility.yul\":2588:2651   */\n      tag_111\n        /* \"#utility.yul\":2643:2650   */\n      dup7\n        /* \"#utility.yul\":2634:2640   */\n      dup3\n        /* \"#utility.yul\":2623:2632   */\n      dup8\n        /* \"#utility.yul\":2619:2641   */\n      add\n        /* \"#utility.yul\":2588:2651   */\n      tag_87\n      jump\t// in\n    tag_111:\n        /* \"#utility.yul\":2578:2651   */\n      swap2\n      pop\n        /* \"#utility.yul\":2440:2661   */\n      pop\n        /* \"#utility.yul\":2010:2668   */\n      swap3\n      pop\n      swap3\n      pop\n      swap3\n      jump\t// out\n        /* \"#utility.yul\":2674:3038   */\n    tag_112:\n        /* \"#utility.yul\":2762:2765   */\n      0x00\n        /* \"#utility.yul\":2790:2829   */\n      tag_114\n        /* \"#utility.yul\":2823:2828   */\n      dup3\n        /* \"#utility.yul\":2790:2829   */\n      tag_115\n      jump\t// in\n    tag_114:\n        /* \"#utility.yul\":2845:2916   */\n      tag_116\n        /* \"#utility.yul\":2909:2915   */\n      dup2\n        /* \"#utility.yul\":2904:2907   */\n      dup6\n        /* \"#utility.yul\":2845:2916   */\n      tag_117\n      jump\t// in\n    tag_116:\n        /* \"#utility.yul\":2838:2916   */\n      swap4\n      pop\n        /* \"#utility.yul\":2925:2977   */\n      tag_118\n        /* \"#utility.yul\":2970:2976   */\n      dup2\n        /* \"#utility.yul\":2965:2968   */\n      dup6\n        /* \"#utility.yul\":2958:2962   */\n      0x20\n        /* \"#utility.yul\":2951:2956   */\n      dup7\n        /* \"#utility.yul\":2947:2963   */\n      add\n        /* \"#utility.yul\":2925:2977   */\n      tag_119\n      jump\t// in\n    tag_118:\n        /* \"#utility.yul\":3002:3031   */\n      tag_120\n        /* \"#utility.yul\":3024:3030   */\n      dup2\n        /* \"#utility.yul\":3002:3031   */\n      tag_121\n      jump\t// in\n    tag_120:\n        /* \"#utility.yul\":2997:3000   */\n      dup5\n        /* \"#utility.yul\":2993:3032   */\n      add\n        /* \"#utility.yul\":2986:3032   */\n      swap2\n      pop\n        /* \"#utility.yul\":2766:3038   */\n      pop\n      swap3\n      swap2\n      pop\n      pop\n      jump\t// out\n        /* \"#utility.yul\":3044:3162   */\n    tag_122:\n        /* \"#utility.yul\":3131:3155   */\n      tag_124\n        /* \"#utility.yul\":3149:3154   */\n      dup2\n        /* \"#utility.yul\":3131:3155   */\n      tag_125\n      jump\t// in\n    tag_124:\n        /* \"#utility.yul\":3126:3129   */\n      dup3\n        /* \"#utility.yul\":3119:3156   */\n      mstore\n        /* \"#utility.yul\":3109:3162   */\n      pop\n      pop\n      jump\t// out\n        /* \"#utility.yul\":3168:3390   */\n    tag_17:\n        /* \"#utility.yul\":3261:3265   */\n      0x00\n        /* \"#utility.yul\":3299:3301   */\n      0x20\n        /* \"#utility.yul\":3288:3297   */\n      dup3\n        /* \"#utility.yul\":3284:3302   */\n      add\n        /* \"#utility.yul\":3276:3302   */\n      swap1\n      pop\n        /* \"#utility.yul\":3312:3383   */\n      tag_127\n        /* \"#utility.yul\":3380:3381   */\n      0x00\n        /* \"#utility.yul\":3369:3378   */\n      dup4\n        /* \"#utility.yul\":3365:3382   */\n      add\n        /* \"#utility.yul\":3356:3362   */\n      dup5\n        /* \"#utility.yul\":3312:3383   */\n      tag_122\n      jump\t// in\n    tag_127:\n        /* \"#utility.yul\":3266:3390   */\n      swap3\n      swap2\n      pop\n      pop\n      jump\t// out\n        /* \"#utility.yul\":3396:4020   */\n    tag_23:\n        /* \"#utility.yul\":3585:3589   */\n      0x00\n        /* \"#utility.yul\":3623:3625   */\n      0x60\n        /* \"#utility.yul\":3612:3621   */\n      dup3\n        /* \"#utility.yul\":3608:3626   */\n      add\n        /* \"#utility.yul\":3600:3626   */\n      swap1\n      pop\n        /* \"#utility.yul\":3636:3707   */\n      tag_129\n        /* \"#utility.yul\":3704:3705   */\n      0x00\n        /* \"#utility.yul\":3693:3702   */\n      dup4\n        /* \"#utility.yul\":3689:3706   */\n      add\n        /* \"#utility.yul\":3680:3686   */\n      dup7\n        /* \"#utility.yul\":3636:3707   */\n      tag_122\n      jump\t// in\n    tag_129:\n        /* \"#utility.yul\":3754:3763   */\n      dup2\n        /* \"#utility.yul\":3748:3752   */\n      dup2\n        /* \"#utility.yul\":3744:3764   */\n      sub\n        /* \"#utility.yul\":3739:3741   */\n      0x20\n        /* \"#utility.yul\":3728:3737   */\n      dup4\n        /* \"#utility.yul\":3724:3742   */\n      add\n        /* \"#utility.yul\":3717:3765   */\n      mstore\n        /* \"#utility.yul\":3782:3860   */\n      tag_130\n        /* \"#utility.yul\":3855:3859   */\n      dup2\n        /* \"#utility.yul\":3846:3852   */\n      dup6\n        /* \"#utility.yul\":3782:3860   */\n      tag_112\n      jump\t// in\n    tag_130:\n        /* \"#utility.yul\":3774:3860   */\n      swap1\n      pop\n        /* \"#utility.yul\":3907:3916   */\n      dup2\n        /* \"#utility.yul\":3901:3905   */\n      dup2\n        /* \"#utility.yul\":3897:3917   */\n      sub\n        /* \"#utility.yul\":3892:3894   */\n      0x40\n        /* \"#utility.yul\":3881:3890   */\n      dup4\n        /* \"#utility.yul\":3877:3895   */\n      add\n        /* \"#utility.yul\":3870:3918   */\n      mstore\n        /* \"#utility.yul\":3935:4013   */\n      tag_131\n        /* \"#utility.yul\":4008:4012   */\n      dup2\n        /* \"#utility.yul\":3999:4005   */\n      dup5\n        /* \"#utility.yul\":3935:4013   */\n      tag_112\n      jump\t// in\n    tag_131:\n        /* \"#utility.yul\":3927:4013   */\n      swap1\n      pop\n        /* \"#utility.yul\":3590:4020   */\n      swap5\n      swap4\n      pop\n      pop\n      pop\n      pop\n      jump\t// out\n        /* \"#utility.yul\":4026:4155   */\n    tag_79:\n        /* \"#utility.yul\":4060:4066   */\n      0x00\n        /* \"#utility.yul\":4087:4107   */\n      tag_133\n      tag_134\n      jump\t// in\n    tag_133:\n        /* \"#utility.yul\":4077:4107   */\n      swap1\n      pop\n        /* \"#utility.yul\":4116:4149   */\n      tag_135\n        /* \"#utility.yul\":4144:4148   */\n      dup3\n        /* \"#utility.yul\":4136:4142   */\n      dup3\n        /* \"#utility.yul\":4116:4149   */\n      tag_136\n      jump\t// in\n    tag_135:\n        /* \"#utility.yul\":4067:4155   */\n      swap2\n      swap1\n      pop\n      jump\t// out\n        /* \"#utility.yul\":4161:4236   */\n    tag_134:\n        /* \"#utility.yul\":4194:4200   */\n      0x00\n        /* \"#utility.yul\":4227:4229   */\n      0x40\n        /* \"#utility.yul\":4221:4230   */\n      mload\n        /* \"#utility.yul\":4211:4230   */\n      swap1\n      pop\n        /* \"#utility.yul\":4201:4236   */\n      swap1\n      jump\t// out\n        /* \"#utility.yul\":4242:4550   */\n    tag_78:\n        /* \"#utility.yul\":4304:4308   */\n      0x00\n        /* \"#utility.yul\":4394:4412   */\n      0xffffffffffffffff\n        /* \"#utility.yul\":4386:4392   */\n      dup3\n        /* \"#utility.yul\":4383:4413   */\n      gt\n        /* \"#utility.yul\":4380:4382   */\n      iszero\n      tag_139\n      jumpi\n        /* \"#utility.yul\":4416:4434   */\n      tag_140\n      tag_141\n      jump\t// in\n    tag_140:\n        /* \"#utility.yul\":4380:4382   */\n    tag_139:\n        /* \"#utility.yul\":4454:4483   */\n      tag_142\n        /* \"#utility.yul\":4476:4482   */\n      dup3\n        /* \"#utility.yul\":4454:4483   */\n      tag_121\n      jump\t// in\n    tag_142:\n        /* \"#utility.yul\":4446:4483   */\n      swap1\n      pop\n        /* \"#utility.yul\":4538:4542   */\n      0x20\n        /* \"#utility.yul\":4532:4536   */\n      dup2\n        /* \"#utility.yul\":4528:4543   */\n      add\n        /* \"#utility.yul\":4520:4543   */\n      swap1\n      pop\n        /* \"#utility.yul\":4309:4550   */\n      swap2\n      swap1\n      pop\n      jump\t// out\n        /* \"#utility.yul\":4556:4655   */\n    tag_115:\n        /* \"#utility.yul\":4608:4614   */\n      0x00\n        /* \"#utility.yul\":4642:4647   */\n      dup2\n        /* \"#utility.yul\":4636:4648   */\n      mload\n        /* \"#utility.yul\":4626:4648   */\n      swap1\n      pop\n        /* \"#utility.yul\":4615:4655   */\n      swap2\n      swap1\n      pop\n      jump\t// out\n        /* \"#utility.yul\":4661:4830   */\n    tag_117:\n        /* \"#utility.yul\":4745:4756   */\n      0x00\n        /* \"#utility.yul\":4779:4785   */\n      dup3\n        /* \"#utility.yul\":4774:4777   */\n      dup3\n        /* \"#utility.yul\":4767:4786   */\n      mstore\n        /* \"#utility.yul\":4819:4823   */\n      0x20\n        /* \"#utility.yul\":4814:4817   */\n      dup3\n        /* \"#utility.yul\":4810:4824   */\n      add\n        /* \"#utility.yul\":4795:4824   */\n      swap1\n      pop\n        /* \"#utility.yul\":4757:4830   */\n      swap3\n      swap2\n      pop\n      pop\n      jump\t// out\n        /* \"#utility.yul\":4836:4932   */\n    tag_145:\n        /* \"#utility.yul\":4873:4880   */\n      0x00\n        /* \"#utility.yul\":4902:4926   */\n      tag_147\n        /* \"#utility.yul\":4920:4925   */\n      dup3\n        /* \"#utility.yul\":4902:4926   */\n      tag_148\n      jump\t// in\n    tag_147:\n        /* \"#utility.yul\":4891:4926   */\n      swap1\n      pop\n        /* \"#utility.yul\":4881:4932   */\n      swap2\n      swap1\n      pop\n      jump\t// out\n        /* \"#utility.yul\":4938:5064   */\n    tag_148:\n        /* \"#utility.yul\":4975:4982   */\n      0x00\n        /* \"#utility.yul\":5015:5057   */\n      0xffffffffffffffffffffffffffffffffffffffff\n        /* \"#utility.yul\":5008:5013   */\n      dup3\n        /* \"#utility.yul\":5004:5058   */\n      and\n        /* \"#utility.yul\":4993:5058   */\n      swap1\n      pop\n        /* \"#utility.yul\":4983:5064   */\n      swap2\n      swap1\n      pop\n      jump\t// out\n        /* \"#utility.yul\":5070:5147   */\n    tag_125:\n        /* \"#utility.yul\":5107:5114   */\n      0x00\n        /* \"#utility.yul\":5136:5141   */\n      dup2\n        /* \"#utility.yul\":5125:5141   */\n      swap1\n      pop\n        /* \"#utility.yul\":5115:5147   */\n      swap2\n      swap1\n      pop\n      jump\t// out\n        /* \"#utility.yul\":5153:5307   */\n    tag_82:\n        /* \"#utility.yul\":5237:5243   */\n      dup3\n        /* \"#utility.yul\":5232:5235   */\n      dup2\n        /* \"#utility.yul\":5227:5230   */\n      dup4\n        /* \"#utility.yul\":5214:5244   */\n      calldatacopy\n        /* \"#utility.yul\":5299:5300   */\n      0x00\n        /* \"#utility.yul\":5290:5296   */\n      dup4\n        /* \"#utility.yul\":5285:5288   */\n      dup4\n        /* \"#utility.yul\":5281:5297   */\n      add\n        /* \"#utility.yul\":5274:5301   */\n      mstore\n        /* \"#utility.yul\":5204:5307   */\n      pop\n      pop\n      pop\n      jump\t// out\n        /* \"#utility.yul\":5313:5620   */\n    tag_119:\n        /* \"#utility.yul\":5381:5382   */\n      0x00\n        /* \"#utility.yul\":5391:5504   */\n    tag_153:\n        /* \"#utility.yul\":5405:5411   */\n      dup4\n        /* \"#utility.yul\":5402:5403   */\n      dup2\n        /* \"#utility.yul\":5399:5412   */\n      lt\n        /* \"#utility.yul\":5391:5504   */\n      iszero\n      tag_155\n      jumpi\n        /* \"#utility.yul\":5490:5491   */\n      dup1\n        /* \"#utility.yul\":5485:5488   */\n      dup3\n        /* \"#utility.yul\":5481:5492   */\n      add\n        /* \"#utility.yul\":5475:5493   */\n      mload\n        /* \"#utility.yul\":5471:5472   */\n      dup2\n        /* \"#utility.yul\":5466:5469   */\n      dup5\n        /* \"#utility.yul\":5462:5473   */\n      add\n        /* \"#utility.yul\":5455:5494   */\n      mstore\n        /* \"#utility.yul\":5427:5429   */\n      0x20\n        /* \"#utility.yul\":5424:5425   */\n      dup2\n        /* \"#utility.yul\":5420:5430   */\n      add\n        /* \"#utility.yul\":5415:5430   */\n      swap1\n      pop\n        /* \"#utility.yul\":5391:5504   */\n      jump(tag_153)\n    tag_155:\n        /* \"#utility.yul\":5522:5528   */\n      dup4\n        /* \"#utility.yul\":5519:5520   */\n      dup2\n        /* \"#utility.yul\":5516:5529   */\n      gt\n        /* \"#utility.yul\":5513:5515   */\n      iszero\n      tag_156\n      jumpi\n        /* \"#utility.yul\":5602:5603   */\n      0x00\n        /* \"#utility.yul\":5593:5599   */\n      dup5\n        /* \"#utility.yul\":5588:5591   */\n      dup5\n        /* \"#utility.yul\":5584:5600   */\n      add\n        /* \"#utility.yul\":5577:5604   */\n      mstore\n        /* \"#utility.yul\":5513:5515   */\n    tag_156:\n        /* \"#utility.yul\":5362:5620   */\n      pop\n      pop\n      pop\n      pop\n      jump\t// out\n        /* \"#utility.yul\":5626:5946   */\n    tag_40:\n        /* \"#utility.yul\":5670:5676   */\n      0x00\n        /* \"#utility.yul\":5707:5708   */\n      0x02\n        /* \"#utility.yul\":5701:5705   */\n      dup3\n        /* \"#utility.yul\":5697:5709   */\n      div\n        /* \"#utility.yul\":5687:5709   */\n      swap1\n      pop\n        /* \"#utility.yul\":5754:5755   */\n      0x01\n        /* \"#utility.yul\":5748:5752   */\n      dup3\n        /* \"#utility.yul\":5744:5756   */\n      and\n        /* \"#utility.yul\":5775:5793   */\n      dup1\n        /* \"#utility.yul\":5765:5767   */\n      tag_158\n      jumpi\n        /* \"#utility.yul\":5831:5835   */\n      0x7f\n        /* \"#utility.yul\":5823:5829   */\n      dup3\n        /* \"#utility.yul\":5819:5836   */\n      and\n        /* \"#utility.yul\":5809:5836   */\n      swap2\n      pop\n        /* \"#utility.yul\":5765:5767   */\n    tag_158:\n        /* \"#utility.yul\":5893:5895   */\n      0x20\n        /* \"#utility.yul\":5885:5891   */\n      dup3\n        /* \"#utility.yul\":5882:5896   */\n      lt\n        /* \"#utility.yul\":5862:5880   */\n      dup2\n        /* \"#utility.yul\":5859:5897   */\n      eq\n        /* \"#utility.yul\":5856:5858   */\n      iszero\n      tag_159\n      jumpi\n        /* \"#utility.yul\":5912:5930   */\n      tag_160\n      tag_161\n      jump\t// in\n    tag_160:\n        /* \"#utility.yul\":5856:5858   */\n    tag_159:\n        /* \"#utility.yul\":5677:5946   */\n      pop\n      swap2\n      swap1\n      pop\n      jump\t// out\n        /* \"#utility.yul\":5952:6233   */\n    tag_136:\n        /* \"#utility.yul\":6035:6062   */\n      tag_163\n        /* \"#utility.yul\":6057:6061   */\n      dup3\n        /* \"#utility.yul\":6035:6062   */\n      tag_121\n      jump\t// in\n    tag_163:\n        /* \"#utility.yul\":6027:6033   */\n      dup2\n        /* \"#utility.yul\":6023:6063   */\n      add\n        /* \"#utility.yul\":6165:6171   */\n      dup2\n        /* \"#utility.yul\":6153:6163   */\n      dup2\n        /* \"#utility.yul\":6150:6172   */\n      lt\n        /* \"#utility.yul\":6129:6147   */\n      0xffffffffffffffff\n        /* \"#utility.yul\":6117:6127   */\n      dup3\n        /* \"#utility.yul\":6114:6148   */\n      gt\n        /* \"#utility.yul\":6111:6173   */\n      or\n        /* \"#utility.yul\":6108:6110   */\n      iszero\n      tag_164\n      jumpi\n        /* \"#utility.yul\":6176:6194   */\n      tag_165\n      tag_141\n      jump\t// in\n    tag_165:\n        /* \"#utility.yul\":6108:6110   */\n    tag_164:\n        /* \"#utility.yul\":6216:6226   */\n      dup1\n        /* \"#utility.yul\":6212:6214   */\n      0x40\n        /* \"#utility.yul\":6205:6227   */\n      mstore\n        /* \"#utility.yul\":5995:6233   */\n      pop\n      pop\n      pop\n      jump\t// out\n        /* \"#utility.yul\":6239:6419   */\n    tag_161:\n        /* \"#utility.yul\":6287:6364   */\n      0x4e487b7100000000000000000000000000000000000000000000000000000000\n        /* \"#utility.yul\":6284:6285   */\n      0x00\n        /* \"#utility.yul\":6277:6365   */\n      mstore\n        /* \"#utility.yul\":6384:6388   */\n      0x22\n        /* \"#utility.yul\":6381:6382   */\n      0x04\n        /* \"#utility.yul\":6374:6389   */\n      mstore\n        /* \"#utility.yul\":6408:6412   */\n      0x24\n        /* \"#utility.yul\":6405:6406   */\n      0x00\n        /* \"#utility.yul\":6398:6413   */\n      revert\n        /* \"#utility.yul\":6425:6605   */\n    tag_141:\n        /* \"#utility.yul\":6473:6550   */\n      0x4e487b7100000000000000000000000000000000000000000000000000000000\n        /* \"#utility.yul\":6470:6471   */\n      0x00\n        /* \"#utility.yul\":6463:6551   */\n      mstore\n        /* \"#utility.yul\":6570:6574   */\n      0x41\n        /* \"#utility.yul\":6567:6568   */\n      0x04\n        /* \"#utility.yul\":6560:6575   */\n      mstore\n        /* \"#utility.yul\":6594:6598   */\n      0x24\n        /* \"#utility.yul\":6591:6592   */\n      0x00\n        /* \"#utility.yul\":6584:6599   */\n      revert\n        /* \"#utility.yul\":6611:6713   */\n    tag_121:\n        /* \"#utility.yul\":6652:6658   */\n      0x00\n        /* \"#utility.yul\":6703:6705   */\n      0x1f\n        /* \"#utility.yul\":6699:6706   */\n      not\n        /* \"#utility.yul\":6694:6696   */\n      0x1f\n        /* \"#utility.yul\":6687:6692   */\n      dup4\n        /* \"#utility.yul\":6683:6697   */\n      add\n        /* \"#utility.yul\":6679:6707   */\n      and\n        /* \"#utility.yul\":6669:6707   */\n      swap1\n      pop\n        /* \"#utility.yul\":6659:6713   */\n      swap2\n      swap1\n      pop\n      jump\t// out\n        /* \"#utility.yul\":6719:6841   */\n    tag_86:\n        /* \"#utility.yul\":6792:6816   */\n      tag_170\n        /* \"#utility.yul\":6810:6815   */\n      dup2\n        /* \"#utility.yul\":6792:6816   */\n      tag_145\n      jump\t// in\n    tag_170:\n        /* \"#utility.yul\":6785:6790   */\n      dup2\n        /* \"#utility.yul\":6782:6817   */\n      eq\n        /* \"#utility.yul\":6772:6774   */\n      tag_171\n      jumpi\n        /* \"#utility.yul\":6831:6832   */\n      0x00\n        /* \"#utility.yul\":6828:6829   */\n      dup1\n        /* \"#utility.yul\":6821:6833   */\n      revert\n        /* \"#utility.yul\":6772:6774   */\n    tag_171:\n        /* \"#utility.yul\":6762:6841   */\n      pop\n      jump\t// out\n        /* \"#utility.yul\":6847:6969   */\n    tag_94:\n        /* \"#utility.yul\":6920:6944   */\n      tag_173\n        /* \"#utility.yul\":6938:6943   */\n      dup2\n        /* \"#utility.yul\":6920:6944   */\n      tag_125\n      jump\t// in\n    tag_173:\n        /* \"#utility.yul\":6913:6918   */\n      dup2\n        /* \"#utility.yul\":6910:6945   */\n      eq\n        /* \"#utility.yul\":6900:6902   */\n      tag_174\n      jumpi\n        /* \"#utility.yul\":6959:6960   */\n      0x00\n        /* \"#utility.yul\":6956:6957   */\n      dup1\n        /* \"#utility.yul\":6949:6961   */\n      revert\n        /* \"#utility.yul\":6900:6902   */\n    tag_174:\n        /* \"#utility.yul\":6890:6969   */\n      pop\n      jump\t// out\n\n    auxdata: 0xa2646970667358221220e276b34024b7284dd05848d171827e1f6c84958bd501fbdac028c2b55ab7fdf364736f6c63430008040033\n}\n",
				"bytecode": {
					"linkReferences": {},
					"object": "60806040526040518060600160405280600181526020016040518060400160405280600781526020017f526f626572746f0000000000000000000000000000000000000000000000000081525081526020016040518060400160405280601381526020017f726f626572746f40726f626572746f2e636f6d0000000000000000000000000081525081525060008082015181600001556020820151816001019080519060200190620000b39291906200010f565b506040820151816002019080519060200190620000d29291906200010f565b5050506040518060200160405280600160ff168152506003906001620000fa929190620001a0565b503480156200010857600080fd5b506200026e565b8280546200011d9062000209565b90600052602060002090601f0160209004810192826200014157600085556200018d565b82601f106200015c57805160ff19168380011785556200018d565b828001600101855582156200018d579182015b828111156200018c5782518255916020019190600101906200016f565b5b5090506200019c9190620001ea565b5090565b8260048101928215620001d7579160200282015b82811115620001d6578251829060ff16905591602001919060010190620001b4565b5b509050620001e69190620001ea565b5090565b5b8082111562000205576000816000905550600101620001eb565b5090565b600060028204905060018216806200022257607f821691505b602082108114156200023957620002386200023f565b5b50919050565b7f4e487b7100000000000000000000000000000000000000000000000000000000600052602260045260246000fd5b6109cf806200027e6000396000f3fe608060405234801561001057600080fd5b50600436106100575760003560e01c806360591cc01461005c57806389b08f1114610078578063b45aed86146100a8578063c0abda2a146100da578063e52b008f1461010c575b600080fd5b61007660048036038101906100719190610682565b610128565b005b610092600480360381019061008d91906105f4565b6101bf565b60405161009f9190610749565b60405180910390f35b6100c260048036038101906100bd919061061d565b6101d7565b6040516100d193929190610764565b60405180910390f35b6100f460048036038101906100ef9190610659565b61032e565b60405161010393929190610764565b60405180910390f35b61012660048036038101906101219190610659565b610478565b005b6000604051806060016040528085815260200184815260200183815250905060078190806001815401808255809150506001900390600052602060002090600302016000909190919091506000820151816000015560208201518160010190805190602001906101999291906104bf565b5060408201518160020190805190602001906101b69291906104bf565b50505050505050565b60086020528060005260406000206000915090505481565b600960205281600052604060002081815481106101f357600080fd5b90600052602060002090600302016000915091505080600001549080600101805461021d90610899565b80601f016020809104026020016040519081016040528092919081815260200182805461024990610899565b80156102965780601f1061026b57610100808354040283529160200191610296565b820191906000526020600020905b81548152906001019060200180831161027957829003601f168201915b5050505050908060020180546102ab90610899565b80601f01602080910402602001604051908101604052809291908181526020018280546102d790610899565b80156103245780601f106102f957610100808354040283529160200191610324565b820191906000526020600020905b81548152906001019060200180831161030757829003601f168201915b5050505050905083565b6007818154811061033e57600080fd5b906000526020600020906003020160009150905080600001549080600101805461036790610899565b80601f016020809104026020016040519081016040528092919081815260200182805461039390610899565b80156103e05780601f106103b5576101008083540402835291602001916103e0565b820191906000526020600020905b8154815290600101906020018083116103c357829003601f168201915b5050505050908060020180546103f590610899565b80601f016020809104026020016040519081016040528092919081815260200182805461042190610899565b801561046e5780601f106104435761010080835404028352916020019161046e565b820191906000526020600020905b81548152906001019060200180831161045157829003601f168201915b5050505050905083565b80600860003373ffffffffffffffffffffffffffffffffffffffff1673ffffffffffffffffffffffffffffffffffffffff1681526020019081526020016000208190555050565b8280546104cb90610899565b90600052602060002090601f0160209004810192826104ed5760008555610534565b82601f1061050657805160ff1916838001178555610534565b82800160010185558215610534579182015b82811115610533578251825591602001919060010190610518565b5b5090506105419190610545565b5090565b5b8082111561055e576000816000905550600101610546565b5090565b6000610575610570846107ce565b6107a9565b90508281526020810184848401111561058d57600080fd5b610598848285610857565b509392505050565b6000813590506105af8161096b565b92915050565b600082601f8301126105c657600080fd5b81356105d6848260208601610562565b91505092915050565b6000813590506105ee81610982565b92915050565b60006020828403121561060657600080fd5b6000610614848285016105a0565b91505092915050565b6000806040838503121561063057600080fd5b600061063e858286016105a0565b925050602061064f858286016105df565b9150509250929050565b60006020828403121561066b57600080fd5b6000610679848285016105df565b91505092915050565b60008060006060848603121561069757600080fd5b60006106a5868287016105df565b935050602084013567ffffffffffffffff8111156106c257600080fd5b6106ce868287016105b5565b925050604084013567ffffffffffffffff8111156106eb57600080fd5b6106f7868287016105b5565b9150509250925092565b600061070c826107ff565b610716818561080a565b9350610726818560208601610866565b61072f8161095a565b840191505092915050565b6107438161084d565b82525050565b600060208201905061075e600083018461073a565b92915050565b6000606082019050610779600083018661073a565b818103602083015261078b8185610701565b9050818103604083015261079f8184610701565b9050949350505050565b60006107b36107c4565b90506107bf82826108cb565b919050565b6000604051905090565b600067ffffffffffffffff8211156107e9576107e861092b565b5b6107f28261095a565b9050602081019050919050565b600081519050919050565b600082825260208201905092915050565b60006108268261082d565b9050919050565b600073ffffffffffffffffffffffffffffffffffffffff82169050919050565b6000819050919050565b82818337600083830152505050565b60005b83811015610884578082015181840152602081019050610869565b83811115610893576000848401525b50505050565b600060028204905060018216806108b157607f821691505b602082108114156108c5576108c46108fc565b5b50919050565b6108d48261095a565b810181811067ffffffffffffffff821117156108f3576108f261092b565b5b80604052505050565b7f4e487b7100000000000000000000000000000000000000000000000000000000600052602260045260246000fd5b7f4e487b7100000000000000000000000000000000000000000000000000000000600052604160045260246000fd5b6000601f19601f8301169050919050565b6109748161081b565b811461097f57600080fd5b50565b61098b8161084d565b811461099657600080fd5b5056fea2646970667358221220e276b34024b7284dd05848d171827e1f6c84958bd501fbdac028c2b55ab7fdf364736f6c63430008040033",
					"opcodes": "PUSH1 0x80 PUSH1 0x40 MSTORE PUSH1 0x40 MLOAD DUP1 PUSH1 0x60 ADD PUSH1 0x40 MSTORE DUP1 PUSH1 0x1 DUP2 MSTORE PUSH1 0x20 ADD PUSH1 0x40 MLOAD DUP1 PUSH1 0x40 ADD PUSH1 0x40 MSTORE DUP1 PUSH1 0x7 DUP2 MSTORE PUSH1 0x20 ADD PUSH32 0x526F626572746F00000000000000000000000000000000000000000000000000 DUP2 MSTORE POP DUP2 MSTORE PUSH1 0x20 ADD PUSH1 0x40 MLOAD DUP1 PUSH1 0x40 ADD PUSH1 0x40 MSTORE DUP1 PUSH1 0x13 DUP2 MSTORE PUSH1 0x20 ADD PUSH32 0x726F626572746F40726F626572746F2E636F6D00000000000000000000000000 DUP2 MSTORE POP DUP2 MSTORE POP PUSH1 0x0 DUP1 DUP3 ADD MLOAD DUP2 PUSH1 0x0 ADD SSTORE PUSH1 0x20 DUP3 ADD MLOAD DUP2 PUSH1 0x1 ADD SWAP1 DUP1 MLOAD SWAP1 PUSH1 0x20 ADD SWAP1 PUSH3 0xB3 SWAP3 SWAP2 SWAP1 PUSH3 0x10F JUMP JUMPDEST POP PUSH1 0x40 DUP3 ADD MLOAD DUP2 PUSH1 0x2 ADD SWAP1 DUP1 MLOAD SWAP1 PUSH1 0x20 ADD SWAP1 PUSH3 0xD2 SWAP3 SWAP2 SWAP1 PUSH3 0x10F JUMP JUMPDEST POP POP POP PUSH1 0x40 MLOAD DUP1 PUSH1 0x20 ADD PUSH1 0x40 MSTORE DUP1 PUSH1 0x1 PUSH1 0xFF AND DUP2 MSTORE POP PUSH1 0x3 SWAP1 PUSH1 0x1 PUSH3 0xFA SWAP3 SWAP2 SWAP1 PUSH3 0x1A0 JUMP JUMPDEST POP CALLVALUE DUP1 ISZERO PUSH3 0x108 JUMPI PUSH1 0x0 DUP1 REVERT JUMPDEST POP PUSH3 0x26E JUMP JUMPDEST DUP3 DUP1 SLOAD PUSH3 0x11D SWAP1 PUSH3 0x209 JUMP JUMPDEST SWAP1 PUSH1 0x0 MSTORE PUSH1 0x20 PUSH1 0x0 KECCAK256 SWAP1 PUSH1 0x1F ADD PUSH1 0x20 SWAP1 DIV DUP2 ADD SWAP3 DUP3 PUSH3 0x141 JUMPI PUSH1 0x0 DUP6 SSTORE PUSH3 0x18D JUMP JUMPDEST DUP3 PUSH1 0x1F LT PUSH3 0x15C JUMPI DUP1 MLOAD PUSH1 0xFF NOT AND DUP4 DUP1 ADD OR DUP6 SSTORE PUSH3 0x18D JUMP JUMPDEST DUP3 DUP1 ADD PUSH1 0x1 ADD DUP6 SSTORE DUP3 ISZERO PUSH3 0x18D JUMPI SWAP2 DUP3 ADD JUMPDEST DUP3 DUP2 GT ISZERO PUSH3 0x18C JUMPI DUP3 MLOAD DUP3 SSTORE SWAP2 PUSH1 0x20 ADD SWAP2 SWAP1 PUSH1 0x1 ADD SWAP1 PUSH3 0x16F JUMP JUMPDEST JUMPDEST POP SWAP1 POP PUSH3 0x19C SWAP2 SWAP1 PUSH3 0x1EA JUMP JUMPDEST POP SWAP1 JUMP JUMPDEST DUP3 PUSH1 0x4 DUP2 ADD SWAP3 DUP3 ISZERO PUSH3 0x1D7 JUMPI SWAP2 PUSH1 0x20 MUL DUP3 ADD JUMPDEST DUP3 DUP2 GT ISZERO PUSH3 0x1D6 JUMPI DUP3 MLOAD DUP3 SWAP1 PUSH1 0xFF AND SWAP1 SSTORE SWAP2 PUSH1 0x20 ADD SWAP2 SWAP1 PUSH1 0x1 ADD SWAP1 PUSH3 0x1B4 JUMP JUMPDEST JUMPDEST POP SWAP1 POP PUSH3 0x1E6 SWAP2 SWAP1 PUSH3 0x1EA JUMP JUMPDEST POP SWAP1 JUMP JUMPDEST JUMPDEST DUP1 DUP3 GT ISZERO PUSH3 0x205 JUMPI PUSH1 0x0 DUP2 PUSH1 0x0 SWAP1 SSTORE POP PUSH1 0x1 ADD PUSH3 0x1EB JUMP JUMPDEST POP SWAP1 JUMP JUMPDEST PUSH1 0x0 PUSH1 0x2 DUP3 DIV SWAP1 POP PUSH1 0x1 DUP3 AND DUP1 PUSH3 0x222 JUMPI PUSH1 0x7F DUP3 AND SWAP2 POP JUMPDEST PUSH1 0x20 DUP3 LT DUP2 EQ ISZERO PUSH3 0x239 JUMPI PUSH3 0x238 PUSH3 0x23F JUMP JUMPDEST JUMPDEST POP SWAP2 SWAP1 POP JUMP JUMPDEST PUSH32 0x4E487B7100000000000000000000000000000000000000000000000000000000 PUSH1 0x0 MSTORE PUSH1 0x22 PUSH1 0x4 MSTORE PUSH1 0x24 PUSH1 0x0 REVERT JUMPDEST PUSH2 0x9CF DUP1 PUSH3 0x27E PUSH1 0x0 CODECOPY PUSH1 0x0 RETURN INVALID PUSH1 0x80 PUSH1 0x40 MSTORE CALLVALUE DUP1 ISZERO PUSH2 0x10 JUMPI PUSH1 0x0 DUP1 REVERT JUMPDEST POP PUSH1 0x4 CALLDATASIZE LT PUSH2 0x57 JUMPI PUSH1 0x0 CALLDATALOAD PUSH1 0xE0 SHR DUP1 PUSH4 0x60591CC0 EQ PUSH2 0x5C JUMPI DUP1 PUSH4 0x89B08F11 EQ PUSH2 0x78 JUMPI DUP1 PUSH4 0xB45AED86 EQ PUSH2 0xA8 JUMPI DUP1 PUSH4 0xC0ABDA2A EQ PUSH2 0xDA JUMPI DUP1 PUSH4 0xE52B008F EQ PUSH2 0x10C JUMPI JUMPDEST PUSH1 0x0 DUP1 REVERT JUMPDEST PUSH2 0x76 PUSH1 0x4 DUP1 CALLDATASIZE SUB DUP2 ADD SWAP1 PUSH2 0x71 SWAP2 SWAP1 PUSH2 0x682 JUMP JUMPDEST PUSH2 0x128 JUMP JUMPDEST STOP JUMPDEST PUSH2 0x92 PUSH1 0x4 DUP1 CALLDATASIZE SUB DUP2 ADD SWAP1 PUSH2 0x8D SWAP2 SWAP1 PUSH2 0x5F4 JUMP JUMPDEST PUSH2 0x1BF JUMP JUMPDEST PUSH1 0x40 MLOAD PUSH2 0x9F SWAP2 SWAP1 PUSH2 0x749 JUMP JUMPDEST PUSH1 0x40 MLOAD DUP1 SWAP2 SUB SWAP1 RETURN JUMPDEST PUSH2 0xC2 PUSH1 0x4 DUP1 CALLDATASIZE SUB DUP2 ADD SWAP1 PUSH2 0xBD SWAP2 SWAP1 PUSH2 0x61D JUMP JUMPDEST PUSH2 0x1D7 JUMP JUMPDEST PUSH1 0x40 MLOAD PUSH2 0xD1 SWAP4 SWAP3 SWAP2 SWAP1 PUSH2 0x764 JUMP JUMPDEST PUSH1 0x40 MLOAD DUP1 SWAP2 SUB SWAP1 RETURN JUMPDEST PUSH2 0xF4 PUSH1 0x4 DUP1 CALLDATASIZE SUB DUP2 ADD SWAP1 PUSH2 0xEF SWAP2 SWAP1 PUSH2 0x659 JUMP JUMPDEST PUSH2 0x32E JUMP JUMPDEST PUSH1 0x40 MLOAD PUSH2 0x103 SWAP4 SWAP3 SWAP2 SWAP1 PUSH2 0x764 JUMP JUMPDEST PUSH1 0x40 MLOAD DUP1 SWAP2 SUB SWAP1 RETURN JUMPDEST PUSH2 0x126 PUSH1 0x4 DUP1 CALLDATASIZE SUB DUP2 ADD SWAP1 PUSH2 0x121 SWAP2 SWAP1 PUSH2 0x659 JUMP JUMPDEST PUSH2 0x478 JUMP JUMPDEST STOP JUMPDEST PUSH1 0x0 PUSH1 0x40 MLOAD DUP1 PUSH1 0x60 ADD PUSH1 0x40 MSTORE DUP1 DUP6 DUP2 MSTORE PUSH1 0x20 ADD DUP5 DUP2 MSTORE PUSH1 0x20 ADD DUP4 DUP2 MSTORE POP SWAP1 POP PUSH1 0x7 DUP2 SWAP1 DUP1 PUSH1 0x1 DUP2 SLOAD ADD DUP1 DUP3 SSTORE DUP1 SWAP2 POP POP PUSH1 0x1 SWAP1 SUB SWAP1 PUSH1 0x0 MSTORE PUSH1 0x20 PUSH1 0x0 KECCAK256 SWAP1 PUSH1 0x3 MUL ADD PUSH1 0x0 SWAP1 SWAP2 SWAP1 SWAP2 SWAP1 SWAP2 POP PUSH1 0x0 DUP3 ADD MLOAD DUP2 PUSH1 0x0 ADD SSTORE PUSH1 0x20 DUP3 ADD MLOAD DUP2 PUSH1 0x1 ADD SWAP1 DUP1 MLOAD SWAP1 PUSH1 0x20 ADD SWAP1 PUSH2 0x199 SWAP3 SWAP2 SWAP1 PUSH2 0x4BF JUMP JUMPDEST POP PUSH1 0x40 DUP3 ADD MLOAD DUP2 PUSH1 0x2 ADD SWAP1 DUP1 MLOAD SWAP1 PUSH1 0x20 ADD SWAP1 PUSH2 0x1B6 SWAP3 SWAP2 SWAP1 PUSH2 0x4BF JUMP JUMPDEST POP POP POP POP POP POP POP JUMP JUMPDEST PUSH1 0x8 PUSH1 0x20 MSTORE DUP1 PUSH1 0x0 MSTORE PUSH1 0x40 PUSH1 0x0 KECCAK256 PUSH1 0x0 SWAP2 POP SWAP1 POP SLOAD DUP2 JUMP JUMPDEST PUSH1 0x9 PUSH1 0x20 MSTORE DUP2 PUSH1 0x0 MSTORE PUSH1 0x40 PUSH1 0x0 KECCAK256 DUP2 DUP2 SLOAD DUP2 LT PUSH2 0x1F3 JUMPI PUSH1 0x0 DUP1 REVERT JUMPDEST SWAP1 PUSH1 0x0 MSTORE PUSH1 0x20 PUSH1 0x0 KECCAK256 SWAP1 PUSH1 0x3 MUL ADD PUSH1 0x0 SWAP2 POP SWAP2 POP POP DUP1 PUSH1 0x0 ADD SLOAD SWAP1 DUP1 PUSH1 0x1 ADD DUP1 SLOAD PUSH2 0x21D SWAP1 PUSH2 0x899 JUMP JUMPDEST DUP1 PUSH1 0x1F ADD PUSH1 0x20 DUP1 SWAP2 DIV MUL PUSH1 0x20 ADD PUSH1 0x40 MLOAD SWAP1 DUP2 ADD PUSH1 0x40 MSTORE DUP1 SWAP3 SWAP2 SWAP1 DUP2 DUP2 MSTORE PUSH1 0x20 ADD DUP3 DUP1 SLOAD PUSH2 0x249 SWAP1 PUSH2 0x899 JUMP JUMPDEST DUP1 ISZERO PUSH2 0x296 JUMPI DUP1 PUSH1 0x1F LT PUSH2 0x26B JUMPI PUSH2 0x100 DUP1 DUP4 SLOAD DIV MUL DUP4 MSTORE SWAP2 PUSH1 0x20 ADD SWAP2 PUSH2 0x296 JUMP JUMPDEST DUP3 ADD SWAP2 SWAP1 PUSH1 0x0 MSTORE PUSH1 0x20 PUSH1 0x0 KECCAK256 SWAP1 JUMPDEST DUP2 SLOAD DUP2 MSTORE SWAP1 PUSH1 0x1 ADD SWAP1 PUSH1 0x20 ADD DUP1 DUP4 GT PUSH2 0x279 JUMPI DUP3 SWAP1 SUB PUSH1 0x1F AND DUP3 ADD SWAP2 JUMPDEST POP POP POP POP POP SWAP1 DUP1 PUSH1 0x2 ADD DUP1 SLOAD PUSH2 0x2AB SWAP1 PUSH2 0x899 JUMP JUMPDEST DUP1 PUSH1 0x1F ADD PUSH1 0x20 DUP1 SWAP2 DIV MUL PUSH1 0x20 ADD PUSH1 0x40 MLOAD SWAP1 DUP2 ADD PUSH1 0x40 MSTORE DUP1 SWAP3 SWAP2 SWAP1 DUP2 DUP2 MSTORE PUSH1 0x20 ADD DUP3 DUP1 SLOAD PUSH2 0x2D7 SWAP1 PUSH2 0x899 JUMP JUMPDEST DUP1 ISZERO PUSH2 0x324 JUMPI DUP1 PUSH1 0x1F LT PUSH2 0x2F9 JUMPI PUSH2 0x100 DUP1 DUP4 SLOAD DIV MUL DUP4 MSTORE SWAP2 PUSH1 0x20 ADD SWAP2 PUSH2 0x324 JUMP JUMPDEST DUP3 ADD SWAP2 SWAP1 PUSH1 0x0 MSTORE PUSH1 0x20 PUSH1 0x0 KECCAK256 SWAP1 JUMPDEST DUP2 SLOAD DUP2 MSTORE SWAP1 PUSH1 0x1 ADD SWAP1 PUSH1 0x20 ADD DUP1 DUP4 GT PUSH2 0x307 JUMPI DUP3 SWAP1 SUB PUSH1 0x1F AND DUP3 ADD SWAP2 JUMPDEST POP POP POP POP POP SWAP1 POP DUP4 JUMP JUMPDEST PUSH1 0x7 DUP2 DUP2 SLOAD DUP2 LT PUSH2 0x33E JUMPI PUSH1 0x0 DUP1 REVERT JUMPDEST SWAP1 PUSH1 0x0 MSTORE PUSH1 0x20 PUSH1 0x0 KECCAK256 SWAP1 PUSH1 0x3 MUL ADD PUSH1 0x0 SWAP2 POP SWAP1 POP DUP1 PUSH1 0x0 ADD SLOAD SWAP1 DUP1 PUSH1 0x1 ADD DUP1 SLOAD PUSH2 0x367 SWAP1 PUSH2 0x899 JUMP JUMPDEST DUP1 PUSH1 0x1F ADD PUSH1 0x20 DUP1 SWAP2 DIV MUL PUSH1 0x20 ADD PUSH1 0x40 MLOAD SWAP1 DUP2 ADD PUSH1 0x40 MSTORE DUP1 SWAP3 SWAP2 SWAP1 DUP2 DUP2 MSTORE PUSH1 0x20 ADD DUP3 DUP1 SLOAD PUSH2 0x393 SWAP1 PUSH2 0x899 JUMP JUMPDEST DUP1 ISZERO PUSH2 0x3E0 JUMPI DUP1 PUSH1 0x1F LT PUSH2 0x3B5 JUMPI PUSH2 0x100 DUP1 DUP4 SLOAD DIV MUL DUP4 MSTORE SWAP2 PUSH1 0x20 ADD SWAP2 PUSH2 0x3E0 JUMP JUMPDEST DUP3 ADD SWAP2 SWAP1 PUSH1 0x0 MSTORE PUSH1 0x20 PUSH1 0x0 KECCAK256 SWAP1 JUMPDEST DUP2 SLOAD DUP2 MSTORE SWAP1 PUSH1 0x1 ADD SWAP1 PUSH1 0x20 ADD DUP1 DUP4 GT PUSH2 0x3C3 JUMPI DUP3 SWAP1 SUB PUSH1 0x1F AND DUP3 ADD SWAP2 JUMPDEST POP POP POP POP POP SWAP1 DUP1 PUSH1 0x2 ADD DUP1 SLOAD PUSH2 0x3F5 SWAP1 PUSH2 0x899 JUMP JUMPDEST DUP1 PUSH1 0x1F ADD PUSH1 0x20 DUP1 SWAP2 DIV MUL PUSH1 0x20 ADD PUSH1 0x40 MLOAD SWAP1 DUP2 ADD PUSH1 0x40 MSTORE DUP1 SWAP3 SWAP2 SWAP1 DUP2 DUP2 MSTORE PUSH1 0x20 ADD DUP3 DUP1 SLOAD PUSH2 0x421 SWAP1 PUSH2 0x899 JUMP JUMPDEST DUP1 ISZERO PUSH2 0x46E JUMPI DUP1 PUSH1 0x1F LT PUSH2 0x443 JUMPI PUSH2 0x100 DUP1 DUP4 SLOAD DIV MUL DUP4 MSTORE SWAP2 PUSH1 0x20 ADD SWAP2 PUSH2 0x46E JUMP JUMPDEST DUP3 ADD SWAP2 SWAP1 PUSH1 0x0 MSTORE PUSH1 0x20 PUSH1 0x0 KECCAK256 SWAP1 JUMPDEST DUP2 SLOAD DUP2 MSTORE SWAP1 PUSH1 0x1 ADD SWAP1 PUSH1 0x20 ADD DUP1 DUP4 GT PUSH2 0x451 JUMPI DUP3 SWAP1 SUB PUSH1 0x1F AND DUP3 ADD SWAP2 JUMPDEST POP POP POP POP POP SWAP1 POP DUP4 JUMP JUMPDEST DUP1 PUSH1 0x8 PUSH1 0x0 CALLER PUSH20 0xFFFFFFFFFFFFFFFFFFFFFFFFFFFFFFFFFFFFFFFF AND PUSH20 0xFFFFFFFFFFFFFFFFFFFFFFFFFFFFFFFFFFFFFFFF AND DUP2 MSTORE PUSH1 0x20 ADD SWAP1 DUP2 MSTORE PUSH1 0x20 ADD PUSH1 0x0 KECCAK256 DUP2 SWAP1 SSTORE POP POP JUMP JUMPDEST DUP3 DUP1 SLOAD PUSH2 0x4CB SWAP1 PUSH2 0x899 JUMP JUMPDEST SWAP1 PUSH1 0x0 MSTORE PUSH1 0x20 PUSH1 0x0 KECCAK256 SWAP1 PUSH1 0x1F ADD PUSH1 0x20 SWAP1 DIV DUP2 ADD SWAP3 DUP3 PUSH2 0x4ED JUMPI PUSH1 0x0 DUP6 SSTORE PUSH2 0x534 JUMP JUMPDEST DUP3 PUSH1 0x1F LT PUSH2 0x506 JUMPI DUP1 MLOAD PUSH1 0xFF NOT AND DUP4 DUP1 ADD OR DUP6 SSTORE PUSH2 0x534 JUMP JUMPDEST DUP3 DUP1 ADD PUSH1 0x1 ADD DUP6 SSTORE DUP3 ISZERO PUSH2 0x534 JUMPI SWAP2 DUP3 ADD JUMPDEST DUP3 DUP2 GT ISZERO PUSH2 0x533 JUMPI DUP3 MLOAD DUP3 SSTORE SWAP2 PUSH1 0x20 ADD SWAP2 SWAP1 PUSH1 0x1 ADD SWAP1 PUSH2 0x518 JUMP JUMPDEST JUMPDEST POP SWAP1 POP PUSH2 0x541 SWAP2 SWAP1 PUSH2 0x545 JUMP JUMPDEST POP SWAP1 JUMP JUMPDEST JUMPDEST DUP1 DUP3 GT ISZERO PUSH2 0x55E JUMPI PUSH1 0x0 DUP2 PUSH1 0x0 SWAP1 SSTORE POP PUSH1 0x1 ADD PUSH2 0x546 JUMP JUMPDEST POP SWAP1 JUMP JUMPDEST PUSH1 0x0 PUSH2 0x575 PUSH2 0x570 DUP5 PUSH2 0x7CE JUMP JUMPDEST PUSH2 0x7A9 JUMP JUMPDEST SWAP1 POP DUP3 DUP2 MSTORE PUSH1 0x20 DUP2 ADD DUP5 DUP5 DUP5 ADD GT ISZERO PUSH2 0x58D JUMPI PUSH1 0x0 DUP1 REVERT JUMPDEST PUSH2 0x598 DUP5 DUP3 DUP6 PUSH2 0x857 JUMP JUMPDEST POP SWAP4 SWAP3 POP POP POP JUMP JUMPDEST PUSH1 0x0 DUP2 CALLDATALOAD SWAP1 POP PUSH2 0x5AF DUP2 PUSH2 0x96B JUMP JUMPDEST SWAP3 SWAP2 POP POP JUMP JUMPDEST PUSH1 0x0 DUP3 PUSH1 0x1F DUP4 ADD SLT PUSH2 0x5C6 JUMPI PUSH1 0x0 DUP1 REVERT JUMPDEST DUP2 CALLDATALOAD PUSH2 0x5D6 DUP5 DUP3 PUSH1 0x20 DUP7 ADD PUSH2 0x562 JUMP JUMPDEST SWAP2 POP POP SWAP3 SWAP2 POP POP JUMP JUMPDEST PUSH1 0x0 DUP2 CALLDATALOAD SWAP1 POP PUSH2 0x5EE DUP2 PUSH2 0x982 JUMP JUMPDEST SWAP3 SWAP2 POP POP JUMP JUMPDEST PUSH1 0x0 PUSH1 0x20 DUP3 DUP5 SUB SLT ISZERO PUSH2 0x606 JUMPI PUSH1 0x0 DUP1 REVERT JUMPDEST PUSH1 0x0 PUSH2 0x614 DUP5 DUP3 DUP6 ADD PUSH2 0x5A0 JUMP JUMPDEST SWAP2 POP POP SWAP3 SWAP2 POP POP JUMP JUMPDEST PUSH1 0x0 DUP1 PUSH1 0x40 DUP4 DUP6 SUB SLT ISZERO PUSH2 0x630 JUMPI PUSH1 0x0 DUP1 REVERT JUMPDEST PUSH1 0x0 PUSH2 0x63E DUP6 DUP3 DUP7 ADD PUSH2 0x5A0 JUMP JUMPDEST SWAP3 POP POP PUSH1 0x20 PUSH2 0x64F DUP6 DUP3 DUP7 ADD PUSH2 0x5DF JUMP JUMPDEST SWAP2 POP POP SWAP3 POP SWAP3 SWAP1 POP JUMP JUMPDEST PUSH1 0x0 PUSH1 0x20 DUP3 DUP5 SUB SLT ISZERO PUSH2 0x66B JUMPI PUSH1 0x0 DUP1 REVERT JUMPDEST PUSH1 0x0 PUSH2 0x679 DUP5 DUP3 DUP6 ADD PUSH2 0x5DF JUMP JUMPDEST SWAP2 POP POP SWAP3 SWAP2 POP POP JUMP JUMPDEST PUSH1 0x0 DUP1 PUSH1 0x0 PUSH1 0x60 DUP5 DUP7 SUB SLT ISZERO PUSH2 0x697 JUMPI PUSH1 0x0 DUP1 REVERT JUMPDEST PUSH1 0x0 PUSH2 0x6A5 DUP7 DUP3 DUP8 ADD PUSH2 0x5DF JUMP JUMPDEST SWAP4 POP POP PUSH1 0x20 DUP5 ADD CALLDATALOAD PUSH8 0xFFFFFFFFFFFFFFFF DUP2 GT ISZERO PUSH2 0x6C2 JUMPI PUSH1 0x0 DUP1 REVERT JUMPDEST PUSH2 0x6CE DUP7 DUP3 DUP8 ADD PUSH2 0x5B5 JUMP JUMPDEST SWAP3 POP POP PUSH1 0x40 DUP5 ADD CALLDATALOAD PUSH8 0xFFFFFFFFFFFFFFFF DUP2 GT ISZERO PUSH2 0x6EB JUMPI PUSH1 0x0 DUP1 REVERT JUMPDEST PUSH2 0x6F7 DUP7 DUP3 DUP8 ADD PUSH2 0x5B5 JUMP JUMPDEST SWAP2 POP POP SWAP3 POP SWAP3 POP SWAP3 JUMP JUMPDEST PUSH1 0x0 PUSH2 0x70C DUP3 PUSH2 0x7FF JUMP JUMPDEST PUSH2 0x716 DUP2 DUP6 PUSH2 0x80A JUMP JUMPDEST SWAP4 POP PUSH2 0x726 DUP2 DUP6 PUSH1 0x20 DUP7 ADD PUSH2 0x866 JUMP JUMPDEST PUSH2 0x72F DUP2 PUSH2 0x95A JUMP JUMPDEST DUP5 ADD SWAP2 POP POP SWAP3 SWAP2 POP POP JUMP JUMPDEST PUSH2 0x743 DUP2 PUSH2 0x84D JUMP JUMPDEST DUP3 MSTORE POP POP JUMP JUMPDEST PUSH1 0x0 PUSH1 0x20 DUP3 ADD SWAP1 POP PUSH2 0x75E PUSH1 0x0 DUP4 ADD DUP5 PUSH2 0x73A JUMP JUMPDEST SWAP3 SWAP2 POP POP JUMP JUMPDEST PUSH1 0x0 PUSH1 0x60 DUP3 ADD SWAP1 POP PUSH2 0x779 PUSH1 0x0 DUP4 ADD DUP7 PUSH2 0x73A JUMP JUMPDEST DUP2 DUP2 SUB PUSH1 0x20 DUP4 ADD MSTORE PUSH2 0x78B DUP2 DUP6 PUSH2 0x701 JUMP JUMPDEST SWAP1 POP DUP2 DUP2 SUB PUSH1 0x40 DUP4 ADD MSTORE PUSH2 0x79F DUP2 DUP5 PUSH2 0x701 JUMP JUMPDEST SWAP1 POP SWAP5 SWAP4 POP POP POP POP JUMP JUMPDEST PUSH1 0x0 PUSH2 0x7B3 PUSH2 0x7C4 JUMP JUMPDEST SWAP1 POP PUSH2 0x7BF DUP3 DUP3 PUSH2 0x8CB JUMP JUMPDEST SWAP2 SWAP1 POP JUMP JUMPDEST PUSH1 0x0 PUSH1 0x40 MLOAD SWAP1 POP SWAP1 JUMP JUMPDEST PUSH1 0x0 PUSH8 0xFFFFFFFFFFFFFFFF DUP3 GT ISZERO PUSH2 0x7E9 JUMPI PUSH2 0x7E8 PUSH2 0x92B JUMP JUMPDEST JUMPDEST PUSH2 0x7F2 DUP3 PUSH2 0x95A JUMP JUMPDEST SWAP1 POP PUSH1 0x20 DUP2 ADD SWAP1 POP SWAP2 SWAP1 POP JUMP JUMPDEST PUSH1 0x0 DUP2 MLOAD SWAP1 POP SWAP2 SWAP1 POP JUMP JUMPDEST PUSH1 0x0 DUP3 DUP3 MSTORE PUSH1 0x20 DUP3 ADD SWAP1 POP SWAP3 SWAP2 POP POP JUMP JUMPDEST PUSH1 0x0 PUSH2 0x826 DUP3 PUSH2 0x82D JUMP JUMPDEST SWAP1 POP SWAP2 SWAP1 POP JUMP JUMPDEST PUSH1 0x0 PUSH20 0xFFFFFFFFFFFFFFFFFFFFFFFFFFFFFFFFFFFFFFFF DUP3 AND SWAP1 POP SWAP2 SWAP1 POP JUMP JUMPDEST PUSH1 0x0 DUP2 SWAP1 POP SWAP2 SWAP1 POP JUMP JUMPDEST DUP3 DUP2 DUP4 CALLDATACOPY PUSH1 0x0 DUP4 DUP4 ADD MSTORE POP POP POP JUMP JUMPDEST PUSH1 0x0 JUMPDEST DUP4 DUP2 LT ISZERO PUSH2 0x884 JUMPI DUP1 DUP3 ADD MLOAD DUP2 DUP5 ADD MSTORE PUSH1 0x20 DUP2 ADD SWAP1 POP PUSH2 0x869 JUMP JUMPDEST DUP4 DUP2 GT ISZERO PUSH2 0x893 JUMPI PUSH1 0x0 DUP5 DUP5 ADD MSTORE JUMPDEST POP POP POP POP JUMP JUMPDEST PUSH1 0x0 PUSH1 0x2 DUP3 DIV SWAP1 POP PUSH1 0x1 DUP3 AND DUP1 PUSH2 0x8B1 JUMPI PUSH1 0x7F DUP3 AND SWAP2 POP JUMPDEST PUSH1 0x20 DUP3 LT DUP2 EQ ISZERO PUSH2 0x8C5 JUMPI PUSH2 0x8C4 PUSH2 0x8FC JUMP JUMPDEST JUMPDEST POP SWAP2 SWAP1 POP JUMP JUMPDEST PUSH2 0x8D4 DUP3 PUSH2 0x95A JUMP JUMPDEST DUP2 ADD DUP2 DUP2 LT PUSH8 0xFFFFFFFFFFFFFFFF DUP3 GT OR ISZERO PUSH2 0x8F3 JUMPI PUSH2 0x8F2 PUSH2 0x92B JUMP JUMPDEST JUMPDEST DUP1 PUSH1 0x40 MSTORE POP POP POP JUMP JUMPDEST PUSH32 0x4E487B7100000000000000000000000000000000000000000000000000000000 PUSH1 0x0 MSTORE PUSH1 0x22 PUSH1 0x4 MSTORE PUSH1 0x24 PUSH1 0x0 REVERT JUMPDEST PUSH32 0x4E487B7100000000000000000000000000000000000000000000000000000000 PUSH1 0x0 MSTORE PUSH1 0x41 PUSH1 0x4 MSTORE PUSH1 0x24 PUSH1 0x0 REVERT JUMPDEST PUSH1 0x0 PUSH1 0x1F NOT PUSH1 0x1F DUP4 ADD AND SWAP1 POP SWAP2 SWAP1 POP JUMP JUMPDEST PUSH2 0x974 DUP2 PUSH2 0x81B JUMP JUMPDEST DUP2 EQ PUSH2 0x97F JUMPI PUSH1 0x0 DUP1 REVERT JUMPDEST POP JUMP JUMPDEST PUSH2 0x98B DUP2 PUSH2 0x84D JUMP JUMPDEST DUP2 EQ PUSH2 0x996 JUMPI PUSH1 0x0 DUP1 REVERT JUMPDEST POP JUMP INVALID LOG2 PUSH5 0x6970667358 0x22 SLT KECCAK256 0xE2 PUSH23 0xB34024B7284DD05848D171827E1F6C84958BD501FBDAC0 0x28 0xC2 0xB5 GAS 0xB7 REVERT RETURN PUSH5 0x736F6C6343 STOP ADDMOD DIV STOP CALLER "
				},
				"gasEstimates": {
					"creation": {
						"codeDepositCost": "502200",
						"executionCost": "infinite",
						"totalCost": "infinite"
					},
					"external": {
						"arrayAppend(uint256,string,string)": "infinite",
						"assignNumber(uint256)": "20575",
						"customers(uint256)": "infinite",
						"customersAddress(address,uint256)": "infinite",
						"wallets(address)": "1514"
					}
				},
				"methodIdentifiers": {
					"arrayAppend(uint256,string,string)": "60591cc0",
					"assignNumber(uint256)": "e52b008f",
					"customers(uint256)": "c0abda2a",
					"customersAddress(address,uint256)": "b45aed86",
					"wallets(address)": "89b08f11"
				}
			},
			"storageLayout": {
				"storage": [
					{
						"astId": 16,
						"contract": "contracts/3_data_structures.sol:DataStructures",
						"label": "customer1",
						"offset": 0,
						"slot": "0",
						"type": "t_struct(Customer)8_storage"
					},
					{
						"astId": 22,
						"contract": "contracts/3_data_structures.sol:DataStructures",
						"label": "ages",
						"offset": 0,
						"slot": "3",
						"type": "t_array(t_uint256)4_storage"
					},
					{
						"astId": 26,
						"contract": "contracts/3_data_structures.sol:DataStructures",
						"label": "customers",
						"offset": 0,
						"slot": "7",
						"type": "t_array(t_struct(Customer)8_storage)dyn_storage"
					},
					{
						"astId": 55,
						"contract": "contracts/3_data_structures.sol:DataStructures",
						"label": "wallets",
						"offset": 0,
						"slot": "8",
						"type": "t_mapping(t_address,t_uint256)"
					},
					{
						"astId": 61,
						"contract": "contracts/3_data_structures.sol:DataStructures",
						"label": "customersAddress",
						"offset": 0,
						"slot": "9",
						"type": "t_mapping(t_address,t_array(t_struct(Customer)8_storage)dyn_storage)"
					}
				],
				"types": {
					"t_address": {
						"encoding": "inplace",
						"label": "address",
						"numberOfBytes": "20"
					},
					"t_array(t_struct(Customer)8_storage)dyn_storage": {
						"base": "t_struct(Customer)8_storage",
						"encoding": "dynamic_array",
						"label": "struct DataStructures.Customer[]",
						"numberOfBytes": "32"
					},
					"t_array(t_uint256)4_storage": {
						"base": "t_uint256",
						"encoding": "inplace",
						"label": "uint256[4]",
						"numberOfBytes": "128"
					},
					"t_mapping(t_address,t_array(t_struct(Customer)8_storage)dyn_storage)": {
						"encoding": "mapping",
						"key": "t_address",
						"label": "mapping(address => struct DataStructures.Customer[])",
						"numberOfBytes": "32",
						"value": "t_array(t_struct(Customer)8_storage)dyn_storage"
					},
					"t_mapping(t_address,t_uint256)": {
						"encoding": "mapping",
						"key": "t_address",
						"label": "mapping(address => uint256)",
						"numberOfBytes": "32",
						"value": "t_uint256"
					},
					"t_string_storage": {
						"encoding": "bytes",
						"label": "string",
						"numberOfBytes": "32"
					},
					"t_struct(Customer)8_storage": {
						"encoding": "inplace",
						"label": "struct DataStructures.Customer",
						"members": [
							{
								"astId": 3,
								"contract": "contracts/3_data_structures.sol:DataStructures",
								"label": "id",
								"offset": 0,
								"slot": "0",
								"type": "t_uint256"
							},
							{
								"astId": 5,
								"contract": "contracts/3_data_structures.sol:DataStructures",
								"label": "name",
								"offset": 0,
								"slot": "1",
								"type": "t_string_storage"
							},
							{
								"astId": 7,
								"contract": "contracts/3_data_structures.sol:DataStructures",
								"label": "email",
								"offset": 0,
								"slot": "2",
								"type": "t_string_storage"
							}
						],
						"numberOfBytes": "96"
					},
					"t_uint256": {
						"encoding": "inplace",
						"label": "uint256",
						"numberOfBytes": "32"
					}
				}
			},
			"userdoc": {
				"kind": "user",
				"methods": {},
				"version": 1
			}
		}
	}
}