{
	"contracts/5_payable_functions.sol": {
		"etherSend": {
			"abi": [
				{
					"inputs": [],
					"stateMutability": "payable",
					"type": "constructor"
				},
				{
					"anonymous": false,
					"inputs": [
						{
							"indexed": false,
							"internalType": "bool",
							"name": "",
							"type": "bool"
						},
						{
							"indexed": false,
							"internalType": "bytes",
							"name": "",
							"type": "bytes"
						}
					],
					"name": "callStatus",
					"type": "event"
				},
				{
					"anonymous": false,
					"inputs": [
						{
							"indexed": false,
							"internalType": "bool",
							"name": "",
							"type": "bool"
						}
					],
					"name": "sendStatus",
					"type": "event"
				},
				{
					"inputs": [
						{
							"internalType": "address payable",
							"name": "_to",
							"type": "address"
						}
					],
					"name": "sendViaSend",
					"outputs": [],
					"stateMutability": "payable",
					"type": "function"
				},
				{
					"inputs": [
						{
							"internalType": "address payable",
							"name": "_to",
							"type": "address"
						}
					],
					"name": "sendViaTransfer",
					"outputs": [],
					"stateMutability": "payable",
					"type": "function"
				},
				{
					"stateMutability": "payable",
					"type": "receive"
				}
			],
			"devdoc": {
				"kind": "dev",
				"methods": {},
				"version": 1
			},
			"evm": {
				"assembly": "    /* \"contracts/5_payable_functions.sol\":69:524  contract etherSend {... */\n  mstore(0x40, 0x80)\n  dataSize(sub_0)\n  dup1\n  dataOffset(sub_0)\n  0x00\n  codecopy\n  0x00\n  return\nstop\n\nsub_0: assembly {\n        /* \"contracts/5_payable_functions.sol\":69:524  contract etherSend {... */\n      mstore(0x40, 0x80)\n      jumpi(tag_1, lt(calldatasize, 0x04))\n      shr(0xe0, calldataload(0x00))\n      dup1\n      0x636e082b\n      eq\n      tag_3\n      jumpi\n      dup1\n      0x74be4806\n      eq\n      tag_4\n      jumpi\n      jump(tag_2)\n    tag_1:\n      jumpi(tag_2, calldatasize)\n      stop\n    tag_2:\n      0x00\n      dup1\n      revert\n        /* \"contracts/5_payable_functions.sol\":254:353  function sendViaTransfer(address payable _to) public payable {... */\n    tag_3:\n      tag_7\n      0x04\n      dup1\n      calldatasize\n      sub\n      dup2\n      add\n      swap1\n      tag_8\n      swap2\n      swap1\n      tag_9\n      jump\t// in\n    tag_8:\n      tag_10\n      jump\t// in\n    tag_7:\n      stop\n        /* \"contracts/5_payable_functions.sol\":371:505  function sendViaSend(address payable _to) public payable {... */\n    tag_4:\n      tag_11\n      0x04\n      dup1\n      calldatasize\n      sub\n      dup2\n      add\n      swap1\n      tag_12\n      swap2\n      swap1\n      tag_9\n      jump\t// in\n    tag_12:\n      tag_13\n      jump\t// in\n    tag_11:\n      stop\n        /* \"contracts/5_payable_functions.sol\":254:353  function sendViaTransfer(address payable _to) public payable {... */\n    tag_10:\n        /* \"contracts/5_payable_functions.sol\":325:328  _to */\n      dup1\n        /* \"contracts/5_payable_functions.sol\":325:337  _to.transfer */\n      0xffffffffffffffffffffffffffffffffffffffff\n      and\n        /* \"contracts/5_payable_functions.sol\":325:346  _to.transfer(1 ether) */\n      0x08fc\n        /* \"contracts/5_payable_functions.sol\":338:345  1 ether */\n      0x0de0b6b3a7640000\n        /* \"contracts/5_payable_functions.sol\":325:346  _to.transfer(1 ether) */\n      swap1\n      dup2\n      iszero\n      mul\n      swap1\n      mload(0x40)\n      0x00\n      mload(0x40)\n      dup1\n      dup4\n      sub\n      dup2\n      dup6\n      dup9\n      dup9\n      call\n      swap4\n      pop\n      pop\n      pop\n      pop\n      iszero\n      dup1\n      iszero\n      tag_16\n      jumpi\n      returndatasize\n      0x00\n      dup1\n      returndatacopy\n      revert(0x00, returndatasize)\n    tag_16:\n      pop\n        /* \"contracts/5_payable_functions.sol\":254:353  function sendViaTransfer(address payable _to) public payable {... */\n      pop\n      jump\t// out\n        /* \"contracts/5_payable_functions.sol\":371:505  function sendViaSend(address payable _to) public payable {... */\n    tag_13:\n        /* \"contracts/5_payable_functions.sol\":438:447  bool sent */\n      0x00\n        /* \"contracts/5_payable_functions.sol\":450:453  _to */\n      dup2\n        /* \"contracts/5_payable_functions.sol\":450:458  _to.send */\n      0xffffffffffffffffffffffffffffffffffffffff\n      and\n        /* \"contracts/5_payable_functions.sol\":450:467  _to.send(1 ether) */\n      0x08fc\n        /* \"contracts/5_payable_functions.sol\":459:466  1 ether */\n      0x0de0b6b3a7640000\n        /* \"contracts/5_payable_functions.sol\":450:467  _to.send(1 ether) */\n      swap1\n      dup2\n      iszero\n      mul\n      swap1\n      mload(0x40)\n      0x00\n      mload(0x40)\n      dup1\n      dup4\n      sub\n      dup2\n      dup6\n      dup9\n      dup9\n      call\n      swap4\n      pop\n      pop\n      pop\n      pop\n        /* \"contracts/5_payable_functions.sol\":438:467  bool sent = _to.send(1 ether) */\n      swap1\n      pop\n        /* \"contracts/5_payable_functions.sol\":482:498  sendStatus(sent) */\n      0x0c46a72a145bed1fc3c2d4b0e023bd11ddb1e3204a898f4119357ecde6d5fe99\n        /* \"contracts/5_payable_functions.sol\":493:497  sent */\n      dup2\n        /* \"contracts/5_payable_functions.sol\":482:498  sendStatus(sent) */\n      mload(0x40)\n      tag_19\n      swap2\n      swap1\n      tag_20\n      jump\t// in\n    tag_19:\n      mload(0x40)\n      dup1\n      swap2\n      sub\n      swap1\n      log1\n        /* \"contracts/5_payable_functions.sol\":371:505  function sendViaSend(address payable _to) public payable {... */\n      pop\n      pop\n      jump\t// out\n        /* \"#utility.yul\":7:162   */\n    tag_22:\n        /* \"#utility.yul\":61:66   */\n      0x00\n        /* \"#utility.yul\":99:105   */\n      dup2\n        /* \"#utility.yul\":86:106   */\n      calldataload\n        /* \"#utility.yul\":77:106   */\n      swap1\n      pop\n        /* \"#utility.yul\":115:156   */\n      tag_24\n        /* \"#utility.yul\":150:155   */\n      dup2\n        /* \"#utility.yul\":115:156   */\n      tag_25\n      jump\t// in\n    tag_24:\n        /* \"#utility.yul\":67:162   */\n      swap3\n      swap2\n      pop\n      pop\n      jump\t// out\n        /* \"#utility.yul\":168:446   */\n    tag_9:\n        /* \"#utility.yul\":235:241   */\n      0x00\n        /* \"#utility.yul\":284:286   */\n      0x20\n        /* \"#utility.yul\":272:281   */\n      dup3\n        /* \"#utility.yul\":263:270   */\n      dup5\n        /* \"#utility.yul\":259:282   */\n      sub\n        /* \"#utility.yul\":255:287   */\n      slt\n        /* \"#utility.yul\":252:254   */\n      iszero\n      tag_27\n      jumpi\n        /* \"#utility.yul\":300:301   */\n      0x00\n        /* \"#utility.yul\":297:298   */\n      dup1\n        /* \"#utility.yul\":290:302   */\n      revert\n        /* \"#utility.yul\":252:254   */\n    tag_27:\n        /* \"#utility.yul\":343:344   */\n      0x00\n        /* \"#utility.yul\":368:429   */\n      tag_28\n        /* \"#utility.yul\":421:428   */\n      dup5\n        /* \"#utility.yul\":412:418   */\n      dup3\n        /* \"#utility.yul\":401:410   */\n      dup6\n        /* \"#utility.yul\":397:419   */\n      add\n        /* \"#utility.yul\":368:429   */\n      tag_22\n      jump\t// in\n    tag_28:\n        /* \"#utility.yul\":358:429   */\n      swap2\n      pop\n        /* \"#utility.yul\":314:439   */\n      pop\n        /* \"#utility.yul\":242:446   */\n      swap3\n      swap2\n      pop\n      pop\n      jump\t// out\n        /* \"#utility.yul\":452:561   */\n    tag_29:\n        /* \"#utility.yul\":533:554   */\n      tag_31\n        /* \"#utility.yul\":548:553   */\n      dup2\n        /* \"#utility.yul\":533:554   */\n      tag_32\n      jump\t// in\n    tag_31:\n        /* \"#utility.yul\":528:531   */\n      dup3\n        /* \"#utility.yul\":521:555   */\n      mstore\n        /* \"#utility.yul\":511:561   */\n      pop\n      pop\n      jump\t// out\n        /* \"#utility.yul\":567:777   */\n    tag_20:\n        /* \"#utility.yul\":654:658   */\n      0x00\n        /* \"#utility.yul\":692:694   */\n      0x20\n        /* \"#utility.yul\":681:690   */\n      dup3\n        /* \"#utility.yul\":677:695   */\n      add\n        /* \"#utility.yul\":669:695   */\n      swap1\n      pop\n        /* \"#utility.yul\":705:770   */\n      tag_34\n        /* \"#utility.yul\":767:768   */\n      0x00\n        /* \"#utility.yul\":756:765   */\n      dup4\n        /* \"#utility.yul\":752:769   */\n      add\n        /* \"#utility.yul\":743:749   */\n      dup5\n        /* \"#utility.yul\":705:770   */\n      tag_29\n      jump\t// in\n    tag_34:\n        /* \"#utility.yul\":659:777   */\n      swap3\n      swap2\n      pop\n      pop\n      jump\t// out\n        /* \"#utility.yul\":783:887   */\n    tag_35:\n        /* \"#utility.yul\":828:835   */\n      0x00\n        /* \"#utility.yul\":857:881   */\n      tag_37\n        /* \"#utility.yul\":875:880   */\n      dup3\n        /* \"#utility.yul\":857:881   */\n      tag_38\n      jump\t// in\n    tag_37:\n        /* \"#utility.yul\":846:881   */\n      swap1\n      pop\n        /* \"#utility.yul\":836:887   */\n      swap2\n      swap1\n      pop\n      jump\t// out\n        /* \"#utility.yul\":893:983   */\n    tag_32:\n        /* \"#utility.yul\":927:934   */\n      0x00\n        /* \"#utility.yul\":970:975   */\n      dup2\n        /* \"#utility.yul\":963:976   */\n      iszero\n        /* \"#utility.yul\":956:977   */\n      iszero\n        /* \"#utility.yul\":945:977   */\n      swap1\n      pop\n        /* \"#utility.yul\":935:983   */\n      swap2\n      swap1\n      pop\n      jump\t// out\n        /* \"#utility.yul\":989:1115   */\n    tag_38:\n        /* \"#utility.yul\":1026:1033   */\n      0x00\n        /* \"#utility.yul\":1066:1108   */\n      0xffffffffffffffffffffffffffffffffffffffff\n        /* \"#utility.yul\":1059:1064   */\n      dup3\n        /* \"#utility.yul\":1055:1109   */\n      and\n        /* \"#utility.yul\":1044:1109   */\n      swap1\n      pop\n        /* \"#utility.yul\":1034:1115   */\n      swap2\n      swap1\n      pop\n      jump\t// out\n        /* \"#utility.yul\":1121:1259   */\n    tag_25:\n        /* \"#utility.yul\":1202:1234   */\n      tag_42\n        /* \"#utility.yul\":1228:1233   */\n      dup2\n        /* \"#utility.yul\":1202:1234   */\n      tag_35\n      jump\t// in\n    tag_42:\n        /* \"#utility.yul\":1195:1200   */\n      dup2\n        /* \"#utility.yul\":1192:1235   */\n      eq\n        /* \"#utility.yul\":1182:1184   */\n      tag_43\n      jumpi\n        /* \"#utility.yul\":1249:1250   */\n      0x00\n        /* \"#utility.yul\":1246:1247   */\n      dup1\n        /* \"#utility.yul\":1239:1251   */\n      revert\n        /* \"#utility.yul\":1182:1184   */\n    tag_43:\n        /* \"#utility.yul\":1172:1259   */\n      pop\n      jump\t// out\n\n    auxdata: 0xa2646970667358221220eac5bbd70e47caf3512d17d144d9efa877db462767492156825f6763627e8a8464736f6c63430008040033\n}\n",
				"bytecode": {
					"linkReferences": {},
					"object": "6080604052610232806100136000396000f3fe60806040526004361061002d5760003560e01c8063636e082b1461003957806374be48061461005557610034565b3661003457005b600080fd5b610053600480360381019061004e9190610154565b610071565b005b61006f600480360381019061006a9190610154565b6100c3565b005b8073ffffffffffffffffffffffffffffffffffffffff166108fc670de0b6b3a76400009081150290604051600060405180830381858888f193505050501580156100bf573d6000803e3d6000fd5b5050565b60008173ffffffffffffffffffffffffffffffffffffffff166108fc670de0b6b3a76400009081150290604051600060405180830381858888f1935050505090507f0c46a72a145bed1fc3c2d4b0e023bd11ddb1e3204a898f4119357ecde6d5fe9981604051610133919061018c565b60405180910390a15050565b60008135905061014e816101e5565b92915050565b60006020828403121561016657600080fd5b60006101748482850161013f565b91505092915050565b610186816101b9565b82525050565b60006020820190506101a1600083018461017d565b92915050565b60006101b2826101c5565b9050919050565b60008115159050919050565b600073ffffffffffffffffffffffffffffffffffffffff82169050919050565b6101ee816101a7565b81146101f957600080fd5b5056fea2646970667358221220eac5bbd70e47caf3512d17d144d9efa877db462767492156825f6763627e8a8464736f6c63430008040033",
					"opcodes": "PUSH1 0x80 PUSH1 0x40 MSTORE PUSH2 0x232 DUP1 PUSH2 0x13 PUSH1 0x0 CODECOPY PUSH1 0x0 RETURN INVALID PUSH1 0x80 PUSH1 0x40 MSTORE PUSH1 0x4 CALLDATASIZE LT PUSH2 0x2D JUMPI PUSH1 0x0 CALLDATALOAD PUSH1 0xE0 SHR DUP1 PUSH4 0x636E082B EQ PUSH2 0x39 JUMPI DUP1 PUSH4 0x74BE4806 EQ PUSH2 0x55 JUMPI PUSH2 0x34 JUMP JUMPDEST CALLDATASIZE PUSH2 0x34 JUMPI STOP JUMPDEST PUSH1 0x0 DUP1 REVERT JUMPDEST PUSH2 0x53 PUSH1 0x4 DUP1 CALLDATASIZE SUB DUP2 ADD SWAP1 PUSH2 0x4E SWAP2 SWAP1 PUSH2 0x154 JUMP JUMPDEST PUSH2 0x71 JUMP JUMPDEST STOP JUMPDEST PUSH2 0x6F PUSH1 0x4 DUP1 CALLDATASIZE SUB DUP2 ADD SWAP1 PUSH2 0x6A SWAP2 SWAP1 PUSH2 0x154 JUMP JUMPDEST PUSH2 0xC3 JUMP JUMPDEST STOP JUMPDEST DUP1 PUSH20 0xFFFFFFFFFFFFFFFFFFFFFFFFFFFFFFFFFFFFFFFF AND PUSH2 0x8FC PUSH8 0xDE0B6B3A7640000 SWAP1 DUP2 ISZERO MUL SWAP1 PUSH1 0x40 MLOAD PUSH1 0x0 PUSH1 0x40 MLOAD DUP1 DUP4 SUB DUP2 DUP6 DUP9 DUP9 CALL SWAP4 POP POP POP POP ISZERO DUP1 ISZERO PUSH2 0xBF JUMPI RETURNDATASIZE PUSH1 0x0 DUP1 RETURNDATACOPY RETURNDATASIZE PUSH1 0x0 REVERT JUMPDEST POP POP JUMP JUMPDEST PUSH1 0x0 DUP2 PUSH20 0xFFFFFFFFFFFFFFFFFFFFFFFFFFFFFFFFFFFFFFFF AND PUSH2 0x8FC PUSH8 0xDE0B6B3A7640000 SWAP1 DUP2 ISZERO MUL SWAP1 PUSH1 0x40 MLOAD PUSH1 0x0 PUSH1 0x40 MLOAD DUP1 DUP4 SUB DUP2 DUP6 DUP9 DUP9 CALL SWAP4 POP POP POP POP SWAP1 POP PUSH32 0xC46A72A145BED1FC3C2D4B0E023BD11DDB1E3204A898F4119357ECDE6D5FE99 DUP2 PUSH1 0x40 MLOAD PUSH2 0x133 SWAP2 SWAP1 PUSH2 0x18C JUMP JUMPDEST PUSH1 0x40 MLOAD DUP1 SWAP2 SUB SWAP1 LOG1 POP POP JUMP JUMPDEST PUSH1 0x0 DUP2 CALLDATALOAD SWAP1 POP PUSH2 0x14E DUP2 PUSH2 0x1E5 JUMP JUMPDEST SWAP3 SWAP2 POP POP JUMP JUMPDEST PUSH1 0x0 PUSH1 0x20 DUP3 DUP5 SUB SLT ISZERO PUSH2 0x166 JUMPI PUSH1 0x0 DUP1 REVERT JUMPDEST PUSH1 0x0 PUSH2 0x174 DUP5 DUP3 DUP6 ADD PUSH2 0x13F JUMP JUMPDEST SWAP2 POP POP SWAP3 SWAP2 POP POP JUMP JUMPDEST PUSH2 0x186 DUP2 PUSH2 0x1B9 JUMP JUMPDEST DUP3 MSTORE POP POP JUMP JUMPDEST PUSH1 0x0 PUSH1 0x20 DUP3 ADD SWAP1 POP PUSH2 0x1A1 PUSH1 0x0 DUP4 ADD DUP5 PUSH2 0x17D JUMP JUMPDEST SWAP3 SWAP2 POP POP JUMP JUMPDEST PUSH1 0x0 PUSH2 0x1B2 DUP3 PUSH2 0x1C5 JUMP JUMPDEST SWAP1 POP SWAP2 SWAP1 POP JUMP JUMPDEST PUSH1 0x0 DUP2 ISZERO ISZERO SWAP1 POP SWAP2 SWAP1 POP JUMP JUMPDEST PUSH1 0x0 PUSH20 0xFFFFFFFFFFFFFFFFFFFFFFFFFFFFFFFFFFFFFFFF DUP3 AND SWAP1 POP SWAP2 SWAP1 POP JUMP JUMPDEST PUSH2 0x1EE DUP2 PUSH2 0x1A7 JUMP JUMPDEST DUP2 EQ PUSH2 0x1F9 JUMPI PUSH1 0x0 DUP1 REVERT JUMPDEST POP JUMP INVALID LOG2 PUSH5 0x6970667358 0x22 SLT KECCAK256 0xEA 0xC5 0xBB 0xD7 0xE SELFBALANCE 0xCA RETURN MLOAD 0x2D OR 0xD1 DIFFICULTY 0xD9 0xEF 0xA8 PUSH24 0xDB462767492156825F6763627E8A8464736F6C6343000804 STOP CALLER "
				},
				"gasEstimates": {
					"creation": {
						"codeDepositCost": "112400",
						"executionCost": "135",
						"totalCost": "112535"
					},
					"external": {
						"sendViaSend(address)": "infinite",
						"sendViaTransfer(address)": "infinite"
					}
				},
				"methodIdentifiers": {
					"sendViaSend(address)": "74be4806",
					"sendViaTransfer(address)": "636e082b"
				}
			},
			"storageLayout": {
				"storage": [],
				"types": null
			},
			"userdoc": {
				"kind": "user",
				"methods": {},
				"version": 1
			}
		}
	}
}