{
	"contracts/2_variable_modifiers.sol": {
		"VariableModifiers": {
			"abi": [
				{
					"inputs": [],
					"name": "boolFalse",
					"outputs": [
						{
							"internalType": "bool",
							"name": "",
							"type": "bool"
						}
					],
					"stateMutability": "view",
					"type": "function"
				},
				{
					"inputs": [],
					"name": "boolTrue",
					"outputs": [
						{
							"internalType": "bool",
							"name": "",
							"type": "bool"
						}
					],
					"stateMutability": "view",
					"type": "function"
				},
				{
					"inputs": [],
					"name": "c",
					"outputs": [
						{
							"internalType": "uint16",
							"name": "",
							"type": "uint16"
						}
					],
					"stateMutability": "view",
					"type": "function"
				},
				{
					"inputs": [],
					"name": "changeToAda",
					"outputs": [],
					"stateMutability": "nonpayable",
					"type": "function"
				},
				{
					"inputs": [],
					"name": "changeToBNB",
					"outputs": [],
					"stateMutability": "nonpayable",
					"type": "function"
				},
				{
					"inputs": [],
					"name": "changeToBTC",
					"outputs": [],
					"stateMutability": "nonpayable",
					"type": "function"
				},
				{
					"inputs": [],
					"name": "changeToEther",
					"outputs": [],
					"stateMutability": "nonpayable",
					"type": "function"
				},
				{
					"inputs": [],
					"name": "defaultChoice",
					"outputs": [
						{
							"internalType": "enum VariableModifiers.tokens",
							"name": "",
							"type": "uint8"
						}
					],
					"stateMutability": "view",
					"type": "function"
				},
				{
					"inputs": [],
					"name": "e",
					"outputs": [
						{
							"internalType": "int32",
							"name": "",
							"type": "int32"
						}
					],
					"stateMutability": "view",
					"type": "function"
				},
				{
					"inputs": [],
					"name": "friendAddress",
					"outputs": [
						{
							"internalType": "address",
							"name": "",
							"type": "address"
						}
					],
					"stateMutability": "view",
					"type": "function"
				},
				{
					"inputs": [],
					"name": "hash_keccak256",
					"outputs": [
						{
							"internalType": "bytes32",
							"name": "",
							"type": "bytes32"
						}
					],
					"stateMutability": "view",
					"type": "function"
				},
				{
					"inputs": [],
					"name": "hash_ripemd160",
					"outputs": [
						{
							"internalType": "bytes20",
							"name": "",
							"type": "bytes20"
						}
					],
					"stateMutability": "view",
					"type": "function"
				},
				{
					"inputs": [],
					"name": "hash_sha256",
					"outputs": [
						{
							"internalType": "bytes32",
							"name": "",
							"type": "bytes32"
						}
					],
					"stateMutability": "view",
					"type": "function"
				},
				{
					"inputs": [],
					"name": "owner",
					"outputs": [
						{
							"internalType": "address",
							"name": "",
							"type": "address"
						}
					],
					"stateMutability": "view",
					"type": "function"
				},
				{
					"inputs": [],
					"name": "pl",
					"outputs": [
						{
							"internalType": "string",
							"name": "",
							"type": "string"
						}
					],
					"stateMutability": "view",
					"type": "function"
				},
				{
					"inputs": [],
					"name": "state",
					"outputs": [
						{
							"internalType": "enum VariableModifiers.tokens",
							"name": "",
							"type": "uint8"
						}
					],
					"stateMutability": "view",
					"type": "function"
				},
				{
					"inputs": [],
					"name": "surname",
					"outputs": [
						{
							"internalType": "string",
							"name": "",
							"type": "string"
						}
					],
					"stateMutability": "view",
					"type": "function"
				}
			],
			"devdoc": {
				"kind": "dev",
				"methods": {},
				"version": 1
			},
			"evm": {
				"assembly": "    /* \"contracts/2_variable_modifiers.sol\":69:1456  contract VariableModifiers {... */\n  mstore(0x40, 0x80)\n    /* \"contracts/2_variable_modifiers.sol\":167:170  255 */\n  0xff\n    /* \"contracts/2_variable_modifiers.sol\":157:170  uint8 b = 255 */\n  0x01\n  exp(0x0100, 0x00)\n  dup2\n  sload\n  dup2\n  0xff\n  mul\n  not\n  and\n  swap1\n  dup4\n  0xff\n  and\n  mul\n  or\n  swap1\n  sstore\n  pop\n    /* \"contracts/2_variable_modifiers.sol\":194:197  811 */\n  0x032b\n    /* \"contracts/2_variable_modifiers.sol\":176:197  uint16 public c = 811 */\n  0x01\n  dup1\n  0x0100\n  exp\n  dup2\n  sload\n  dup2\n  0xffff\n  mul\n  not\n  and\n  swap1\n  dup4\n  0xffff\n  and\n  mul\n  or\n  swap1\n  sstore\n  pop\n    /* \"contracts/2_variable_modifiers.sol\":250:254  -255 */\n  0xffffffffffffffffffffffffffffffffffffffffffffffffffffffffffffff01\n    /* \"contracts/2_variable_modifiers.sol\":242:254  int d = -255 */\n  0x02\n  sstore\n    /* \"contracts/2_variable_modifiers.sol\":277:281  -255 */\n  0xffffffffffffffffffffffffffffffffffffffffffffffffffffffffffffff01\n    /* \"contracts/2_variable_modifiers.sol\":260:281  int32 public e = -255 */\n  0x03\n  exp(0x0100, 0x00)\n  dup2\n  sload\n  dup2\n  0xffffffff\n  mul\n  not\n  and\n  swap1\n  dup4\n  0x03\n  signextend\n  0xffffffff\n  and\n  mul\n  or\n  swap1\n  sstore\n  pop\n    /* \"contracts/2_variable_modifiers.sol\":329:352  string name = \"Roberto\" */\n  mload(0x40)\n  dup1\n  0x40\n  add\n  0x40\n  mstore\n  dup1\n  0x07\n  dup2\n  mstore\n  0x20\n  add\n  0x526f626572746f00000000000000000000000000000000000000000000000000\n  dup2\n  mstore\n  pop\n  0x05\n  swap1\n  dup1\n  mload\n  swap1\n  0x20\n  add\n  swap1\n  tag_1\n  swap3\n  swap2\n  swap1\n  tag_2\n  jump\t// in\ntag_1:\n  pop\n    /* \"contracts/2_variable_modifiers.sol\":358:387  string public pl = \"Solidity\" */\n  mload(0x40)\n  dup1\n  0x40\n  add\n  0x40\n  mstore\n  dup1\n  0x08\n  dup2\n  mstore\n  0x20\n  add\n  0x536f6c6964697479000000000000000000000000000000000000000000000000\n  dup2\n  mstore\n  pop\n  0x06\n  swap1\n  dup1\n  mload\n  swap1\n  0x20\n  add\n  swap1\n  tag_3\n  swap3\n  swap2\n  swap1\n  tag_2\n  jump\t// in\ntag_3:\n  pop\n    /* \"contracts/2_variable_modifiers.sol\":451:455  true */\n  0x01\n    /* \"contracts/2_variable_modifiers.sol\":428:455  bool public boolTrue = true */\n  0x07\n  exp(0x0100, 0x01)\n  dup2\n  sload\n  dup2\n  0xff\n  mul\n  not\n  and\n  swap1\n  dup4\n  iszero\n  iszero\n  mul\n  or\n  swap1\n  sstore\n  pop\n    /* \"contracts/2_variable_modifiers.sol\":485:490  false */\n  0x00\n    /* \"contracts/2_variable_modifiers.sol\":461:490  bool public boolFalse = false */\n  0x07\n  exp(0x0100, 0x02)\n  dup2\n  sload\n  dup2\n  0xff\n  mul\n  not\n  and\n  swap1\n  dup4\n  iszero\n  iszero\n  mul\n  or\n  swap1\n  sstore\n  pop\n    /* \"contracts/2_variable_modifiers.sol\":692:696  name */\n  0x05\n    /* \"contracts/2_variable_modifiers.sol\":698:705  surname */\n  0x04\n    /* \"contracts/2_variable_modifiers.sol\":675:706  abi.encodePacked(name, surname) */\n  add(0x20, mload(0x40))\n  tag_4\n  swap3\n  swap2\n  swap1\n  tag_5\n  jump\t// in\ntag_4:\n  mload(0x40)\n  0x20\n  dup2\n  dup4\n  sub\n  sub\n  dup2\n  mstore\n  swap1\n  0x40\n  mstore\n    /* \"contracts/2_variable_modifiers.sol\":665:707  keccak256(abi.encodePacked(name, surname)) */\n  dup1\n  mload\n  swap1\n  0x20\n  add\n  keccak256\n    /* \"contracts/2_variable_modifiers.sol\":633:707  bytes32 public hash_keccak256 = keccak256(abi.encodePacked(name, surname)) */\n  0x0b\n  sstore\n    /* \"contracts/2_variable_modifiers.sol\":742:808  sha256(abi.encodePacked(\"Henlo world\", int(32432432), msg.sender)) */\n  0x02\n    /* \"contracts/2_variable_modifiers.sol\":785:793  32432432 */\n  0x01eee130\n    /* \"contracts/2_variable_modifiers.sol\":796:806  msg.sender */\n  caller\n    /* \"contracts/2_variable_modifiers.sol\":749:807  abi.encodePacked(\"Henlo world\", int(32432432), msg.sender) */\n  add(0x20, mload(0x40))\n  tag_6\n  swap3\n  swap2\n  swap1\n  tag_7\n  jump\t// in\ntag_6:\n  mload(0x40)\n  0x20\n  dup2\n  dup4\n  sub\n  sub\n  dup2\n  mstore\n  swap1\n  0x40\n  mstore\n    /* \"contracts/2_variable_modifiers.sol\":742:808  sha256(abi.encodePacked(\"Henlo world\", int(32432432), msg.sender)) */\n  mload(0x40)\n  tag_8\n  swap2\n  swap1\n  tag_9\n  jump\t// in\ntag_8:\n  0x20\n  mload(0x40)\n  dup1\n  dup4\n  sub\n  dup2\n  dup6\n  gas\n  staticcall\n  iszero\n  dup1\n  iszero\n  tag_11\n  jumpi\n  returndatasize\n  0x00\n  dup1\n  returndatacopy\n  revert(0x00, returndatasize)\ntag_11:\n  pop\n  pop\n  pop\n  mload(0x40)\n  returndatasize\n  not(0x1f)\n  0x1f\n  dup3\n  add\n  and\n  dup3\n  add\n  dup1\n  0x40\n  mstore\n  pop\n  dup2\n  add\n  swap1\n  tag_12\n  swap2\n  swap1\n  tag_13\n  jump\t// in\ntag_12:\n    /* \"contracts/2_variable_modifiers.sol\":713:808  bytes32 public hash_sha256 = sha256(abi.encodePacked(\"Henlo world\", int(32432432), msg.sender)) */\n  0x0c\n  sstore\n    /* \"contracts/2_variable_modifiers.sol\":846:870  ripemd160(\"Henlo world\") */\n  0x03\n  mload(0x40)\n  tag_14\n  swap1\n  tag_15\n  jump\t// in\ntag_14:\n  0x20\n  mload(0x40)\n  dup1\n  dup4\n  sub\n  dup2\n  dup6\n  gas\n  staticcall\n  iszero\n  dup1\n  iszero\n  tag_17\n  jumpi\n  returndatasize\n  0x00\n  dup1\n  returndatacopy\n  revert(0x00, returndatasize)\ntag_17:\n  pop\n  pop\n  pop\n  shl(0x60, mload(mload(0x40)))\n    /* \"contracts/2_variable_modifiers.sol\":814:870  bytes20 public hash_ripemd160 = ripemd160(\"Henlo world\") */\n  0x0d\n  exp(0x0100, 0x00)\n  dup2\n  sload\n  dup2\n  0xffffffffffffffffffffffffffffffffffffffff\n  mul\n  not\n  and\n  swap1\n  dup4\n  0x60\n  shr\n  mul\n  or\n  swap1\n  sstore\n  pop\n    /* \"contracts/2_variable_modifiers.sol\":946:988  0x5B38Da6a701c568545dCfcB03FcB875f56beddC4 */\n  0x5b38da6a701c568545dcfcb03fcb875f56beddc4\n    /* \"contracts/2_variable_modifiers.sol\":915:988  address public friendAddress = 0x5B38Da6a701c568545dCfcB03FcB875f56beddC4 */\n  0x0f\n  exp(0x0100, 0x00)\n  dup2\n  sload\n  dup2\n  0xffffffffffffffffffffffffffffffffffffffff\n  mul\n  not\n  and\n  swap1\n  dup4\n  0xffffffffffffffffffffffffffffffffffffffff\n  and\n  mul\n  or\n  swap1\n  sstore\n  pop\n    /* \"contracts/2_variable_modifiers.sol\":1017:1027  msg.sender */\n  caller\n    /* \"contracts/2_variable_modifiers.sol\":994:1027  address public owner = msg.sender */\n  0x10\n  exp(0x0100, 0x00)\n  dup2\n  sload\n  dup2\n  0xffffffffffffffffffffffffffffffffffffffff\n  mul\n  not\n  and\n  swap1\n  dup4\n  0xffffffffffffffffffffffffffffffffffffffff\n  and\n  mul\n  or\n  swap1\n  sstore\n  pop\n    /* \"contracts/2_variable_modifiers.sol\":69:1456  contract VariableModifiers {... */\n  callvalue\n  dup1\n  iszero\n  tag_18\n  jumpi\n  0x00\n  dup1\n  revert\ntag_18:\n  pop\n  jump(tag_19)\ntag_2:\n  dup3\n  dup1\n  sload\n  tag_20\n  swap1\n  tag_21\n  jump\t// in\ntag_20:\n  swap1\n  0x00\n  mstore\n  keccak256(0x00, 0x20)\n  swap1\n  0x1f\n  add\n  0x20\n  swap1\n  div\n  dup2\n  add\n  swap3\n  dup3\n  tag_23\n  jumpi\n  0x00\n  dup6\n  sstore\n  jump(tag_22)\ntag_23:\n  dup3\n  0x1f\n  lt\n  tag_24\n  jumpi\n  dup1\n  mload\n  not(0xff)\n  and\n  dup4\n  dup1\n  add\n  or\n  dup6\n  sstore\n  jump(tag_22)\ntag_24:\n  dup3\n  dup1\n  add\n  0x01\n  add\n  dup6\n  sstore\n  dup3\n  iszero\n  tag_22\n  jumpi\n  swap2\n  dup3\n  add\ntag_25:\n  dup3\n  dup2\n  gt\n  iszero\n  tag_26\n  jumpi\n  dup3\n  mload\n  dup3\n  sstore\n  swap2\n  0x20\n  add\n  swap2\n  swap1\n  0x01\n  add\n  swap1\n  jump(tag_25)\ntag_26:\ntag_22:\n  pop\n  swap1\n  pop\n  tag_27\n  swap2\n  swap1\n  tag_28\n  jump\t// in\ntag_27:\n  pop\n  swap1\n  jump\t// out\ntag_28:\ntag_29:\n  dup1\n  dup3\n  gt\n  iszero\n  tag_30\n  jumpi\n  0x00\n  dup2\n  0x00\n  swap1\n  sstore\n  pop\n  0x01\n  add\n  jump(tag_29)\ntag_30:\n  pop\n  swap1\n  jump\t// out\n    /* \"#utility.yul\":7:150   */\ntag_32:\n    /* \"#utility.yul\":64:69   */\n  0x00\n    /* \"#utility.yul\":95:101   */\n  dup2\n    /* \"#utility.yul\":89:102   */\n  mload\n    /* \"#utility.yul\":80:102   */\n  swap1\n  pop\n    /* \"#utility.yul\":111:144   */\n  tag_34\n    /* \"#utility.yul\":138:143   */\n  dup2\n    /* \"#utility.yul\":111:144   */\n  tag_35\n  jump\t// in\ntag_34:\n    /* \"#utility.yul\":70:150   */\n  swap3\n  swap2\n  pop\n  pop\n  jump\t// out\n    /* \"#utility.yul\":156:507   */\ntag_13:\n    /* \"#utility.yul\":226:232   */\n  0x00\n    /* \"#utility.yul\":275:277   */\n  0x20\n    /* \"#utility.yul\":263:272   */\n  dup3\n    /* \"#utility.yul\":254:261   */\n  dup5\n    /* \"#utility.yul\":250:273   */\n  sub\n    /* \"#utility.yul\":246:278   */\n  slt\n    /* \"#utility.yul\":243:245   */\n  iszero\n  tag_37\n  jumpi\n    /* \"#utility.yul\":281:360   */\n  tag_38\n  tag_39\n  jump\t// in\ntag_38:\n    /* \"#utility.yul\":243:245   */\ntag_37:\n    /* \"#utility.yul\":401:402   */\n  0x00\n    /* \"#utility.yul\":426:490   */\n  tag_40\n    /* \"#utility.yul\":482:489   */\n  dup5\n    /* \"#utility.yul\":473:479   */\n  dup3\n    /* \"#utility.yul\":462:471   */\n  dup6\n    /* \"#utility.yul\":458:480   */\n  add\n    /* \"#utility.yul\":426:490   */\n  tag_32\n  jump\t// in\ntag_40:\n    /* \"#utility.yul\":416:490   */\n  swap2\n  pop\n    /* \"#utility.yul\":372:500   */\n  pop\n    /* \"#utility.yul\":233:507   */\n  swap3\n  swap2\n  pop\n  pop\n  jump\t// out\n    /* \"#utility.yul\":513:670   */\ntag_41:\n    /* \"#utility.yul\":618:663   */\n  tag_43\n    /* \"#utility.yul\":638:662   */\n  tag_44\n    /* \"#utility.yul\":656:661   */\n  dup3\n    /* \"#utility.yul\":638:662   */\n  tag_45\n  jump\t// in\ntag_44:\n    /* \"#utility.yul\":618:663   */\n  tag_46\n  jump\t// in\ntag_43:\n    /* \"#utility.yul\":613:616   */\n  dup3\n    /* \"#utility.yul\":606:664   */\n  mstore\n    /* \"#utility.yul\":596:670   */\n  pop\n  pop\n  jump\t// out\n    /* \"#utility.yul\":676:1049   */\ntag_47:\n    /* \"#utility.yul\":780:783   */\n  0x00\n    /* \"#utility.yul\":808:846   */\n  tag_49\n    /* \"#utility.yul\":840:845   */\n  dup3\n    /* \"#utility.yul\":808:846   */\n  tag_50\n  jump\t// in\ntag_49:\n    /* \"#utility.yul\":862:950   */\n  tag_51\n    /* \"#utility.yul\":943:949   */\n  dup2\n    /* \"#utility.yul\":938:941   */\n  dup6\n    /* \"#utility.yul\":862:950   */\n  tag_52\n  jump\t// in\ntag_51:\n    /* \"#utility.yul\":855:950   */\n  swap4\n  pop\n    /* \"#utility.yul\":959:1011   */\n  tag_53\n    /* \"#utility.yul\":1004:1010   */\n  dup2\n    /* \"#utility.yul\":999:1002   */\n  dup6\n    /* \"#utility.yul\":992:996   */\n  0x20\n    /* \"#utility.yul\":985:990   */\n  dup7\n    /* \"#utility.yul\":981:997   */\n  add\n    /* \"#utility.yul\":959:1011   */\n  tag_54\n  jump\t// in\ntag_53:\n    /* \"#utility.yul\":1036:1042   */\n  dup1\n    /* \"#utility.yul\":1031:1034   */\n  dup5\n    /* \"#utility.yul\":1027:1043   */\n  add\n    /* \"#utility.yul\":1020:1043   */\n  swap2\n  pop\n    /* \"#utility.yul\":784:1049   */\n  pop\n  swap3\n  swap2\n  pop\n  pop\n  jump\t// out\n    /* \"#utility.yul\":1055:1208   */\ntag_55:\n    /* \"#utility.yul\":1158:1201   */\n  tag_57\n    /* \"#utility.yul\":1177:1200   */\n  tag_58\n    /* \"#utility.yul\":1194:1199   */\n  dup3\n    /* \"#utility.yul\":1177:1200   */\n  tag_59\n  jump\t// in\ntag_58:\n    /* \"#utility.yul\":1158:1201   */\n  tag_60\n  jump\t// in\ntag_57:\n    /* \"#utility.yul\":1153:1156   */\n  dup3\n    /* \"#utility.yul\":1146:1202   */\n  mstore\n    /* \"#utility.yul\":1136:1208   */\n  pop\n  pop\n  jump\t// out\n    /* \"#utility.yul\":1238:2083   */\ntag_61:\n    /* \"#utility.yul\":1341:1344   */\n  0x00\n    /* \"#utility.yul\":1378:1383   */\n  dup2\n    /* \"#utility.yul\":1372:1384   */\n  sload\n    /* \"#utility.yul\":1407:1443   */\n  tag_63\n    /* \"#utility.yul\":1433:1442   */\n  dup2\n    /* \"#utility.yul\":1407:1443   */\n  tag_21\n  jump\t// in\ntag_63:\n    /* \"#utility.yul\":1459:1548   */\n  tag_64\n    /* \"#utility.yul\":1541:1547   */\n  dup2\n    /* \"#utility.yul\":1536:1539   */\n  dup7\n    /* \"#utility.yul\":1459:1548   */\n  tag_65\n  jump\t// in\ntag_64:\n    /* \"#utility.yul\":1452:1548   */\n  swap5\n  pop\n    /* \"#utility.yul\":1579:1580   */\n  0x01\n    /* \"#utility.yul\":1568:1577   */\n  dup3\n    /* \"#utility.yul\":1564:1581   */\n  and\n    /* \"#utility.yul\":1595:1596   */\n  0x00\n    /* \"#utility.yul\":1590:1727   */\n  dup2\n  eq\n  tag_67\n  jumpi\n    /* \"#utility.yul\":1741:1742   */\n  0x01\n    /* \"#utility.yul\":1736:2077   */\n  dup2\n  eq\n  tag_68\n  jumpi\n    /* \"#utility.yul\":1557:2077   */\n  jump(tag_66)\n    /* \"#utility.yul\":1590:1727   */\ntag_67:\n    /* \"#utility.yul\":1674:1678   */\n  0xff\n    /* \"#utility.yul\":1670:1679   */\n  not\n    /* \"#utility.yul\":1659:1668   */\n  dup4\n    /* \"#utility.yul\":1655:1680   */\n  and\n    /* \"#utility.yul\":1650:1653   */\n  dup7\n    /* \"#utility.yul\":1643:1681   */\n  mstore\n    /* \"#utility.yul\":1710:1716   */\n  dup2\n    /* \"#utility.yul\":1705:1708   */\n  dup7\n    /* \"#utility.yul\":1701:1717   */\n  add\n    /* \"#utility.yul\":1694:1717   */\n  swap4\n  pop\n    /* \"#utility.yul\":1590:1727   */\n  jump(tag_66)\n    /* \"#utility.yul\":1736:2077   */\ntag_68:\n    /* \"#utility.yul\":1803:1841   */\n  tag_69\n    /* \"#utility.yul\":1835:1840   */\n  dup6\n    /* \"#utility.yul\":1803:1841   */\n  tag_70\n  jump\t// in\ntag_69:\n    /* \"#utility.yul\":1863:1864   */\n  0x00\n    /* \"#utility.yul\":1877:2031   */\ntag_71:\n    /* \"#utility.yul\":1891:1897   */\n  dup4\n    /* \"#utility.yul\":1888:1889   */\n  dup2\n    /* \"#utility.yul\":1885:1898   */\n  lt\n    /* \"#utility.yul\":1877:2031   */\n  iszero\n  tag_73\n  jumpi\n    /* \"#utility.yul\":1965:1972   */\n  dup2\n    /* \"#utility.yul\":1959:1973   */\n  sload\n    /* \"#utility.yul\":1955:1956   */\n  dup2\n    /* \"#utility.yul\":1950:1953   */\n  dup10\n    /* \"#utility.yul\":1946:1957   */\n  add\n    /* \"#utility.yul\":1939:1974   */\n  mstore\n    /* \"#utility.yul\":2015:2016   */\n  0x01\n    /* \"#utility.yul\":2006:2013   */\n  dup3\n    /* \"#utility.yul\":2002:2017   */\n  add\n    /* \"#utility.yul\":1991:2017   */\n  swap2\n  pop\n    /* \"#utility.yul\":1913:1917   */\n  0x20\n    /* \"#utility.yul\":1910:1911   */\n  dup2\n    /* \"#utility.yul\":1906:1918   */\n  add\n    /* \"#utility.yul\":1901:1918   */\n  swap1\n  pop\n    /* \"#utility.yul\":1877:2031   */\n  jump(tag_71)\ntag_73:\n    /* \"#utility.yul\":2060:2066   */\n  dup4\n    /* \"#utility.yul\":2055:2058   */\n  dup9\n    /* \"#utility.yul\":2051:2067   */\n  add\n    /* \"#utility.yul\":2044:2067   */\n  swap6\n  pop\n    /* \"#utility.yul\":1743:2077   */\n  pop\n  pop\n    /* \"#utility.yul\":1557:2077   */\ntag_66:\n  pop\n    /* \"#utility.yul\":1345:2083   */\n  pop\n  pop\n  swap3\n  swap2\n  pop\n  pop\n  jump\t// out\n    /* \"#utility.yul\":2089:2489   */\ntag_74:\n    /* \"#utility.yul\":2248:2251   */\n  0x00\n    /* \"#utility.yul\":2269:2353   */\n  tag_76\n    /* \"#utility.yul\":2350:2352   */\n  0x0b\n    /* \"#utility.yul\":2345:2348   */\n  dup4\n    /* \"#utility.yul\":2269:2353   */\n  tag_52\n  jump\t// in\ntag_76:\n    /* \"#utility.yul\":2262:2353   */\n  swap2\n  pop\n    /* \"#utility.yul\":2362:2455   */\n  tag_77\n    /* \"#utility.yul\":2451:2454   */\n  dup3\n    /* \"#utility.yul\":2362:2455   */\n  tag_78\n  jump\t// in\ntag_77:\n    /* \"#utility.yul\":2480:2482   */\n  0x0b\n    /* \"#utility.yul\":2475:2478   */\n  dup3\n    /* \"#utility.yul\":2471:2483   */\n  add\n    /* \"#utility.yul\":2464:2483   */\n  swap1\n  pop\n    /* \"#utility.yul\":2252:2489   */\n  swap2\n  swap1\n  pop\n  jump\t// out\n    /* \"#utility.yul\":2495:2897   */\ntag_79:\n    /* \"#utility.yul\":2655:2658   */\n  0x00\n    /* \"#utility.yul\":2676:2761   */\n  tag_81\n    /* \"#utility.yul\":2758:2760   */\n  0x0b\n    /* \"#utility.yul\":2753:2756   */\n  dup4\n    /* \"#utility.yul\":2676:2761   */\n  tag_65\n  jump\t// in\ntag_81:\n    /* \"#utility.yul\":2669:2761   */\n  swap2\n  pop\n    /* \"#utility.yul\":2770:2863   */\n  tag_82\n    /* \"#utility.yul\":2859:2862   */\n  dup3\n    /* \"#utility.yul\":2770:2863   */\n  tag_78\n  jump\t// in\ntag_82:\n    /* \"#utility.yul\":2888:2890   */\n  0x0b\n    /* \"#utility.yul\":2883:2886   */\n  dup3\n    /* \"#utility.yul\":2879:2891   */\n  add\n    /* \"#utility.yul\":2872:2891   */\n  swap1\n  pop\n    /* \"#utility.yul\":2659:2897   */\n  swap2\n  swap1\n  pop\n  jump\t// out\n    /* \"#utility.yul\":2903:3174   */\ntag_9:\n    /* \"#utility.yul\":3033:3036   */\n  0x00\n    /* \"#utility.yul\":3055:3148   */\n  tag_84\n    /* \"#utility.yul\":3144:3147   */\n  dup3\n    /* \"#utility.yul\":3135:3141   */\n  dup5\n    /* \"#utility.yul\":3055:3148   */\n  tag_47\n  jump\t// in\ntag_84:\n    /* \"#utility.yul\":3048:3148   */\n  swap2\n  pop\n    /* \"#utility.yul\":3165:3168   */\n  dup2\n    /* \"#utility.yul\":3158:3168   */\n  swap1\n  pop\n    /* \"#utility.yul\":3037:3174   */\n  swap3\n  swap2\n  pop\n  pop\n  jump\t// out\n    /* \"#utility.yul\":3180:3603   */\ntag_5:\n    /* \"#utility.yul\":3354:3357   */\n  0x00\n    /* \"#utility.yul\":3376:3468   */\n  tag_86\n    /* \"#utility.yul\":3464:3467   */\n  dup3\n    /* \"#utility.yul\":3455:3461   */\n  dup6\n    /* \"#utility.yul\":3376:3468   */\n  tag_61\n  jump\t// in\ntag_86:\n    /* \"#utility.yul\":3369:3468   */\n  swap2\n  pop\n    /* \"#utility.yul\":3485:3577   */\n  tag_87\n    /* \"#utility.yul\":3573:3576   */\n  dup3\n    /* \"#utility.yul\":3564:3570   */\n  dup5\n    /* \"#utility.yul\":3485:3577   */\n  tag_61\n  jump\t// in\ntag_87:\n    /* \"#utility.yul\":3478:3577   */\n  swap2\n  pop\n    /* \"#utility.yul\":3594:3597   */\n  dup2\n    /* \"#utility.yul\":3587:3597   */\n  swap1\n  pop\n    /* \"#utility.yul\":3358:3603   */\n  swap4\n  swap3\n  pop\n  pop\n  pop\n  jump\t// out\n    /* \"#utility.yul\":3609:3988   */\ntag_15:\n    /* \"#utility.yul\":3793:3796   */\n  0x00\n    /* \"#utility.yul\":3815:3962   */\n  tag_89\n    /* \"#utility.yul\":3958:3961   */\n  dup3\n    /* \"#utility.yul\":3815:3962   */\n  tag_74\n  jump\t// in\ntag_89:\n    /* \"#utility.yul\":3808:3962   */\n  swap2\n  pop\n    /* \"#utility.yul\":3979:3982   */\n  dup2\n    /* \"#utility.yul\":3972:3982   */\n  swap1\n  pop\n    /* \"#utility.yul\":3797:3988   */\n  swap2\n  swap1\n  pop\n  jump\t// out\n    /* \"#utility.yul\":3994:4653   */\ntag_7:\n    /* \"#utility.yul\":4233:4236   */\n  0x00\n    /* \"#utility.yul\":4255:4403   */\n  tag_91\n    /* \"#utility.yul\":4399:4402   */\n  dup3\n    /* \"#utility.yul\":4255:4403   */\n  tag_79\n  jump\t// in\ntag_91:\n    /* \"#utility.yul\":4248:4403   */\n  swap2\n  pop\n    /* \"#utility.yul\":4413:4486   */\n  tag_92\n    /* \"#utility.yul\":4482:4485   */\n  dup3\n    /* \"#utility.yul\":4473:4479   */\n  dup6\n    /* \"#utility.yul\":4413:4486   */\n  tag_55\n  jump\t// in\ntag_92:\n    /* \"#utility.yul\":4511:4513   */\n  0x20\n    /* \"#utility.yul\":4506:4509   */\n  dup3\n    /* \"#utility.yul\":4502:4514   */\n  add\n    /* \"#utility.yul\":4495:4514   */\n  swap2\n  pop\n    /* \"#utility.yul\":4524:4599   */\n  tag_93\n    /* \"#utility.yul\":4595:4598   */\n  dup3\n    /* \"#utility.yul\":4586:4592   */\n  dup5\n    /* \"#utility.yul\":4524:4599   */\n  tag_41\n  jump\t// in\ntag_93:\n    /* \"#utility.yul\":4624:4626   */\n  0x14\n    /* \"#utility.yul\":4619:4622   */\n  dup3\n    /* \"#utility.yul\":4615:4627   */\n  add\n    /* \"#utility.yul\":4608:4627   */\n  swap2\n  pop\n    /* \"#utility.yul\":4644:4647   */\n  dup2\n    /* \"#utility.yul\":4637:4647   */\n  swap1\n  pop\n    /* \"#utility.yul\":4237:4653   */\n  swap4\n  swap3\n  pop\n  pop\n  pop\n  jump\t// out\n    /* \"#utility.yul\":4740:4881   */\ntag_70:\n    /* \"#utility.yul\":4789:4793   */\n  0x00\n    /* \"#utility.yul\":4812:4815   */\n  dup2\n    /* \"#utility.yul\":4804:4815   */\n  swap1\n  pop\n    /* \"#utility.yul\":4835:4838   */\n  dup2\n    /* \"#utility.yul\":4832:4833   */\n  0x00\n    /* \"#utility.yul\":4825:4839   */\n  mstore\n    /* \"#utility.yul\":4869:4873   */\n  0x20\n    /* \"#utility.yul\":4866:4867   */\n  0x00\n    /* \"#utility.yul\":4856:4874   */\n  keccak256\n    /* \"#utility.yul\":4848:4874   */\n  swap1\n  pop\n    /* \"#utility.yul\":4794:4881   */\n  swap2\n  swap1\n  pop\n  jump\t// out\n    /* \"#utility.yul\":4887:4985   */\ntag_50:\n    /* \"#utility.yul\":4938:4944   */\n  0x00\n    /* \"#utility.yul\":4972:4977   */\n  dup2\n    /* \"#utility.yul\":4966:4978   */\n  mload\n    /* \"#utility.yul\":4956:4978   */\n  swap1\n  pop\n    /* \"#utility.yul\":4945:4985   */\n  swap2\n  swap1\n  pop\n  jump\t// out\n    /* \"#utility.yul\":4991:5138   */\ntag_52:\n    /* \"#utility.yul\":5092:5103   */\n  0x00\n    /* \"#utility.yul\":5129:5132   */\n  dup2\n    /* \"#utility.yul\":5114:5132   */\n  swap1\n  pop\n    /* \"#utility.yul\":5104:5138   */\n  swap3\n  swap2\n  pop\n  pop\n  jump\t// out\n    /* \"#utility.yul\":5144:5292   */\ntag_65:\n    /* \"#utility.yul\":5246:5257   */\n  0x00\n    /* \"#utility.yul\":5283:5286   */\n  dup2\n    /* \"#utility.yul\":5268:5286   */\n  swap1\n  pop\n    /* \"#utility.yul\":5258:5292   */\n  swap3\n  swap2\n  pop\n  pop\n  jump\t// out\n    /* \"#utility.yul\":5298:5394   */\ntag_45:\n    /* \"#utility.yul\":5335:5342   */\n  0x00\n    /* \"#utility.yul\":5364:5388   */\n  tag_101\n    /* \"#utility.yul\":5382:5387   */\n  dup3\n    /* \"#utility.yul\":5364:5388   */\n  tag_102\n  jump\t// in\ntag_101:\n    /* \"#utility.yul\":5353:5388   */\n  swap1\n  pop\n    /* \"#utility.yul\":5343:5394   */\n  swap2\n  swap1\n  pop\n  jump\t// out\n    /* \"#utility.yul\":5400:5477   */\ntag_103:\n    /* \"#utility.yul\":5437:5444   */\n  0x00\n    /* \"#utility.yul\":5466:5471   */\n  dup2\n    /* \"#utility.yul\":5455:5471   */\n  swap1\n  pop\n    /* \"#utility.yul\":5445:5477   */\n  swap2\n  swap1\n  pop\n  jump\t// out\n    /* \"#utility.yul\":5483:5559   */\ntag_59:\n    /* \"#utility.yul\":5519:5526   */\n  0x00\n    /* \"#utility.yul\":5548:5553   */\n  dup2\n    /* \"#utility.yul\":5537:5553   */\n  swap1\n  pop\n    /* \"#utility.yul\":5527:5559   */\n  swap2\n  swap1\n  pop\n  jump\t// out\n    /* \"#utility.yul\":5565:5691   */\ntag_102:\n    /* \"#utility.yul\":5602:5609   */\n  0x00\n    /* \"#utility.yul\":5642:5684   */\n  0xffffffffffffffffffffffffffffffffffffffff\n    /* \"#utility.yul\":5635:5640   */\n  dup3\n    /* \"#utility.yul\":5631:5685   */\n  and\n    /* \"#utility.yul\":5620:5685   */\n  swap1\n  pop\n    /* \"#utility.yul\":5610:5691   */\n  swap2\n  swap1\n  pop\n  jump\t// out\n    /* \"#utility.yul\":5697:6004   */\ntag_54:\n    /* \"#utility.yul\":5765:5766   */\n  0x00\n    /* \"#utility.yul\":5775:5888   */\ntag_108:\n    /* \"#utility.yul\":5789:5795   */\n  dup4\n    /* \"#utility.yul\":5786:5787   */\n  dup2\n    /* \"#utility.yul\":5783:5796   */\n  lt\n    /* \"#utility.yul\":5775:5888   */\n  iszero\n  tag_110\n  jumpi\n    /* \"#utility.yul\":5874:5875   */\n  dup1\n    /* \"#utility.yul\":5869:5872   */\n  dup3\n    /* \"#utility.yul\":5865:5876   */\n  add\n    /* \"#utility.yul\":5859:5877   */\n  mload\n    /* \"#utility.yul\":5855:5856   */\n  dup2\n    /* \"#utility.yul\":5850:5853   */\n  dup5\n    /* \"#utility.yul\":5846:5857   */\n  add\n    /* \"#utility.yul\":5839:5878   */\n  mstore\n    /* \"#utility.yul\":5811:5813   */\n  0x20\n    /* \"#utility.yul\":5808:5809   */\n  dup2\n    /* \"#utility.yul\":5804:5814   */\n  add\n    /* \"#utility.yul\":5799:5814   */\n  swap1\n  pop\n    /* \"#utility.yul\":5775:5888   */\n  jump(tag_108)\ntag_110:\n    /* \"#utility.yul\":5906:5912   */\n  dup4\n    /* \"#utility.yul\":5903:5904   */\n  dup2\n    /* \"#utility.yul\":5900:5913   */\n  gt\n    /* \"#utility.yul\":5897:5899   */\n  iszero\n  tag_111\n  jumpi\n    /* \"#utility.yul\":5986:5987   */\n  0x00\n    /* \"#utility.yul\":5977:5983   */\n  dup5\n    /* \"#utility.yul\":5972:5975   */\n  dup5\n    /* \"#utility.yul\":5968:5984   */\n  add\n    /* \"#utility.yul\":5961:5988   */\n  mstore\n    /* \"#utility.yul\":5897:5899   */\ntag_111:\n    /* \"#utility.yul\":5746:6004   */\n  pop\n  pop\n  pop\n  pop\n  jump\t// out\n    /* \"#utility.yul\":6010:6330   */\ntag_21:\n    /* \"#utility.yul\":6054:6060   */\n  0x00\n    /* \"#utility.yul\":6091:6092   */\n  0x02\n    /* \"#utility.yul\":6085:6089   */\n  dup3\n    /* \"#utility.yul\":6081:6093   */\n  div\n    /* \"#utility.yul\":6071:6093   */\n  swap1\n  pop\n    /* \"#utility.yul\":6138:6139   */\n  0x01\n    /* \"#utility.yul\":6132:6136   */\n  dup3\n    /* \"#utility.yul\":6128:6140   */\n  and\n    /* \"#utility.yul\":6159:6177   */\n  dup1\n    /* \"#utility.yul\":6149:6151   */\n  tag_113\n  jumpi\n    /* \"#utility.yul\":6215:6219   */\n  0x7f\n    /* \"#utility.yul\":6207:6213   */\n  dup3\n    /* \"#utility.yul\":6203:6220   */\n  and\n    /* \"#utility.yul\":6193:6220   */\n  swap2\n  pop\n    /* \"#utility.yul\":6149:6151   */\ntag_113:\n    /* \"#utility.yul\":6277:6279   */\n  0x20\n    /* \"#utility.yul\":6269:6275   */\n  dup3\n    /* \"#utility.yul\":6266:6280   */\n  lt\n    /* \"#utility.yul\":6246:6264   */\n  dup2\n    /* \"#utility.yul\":6243:6281   */\n  eq\n    /* \"#utility.yul\":6240:6242   */\n  iszero\n  tag_114\n  jumpi\n    /* \"#utility.yul\":6296:6314   */\n  tag_115\n  tag_116\n  jump\t// in\ntag_115:\n    /* \"#utility.yul\":6240:6242   */\ntag_114:\n    /* \"#utility.yul\":6061:6330   */\n  pop\n  swap2\n  swap1\n  pop\n  jump\t// out\n    /* \"#utility.yul\":6336:6436   */\ntag_46:\n    /* \"#utility.yul\":6375:6382   */\n  0x00\n    /* \"#utility.yul\":6404:6430   */\n  tag_118\n    /* \"#utility.yul\":6424:6429   */\n  dup3\n    /* \"#utility.yul\":6404:6430   */\n  tag_119\n  jump\t// in\ntag_118:\n    /* \"#utility.yul\":6393:6430   */\n  swap1\n  pop\n    /* \"#utility.yul\":6383:6436   */\n  swap2\n  swap1\n  pop\n  jump\t// out\n    /* \"#utility.yul\":6442:6520   */\ntag_60:\n    /* \"#utility.yul\":6480:6487   */\n  0x00\n    /* \"#utility.yul\":6509:6514   */\n  dup2\n    /* \"#utility.yul\":6498:6514   */\n  swap1\n  pop\n    /* \"#utility.yul\":6488:6520   */\n  swap2\n  swap1\n  pop\n  jump\t// out\n    /* \"#utility.yul\":6526:6620   */\ntag_119:\n    /* \"#utility.yul\":6565:6572   */\n  0x00\n    /* \"#utility.yul\":6594:6614   */\n  tag_122\n    /* \"#utility.yul\":6608:6613   */\n  dup3\n    /* \"#utility.yul\":6594:6614   */\n  tag_123\n  jump\t// in\ntag_122:\n    /* \"#utility.yul\":6583:6614   */\n  swap1\n  pop\n    /* \"#utility.yul\":6573:6620   */\n  swap2\n  swap1\n  pop\n  jump\t// out\n    /* \"#utility.yul\":6626:6806   */\ntag_116:\n    /* \"#utility.yul\":6674:6751   */\n  0x4e487b7100000000000000000000000000000000000000000000000000000000\n    /* \"#utility.yul\":6671:6672   */\n  0x00\n    /* \"#utility.yul\":6664:6752   */\n  mstore\n    /* \"#utility.yul\":6771:6775   */\n  0x22\n    /* \"#utility.yul\":6768:6769   */\n  0x04\n    /* \"#utility.yul\":6761:6776   */\n  mstore\n    /* \"#utility.yul\":6795:6799   */\n  0x24\n    /* \"#utility.yul\":6792:6793   */\n  0x00\n    /* \"#utility.yul\":6785:6800   */\n  revert\n    /* \"#utility.yul\":6935:7052   */\ntag_39:\n    /* \"#utility.yul\":7044:7045   */\n  0x00\n    /* \"#utility.yul\":7041:7042   */\n  dup1\n    /* \"#utility.yul\":7034:7046   */\n  revert\n    /* \"#utility.yul\":7058:7152   */\ntag_123:\n    /* \"#utility.yul\":7091:7099   */\n  0x00\n    /* \"#utility.yul\":7139:7144   */\n  dup2\n    /* \"#utility.yul\":7135:7137   */\n  0x60\n    /* \"#utility.yul\":7131:7145   */\n  shl\n    /* \"#utility.yul\":7110:7145   */\n  swap1\n  pop\n    /* \"#utility.yul\":7100:7152   */\n  swap2\n  swap1\n  pop\n  jump\t// out\n    /* \"#utility.yul\":7158:7319   */\ntag_78:\n    /* \"#utility.yul\":7298:7311   */\n  0x48656e6c6f20776f726c64000000000000000000000000000000000000000000\n    /* \"#utility.yul\":7294:7295   */\n  0x00\n    /* \"#utility.yul\":7286:7292   */\n  dup3\n    /* \"#utility.yul\":7282:7296   */\n  add\n    /* \"#utility.yul\":7275:7312   */\n  mstore\n    /* \"#utility.yul\":7264:7319   */\n  pop\n  jump\t// out\n    /* \"#utility.yul\":7325:7447   */\ntag_35:\n    /* \"#utility.yul\":7398:7422   */\n  tag_131\n    /* \"#utility.yul\":7416:7421   */\n  dup2\n    /* \"#utility.yul\":7398:7422   */\n  tag_103\n  jump\t// in\ntag_131:\n    /* \"#utility.yul\":7391:7396   */\n  dup2\n    /* \"#utility.yul\":7388:7423   */\n  eq\n    /* \"#utility.yul\":7378:7380   */\n  tag_132\n  jumpi\n    /* \"#utility.yul\":7437:7438   */\n  0x00\n    /* \"#utility.yul\":7434:7435   */\n  dup1\n    /* \"#utility.yul\":7427:7439   */\n  revert\n    /* \"#utility.yul\":7378:7380   */\ntag_132:\n    /* \"#utility.yul\":7368:7447   */\n  pop\n  jump\t// out\n    /* \"contracts/2_variable_modifiers.sol\":69:1456  contract VariableModifiers {... */\ntag_19:\n  dataSize(sub_0)\n  dup1\n  dataOffset(sub_0)\n  0x00\n  codecopy\n  0x00\n  return\nstop\n\nsub_0: assembly {\n        /* \"contracts/2_variable_modifiers.sol\":69:1456  contract VariableModifiers {... */\n      mstore(0x40, 0x80)\n      callvalue\n      dup1\n      iszero\n      tag_1\n      jumpi\n      0x00\n      dup1\n      revert\n    tag_1:\n      pop\n      jumpi(tag_2, lt(calldatasize, 0x04))\n      shr(0xe0, calldataload(0x00))\n      dup1\n      0x91d101af\n      gt\n      tag_20\n      jumpi\n      dup1\n      0xc3da42b8\n      gt\n      tag_21\n      jumpi\n      dup1\n      0xc3da42b8\n      eq\n      tag_15\n      jumpi\n      dup1\n      0xc4370ebf\n      eq\n      tag_16\n      jumpi\n      dup1\n      0xcd99a846\n      eq\n      tag_17\n      jumpi\n      dup1\n      0xff4479d8\n      eq\n      tag_18\n      jumpi\n      dup1\n      0xffae15ba\n      eq\n      tag_19\n      jumpi\n      jump(tag_2)\n    tag_21:\n      dup1\n      0x91d101af\n      eq\n      tag_11\n      jumpi\n      dup1\n      0xaf0c2ea7\n      eq\n      tag_12\n      jumpi\n      dup1\n      0xb38fee92\n      eq\n      tag_13\n      jumpi\n      dup1\n      0xc19d93fb\n      eq\n      tag_14\n      jumpi\n      jump(tag_2)\n    tag_20:\n      dup1\n      0x62b57af4\n      gt\n      tag_22\n      jumpi\n      dup1\n      0x62b57af4\n      eq\n      tag_7\n      jumpi\n      dup1\n      0x66e41d20\n      eq\n      tag_8\n      jumpi\n      dup1\n      0x8da5cb5b\n      eq\n      tag_9\n      jumpi\n      dup1\n      0x90e1437c\n      eq\n      tag_10\n      jumpi\n      jump(tag_2)\n    tag_22:\n      dup1\n      0x0b9239fb\n      eq\n      tag_3\n      jumpi\n      dup1\n      0x222a90ac\n      eq\n      tag_4\n      jumpi\n      dup1\n      0x42fb0109\n      eq\n      tag_5\n      jumpi\n      dup1\n      0x5c480680\n      eq\n      tag_6\n      jumpi\n    tag_2:\n      0x00\n      dup1\n      revert\n        /* \"contracts/2_variable_modifiers.sol\":915:988  address public friendAddress = 0x5B38Da6a701c568545dCfcB03FcB875f56beddC4 */\n    tag_3:\n      tag_23\n      tag_24\n      jump\t// in\n    tag_23:\n      mload(0x40)\n      tag_25\n      swap2\n      swap1\n      tag_26\n      jump\t// in\n    tag_25:\n      mload(0x40)\n      dup1\n      swap2\n      sub\n      swap1\n      return\n        /* \"contracts/2_variable_modifiers.sol\":461:490  bool public boolFalse = false */\n    tag_4:\n      tag_27\n      tag_28\n      jump\t// in\n    tag_27:\n      mload(0x40)\n      tag_29\n      swap2\n      swap1\n      tag_30\n      jump\t// in\n    tag_29:\n      mload(0x40)\n      dup1\n      swap2\n      sub\n      swap1\n      return\n        /* \"contracts/2_variable_modifiers.sol\":428:455  bool public boolTrue = true */\n    tag_5:\n      tag_31\n      tag_32\n      jump\t// in\n    tag_31:\n      mload(0x40)\n      tag_33\n      swap2\n      swap1\n      tag_30\n      jump\t// in\n    tag_33:\n      mload(0x40)\n      dup1\n      swap2\n      sub\n      swap1\n      return\n        /* \"contracts/2_variable_modifiers.sol\":633:707  bytes32 public hash_keccak256 = keccak256(abi.encodePacked(name, surname)) */\n    tag_6:\n      tag_34\n      tag_35\n      jump\t// in\n    tag_34:\n      mload(0x40)\n      tag_36\n      swap2\n      swap1\n      tag_37\n      jump\t// in\n    tag_36:\n      mload(0x40)\n      dup1\n      swap2\n      sub\n      swap1\n      return\n        /* \"contracts/2_variable_modifiers.sol\":1247:1312  function changeToAda() public {... */\n    tag_7:\n      tag_38\n      tag_39\n      jump\t// in\n    tag_38:\n      stop\n        /* \"contracts/2_variable_modifiers.sol\":713:808  bytes32 public hash_sha256 = sha256(abi.encodePacked(\"Henlo world\", int(32432432), msg.sender)) */\n    tag_8:\n      tag_40\n      tag_41\n      jump\t// in\n    tag_40:\n      mload(0x40)\n      tag_42\n      swap2\n      swap1\n      tag_37\n      jump\t// in\n    tag_42:\n      mload(0x40)\n      dup1\n      swap2\n      sub\n      swap1\n      return\n        /* \"contracts/2_variable_modifiers.sol\":994:1027  address public owner = msg.sender */\n    tag_9:\n      tag_43\n      tag_44\n      jump\t// in\n    tag_43:\n      mload(0x40)\n      tag_45\n      swap2\n      swap1\n      tag_26\n      jump\t// in\n    tag_45:\n      mload(0x40)\n      dup1\n      swap2\n      sub\n      swap1\n      return\n        /* \"contracts/2_variable_modifiers.sol\":358:387  string public pl = \"Solidity\" */\n    tag_10:\n      tag_46\n      tag_47\n      jump\t// in\n    tag_46:\n      mload(0x40)\n      tag_48\n      swap2\n      swap1\n      tag_49\n      jump\t// in\n    tag_48:\n      mload(0x40)\n      dup1\n      swap2\n      sub\n      swap1\n      return\n        /* \"contracts/2_variable_modifiers.sol\":1389:1454  function changeToBTC() public {... */\n    tag_11:\n      tag_50\n      tag_51\n      jump\t// in\n    tag_50:\n      stop\n        /* \"contracts/2_variable_modifiers.sol\":814:870  bytes20 public hash_ripemd160 = ripemd160(\"Henlo world\") */\n    tag_12:\n      tag_52\n      tag_53\n      jump\t// in\n    tag_52:\n      mload(0x40)\n      tag_54\n      swap2\n      swap1\n      tag_55\n      jump\t// in\n    tag_54:\n      mload(0x40)\n      dup1\n      swap2\n      sub\n      swap1\n      return\n        /* \"contracts/2_variable_modifiers.sol\":302:323  string public surname */\n    tag_13:\n      tag_56\n      tag_57\n      jump\t// in\n    tag_56:\n      mload(0x40)\n      tag_58\n      swap2\n      swap1\n      tag_49\n      jump\t// in\n    tag_58:\n      mload(0x40)\n      dup1\n      swap2\n      sub\n      swap1\n      return\n        /* \"contracts/2_variable_modifiers.sol\":1146:1165  tokens public state */\n    tag_14:\n      tag_59\n      tag_60\n      jump\t// in\n    tag_59:\n      mload(0x40)\n      tag_61\n      swap2\n      swap1\n      tag_62\n      jump\t// in\n    tag_61:\n      mload(0x40)\n      dup1\n      swap2\n      sub\n      swap1\n      return\n        /* \"contracts/2_variable_modifiers.sol\":176:197  uint16 public c = 811 */\n    tag_15:\n      tag_63\n      tag_64\n      jump\t// in\n    tag_63:\n      mload(0x40)\n      tag_65\n      swap2\n      swap1\n      tag_66\n      jump\t// in\n    tag_65:\n      mload(0x40)\n      dup1\n      swap2\n      sub\n      swap1\n      return\n        /* \"contracts/2_variable_modifiers.sol\":1318:1383  function changeToBNB() public {... */\n    tag_16:\n      tag_67\n      tag_68\n      jump\t// in\n    tag_67:\n      stop\n        /* \"contracts/2_variable_modifiers.sol\":1091:1140  tokens public constant defaultChoice = tokens.BTC */\n    tag_17:\n      tag_69\n      tag_70\n      jump\t// in\n    tag_69:\n      mload(0x40)\n      tag_71\n      swap2\n      swap1\n      tag_62\n      jump\t// in\n    tag_71:\n      mload(0x40)\n      dup1\n      swap2\n      sub\n      swap1\n      return\n        /* \"contracts/2_variable_modifiers.sol\":1172:1241  function changeToEther() public {... */\n    tag_18:\n      tag_72\n      tag_73\n      jump\t// in\n    tag_72:\n      stop\n        /* \"contracts/2_variable_modifiers.sol\":260:281  int32 public e = -255 */\n    tag_19:\n      tag_74\n      tag_75\n      jump\t// in\n    tag_74:\n      mload(0x40)\n      tag_76\n      swap2\n      swap1\n      tag_77\n      jump\t// in\n    tag_76:\n      mload(0x40)\n      dup1\n      swap2\n      sub\n      swap1\n      return\n        /* \"contracts/2_variable_modifiers.sol\":915:988  address public friendAddress = 0x5B38Da6a701c568545dCfcB03FcB875f56beddC4 */\n    tag_24:\n      0x0f\n      0x00\n      swap1\n      sload\n      swap1\n      0x0100\n      exp\n      swap1\n      div\n      0xffffffffffffffffffffffffffffffffffffffff\n      and\n      dup2\n      jump\t// out\n        /* \"contracts/2_variable_modifiers.sol\":461:490  bool public boolFalse = false */\n    tag_28:\n      0x07\n      0x02\n      swap1\n      sload\n      swap1\n      0x0100\n      exp\n      swap1\n      div\n      0xff\n      and\n      dup2\n      jump\t// out\n        /* \"contracts/2_variable_modifiers.sol\":428:455  bool public boolTrue = true */\n    tag_32:\n      0x07\n      0x01\n      swap1\n      sload\n      swap1\n      0x0100\n      exp\n      swap1\n      div\n      0xff\n      and\n      dup2\n      jump\t// out\n        /* \"contracts/2_variable_modifiers.sol\":633:707  bytes32 public hash_keccak256 = keccak256(abi.encodePacked(name, surname)) */\n    tag_35:\n      sload(0x0b)\n      dup2\n      jump\t// out\n        /* \"contracts/2_variable_modifiers.sol\":1247:1312  function changeToAda() public {... */\n    tag_39:\n        /* \"contracts/2_variable_modifiers.sol\":1295:1305  tokens.ADA */\n      0x00\n        /* \"contracts/2_variable_modifiers.sol\":1287:1292  state */\n      0x10\n      0x14\n        /* \"contracts/2_variable_modifiers.sol\":1287:1305  state = tokens.ADA */\n      0x0100\n      exp\n      dup2\n      sload\n      dup2\n      0xff\n      mul\n      not\n      and\n      swap1\n      dup4\n      0x03\n      dup2\n      gt\n      iszero\n      tag_79\n      jumpi\n      tag_80\n      tag_81\n      jump\t// in\n    tag_80:\n    tag_79:\n      mul\n      or\n      swap1\n      sstore\n      pop\n        /* \"contracts/2_variable_modifiers.sol\":1247:1312  function changeToAda() public {... */\n      jump\t// out\n        /* \"contracts/2_variable_modifiers.sol\":713:808  bytes32 public hash_sha256 = sha256(abi.encodePacked(\"Henlo world\", int(32432432), msg.sender)) */\n    tag_41:\n      sload(0x0c)\n      dup2\n      jump\t// out\n        /* \"contracts/2_variable_modifiers.sol\":994:1027  address public owner = msg.sender */\n    tag_44:\n      0x10\n      0x00\n      swap1\n      sload\n      swap1\n      0x0100\n      exp\n      swap1\n      div\n      0xffffffffffffffffffffffffffffffffffffffff\n      and\n      dup2\n      jump\t// out\n        /* \"contracts/2_variable_modifiers.sol\":358:387  string public pl = \"Solidity\" */\n    tag_47:\n      0x06\n      dup1\n      sload\n      tag_82\n      swap1\n      tag_83\n      jump\t// in\n    tag_82:\n      dup1\n      0x1f\n      add\n      0x20\n      dup1\n      swap2\n      div\n      mul\n      0x20\n      add\n      mload(0x40)\n      swap1\n      dup2\n      add\n      0x40\n      mstore\n      dup1\n      swap3\n      swap2\n      swap1\n      dup2\n      dup2\n      mstore\n      0x20\n      add\n      dup3\n      dup1\n      sload\n      tag_84\n      swap1\n      tag_83\n      jump\t// in\n    tag_84:\n      dup1\n      iszero\n      tag_85\n      jumpi\n      dup1\n      0x1f\n      lt\n      tag_86\n      jumpi\n      0x0100\n      dup1\n      dup4\n      sload\n      div\n      mul\n      dup4\n      mstore\n      swap2\n      0x20\n      add\n      swap2\n      jump(tag_85)\n    tag_86:\n      dup3\n      add\n      swap2\n      swap1\n      0x00\n      mstore\n      keccak256(0x00, 0x20)\n      swap1\n    tag_87:\n      dup2\n      sload\n      dup2\n      mstore\n      swap1\n      0x01\n      add\n      swap1\n      0x20\n      add\n      dup1\n      dup4\n      gt\n      tag_87\n      jumpi\n      dup3\n      swap1\n      sub\n      0x1f\n      and\n      dup3\n      add\n      swap2\n    tag_85:\n      pop\n      pop\n      pop\n      pop\n      pop\n      dup2\n      jump\t// out\n        /* \"contracts/2_variable_modifiers.sol\":1389:1454  function changeToBTC() public {... */\n    tag_51:\n        /* \"contracts/2_variable_modifiers.sol\":1437:1447  tokens.BTC */\n      0x03\n        /* \"contracts/2_variable_modifiers.sol\":1429:1434  state */\n      0x10\n      0x14\n        /* \"contracts/2_variable_modifiers.sol\":1429:1447  state = tokens.BTC */\n      0x0100\n      exp\n      dup2\n      sload\n      dup2\n      0xff\n      mul\n      not\n      and\n      swap1\n      dup4\n      0x03\n      dup2\n      gt\n      iszero\n      tag_89\n      jumpi\n      tag_90\n      tag_81\n      jump\t// in\n    tag_90:\n    tag_89:\n      mul\n      or\n      swap1\n      sstore\n      pop\n        /* \"contracts/2_variable_modifiers.sol\":1389:1454  function changeToBTC() public {... */\n      jump\t// out\n        /* \"contracts/2_variable_modifiers.sol\":814:870  bytes20 public hash_ripemd160 = ripemd160(\"Henlo world\") */\n    tag_53:\n      0x0d\n      0x00\n      swap1\n      sload\n      swap1\n      0x0100\n      exp\n      swap1\n      div\n      0x60\n      shl\n      dup2\n      jump\t// out\n        /* \"contracts/2_variable_modifiers.sol\":302:323  string public surname */\n    tag_57:\n      0x04\n      dup1\n      sload\n      tag_91\n      swap1\n      tag_83\n      jump\t// in\n    tag_91:\n      dup1\n      0x1f\n      add\n      0x20\n      dup1\n      swap2\n      div\n      mul\n      0x20\n      add\n      mload(0x40)\n      swap1\n      dup2\n      add\n      0x40\n      mstore\n      dup1\n      swap3\n      swap2\n      swap1\n      dup2\n      dup2\n      mstore\n      0x20\n      add\n      dup3\n      dup1\n      sload\n      tag_92\n      swap1\n      tag_83\n      jump\t// in\n    tag_92:\n      dup1\n      iszero\n      tag_93\n      jumpi\n      dup1\n      0x1f\n      lt\n      tag_94\n      jumpi\n      0x0100\n      dup1\n      dup4\n      sload\n      div\n      mul\n      dup4\n      mstore\n      swap2\n      0x20\n      add\n      swap2\n      jump(tag_93)\n    tag_94:\n      dup3\n      add\n      swap2\n      swap1\n      0x00\n      mstore\n      keccak256(0x00, 0x20)\n      swap1\n    tag_95:\n      dup2\n      sload\n      dup2\n      mstore\n      swap1\n      0x01\n      add\n      swap1\n      0x20\n      add\n      dup1\n      dup4\n      gt\n      tag_95\n      jumpi\n      dup3\n      swap1\n      sub\n      0x1f\n      and\n      dup3\n      add\n      swap2\n    tag_93:\n      pop\n      pop\n      pop\n      pop\n      pop\n      dup2\n      jump\t// out\n        /* \"contracts/2_variable_modifiers.sol\":1146:1165  tokens public state */\n    tag_60:\n      0x10\n      0x14\n      swap1\n      sload\n      swap1\n      0x0100\n      exp\n      swap1\n      div\n      0xff\n      and\n      dup2\n      jump\t// out\n        /* \"contracts/2_variable_modifiers.sol\":176:197  uint16 public c = 811 */\n    tag_64:\n      0x01\n      dup1\n      sload\n      swap1\n      0x0100\n      exp\n      swap1\n      div\n      0xffff\n      and\n      dup2\n      jump\t// out\n        /* \"contracts/2_variable_modifiers.sol\":1318:1383  function changeToBNB() public {... */\n    tag_68:\n        /* \"contracts/2_variable_modifiers.sol\":1366:1376  tokens.BNB */\n      0x02\n        /* \"contracts/2_variable_modifiers.sol\":1358:1363  state */\n      0x10\n      0x14\n        /* \"contracts/2_variable_modifiers.sol\":1358:1376  state = tokens.BNB */\n      0x0100\n      exp\n      dup2\n      sload\n      dup2\n      0xff\n      mul\n      not\n      and\n      swap1\n      dup4\n      0x03\n      dup2\n      gt\n      iszero\n      tag_97\n      jumpi\n      tag_98\n      tag_81\n      jump\t// in\n    tag_98:\n    tag_97:\n      mul\n      or\n      swap1\n      sstore\n      pop\n        /* \"contracts/2_variable_modifiers.sol\":1318:1383  function changeToBNB() public {... */\n      jump\t// out\n        /* \"contracts/2_variable_modifiers.sol\":1091:1140  tokens public constant defaultChoice = tokens.BTC */\n    tag_70:\n        /* \"contracts/2_variable_modifiers.sol\":1130:1140  tokens.BTC */\n      0x03\n        /* \"contracts/2_variable_modifiers.sol\":1091:1140  tokens public constant defaultChoice = tokens.BTC */\n      dup2\n      jump\t// out\n        /* \"contracts/2_variable_modifiers.sol\":1172:1241  function changeToEther() public {... */\n    tag_73:\n        /* \"contracts/2_variable_modifiers.sol\":1222:1234  tokens.ETHER */\n      0x01\n        /* \"contracts/2_variable_modifiers.sol\":1214:1219  state */\n      0x10\n      0x14\n        /* \"contracts/2_variable_modifiers.sol\":1214:1234  state = tokens.ETHER */\n      0x0100\n      exp\n      dup2\n      sload\n      dup2\n      0xff\n      mul\n      not\n      and\n      swap1\n      dup4\n      0x03\n      dup2\n      gt\n      iszero\n      tag_100\n      jumpi\n      tag_101\n      tag_81\n      jump\t// in\n    tag_101:\n    tag_100:\n      mul\n      or\n      swap1\n      sstore\n      pop\n        /* \"contracts/2_variable_modifiers.sol\":1172:1241  function changeToEther() public {... */\n      jump\t// out\n        /* \"contracts/2_variable_modifiers.sol\":260:281  int32 public e = -255 */\n    tag_75:\n      0x03\n      0x00\n      swap1\n      sload\n      swap1\n      0x0100\n      exp\n      swap1\n      div\n      0x03\n      signextend\n      dup2\n      jump\t// out\n        /* \"#utility.yul\":7:125   */\n    tag_103:\n        /* \"#utility.yul\":94:118   */\n      tag_105\n        /* \"#utility.yul\":112:117   */\n      dup2\n        /* \"#utility.yul\":94:118   */\n      tag_106\n      jump\t// in\n    tag_105:\n        /* \"#utility.yul\":89:92   */\n      dup3\n        /* \"#utility.yul\":82:119   */\n      mstore\n        /* \"#utility.yul\":72:125   */\n      pop\n      pop\n      jump\t// out\n        /* \"#utility.yul\":131:240   */\n    tag_107:\n        /* \"#utility.yul\":212:233   */\n      tag_109\n        /* \"#utility.yul\":227:232   */\n      dup2\n        /* \"#utility.yul\":212:233   */\n      tag_110\n      jump\t// in\n    tag_109:\n        /* \"#utility.yul\":207:210   */\n      dup3\n        /* \"#utility.yul\":200:234   */\n      mstore\n        /* \"#utility.yul\":190:240   */\n      pop\n      pop\n      jump\t// out\n        /* \"#utility.yul\":246:364   */\n    tag_111:\n        /* \"#utility.yul\":333:357   */\n      tag_113\n        /* \"#utility.yul\":351:356   */\n      dup2\n        /* \"#utility.yul\":333:357   */\n      tag_114\n      jump\t// in\n    tag_113:\n        /* \"#utility.yul\":328:331   */\n      dup3\n        /* \"#utility.yul\":321:358   */\n      mstore\n        /* \"#utility.yul\":311:364   */\n      pop\n      pop\n      jump\t// out\n        /* \"#utility.yul\":370:488   */\n    tag_115:\n        /* \"#utility.yul\":457:481   */\n      tag_117\n        /* \"#utility.yul\":475:480   */\n      dup2\n        /* \"#utility.yul\":457:481   */\n      tag_118\n      jump\t// in\n    tag_117:\n        /* \"#utility.yul\":452:455   */\n      dup3\n        /* \"#utility.yul\":445:482   */\n      mstore\n        /* \"#utility.yul\":435:488   */\n      pop\n      pop\n      jump\t// out\n        /* \"#utility.yul\":494:639   */\n    tag_119:\n        /* \"#utility.yul\":588:632   */\n      tag_121\n        /* \"#utility.yul\":626:631   */\n      dup2\n        /* \"#utility.yul\":588:632   */\n      tag_122\n      jump\t// in\n    tag_121:\n        /* \"#utility.yul\":583:586   */\n      dup3\n        /* \"#utility.yul\":576:633   */\n      mstore\n        /* \"#utility.yul\":566:639   */\n      pop\n      pop\n      jump\t// out\n        /* \"#utility.yul\":645:757   */\n    tag_123:\n        /* \"#utility.yul\":728:750   */\n      tag_125\n        /* \"#utility.yul\":744:749   */\n      dup2\n        /* \"#utility.yul\":728:750   */\n      tag_126\n      jump\t// in\n    tag_125:\n        /* \"#utility.yul\":723:726   */\n      dup3\n        /* \"#utility.yul\":716:751   */\n      mstore\n        /* \"#utility.yul\":706:757   */\n      pop\n      pop\n      jump\t// out\n        /* \"#utility.yul\":763:1127   */\n    tag_127:\n        /* \"#utility.yul\":851:854   */\n      0x00\n        /* \"#utility.yul\":879:918   */\n      tag_129\n        /* \"#utility.yul\":912:917   */\n      dup3\n        /* \"#utility.yul\":879:918   */\n      tag_130\n      jump\t// in\n    tag_129:\n        /* \"#utility.yul\":934:1005   */\n      tag_131\n        /* \"#utility.yul\":998:1004   */\n      dup2\n        /* \"#utility.yul\":993:996   */\n      dup6\n        /* \"#utility.yul\":934:1005   */\n      tag_132\n      jump\t// in\n    tag_131:\n        /* \"#utility.yul\":927:1005   */\n      swap4\n      pop\n        /* \"#utility.yul\":1014:1066   */\n      tag_133\n        /* \"#utility.yul\":1059:1065   */\n      dup2\n        /* \"#utility.yul\":1054:1057   */\n      dup6\n        /* \"#utility.yul\":1047:1051   */\n      0x20\n        /* \"#utility.yul\":1040:1045   */\n      dup7\n        /* \"#utility.yul\":1036:1052   */\n      add\n        /* \"#utility.yul\":1014:1066   */\n      tag_134\n      jump\t// in\n    tag_133:\n        /* \"#utility.yul\":1091:1120   */\n      tag_135\n        /* \"#utility.yul\":1113:1119   */\n      dup2\n        /* \"#utility.yul\":1091:1120   */\n      tag_136\n      jump\t// in\n    tag_135:\n        /* \"#utility.yul\":1086:1089   */\n      dup5\n        /* \"#utility.yul\":1082:1121   */\n      add\n        /* \"#utility.yul\":1075:1121   */\n      swap2\n      pop\n        /* \"#utility.yul\":855:1127   */\n      pop\n      swap3\n      swap2\n      pop\n      pop\n      jump\t// out\n        /* \"#utility.yul\":1133:1248   */\n    tag_137:\n        /* \"#utility.yul\":1218:1241   */\n      tag_139\n        /* \"#utility.yul\":1235:1240   */\n      dup2\n        /* \"#utility.yul\":1218:1241   */\n      tag_140\n      jump\t// in\n    tag_139:\n        /* \"#utility.yul\":1213:1216   */\n      dup3\n        /* \"#utility.yul\":1206:1242   */\n      mstore\n        /* \"#utility.yul\":1196:1248   */\n      pop\n      pop\n      jump\t// out\n        /* \"#utility.yul\":1254:1476   */\n    tag_26:\n        /* \"#utility.yul\":1347:1351   */\n      0x00\n        /* \"#utility.yul\":1385:1387   */\n      0x20\n        /* \"#utility.yul\":1374:1383   */\n      dup3\n        /* \"#utility.yul\":1370:1388   */\n      add\n        /* \"#utility.yul\":1362:1388   */\n      swap1\n      pop\n        /* \"#utility.yul\":1398:1469   */\n      tag_142\n        /* \"#utility.yul\":1466:1467   */\n      0x00\n        /* \"#utility.yul\":1455:1464   */\n      dup4\n        /* \"#utility.yul\":1451:1468   */\n      add\n        /* \"#utility.yul\":1442:1448   */\n      dup5\n        /* \"#utility.yul\":1398:1469   */\n      tag_103\n      jump\t// in\n    tag_142:\n        /* \"#utility.yul\":1352:1476   */\n      swap3\n      swap2\n      pop\n      pop\n      jump\t// out\n        /* \"#utility.yul\":1482:1692   */\n    tag_30:\n        /* \"#utility.yul\":1569:1573   */\n      0x00\n        /* \"#utility.yul\":1607:1609   */\n      0x20\n        /* \"#utility.yul\":1596:1605   */\n      dup3\n        /* \"#utility.yul\":1592:1610   */\n      add\n        /* \"#utility.yul\":1584:1610   */\n      swap1\n      pop\n        /* \"#utility.yul\":1620:1685   */\n      tag_144\n        /* \"#utility.yul\":1682:1683   */\n      0x00\n        /* \"#utility.yul\":1671:1680   */\n      dup4\n        /* \"#utility.yul\":1667:1684   */\n      add\n        /* \"#utility.yul\":1658:1664   */\n      dup5\n        /* \"#utility.yul\":1620:1685   */\n      tag_107\n      jump\t// in\n    tag_144:\n        /* \"#utility.yul\":1574:1692   */\n      swap3\n      swap2\n      pop\n      pop\n      jump\t// out\n        /* \"#utility.yul\":1698:1920   */\n    tag_55:\n        /* \"#utility.yul\":1791:1795   */\n      0x00\n        /* \"#utility.yul\":1829:1831   */\n      0x20\n        /* \"#utility.yul\":1818:1827   */\n      dup3\n        /* \"#utility.yul\":1814:1832   */\n      add\n        /* \"#utility.yul\":1806:1832   */\n      swap1\n      pop\n        /* \"#utility.yul\":1842:1913   */\n      tag_146\n        /* \"#utility.yul\":1910:1911   */\n      0x00\n        /* \"#utility.yul\":1899:1908   */\n      dup4\n        /* \"#utility.yul\":1895:1912   */\n      add\n        /* \"#utility.yul\":1886:1892   */\n      dup5\n        /* \"#utility.yul\":1842:1913   */\n      tag_111\n      jump\t// in\n    tag_146:\n        /* \"#utility.yul\":1796:1920   */\n      swap3\n      swap2\n      pop\n      pop\n      jump\t// out\n        /* \"#utility.yul\":1926:2148   */\n    tag_37:\n        /* \"#utility.yul\":2019:2023   */\n      0x00\n        /* \"#utility.yul\":2057:2059   */\n      0x20\n        /* \"#utility.yul\":2046:2055   */\n      dup3\n        /* \"#utility.yul\":2042:2060   */\n      add\n        /* \"#utility.yul\":2034:2060   */\n      swap1\n      pop\n        /* \"#utility.yul\":2070:2141   */\n      tag_148\n        /* \"#utility.yul\":2138:2139   */\n      0x00\n        /* \"#utility.yul\":2127:2136   */\n      dup4\n        /* \"#utility.yul\":2123:2140   */\n      add\n        /* \"#utility.yul\":2114:2120   */\n      dup5\n        /* \"#utility.yul\":2070:2141   */\n      tag_115\n      jump\t// in\n    tag_148:\n        /* \"#utility.yul\":2024:2148   */\n      swap3\n      swap2\n      pop\n      pop\n      jump\t// out\n        /* \"#utility.yul\":2154:2390   */\n    tag_62:\n        /* \"#utility.yul\":2254:2258   */\n      0x00\n        /* \"#utility.yul\":2292:2294   */\n      0x20\n        /* \"#utility.yul\":2281:2290   */\n      dup3\n        /* \"#utility.yul\":2277:2295   */\n      add\n        /* \"#utility.yul\":2269:2295   */\n      swap1\n      pop\n        /* \"#utility.yul\":2305:2383   */\n      tag_150\n        /* \"#utility.yul\":2380:2381   */\n      0x00\n        /* \"#utility.yul\":2369:2378   */\n      dup4\n        /* \"#utility.yul\":2365:2382   */\n      add\n        /* \"#utility.yul\":2356:2362   */\n      dup5\n        /* \"#utility.yul\":2305:2383   */\n      tag_119\n      jump\t// in\n    tag_150:\n        /* \"#utility.yul\":2259:2390   */\n      swap3\n      swap2\n      pop\n      pop\n      jump\t// out\n        /* \"#utility.yul\":2396:2610   */\n    tag_77:\n        /* \"#utility.yul\":2485:2489   */\n      0x00\n        /* \"#utility.yul\":2523:2525   */\n      0x20\n        /* \"#utility.yul\":2512:2521   */\n      dup3\n        /* \"#utility.yul\":2508:2526   */\n      add\n        /* \"#utility.yul\":2500:2526   */\n      swap1\n      pop\n        /* \"#utility.yul\":2536:2603   */\n      tag_152\n        /* \"#utility.yul\":2600:2601   */\n      0x00\n        /* \"#utility.yul\":2589:2598   */\n      dup4\n        /* \"#utility.yul\":2585:2602   */\n      add\n        /* \"#utility.yul\":2576:2582   */\n      dup5\n        /* \"#utility.yul\":2536:2603   */\n      tag_123\n      jump\t// in\n    tag_152:\n        /* \"#utility.yul\":2490:2610   */\n      swap3\n      swap2\n      pop\n      pop\n      jump\t// out\n        /* \"#utility.yul\":2616:2929   */\n    tag_49:\n        /* \"#utility.yul\":2729:2733   */\n      0x00\n        /* \"#utility.yul\":2767:2769   */\n      0x20\n        /* \"#utility.yul\":2756:2765   */\n      dup3\n        /* \"#utility.yul\":2752:2770   */\n      add\n        /* \"#utility.yul\":2744:2770   */\n      swap1\n      pop\n        /* \"#utility.yul\":2816:2825   */\n      dup2\n        /* \"#utility.yul\":2810:2814   */\n      dup2\n        /* \"#utility.yul\":2806:2826   */\n      sub\n        /* \"#utility.yul\":2802:2803   */\n      0x00\n        /* \"#utility.yul\":2791:2800   */\n      dup4\n        /* \"#utility.yul\":2787:2804   */\n      add\n        /* \"#utility.yul\":2780:2827   */\n      mstore\n        /* \"#utility.yul\":2844:2922   */\n      tag_154\n        /* \"#utility.yul\":2917:2921   */\n      dup2\n        /* \"#utility.yul\":2908:2914   */\n      dup5\n        /* \"#utility.yul\":2844:2922   */\n      tag_127\n      jump\t// in\n    tag_154:\n        /* \"#utility.yul\":2836:2922   */\n      swap1\n      pop\n        /* \"#utility.yul\":2734:2929   */\n      swap3\n      swap2\n      pop\n      pop\n      jump\t// out\n        /* \"#utility.yul\":2935:3153   */\n    tag_66:\n        /* \"#utility.yul\":3026:3030   */\n      0x00\n        /* \"#utility.yul\":3064:3066   */\n      0x20\n        /* \"#utility.yul\":3053:3062   */\n      dup3\n        /* \"#utility.yul\":3049:3067   */\n      add\n        /* \"#utility.yul\":3041:3067   */\n      swap1\n      pop\n        /* \"#utility.yul\":3077:3146   */\n      tag_156\n        /* \"#utility.yul\":3143:3144   */\n      0x00\n        /* \"#utility.yul\":3132:3141   */\n      dup4\n        /* \"#utility.yul\":3128:3145   */\n      add\n        /* \"#utility.yul\":3119:3125   */\n      dup5\n        /* \"#utility.yul\":3077:3146   */\n      tag_137\n      jump\t// in\n    tag_156:\n        /* \"#utility.yul\":3031:3153   */\n      swap3\n      swap2\n      pop\n      pop\n      jump\t// out\n        /* \"#utility.yul\":3159:3258   */\n    tag_130:\n        /* \"#utility.yul\":3211:3217   */\n      0x00\n        /* \"#utility.yul\":3245:3250   */\n      dup2\n        /* \"#utility.yul\":3239:3251   */\n      mload\n        /* \"#utility.yul\":3229:3251   */\n      swap1\n      pop\n        /* \"#utility.yul\":3218:3258   */\n      swap2\n      swap1\n      pop\n      jump\t// out\n        /* \"#utility.yul\":3264:3433   */\n    tag_132:\n        /* \"#utility.yul\":3348:3359   */\n      0x00\n        /* \"#utility.yul\":3382:3388   */\n      dup3\n        /* \"#utility.yul\":3377:3380   */\n      dup3\n        /* \"#utility.yul\":3370:3389   */\n      mstore\n        /* \"#utility.yul\":3422:3426   */\n      0x20\n        /* \"#utility.yul\":3417:3420   */\n      dup3\n        /* \"#utility.yul\":3413:3427   */\n      add\n        /* \"#utility.yul\":3398:3427   */\n      swap1\n      pop\n        /* \"#utility.yul\":3360:3433   */\n      swap3\n      swap2\n      pop\n      pop\n      jump\t// out\n        /* \"#utility.yul\":3439:3535   */\n    tag_106:\n        /* \"#utility.yul\":3476:3483   */\n      0x00\n        /* \"#utility.yul\":3505:3529   */\n      tag_160\n        /* \"#utility.yul\":3523:3528   */\n      dup3\n        /* \"#utility.yul\":3505:3529   */\n      tag_161\n      jump\t// in\n    tag_160:\n        /* \"#utility.yul\":3494:3529   */\n      swap1\n      pop\n        /* \"#utility.yul\":3484:3535   */\n      swap2\n      swap1\n      pop\n      jump\t// out\n        /* \"#utility.yul\":3541:3631   */\n    tag_110:\n        /* \"#utility.yul\":3575:3582   */\n      0x00\n        /* \"#utility.yul\":3618:3623   */\n      dup2\n        /* \"#utility.yul\":3611:3624   */\n      iszero\n        /* \"#utility.yul\":3604:3625   */\n      iszero\n        /* \"#utility.yul\":3593:3625   */\n      swap1\n      pop\n        /* \"#utility.yul\":3583:3631   */\n      swap2\n      swap1\n      pop\n      jump\t// out\n        /* \"#utility.yul\":3637:3787   */\n    tag_114:\n        /* \"#utility.yul\":3674:3681   */\n      0x00\n        /* \"#utility.yul\":3714:3780   */\n      0xffffffffffffffffffffffffffffffffffffffff000000000000000000000000\n        /* \"#utility.yul\":3707:3712   */\n      dup3\n        /* \"#utility.yul\":3703:3781   */\n      and\n        /* \"#utility.yul\":3692:3781   */\n      swap1\n      pop\n        /* \"#utility.yul\":3682:3787   */\n      swap2\n      swap1\n      pop\n      jump\t// out\n        /* \"#utility.yul\":3793:3870   */\n    tag_118:\n        /* \"#utility.yul\":3830:3837   */\n      0x00\n        /* \"#utility.yul\":3859:3864   */\n      dup2\n        /* \"#utility.yul\":3848:3864   */\n      swap1\n      pop\n        /* \"#utility.yul\":3838:3870   */\n      swap2\n      swap1\n      pop\n      jump\t// out\n        /* \"#utility.yul\":3876:4005   */\n    tag_165:\n        /* \"#utility.yul\":3922:3929   */\n      0x00\n        /* \"#utility.yul\":3951:3956   */\n      dup2\n        /* \"#utility.yul\":3940:3956   */\n      swap1\n      pop\n        /* \"#utility.yul\":3957:3999   */\n      tag_167\n        /* \"#utility.yul\":3993:3998   */\n      dup3\n        /* \"#utility.yul\":3957:3999   */\n      tag_168\n      jump\t// in\n    tag_167:\n        /* \"#utility.yul\":3930:4005   */\n      swap2\n      swap1\n      pop\n      jump\t// out\n        /* \"#utility.yul\":4011:4101   */\n    tag_126:\n        /* \"#utility.yul\":4046:4053   */\n      0x00\n        /* \"#utility.yul\":4089:4094   */\n      dup2\n        /* \"#utility.yul\":4086:4087   */\n      0x03\n        /* \"#utility.yul\":4075:4095   */\n      signextend\n        /* \"#utility.yul\":4064:4095   */\n      swap1\n      pop\n        /* \"#utility.yul\":4054:4101   */\n      swap2\n      swap1\n      pop\n      jump\t// out\n        /* \"#utility.yul\":4107:4196   */\n    tag_140:\n        /* \"#utility.yul\":4143:4150   */\n      0x00\n        /* \"#utility.yul\":4183:4189   */\n      0xffff\n        /* \"#utility.yul\":4176:4181   */\n      dup3\n        /* \"#utility.yul\":4172:4190   */\n      and\n        /* \"#utility.yul\":4161:4190   */\n      swap1\n      pop\n        /* \"#utility.yul\":4151:4196   */\n      swap2\n      swap1\n      pop\n      jump\t// out\n        /* \"#utility.yul\":4202:4328   */\n    tag_161:\n        /* \"#utility.yul\":4239:4246   */\n      0x00\n        /* \"#utility.yul\":4279:4321   */\n      0xffffffffffffffffffffffffffffffffffffffff\n        /* \"#utility.yul\":4272:4277   */\n      dup3\n        /* \"#utility.yul\":4268:4322   */\n      and\n        /* \"#utility.yul\":4257:4322   */\n      swap1\n      pop\n        /* \"#utility.yul\":4247:4328   */\n      swap2\n      swap1\n      pop\n      jump\t// out\n        /* \"#utility.yul\":4334:4463   */\n    tag_122:\n        /* \"#utility.yul\":4391:4400   */\n      0x00\n        /* \"#utility.yul\":4424:4457   */\n      tag_173\n        /* \"#utility.yul\":4451:4456   */\n      dup3\n        /* \"#utility.yul\":4424:4457   */\n      tag_165\n      jump\t// in\n    tag_173:\n        /* \"#utility.yul\":4411:4457   */\n      swap1\n      pop\n        /* \"#utility.yul\":4401:4463   */\n      swap2\n      swap1\n      pop\n      jump\t// out\n        /* \"#utility.yul\":4469:4776   */\n    tag_134:\n        /* \"#utility.yul\":4537:4538   */\n      0x00\n        /* \"#utility.yul\":4547:4660   */\n    tag_175:\n        /* \"#utility.yul\":4561:4567   */\n      dup4\n        /* \"#utility.yul\":4558:4559   */\n      dup2\n        /* \"#utility.yul\":4555:4568   */\n      lt\n        /* \"#utility.yul\":4547:4660   */\n      iszero\n      tag_177\n      jumpi\n        /* \"#utility.yul\":4646:4647   */\n      dup1\n        /* \"#utility.yul\":4641:4644   */\n      dup3\n        /* \"#utility.yul\":4637:4648   */\n      add\n        /* \"#utility.yul\":4631:4649   */\n      mload\n        /* \"#utility.yul\":4627:4628   */\n      dup2\n        /* \"#utility.yul\":4622:4625   */\n      dup5\n        /* \"#utility.yul\":4618:4629   */\n      add\n        /* \"#utility.yul\":4611:4650   */\n      mstore\n        /* \"#utility.yul\":4583:4585   */\n      0x20\n        /* \"#utility.yul\":4580:4581   */\n      dup2\n        /* \"#utility.yul\":4576:4586   */\n      add\n        /* \"#utility.yul\":4571:4586   */\n      swap1\n      pop\n        /* \"#utility.yul\":4547:4660   */\n      jump(tag_175)\n    tag_177:\n        /* \"#utility.yul\":4678:4684   */\n      dup4\n        /* \"#utility.yul\":4675:4676   */\n      dup2\n        /* \"#utility.yul\":4672:4685   */\n      gt\n        /* \"#utility.yul\":4669:4671   */\n      iszero\n      tag_178\n      jumpi\n        /* \"#utility.yul\":4758:4759   */\n      0x00\n        /* \"#utility.yul\":4749:4755   */\n      dup5\n        /* \"#utility.yul\":4744:4747   */\n      dup5\n        /* \"#utility.yul\":4740:4756   */\n      add\n        /* \"#utility.yul\":4733:4760   */\n      mstore\n        /* \"#utility.yul\":4669:4671   */\n    tag_178:\n        /* \"#utility.yul\":4518:4776   */\n      pop\n      pop\n      pop\n      pop\n      jump\t// out\n        /* \"#utility.yul\":4782:5102   */\n    tag_83:\n        /* \"#utility.yul\":4826:4832   */\n      0x00\n        /* \"#utility.yul\":4863:4864   */\n      0x02\n        /* \"#utility.yul\":4857:4861   */\n      dup3\n        /* \"#utility.yul\":4853:4865   */\n      div\n        /* \"#utility.yul\":4843:4865   */\n      swap1\n      pop\n        /* \"#utility.yul\":4910:4911   */\n      0x01\n        /* \"#utility.yul\":4904:4908   */\n      dup3\n        /* \"#utility.yul\":4900:4912   */\n      and\n        /* \"#utility.yul\":4931:4949   */\n      dup1\n        /* \"#utility.yul\":4921:4923   */\n      tag_180\n      jumpi\n        /* \"#utility.yul\":4987:4991   */\n      0x7f\n        /* \"#utility.yul\":4979:4985   */\n      dup3\n        /* \"#utility.yul\":4975:4992   */\n      and\n        /* \"#utility.yul\":4965:4992   */\n      swap2\n      pop\n        /* \"#utility.yul\":4921:4923   */\n    tag_180:\n        /* \"#utility.yul\":5049:5051   */\n      0x20\n        /* \"#utility.yul\":5041:5047   */\n      dup3\n        /* \"#utility.yul\":5038:5052   */\n      lt\n        /* \"#utility.yul\":5018:5036   */\n      dup2\n        /* \"#utility.yul\":5015:5053   */\n      eq\n        /* \"#utility.yul\":5012:5014   */\n      iszero\n      tag_181\n      jumpi\n        /* \"#utility.yul\":5068:5086   */\n      tag_182\n      tag_183\n      jump\t// in\n    tag_182:\n        /* \"#utility.yul\":5012:5014   */\n    tag_181:\n        /* \"#utility.yul\":4833:5102   */\n      pop\n      swap2\n      swap1\n      pop\n      jump\t// out\n        /* \"#utility.yul\":5108:5288   */\n    tag_81:\n        /* \"#utility.yul\":5156:5233   */\n      0x4e487b7100000000000000000000000000000000000000000000000000000000\n        /* \"#utility.yul\":5153:5154   */\n      0x00\n        /* \"#utility.yul\":5146:5234   */\n      mstore\n        /* \"#utility.yul\":5253:5257   */\n      0x21\n        /* \"#utility.yul\":5250:5251   */\n      0x04\n        /* \"#utility.yul\":5243:5258   */\n      mstore\n        /* \"#utility.yul\":5277:5281   */\n      0x24\n        /* \"#utility.yul\":5274:5275   */\n      0x00\n        /* \"#utility.yul\":5267:5282   */\n      revert\n        /* \"#utility.yul\":5294:5474   */\n    tag_183:\n        /* \"#utility.yul\":5342:5419   */\n      0x4e487b7100000000000000000000000000000000000000000000000000000000\n        /* \"#utility.yul\":5339:5340   */\n      0x00\n        /* \"#utility.yul\":5332:5420   */\n      mstore\n        /* \"#utility.yul\":5439:5443   */\n      0x22\n        /* \"#utility.yul\":5436:5437   */\n      0x04\n        /* \"#utility.yul\":5429:5444   */\n      mstore\n        /* \"#utility.yul\":5463:5467   */\n      0x24\n        /* \"#utility.yul\":5460:5461   */\n      0x00\n        /* \"#utility.yul\":5453:5468   */\n      revert\n        /* \"#utility.yul\":5480:5582   */\n    tag_136:\n        /* \"#utility.yul\":5521:5527   */\n      0x00\n        /* \"#utility.yul\":5572:5574   */\n      0x1f\n        /* \"#utility.yul\":5568:5575   */\n      not\n        /* \"#utility.yul\":5563:5565   */\n      0x1f\n        /* \"#utility.yul\":5556:5561   */\n      dup4\n        /* \"#utility.yul\":5552:5566   */\n      add\n        /* \"#utility.yul\":5548:5576   */\n      and\n        /* \"#utility.yul\":5538:5576   */\n      swap1\n      pop\n        /* \"#utility.yul\":5528:5582   */\n      swap2\n      swap1\n      pop\n      jump\t// out\n        /* \"#utility.yul\":5588:5702   */\n    tag_168:\n        /* \"#utility.yul\":5670:5671   */\n      0x04\n        /* \"#utility.yul\":5663:5668   */\n      dup2\n        /* \"#utility.yul\":5660:5672   */\n      lt\n        /* \"#utility.yul\":5650:5652   */\n      tag_188\n      jumpi\n        /* \"#utility.yul\":5676:5694   */\n      tag_189\n      tag_81\n      jump\t// in\n    tag_189:\n        /* \"#utility.yul\":5650:5652   */\n    tag_188:\n        /* \"#utility.yul\":5640:5702   */\n      pop\n      jump\t// out\n\n    auxdata: 0xa2646970667358221220afb906383224a107447c39a6c746f235668a89fb2041c6083ed71f25f6d8766764736f6c63430008050033\n}\n",
				"bytecode": {
					"linkReferences": {},
					"object": "608060405260ff600160006101000a81548160ff021916908360ff16021790555061032b6001806101000a81548161ffff021916908361ffff1602179055507fffffffffffffffffffffffffffffffffffffffffffffffffffffffffffffff016002557fffffffffffffffffffffffffffffffffffffffffffffffffffffffffffffff01600360006101000a81548163ffffffff021916908360030b63ffffffff1602179055506040518060400160405280600781526020017f526f626572746f0000000000000000000000000000000000000000000000000081525060059080519060200190620000f392919062000336565b506040518060400160405280600881526020017f536f6c6964697479000000000000000000000000000000000000000000000000815250600690805190602001906200014192919062000336565b506001600760016101000a81548160ff0219169083151502179055506000600760026101000a81548160ff021916908315150217905550600560046040516020016200018f9291906200058e565b60405160208183030381529060405280519060200120600b5560026301eee13033604051602001620001c3929190620005cd565b604051602081830303815290604052604051620001e1919062000575565b602060405180830381855afa158015620001ff573d6000803e3d6000fd5b5050506040513d601f19601f82011682018060405250810190620002249190620003fd565b600c5560036040516200023790620005b6565b602060405180830381855afa15801562000255573d6000803e3d6000fd5b5050506040515160601b600d60006101000a81548173ffffffffffffffffffffffffffffffffffffffff021916908360601c0217905550735b38da6a701c568545dcfcb03fcb875f56beddc4600f60006101000a81548173ffffffffffffffffffffffffffffffffffffffff021916908373ffffffffffffffffffffffffffffffffffffffff16021790555033601060006101000a81548173ffffffffffffffffffffffffffffffffffffffff021916908373ffffffffffffffffffffffffffffffffffffffff1602179055503480156200032f57600080fd5b50620007aa565b8280546200034490620006be565b90600052602060002090601f016020900481019282620003685760008555620003b4565b82601f106200038357805160ff1916838001178555620003b4565b82800160010185558215620003b4579182015b82811115620003b357825182559160200191906001019062000396565b5b509050620003c39190620003c7565b5090565b5b80821115620003e2576000816000905550600101620003c8565b5090565b600081519050620003f78162000790565b92915050565b60006020828403121562000416576200041562000755565b5b60006200042684828501620003e6565b91505092915050565b620004446200043e8262000640565b620006f4565b82525050565b600062000457826200061f565b6200046381856200062a565b93506200047581856020860162000688565b80840191505092915050565b6200049662000490826200065e565b62000708565b82525050565b60008154620004ab81620006be565b620004b7818662000635565b94506001821660008114620004d55760018114620004e7576200051e565b60ff198316865281860193506200051e565b620004f2856200060a565b60005b838110156200051657815481890152600182019150602081019050620004f5565b838801955050505b50505092915050565b600062000536600b836200062a565b9150620005438262000767565b600b82019050919050565b60006200055d600b8362000635565b91506200056a8262000767565b600b82019050919050565b60006200058382846200044a565b915081905092915050565b60006200059c82856200049c565b9150620005aa82846200049c565b91508190509392505050565b6000620005c38262000527565b9150819050919050565b6000620005da826200054e565b9150620005e8828562000481565b602082019150620005fa82846200042f565b6014820191508190509392505050565b60008190508160005260206000209050919050565b600081519050919050565b600081905092915050565b600081905092915050565b60006200064d8262000668565b9050919050565b6000819050919050565b6000819050919050565b600073ffffffffffffffffffffffffffffffffffffffff82169050919050565b60005b83811015620006a85780820151818401526020810190506200068b565b83811115620006b8576000848401525b50505050565b60006002820490506001821680620006d757607f821691505b60208210811415620006ee57620006ed62000726565b5b50919050565b6000620007018262000712565b9050919050565b6000819050919050565b60006200071f826200075a565b9050919050565b7f4e487b7100000000000000000000000000000000000000000000000000000000600052602260045260246000fd5b600080fd5b60008160601b9050919050565b7f48656e6c6f20776f726c64000000000000000000000000000000000000000000600082015250565b6200079b8162000654565b8114620007a757600080fd5b50565b6108cb80620007ba6000396000f3fe608060405234801561001057600080fd5b506004361061010b5760003560e01c806391d101af116100a2578063c3da42b811610071578063c3da42b814610250578063c4370ebf1461026e578063cd99a84614610278578063ff4479d814610296578063ffae15ba146102a05761010b565b806391d101af146101ec578063af0c2ea7146101f6578063b38fee9214610214578063c19d93fb146102325761010b565b806362b57af4116100de57806362b57af41461018857806366e41d20146101925780638da5cb5b146101b057806390e1437c146101ce5761010b565b80630b9239fb14610110578063222a90ac1461012e57806342fb01091461014c5780635c4806801461016a575b600080fd5b6101186102be565b60405161012591906105fe565b60405180910390f35b6101366102e4565b6040516101439190610619565b60405180910390f35b6101546102f7565b6040516101619190610619565b60405180910390f35b61017261030a565b60405161017f919061064f565b60405180910390f35b610190610310565b005b61019a61033d565b6040516101a7919061064f565b60405180910390f35b6101b8610343565b6040516101c591906105fe565b60405180910390f35b6101d6610369565b6040516101e391906106a0565b60405180910390f35b6101f46103f7565b005b6101fe610424565b60405161020b9190610634565b60405180910390f35b61021c610437565b60405161022991906106a0565b60405180910390f35b61023a6104c5565b604051610247919061066a565b60405180910390f35b6102586104d8565b60405161026591906106c2565b60405180910390f35b6102766104ea565b005b610280610517565b60405161028d919061066a565b60405180910390f35b61029e61051c565b005b6102a8610549565b6040516102b59190610685565b60405180910390f35b600f60009054906101000a900473ffffffffffffffffffffffffffffffffffffffff1681565b600760029054906101000a900460ff1681565b600760019054906101000a900460ff1681565b600b5481565b6000601060146101000a81548160ff0219169083600381111561033657610335610812565b5b0217905550565b600c5481565b601060009054906101000a900473ffffffffffffffffffffffffffffffffffffffff1681565b60068054610376906107e0565b80601f01602080910402602001604051908101604052809291908181526020018280546103a2906107e0565b80156103ef5780601f106103c4576101008083540402835291602001916103ef565b820191906000526020600020905b8154815290600101906020018083116103d257829003601f168201915b505050505081565b6003601060146101000a81548160ff0219169083600381111561041d5761041c610812565b5b0217905550565b600d60009054906101000a900460601b81565b60048054610444906107e0565b80601f0160208091040260200160405190810160405280929190818152602001828054610470906107e0565b80156104bd5780601f10610492576101008083540402835291602001916104bd565b820191906000526020600020905b8154815290600101906020018083116104a057829003601f168201915b505050505081565b601060149054906101000a900460ff1681565b60018054906101000a900461ffff1681565b6002601060146101000a81548160ff021916908360038111156105105761050f610812565b5b0217905550565b600381565b6001601060146101000a81548160ff0219169083600381111561054257610541610812565b5b0217905550565b600360009054906101000a900460030b81565b610565816106f9565b82525050565b6105748161070b565b82525050565b61058381610717565b82525050565b61059281610743565b82525050565b6105a18161079b565b82525050565b6105b081610760565b82525050565b60006105c1826106dd565b6105cb81856106e8565b93506105db8185602086016107ad565b6105e481610870565b840191505092915050565b6105f88161076d565b82525050565b6000602082019050610613600083018461055c565b92915050565b600060208201905061062e600083018461056b565b92915050565b6000602082019050610649600083018461057a565b92915050565b60006020820190506106646000830184610589565b92915050565b600060208201905061067f6000830184610598565b92915050565b600060208201905061069a60008301846105a7565b92915050565b600060208201905081810360008301526106ba81846105b6565b905092915050565b60006020820190506106d760008301846105ef565b92915050565b600081519050919050565b600082825260208201905092915050565b60006107048261077b565b9050919050565b60008115159050919050565b60007fffffffffffffffffffffffffffffffffffffffff00000000000000000000000082169050919050565b6000819050919050565b600081905061075b82610881565b919050565b60008160030b9050919050565b600061ffff82169050919050565b600073ffffffffffffffffffffffffffffffffffffffff82169050919050565b60006107a68261074d565b9050919050565b60005b838110156107cb5780820151818401526020810190506107b0565b838111156107da576000848401525b50505050565b600060028204905060018216806107f857607f821691505b6020821081141561080c5761080b610841565b5b50919050565b7f4e487b7100000000000000000000000000000000000000000000000000000000600052602160045260246000fd5b7f4e487b7100000000000000000000000000000000000000000000000000000000600052602260045260246000fd5b6000601f19601f8301169050919050565b6004811061089257610891610812565b5b5056fea2646970667358221220afb906383224a107447c39a6c746f235668a89fb2041c6083ed71f25f6d8766764736f6c63430008050033",
					"opcodes": "PUSH1 0x80 PUSH1 0x40 MSTORE PUSH1 0xFF PUSH1 0x1 PUSH1 0x0 PUSH2 0x100 EXP DUP2 SLOAD DUP2 PUSH1 0xFF MUL NOT AND SWAP1 DUP4 PUSH1 0xFF AND MUL OR SWAP1 SSTORE POP PUSH2 0x32B PUSH1 0x1 DUP1 PUSH2 0x100 EXP DUP2 SLOAD DUP2 PUSH2 0xFFFF MUL NOT AND SWAP1 DUP4 PUSH2 0xFFFF AND MUL OR SWAP1 SSTORE POP PUSH32 0xFFFFFFFFFFFFFFFFFFFFFFFFFFFFFFFFFFFFFFFFFFFFFFFFFFFFFFFFFFFFFF01 PUSH1 0x2 SSTORE PUSH32 0xFFFFFFFFFFFFFFFFFFFFFFFFFFFFFFFFFFFFFFFFFFFFFFFFFFFFFFFFFFFFFF01 PUSH1 0x3 PUSH1 0x0 PUSH2 0x100 EXP DUP2 SLOAD DUP2 PUSH4 0xFFFFFFFF MUL NOT AND SWAP1 DUP4 PUSH1 0x3 SIGNEXTEND PUSH4 0xFFFFFFFF AND MUL OR SWAP1 SSTORE POP PUSH1 0x40 MLOAD DUP1 PUSH1 0x40 ADD PUSH1 0x40 MSTORE DUP1 PUSH1 0x7 DUP2 MSTORE PUSH1 0x20 ADD PUSH32 0x526F626572746F00000000000000000000000000000000000000000000000000 DUP2 MSTORE POP PUSH1 0x5 SWAP1 DUP1 MLOAD SWAP1 PUSH1 0x20 ADD SWAP1 PUSH3 0xF3 SWAP3 SWAP2 SWAP1 PUSH3 0x336 JUMP JUMPDEST POP PUSH1 0x40 MLOAD DUP1 PUSH1 0x40 ADD PUSH1 0x40 MSTORE DUP1 PUSH1 0x8 DUP2 MSTORE PUSH1 0x20 ADD PUSH32 0x536F6C6964697479000000000000000000000000000000000000000000000000 DUP2 MSTORE POP PUSH1 0x6 SWAP1 DUP1 MLOAD SWAP1 PUSH1 0x20 ADD SWAP1 PUSH3 0x141 SWAP3 SWAP2 SWAP1 PUSH3 0x336 JUMP JUMPDEST POP PUSH1 0x1 PUSH1 0x7 PUSH1 0x1 PUSH2 0x100 EXP DUP2 SLOAD DUP2 PUSH1 0xFF MUL NOT AND SWAP1 DUP4 ISZERO ISZERO MUL OR SWAP1 SSTORE POP PUSH1 0x0 PUSH1 0x7 PUSH1 0x2 PUSH2 0x100 EXP DUP2 SLOAD DUP2 PUSH1 0xFF MUL NOT AND SWAP1 DUP4 ISZERO ISZERO MUL OR SWAP1 SSTORE POP PUSH1 0x5 PUSH1 0x4 PUSH1 0x40 MLOAD PUSH1 0x20 ADD PUSH3 0x18F SWAP3 SWAP2 SWAP1 PUSH3 0x58E JUMP JUMPDEST PUSH1 0x40 MLOAD PUSH1 0x20 DUP2 DUP4 SUB SUB DUP2 MSTORE SWAP1 PUSH1 0x40 MSTORE DUP1 MLOAD SWAP1 PUSH1 0x20 ADD KECCAK256 PUSH1 0xB SSTORE PUSH1 0x2 PUSH4 0x1EEE130 CALLER PUSH1 0x40 MLOAD PUSH1 0x20 ADD PUSH3 0x1C3 SWAP3 SWAP2 SWAP1 PUSH3 0x5CD JUMP JUMPDEST PUSH1 0x40 MLOAD PUSH1 0x20 DUP2 DUP4 SUB SUB DUP2 MSTORE SWAP1 PUSH1 0x40 MSTORE PUSH1 0x40 MLOAD PUSH3 0x1E1 SWAP2 SWAP1 PUSH3 0x575 JUMP JUMPDEST PUSH1 0x20 PUSH1 0x40 MLOAD DUP1 DUP4 SUB DUP2 DUP6 GAS STATICCALL ISZERO DUP1 ISZERO PUSH3 0x1FF JUMPI RETURNDATASIZE PUSH1 0x0 DUP1 RETURNDATACOPY RETURNDATASIZE PUSH1 0x0 REVERT JUMPDEST POP POP POP PUSH1 0x40 MLOAD RETURNDATASIZE PUSH1 0x1F NOT PUSH1 0x1F DUP3 ADD AND DUP3 ADD DUP1 PUSH1 0x40 MSTORE POP DUP2 ADD SWAP1 PUSH3 0x224 SWAP2 SWAP1 PUSH3 0x3FD JUMP JUMPDEST PUSH1 0xC SSTORE PUSH1 0x3 PUSH1 0x40 MLOAD PUSH3 0x237 SWAP1 PUSH3 0x5B6 JUMP JUMPDEST PUSH1 0x20 PUSH1 0x40 MLOAD DUP1 DUP4 SUB DUP2 DUP6 GAS STATICCALL ISZERO DUP1 ISZERO PUSH3 0x255 JUMPI RETURNDATASIZE PUSH1 0x0 DUP1 RETURNDATACOPY RETURNDATASIZE PUSH1 0x0 REVERT JUMPDEST POP POP POP PUSH1 0x40 MLOAD MLOAD PUSH1 0x60 SHL PUSH1 0xD PUSH1 0x0 PUSH2 0x100 EXP DUP2 SLOAD DUP2 PUSH20 0xFFFFFFFFFFFFFFFFFFFFFFFFFFFFFFFFFFFFFFFF MUL NOT AND SWAP1 DUP4 PUSH1 0x60 SHR MUL OR SWAP1 SSTORE POP PUSH20 0x5B38DA6A701C568545DCFCB03FCB875F56BEDDC4 PUSH1 0xF PUSH1 0x0 PUSH2 0x100 EXP DUP2 SLOAD DUP2 PUSH20 0xFFFFFFFFFFFFFFFFFFFFFFFFFFFFFFFFFFFFFFFF MUL NOT AND SWAP1 DUP4 PUSH20 0xFFFFFFFFFFFFFFFFFFFFFFFFFFFFFFFFFFFFFFFF AND MUL OR SWAP1 SSTORE POP CALLER PUSH1 0x10 PUSH1 0x0 PUSH2 0x100 EXP DUP2 SLOAD DUP2 PUSH20 0xFFFFFFFFFFFFFFFFFFFFFFFFFFFFFFFFFFFFFFFF MUL NOT AND SWAP1 DUP4 PUSH20 0xFFFFFFFFFFFFFFFFFFFFFFFFFFFFFFFFFFFFFFFF AND MUL OR SWAP1 SSTORE POP CALLVALUE DUP1 ISZERO PUSH3 0x32F JUMPI PUSH1 0x0 DUP1 REVERT JUMPDEST POP PUSH3 0x7AA JUMP JUMPDEST DUP3 DUP1 SLOAD PUSH3 0x344 SWAP1 PUSH3 0x6BE JUMP JUMPDEST SWAP1 PUSH1 0x0 MSTORE PUSH1 0x20 PUSH1 0x0 KECCAK256 SWAP1 PUSH1 0x1F ADD PUSH1 0x20 SWAP1 DIV DUP2 ADD SWAP3 DUP3 PUSH3 0x368 JUMPI PUSH1 0x0 DUP6 SSTORE PUSH3 0x3B4 JUMP JUMPDEST DUP3 PUSH1 0x1F LT PUSH3 0x383 JUMPI DUP1 MLOAD PUSH1 0xFF NOT AND DUP4 DUP1 ADD OR DUP6 SSTORE PUSH3 0x3B4 JUMP JUMPDEST DUP3 DUP1 ADD PUSH1 0x1 ADD DUP6 SSTORE DUP3 ISZERO PUSH3 0x3B4 JUMPI SWAP2 DUP3 ADD JUMPDEST DUP3 DUP2 GT ISZERO PUSH3 0x3B3 JUMPI DUP3 MLOAD DUP3 SSTORE SWAP2 PUSH1 0x20 ADD SWAP2 SWAP1 PUSH1 0x1 ADD SWAP1 PUSH3 0x396 JUMP JUMPDEST JUMPDEST POP SWAP1 POP PUSH3 0x3C3 SWAP2 SWAP1 PUSH3 0x3C7 JUMP JUMPDEST POP SWAP1 JUMP JUMPDEST JUMPDEST DUP1 DUP3 GT ISZERO PUSH3 0x3E2 JUMPI PUSH1 0x0 DUP2 PUSH1 0x0 SWAP1 SSTORE POP PUSH1 0x1 ADD PUSH3 0x3C8 JUMP JUMPDEST POP SWAP1 JUMP JUMPDEST PUSH1 0x0 DUP2 MLOAD SWAP1 POP PUSH3 0x3F7 DUP2 PUSH3 0x790 JUMP JUMPDEST SWAP3 SWAP2 POP POP JUMP JUMPDEST PUSH1 0x0 PUSH1 0x20 DUP3 DUP5 SUB SLT ISZERO PUSH3 0x416 JUMPI PUSH3 0x415 PUSH3 0x755 JUMP JUMPDEST JUMPDEST PUSH1 0x0 PUSH3 0x426 DUP5 DUP3 DUP6 ADD PUSH3 0x3E6 JUMP JUMPDEST SWAP2 POP POP SWAP3 SWAP2 POP POP JUMP JUMPDEST PUSH3 0x444 PUSH3 0x43E DUP3 PUSH3 0x640 JUMP JUMPDEST PUSH3 0x6F4 JUMP JUMPDEST DUP3 MSTORE POP POP JUMP JUMPDEST PUSH1 0x0 PUSH3 0x457 DUP3 PUSH3 0x61F JUMP JUMPDEST PUSH3 0x463 DUP2 DUP6 PUSH3 0x62A JUMP JUMPDEST SWAP4 POP PUSH3 0x475 DUP2 DUP6 PUSH1 0x20 DUP7 ADD PUSH3 0x688 JUMP JUMPDEST DUP1 DUP5 ADD SWAP2 POP POP SWAP3 SWAP2 POP POP JUMP JUMPDEST PUSH3 0x496 PUSH3 0x490 DUP3 PUSH3 0x65E JUMP JUMPDEST PUSH3 0x708 JUMP JUMPDEST DUP3 MSTORE POP POP JUMP JUMPDEST PUSH1 0x0 DUP2 SLOAD PUSH3 0x4AB DUP2 PUSH3 0x6BE JUMP JUMPDEST PUSH3 0x4B7 DUP2 DUP7 PUSH3 0x635 JUMP JUMPDEST SWAP5 POP PUSH1 0x1 DUP3 AND PUSH1 0x0 DUP2 EQ PUSH3 0x4D5 JUMPI PUSH1 0x1 DUP2 EQ PUSH3 0x4E7 JUMPI PUSH3 0x51E JUMP JUMPDEST PUSH1 0xFF NOT DUP4 AND DUP7 MSTORE DUP2 DUP7 ADD SWAP4 POP PUSH3 0x51E JUMP JUMPDEST PUSH3 0x4F2 DUP6 PUSH3 0x60A JUMP JUMPDEST PUSH1 0x0 JUMPDEST DUP4 DUP2 LT ISZERO PUSH3 0x516 JUMPI DUP2 SLOAD DUP2 DUP10 ADD MSTORE PUSH1 0x1 DUP3 ADD SWAP2 POP PUSH1 0x20 DUP2 ADD SWAP1 POP PUSH3 0x4F5 JUMP JUMPDEST DUP4 DUP9 ADD SWAP6 POP POP POP JUMPDEST POP POP POP SWAP3 SWAP2 POP POP JUMP JUMPDEST PUSH1 0x0 PUSH3 0x536 PUSH1 0xB DUP4 PUSH3 0x62A JUMP JUMPDEST SWAP2 POP PUSH3 0x543 DUP3 PUSH3 0x767 JUMP JUMPDEST PUSH1 0xB DUP3 ADD SWAP1 POP SWAP2 SWAP1 POP JUMP JUMPDEST PUSH1 0x0 PUSH3 0x55D PUSH1 0xB DUP4 PUSH3 0x635 JUMP JUMPDEST SWAP2 POP PUSH3 0x56A DUP3 PUSH3 0x767 JUMP JUMPDEST PUSH1 0xB DUP3 ADD SWAP1 POP SWAP2 SWAP1 POP JUMP JUMPDEST PUSH1 0x0 PUSH3 0x583 DUP3 DUP5 PUSH3 0x44A JUMP JUMPDEST SWAP2 POP DUP2 SWAP1 POP SWAP3 SWAP2 POP POP JUMP JUMPDEST PUSH1 0x0 PUSH3 0x59C DUP3 DUP6 PUSH3 0x49C JUMP JUMPDEST SWAP2 POP PUSH3 0x5AA DUP3 DUP5 PUSH3 0x49C JUMP JUMPDEST SWAP2 POP DUP2 SWAP1 POP SWAP4 SWAP3 POP POP POP JUMP JUMPDEST PUSH1 0x0 PUSH3 0x5C3 DUP3 PUSH3 0x527 JUMP JUMPDEST SWAP2 POP DUP2 SWAP1 POP SWAP2 SWAP1 POP JUMP JUMPDEST PUSH1 0x0 PUSH3 0x5DA DUP3 PUSH3 0x54E JUMP JUMPDEST SWAP2 POP PUSH3 0x5E8 DUP3 DUP6 PUSH3 0x481 JUMP JUMPDEST PUSH1 0x20 DUP3 ADD SWAP2 POP PUSH3 0x5FA DUP3 DUP5 PUSH3 0x42F JUMP JUMPDEST PUSH1 0x14 DUP3 ADD SWAP2 POP DUP2 SWAP1 POP SWAP4 SWAP3 POP POP POP JUMP JUMPDEST PUSH1 0x0 DUP2 SWAP1 POP DUP2 PUSH1 0x0 MSTORE PUSH1 0x20 PUSH1 0x0 KECCAK256 SWAP1 POP SWAP2 SWAP1 POP JUMP JUMPDEST PUSH1 0x0 DUP2 MLOAD SWAP1 POP SWAP2 SWAP1 POP JUMP JUMPDEST PUSH1 0x0 DUP2 SWAP1 POP SWAP3 SWAP2 POP POP JUMP JUMPDEST PUSH1 0x0 DUP2 SWAP1 POP SWAP3 SWAP2 POP POP JUMP JUMPDEST PUSH1 0x0 PUSH3 0x64D DUP3 PUSH3 0x668 JUMP JUMPDEST SWAP1 POP SWAP2 SWAP1 POP JUMP JUMPDEST PUSH1 0x0 DUP2 SWAP1 POP SWAP2 SWAP1 POP JUMP JUMPDEST PUSH1 0x0 DUP2 SWAP1 POP SWAP2 SWAP1 POP JUMP JUMPDEST PUSH1 0x0 PUSH20 0xFFFFFFFFFFFFFFFFFFFFFFFFFFFFFFFFFFFFFFFF DUP3 AND SWAP1 POP SWAP2 SWAP1 POP JUMP JUMPDEST PUSH1 0x0 JUMPDEST DUP4 DUP2 LT ISZERO PUSH3 0x6A8 JUMPI DUP1 DUP3 ADD MLOAD DUP2 DUP5 ADD MSTORE PUSH1 0x20 DUP2 ADD SWAP1 POP PUSH3 0x68B JUMP JUMPDEST DUP4 DUP2 GT ISZERO PUSH3 0x6B8 JUMPI PUSH1 0x0 DUP5 DUP5 ADD MSTORE JUMPDEST POP POP POP POP JUMP JUMPDEST PUSH1 0x0 PUSH1 0x2 DUP3 DIV SWAP1 POP PUSH1 0x1 DUP3 AND DUP1 PUSH3 0x6D7 JUMPI PUSH1 0x7F DUP3 AND SWAP2 POP JUMPDEST PUSH1 0x20 DUP3 LT DUP2 EQ ISZERO PUSH3 0x6EE JUMPI PUSH3 0x6ED PUSH3 0x726 JUMP JUMPDEST JUMPDEST POP SWAP2 SWAP1 POP JUMP JUMPDEST PUSH1 0x0 PUSH3 0x701 DUP3 PUSH3 0x712 JUMP JUMPDEST SWAP1 POP SWAP2 SWAP1 POP JUMP JUMPDEST PUSH1 0x0 DUP2 SWAP1 POP SWAP2 SWAP1 POP JUMP JUMPDEST PUSH1 0x0 PUSH3 0x71F DUP3 PUSH3 0x75A JUMP JUMPDEST SWAP1 POP SWAP2 SWAP1 POP JUMP JUMPDEST PUSH32 0x4E487B7100000000000000000000000000000000000000000000000000000000 PUSH1 0x0 MSTORE PUSH1 0x22 PUSH1 0x4 MSTORE PUSH1 0x24 PUSH1 0x0 REVERT JUMPDEST PUSH1 0x0 DUP1 REVERT JUMPDEST PUSH1 0x0 DUP2 PUSH1 0x60 SHL SWAP1 POP SWAP2 SWAP1 POP JUMP JUMPDEST PUSH32 0x48656E6C6F20776F726C64000000000000000000000000000000000000000000 PUSH1 0x0 DUP3 ADD MSTORE POP JUMP JUMPDEST PUSH3 0x79B DUP2 PUSH3 0x654 JUMP JUMPDEST DUP2 EQ PUSH3 0x7A7 JUMPI PUSH1 0x0 DUP1 REVERT JUMPDEST POP JUMP JUMPDEST PUSH2 0x8CB DUP1 PUSH3 0x7BA PUSH1 0x0 CODECOPY PUSH1 0x0 RETURN INVALID PUSH1 0x80 PUSH1 0x40 MSTORE CALLVALUE DUP1 ISZERO PUSH2 0x10 JUMPI PUSH1 0x0 DUP1 REVERT JUMPDEST POP PUSH1 0x4 CALLDATASIZE LT PUSH2 0x10B JUMPI PUSH1 0x0 CALLDATALOAD PUSH1 0xE0 SHR DUP1 PUSH4 0x91D101AF GT PUSH2 0xA2 JUMPI DUP1 PUSH4 0xC3DA42B8 GT PUSH2 0x71 JUMPI DUP1 PUSH4 0xC3DA42B8 EQ PUSH2 0x250 JUMPI DUP1 PUSH4 0xC4370EBF EQ PUSH2 0x26E JUMPI DUP1 PUSH4 0xCD99A846 EQ PUSH2 0x278 JUMPI DUP1 PUSH4 0xFF4479D8 EQ PUSH2 0x296 JUMPI DUP1 PUSH4 0xFFAE15BA EQ PUSH2 0x2A0 JUMPI PUSH2 0x10B JUMP JUMPDEST DUP1 PUSH4 0x91D101AF EQ PUSH2 0x1EC JUMPI DUP1 PUSH4 0xAF0C2EA7 EQ PUSH2 0x1F6 JUMPI DUP1 PUSH4 0xB38FEE92 EQ PUSH2 0x214 JUMPI DUP1 PUSH4 0xC19D93FB EQ PUSH2 0x232 JUMPI PUSH2 0x10B JUMP JUMPDEST DUP1 PUSH4 0x62B57AF4 GT PUSH2 0xDE JUMPI DUP1 PUSH4 0x62B57AF4 EQ PUSH2 0x188 JUMPI DUP1 PUSH4 0x66E41D20 EQ PUSH2 0x192 JUMPI DUP1 PUSH4 0x8DA5CB5B EQ PUSH2 0x1B0 JUMPI DUP1 PUSH4 0x90E1437C EQ PUSH2 0x1CE JUMPI PUSH2 0x10B JUMP JUMPDEST DUP1 PUSH4 0xB9239FB EQ PUSH2 0x110 JUMPI DUP1 PUSH4 0x222A90AC EQ PUSH2 0x12E JUMPI DUP1 PUSH4 0x42FB0109 EQ PUSH2 0x14C JUMPI DUP1 PUSH4 0x5C480680 EQ PUSH2 0x16A JUMPI JUMPDEST PUSH1 0x0 DUP1 REVERT JUMPDEST PUSH2 0x118 PUSH2 0x2BE JUMP JUMPDEST PUSH1 0x40 MLOAD PUSH2 0x125 SWAP2 SWAP1 PUSH2 0x5FE JUMP JUMPDEST PUSH1 0x40 MLOAD DUP1 SWAP2 SUB SWAP1 RETURN JUMPDEST PUSH2 0x136 PUSH2 0x2E4 JUMP JUMPDEST PUSH1 0x40 MLOAD PUSH2 0x143 SWAP2 SWAP1 PUSH2 0x619 JUMP JUMPDEST PUSH1 0x40 MLOAD DUP1 SWAP2 SUB SWAP1 RETURN JUMPDEST PUSH2 0x154 PUSH2 0x2F7 JUMP JUMPDEST PUSH1 0x40 MLOAD PUSH2 0x161 SWAP2 SWAP1 PUSH2 0x619 JUMP JUMPDEST PUSH1 0x40 MLOAD DUP1 SWAP2 SUB SWAP1 RETURN JUMPDEST PUSH2 0x172 PUSH2 0x30A JUMP JUMPDEST PUSH1 0x40 MLOAD PUSH2 0x17F SWAP2 SWAP1 PUSH2 0x64F JUMP JUMPDEST PUSH1 0x40 MLOAD DUP1 SWAP2 SUB SWAP1 RETURN JUMPDEST PUSH2 0x190 PUSH2 0x310 JUMP JUMPDEST STOP JUMPDEST PUSH2 0x19A PUSH2 0x33D JUMP JUMPDEST PUSH1 0x40 MLOAD PUSH2 0x1A7 SWAP2 SWAP1 PUSH2 0x64F JUMP JUMPDEST PUSH1 0x40 MLOAD DUP1 SWAP2 SUB SWAP1 RETURN JUMPDEST PUSH2 0x1B8 PUSH2 0x343 JUMP JUMPDEST PUSH1 0x40 MLOAD PUSH2 0x1C5 SWAP2 SWAP1 PUSH2 0x5FE JUMP JUMPDEST PUSH1 0x40 MLOAD DUP1 SWAP2 SUB SWAP1 RETURN JUMPDEST PUSH2 0x1D6 PUSH2 0x369 JUMP JUMPDEST PUSH1 0x40 MLOAD PUSH2 0x1E3 SWAP2 SWAP1 PUSH2 0x6A0 JUMP JUMPDEST PUSH1 0x40 MLOAD DUP1 SWAP2 SUB SWAP1 RETURN JUMPDEST PUSH2 0x1F4 PUSH2 0x3F7 JUMP JUMPDEST STOP JUMPDEST PUSH2 0x1FE PUSH2 0x424 JUMP JUMPDEST PUSH1 0x40 MLOAD PUSH2 0x20B SWAP2 SWAP1 PUSH2 0x634 JUMP JUMPDEST PUSH1 0x40 MLOAD DUP1 SWAP2 SUB SWAP1 RETURN JUMPDEST PUSH2 0x21C PUSH2 0x437 JUMP JUMPDEST PUSH1 0x40 MLOAD PUSH2 0x229 SWAP2 SWAP1 PUSH2 0x6A0 JUMP JUMPDEST PUSH1 0x40 MLOAD DUP1 SWAP2 SUB SWAP1 RETURN JUMPDEST PUSH2 0x23A PUSH2 0x4C5 JUMP JUMPDEST PUSH1 0x40 MLOAD PUSH2 0x247 SWAP2 SWAP1 PUSH2 0x66A JUMP JUMPDEST PUSH1 0x40 MLOAD DUP1 SWAP2 SUB SWAP1 RETURN JUMPDEST PUSH2 0x258 PUSH2 0x4D8 JUMP JUMPDEST PUSH1 0x40 MLOAD PUSH2 0x265 SWAP2 SWAP1 PUSH2 0x6C2 JUMP JUMPDEST PUSH1 0x40 MLOAD DUP1 SWAP2 SUB SWAP1 RETURN JUMPDEST PUSH2 0x276 PUSH2 0x4EA JUMP JUMPDEST STOP JUMPDEST PUSH2 0x280 PUSH2 0x517 JUMP JUMPDEST PUSH1 0x40 MLOAD PUSH2 0x28D SWAP2 SWAP1 PUSH2 0x66A JUMP JUMPDEST PUSH1 0x40 MLOAD DUP1 SWAP2 SUB SWAP1 RETURN JUMPDEST PUSH2 0x29E PUSH2 0x51C JUMP JUMPDEST STOP JUMPDEST PUSH2 0x2A8 PUSH2 0x549 JUMP JUMPDEST PUSH1 0x40 MLOAD PUSH2 0x2B5 SWAP2 SWAP1 PUSH2 0x685 JUMP JUMPDEST PUSH1 0x40 MLOAD DUP1 SWAP2 SUB SWAP1 RETURN JUMPDEST PUSH1 0xF PUSH1 0x0 SWAP1 SLOAD SWAP1 PUSH2 0x100 EXP SWAP1 DIV PUSH20 0xFFFFFFFFFFFFFFFFFFFFFFFFFFFFFFFFFFFFFFFF AND DUP2 JUMP JUMPDEST PUSH1 0x7 PUSH1 0x2 SWAP1 SLOAD SWAP1 PUSH2 0x100 EXP SWAP1 DIV PUSH1 0xFF AND DUP2 JUMP JUMPDEST PUSH1 0x7 PUSH1 0x1 SWAP1 SLOAD SWAP1 PUSH2 0x100 EXP SWAP1 DIV PUSH1 0xFF AND DUP2 JUMP JUMPDEST PUSH1 0xB SLOAD DUP2 JUMP JUMPDEST PUSH1 0x0 PUSH1 0x10 PUSH1 0x14 PUSH2 0x100 EXP DUP2 SLOAD DUP2 PUSH1 0xFF MUL NOT AND SWAP1 DUP4 PUSH1 0x3 DUP2 GT ISZERO PUSH2 0x336 JUMPI PUSH2 0x335 PUSH2 0x812 JUMP JUMPDEST JUMPDEST MUL OR SWAP1 SSTORE POP JUMP JUMPDEST PUSH1 0xC SLOAD DUP2 JUMP JUMPDEST PUSH1 0x10 PUSH1 0x0 SWAP1 SLOAD SWAP1 PUSH2 0x100 EXP SWAP1 DIV PUSH20 0xFFFFFFFFFFFFFFFFFFFFFFFFFFFFFFFFFFFFFFFF AND DUP2 JUMP JUMPDEST PUSH1 0x6 DUP1 SLOAD PUSH2 0x376 SWAP1 PUSH2 0x7E0 JUMP JUMPDEST DUP1 PUSH1 0x1F ADD PUSH1 0x20 DUP1 SWAP2 DIV MUL PUSH1 0x20 ADD PUSH1 0x40 MLOAD SWAP1 DUP2 ADD PUSH1 0x40 MSTORE DUP1 SWAP3 SWAP2 SWAP1 DUP2 DUP2 MSTORE PUSH1 0x20 ADD DUP3 DUP1 SLOAD PUSH2 0x3A2 SWAP1 PUSH2 0x7E0 JUMP JUMPDEST DUP1 ISZERO PUSH2 0x3EF JUMPI DUP1 PUSH1 0x1F LT PUSH2 0x3C4 JUMPI PUSH2 0x100 DUP1 DUP4 SLOAD DIV MUL DUP4 MSTORE SWAP2 PUSH1 0x20 ADD SWAP2 PUSH2 0x3EF JUMP JUMPDEST DUP3 ADD SWAP2 SWAP1 PUSH1 0x0 MSTORE PUSH1 0x20 PUSH1 0x0 KECCAK256 SWAP1 JUMPDEST DUP2 SLOAD DUP2 MSTORE SWAP1 PUSH1 0x1 ADD SWAP1 PUSH1 0x20 ADD DUP1 DUP4 GT PUSH2 0x3D2 JUMPI DUP3 SWAP1 SUB PUSH1 0x1F AND DUP3 ADD SWAP2 JUMPDEST POP POP POP POP POP DUP2 JUMP JUMPDEST PUSH1 0x3 PUSH1 0x10 PUSH1 0x14 PUSH2 0x100 EXP DUP2 SLOAD DUP2 PUSH1 0xFF MUL NOT AND SWAP1 DUP4 PUSH1 0x3 DUP2 GT ISZERO PUSH2 0x41D JUMPI PUSH2 0x41C PUSH2 0x812 JUMP JUMPDEST JUMPDEST MUL OR SWAP1 SSTORE POP JUMP JUMPDEST PUSH1 0xD PUSH1 0x0 SWAP1 SLOAD SWAP1 PUSH2 0x100 EXP SWAP1 DIV PUSH1 0x60 SHL DUP2 JUMP JUMPDEST PUSH1 0x4 DUP1 SLOAD PUSH2 0x444 SWAP1 PUSH2 0x7E0 JUMP JUMPDEST DUP1 PUSH1 0x1F ADD PUSH1 0x20 DUP1 SWAP2 DIV MUL PUSH1 0x20 ADD PUSH1 0x40 MLOAD SWAP1 DUP2 ADD PUSH1 0x40 MSTORE DUP1 SWAP3 SWAP2 SWAP1 DUP2 DUP2 MSTORE PUSH1 0x20 ADD DUP3 DUP1 SLOAD PUSH2 0x470 SWAP1 PUSH2 0x7E0 JUMP JUMPDEST DUP1 ISZERO PUSH2 0x4BD JUMPI DUP1 PUSH1 0x1F LT PUSH2 0x492 JUMPI PUSH2 0x100 DUP1 DUP4 SLOAD DIV MUL DUP4 MSTORE SWAP2 PUSH1 0x20 ADD SWAP2 PUSH2 0x4BD JUMP JUMPDEST DUP3 ADD SWAP2 SWAP1 PUSH1 0x0 MSTORE PUSH1 0x20 PUSH1 0x0 KECCAK256 SWAP1 JUMPDEST DUP2 SLOAD DUP2 MSTORE SWAP1 PUSH1 0x1 ADD SWAP1 PUSH1 0x20 ADD DUP1 DUP4 GT PUSH2 0x4A0 JUMPI DUP3 SWAP1 SUB PUSH1 0x1F AND DUP3 ADD SWAP2 JUMPDEST POP POP POP POP POP DUP2 JUMP JUMPDEST PUSH1 0x10 PUSH1 0x14 SWAP1 SLOAD SWAP1 PUSH2 0x100 EXP SWAP1 DIV PUSH1 0xFF AND DUP2 JUMP JUMPDEST PUSH1 0x1 DUP1 SLOAD SWAP1 PUSH2 0x100 EXP SWAP1 DIV PUSH2 0xFFFF AND DUP2 JUMP JUMPDEST PUSH1 0x2 PUSH1 0x10 PUSH1 0x14 PUSH2 0x100 EXP DUP2 SLOAD DUP2 PUSH1 0xFF MUL NOT AND SWAP1 DUP4 PUSH1 0x3 DUP2 GT ISZERO PUSH2 0x510 JUMPI PUSH2 0x50F PUSH2 0x812 JUMP JUMPDEST JUMPDEST MUL OR SWAP1 SSTORE POP JUMP JUMPDEST PUSH1 0x3 DUP2 JUMP JUMPDEST PUSH1 0x1 PUSH1 0x10 PUSH1 0x14 PUSH2 0x100 EXP DUP2 SLOAD DUP2 PUSH1 0xFF MUL NOT AND SWAP1 DUP4 PUSH1 0x3 DUP2 GT ISZERO PUSH2 0x542 JUMPI PUSH2 0x541 PUSH2 0x812 JUMP JUMPDEST JUMPDEST MUL OR SWAP1 SSTORE POP JUMP JUMPDEST PUSH1 0x3 PUSH1 0x0 SWAP1 SLOAD SWAP1 PUSH2 0x100 EXP SWAP1 DIV PUSH1 0x3 SIGNEXTEND DUP2 JUMP JUMPDEST PUSH2 0x565 DUP2 PUSH2 0x6F9 JUMP JUMPDEST DUP3 MSTORE POP POP JUMP JUMPDEST PUSH2 0x574 DUP2 PUSH2 0x70B JUMP JUMPDEST DUP3 MSTORE POP POP JUMP JUMPDEST PUSH2 0x583 DUP2 PUSH2 0x717 JUMP JUMPDEST DUP3 MSTORE POP POP JUMP JUMPDEST PUSH2 0x592 DUP2 PUSH2 0x743 JUMP JUMPDEST DUP3 MSTORE POP POP JUMP JUMPDEST PUSH2 0x5A1 DUP2 PUSH2 0x79B JUMP JUMPDEST DUP3 MSTORE POP POP JUMP JUMPDEST PUSH2 0x5B0 DUP2 PUSH2 0x760 JUMP JUMPDEST DUP3 MSTORE POP POP JUMP JUMPDEST PUSH1 0x0 PUSH2 0x5C1 DUP3 PUSH2 0x6DD JUMP JUMPDEST PUSH2 0x5CB DUP2 DUP6 PUSH2 0x6E8 JUMP JUMPDEST SWAP4 POP PUSH2 0x5DB DUP2 DUP6 PUSH1 0x20 DUP7 ADD PUSH2 0x7AD JUMP JUMPDEST PUSH2 0x5E4 DUP2 PUSH2 0x870 JUMP JUMPDEST DUP5 ADD SWAP2 POP POP SWAP3 SWAP2 POP POP JUMP JUMPDEST PUSH2 0x5F8 DUP2 PUSH2 0x76D JUMP JUMPDEST DUP3 MSTORE POP POP JUMP JUMPDEST PUSH1 0x0 PUSH1 0x20 DUP3 ADD SWAP1 POP PUSH2 0x613 PUSH1 0x0 DUP4 ADD DUP5 PUSH2 0x55C JUMP JUMPDEST SWAP3 SWAP2 POP POP JUMP JUMPDEST PUSH1 0x0 PUSH1 0x20 DUP3 ADD SWAP1 POP PUSH2 0x62E PUSH1 0x0 DUP4 ADD DUP5 PUSH2 0x56B JUMP JUMPDEST SWAP3 SWAP2 POP POP JUMP JUMPDEST PUSH1 0x0 PUSH1 0x20 DUP3 ADD SWAP1 POP PUSH2 0x649 PUSH1 0x0 DUP4 ADD DUP5 PUSH2 0x57A JUMP JUMPDEST SWAP3 SWAP2 POP POP JUMP JUMPDEST PUSH1 0x0 PUSH1 0x20 DUP3 ADD SWAP1 POP PUSH2 0x664 PUSH1 0x0 DUP4 ADD DUP5 PUSH2 0x589 JUMP JUMPDEST SWAP3 SWAP2 POP POP JUMP JUMPDEST PUSH1 0x0 PUSH1 0x20 DUP3 ADD SWAP1 POP PUSH2 0x67F PUSH1 0x0 DUP4 ADD DUP5 PUSH2 0x598 JUMP JUMPDEST SWAP3 SWAP2 POP POP JUMP JUMPDEST PUSH1 0x0 PUSH1 0x20 DUP3 ADD SWAP1 POP PUSH2 0x69A PUSH1 0x0 DUP4 ADD DUP5 PUSH2 0x5A7 JUMP JUMPDEST SWAP3 SWAP2 POP POP JUMP JUMPDEST PUSH1 0x0 PUSH1 0x20 DUP3 ADD SWAP1 POP DUP2 DUP2 SUB PUSH1 0x0 DUP4 ADD MSTORE PUSH2 0x6BA DUP2 DUP5 PUSH2 0x5B6 JUMP JUMPDEST SWAP1 POP SWAP3 SWAP2 POP POP JUMP JUMPDEST PUSH1 0x0 PUSH1 0x20 DUP3 ADD SWAP1 POP PUSH2 0x6D7 PUSH1 0x0 DUP4 ADD DUP5 PUSH2 0x5EF JUMP JUMPDEST SWAP3 SWAP2 POP POP JUMP JUMPDEST PUSH1 0x0 DUP2 MLOAD SWAP1 POP SWAP2 SWAP1 POP JUMP JUMPDEST PUSH1 0x0 DUP3 DUP3 MSTORE PUSH1 0x20 DUP3 ADD SWAP1 POP SWAP3 SWAP2 POP POP JUMP JUMPDEST PUSH1 0x0 PUSH2 0x704 DUP3 PUSH2 0x77B JUMP JUMPDEST SWAP1 POP SWAP2 SWAP1 POP JUMP JUMPDEST PUSH1 0x0 DUP2 ISZERO ISZERO SWAP1 POP SWAP2 SWAP1 POP JUMP JUMPDEST PUSH1 0x0 PUSH32 0xFFFFFFFFFFFFFFFFFFFFFFFFFFFFFFFFFFFFFFFF000000000000000000000000 DUP3 AND SWAP1 POP SWAP2 SWAP1 POP JUMP JUMPDEST PUSH1 0x0 DUP2 SWAP1 POP SWAP2 SWAP1 POP JUMP JUMPDEST PUSH1 0x0 DUP2 SWAP1 POP PUSH2 0x75B DUP3 PUSH2 0x881 JUMP JUMPDEST SWAP2 SWAP1 POP JUMP JUMPDEST PUSH1 0x0 DUP2 PUSH1 0x3 SIGNEXTEND SWAP1 POP SWAP2 SWAP1 POP JUMP JUMPDEST PUSH1 0x0 PUSH2 0xFFFF DUP3 AND SWAP1 POP SWAP2 SWAP1 POP JUMP JUMPDEST PUSH1 0x0 PUSH20 0xFFFFFFFFFFFFFFFFFFFFFFFFFFFFFFFFFFFFFFFF DUP3 AND SWAP1 POP SWAP2 SWAP1 POP JUMP JUMPDEST PUSH1 0x0 PUSH2 0x7A6 DUP3 PUSH2 0x74D JUMP JUMPDEST SWAP1 POP SWAP2 SWAP1 POP JUMP JUMPDEST PUSH1 0x0 JUMPDEST DUP4 DUP2 LT ISZERO PUSH2 0x7CB JUMPI DUP1 DUP3 ADD MLOAD DUP2 DUP5 ADD MSTORE PUSH1 0x20 DUP2 ADD SWAP1 POP PUSH2 0x7B0 JUMP JUMPDEST DUP4 DUP2 GT ISZERO PUSH2 0x7DA JUMPI PUSH1 0x0 DUP5 DUP5 ADD MSTORE JUMPDEST POP POP POP POP JUMP JUMPDEST PUSH1 0x0 PUSH1 0x2 DUP3 DIV SWAP1 POP PUSH1 0x1 DUP3 AND DUP1 PUSH2 0x7F8 JUMPI PUSH1 0x7F DUP3 AND SWAP2 POP JUMPDEST PUSH1 0x20 DUP3 LT DUP2 EQ ISZERO PUSH2 0x80C JUMPI PUSH2 0x80B PUSH2 0x841 JUMP JUMPDEST JUMPDEST POP SWAP2 SWAP1 POP JUMP JUMPDEST PUSH32 0x4E487B7100000000000000000000000000000000000000000000000000000000 PUSH1 0x0 MSTORE PUSH1 0x21 PUSH1 0x4 MSTORE PUSH1 0x24 PUSH1 0x0 REVERT JUMPDEST PUSH32 0x4E487B7100000000000000000000000000000000000000000000000000000000 PUSH1 0x0 MSTORE PUSH1 0x22 PUSH1 0x4 MSTORE PUSH1 0x24 PUSH1 0x0 REVERT JUMPDEST PUSH1 0x0 PUSH1 0x1F NOT PUSH1 0x1F DUP4 ADD AND SWAP1 POP SWAP2 SWAP1 POP JUMP JUMPDEST PUSH1 0x4 DUP2 LT PUSH2 0x892 JUMPI PUSH2 0x891 PUSH2 0x812 JUMP JUMPDEST JUMPDEST POP JUMP INVALID LOG2 PUSH5 0x6970667358 0x22 SLT KECCAK256 0xAF 0xB9 MOD CODESIZE ORIGIN 0x24 LOG1 SMOD DIFFICULTY PUSH29 0x39A6C746F235668A89FB2041C6083ED71F25F6D8766764736F6C634300 ADDMOD SDIV STOP CALLER "
				},
				"gasEstimates": {
					"creation": {
						"codeDepositCost": "450200",
						"executionCost": "infinite",
						"totalCost": "infinite"
					},
					"external": {
						"boolFalse()": "2567",
						"boolTrue()": "2589",
						"c()": "2540",
						"changeToAda()": "24504",
						"changeToBNB()": "24525",
						"changeToBTC()": "24504",
						"changeToEther()": "24569",
						"defaultChoice()": "490",
						"e()": "2585",
						"friendAddress()": "2538",
						"hash_keccak256()": "2519",
						"hash_ripemd160()": "2516",
						"hash_sha256()": "2474",
						"owner()": "2581",
						"pl()": "infinite",
						"state()": "2699",
						"surname()": "infinite"
					}
				},
				"methodIdentifiers": {
					"boolFalse()": "222a90ac",
					"boolTrue()": "42fb0109",
					"c()": "c3da42b8",
					"changeToAda()": "62b57af4",
					"changeToBNB()": "c4370ebf",
					"changeToBTC()": "91d101af",
					"changeToEther()": "ff4479d8",
					"defaultChoice()": "cd99a846",
					"e()": "ffae15ba",
					"friendAddress()": "0b9239fb",
					"hash_keccak256()": "5c480680",
					"hash_ripemd160()": "af0c2ea7",
					"hash_sha256()": "66e41d20",
					"owner()": "8da5cb5b",
					"pl()": "90e1437c",
					"state()": "c19d93fb",
					"surname()": "b38fee92"
				}
			},
			"storageLayout": {
				"storage": [
					{
						"astId": 3,
						"contract": "contracts/2_variable_modifiers.sol:VariableModifiers",
						"label": "a",
						"offset": 0,
						"slot": "0",
						"type": "t_uint256"
					},
					{
						"astId": 6,
						"contract": "contracts/2_variable_modifiers.sol:VariableModifiers",
						"label": "b",
						"offset": 0,
						"slot": "1",
						"type": "t_uint8"
					},
					{
						"astId": 9,
						"contract": "contracts/2_variable_modifiers.sol:VariableModifiers",
						"label": "c",
						"offset": 1,
						"slot": "1",
						"type": "t_uint16"
					},
					{
						"astId": 13,
						"contract": "contracts/2_variable_modifiers.sol:VariableModifiers",
						"label": "d",
						"offset": 0,
						"slot": "2",
						"type": "t_int256"
					},
					{
						"astId": 17,
						"contract": "contracts/2_variable_modifiers.sol:VariableModifiers",
						"label": "e",
						"offset": 0,
						"slot": "3",
						"type": "t_int32"
					},
					{
						"astId": 19,
						"contract": "contracts/2_variable_modifiers.sol:VariableModifiers",
						"label": "surname",
						"offset": 0,
						"slot": "4",
						"type": "t_string_storage"
					},
					{
						"astId": 22,
						"contract": "contracts/2_variable_modifiers.sol:VariableModifiers",
						"label": "name",
						"offset": 0,
						"slot": "5",
						"type": "t_string_storage"
					},
					{
						"astId": 25,
						"contract": "contracts/2_variable_modifiers.sol:VariableModifiers",
						"label": "pl",
						"offset": 0,
						"slot": "6",
						"type": "t_string_storage"
					},
					{
						"astId": 27,
						"contract": "contracts/2_variable_modifiers.sol:VariableModifiers",
						"label": "boolean",
						"offset": 0,
						"slot": "7",
						"type": "t_bool"
					},
					{
						"astId": 30,
						"contract": "contracts/2_variable_modifiers.sol:VariableModifiers",
						"label": "boolTrue",
						"offset": 1,
						"slot": "7",
						"type": "t_bool"
					},
					{
						"astId": 33,
						"contract": "contracts/2_variable_modifiers.sol:VariableModifiers",
						"label": "boolFalse",
						"offset": 2,
						"slot": "7",
						"type": "t_bool"
					},
					{
						"astId": 35,
						"contract": "contracts/2_variable_modifiers.sol:VariableModifiers",
						"label": "testingBytes",
						"offset": 0,
						"slot": "8",
						"type": "t_bytes32"
					},
					{
						"astId": 37,
						"contract": "contracts/2_variable_modifiers.sol:VariableModifiers",
						"label": "lessBytes",
						"offset": 0,
						"slot": "9",
						"type": "t_bytes4"
					},
					{
						"astId": 39,
						"contract": "contracts/2_variable_modifiers.sol:VariableModifiers",
						"label": "eightBytes",
						"offset": 4,
						"slot": "9",
						"type": "t_bytes8"
					},
					{
						"astId": 41,
						"contract": "contracts/2_variable_modifiers.sol:VariableModifiers",
						"label": "oldBytesCrash",
						"offset": 0,
						"slot": "10",
						"type": "t_bytes_storage"
					},
					{
						"astId": 50,
						"contract": "contracts/2_variable_modifiers.sol:VariableModifiers",
						"label": "hash_keccak256",
						"offset": 0,
						"slot": "11",
						"type": "t_bytes32"
					},
					{
						"astId": 64,
						"contract": "contracts/2_variable_modifiers.sol:VariableModifiers",
						"label": "hash_sha256",
						"offset": 0,
						"slot": "12",
						"type": "t_bytes32"
					},
					{
						"astId": 69,
						"contract": "contracts/2_variable_modifiers.sol:VariableModifiers",
						"label": "hash_ripemd160",
						"offset": 0,
						"slot": "13",
						"type": "t_bytes20"
					},
					{
						"astId": 71,
						"contract": "contracts/2_variable_modifiers.sol:VariableModifiers",
						"label": "myAddress",
						"offset": 0,
						"slot": "14",
						"type": "t_address"
					},
					{
						"astId": 74,
						"contract": "contracts/2_variable_modifiers.sol:VariableModifiers",
						"label": "friendAddress",
						"offset": 0,
						"slot": "15",
						"type": "t_address"
					},
					{
						"astId": 78,
						"contract": "contracts/2_variable_modifiers.sol:VariableModifiers",
						"label": "owner",
						"offset": 0,
						"slot": "16",
						"type": "t_address"
					},
					{
						"astId": 91,
						"contract": "contracts/2_variable_modifiers.sol:VariableModifiers",
						"label": "state",
						"offset": 20,
						"slot": "16",
						"type": "t_enum(tokens)83"
					}
				],
				"types": {
					"t_address": {
						"encoding": "inplace",
						"label": "address",
						"numberOfBytes": "20"
					},
					"t_bool": {
						"encoding": "inplace",
						"label": "bool",
						"numberOfBytes": "1"
					},
					"t_bytes20": {
						"encoding": "inplace",
						"label": "bytes20",
						"numberOfBytes": "20"
					},
					"t_bytes32": {
						"encoding": "inplace",
						"label": "bytes32",
						"numberOfBytes": "32"
					},
					"t_bytes4": {
						"encoding": "inplace",
						"label": "bytes4",
						"numberOfBytes": "4"
					},
					"t_bytes8": {
						"encoding": "inplace",
						"label": "bytes8",
						"numberOfBytes": "8"
					},
					"t_bytes_storage": {
						"encoding": "bytes",
						"label": "bytes",
						"numberOfBytes": "32"
					},
					"t_enum(tokens)83": {
						"encoding": "inplace",
						"label": "enum VariableModifiers.tokens",
						"numberOfBytes": "1"
					},
					"t_int256": {
						"encoding": "inplace",
						"label": "int256",
						"numberOfBytes": "32"
					},
					"t_int32": {
						"encoding": "inplace",
						"label": "int32",
						"numberOfBytes": "4"
					},
					"t_string_storage": {
						"encoding": "bytes",
						"label": "string",
						"numberOfBytes": "32"
					},
					"t_uint16": {
						"encoding": "inplace",
						"label": "uint16",
						"numberOfBytes": "2"
					},
					"t_uint256": {
						"encoding": "inplace",
						"label": "uint256",
						"numberOfBytes": "32"
					},
					"t_uint8": {
						"encoding": "inplace",
						"label": "uint8",
						"numberOfBytes": "1"
					}
				}
			},
			"userdoc": {
				"kind": "user",
				"methods": {},
				"version": 1
			}
		}
	}
}