{
	"contracts/5_payable_functions.sol": {
		"etherSend": {
			"abi": [
				{
					"inputs": [],
					"stateMutability": "payable",
					"type": "constructor"
				},
				{
					"anonymous": false,
					"inputs": [
						{
							"indexed": false,
							"internalType": "bool",
							"name": "",
							"type": "bool"
						},
						{
							"indexed": false,
							"internalType": "bytes",
							"name": "",
							"type": "bytes"
						}
					],
					"name": "callStatus",
					"type": "event"
				},
				{
					"anonymous": false,
					"inputs": [
						{
							"indexed": false,
							"internalType": "bool",
							"name": "",
							"type": "bool"
						}
					],
					"name": "sendStatus",
					"type": "event"
				},
				{
					"inputs": [
						{
							"internalType": "address payable",
							"name": "_to",
							"type": "address"
						}
					],
					"name": "sendViaCall",
					"outputs": [],
					"stateMutability": "payable",
					"type": "function"
				},
				{
					"inputs": [
						{
							"internalType": "address payable",
							"name": "_to",
							"type": "address"
						}
					],
					"name": "sendViaSend",
					"outputs": [],
					"stateMutability": "payable",
					"type": "function"
				},
				{
					"inputs": [
						{
							"internalType": "address payable",
							"name": "_to",
							"type": "address"
						}
					],
					"name": "sendViaTransfer",
					"outputs": [],
					"stateMutability": "payable",
					"type": "function"
				},
				{
					"stateMutability": "payable",
					"type": "receive"
				}
			],
			"devdoc": {
				"kind": "dev",
				"methods": {},
				"version": 1
			},
			"evm": {
				"assembly": "    /* \"contracts/5_payable_functions.sol\":69:652  contract etherSend {... */\n  mstore(0x40, 0x80)\n  dataSize(sub_0)\n  dup1\n  dataOffset(sub_0)\n  0x00\n  codecopy\n  0x00\n  return\nstop\n\nsub_0: assembly {\n        /* \"contracts/5_payable_functions.sol\":69:652  contract etherSend {... */\n      mstore(0x40, 0x80)\n      jumpi(tag_1, lt(calldatasize, 0x04))\n      shr(0xe0, calldataload(0x00))\n      dup1\n      0x636e082b\n      eq\n      tag_3\n      jumpi\n      dup1\n      0x74be4806\n      eq\n      tag_4\n      jumpi\n      dup1\n      0x830c29ae\n      eq\n      tag_5\n      jumpi\n      jump(tag_2)\n    tag_1:\n      jumpi(tag_2, calldatasize)\n      stop\n    tag_2:\n      0x00\n      dup1\n      revert\n        /* \"contracts/5_payable_functions.sol\":254:353  function sendViaTransfer(address payable _to) public payable {... */\n    tag_3:\n      tag_8\n      0x04\n      dup1\n      calldatasize\n      sub\n      dup2\n      add\n      swap1\n      tag_9\n      swap2\n      swap1\n      tag_10\n      jump\t// in\n    tag_9:\n      tag_11\n      jump\t// in\n    tag_8:\n      stop\n        /* \"contracts/5_payable_functions.sol\":371:559  function sendViaSend(address payable _to) public payable {... */\n    tag_4:\n      tag_12\n      0x04\n      dup1\n      calldatasize\n      sub\n      dup2\n      add\n      swap1\n      tag_13\n      swap2\n      swap1\n      tag_10\n      jump\t// in\n    tag_13:\n      tag_14\n      jump\t// in\n    tag_12:\n      stop\n        /* \"contracts/5_payable_functions.sol\":577:650  function sendViaCall(address payable _to) public payable {... */\n    tag_5:\n      tag_15\n      0x04\n      dup1\n      calldatasize\n      sub\n      dup2\n      add\n      swap1\n      tag_16\n      swap2\n      swap1\n      tag_10\n      jump\t// in\n    tag_16:\n      tag_17\n      jump\t// in\n    tag_15:\n      stop\n        /* \"contracts/5_payable_functions.sol\":254:353  function sendViaTransfer(address payable _to) public payable {... */\n    tag_11:\n        /* \"contracts/5_payable_functions.sol\":325:328  _to */\n      dup1\n        /* \"contracts/5_payable_functions.sol\":325:337  _to.transfer */\n      0xffffffffffffffffffffffffffffffffffffffff\n      and\n        /* \"contracts/5_payable_functions.sol\":325:346  _to.transfer(1 ether) */\n      0x08fc\n        /* \"contracts/5_payable_functions.sol\":338:345  1 ether */\n      0x0de0b6b3a7640000\n        /* \"contracts/5_payable_functions.sol\":325:346  _to.transfer(1 ether) */\n      swap1\n      dup2\n      iszero\n      mul\n      swap1\n      mload(0x40)\n      0x00\n      mload(0x40)\n      dup1\n      dup4\n      sub\n      dup2\n      dup6\n      dup9\n      dup9\n      call\n      swap4\n      pop\n      pop\n      pop\n      pop\n      iszero\n      dup1\n      iszero\n      tag_20\n      jumpi\n      returndatasize\n      0x00\n      dup1\n      returndatacopy\n      revert(0x00, returndatasize)\n    tag_20:\n      pop\n        /* \"contracts/5_payable_functions.sol\":254:353  function sendViaTransfer(address payable _to) public payable {... */\n      pop\n      jump\t// out\n        /* \"contracts/5_payable_functions.sol\":371:559  function sendViaSend(address payable _to) public payable {... */\n    tag_14:\n        /* \"contracts/5_payable_functions.sol\":438:447  bool sent */\n      0x00\n        /* \"contracts/5_payable_functions.sol\":450:453  _to */\n      dup2\n        /* \"contracts/5_payable_functions.sol\":450:458  _to.send */\n      0xffffffffffffffffffffffffffffffffffffffff\n      and\n        /* \"contracts/5_payable_functions.sol\":450:467  _to.send(1 ether) */\n      0x08fc\n        /* \"contracts/5_payable_functions.sol\":459:466  1 ether */\n      0x0de0b6b3a7640000\n        /* \"contracts/5_payable_functions.sol\":450:467  _to.send(1 ether) */\n      swap1\n      dup2\n      iszero\n      mul\n      swap1\n      mload(0x40)\n      0x00\n      mload(0x40)\n      dup1\n      dup4\n      sub\n      dup2\n      dup6\n      dup9\n      dup9\n      call\n      swap4\n      pop\n      pop\n      pop\n      pop\n        /* \"contracts/5_payable_functions.sol\":438:467  bool sent = _to.send(1 ether) */\n      swap1\n      pop\n        /* \"contracts/5_payable_functions.sol\":482:498  sendStatus(sent) */\n      0x0c46a72a145bed1fc3c2d4b0e023bd11ddb1e3204a898f4119357ecde6d5fe99\n        /* \"contracts/5_payable_functions.sol\":493:497  sent */\n      dup2\n        /* \"contracts/5_payable_functions.sol\":482:498  sendStatus(sent) */\n      mload(0x40)\n      tag_23\n      swap2\n      swap1\n      tag_24\n      jump\t// in\n    tag_23:\n      mload(0x40)\n      dup1\n      swap2\n      sub\n      swap1\n      log1\n        /* \"contracts/5_payable_functions.sol\":524:528  true */\n      0x01\n        /* \"contracts/5_payable_functions.sol\":516:528  sent == true */\n      iszero\n      iszero\n        /* \"contracts/5_payable_functions.sol\":516:520  sent */\n      dup2\n        /* \"contracts/5_payable_functions.sol\":516:528  sent == true */\n      iszero\n      iszero\n      eq\n        /* \"contracts/5_payable_functions.sol\":508:552  require(sent == true, \"The delivery failed\") */\n      tag_25\n      jumpi\n      mload(0x40)\n      0x08c379a000000000000000000000000000000000000000000000000000000000\n      dup2\n      mstore\n      0x04\n      add\n      tag_26\n      swap1\n      tag_27\n      jump\t// in\n    tag_26:\n      mload(0x40)\n      dup1\n      swap2\n      sub\n      swap1\n      revert\n    tag_25:\n        /* \"contracts/5_payable_functions.sol\":371:559  function sendViaSend(address payable _to) public payable {... */\n      pop\n      pop\n      jump\t// out\n        /* \"contracts/5_payable_functions.sol\":577:650  function sendViaCall(address payable _to) public payable {... */\n    tag_17:\n      pop\n      jump\t// out\n        /* \"#utility.yul\":7:162   */\n    tag_30:\n        /* \"#utility.yul\":61:66   */\n      0x00\n        /* \"#utility.yul\":99:105   */\n      dup2\n        /* \"#utility.yul\":86:106   */\n      calldataload\n        /* \"#utility.yul\":77:106   */\n      swap1\n      pop\n        /* \"#utility.yul\":115:156   */\n      tag_32\n        /* \"#utility.yul\":150:155   */\n      dup2\n        /* \"#utility.yul\":115:156   */\n      tag_33\n      jump\t// in\n    tag_32:\n        /* \"#utility.yul\":67:162   */\n      swap3\n      swap2\n      pop\n      pop\n      jump\t// out\n        /* \"#utility.yul\":168:446   */\n    tag_10:\n        /* \"#utility.yul\":235:241   */\n      0x00\n        /* \"#utility.yul\":284:286   */\n      0x20\n        /* \"#utility.yul\":272:281   */\n      dup3\n        /* \"#utility.yul\":263:270   */\n      dup5\n        /* \"#utility.yul\":259:282   */\n      sub\n        /* \"#utility.yul\":255:287   */\n      slt\n        /* \"#utility.yul\":252:254   */\n      iszero\n      tag_35\n      jumpi\n        /* \"#utility.yul\":300:301   */\n      0x00\n        /* \"#utility.yul\":297:298   */\n      dup1\n        /* \"#utility.yul\":290:302   */\n      revert\n        /* \"#utility.yul\":252:254   */\n    tag_35:\n        /* \"#utility.yul\":343:344   */\n      0x00\n        /* \"#utility.yul\":368:429   */\n      tag_36\n        /* \"#utility.yul\":421:428   */\n      dup5\n        /* \"#utility.yul\":412:418   */\n      dup3\n        /* \"#utility.yul\":401:410   */\n      dup6\n        /* \"#utility.yul\":397:419   */\n      add\n        /* \"#utility.yul\":368:429   */\n      tag_30\n      jump\t// in\n    tag_36:\n        /* \"#utility.yul\":358:429   */\n      swap2\n      pop\n        /* \"#utility.yul\":314:439   */\n      pop\n        /* \"#utility.yul\":242:446   */\n      swap3\n      swap2\n      pop\n      pop\n      jump\t// out\n        /* \"#utility.yul\":452:561   */\n    tag_37:\n        /* \"#utility.yul\":533:554   */\n      tag_39\n        /* \"#utility.yul\":548:553   */\n      dup2\n        /* \"#utility.yul\":533:554   */\n      tag_40\n      jump\t// in\n    tag_39:\n        /* \"#utility.yul\":528:531   */\n      dup3\n        /* \"#utility.yul\":521:555   */\n      mstore\n        /* \"#utility.yul\":511:561   */\n      pop\n      pop\n      jump\t// out\n        /* \"#utility.yul\":567:933   */\n    tag_41:\n        /* \"#utility.yul\":709:712   */\n      0x00\n        /* \"#utility.yul\":730:797   */\n      tag_43\n        /* \"#utility.yul\":794:796   */\n      0x13\n        /* \"#utility.yul\":789:792   */\n      dup4\n        /* \"#utility.yul\":730:797   */\n      tag_44\n      jump\t// in\n    tag_43:\n        /* \"#utility.yul\":723:797   */\n      swap2\n      pop\n        /* \"#utility.yul\":806:899   */\n      tag_45\n        /* \"#utility.yul\":895:898   */\n      dup3\n        /* \"#utility.yul\":806:899   */\n      tag_46\n      jump\t// in\n    tag_45:\n        /* \"#utility.yul\":924:926   */\n      0x20\n        /* \"#utility.yul\":919:922   */\n      dup3\n        /* \"#utility.yul\":915:927   */\n      add\n        /* \"#utility.yul\":908:927   */\n      swap1\n      pop\n        /* \"#utility.yul\":713:933   */\n      swap2\n      swap1\n      pop\n      jump\t// out\n        /* \"#utility.yul\":939:1149   */\n    tag_24:\n        /* \"#utility.yul\":1026:1030   */\n      0x00\n        /* \"#utility.yul\":1064:1066   */\n      0x20\n        /* \"#utility.yul\":1053:1062   */\n      dup3\n        /* \"#utility.yul\":1049:1067   */\n      add\n        /* \"#utility.yul\":1041:1067   */\n      swap1\n      pop\n        /* \"#utility.yul\":1077:1142   */\n      tag_48\n        /* \"#utility.yul\":1139:1140   */\n      0x00\n        /* \"#utility.yul\":1128:1137   */\n      dup4\n        /* \"#utility.yul\":1124:1141   */\n      add\n        /* \"#utility.yul\":1115:1121   */\n      dup5\n        /* \"#utility.yul\":1077:1142   */\n      tag_37\n      jump\t// in\n    tag_48:\n        /* \"#utility.yul\":1031:1149   */\n      swap3\n      swap2\n      pop\n      pop\n      jump\t// out\n        /* \"#utility.yul\":1155:1574   */\n    tag_27:\n        /* \"#utility.yul\":1321:1325   */\n      0x00\n        /* \"#utility.yul\":1359:1361   */\n      0x20\n        /* \"#utility.yul\":1348:1357   */\n      dup3\n        /* \"#utility.yul\":1344:1362   */\n      add\n        /* \"#utility.yul\":1336:1362   */\n      swap1\n      pop\n        /* \"#utility.yul\":1408:1417   */\n      dup2\n        /* \"#utility.yul\":1402:1406   */\n      dup2\n        /* \"#utility.yul\":1398:1418   */\n      sub\n        /* \"#utility.yul\":1394:1395   */\n      0x00\n        /* \"#utility.yul\":1383:1392   */\n      dup4\n        /* \"#utility.yul\":1379:1396   */\n      add\n        /* \"#utility.yul\":1372:1419   */\n      mstore\n        /* \"#utility.yul\":1436:1567   */\n      tag_50\n        /* \"#utility.yul\":1562:1566   */\n      dup2\n        /* \"#utility.yul\":1436:1567   */\n      tag_41\n      jump\t// in\n    tag_50:\n        /* \"#utility.yul\":1428:1567   */\n      swap1\n      pop\n        /* \"#utility.yul\":1326:1574   */\n      swap2\n      swap1\n      pop\n      jump\t// out\n        /* \"#utility.yul\":1580:1749   */\n    tag_44:\n        /* \"#utility.yul\":1664:1675   */\n      0x00\n        /* \"#utility.yul\":1698:1704   */\n      dup3\n        /* \"#utility.yul\":1693:1696   */\n      dup3\n        /* \"#utility.yul\":1686:1705   */\n      mstore\n        /* \"#utility.yul\":1738:1742   */\n      0x20\n        /* \"#utility.yul\":1733:1736   */\n      dup3\n        /* \"#utility.yul\":1729:1743   */\n      add\n        /* \"#utility.yul\":1714:1743   */\n      swap1\n      pop\n        /* \"#utility.yul\":1676:1749   */\n      swap3\n      swap2\n      pop\n      pop\n      jump\t// out\n        /* \"#utility.yul\":1755:1859   */\n    tag_52:\n        /* \"#utility.yul\":1800:1807   */\n      0x00\n        /* \"#utility.yul\":1829:1853   */\n      tag_54\n        /* \"#utility.yul\":1847:1852   */\n      dup3\n        /* \"#utility.yul\":1829:1853   */\n      tag_55\n      jump\t// in\n    tag_54:\n        /* \"#utility.yul\":1818:1853   */\n      swap1\n      pop\n        /* \"#utility.yul\":1808:1859   */\n      swap2\n      swap1\n      pop\n      jump\t// out\n        /* \"#utility.yul\":1865:1955   */\n    tag_40:\n        /* \"#utility.yul\":1899:1906   */\n      0x00\n        /* \"#utility.yul\":1942:1947   */\n      dup2\n        /* \"#utility.yul\":1935:1948   */\n      iszero\n        /* \"#utility.yul\":1928:1949   */\n      iszero\n        /* \"#utility.yul\":1917:1949   */\n      swap1\n      pop\n        /* \"#utility.yul\":1907:1955   */\n      swap2\n      swap1\n      pop\n      jump\t// out\n        /* \"#utility.yul\":1961:2087   */\n    tag_55:\n        /* \"#utility.yul\":1998:2005   */\n      0x00\n        /* \"#utility.yul\":2038:2080   */\n      0xffffffffffffffffffffffffffffffffffffffff\n        /* \"#utility.yul\":2031:2036   */\n      dup3\n        /* \"#utility.yul\":2027:2081   */\n      and\n        /* \"#utility.yul\":2016:2081   */\n      swap1\n      pop\n        /* \"#utility.yul\":2006:2087   */\n      swap2\n      swap1\n      pop\n      jump\t// out\n        /* \"#utility.yul\":2093:2262   */\n    tag_46:\n        /* \"#utility.yul\":2233:2254   */\n      0x5468652064656c6976657279206661696c656400000000000000000000000000\n        /* \"#utility.yul\":2229:2230   */\n      0x00\n        /* \"#utility.yul\":2221:2227   */\n      dup3\n        /* \"#utility.yul\":2217:2231   */\n      add\n        /* \"#utility.yul\":2210:2255   */\n      mstore\n        /* \"#utility.yul\":2199:2262   */\n      pop\n      jump\t// out\n        /* \"#utility.yul\":2268:2406   */\n    tag_33:\n        /* \"#utility.yul\":2349:2381   */\n      tag_60\n        /* \"#utility.yul\":2375:2380   */\n      dup2\n        /* \"#utility.yul\":2349:2381   */\n      tag_52\n      jump\t// in\n    tag_60:\n        /* \"#utility.yul\":2342:2347   */\n      dup2\n        /* \"#utility.yul\":2339:2382   */\n      eq\n        /* \"#utility.yul\":2329:2331   */\n      tag_61\n      jumpi\n        /* \"#utility.yul\":2396:2397   */\n      0x00\n        /* \"#utility.yul\":2393:2394   */\n      dup1\n        /* \"#utility.yul\":2386:2398   */\n      revert\n        /* \"#utility.yul\":2329:2331   */\n    tag_61:\n        /* \"#utility.yul\":2319:2406   */\n      pop\n      jump\t// out\n\n    auxdata: 0xa2646970667358221220fde33ca401b32f408e44808349ada8155079c72212ad5fe7c45ea7b4d87442af64736f6c63430008040033\n}\n",
				"bytecode": {
					"linkReferences": {},
					"object": "6080604052610320806100136000396000f3fe6080604052600436106100385760003560e01c8063636e082b1461004457806374be480614610060578063830c29ae1461007c5761003f565b3661003f57005b600080fd5b61005e600480360381019061005991906101c5565b610098565b005b61007a600480360381019061007591906101c5565b6100ea565b005b610096600480360381019061009191906101c5565b6101ad565b005b8073ffffffffffffffffffffffffffffffffffffffff166108fc670de0b6b3a76400009081150290604051600060405180830381858888f193505050501580156100e6573d6000803e3d6000fd5b5050565b60008173ffffffffffffffffffffffffffffffffffffffff166108fc670de0b6b3a76400009081150290604051600060405180830381858888f1935050505090507f0c46a72a145bed1fc3c2d4b0e023bd11ddb1e3204a898f4119357ecde6d5fe998160405161015a9190610220565b60405180910390a160011515811515146101a9576040517f08c379a00000000000000000000000000000000000000000000000000000000081526004016101a09061023b565b60405180910390fd5b5050565b50565b6000813590506101bf816102d3565b92915050565b6000602082840312156101d757600080fd5b60006101e5848285016101b0565b91505092915050565b6101f78161027e565b82525050565b600061020a60138361025b565b9150610215826102aa565b602082019050919050565b600060208201905061023560008301846101ee565b92915050565b60006020820190508181036000830152610254816101fd565b9050919050565b600082825260208201905092915050565b60006102778261028a565b9050919050565b60008115159050919050565b600073ffffffffffffffffffffffffffffffffffffffff82169050919050565b7f5468652064656c6976657279206661696c656400000000000000000000000000600082015250565b6102dc8161026c565b81146102e757600080fd5b5056fea2646970667358221220fde33ca401b32f408e44808349ada8155079c72212ad5fe7c45ea7b4d87442af64736f6c63430008040033",
					"opcodes": "PUSH1 0x80 PUSH1 0x40 MSTORE PUSH2 0x320 DUP1 PUSH2 0x13 PUSH1 0x0 CODECOPY PUSH1 0x0 RETURN INVALID PUSH1 0x80 PUSH1 0x40 MSTORE PUSH1 0x4 CALLDATASIZE LT PUSH2 0x38 JUMPI PUSH1 0x0 CALLDATALOAD PUSH1 0xE0 SHR DUP1 PUSH4 0x636E082B EQ PUSH2 0x44 JUMPI DUP1 PUSH4 0x74BE4806 EQ PUSH2 0x60 JUMPI DUP1 PUSH4 0x830C29AE EQ PUSH2 0x7C JUMPI PUSH2 0x3F JUMP JUMPDEST CALLDATASIZE PUSH2 0x3F JUMPI STOP JUMPDEST PUSH1 0x0 DUP1 REVERT JUMPDEST PUSH2 0x5E PUSH1 0x4 DUP1 CALLDATASIZE SUB DUP2 ADD SWAP1 PUSH2 0x59 SWAP2 SWAP1 PUSH2 0x1C5 JUMP JUMPDEST PUSH2 0x98 JUMP JUMPDEST STOP JUMPDEST PUSH2 0x7A PUSH1 0x4 DUP1 CALLDATASIZE SUB DUP2 ADD SWAP1 PUSH2 0x75 SWAP2 SWAP1 PUSH2 0x1C5 JUMP JUMPDEST PUSH2 0xEA JUMP JUMPDEST STOP JUMPDEST PUSH2 0x96 PUSH1 0x4 DUP1 CALLDATASIZE SUB DUP2 ADD SWAP1 PUSH2 0x91 SWAP2 SWAP1 PUSH2 0x1C5 JUMP JUMPDEST PUSH2 0x1AD JUMP JUMPDEST STOP JUMPDEST DUP1 PUSH20 0xFFFFFFFFFFFFFFFFFFFFFFFFFFFFFFFFFFFFFFFF AND PUSH2 0x8FC PUSH8 0xDE0B6B3A7640000 SWAP1 DUP2 ISZERO MUL SWAP1 PUSH1 0x40 MLOAD PUSH1 0x0 PUSH1 0x40 MLOAD DUP1 DUP4 SUB DUP2 DUP6 DUP9 DUP9 CALL SWAP4 POP POP POP POP ISZERO DUP1 ISZERO PUSH2 0xE6 JUMPI RETURNDATASIZE PUSH1 0x0 DUP1 RETURNDATACOPY RETURNDATASIZE PUSH1 0x0 REVERT JUMPDEST POP POP JUMP JUMPDEST PUSH1 0x0 DUP2 PUSH20 0xFFFFFFFFFFFFFFFFFFFFFFFFFFFFFFFFFFFFFFFF AND PUSH2 0x8FC PUSH8 0xDE0B6B3A7640000 SWAP1 DUP2 ISZERO MUL SWAP1 PUSH1 0x40 MLOAD PUSH1 0x0 PUSH1 0x40 MLOAD DUP1 DUP4 SUB DUP2 DUP6 DUP9 DUP9 CALL SWAP4 POP POP POP POP SWAP1 POP PUSH32 0xC46A72A145BED1FC3C2D4B0E023BD11DDB1E3204A898F4119357ECDE6D5FE99 DUP2 PUSH1 0x40 MLOAD PUSH2 0x15A SWAP2 SWAP1 PUSH2 0x220 JUMP JUMPDEST PUSH1 0x40 MLOAD DUP1 SWAP2 SUB SWAP1 LOG1 PUSH1 0x1 ISZERO ISZERO DUP2 ISZERO ISZERO EQ PUSH2 0x1A9 JUMPI PUSH1 0x40 MLOAD PUSH32 0x8C379A000000000000000000000000000000000000000000000000000000000 DUP2 MSTORE PUSH1 0x4 ADD PUSH2 0x1A0 SWAP1 PUSH2 0x23B JUMP JUMPDEST PUSH1 0x40 MLOAD DUP1 SWAP2 SUB SWAP1 REVERT JUMPDEST POP POP JUMP JUMPDEST POP JUMP JUMPDEST PUSH1 0x0 DUP2 CALLDATALOAD SWAP1 POP PUSH2 0x1BF DUP2 PUSH2 0x2D3 JUMP JUMPDEST SWAP3 SWAP2 POP POP JUMP JUMPDEST PUSH1 0x0 PUSH1 0x20 DUP3 DUP5 SUB SLT ISZERO PUSH2 0x1D7 JUMPI PUSH1 0x0 DUP1 REVERT JUMPDEST PUSH1 0x0 PUSH2 0x1E5 DUP5 DUP3 DUP6 ADD PUSH2 0x1B0 JUMP JUMPDEST SWAP2 POP POP SWAP3 SWAP2 POP POP JUMP JUMPDEST PUSH2 0x1F7 DUP2 PUSH2 0x27E JUMP JUMPDEST DUP3 MSTORE POP POP JUMP JUMPDEST PUSH1 0x0 PUSH2 0x20A PUSH1 0x13 DUP4 PUSH2 0x25B JUMP JUMPDEST SWAP2 POP PUSH2 0x215 DUP3 PUSH2 0x2AA JUMP JUMPDEST PUSH1 0x20 DUP3 ADD SWAP1 POP SWAP2 SWAP1 POP JUMP JUMPDEST PUSH1 0x0 PUSH1 0x20 DUP3 ADD SWAP1 POP PUSH2 0x235 PUSH1 0x0 DUP4 ADD DUP5 PUSH2 0x1EE JUMP JUMPDEST SWAP3 SWAP2 POP POP JUMP JUMPDEST PUSH1 0x0 PUSH1 0x20 DUP3 ADD SWAP1 POP DUP2 DUP2 SUB PUSH1 0x0 DUP4 ADD MSTORE PUSH2 0x254 DUP2 PUSH2 0x1FD JUMP JUMPDEST SWAP1 POP SWAP2 SWAP1 POP JUMP JUMPDEST PUSH1 0x0 DUP3 DUP3 MSTORE PUSH1 0x20 DUP3 ADD SWAP1 POP SWAP3 SWAP2 POP POP JUMP JUMPDEST PUSH1 0x0 PUSH2 0x277 DUP3 PUSH2 0x28A JUMP JUMPDEST SWAP1 POP SWAP2 SWAP1 POP JUMP JUMPDEST PUSH1 0x0 DUP2 ISZERO ISZERO SWAP1 POP SWAP2 SWAP1 POP JUMP JUMPDEST PUSH1 0x0 PUSH20 0xFFFFFFFFFFFFFFFFFFFFFFFFFFFFFFFFFFFFFFFF DUP3 AND SWAP1 POP SWAP2 SWAP1 POP JUMP JUMPDEST PUSH32 0x5468652064656C6976657279206661696C656400000000000000000000000000 PUSH1 0x0 DUP3 ADD MSTORE POP JUMP JUMPDEST PUSH2 0x2DC DUP2 PUSH2 0x26C JUMP JUMPDEST DUP2 EQ PUSH2 0x2E7 JUMPI PUSH1 0x0 DUP1 REVERT JUMPDEST POP JUMP INVALID LOG2 PUSH5 0x6970667358 0x22 SLT KECCAK256 REVERT 0xE3 EXTCODECOPY LOG4 ADD 0xB3 0x2F BLOCKHASH DUP15 DIFFICULTY DUP1 DUP4 0x49 0xAD 0xA8 ISZERO POP PUSH26 0xC72212AD5FE7C45EA7B4D87442AF64736F6C6343000804003300 "
				},
				"gasEstimates": {
					"creation": {
						"codeDepositCost": "160000",
						"executionCost": "178",
						"totalCost": "160178"
					},
					"external": {
						"sendViaCall(address)": "453",
						"sendViaSend(address)": "infinite",
						"sendViaTransfer(address)": "infinite"
					}
				},
				"methodIdentifiers": {
					"sendViaCall(address)": "830c29ae",
					"sendViaSend(address)": "74be4806",
					"sendViaTransfer(address)": "636e082b"
				}
			},
			"storageLayout": {
				"storage": [],
				"types": null
			},
			"userdoc": {
				"kind": "user",
				"methods": {},
				"version": 1
			}
		}
	}
}