{
	"contracts/2_variable_modifiers.sol": {
		"VariableModifiers": {
			"abi": [
				{
					"inputs": [],
					"name": "boolFalse",
					"outputs": [
						{
							"internalType": "bool",
							"name": "",
							"type": "bool"
						}
					],
					"stateMutability": "view",
					"type": "function"
				},
				{
					"inputs": [],
					"name": "boolTrue",
					"outputs": [
						{
							"internalType": "bool",
							"name": "",
							"type": "bool"
						}
					],
					"stateMutability": "view",
					"type": "function"
				},
				{
					"inputs": [],
					"name": "c",
					"outputs": [
						{
							"internalType": "uint16",
							"name": "",
							"type": "uint16"
						}
					],
					"stateMutability": "view",
					"type": "function"
				},
				{
					"inputs": [],
					"name": "changeToAda",
					"outputs": [],
					"stateMutability": "nonpayable",
					"type": "function"
				},
				{
					"inputs": [],
					"name": "changeToBNB",
					"outputs": [],
					"stateMutability": "nonpayable",
					"type": "function"
				},
				{
					"inputs": [],
					"name": "changeToBTC",
					"outputs": [],
					"stateMutability": "nonpayable",
					"type": "function"
				},
				{
					"inputs": [],
					"name": "changeToEther",
					"outputs": [],
					"stateMutability": "nonpayable",
					"type": "function"
				},
				{
					"inputs": [],
					"name": "defaultChoice",
					"outputs": [
						{
							"internalType": "enum VariableModifiers.tokens",
							"name": "",
							"type": "uint8"
						}
					],
					"stateMutability": "view",
					"type": "function"
				},
				{
					"inputs": [],
					"name": "e",
					"outputs": [
						{
							"internalType": "int32",
							"name": "",
							"type": "int32"
						}
					],
					"stateMutability": "view",
					"type": "function"
				},
				{
					"inputs": [],
					"name": "friendAddress",
					"outputs": [
						{
							"internalType": "address",
							"name": "",
							"type": "address"
						}
					],
					"stateMutability": "view",
					"type": "function"
				},
				{
					"inputs": [],
					"name": "hash_keccak256",
					"outputs": [
						{
							"internalType": "bytes32",
							"name": "",
							"type": "bytes32"
						}
					],
					"stateMutability": "view",
					"type": "function"
				},
				{
					"inputs": [],
					"name": "hash_sha256",
					"outputs": [
						{
							"internalType": "bytes32",
							"name": "",
							"type": "bytes32"
						}
					],
					"stateMutability": "view",
					"type": "function"
				},
				{
					"inputs": [],
					"name": "owner",
					"outputs": [
						{
							"internalType": "address",
							"name": "",
							"type": "address"
						}
					],
					"stateMutability": "view",
					"type": "function"
				},
				{
					"inputs": [],
					"name": "pl",
					"outputs": [
						{
							"internalType": "string",
							"name": "",
							"type": "string"
						}
					],
					"stateMutability": "view",
					"type": "function"
				},
				{
					"inputs": [],
					"name": "state",
					"outputs": [
						{
							"internalType": "enum VariableModifiers.tokens",
							"name": "",
							"type": "uint8"
						}
					],
					"stateMutability": "view",
					"type": "function"
				},
				{
					"inputs": [],
					"name": "surname",
					"outputs": [
						{
							"internalType": "string",
							"name": "",
							"type": "string"
						}
					],
					"stateMutability": "view",
					"type": "function"
				}
			],
			"devdoc": {
				"kind": "dev",
				"methods": {},
				"version": 1
			},
			"evm": {
				"assembly": "    /* \"contracts/2_variable_modifiers.sol\":69:1367  contract VariableModifiers {... */\n  mstore(0x40, 0x80)\n    /* \"contracts/2_variable_modifiers.sol\":167:170  255 */\n  0xff\n    /* \"contracts/2_variable_modifiers.sol\":157:170  uint8 b = 255 */\n  0x01\n  exp(0x0100, 0x00)\n  dup2\n  sload\n  dup2\n  0xff\n  mul\n  not\n  and\n  swap1\n  dup4\n  0xff\n  and\n  mul\n  or\n  swap1\n  sstore\n  pop\n    /* \"contracts/2_variable_modifiers.sol\":194:197  811 */\n  0x032b\n    /* \"contracts/2_variable_modifiers.sol\":176:197  uint16 public c = 811 */\n  0x01\n  dup1\n  0x0100\n  exp\n  dup2\n  sload\n  dup2\n  0xffff\n  mul\n  not\n  and\n  swap1\n  dup4\n  0xffff\n  and\n  mul\n  or\n  swap1\n  sstore\n  pop\n    /* \"contracts/2_variable_modifiers.sol\":250:254  -255 */\n  0xffffffffffffffffffffffffffffffffffffffffffffffffffffffffffffff01\n    /* \"contracts/2_variable_modifiers.sol\":242:254  int d = -255 */\n  0x02\n  sstore\n    /* \"contracts/2_variable_modifiers.sol\":277:281  -255 */\n  0xffffffffffffffffffffffffffffffffffffffffffffffffffffffffffffff01\n    /* \"contracts/2_variable_modifiers.sol\":260:281  int32 public e = -255 */\n  0x03\n  exp(0x0100, 0x00)\n  dup2\n  sload\n  dup2\n  0xffffffff\n  mul\n  not\n  and\n  swap1\n  dup4\n  0x03\n  signextend\n  0xffffffff\n  and\n  mul\n  or\n  swap1\n  sstore\n  pop\n    /* \"contracts/2_variable_modifiers.sol\":329:352  string name = \"Roberto\" */\n  mload(0x40)\n  dup1\n  0x40\n  add\n  0x40\n  mstore\n  dup1\n  0x07\n  dup2\n  mstore\n  0x20\n  add\n  0x526f626572746f00000000000000000000000000000000000000000000000000\n  dup2\n  mstore\n  pop\n  0x05\n  swap1\n  dup1\n  mload\n  swap1\n  0x20\n  add\n  swap1\n  tag_1\n  swap3\n  swap2\n  swap1\n  tag_2\n  jump\t// in\ntag_1:\n  pop\n    /* \"contracts/2_variable_modifiers.sol\":358:387  string public pl = \"Solidity\" */\n  mload(0x40)\n  dup1\n  0x40\n  add\n  0x40\n  mstore\n  dup1\n  0x08\n  dup2\n  mstore\n  0x20\n  add\n  0x536f6c6964697479000000000000000000000000000000000000000000000000\n  dup2\n  mstore\n  pop\n  0x06\n  swap1\n  dup1\n  mload\n  swap1\n  0x20\n  add\n  swap1\n  tag_3\n  swap3\n  swap2\n  swap1\n  tag_2\n  jump\t// in\ntag_3:\n  pop\n    /* \"contracts/2_variable_modifiers.sol\":451:455  true */\n  0x01\n    /* \"contracts/2_variable_modifiers.sol\":428:455  bool public boolTrue = true */\n  0x07\n  exp(0x0100, 0x01)\n  dup2\n  sload\n  dup2\n  0xff\n  mul\n  not\n  and\n  swap1\n  dup4\n  iszero\n  iszero\n  mul\n  or\n  swap1\n  sstore\n  pop\n    /* \"contracts/2_variable_modifiers.sol\":485:490  false */\n  0x00\n    /* \"contracts/2_variable_modifiers.sol\":461:490  bool public boolFalse = false */\n  0x07\n  exp(0x0100, 0x02)\n  dup2\n  sload\n  dup2\n  0xff\n  mul\n  not\n  and\n  swap1\n  dup4\n  iszero\n  iszero\n  mul\n  or\n  swap1\n  sstore\n  pop\n    /* \"contracts/2_variable_modifiers.sol\":692:696  name */\n  0x05\n    /* \"contracts/2_variable_modifiers.sol\":698:705  surname */\n  0x04\n    /* \"contracts/2_variable_modifiers.sol\":675:706  abi.encodePacked(name, surname) */\n  add(0x20, mload(0x40))\n  tag_4\n  swap3\n  swap2\n  swap1\n  tag_5\n  jump\t// in\ntag_4:\n  mload(0x40)\n  0x20\n  dup2\n  dup4\n  sub\n  sub\n  dup2\n  mstore\n  swap1\n  0x40\n  mstore\n    /* \"contracts/2_variable_modifiers.sol\":665:707  keccak256(abi.encodePacked(name, surname)) */\n  dup1\n  mload\n  swap1\n  0x20\n  add\n  keccak256\n    /* \"contracts/2_variable_modifiers.sol\":633:707  bytes32 public hash_keccak256 = keccak256(abi.encodePacked(name, surname)) */\n  0x0b\n  sstore\n    /* \"contracts/2_variable_modifiers.sol\":742:781  sha256(abi.encodePacked(\"Henlo world\")) */\n  0x02\n    /* \"contracts/2_variable_modifiers.sol\":749:780  abi.encodePacked(\"Henlo world\") */\n  add(0x20, mload(0x40))\n  tag_6\n  swap1\n  tag_7\n  jump\t// in\ntag_6:\n  mload(0x40)\n  0x20\n  dup2\n  dup4\n  sub\n  sub\n  dup2\n  mstore\n  swap1\n  0x40\n  mstore\n    /* \"contracts/2_variable_modifiers.sol\":742:781  sha256(abi.encodePacked(\"Henlo world\")) */\n  mload(0x40)\n  tag_8\n  swap2\n  swap1\n  tag_9\n  jump\t// in\ntag_8:\n  0x20\n  mload(0x40)\n  dup1\n  dup4\n  sub\n  dup2\n  dup6\n  gas\n  staticcall\n  iszero\n  dup1\n  iszero\n  tag_11\n  jumpi\n  returndatasize\n  0x00\n  dup1\n  returndatacopy\n  revert(0x00, returndatasize)\ntag_11:\n  pop\n  pop\n  pop\n  mload(0x40)\n  returndatasize\n  not(0x1f)\n  0x1f\n  dup3\n  add\n  and\n  dup3\n  add\n  dup1\n  0x40\n  mstore\n  pop\n  dup2\n  add\n  swap1\n  tag_12\n  swap2\n  swap1\n  tag_13\n  jump\t// in\ntag_12:\n    /* \"contracts/2_variable_modifiers.sol\":713:781  bytes32 public hash_sha256 = sha256(abi.encodePacked(\"Henlo world\")) */\n  0x0c\n  sstore\n    /* \"contracts/2_variable_modifiers.sol\":857:899  0x5B38Da6a701c568545dCfcB03FcB875f56beddC4 */\n  0x5b38da6a701c568545dcfcb03fcb875f56beddc4\n    /* \"contracts/2_variable_modifiers.sol\":826:899  address public friendAddress = 0x5B38Da6a701c568545dCfcB03FcB875f56beddC4 */\n  0x0e\n  exp(0x0100, 0x00)\n  dup2\n  sload\n  dup2\n  0xffffffffffffffffffffffffffffffffffffffff\n  mul\n  not\n  and\n  swap1\n  dup4\n  0xffffffffffffffffffffffffffffffffffffffff\n  and\n  mul\n  or\n  swap1\n  sstore\n  pop\n    /* \"contracts/2_variable_modifiers.sol\":928:938  msg.sender */\n  caller\n    /* \"contracts/2_variable_modifiers.sol\":905:938  address public owner = msg.sender */\n  0x0f\n  exp(0x0100, 0x00)\n  dup2\n  sload\n  dup2\n  0xffffffffffffffffffffffffffffffffffffffff\n  mul\n  not\n  and\n  swap1\n  dup4\n  0xffffffffffffffffffffffffffffffffffffffff\n  and\n  mul\n  or\n  swap1\n  sstore\n  pop\n    /* \"contracts/2_variable_modifiers.sol\":69:1367  contract VariableModifiers {... */\n  callvalue\n  dup1\n  iszero\n  tag_14\n  jumpi\n  0x00\n  dup1\n  revert\ntag_14:\n  pop\n  jump(tag_15)\ntag_2:\n  dup3\n  dup1\n  sload\n  tag_16\n  swap1\n  tag_17\n  jump\t// in\ntag_16:\n  swap1\n  0x00\n  mstore\n  keccak256(0x00, 0x20)\n  swap1\n  0x1f\n  add\n  0x20\n  swap1\n  div\n  dup2\n  add\n  swap3\n  dup3\n  tag_19\n  jumpi\n  0x00\n  dup6\n  sstore\n  jump(tag_18)\ntag_19:\n  dup3\n  0x1f\n  lt\n  tag_20\n  jumpi\n  dup1\n  mload\n  not(0xff)\n  and\n  dup4\n  dup1\n  add\n  or\n  dup6\n  sstore\n  jump(tag_18)\ntag_20:\n  dup3\n  dup1\n  add\n  0x01\n  add\n  dup6\n  sstore\n  dup3\n  iszero\n  tag_18\n  jumpi\n  swap2\n  dup3\n  add\ntag_21:\n  dup3\n  dup2\n  gt\n  iszero\n  tag_22\n  jumpi\n  dup3\n  mload\n  dup3\n  sstore\n  swap2\n  0x20\n  add\n  swap2\n  swap1\n  0x01\n  add\n  swap1\n  jump(tag_21)\ntag_22:\ntag_18:\n  pop\n  swap1\n  pop\n  tag_23\n  swap2\n  swap1\n  tag_24\n  jump\t// in\ntag_23:\n  pop\n  swap1\n  jump\t// out\ntag_24:\ntag_25:\n  dup1\n  dup3\n  gt\n  iszero\n  tag_26\n  jumpi\n  0x00\n  dup2\n  0x00\n  swap1\n  sstore\n  pop\n  0x01\n  add\n  jump(tag_25)\ntag_26:\n  pop\n  swap1\n  jump\t// out\n    /* \"#utility.yul\":7:150   */\ntag_28:\n    /* \"#utility.yul\":64:69   */\n  0x00\n    /* \"#utility.yul\":95:101   */\n  dup2\n    /* \"#utility.yul\":89:102   */\n  mload\n    /* \"#utility.yul\":80:102   */\n  swap1\n  pop\n    /* \"#utility.yul\":111:144   */\n  tag_30\n    /* \"#utility.yul\":138:143   */\n  dup2\n    /* \"#utility.yul\":111:144   */\n  tag_31\n  jump\t// in\ntag_30:\n    /* \"#utility.yul\":70:150   */\n  swap3\n  swap2\n  pop\n  pop\n  jump\t// out\n    /* \"#utility.yul\":156:507   */\ntag_13:\n    /* \"#utility.yul\":226:232   */\n  0x00\n    /* \"#utility.yul\":275:277   */\n  0x20\n    /* \"#utility.yul\":263:272   */\n  dup3\n    /* \"#utility.yul\":254:261   */\n  dup5\n    /* \"#utility.yul\":250:273   */\n  sub\n    /* \"#utility.yul\":246:278   */\n  slt\n    /* \"#utility.yul\":243:245   */\n  iszero\n  tag_33\n  jumpi\n    /* \"#utility.yul\":281:360   */\n  tag_34\n  tag_35\n  jump\t// in\ntag_34:\n    /* \"#utility.yul\":243:245   */\ntag_33:\n    /* \"#utility.yul\":401:402   */\n  0x00\n    /* \"#utility.yul\":426:490   */\n  tag_36\n    /* \"#utility.yul\":482:489   */\n  dup5\n    /* \"#utility.yul\":473:479   */\n  dup3\n    /* \"#utility.yul\":462:471   */\n  dup6\n    /* \"#utility.yul\":458:480   */\n  add\n    /* \"#utility.yul\":426:490   */\n  tag_28\n  jump\t// in\ntag_36:\n    /* \"#utility.yul\":416:490   */\n  swap2\n  pop\n    /* \"#utility.yul\":372:500   */\n  pop\n    /* \"#utility.yul\":233:507   */\n  swap3\n  swap2\n  pop\n  pop\n  jump\t// out\n    /* \"#utility.yul\":513:886   */\ntag_37:\n    /* \"#utility.yul\":617:620   */\n  0x00\n    /* \"#utility.yul\":645:683   */\n  tag_39\n    /* \"#utility.yul\":677:682   */\n  dup3\n    /* \"#utility.yul\":645:683   */\n  tag_40\n  jump\t// in\ntag_39:\n    /* \"#utility.yul\":699:787   */\n  tag_41\n    /* \"#utility.yul\":780:786   */\n  dup2\n    /* \"#utility.yul\":775:778   */\n  dup6\n    /* \"#utility.yul\":699:787   */\n  tag_42\n  jump\t// in\ntag_41:\n    /* \"#utility.yul\":692:787   */\n  swap4\n  pop\n    /* \"#utility.yul\":796:848   */\n  tag_43\n    /* \"#utility.yul\":841:847   */\n  dup2\n    /* \"#utility.yul\":836:839   */\n  dup6\n    /* \"#utility.yul\":829:833   */\n  0x20\n    /* \"#utility.yul\":822:827   */\n  dup7\n    /* \"#utility.yul\":818:834   */\n  add\n    /* \"#utility.yul\":796:848   */\n  tag_44\n  jump\t// in\ntag_43:\n    /* \"#utility.yul\":873:879   */\n  dup1\n    /* \"#utility.yul\":868:871   */\n  dup5\n    /* \"#utility.yul\":864:880   */\n  add\n    /* \"#utility.yul\":857:880   */\n  swap2\n  pop\n    /* \"#utility.yul\":621:886   */\n  pop\n  swap3\n  swap2\n  pop\n  pop\n  jump\t// out\n    /* \"#utility.yul\":916:1761   */\ntag_45:\n    /* \"#utility.yul\":1019:1022   */\n  0x00\n    /* \"#utility.yul\":1056:1061   */\n  dup2\n    /* \"#utility.yul\":1050:1062   */\n  sload\n    /* \"#utility.yul\":1085:1121   */\n  tag_47\n    /* \"#utility.yul\":1111:1120   */\n  dup2\n    /* \"#utility.yul\":1085:1121   */\n  tag_17\n  jump\t// in\ntag_47:\n    /* \"#utility.yul\":1137:1226   */\n  tag_48\n    /* \"#utility.yul\":1219:1225   */\n  dup2\n    /* \"#utility.yul\":1214:1217   */\n  dup7\n    /* \"#utility.yul\":1137:1226   */\n  tag_49\n  jump\t// in\ntag_48:\n    /* \"#utility.yul\":1130:1226   */\n  swap5\n  pop\n    /* \"#utility.yul\":1257:1258   */\n  0x01\n    /* \"#utility.yul\":1246:1255   */\n  dup3\n    /* \"#utility.yul\":1242:1259   */\n  and\n    /* \"#utility.yul\":1273:1274   */\n  0x00\n    /* \"#utility.yul\":1268:1405   */\n  dup2\n  eq\n  tag_51\n  jumpi\n    /* \"#utility.yul\":1419:1420   */\n  0x01\n    /* \"#utility.yul\":1414:1755   */\n  dup2\n  eq\n  tag_52\n  jumpi\n    /* \"#utility.yul\":1235:1755   */\n  jump(tag_50)\n    /* \"#utility.yul\":1268:1405   */\ntag_51:\n    /* \"#utility.yul\":1352:1356   */\n  0xff\n    /* \"#utility.yul\":1348:1357   */\n  not\n    /* \"#utility.yul\":1337:1346   */\n  dup4\n    /* \"#utility.yul\":1333:1358   */\n  and\n    /* \"#utility.yul\":1328:1331   */\n  dup7\n    /* \"#utility.yul\":1321:1359   */\n  mstore\n    /* \"#utility.yul\":1388:1394   */\n  dup2\n    /* \"#utility.yul\":1383:1386   */\n  dup7\n    /* \"#utility.yul\":1379:1395   */\n  add\n    /* \"#utility.yul\":1372:1395   */\n  swap4\n  pop\n    /* \"#utility.yul\":1268:1405   */\n  jump(tag_50)\n    /* \"#utility.yul\":1414:1755   */\ntag_52:\n    /* \"#utility.yul\":1481:1519   */\n  tag_53\n    /* \"#utility.yul\":1513:1518   */\n  dup6\n    /* \"#utility.yul\":1481:1519   */\n  tag_54\n  jump\t// in\ntag_53:\n    /* \"#utility.yul\":1541:1542   */\n  0x00\n    /* \"#utility.yul\":1555:1709   */\ntag_55:\n    /* \"#utility.yul\":1569:1575   */\n  dup4\n    /* \"#utility.yul\":1566:1567   */\n  dup2\n    /* \"#utility.yul\":1563:1576   */\n  lt\n    /* \"#utility.yul\":1555:1709   */\n  iszero\n  tag_57\n  jumpi\n    /* \"#utility.yul\":1643:1650   */\n  dup2\n    /* \"#utility.yul\":1637:1651   */\n  sload\n    /* \"#utility.yul\":1633:1634   */\n  dup2\n    /* \"#utility.yul\":1628:1631   */\n  dup10\n    /* \"#utility.yul\":1624:1635   */\n  add\n    /* \"#utility.yul\":1617:1652   */\n  mstore\n    /* \"#utility.yul\":1693:1694   */\n  0x01\n    /* \"#utility.yul\":1684:1691   */\n  dup3\n    /* \"#utility.yul\":1680:1695   */\n  add\n    /* \"#utility.yul\":1669:1695   */\n  swap2\n  pop\n    /* \"#utility.yul\":1591:1595   */\n  0x20\n    /* \"#utility.yul\":1588:1589   */\n  dup2\n    /* \"#utility.yul\":1584:1596   */\n  add\n    /* \"#utility.yul\":1579:1596   */\n  swap1\n  pop\n    /* \"#utility.yul\":1555:1709   */\n  jump(tag_55)\ntag_57:\n    /* \"#utility.yul\":1738:1744   */\n  dup4\n    /* \"#utility.yul\":1733:1736   */\n  dup9\n    /* \"#utility.yul\":1729:1745   */\n  add\n    /* \"#utility.yul\":1722:1745   */\n  swap6\n  pop\n    /* \"#utility.yul\":1421:1755   */\n  pop\n  pop\n    /* \"#utility.yul\":1235:1755   */\ntag_50:\n  pop\n    /* \"#utility.yul\":1023:1761   */\n  pop\n  pop\n  swap3\n  swap2\n  pop\n  pop\n  jump\t// out\n    /* \"#utility.yul\":1767:2169   */\ntag_58:\n    /* \"#utility.yul\":1927:1930   */\n  0x00\n    /* \"#utility.yul\":1948:2033   */\n  tag_60\n    /* \"#utility.yul\":2030:2032   */\n  0x0b\n    /* \"#utility.yul\":2025:2028   */\n  dup4\n    /* \"#utility.yul\":1948:2033   */\n  tag_49\n  jump\t// in\ntag_60:\n    /* \"#utility.yul\":1941:2033   */\n  swap2\n  pop\n    /* \"#utility.yul\":2042:2135   */\n  tag_61\n    /* \"#utility.yul\":2131:2134   */\n  dup3\n    /* \"#utility.yul\":2042:2135   */\n  tag_62\n  jump\t// in\ntag_61:\n    /* \"#utility.yul\":2160:2162   */\n  0x0b\n    /* \"#utility.yul\":2155:2158   */\n  dup3\n    /* \"#utility.yul\":2151:2163   */\n  add\n    /* \"#utility.yul\":2144:2163   */\n  swap1\n  pop\n    /* \"#utility.yul\":1931:2169   */\n  swap2\n  swap1\n  pop\n  jump\t// out\n    /* \"#utility.yul\":2175:2446   */\ntag_9:\n    /* \"#utility.yul\":2305:2308   */\n  0x00\n    /* \"#utility.yul\":2327:2420   */\n  tag_64\n    /* \"#utility.yul\":2416:2419   */\n  dup3\n    /* \"#utility.yul\":2407:2413   */\n  dup5\n    /* \"#utility.yul\":2327:2420   */\n  tag_37\n  jump\t// in\ntag_64:\n    /* \"#utility.yul\":2320:2420   */\n  swap2\n  pop\n    /* \"#utility.yul\":2437:2440   */\n  dup2\n    /* \"#utility.yul\":2430:2440   */\n  swap1\n  pop\n    /* \"#utility.yul\":2309:2446   */\n  swap3\n  swap2\n  pop\n  pop\n  jump\t// out\n    /* \"#utility.yul\":2452:2875   */\ntag_5:\n    /* \"#utility.yul\":2626:2629   */\n  0x00\n    /* \"#utility.yul\":2648:2740   */\n  tag_66\n    /* \"#utility.yul\":2736:2739   */\n  dup3\n    /* \"#utility.yul\":2727:2733   */\n  dup6\n    /* \"#utility.yul\":2648:2740   */\n  tag_45\n  jump\t// in\ntag_66:\n    /* \"#utility.yul\":2641:2740   */\n  swap2\n  pop\n    /* \"#utility.yul\":2757:2849   */\n  tag_67\n    /* \"#utility.yul\":2845:2848   */\n  dup3\n    /* \"#utility.yul\":2836:2842   */\n  dup5\n    /* \"#utility.yul\":2757:2849   */\n  tag_45\n  jump\t// in\ntag_67:\n    /* \"#utility.yul\":2750:2849   */\n  swap2\n  pop\n    /* \"#utility.yul\":2866:2869   */\n  dup2\n    /* \"#utility.yul\":2859:2869   */\n  swap1\n  pop\n    /* \"#utility.yul\":2630:2875   */\n  swap4\n  swap3\n  pop\n  pop\n  pop\n  jump\t// out\n    /* \"#utility.yul\":2881:3262   */\ntag_7:\n    /* \"#utility.yul\":3066:3069   */\n  0x00\n    /* \"#utility.yul\":3088:3236   */\n  tag_69\n    /* \"#utility.yul\":3232:3235   */\n  dup3\n    /* \"#utility.yul\":3088:3236   */\n  tag_58\n  jump\t// in\ntag_69:\n    /* \"#utility.yul\":3081:3236   */\n  swap2\n  pop\n    /* \"#utility.yul\":3253:3256   */\n  dup2\n    /* \"#utility.yul\":3246:3256   */\n  swap1\n  pop\n    /* \"#utility.yul\":3070:3262   */\n  swap2\n  swap1\n  pop\n  jump\t// out\n    /* \"#utility.yul\":3349:3490   */\ntag_54:\n    /* \"#utility.yul\":3398:3402   */\n  0x00\n    /* \"#utility.yul\":3421:3424   */\n  dup2\n    /* \"#utility.yul\":3413:3424   */\n  swap1\n  pop\n    /* \"#utility.yul\":3444:3447   */\n  dup2\n    /* \"#utility.yul\":3441:3442   */\n  0x00\n    /* \"#utility.yul\":3434:3448   */\n  mstore\n    /* \"#utility.yul\":3478:3482   */\n  0x20\n    /* \"#utility.yul\":3475:3476   */\n  0x00\n    /* \"#utility.yul\":3465:3483   */\n  keccak256\n    /* \"#utility.yul\":3457:3483   */\n  swap1\n  pop\n    /* \"#utility.yul\":3403:3490   */\n  swap2\n  swap1\n  pop\n  jump\t// out\n    /* \"#utility.yul\":3496:3594   */\ntag_40:\n    /* \"#utility.yul\":3547:3553   */\n  0x00\n    /* \"#utility.yul\":3581:3586   */\n  dup2\n    /* \"#utility.yul\":3575:3587   */\n  mload\n    /* \"#utility.yul\":3565:3587   */\n  swap1\n  pop\n    /* \"#utility.yul\":3554:3594   */\n  swap2\n  swap1\n  pop\n  jump\t// out\n    /* \"#utility.yul\":3600:3747   */\ntag_42:\n    /* \"#utility.yul\":3701:3712   */\n  0x00\n    /* \"#utility.yul\":3738:3741   */\n  dup2\n    /* \"#utility.yul\":3723:3741   */\n  swap1\n  pop\n    /* \"#utility.yul\":3713:3747   */\n  swap3\n  swap2\n  pop\n  pop\n  jump\t// out\n    /* \"#utility.yul\":3753:3901   */\ntag_49:\n    /* \"#utility.yul\":3855:3866   */\n  0x00\n    /* \"#utility.yul\":3892:3895   */\n  dup2\n    /* \"#utility.yul\":3877:3895   */\n  swap1\n  pop\n    /* \"#utility.yul\":3867:3901   */\n  swap3\n  swap2\n  pop\n  pop\n  jump\t// out\n    /* \"#utility.yul\":3907:3984   */\ntag_76:\n    /* \"#utility.yul\":3944:3951   */\n  0x00\n    /* \"#utility.yul\":3973:3978   */\n  dup2\n    /* \"#utility.yul\":3962:3978   */\n  swap1\n  pop\n    /* \"#utility.yul\":3952:3984   */\n  swap2\n  swap1\n  pop\n  jump\t// out\n    /* \"#utility.yul\":3990:4297   */\ntag_44:\n    /* \"#utility.yul\":4058:4059   */\n  0x00\n    /* \"#utility.yul\":4068:4181   */\ntag_79:\n    /* \"#utility.yul\":4082:4088   */\n  dup4\n    /* \"#utility.yul\":4079:4080   */\n  dup2\n    /* \"#utility.yul\":4076:4089   */\n  lt\n    /* \"#utility.yul\":4068:4181   */\n  iszero\n  tag_81\n  jumpi\n    /* \"#utility.yul\":4167:4168   */\n  dup1\n    /* \"#utility.yul\":4162:4165   */\n  dup3\n    /* \"#utility.yul\":4158:4169   */\n  add\n    /* \"#utility.yul\":4152:4170   */\n  mload\n    /* \"#utility.yul\":4148:4149   */\n  dup2\n    /* \"#utility.yul\":4143:4146   */\n  dup5\n    /* \"#utility.yul\":4139:4150   */\n  add\n    /* \"#utility.yul\":4132:4171   */\n  mstore\n    /* \"#utility.yul\":4104:4106   */\n  0x20\n    /* \"#utility.yul\":4101:4102   */\n  dup2\n    /* \"#utility.yul\":4097:4107   */\n  add\n    /* \"#utility.yul\":4092:4107   */\n  swap1\n  pop\n    /* \"#utility.yul\":4068:4181   */\n  jump(tag_79)\ntag_81:\n    /* \"#utility.yul\":4199:4205   */\n  dup4\n    /* \"#utility.yul\":4196:4197   */\n  dup2\n    /* \"#utility.yul\":4193:4206   */\n  gt\n    /* \"#utility.yul\":4190:4192   */\n  iszero\n  tag_82\n  jumpi\n    /* \"#utility.yul\":4279:4280   */\n  0x00\n    /* \"#utility.yul\":4270:4276   */\n  dup5\n    /* \"#utility.yul\":4265:4268   */\n  dup5\n    /* \"#utility.yul\":4261:4277   */\n  add\n    /* \"#utility.yul\":4254:4281   */\n  mstore\n    /* \"#utility.yul\":4190:4192   */\ntag_82:\n    /* \"#utility.yul\":4039:4297   */\n  pop\n  pop\n  pop\n  pop\n  jump\t// out\n    /* \"#utility.yul\":4303:4623   */\ntag_17:\n    /* \"#utility.yul\":4347:4353   */\n  0x00\n    /* \"#utility.yul\":4384:4385   */\n  0x02\n    /* \"#utility.yul\":4378:4382   */\n  dup3\n    /* \"#utility.yul\":4374:4386   */\n  div\n    /* \"#utility.yul\":4364:4386   */\n  swap1\n  pop\n    /* \"#utility.yul\":4431:4432   */\n  0x01\n    /* \"#utility.yul\":4425:4429   */\n  dup3\n    /* \"#utility.yul\":4421:4433   */\n  and\n    /* \"#utility.yul\":4452:4470   */\n  dup1\n    /* \"#utility.yul\":4442:4444   */\n  tag_84\n  jumpi\n    /* \"#utility.yul\":4508:4512   */\n  0x7f\n    /* \"#utility.yul\":4500:4506   */\n  dup3\n    /* \"#utility.yul\":4496:4513   */\n  and\n    /* \"#utility.yul\":4486:4513   */\n  swap2\n  pop\n    /* \"#utility.yul\":4442:4444   */\ntag_84:\n    /* \"#utility.yul\":4570:4572   */\n  0x20\n    /* \"#utility.yul\":4562:4568   */\n  dup3\n    /* \"#utility.yul\":4559:4573   */\n  lt\n    /* \"#utility.yul\":4539:4557   */\n  dup2\n    /* \"#utility.yul\":4536:4574   */\n  eq\n    /* \"#utility.yul\":4533:4535   */\n  iszero\n  tag_85\n  jumpi\n    /* \"#utility.yul\":4589:4607   */\n  tag_86\n  tag_87\n  jump\t// in\ntag_86:\n    /* \"#utility.yul\":4533:4535   */\ntag_85:\n    /* \"#utility.yul\":4354:4623   */\n  pop\n  swap2\n  swap1\n  pop\n  jump\t// out\n    /* \"#utility.yul\":4629:4809   */\ntag_87:\n    /* \"#utility.yul\":4677:4754   */\n  0x4e487b7100000000000000000000000000000000000000000000000000000000\n    /* \"#utility.yul\":4674:4675   */\n  0x00\n    /* \"#utility.yul\":4667:4755   */\n  mstore\n    /* \"#utility.yul\":4774:4778   */\n  0x22\n    /* \"#utility.yul\":4771:4772   */\n  0x04\n    /* \"#utility.yul\":4764:4779   */\n  mstore\n    /* \"#utility.yul\":4798:4802   */\n  0x24\n    /* \"#utility.yul\":4795:4796   */\n  0x00\n    /* \"#utility.yul\":4788:4803   */\n  revert\n    /* \"#utility.yul\":4938:5055   */\ntag_35:\n    /* \"#utility.yul\":5047:5048   */\n  0x00\n    /* \"#utility.yul\":5044:5045   */\n  dup1\n    /* \"#utility.yul\":5037:5049   */\n  revert\n    /* \"#utility.yul\":5061:5222   */\ntag_62:\n    /* \"#utility.yul\":5201:5214   */\n  0x48656e6c6f20776f726c64000000000000000000000000000000000000000000\n    /* \"#utility.yul\":5197:5198   */\n  0x00\n    /* \"#utility.yul\":5189:5195   */\n  dup3\n    /* \"#utility.yul\":5185:5199   */\n  add\n    /* \"#utility.yul\":5178:5215   */\n  mstore\n    /* \"#utility.yul\":5167:5222   */\n  pop\n  jump\t// out\n    /* \"#utility.yul\":5228:5350   */\ntag_31:\n    /* \"#utility.yul\":5301:5325   */\n  tag_94\n    /* \"#utility.yul\":5319:5324   */\n  dup2\n    /* \"#utility.yul\":5301:5325   */\n  tag_76\n  jump\t// in\ntag_94:\n    /* \"#utility.yul\":5294:5299   */\n  dup2\n    /* \"#utility.yul\":5291:5326   */\n  eq\n    /* \"#utility.yul\":5281:5283   */\n  tag_95\n  jumpi\n    /* \"#utility.yul\":5340:5341   */\n  0x00\n    /* \"#utility.yul\":5337:5338   */\n  dup1\n    /* \"#utility.yul\":5330:5342   */\n  revert\n    /* \"#utility.yul\":5281:5283   */\ntag_95:\n    /* \"#utility.yul\":5271:5350   */\n  pop\n  jump\t// out\n    /* \"contracts/2_variable_modifiers.sol\":69:1367  contract VariableModifiers {... */\ntag_15:\n  dataSize(sub_0)\n  dup1\n  dataOffset(sub_0)\n  0x00\n  codecopy\n  0x00\n  return\nstop\n\nsub_0: assembly {\n        /* \"contracts/2_variable_modifiers.sol\":69:1367  contract VariableModifiers {... */\n      mstore(0x40, 0x80)\n      callvalue\n      dup1\n      iszero\n      tag_1\n      jumpi\n      0x00\n      dup1\n      revert\n    tag_1:\n      pop\n      jumpi(tag_2, lt(calldatasize, 0x04))\n      shr(0xe0, calldataload(0x00))\n      dup1\n      0x91d101af\n      gt\n      tag_19\n      jumpi\n      dup1\n      0xc4370ebf\n      gt\n      tag_20\n      jumpi\n      dup1\n      0xc4370ebf\n      eq\n      tag_15\n      jumpi\n      dup1\n      0xcd99a846\n      eq\n      tag_16\n      jumpi\n      dup1\n      0xff4479d8\n      eq\n      tag_17\n      jumpi\n      dup1\n      0xffae15ba\n      eq\n      tag_18\n      jumpi\n      jump(tag_2)\n    tag_20:\n      dup1\n      0x91d101af\n      eq\n      tag_11\n      jumpi\n      dup1\n      0xb38fee92\n      eq\n      tag_12\n      jumpi\n      dup1\n      0xc19d93fb\n      eq\n      tag_13\n      jumpi\n      dup1\n      0xc3da42b8\n      eq\n      tag_14\n      jumpi\n      jump(tag_2)\n    tag_19:\n      dup1\n      0x62b57af4\n      gt\n      tag_21\n      jumpi\n      dup1\n      0x62b57af4\n      eq\n      tag_7\n      jumpi\n      dup1\n      0x66e41d20\n      eq\n      tag_8\n      jumpi\n      dup1\n      0x8da5cb5b\n      eq\n      tag_9\n      jumpi\n      dup1\n      0x90e1437c\n      eq\n      tag_10\n      jumpi\n      jump(tag_2)\n    tag_21:\n      dup1\n      0x0b9239fb\n      eq\n      tag_3\n      jumpi\n      dup1\n      0x222a90ac\n      eq\n      tag_4\n      jumpi\n      dup1\n      0x42fb0109\n      eq\n      tag_5\n      jumpi\n      dup1\n      0x5c480680\n      eq\n      tag_6\n      jumpi\n    tag_2:\n      0x00\n      dup1\n      revert\n        /* \"contracts/2_variable_modifiers.sol\":826:899  address public friendAddress = 0x5B38Da6a701c568545dCfcB03FcB875f56beddC4 */\n    tag_3:\n      tag_22\n      tag_23\n      jump\t// in\n    tag_22:\n      mload(0x40)\n      tag_24\n      swap2\n      swap1\n      tag_25\n      jump\t// in\n    tag_24:\n      mload(0x40)\n      dup1\n      swap2\n      sub\n      swap1\n      return\n        /* \"contracts/2_variable_modifiers.sol\":461:490  bool public boolFalse = false */\n    tag_4:\n      tag_26\n      tag_27\n      jump\t// in\n    tag_26:\n      mload(0x40)\n      tag_28\n      swap2\n      swap1\n      tag_29\n      jump\t// in\n    tag_28:\n      mload(0x40)\n      dup1\n      swap2\n      sub\n      swap1\n      return\n        /* \"contracts/2_variable_modifiers.sol\":428:455  bool public boolTrue = true */\n    tag_5:\n      tag_30\n      tag_31\n      jump\t// in\n    tag_30:\n      mload(0x40)\n      tag_32\n      swap2\n      swap1\n      tag_29\n      jump\t// in\n    tag_32:\n      mload(0x40)\n      dup1\n      swap2\n      sub\n      swap1\n      return\n        /* \"contracts/2_variable_modifiers.sol\":633:707  bytes32 public hash_keccak256 = keccak256(abi.encodePacked(name, surname)) */\n    tag_6:\n      tag_33\n      tag_34\n      jump\t// in\n    tag_33:\n      mload(0x40)\n      tag_35\n      swap2\n      swap1\n      tag_36\n      jump\t// in\n    tag_35:\n      mload(0x40)\n      dup1\n      swap2\n      sub\n      swap1\n      return\n        /* \"contracts/2_variable_modifiers.sol\":1158:1223  function changeToAda() public {... */\n    tag_7:\n      tag_37\n      tag_38\n      jump\t// in\n    tag_37:\n      stop\n        /* \"contracts/2_variable_modifiers.sol\":713:781  bytes32 public hash_sha256 = sha256(abi.encodePacked(\"Henlo world\")) */\n    tag_8:\n      tag_39\n      tag_40\n      jump\t// in\n    tag_39:\n      mload(0x40)\n      tag_41\n      swap2\n      swap1\n      tag_36\n      jump\t// in\n    tag_41:\n      mload(0x40)\n      dup1\n      swap2\n      sub\n      swap1\n      return\n        /* \"contracts/2_variable_modifiers.sol\":905:938  address public owner = msg.sender */\n    tag_9:\n      tag_42\n      tag_43\n      jump\t// in\n    tag_42:\n      mload(0x40)\n      tag_44\n      swap2\n      swap1\n      tag_25\n      jump\t// in\n    tag_44:\n      mload(0x40)\n      dup1\n      swap2\n      sub\n      swap1\n      return\n        /* \"contracts/2_variable_modifiers.sol\":358:387  string public pl = \"Solidity\" */\n    tag_10:\n      tag_45\n      tag_46\n      jump\t// in\n    tag_45:\n      mload(0x40)\n      tag_47\n      swap2\n      swap1\n      tag_48\n      jump\t// in\n    tag_47:\n      mload(0x40)\n      dup1\n      swap2\n      sub\n      swap1\n      return\n        /* \"contracts/2_variable_modifiers.sol\":1300:1365  function changeToBTC() public {... */\n    tag_11:\n      tag_49\n      tag_50\n      jump\t// in\n    tag_49:\n      stop\n        /* \"contracts/2_variable_modifiers.sol\":302:323  string public surname */\n    tag_12:\n      tag_51\n      tag_52\n      jump\t// in\n    tag_51:\n      mload(0x40)\n      tag_53\n      swap2\n      swap1\n      tag_48\n      jump\t// in\n    tag_53:\n      mload(0x40)\n      dup1\n      swap2\n      sub\n      swap1\n      return\n        /* \"contracts/2_variable_modifiers.sol\":1057:1076  tokens public state */\n    tag_13:\n      tag_54\n      tag_55\n      jump\t// in\n    tag_54:\n      mload(0x40)\n      tag_56\n      swap2\n      swap1\n      tag_57\n      jump\t// in\n    tag_56:\n      mload(0x40)\n      dup1\n      swap2\n      sub\n      swap1\n      return\n        /* \"contracts/2_variable_modifiers.sol\":176:197  uint16 public c = 811 */\n    tag_14:\n      tag_58\n      tag_59\n      jump\t// in\n    tag_58:\n      mload(0x40)\n      tag_60\n      swap2\n      swap1\n      tag_61\n      jump\t// in\n    tag_60:\n      mload(0x40)\n      dup1\n      swap2\n      sub\n      swap1\n      return\n        /* \"contracts/2_variable_modifiers.sol\":1229:1294  function changeToBNB() public {... */\n    tag_15:\n      tag_62\n      tag_63\n      jump\t// in\n    tag_62:\n      stop\n        /* \"contracts/2_variable_modifiers.sol\":1002:1051  tokens public constant defaultChoice = tokens.BTC */\n    tag_16:\n      tag_64\n      tag_65\n      jump\t// in\n    tag_64:\n      mload(0x40)\n      tag_66\n      swap2\n      swap1\n      tag_57\n      jump\t// in\n    tag_66:\n      mload(0x40)\n      dup1\n      swap2\n      sub\n      swap1\n      return\n        /* \"contracts/2_variable_modifiers.sol\":1083:1152  function changeToEther() public {... */\n    tag_17:\n      tag_67\n      tag_68\n      jump\t// in\n    tag_67:\n      stop\n        /* \"contracts/2_variable_modifiers.sol\":260:281  int32 public e = -255 */\n    tag_18:\n      tag_69\n      tag_70\n      jump\t// in\n    tag_69:\n      mload(0x40)\n      tag_71\n      swap2\n      swap1\n      tag_72\n      jump\t// in\n    tag_71:\n      mload(0x40)\n      dup1\n      swap2\n      sub\n      swap1\n      return\n        /* \"contracts/2_variable_modifiers.sol\":826:899  address public friendAddress = 0x5B38Da6a701c568545dCfcB03FcB875f56beddC4 */\n    tag_23:\n      0x0e\n      0x00\n      swap1\n      sload\n      swap1\n      0x0100\n      exp\n      swap1\n      div\n      0xffffffffffffffffffffffffffffffffffffffff\n      and\n      dup2\n      jump\t// out\n        /* \"contracts/2_variable_modifiers.sol\":461:490  bool public boolFalse = false */\n    tag_27:\n      0x07\n      0x02\n      swap1\n      sload\n      swap1\n      0x0100\n      exp\n      swap1\n      div\n      0xff\n      and\n      dup2\n      jump\t// out\n        /* \"contracts/2_variable_modifiers.sol\":428:455  bool public boolTrue = true */\n    tag_31:\n      0x07\n      0x01\n      swap1\n      sload\n      swap1\n      0x0100\n      exp\n      swap1\n      div\n      0xff\n      and\n      dup2\n      jump\t// out\n        /* \"contracts/2_variable_modifiers.sol\":633:707  bytes32 public hash_keccak256 = keccak256(abi.encodePacked(name, surname)) */\n    tag_34:\n      sload(0x0b)\n      dup2\n      jump\t// out\n        /* \"contracts/2_variable_modifiers.sol\":1158:1223  function changeToAda() public {... */\n    tag_38:\n        /* \"contracts/2_variable_modifiers.sol\":1206:1216  tokens.ADA */\n      0x00\n        /* \"contracts/2_variable_modifiers.sol\":1198:1203  state */\n      0x0f\n      0x14\n        /* \"contracts/2_variable_modifiers.sol\":1198:1216  state = tokens.ADA */\n      0x0100\n      exp\n      dup2\n      sload\n      dup2\n      0xff\n      mul\n      not\n      and\n      swap1\n      dup4\n      0x03\n      dup2\n      gt\n      iszero\n      tag_74\n      jumpi\n      tag_75\n      tag_76\n      jump\t// in\n    tag_75:\n    tag_74:\n      mul\n      or\n      swap1\n      sstore\n      pop\n        /* \"contracts/2_variable_modifiers.sol\":1158:1223  function changeToAda() public {... */\n      jump\t// out\n        /* \"contracts/2_variable_modifiers.sol\":713:781  bytes32 public hash_sha256 = sha256(abi.encodePacked(\"Henlo world\")) */\n    tag_40:\n      sload(0x0c)\n      dup2\n      jump\t// out\n        /* \"contracts/2_variable_modifiers.sol\":905:938  address public owner = msg.sender */\n    tag_43:\n      0x0f\n      0x00\n      swap1\n      sload\n      swap1\n      0x0100\n      exp\n      swap1\n      div\n      0xffffffffffffffffffffffffffffffffffffffff\n      and\n      dup2\n      jump\t// out\n        /* \"contracts/2_variable_modifiers.sol\":358:387  string public pl = \"Solidity\" */\n    tag_46:\n      0x06\n      dup1\n      sload\n      tag_77\n      swap1\n      tag_78\n      jump\t// in\n    tag_77:\n      dup1\n      0x1f\n      add\n      0x20\n      dup1\n      swap2\n      div\n      mul\n      0x20\n      add\n      mload(0x40)\n      swap1\n      dup2\n      add\n      0x40\n      mstore\n      dup1\n      swap3\n      swap2\n      swap1\n      dup2\n      dup2\n      mstore\n      0x20\n      add\n      dup3\n      dup1\n      sload\n      tag_79\n      swap1\n      tag_78\n      jump\t// in\n    tag_79:\n      dup1\n      iszero\n      tag_80\n      jumpi\n      dup1\n      0x1f\n      lt\n      tag_81\n      jumpi\n      0x0100\n      dup1\n      dup4\n      sload\n      div\n      mul\n      dup4\n      mstore\n      swap2\n      0x20\n      add\n      swap2\n      jump(tag_80)\n    tag_81:\n      dup3\n      add\n      swap2\n      swap1\n      0x00\n      mstore\n      keccak256(0x00, 0x20)\n      swap1\n    tag_82:\n      dup2\n      sload\n      dup2\n      mstore\n      swap1\n      0x01\n      add\n      swap1\n      0x20\n      add\n      dup1\n      dup4\n      gt\n      tag_82\n      jumpi\n      dup3\n      swap1\n      sub\n      0x1f\n      and\n      dup3\n      add\n      swap2\n    tag_80:\n      pop\n      pop\n      pop\n      pop\n      pop\n      dup2\n      jump\t// out\n        /* \"contracts/2_variable_modifiers.sol\":1300:1365  function changeToBTC() public {... */\n    tag_50:\n        /* \"contracts/2_variable_modifiers.sol\":1348:1358  tokens.BTC */\n      0x03\n        /* \"contracts/2_variable_modifiers.sol\":1340:1345  state */\n      0x0f\n      0x14\n        /* \"contracts/2_variable_modifiers.sol\":1340:1358  state = tokens.BTC */\n      0x0100\n      exp\n      dup2\n      sload\n      dup2\n      0xff\n      mul\n      not\n      and\n      swap1\n      dup4\n      0x03\n      dup2\n      gt\n      iszero\n      tag_84\n      jumpi\n      tag_85\n      tag_76\n      jump\t// in\n    tag_85:\n    tag_84:\n      mul\n      or\n      swap1\n      sstore\n      pop\n        /* \"contracts/2_variable_modifiers.sol\":1300:1365  function changeToBTC() public {... */\n      jump\t// out\n        /* \"contracts/2_variable_modifiers.sol\":302:323  string public surname */\n    tag_52:\n      0x04\n      dup1\n      sload\n      tag_86\n      swap1\n      tag_78\n      jump\t// in\n    tag_86:\n      dup1\n      0x1f\n      add\n      0x20\n      dup1\n      swap2\n      div\n      mul\n      0x20\n      add\n      mload(0x40)\n      swap1\n      dup2\n      add\n      0x40\n      mstore\n      dup1\n      swap3\n      swap2\n      swap1\n      dup2\n      dup2\n      mstore\n      0x20\n      add\n      dup3\n      dup1\n      sload\n      tag_87\n      swap1\n      tag_78\n      jump\t// in\n    tag_87:\n      dup1\n      iszero\n      tag_88\n      jumpi\n      dup1\n      0x1f\n      lt\n      tag_89\n      jumpi\n      0x0100\n      dup1\n      dup4\n      sload\n      div\n      mul\n      dup4\n      mstore\n      swap2\n      0x20\n      add\n      swap2\n      jump(tag_88)\n    tag_89:\n      dup3\n      add\n      swap2\n      swap1\n      0x00\n      mstore\n      keccak256(0x00, 0x20)\n      swap1\n    tag_90:\n      dup2\n      sload\n      dup2\n      mstore\n      swap1\n      0x01\n      add\n      swap1\n      0x20\n      add\n      dup1\n      dup4\n      gt\n      tag_90\n      jumpi\n      dup3\n      swap1\n      sub\n      0x1f\n      and\n      dup3\n      add\n      swap2\n    tag_88:\n      pop\n      pop\n      pop\n      pop\n      pop\n      dup2\n      jump\t// out\n        /* \"contracts/2_variable_modifiers.sol\":1057:1076  tokens public state */\n    tag_55:\n      0x0f\n      0x14\n      swap1\n      sload\n      swap1\n      0x0100\n      exp\n      swap1\n      div\n      0xff\n      and\n      dup2\n      jump\t// out\n        /* \"contracts/2_variable_modifiers.sol\":176:197  uint16 public c = 811 */\n    tag_59:\n      0x01\n      dup1\n      sload\n      swap1\n      0x0100\n      exp\n      swap1\n      div\n      0xffff\n      and\n      dup2\n      jump\t// out\n        /* \"contracts/2_variable_modifiers.sol\":1229:1294  function changeToBNB() public {... */\n    tag_63:\n        /* \"contracts/2_variable_modifiers.sol\":1277:1287  tokens.BNB */\n      0x02\n        /* \"contracts/2_variable_modifiers.sol\":1269:1274  state */\n      0x0f\n      0x14\n        /* \"contracts/2_variable_modifiers.sol\":1269:1287  state = tokens.BNB */\n      0x0100\n      exp\n      dup2\n      sload\n      dup2\n      0xff\n      mul\n      not\n      and\n      swap1\n      dup4\n      0x03\n      dup2\n      gt\n      iszero\n      tag_92\n      jumpi\n      tag_93\n      tag_76\n      jump\t// in\n    tag_93:\n    tag_92:\n      mul\n      or\n      swap1\n      sstore\n      pop\n        /* \"contracts/2_variable_modifiers.sol\":1229:1294  function changeToBNB() public {... */\n      jump\t// out\n        /* \"contracts/2_variable_modifiers.sol\":1002:1051  tokens public constant defaultChoice = tokens.BTC */\n    tag_65:\n        /* \"contracts/2_variable_modifiers.sol\":1041:1051  tokens.BTC */\n      0x03\n        /* \"contracts/2_variable_modifiers.sol\":1002:1051  tokens public constant defaultChoice = tokens.BTC */\n      dup2\n      jump\t// out\n        /* \"contracts/2_variable_modifiers.sol\":1083:1152  function changeToEther() public {... */\n    tag_68:\n        /* \"contracts/2_variable_modifiers.sol\":1133:1145  tokens.ETHER */\n      0x01\n        /* \"contracts/2_variable_modifiers.sol\":1125:1130  state */\n      0x0f\n      0x14\n        /* \"contracts/2_variable_modifiers.sol\":1125:1145  state = tokens.ETHER */\n      0x0100\n      exp\n      dup2\n      sload\n      dup2\n      0xff\n      mul\n      not\n      and\n      swap1\n      dup4\n      0x03\n      dup2\n      gt\n      iszero\n      tag_95\n      jumpi\n      tag_96\n      tag_76\n      jump\t// in\n    tag_96:\n    tag_95:\n      mul\n      or\n      swap1\n      sstore\n      pop\n        /* \"contracts/2_variable_modifiers.sol\":1083:1152  function changeToEther() public {... */\n      jump\t// out\n        /* \"contracts/2_variable_modifiers.sol\":260:281  int32 public e = -255 */\n    tag_70:\n      0x03\n      0x00\n      swap1\n      sload\n      swap1\n      0x0100\n      exp\n      swap1\n      div\n      0x03\n      signextend\n      dup2\n      jump\t// out\n        /* \"#utility.yul\":7:125   */\n    tag_98:\n        /* \"#utility.yul\":94:118   */\n      tag_100\n        /* \"#utility.yul\":112:117   */\n      dup2\n        /* \"#utility.yul\":94:118   */\n      tag_101\n      jump\t// in\n    tag_100:\n        /* \"#utility.yul\":89:92   */\n      dup3\n        /* \"#utility.yul\":82:119   */\n      mstore\n        /* \"#utility.yul\":72:125   */\n      pop\n      pop\n      jump\t// out\n        /* \"#utility.yul\":131:240   */\n    tag_102:\n        /* \"#utility.yul\":212:233   */\n      tag_104\n        /* \"#utility.yul\":227:232   */\n      dup2\n        /* \"#utility.yul\":212:233   */\n      tag_105\n      jump\t// in\n    tag_104:\n        /* \"#utility.yul\":207:210   */\n      dup3\n        /* \"#utility.yul\":200:234   */\n      mstore\n        /* \"#utility.yul\":190:240   */\n      pop\n      pop\n      jump\t// out\n        /* \"#utility.yul\":246:364   */\n    tag_106:\n        /* \"#utility.yul\":333:357   */\n      tag_108\n        /* \"#utility.yul\":351:356   */\n      dup2\n        /* \"#utility.yul\":333:357   */\n      tag_109\n      jump\t// in\n    tag_108:\n        /* \"#utility.yul\":328:331   */\n      dup3\n        /* \"#utility.yul\":321:358   */\n      mstore\n        /* \"#utility.yul\":311:364   */\n      pop\n      pop\n      jump\t// out\n        /* \"#utility.yul\":370:515   */\n    tag_110:\n        /* \"#utility.yul\":464:508   */\n      tag_112\n        /* \"#utility.yul\":502:507   */\n      dup2\n        /* \"#utility.yul\":464:508   */\n      tag_113\n      jump\t// in\n    tag_112:\n        /* \"#utility.yul\":459:462   */\n      dup3\n        /* \"#utility.yul\":452:509   */\n      mstore\n        /* \"#utility.yul\":442:515   */\n      pop\n      pop\n      jump\t// out\n        /* \"#utility.yul\":521:633   */\n    tag_114:\n        /* \"#utility.yul\":604:626   */\n      tag_116\n        /* \"#utility.yul\":620:625   */\n      dup2\n        /* \"#utility.yul\":604:626   */\n      tag_117\n      jump\t// in\n    tag_116:\n        /* \"#utility.yul\":599:602   */\n      dup3\n        /* \"#utility.yul\":592:627   */\n      mstore\n        /* \"#utility.yul\":582:633   */\n      pop\n      pop\n      jump\t// out\n        /* \"#utility.yul\":639:1003   */\n    tag_118:\n        /* \"#utility.yul\":727:730   */\n      0x00\n        /* \"#utility.yul\":755:794   */\n      tag_120\n        /* \"#utility.yul\":788:793   */\n      dup3\n        /* \"#utility.yul\":755:794   */\n      tag_121\n      jump\t// in\n    tag_120:\n        /* \"#utility.yul\":810:881   */\n      tag_122\n        /* \"#utility.yul\":874:880   */\n      dup2\n        /* \"#utility.yul\":869:872   */\n      dup6\n        /* \"#utility.yul\":810:881   */\n      tag_123\n      jump\t// in\n    tag_122:\n        /* \"#utility.yul\":803:881   */\n      swap4\n      pop\n        /* \"#utility.yul\":890:942   */\n      tag_124\n        /* \"#utility.yul\":935:941   */\n      dup2\n        /* \"#utility.yul\":930:933   */\n      dup6\n        /* \"#utility.yul\":923:927   */\n      0x20\n        /* \"#utility.yul\":916:921   */\n      dup7\n        /* \"#utility.yul\":912:928   */\n      add\n        /* \"#utility.yul\":890:942   */\n      tag_125\n      jump\t// in\n    tag_124:\n        /* \"#utility.yul\":967:996   */\n      tag_126\n        /* \"#utility.yul\":989:995   */\n      dup2\n        /* \"#utility.yul\":967:996   */\n      tag_127\n      jump\t// in\n    tag_126:\n        /* \"#utility.yul\":962:965   */\n      dup5\n        /* \"#utility.yul\":958:997   */\n      add\n        /* \"#utility.yul\":951:997   */\n      swap2\n      pop\n        /* \"#utility.yul\":731:1003   */\n      pop\n      swap3\n      swap2\n      pop\n      pop\n      jump\t// out\n        /* \"#utility.yul\":1009:1124   */\n    tag_128:\n        /* \"#utility.yul\":1094:1117   */\n      tag_130\n        /* \"#utility.yul\":1111:1116   */\n      dup2\n        /* \"#utility.yul\":1094:1117   */\n      tag_131\n      jump\t// in\n    tag_130:\n        /* \"#utility.yul\":1089:1092   */\n      dup3\n        /* \"#utility.yul\":1082:1118   */\n      mstore\n        /* \"#utility.yul\":1072:1124   */\n      pop\n      pop\n      jump\t// out\n        /* \"#utility.yul\":1130:1352   */\n    tag_25:\n        /* \"#utility.yul\":1223:1227   */\n      0x00\n        /* \"#utility.yul\":1261:1263   */\n      0x20\n        /* \"#utility.yul\":1250:1259   */\n      dup3\n        /* \"#utility.yul\":1246:1264   */\n      add\n        /* \"#utility.yul\":1238:1264   */\n      swap1\n      pop\n        /* \"#utility.yul\":1274:1345   */\n      tag_133\n        /* \"#utility.yul\":1342:1343   */\n      0x00\n        /* \"#utility.yul\":1331:1340   */\n      dup4\n        /* \"#utility.yul\":1327:1344   */\n      add\n        /* \"#utility.yul\":1318:1324   */\n      dup5\n        /* \"#utility.yul\":1274:1345   */\n      tag_98\n      jump\t// in\n    tag_133:\n        /* \"#utility.yul\":1228:1352   */\n      swap3\n      swap2\n      pop\n      pop\n      jump\t// out\n        /* \"#utility.yul\":1358:1568   */\n    tag_29:\n        /* \"#utility.yul\":1445:1449   */\n      0x00\n        /* \"#utility.yul\":1483:1485   */\n      0x20\n        /* \"#utility.yul\":1472:1481   */\n      dup3\n        /* \"#utility.yul\":1468:1486   */\n      add\n        /* \"#utility.yul\":1460:1486   */\n      swap1\n      pop\n        /* \"#utility.yul\":1496:1561   */\n      tag_135\n        /* \"#utility.yul\":1558:1559   */\n      0x00\n        /* \"#utility.yul\":1547:1556   */\n      dup4\n        /* \"#utility.yul\":1543:1560   */\n      add\n        /* \"#utility.yul\":1534:1540   */\n      dup5\n        /* \"#utility.yul\":1496:1561   */\n      tag_102\n      jump\t// in\n    tag_135:\n        /* \"#utility.yul\":1450:1568   */\n      swap3\n      swap2\n      pop\n      pop\n      jump\t// out\n        /* \"#utility.yul\":1574:1796   */\n    tag_36:\n        /* \"#utility.yul\":1667:1671   */\n      0x00\n        /* \"#utility.yul\":1705:1707   */\n      0x20\n        /* \"#utility.yul\":1694:1703   */\n      dup3\n        /* \"#utility.yul\":1690:1708   */\n      add\n        /* \"#utility.yul\":1682:1708   */\n      swap1\n      pop\n        /* \"#utility.yul\":1718:1789   */\n      tag_137\n        /* \"#utility.yul\":1786:1787   */\n      0x00\n        /* \"#utility.yul\":1775:1784   */\n      dup4\n        /* \"#utility.yul\":1771:1788   */\n      add\n        /* \"#utility.yul\":1762:1768   */\n      dup5\n        /* \"#utility.yul\":1718:1789   */\n      tag_106\n      jump\t// in\n    tag_137:\n        /* \"#utility.yul\":1672:1796   */\n      swap3\n      swap2\n      pop\n      pop\n      jump\t// out\n        /* \"#utility.yul\":1802:2038   */\n    tag_57:\n        /* \"#utility.yul\":1902:1906   */\n      0x00\n        /* \"#utility.yul\":1940:1942   */\n      0x20\n        /* \"#utility.yul\":1929:1938   */\n      dup3\n        /* \"#utility.yul\":1925:1943   */\n      add\n        /* \"#utility.yul\":1917:1943   */\n      swap1\n      pop\n        /* \"#utility.yul\":1953:2031   */\n      tag_139\n        /* \"#utility.yul\":2028:2029   */\n      0x00\n        /* \"#utility.yul\":2017:2026   */\n      dup4\n        /* \"#utility.yul\":2013:2030   */\n      add\n        /* \"#utility.yul\":2004:2010   */\n      dup5\n        /* \"#utility.yul\":1953:2031   */\n      tag_110\n      jump\t// in\n    tag_139:\n        /* \"#utility.yul\":1907:2038   */\n      swap3\n      swap2\n      pop\n      pop\n      jump\t// out\n        /* \"#utility.yul\":2044:2258   */\n    tag_72:\n        /* \"#utility.yul\":2133:2137   */\n      0x00\n        /* \"#utility.yul\":2171:2173   */\n      0x20\n        /* \"#utility.yul\":2160:2169   */\n      dup3\n        /* \"#utility.yul\":2156:2174   */\n      add\n        /* \"#utility.yul\":2148:2174   */\n      swap1\n      pop\n        /* \"#utility.yul\":2184:2251   */\n      tag_141\n        /* \"#utility.yul\":2248:2249   */\n      0x00\n        /* \"#utility.yul\":2237:2246   */\n      dup4\n        /* \"#utility.yul\":2233:2250   */\n      add\n        /* \"#utility.yul\":2224:2230   */\n      dup5\n        /* \"#utility.yul\":2184:2251   */\n      tag_114\n      jump\t// in\n    tag_141:\n        /* \"#utility.yul\":2138:2258   */\n      swap3\n      swap2\n      pop\n      pop\n      jump\t// out\n        /* \"#utility.yul\":2264:2577   */\n    tag_48:\n        /* \"#utility.yul\":2377:2381   */\n      0x00\n        /* \"#utility.yul\":2415:2417   */\n      0x20\n        /* \"#utility.yul\":2404:2413   */\n      dup3\n        /* \"#utility.yul\":2400:2418   */\n      add\n        /* \"#utility.yul\":2392:2418   */\n      swap1\n      pop\n        /* \"#utility.yul\":2464:2473   */\n      dup2\n        /* \"#utility.yul\":2458:2462   */\n      dup2\n        /* \"#utility.yul\":2454:2474   */\n      sub\n        /* \"#utility.yul\":2450:2451   */\n      0x00\n        /* \"#utility.yul\":2439:2448   */\n      dup4\n        /* \"#utility.yul\":2435:2452   */\n      add\n        /* \"#utility.yul\":2428:2475   */\n      mstore\n        /* \"#utility.yul\":2492:2570   */\n      tag_143\n        /* \"#utility.yul\":2565:2569   */\n      dup2\n        /* \"#utility.yul\":2556:2562   */\n      dup5\n        /* \"#utility.yul\":2492:2570   */\n      tag_118\n      jump\t// in\n    tag_143:\n        /* \"#utility.yul\":2484:2570   */\n      swap1\n      pop\n        /* \"#utility.yul\":2382:2577   */\n      swap3\n      swap2\n      pop\n      pop\n      jump\t// out\n        /* \"#utility.yul\":2583:2801   */\n    tag_61:\n        /* \"#utility.yul\":2674:2678   */\n      0x00\n        /* \"#utility.yul\":2712:2714   */\n      0x20\n        /* \"#utility.yul\":2701:2710   */\n      dup3\n        /* \"#utility.yul\":2697:2715   */\n      add\n        /* \"#utility.yul\":2689:2715   */\n      swap1\n      pop\n        /* \"#utility.yul\":2725:2794   */\n      tag_145\n        /* \"#utility.yul\":2791:2792   */\n      0x00\n        /* \"#utility.yul\":2780:2789   */\n      dup4\n        /* \"#utility.yul\":2776:2793   */\n      add\n        /* \"#utility.yul\":2767:2773   */\n      dup5\n        /* \"#utility.yul\":2725:2794   */\n      tag_128\n      jump\t// in\n    tag_145:\n        /* \"#utility.yul\":2679:2801   */\n      swap3\n      swap2\n      pop\n      pop\n      jump\t// out\n        /* \"#utility.yul\":2807:2906   */\n    tag_121:\n        /* \"#utility.yul\":2859:2865   */\n      0x00\n        /* \"#utility.yul\":2893:2898   */\n      dup2\n        /* \"#utility.yul\":2887:2899   */\n      mload\n        /* \"#utility.yul\":2877:2899   */\n      swap1\n      pop\n        /* \"#utility.yul\":2866:2906   */\n      swap2\n      swap1\n      pop\n      jump\t// out\n        /* \"#utility.yul\":2912:3081   */\n    tag_123:\n        /* \"#utility.yul\":2996:3007   */\n      0x00\n        /* \"#utility.yul\":3030:3036   */\n      dup3\n        /* \"#utility.yul\":3025:3028   */\n      dup3\n        /* \"#utility.yul\":3018:3037   */\n      mstore\n        /* \"#utility.yul\":3070:3074   */\n      0x20\n        /* \"#utility.yul\":3065:3068   */\n      dup3\n        /* \"#utility.yul\":3061:3075   */\n      add\n        /* \"#utility.yul\":3046:3075   */\n      swap1\n      pop\n        /* \"#utility.yul\":3008:3081   */\n      swap3\n      swap2\n      pop\n      pop\n      jump\t// out\n        /* \"#utility.yul\":3087:3183   */\n    tag_101:\n        /* \"#utility.yul\":3124:3131   */\n      0x00\n        /* \"#utility.yul\":3153:3177   */\n      tag_149\n        /* \"#utility.yul\":3171:3176   */\n      dup3\n        /* \"#utility.yul\":3153:3177   */\n      tag_150\n      jump\t// in\n    tag_149:\n        /* \"#utility.yul\":3142:3177   */\n      swap1\n      pop\n        /* \"#utility.yul\":3132:3183   */\n      swap2\n      swap1\n      pop\n      jump\t// out\n        /* \"#utility.yul\":3189:3279   */\n    tag_105:\n        /* \"#utility.yul\":3223:3230   */\n      0x00\n        /* \"#utility.yul\":3266:3271   */\n      dup2\n        /* \"#utility.yul\":3259:3272   */\n      iszero\n        /* \"#utility.yul\":3252:3273   */\n      iszero\n        /* \"#utility.yul\":3241:3273   */\n      swap1\n      pop\n        /* \"#utility.yul\":3231:3279   */\n      swap2\n      swap1\n      pop\n      jump\t// out\n        /* \"#utility.yul\":3285:3362   */\n    tag_109:\n        /* \"#utility.yul\":3322:3329   */\n      0x00\n        /* \"#utility.yul\":3351:3356   */\n      dup2\n        /* \"#utility.yul\":3340:3356   */\n      swap1\n      pop\n        /* \"#utility.yul\":3330:3362   */\n      swap2\n      swap1\n      pop\n      jump\t// out\n        /* \"#utility.yul\":3368:3497   */\n    tag_153:\n        /* \"#utility.yul\":3414:3421   */\n      0x00\n        /* \"#utility.yul\":3443:3448   */\n      dup2\n        /* \"#utility.yul\":3432:3448   */\n      swap1\n      pop\n        /* \"#utility.yul\":3449:3491   */\n      tag_155\n        /* \"#utility.yul\":3485:3490   */\n      dup3\n        /* \"#utility.yul\":3449:3491   */\n      tag_156\n      jump\t// in\n    tag_155:\n        /* \"#utility.yul\":3422:3497   */\n      swap2\n      swap1\n      pop\n      jump\t// out\n        /* \"#utility.yul\":3503:3593   */\n    tag_117:\n        /* \"#utility.yul\":3538:3545   */\n      0x00\n        /* \"#utility.yul\":3581:3586   */\n      dup2\n        /* \"#utility.yul\":3578:3579   */\n      0x03\n        /* \"#utility.yul\":3567:3587   */\n      signextend\n        /* \"#utility.yul\":3556:3587   */\n      swap1\n      pop\n        /* \"#utility.yul\":3546:3593   */\n      swap2\n      swap1\n      pop\n      jump\t// out\n        /* \"#utility.yul\":3599:3688   */\n    tag_131:\n        /* \"#utility.yul\":3635:3642   */\n      0x00\n        /* \"#utility.yul\":3675:3681   */\n      0xffff\n        /* \"#utility.yul\":3668:3673   */\n      dup3\n        /* \"#utility.yul\":3664:3682   */\n      and\n        /* \"#utility.yul\":3653:3682   */\n      swap1\n      pop\n        /* \"#utility.yul\":3643:3688   */\n      swap2\n      swap1\n      pop\n      jump\t// out\n        /* \"#utility.yul\":3694:3820   */\n    tag_150:\n        /* \"#utility.yul\":3731:3738   */\n      0x00\n        /* \"#utility.yul\":3771:3813   */\n      0xffffffffffffffffffffffffffffffffffffffff\n        /* \"#utility.yul\":3764:3769   */\n      dup3\n        /* \"#utility.yul\":3760:3814   */\n      and\n        /* \"#utility.yul\":3749:3814   */\n      swap1\n      pop\n        /* \"#utility.yul\":3739:3820   */\n      swap2\n      swap1\n      pop\n      jump\t// out\n        /* \"#utility.yul\":3826:3955   */\n    tag_113:\n        /* \"#utility.yul\":3883:3892   */\n      0x00\n        /* \"#utility.yul\":3916:3949   */\n      tag_161\n        /* \"#utility.yul\":3943:3948   */\n      dup3\n        /* \"#utility.yul\":3916:3949   */\n      tag_153\n      jump\t// in\n    tag_161:\n        /* \"#utility.yul\":3903:3949   */\n      swap1\n      pop\n        /* \"#utility.yul\":3893:3955   */\n      swap2\n      swap1\n      pop\n      jump\t// out\n        /* \"#utility.yul\":3961:4268   */\n    tag_125:\n        /* \"#utility.yul\":4029:4030   */\n      0x00\n        /* \"#utility.yul\":4039:4152   */\n    tag_163:\n        /* \"#utility.yul\":4053:4059   */\n      dup4\n        /* \"#utility.yul\":4050:4051   */\n      dup2\n        /* \"#utility.yul\":4047:4060   */\n      lt\n        /* \"#utility.yul\":4039:4152   */\n      iszero\n      tag_165\n      jumpi\n        /* \"#utility.yul\":4138:4139   */\n      dup1\n        /* \"#utility.yul\":4133:4136   */\n      dup3\n        /* \"#utility.yul\":4129:4140   */\n      add\n        /* \"#utility.yul\":4123:4141   */\n      mload\n        /* \"#utility.yul\":4119:4120   */\n      dup2\n        /* \"#utility.yul\":4114:4117   */\n      dup5\n        /* \"#utility.yul\":4110:4121   */\n      add\n        /* \"#utility.yul\":4103:4142   */\n      mstore\n        /* \"#utility.yul\":4075:4077   */\n      0x20\n        /* \"#utility.yul\":4072:4073   */\n      dup2\n        /* \"#utility.yul\":4068:4078   */\n      add\n        /* \"#utility.yul\":4063:4078   */\n      swap1\n      pop\n        /* \"#utility.yul\":4039:4152   */\n      jump(tag_163)\n    tag_165:\n        /* \"#utility.yul\":4170:4176   */\n      dup4\n        /* \"#utility.yul\":4167:4168   */\n      dup2\n        /* \"#utility.yul\":4164:4177   */\n      gt\n        /* \"#utility.yul\":4161:4163   */\n      iszero\n      tag_166\n      jumpi\n        /* \"#utility.yul\":4250:4251   */\n      0x00\n        /* \"#utility.yul\":4241:4247   */\n      dup5\n        /* \"#utility.yul\":4236:4239   */\n      dup5\n        /* \"#utility.yul\":4232:4248   */\n      add\n        /* \"#utility.yul\":4225:4252   */\n      mstore\n        /* \"#utility.yul\":4161:4163   */\n    tag_166:\n        /* \"#utility.yul\":4010:4268   */\n      pop\n      pop\n      pop\n      pop\n      jump\t// out\n        /* \"#utility.yul\":4274:4594   */\n    tag_78:\n        /* \"#utility.yul\":4318:4324   */\n      0x00\n        /* \"#utility.yul\":4355:4356   */\n      0x02\n        /* \"#utility.yul\":4349:4353   */\n      dup3\n        /* \"#utility.yul\":4345:4357   */\n      div\n        /* \"#utility.yul\":4335:4357   */\n      swap1\n      pop\n        /* \"#utility.yul\":4402:4403   */\n      0x01\n        /* \"#utility.yul\":4396:4400   */\n      dup3\n        /* \"#utility.yul\":4392:4404   */\n      and\n        /* \"#utility.yul\":4423:4441   */\n      dup1\n        /* \"#utility.yul\":4413:4415   */\n      tag_168\n      jumpi\n        /* \"#utility.yul\":4479:4483   */\n      0x7f\n        /* \"#utility.yul\":4471:4477   */\n      dup3\n        /* \"#utility.yul\":4467:4484   */\n      and\n        /* \"#utility.yul\":4457:4484   */\n      swap2\n      pop\n        /* \"#utility.yul\":4413:4415   */\n    tag_168:\n        /* \"#utility.yul\":4541:4543   */\n      0x20\n        /* \"#utility.yul\":4533:4539   */\n      dup3\n        /* \"#utility.yul\":4530:4544   */\n      lt\n        /* \"#utility.yul\":4510:4528   */\n      dup2\n        /* \"#utility.yul\":4507:4545   */\n      eq\n        /* \"#utility.yul\":4504:4506   */\n      iszero\n      tag_169\n      jumpi\n        /* \"#utility.yul\":4560:4578   */\n      tag_170\n      tag_171\n      jump\t// in\n    tag_170:\n        /* \"#utility.yul\":4504:4506   */\n    tag_169:\n        /* \"#utility.yul\":4325:4594   */\n      pop\n      swap2\n      swap1\n      pop\n      jump\t// out\n        /* \"#utility.yul\":4600:4780   */\n    tag_76:\n        /* \"#utility.yul\":4648:4725   */\n      0x4e487b7100000000000000000000000000000000000000000000000000000000\n        /* \"#utility.yul\":4645:4646   */\n      0x00\n        /* \"#utility.yul\":4638:4726   */\n      mstore\n        /* \"#utility.yul\":4745:4749   */\n      0x21\n        /* \"#utility.yul\":4742:4743   */\n      0x04\n        /* \"#utility.yul\":4735:4750   */\n      mstore\n        /* \"#utility.yul\":4769:4773   */\n      0x24\n        /* \"#utility.yul\":4766:4767   */\n      0x00\n        /* \"#utility.yul\":4759:4774   */\n      revert\n        /* \"#utility.yul\":4786:4966   */\n    tag_171:\n        /* \"#utility.yul\":4834:4911   */\n      0x4e487b7100000000000000000000000000000000000000000000000000000000\n        /* \"#utility.yul\":4831:4832   */\n      0x00\n        /* \"#utility.yul\":4824:4912   */\n      mstore\n        /* \"#utility.yul\":4931:4935   */\n      0x22\n        /* \"#utility.yul\":4928:4929   */\n      0x04\n        /* \"#utility.yul\":4921:4936   */\n      mstore\n        /* \"#utility.yul\":4955:4959   */\n      0x24\n        /* \"#utility.yul\":4952:4953   */\n      0x00\n        /* \"#utility.yul\":4945:4960   */\n      revert\n        /* \"#utility.yul\":4972:5074   */\n    tag_127:\n        /* \"#utility.yul\":5013:5019   */\n      0x00\n        /* \"#utility.yul\":5064:5066   */\n      0x1f\n        /* \"#utility.yul\":5060:5067   */\n      not\n        /* \"#utility.yul\":5055:5057   */\n      0x1f\n        /* \"#utility.yul\":5048:5053   */\n      dup4\n        /* \"#utility.yul\":5044:5058   */\n      add\n        /* \"#utility.yul\":5040:5068   */\n      and\n        /* \"#utility.yul\":5030:5068   */\n      swap1\n      pop\n        /* \"#utility.yul\":5020:5074   */\n      swap2\n      swap1\n      pop\n      jump\t// out\n        /* \"#utility.yul\":5080:5194   */\n    tag_156:\n        /* \"#utility.yul\":5162:5163   */\n      0x04\n        /* \"#utility.yul\":5155:5160   */\n      dup2\n        /* \"#utility.yul\":5152:5164   */\n      lt\n        /* \"#utility.yul\":5142:5144   */\n      tag_176\n      jumpi\n        /* \"#utility.yul\":5168:5186   */\n      tag_177\n      tag_76\n      jump\t// in\n    tag_177:\n        /* \"#utility.yul\":5142:5144   */\n    tag_176:\n        /* \"#utility.yul\":5132:5194   */\n      pop\n      jump\t// out\n\n    auxdata: 0xa2646970667358221220ea160130af775b47182214c88c612bf482c72b93a83689ca72da29c8b561bd1164736f6c63430008050033\n}\n",
				"bytecode": {
					"linkReferences": {},
					"object": "608060405260ff600160006101000a81548160ff021916908360ff16021790555061032b6001806101000a81548161ffff021916908361ffff1602179055507fffffffffffffffffffffffffffffffffffffffffffffffffffffffffffffff016002557fffffffffffffffffffffffffffffffffffffffffffffffffffffffffffffff01600360006101000a81548163ffffffff021916908360030b63ffffffff1602179055506040518060400160405280600781526020017f526f626572746f0000000000000000000000000000000000000000000000000081525060059080519060200190620000f3929190620002c9565b506040518060400160405280600881526020017f536f6c69646974790000000000000000000000000000000000000000000000008152506006908051906020019062000141929190620002c9565b506001600760016101000a81548160ff0219169083151502179055506000600760026101000a81548160ff021916908315150217905550600560046040516020016200018f929190620004c4565b60405160208183030381529060405280519060200120600b556002604051602001620001bb90620004ec565b604051602081830303815290604052604051620001d99190620004ab565b602060405180830381855afa158015620001f7573d6000803e3d6000fd5b5050506040513d601f19601f820116820180604052508101906200021c919062000390565b600c55735b38da6a701c568545dcfcb03fcb875f56beddc4600e60006101000a81548173ffffffffffffffffffffffffffffffffffffffff021916908373ffffffffffffffffffffffffffffffffffffffff16021790555033600f60006101000a81548173ffffffffffffffffffffffffffffffffffffffff021916908373ffffffffffffffffffffffffffffffffffffffff160217905550348015620002c257600080fd5b5062000626565b828054620002d79062000579565b90600052602060002090601f016020900481019282620002fb576000855562000347565b82601f106200031657805160ff191683800117855562000347565b8280016001018555821562000347579182015b828111156200034657825182559160200191906001019062000329565b5b5090506200035691906200035a565b5090565b5b80821115620003755760008160009055506001016200035b565b5090565b6000815190506200038a816200060c565b92915050565b600060208284031215620003a957620003a8620005de565b5b6000620003b98482850162000379565b91505092915050565b6000620003cf8262000518565b620003db818562000523565b9350620003ed81856020860162000543565b80840191505092915050565b60008154620004088162000579565b6200041481866200052e565b9450600182166000811462000432576001811462000444576200047b565b60ff198316865281860193506200047b565b6200044f8562000503565b60005b83811015620004735781548189015260018201915060208101905062000452565b838801955050505b50505092915050565b600062000493600b836200052e565b9150620004a082620005e3565b600b82019050919050565b6000620004b98284620003c2565b915081905092915050565b6000620004d28285620003f9565b9150620004e08284620003f9565b91508190509392505050565b6000620004f98262000484565b9150819050919050565b60008190508160005260206000209050919050565b600081519050919050565b600081905092915050565b600081905092915050565b6000819050919050565b60005b838110156200056357808201518184015260208101905062000546565b8381111562000573576000848401525b50505050565b600060028204905060018216806200059257607f821691505b60208210811415620005a957620005a8620005af565b5b50919050565b7f4e487b7100000000000000000000000000000000000000000000000000000000600052602260045260246000fd5b600080fd5b7f48656e6c6f20776f726c64000000000000000000000000000000000000000000600082015250565b620006178162000539565b81146200062357600080fd5b50565b61083980620006366000396000f3fe608060405234801561001057600080fd5b50600436106101005760003560e01c806391d101af11610097578063c4370ebf11610066578063c4370ebf14610245578063cd99a8461461024f578063ff4479d81461026d578063ffae15ba1461027757610100565b806391d101af146101e1578063b38fee92146101eb578063c19d93fb14610209578063c3da42b81461022757610100565b806362b57af4116100d357806362b57af41461017d57806366e41d20146101875780638da5cb5b146101a557806390e1437c146101c357610100565b80630b9239fb14610105578063222a90ac1461012357806342fb0109146101415780635c4806801461015f575b600080fd5b61010d610295565b60405161011a91906105b3565b60405180910390f35b61012b6102bb565b60405161013891906105ce565b60405180910390f35b6101496102ce565b60405161015691906105ce565b60405180910390f35b6101676102e1565b60405161017491906105e9565b60405180910390f35b6101856102e7565b005b61018f610314565b60405161019c91906105e9565b60405180910390f35b6101ad61031a565b6040516101ba91906105b3565b60405180910390f35b6101cb610340565b6040516101d8919061063a565b60405180910390f35b6101e96103ce565b005b6101f36103fb565b604051610200919061063a565b60405180910390f35b610211610489565b60405161021e9190610604565b60405180910390f35b61022f61049c565b60405161023c919061065c565b60405180910390f35b61024d6104ae565b005b6102576104db565b6040516102649190610604565b60405180910390f35b6102756104e0565b005b61027f61050d565b60405161028c919061061f565b60405180910390f35b600e60009054906101000a900473ffffffffffffffffffffffffffffffffffffffff1681565b600760029054906101000a900460ff1681565b600760019054906101000a900460ff1681565b600b5481565b6000600f60146101000a81548160ff0219169083600381111561030d5761030c610780565b5b0217905550565b600c5481565b600f60009054906101000a900473ffffffffffffffffffffffffffffffffffffffff1681565b6006805461034d9061074e565b80601f01602080910402602001604051908101604052809291908181526020018280546103799061074e565b80156103c65780601f1061039b576101008083540402835291602001916103c6565b820191906000526020600020905b8154815290600101906020018083116103a957829003601f168201915b505050505081565b6003600f60146101000a81548160ff021916908360038111156103f4576103f3610780565b5b0217905550565b600480546104089061074e565b80601f01602080910402602001604051908101604052809291908181526020018280546104349061074e565b80156104815780601f1061045657610100808354040283529160200191610481565b820191906000526020600020905b81548152906001019060200180831161046457829003601f168201915b505050505081565b600f60149054906101000a900460ff1681565b60018054906101000a900461ffff1681565b6002600f60146101000a81548160ff021916908360038111156104d4576104d3610780565b5b0217905550565b600381565b6001600f60146101000a81548160ff0219169083600381111561050657610505610780565b5b0217905550565b600360009054906101000a900460030b81565b61052981610693565b82525050565b610538816106a5565b82525050565b610547816106b1565b82525050565b61055681610709565b82525050565b610565816106ce565b82525050565b600061057682610677565b6105808185610682565b935061059081856020860161071b565b610599816107de565b840191505092915050565b6105ad816106db565b82525050565b60006020820190506105c86000830184610520565b92915050565b60006020820190506105e3600083018461052f565b92915050565b60006020820190506105fe600083018461053e565b92915050565b6000602082019050610619600083018461054d565b92915050565b6000602082019050610634600083018461055c565b92915050565b60006020820190508181036000830152610654818461056b565b905092915050565b600060208201905061067160008301846105a4565b92915050565b600081519050919050565b600082825260208201905092915050565b600061069e826106e9565b9050919050565b60008115159050919050565b6000819050919050565b60008190506106c9826107ef565b919050565b60008160030b9050919050565b600061ffff82169050919050565b600073ffffffffffffffffffffffffffffffffffffffff82169050919050565b6000610714826106bb565b9050919050565b60005b8381101561073957808201518184015260208101905061071e565b83811115610748576000848401525b50505050565b6000600282049050600182168061076657607f821691505b6020821081141561077a576107796107af565b5b50919050565b7f4e487b7100000000000000000000000000000000000000000000000000000000600052602160045260246000fd5b7f4e487b7100000000000000000000000000000000000000000000000000000000600052602260045260246000fd5b6000601f19601f8301169050919050565b60048110610800576107ff610780565b5b5056fea2646970667358221220ea160130af775b47182214c88c612bf482c72b93a83689ca72da29c8b561bd1164736f6c63430008050033",
					"opcodes": "PUSH1 0x80 PUSH1 0x40 MSTORE PUSH1 0xFF PUSH1 0x1 PUSH1 0x0 PUSH2 0x100 EXP DUP2 SLOAD DUP2 PUSH1 0xFF MUL NOT AND SWAP1 DUP4 PUSH1 0xFF AND MUL OR SWAP1 SSTORE POP PUSH2 0x32B PUSH1 0x1 DUP1 PUSH2 0x100 EXP DUP2 SLOAD DUP2 PUSH2 0xFFFF MUL NOT AND SWAP1 DUP4 PUSH2 0xFFFF AND MUL OR SWAP1 SSTORE POP PUSH32 0xFFFFFFFFFFFFFFFFFFFFFFFFFFFFFFFFFFFFFFFFFFFFFFFFFFFFFFFFFFFFFF01 PUSH1 0x2 SSTORE PUSH32 0xFFFFFFFFFFFFFFFFFFFFFFFFFFFFFFFFFFFFFFFFFFFFFFFFFFFFFFFFFFFFFF01 PUSH1 0x3 PUSH1 0x0 PUSH2 0x100 EXP DUP2 SLOAD DUP2 PUSH4 0xFFFFFFFF MUL NOT AND SWAP1 DUP4 PUSH1 0x3 SIGNEXTEND PUSH4 0xFFFFFFFF AND MUL OR SWAP1 SSTORE POP PUSH1 0x40 MLOAD DUP1 PUSH1 0x40 ADD PUSH1 0x40 MSTORE DUP1 PUSH1 0x7 DUP2 MSTORE PUSH1 0x20 ADD PUSH32 0x526F626572746F00000000000000000000000000000000000000000000000000 DUP2 MSTORE POP PUSH1 0x5 SWAP1 DUP1 MLOAD SWAP1 PUSH1 0x20 ADD SWAP1 PUSH3 0xF3 SWAP3 SWAP2 SWAP1 PUSH3 0x2C9 JUMP JUMPDEST POP PUSH1 0x40 MLOAD DUP1 PUSH1 0x40 ADD PUSH1 0x40 MSTORE DUP1 PUSH1 0x8 DUP2 MSTORE PUSH1 0x20 ADD PUSH32 0x536F6C6964697479000000000000000000000000000000000000000000000000 DUP2 MSTORE POP PUSH1 0x6 SWAP1 DUP1 MLOAD SWAP1 PUSH1 0x20 ADD SWAP1 PUSH3 0x141 SWAP3 SWAP2 SWAP1 PUSH3 0x2C9 JUMP JUMPDEST POP PUSH1 0x1 PUSH1 0x7 PUSH1 0x1 PUSH2 0x100 EXP DUP2 SLOAD DUP2 PUSH1 0xFF MUL NOT AND SWAP1 DUP4 ISZERO ISZERO MUL OR SWAP1 SSTORE POP PUSH1 0x0 PUSH1 0x7 PUSH1 0x2 PUSH2 0x100 EXP DUP2 SLOAD DUP2 PUSH1 0xFF MUL NOT AND SWAP1 DUP4 ISZERO ISZERO MUL OR SWAP1 SSTORE POP PUSH1 0x5 PUSH1 0x4 PUSH1 0x40 MLOAD PUSH1 0x20 ADD PUSH3 0x18F SWAP3 SWAP2 SWAP1 PUSH3 0x4C4 JUMP JUMPDEST PUSH1 0x40 MLOAD PUSH1 0x20 DUP2 DUP4 SUB SUB DUP2 MSTORE SWAP1 PUSH1 0x40 MSTORE DUP1 MLOAD SWAP1 PUSH1 0x20 ADD KECCAK256 PUSH1 0xB SSTORE PUSH1 0x2 PUSH1 0x40 MLOAD PUSH1 0x20 ADD PUSH3 0x1BB SWAP1 PUSH3 0x4EC JUMP JUMPDEST PUSH1 0x40 MLOAD PUSH1 0x20 DUP2 DUP4 SUB SUB DUP2 MSTORE SWAP1 PUSH1 0x40 MSTORE PUSH1 0x40 MLOAD PUSH3 0x1D9 SWAP2 SWAP1 PUSH3 0x4AB JUMP JUMPDEST PUSH1 0x20 PUSH1 0x40 MLOAD DUP1 DUP4 SUB DUP2 DUP6 GAS STATICCALL ISZERO DUP1 ISZERO PUSH3 0x1F7 JUMPI RETURNDATASIZE PUSH1 0x0 DUP1 RETURNDATACOPY RETURNDATASIZE PUSH1 0x0 REVERT JUMPDEST POP POP POP PUSH1 0x40 MLOAD RETURNDATASIZE PUSH1 0x1F NOT PUSH1 0x1F DUP3 ADD AND DUP3 ADD DUP1 PUSH1 0x40 MSTORE POP DUP2 ADD SWAP1 PUSH3 0x21C SWAP2 SWAP1 PUSH3 0x390 JUMP JUMPDEST PUSH1 0xC SSTORE PUSH20 0x5B38DA6A701C568545DCFCB03FCB875F56BEDDC4 PUSH1 0xE PUSH1 0x0 PUSH2 0x100 EXP DUP2 SLOAD DUP2 PUSH20 0xFFFFFFFFFFFFFFFFFFFFFFFFFFFFFFFFFFFFFFFF MUL NOT AND SWAP1 DUP4 PUSH20 0xFFFFFFFFFFFFFFFFFFFFFFFFFFFFFFFFFFFFFFFF AND MUL OR SWAP1 SSTORE POP CALLER PUSH1 0xF PUSH1 0x0 PUSH2 0x100 EXP DUP2 SLOAD DUP2 PUSH20 0xFFFFFFFFFFFFFFFFFFFFFFFFFFFFFFFFFFFFFFFF MUL NOT AND SWAP1 DUP4 PUSH20 0xFFFFFFFFFFFFFFFFFFFFFFFFFFFFFFFFFFFFFFFF AND MUL OR SWAP1 SSTORE POP CALLVALUE DUP1 ISZERO PUSH3 0x2C2 JUMPI PUSH1 0x0 DUP1 REVERT JUMPDEST POP PUSH3 0x626 JUMP JUMPDEST DUP3 DUP1 SLOAD PUSH3 0x2D7 SWAP1 PUSH3 0x579 JUMP JUMPDEST SWAP1 PUSH1 0x0 MSTORE PUSH1 0x20 PUSH1 0x0 KECCAK256 SWAP1 PUSH1 0x1F ADD PUSH1 0x20 SWAP1 DIV DUP2 ADD SWAP3 DUP3 PUSH3 0x2FB JUMPI PUSH1 0x0 DUP6 SSTORE PUSH3 0x347 JUMP JUMPDEST DUP3 PUSH1 0x1F LT PUSH3 0x316 JUMPI DUP1 MLOAD PUSH1 0xFF NOT AND DUP4 DUP1 ADD OR DUP6 SSTORE PUSH3 0x347 JUMP JUMPDEST DUP3 DUP1 ADD PUSH1 0x1 ADD DUP6 SSTORE DUP3 ISZERO PUSH3 0x347 JUMPI SWAP2 DUP3 ADD JUMPDEST DUP3 DUP2 GT ISZERO PUSH3 0x346 JUMPI DUP3 MLOAD DUP3 SSTORE SWAP2 PUSH1 0x20 ADD SWAP2 SWAP1 PUSH1 0x1 ADD SWAP1 PUSH3 0x329 JUMP JUMPDEST JUMPDEST POP SWAP1 POP PUSH3 0x356 SWAP2 SWAP1 PUSH3 0x35A JUMP JUMPDEST POP SWAP1 JUMP JUMPDEST JUMPDEST DUP1 DUP3 GT ISZERO PUSH3 0x375 JUMPI PUSH1 0x0 DUP2 PUSH1 0x0 SWAP1 SSTORE POP PUSH1 0x1 ADD PUSH3 0x35B JUMP JUMPDEST POP SWAP1 JUMP JUMPDEST PUSH1 0x0 DUP2 MLOAD SWAP1 POP PUSH3 0x38A DUP2 PUSH3 0x60C JUMP JUMPDEST SWAP3 SWAP2 POP POP JUMP JUMPDEST PUSH1 0x0 PUSH1 0x20 DUP3 DUP5 SUB SLT ISZERO PUSH3 0x3A9 JUMPI PUSH3 0x3A8 PUSH3 0x5DE JUMP JUMPDEST JUMPDEST PUSH1 0x0 PUSH3 0x3B9 DUP5 DUP3 DUP6 ADD PUSH3 0x379 JUMP JUMPDEST SWAP2 POP POP SWAP3 SWAP2 POP POP JUMP JUMPDEST PUSH1 0x0 PUSH3 0x3CF DUP3 PUSH3 0x518 JUMP JUMPDEST PUSH3 0x3DB DUP2 DUP6 PUSH3 0x523 JUMP JUMPDEST SWAP4 POP PUSH3 0x3ED DUP2 DUP6 PUSH1 0x20 DUP7 ADD PUSH3 0x543 JUMP JUMPDEST DUP1 DUP5 ADD SWAP2 POP POP SWAP3 SWAP2 POP POP JUMP JUMPDEST PUSH1 0x0 DUP2 SLOAD PUSH3 0x408 DUP2 PUSH3 0x579 JUMP JUMPDEST PUSH3 0x414 DUP2 DUP7 PUSH3 0x52E JUMP JUMPDEST SWAP5 POP PUSH1 0x1 DUP3 AND PUSH1 0x0 DUP2 EQ PUSH3 0x432 JUMPI PUSH1 0x1 DUP2 EQ PUSH3 0x444 JUMPI PUSH3 0x47B JUMP JUMPDEST PUSH1 0xFF NOT DUP4 AND DUP7 MSTORE DUP2 DUP7 ADD SWAP4 POP PUSH3 0x47B JUMP JUMPDEST PUSH3 0x44F DUP6 PUSH3 0x503 JUMP JUMPDEST PUSH1 0x0 JUMPDEST DUP4 DUP2 LT ISZERO PUSH3 0x473 JUMPI DUP2 SLOAD DUP2 DUP10 ADD MSTORE PUSH1 0x1 DUP3 ADD SWAP2 POP PUSH1 0x20 DUP2 ADD SWAP1 POP PUSH3 0x452 JUMP JUMPDEST DUP4 DUP9 ADD SWAP6 POP POP POP JUMPDEST POP POP POP SWAP3 SWAP2 POP POP JUMP JUMPDEST PUSH1 0x0 PUSH3 0x493 PUSH1 0xB DUP4 PUSH3 0x52E JUMP JUMPDEST SWAP2 POP PUSH3 0x4A0 DUP3 PUSH3 0x5E3 JUMP JUMPDEST PUSH1 0xB DUP3 ADD SWAP1 POP SWAP2 SWAP1 POP JUMP JUMPDEST PUSH1 0x0 PUSH3 0x4B9 DUP3 DUP5 PUSH3 0x3C2 JUMP JUMPDEST SWAP2 POP DUP2 SWAP1 POP SWAP3 SWAP2 POP POP JUMP JUMPDEST PUSH1 0x0 PUSH3 0x4D2 DUP3 DUP6 PUSH3 0x3F9 JUMP JUMPDEST SWAP2 POP PUSH3 0x4E0 DUP3 DUP5 PUSH3 0x3F9 JUMP JUMPDEST SWAP2 POP DUP2 SWAP1 POP SWAP4 SWAP3 POP POP POP JUMP JUMPDEST PUSH1 0x0 PUSH3 0x4F9 DUP3 PUSH3 0x484 JUMP JUMPDEST SWAP2 POP DUP2 SWAP1 POP SWAP2 SWAP1 POP JUMP JUMPDEST PUSH1 0x0 DUP2 SWAP1 POP DUP2 PUSH1 0x0 MSTORE PUSH1 0x20 PUSH1 0x0 KECCAK256 SWAP1 POP SWAP2 SWAP1 POP JUMP JUMPDEST PUSH1 0x0 DUP2 MLOAD SWAP1 POP SWAP2 SWAP1 POP JUMP JUMPDEST PUSH1 0x0 DUP2 SWAP1 POP SWAP3 SWAP2 POP POP JUMP JUMPDEST PUSH1 0x0 DUP2 SWAP1 POP SWAP3 SWAP2 POP POP JUMP JUMPDEST PUSH1 0x0 DUP2 SWAP1 POP SWAP2 SWAP1 POP JUMP JUMPDEST PUSH1 0x0 JUMPDEST DUP4 DUP2 LT ISZERO PUSH3 0x563 JUMPI DUP1 DUP3 ADD MLOAD DUP2 DUP5 ADD MSTORE PUSH1 0x20 DUP2 ADD SWAP1 POP PUSH3 0x546 JUMP JUMPDEST DUP4 DUP2 GT ISZERO PUSH3 0x573 JUMPI PUSH1 0x0 DUP5 DUP5 ADD MSTORE JUMPDEST POP POP POP POP JUMP JUMPDEST PUSH1 0x0 PUSH1 0x2 DUP3 DIV SWAP1 POP PUSH1 0x1 DUP3 AND DUP1 PUSH3 0x592 JUMPI PUSH1 0x7F DUP3 AND SWAP2 POP JUMPDEST PUSH1 0x20 DUP3 LT DUP2 EQ ISZERO PUSH3 0x5A9 JUMPI PUSH3 0x5A8 PUSH3 0x5AF JUMP JUMPDEST JUMPDEST POP SWAP2 SWAP1 POP JUMP JUMPDEST PUSH32 0x4E487B7100000000000000000000000000000000000000000000000000000000 PUSH1 0x0 MSTORE PUSH1 0x22 PUSH1 0x4 MSTORE PUSH1 0x24 PUSH1 0x0 REVERT JUMPDEST PUSH1 0x0 DUP1 REVERT JUMPDEST PUSH32 0x48656E6C6F20776F726C64000000000000000000000000000000000000000000 PUSH1 0x0 DUP3 ADD MSTORE POP JUMP JUMPDEST PUSH3 0x617 DUP2 PUSH3 0x539 JUMP JUMPDEST DUP2 EQ PUSH3 0x623 JUMPI PUSH1 0x0 DUP1 REVERT JUMPDEST POP JUMP JUMPDEST PUSH2 0x839 DUP1 PUSH3 0x636 PUSH1 0x0 CODECOPY PUSH1 0x0 RETURN INVALID PUSH1 0x80 PUSH1 0x40 MSTORE CALLVALUE DUP1 ISZERO PUSH2 0x10 JUMPI PUSH1 0x0 DUP1 REVERT JUMPDEST POP PUSH1 0x4 CALLDATASIZE LT PUSH2 0x100 JUMPI PUSH1 0x0 CALLDATALOAD PUSH1 0xE0 SHR DUP1 PUSH4 0x91D101AF GT PUSH2 0x97 JUMPI DUP1 PUSH4 0xC4370EBF GT PUSH2 0x66 JUMPI DUP1 PUSH4 0xC4370EBF EQ PUSH2 0x245 JUMPI DUP1 PUSH4 0xCD99A846 EQ PUSH2 0x24F JUMPI DUP1 PUSH4 0xFF4479D8 EQ PUSH2 0x26D JUMPI DUP1 PUSH4 0xFFAE15BA EQ PUSH2 0x277 JUMPI PUSH2 0x100 JUMP JUMPDEST DUP1 PUSH4 0x91D101AF EQ PUSH2 0x1E1 JUMPI DUP1 PUSH4 0xB38FEE92 EQ PUSH2 0x1EB JUMPI DUP1 PUSH4 0xC19D93FB EQ PUSH2 0x209 JUMPI DUP1 PUSH4 0xC3DA42B8 EQ PUSH2 0x227 JUMPI PUSH2 0x100 JUMP JUMPDEST DUP1 PUSH4 0x62B57AF4 GT PUSH2 0xD3 JUMPI DUP1 PUSH4 0x62B57AF4 EQ PUSH2 0x17D JUMPI DUP1 PUSH4 0x66E41D20 EQ PUSH2 0x187 JUMPI DUP1 PUSH4 0x8DA5CB5B EQ PUSH2 0x1A5 JUMPI DUP1 PUSH4 0x90E1437C EQ PUSH2 0x1C3 JUMPI PUSH2 0x100 JUMP JUMPDEST DUP1 PUSH4 0xB9239FB EQ PUSH2 0x105 JUMPI DUP1 PUSH4 0x222A90AC EQ PUSH2 0x123 JUMPI DUP1 PUSH4 0x42FB0109 EQ PUSH2 0x141 JUMPI DUP1 PUSH4 0x5C480680 EQ PUSH2 0x15F JUMPI JUMPDEST PUSH1 0x0 DUP1 REVERT JUMPDEST PUSH2 0x10D PUSH2 0x295 JUMP JUMPDEST PUSH1 0x40 MLOAD PUSH2 0x11A SWAP2 SWAP1 PUSH2 0x5B3 JUMP JUMPDEST PUSH1 0x40 MLOAD DUP1 SWAP2 SUB SWAP1 RETURN JUMPDEST PUSH2 0x12B PUSH2 0x2BB JUMP JUMPDEST PUSH1 0x40 MLOAD PUSH2 0x138 SWAP2 SWAP1 PUSH2 0x5CE JUMP JUMPDEST PUSH1 0x40 MLOAD DUP1 SWAP2 SUB SWAP1 RETURN JUMPDEST PUSH2 0x149 PUSH2 0x2CE JUMP JUMPDEST PUSH1 0x40 MLOAD PUSH2 0x156 SWAP2 SWAP1 PUSH2 0x5CE JUMP JUMPDEST PUSH1 0x40 MLOAD DUP1 SWAP2 SUB SWAP1 RETURN JUMPDEST PUSH2 0x167 PUSH2 0x2E1 JUMP JUMPDEST PUSH1 0x40 MLOAD PUSH2 0x174 SWAP2 SWAP1 PUSH2 0x5E9 JUMP JUMPDEST PUSH1 0x40 MLOAD DUP1 SWAP2 SUB SWAP1 RETURN JUMPDEST PUSH2 0x185 PUSH2 0x2E7 JUMP JUMPDEST STOP JUMPDEST PUSH2 0x18F PUSH2 0x314 JUMP JUMPDEST PUSH1 0x40 MLOAD PUSH2 0x19C SWAP2 SWAP1 PUSH2 0x5E9 JUMP JUMPDEST PUSH1 0x40 MLOAD DUP1 SWAP2 SUB SWAP1 RETURN JUMPDEST PUSH2 0x1AD PUSH2 0x31A JUMP JUMPDEST PUSH1 0x40 MLOAD PUSH2 0x1BA SWAP2 SWAP1 PUSH2 0x5B3 JUMP JUMPDEST PUSH1 0x40 MLOAD DUP1 SWAP2 SUB SWAP1 RETURN JUMPDEST PUSH2 0x1CB PUSH2 0x340 JUMP JUMPDEST PUSH1 0x40 MLOAD PUSH2 0x1D8 SWAP2 SWAP1 PUSH2 0x63A JUMP JUMPDEST PUSH1 0x40 MLOAD DUP1 SWAP2 SUB SWAP1 RETURN JUMPDEST PUSH2 0x1E9 PUSH2 0x3CE JUMP JUMPDEST STOP JUMPDEST PUSH2 0x1F3 PUSH2 0x3FB JUMP JUMPDEST PUSH1 0x40 MLOAD PUSH2 0x200 SWAP2 SWAP1 PUSH2 0x63A JUMP JUMPDEST PUSH1 0x40 MLOAD DUP1 SWAP2 SUB SWAP1 RETURN JUMPDEST PUSH2 0x211 PUSH2 0x489 JUMP JUMPDEST PUSH1 0x40 MLOAD PUSH2 0x21E SWAP2 SWAP1 PUSH2 0x604 JUMP JUMPDEST PUSH1 0x40 MLOAD DUP1 SWAP2 SUB SWAP1 RETURN JUMPDEST PUSH2 0x22F PUSH2 0x49C JUMP JUMPDEST PUSH1 0x40 MLOAD PUSH2 0x23C SWAP2 SWAP1 PUSH2 0x65C JUMP JUMPDEST PUSH1 0x40 MLOAD DUP1 SWAP2 SUB SWAP1 RETURN JUMPDEST PUSH2 0x24D PUSH2 0x4AE JUMP JUMPDEST STOP JUMPDEST PUSH2 0x257 PUSH2 0x4DB JUMP JUMPDEST PUSH1 0x40 MLOAD PUSH2 0x264 SWAP2 SWAP1 PUSH2 0x604 JUMP JUMPDEST PUSH1 0x40 MLOAD DUP1 SWAP2 SUB SWAP1 RETURN JUMPDEST PUSH2 0x275 PUSH2 0x4E0 JUMP JUMPDEST STOP JUMPDEST PUSH2 0x27F PUSH2 0x50D JUMP JUMPDEST PUSH1 0x40 MLOAD PUSH2 0x28C SWAP2 SWAP1 PUSH2 0x61F JUMP JUMPDEST PUSH1 0x40 MLOAD DUP1 SWAP2 SUB SWAP1 RETURN JUMPDEST PUSH1 0xE PUSH1 0x0 SWAP1 SLOAD SWAP1 PUSH2 0x100 EXP SWAP1 DIV PUSH20 0xFFFFFFFFFFFFFFFFFFFFFFFFFFFFFFFFFFFFFFFF AND DUP2 JUMP JUMPDEST PUSH1 0x7 PUSH1 0x2 SWAP1 SLOAD SWAP1 PUSH2 0x100 EXP SWAP1 DIV PUSH1 0xFF AND DUP2 JUMP JUMPDEST PUSH1 0x7 PUSH1 0x1 SWAP1 SLOAD SWAP1 PUSH2 0x100 EXP SWAP1 DIV PUSH1 0xFF AND DUP2 JUMP JUMPDEST PUSH1 0xB SLOAD DUP2 JUMP JUMPDEST PUSH1 0x0 PUSH1 0xF PUSH1 0x14 PUSH2 0x100 EXP DUP2 SLOAD DUP2 PUSH1 0xFF MUL NOT AND SWAP1 DUP4 PUSH1 0x3 DUP2 GT ISZERO PUSH2 0x30D JUMPI PUSH2 0x30C PUSH2 0x780 JUMP JUMPDEST JUMPDEST MUL OR SWAP1 SSTORE POP JUMP JUMPDEST PUSH1 0xC SLOAD DUP2 JUMP JUMPDEST PUSH1 0xF PUSH1 0x0 SWAP1 SLOAD SWAP1 PUSH2 0x100 EXP SWAP1 DIV PUSH20 0xFFFFFFFFFFFFFFFFFFFFFFFFFFFFFFFFFFFFFFFF AND DUP2 JUMP JUMPDEST PUSH1 0x6 DUP1 SLOAD PUSH2 0x34D SWAP1 PUSH2 0x74E JUMP JUMPDEST DUP1 PUSH1 0x1F ADD PUSH1 0x20 DUP1 SWAP2 DIV MUL PUSH1 0x20 ADD PUSH1 0x40 MLOAD SWAP1 DUP2 ADD PUSH1 0x40 MSTORE DUP1 SWAP3 SWAP2 SWAP1 DUP2 DUP2 MSTORE PUSH1 0x20 ADD DUP3 DUP1 SLOAD PUSH2 0x379 SWAP1 PUSH2 0x74E JUMP JUMPDEST DUP1 ISZERO PUSH2 0x3C6 JUMPI DUP1 PUSH1 0x1F LT PUSH2 0x39B JUMPI PUSH2 0x100 DUP1 DUP4 SLOAD DIV MUL DUP4 MSTORE SWAP2 PUSH1 0x20 ADD SWAP2 PUSH2 0x3C6 JUMP JUMPDEST DUP3 ADD SWAP2 SWAP1 PUSH1 0x0 MSTORE PUSH1 0x20 PUSH1 0x0 KECCAK256 SWAP1 JUMPDEST DUP2 SLOAD DUP2 MSTORE SWAP1 PUSH1 0x1 ADD SWAP1 PUSH1 0x20 ADD DUP1 DUP4 GT PUSH2 0x3A9 JUMPI DUP3 SWAP1 SUB PUSH1 0x1F AND DUP3 ADD SWAP2 JUMPDEST POP POP POP POP POP DUP2 JUMP JUMPDEST PUSH1 0x3 PUSH1 0xF PUSH1 0x14 PUSH2 0x100 EXP DUP2 SLOAD DUP2 PUSH1 0xFF MUL NOT AND SWAP1 DUP4 PUSH1 0x3 DUP2 GT ISZERO PUSH2 0x3F4 JUMPI PUSH2 0x3F3 PUSH2 0x780 JUMP JUMPDEST JUMPDEST MUL OR SWAP1 SSTORE POP JUMP JUMPDEST PUSH1 0x4 DUP1 SLOAD PUSH2 0x408 SWAP1 PUSH2 0x74E JUMP JUMPDEST DUP1 PUSH1 0x1F ADD PUSH1 0x20 DUP1 SWAP2 DIV MUL PUSH1 0x20 ADD PUSH1 0x40 MLOAD SWAP1 DUP2 ADD PUSH1 0x40 MSTORE DUP1 SWAP3 SWAP2 SWAP1 DUP2 DUP2 MSTORE PUSH1 0x20 ADD DUP3 DUP1 SLOAD PUSH2 0x434 SWAP1 PUSH2 0x74E JUMP JUMPDEST DUP1 ISZERO PUSH2 0x481 JUMPI DUP1 PUSH1 0x1F LT PUSH2 0x456 JUMPI PUSH2 0x100 DUP1 DUP4 SLOAD DIV MUL DUP4 MSTORE SWAP2 PUSH1 0x20 ADD SWAP2 PUSH2 0x481 JUMP JUMPDEST DUP3 ADD SWAP2 SWAP1 PUSH1 0x0 MSTORE PUSH1 0x20 PUSH1 0x0 KECCAK256 SWAP1 JUMPDEST DUP2 SLOAD DUP2 MSTORE SWAP1 PUSH1 0x1 ADD SWAP1 PUSH1 0x20 ADD DUP1 DUP4 GT PUSH2 0x464 JUMPI DUP3 SWAP1 SUB PUSH1 0x1F AND DUP3 ADD SWAP2 JUMPDEST POP POP POP POP POP DUP2 JUMP JUMPDEST PUSH1 0xF PUSH1 0x14 SWAP1 SLOAD SWAP1 PUSH2 0x100 EXP SWAP1 DIV PUSH1 0xFF AND DUP2 JUMP JUMPDEST PUSH1 0x1 DUP1 SLOAD SWAP1 PUSH2 0x100 EXP SWAP1 DIV PUSH2 0xFFFF AND DUP2 JUMP JUMPDEST PUSH1 0x2 PUSH1 0xF PUSH1 0x14 PUSH2 0x100 EXP DUP2 SLOAD DUP2 PUSH1 0xFF MUL NOT AND SWAP1 DUP4 PUSH1 0x3 DUP2 GT ISZERO PUSH2 0x4D4 JUMPI PUSH2 0x4D3 PUSH2 0x780 JUMP JUMPDEST JUMPDEST MUL OR SWAP1 SSTORE POP JUMP JUMPDEST PUSH1 0x3 DUP2 JUMP JUMPDEST PUSH1 0x1 PUSH1 0xF PUSH1 0x14 PUSH2 0x100 EXP DUP2 SLOAD DUP2 PUSH1 0xFF MUL NOT AND SWAP1 DUP4 PUSH1 0x3 DUP2 GT ISZERO PUSH2 0x506 JUMPI PUSH2 0x505 PUSH2 0x780 JUMP JUMPDEST JUMPDEST MUL OR SWAP1 SSTORE POP JUMP JUMPDEST PUSH1 0x3 PUSH1 0x0 SWAP1 SLOAD SWAP1 PUSH2 0x100 EXP SWAP1 DIV PUSH1 0x3 SIGNEXTEND DUP2 JUMP JUMPDEST PUSH2 0x529 DUP2 PUSH2 0x693 JUMP JUMPDEST DUP3 MSTORE POP POP JUMP JUMPDEST PUSH2 0x538 DUP2 PUSH2 0x6A5 JUMP JUMPDEST DUP3 MSTORE POP POP JUMP JUMPDEST PUSH2 0x547 DUP2 PUSH2 0x6B1 JUMP JUMPDEST DUP3 MSTORE POP POP JUMP JUMPDEST PUSH2 0x556 DUP2 PUSH2 0x709 JUMP JUMPDEST DUP3 MSTORE POP POP JUMP JUMPDEST PUSH2 0x565 DUP2 PUSH2 0x6CE JUMP JUMPDEST DUP3 MSTORE POP POP JUMP JUMPDEST PUSH1 0x0 PUSH2 0x576 DUP3 PUSH2 0x677 JUMP JUMPDEST PUSH2 0x580 DUP2 DUP6 PUSH2 0x682 JUMP JUMPDEST SWAP4 POP PUSH2 0x590 DUP2 DUP6 PUSH1 0x20 DUP7 ADD PUSH2 0x71B JUMP JUMPDEST PUSH2 0x599 DUP2 PUSH2 0x7DE JUMP JUMPDEST DUP5 ADD SWAP2 POP POP SWAP3 SWAP2 POP POP JUMP JUMPDEST PUSH2 0x5AD DUP2 PUSH2 0x6DB JUMP JUMPDEST DUP3 MSTORE POP POP JUMP JUMPDEST PUSH1 0x0 PUSH1 0x20 DUP3 ADD SWAP1 POP PUSH2 0x5C8 PUSH1 0x0 DUP4 ADD DUP5 PUSH2 0x520 JUMP JUMPDEST SWAP3 SWAP2 POP POP JUMP JUMPDEST PUSH1 0x0 PUSH1 0x20 DUP3 ADD SWAP1 POP PUSH2 0x5E3 PUSH1 0x0 DUP4 ADD DUP5 PUSH2 0x52F JUMP JUMPDEST SWAP3 SWAP2 POP POP JUMP JUMPDEST PUSH1 0x0 PUSH1 0x20 DUP3 ADD SWAP1 POP PUSH2 0x5FE PUSH1 0x0 DUP4 ADD DUP5 PUSH2 0x53E JUMP JUMPDEST SWAP3 SWAP2 POP POP JUMP JUMPDEST PUSH1 0x0 PUSH1 0x20 DUP3 ADD SWAP1 POP PUSH2 0x619 PUSH1 0x0 DUP4 ADD DUP5 PUSH2 0x54D JUMP JUMPDEST SWAP3 SWAP2 POP POP JUMP JUMPDEST PUSH1 0x0 PUSH1 0x20 DUP3 ADD SWAP1 POP PUSH2 0x634 PUSH1 0x0 DUP4 ADD DUP5 PUSH2 0x55C JUMP JUMPDEST SWAP3 SWAP2 POP POP JUMP JUMPDEST PUSH1 0x0 PUSH1 0x20 DUP3 ADD SWAP1 POP DUP2 DUP2 SUB PUSH1 0x0 DUP4 ADD MSTORE PUSH2 0x654 DUP2 DUP5 PUSH2 0x56B JUMP JUMPDEST SWAP1 POP SWAP3 SWAP2 POP POP JUMP JUMPDEST PUSH1 0x0 PUSH1 0x20 DUP3 ADD SWAP1 POP PUSH2 0x671 PUSH1 0x0 DUP4 ADD DUP5 PUSH2 0x5A4 JUMP JUMPDEST SWAP3 SWAP2 POP POP JUMP JUMPDEST PUSH1 0x0 DUP2 MLOAD SWAP1 POP SWAP2 SWAP1 POP JUMP JUMPDEST PUSH1 0x0 DUP3 DUP3 MSTORE PUSH1 0x20 DUP3 ADD SWAP1 POP SWAP3 SWAP2 POP POP JUMP JUMPDEST PUSH1 0x0 PUSH2 0x69E DUP3 PUSH2 0x6E9 JUMP JUMPDEST SWAP1 POP SWAP2 SWAP1 POP JUMP JUMPDEST PUSH1 0x0 DUP2 ISZERO ISZERO SWAP1 POP SWAP2 SWAP1 POP JUMP JUMPDEST PUSH1 0x0 DUP2 SWAP1 POP SWAP2 SWAP1 POP JUMP JUMPDEST PUSH1 0x0 DUP2 SWAP1 POP PUSH2 0x6C9 DUP3 PUSH2 0x7EF JUMP JUMPDEST SWAP2 SWAP1 POP JUMP JUMPDEST PUSH1 0x0 DUP2 PUSH1 0x3 SIGNEXTEND SWAP1 POP SWAP2 SWAP1 POP JUMP JUMPDEST PUSH1 0x0 PUSH2 0xFFFF DUP3 AND SWAP1 POP SWAP2 SWAP1 POP JUMP JUMPDEST PUSH1 0x0 PUSH20 0xFFFFFFFFFFFFFFFFFFFFFFFFFFFFFFFFFFFFFFFF DUP3 AND SWAP1 POP SWAP2 SWAP1 POP JUMP JUMPDEST PUSH1 0x0 PUSH2 0x714 DUP3 PUSH2 0x6BB JUMP JUMPDEST SWAP1 POP SWAP2 SWAP1 POP JUMP JUMPDEST PUSH1 0x0 JUMPDEST DUP4 DUP2 LT ISZERO PUSH2 0x739 JUMPI DUP1 DUP3 ADD MLOAD DUP2 DUP5 ADD MSTORE PUSH1 0x20 DUP2 ADD SWAP1 POP PUSH2 0x71E JUMP JUMPDEST DUP4 DUP2 GT ISZERO PUSH2 0x748 JUMPI PUSH1 0x0 DUP5 DUP5 ADD MSTORE JUMPDEST POP POP POP POP JUMP JUMPDEST PUSH1 0x0 PUSH1 0x2 DUP3 DIV SWAP1 POP PUSH1 0x1 DUP3 AND DUP1 PUSH2 0x766 JUMPI PUSH1 0x7F DUP3 AND SWAP2 POP JUMPDEST PUSH1 0x20 DUP3 LT DUP2 EQ ISZERO PUSH2 0x77A JUMPI PUSH2 0x779 PUSH2 0x7AF JUMP JUMPDEST JUMPDEST POP SWAP2 SWAP1 POP JUMP JUMPDEST PUSH32 0x4E487B7100000000000000000000000000000000000000000000000000000000 PUSH1 0x0 MSTORE PUSH1 0x21 PUSH1 0x4 MSTORE PUSH1 0x24 PUSH1 0x0 REVERT JUMPDEST PUSH32 0x4E487B7100000000000000000000000000000000000000000000000000000000 PUSH1 0x0 MSTORE PUSH1 0x22 PUSH1 0x4 MSTORE PUSH1 0x24 PUSH1 0x0 REVERT JUMPDEST PUSH1 0x0 PUSH1 0x1F NOT PUSH1 0x1F DUP4 ADD AND SWAP1 POP SWAP2 SWAP1 POP JUMP JUMPDEST PUSH1 0x4 DUP2 LT PUSH2 0x800 JUMPI PUSH2 0x7FF PUSH2 0x780 JUMP JUMPDEST JUMPDEST POP JUMP INVALID LOG2 PUSH5 0x6970667358 0x22 SLT KECCAK256 0xEA AND ADD ADDRESS 0xAF PUSH24 0x5B47182214C88C612BF482C72B93A83689CA72DA29C8B561 0xBD GT PUSH5 0x736F6C6343 STOP ADDMOD SDIV STOP CALLER "
				},
				"gasEstimates": {
					"creation": {
						"codeDepositCost": "421000",
						"executionCost": "infinite",
						"totalCost": "infinite"
					},
					"external": {
						"boolFalse()": "2567",
						"boolTrue()": "2589",
						"c()": "2607",
						"changeToAda()": "24504",
						"changeToBNB()": "24503",
						"changeToBTC()": "24504",
						"changeToEther()": "24547",
						"defaultChoice()": "468",
						"e()": "2563",
						"friendAddress()": "2538",
						"hash_keccak256()": "2519",
						"hash_sha256()": "2474",
						"owner()": "2581",
						"pl()": "infinite",
						"state()": "2677",
						"surname()": "infinite"
					}
				},
				"methodIdentifiers": {
					"boolFalse()": "222a90ac",
					"boolTrue()": "42fb0109",
					"c()": "c3da42b8",
					"changeToAda()": "62b57af4",
					"changeToBNB()": "c4370ebf",
					"changeToBTC()": "91d101af",
					"changeToEther()": "ff4479d8",
					"defaultChoice()": "cd99a846",
					"e()": "ffae15ba",
					"friendAddress()": "0b9239fb",
					"hash_keccak256()": "5c480680",
					"hash_sha256()": "66e41d20",
					"owner()": "8da5cb5b",
					"pl()": "90e1437c",
					"state()": "c19d93fb",
					"surname()": "b38fee92"
				}
			},
			"storageLayout": {
				"storage": [
					{
						"astId": 3,
						"contract": "contracts/2_variable_modifiers.sol:VariableModifiers",
						"label": "a",
						"offset": 0,
						"slot": "0",
						"type": "t_uint256"
					},
					{
						"astId": 6,
						"contract": "contracts/2_variable_modifiers.sol:VariableModifiers",
						"label": "b",
						"offset": 0,
						"slot": "1",
						"type": "t_uint8"
					},
					{
						"astId": 9,
						"contract": "contracts/2_variable_modifiers.sol:VariableModifiers",
						"label": "c",
						"offset": 1,
						"slot": "1",
						"type": "t_uint16"
					},
					{
						"astId": 13,
						"contract": "contracts/2_variable_modifiers.sol:VariableModifiers",
						"label": "d",
						"offset": 0,
						"slot": "2",
						"type": "t_int256"
					},
					{
						"astId": 17,
						"contract": "contracts/2_variable_modifiers.sol:VariableModifiers",
						"label": "e",
						"offset": 0,
						"slot": "3",
						"type": "t_int32"
					},
					{
						"astId": 19,
						"contract": "contracts/2_variable_modifiers.sol:VariableModifiers",
						"label": "surname",
						"offset": 0,
						"slot": "4",
						"type": "t_string_storage"
					},
					{
						"astId": 22,
						"contract": "contracts/2_variable_modifiers.sol:VariableModifiers",
						"label": "name",
						"offset": 0,
						"slot": "5",
						"type": "t_string_storage"
					},
					{
						"astId": 25,
						"contract": "contracts/2_variable_modifiers.sol:VariableModifiers",
						"label": "pl",
						"offset": 0,
						"slot": "6",
						"type": "t_string_storage"
					},
					{
						"astId": 27,
						"contract": "contracts/2_variable_modifiers.sol:VariableModifiers",
						"label": "boolean",
						"offset": 0,
						"slot": "7",
						"type": "t_bool"
					},
					{
						"astId": 30,
						"contract": "contracts/2_variable_modifiers.sol:VariableModifiers",
						"label": "boolTrue",
						"offset": 1,
						"slot": "7",
						"type": "t_bool"
					},
					{
						"astId": 33,
						"contract": "contracts/2_variable_modifiers.sol:VariableModifiers",
						"label": "boolFalse",
						"offset": 2,
						"slot": "7",
						"type": "t_bool"
					},
					{
						"astId": 35,
						"contract": "contracts/2_variable_modifiers.sol:VariableModifiers",
						"label": "testingBytes",
						"offset": 0,
						"slot": "8",
						"type": "t_bytes32"
					},
					{
						"astId": 37,
						"contract": "contracts/2_variable_modifiers.sol:VariableModifiers",
						"label": "lessBytes",
						"offset": 0,
						"slot": "9",
						"type": "t_bytes4"
					},
					{
						"astId": 39,
						"contract": "contracts/2_variable_modifiers.sol:VariableModifiers",
						"label": "eightBytes",
						"offset": 4,
						"slot": "9",
						"type": "t_bytes8"
					},
					{
						"astId": 41,
						"contract": "contracts/2_variable_modifiers.sol:VariableModifiers",
						"label": "oldBytesCrash",
						"offset": 0,
						"slot": "10",
						"type": "t_bytes_storage"
					},
					{
						"astId": 50,
						"contract": "contracts/2_variable_modifiers.sol:VariableModifiers",
						"label": "hash_keccak256",
						"offset": 0,
						"slot": "11",
						"type": "t_bytes32"
					},
					{
						"astId": 58,
						"contract": "contracts/2_variable_modifiers.sol:VariableModifiers",
						"label": "hash_sha256",
						"offset": 0,
						"slot": "12",
						"type": "t_bytes32"
					},
					{
						"astId": 60,
						"contract": "contracts/2_variable_modifiers.sol:VariableModifiers",
						"label": "myAddress",
						"offset": 0,
						"slot": "13",
						"type": "t_address"
					},
					{
						"astId": 63,
						"contract": "contracts/2_variable_modifiers.sol:VariableModifiers",
						"label": "friendAddress",
						"offset": 0,
						"slot": "14",
						"type": "t_address"
					},
					{
						"astId": 67,
						"contract": "contracts/2_variable_modifiers.sol:VariableModifiers",
						"label": "owner",
						"offset": 0,
						"slot": "15",
						"type": "t_address"
					},
					{
						"astId": 80,
						"contract": "contracts/2_variable_modifiers.sol:VariableModifiers",
						"label": "state",
						"offset": 20,
						"slot": "15",
						"type": "t_enum(tokens)72"
					}
				],
				"types": {
					"t_address": {
						"encoding": "inplace",
						"label": "address",
						"numberOfBytes": "20"
					},
					"t_bool": {
						"encoding": "inplace",
						"label": "bool",
						"numberOfBytes": "1"
					},
					"t_bytes32": {
						"encoding": "inplace",
						"label": "bytes32",
						"numberOfBytes": "32"
					},
					"t_bytes4": {
						"encoding": "inplace",
						"label": "bytes4",
						"numberOfBytes": "4"
					},
					"t_bytes8": {
						"encoding": "inplace",
						"label": "bytes8",
						"numberOfBytes": "8"
					},
					"t_bytes_storage": {
						"encoding": "bytes",
						"label": "bytes",
						"numberOfBytes": "32"
					},
					"t_enum(tokens)72": {
						"encoding": "inplace",
						"label": "enum VariableModifiers.tokens",
						"numberOfBytes": "1"
					},
					"t_int256": {
						"encoding": "inplace",
						"label": "int256",
						"numberOfBytes": "32"
					},
					"t_int32": {
						"encoding": "inplace",
						"label": "int32",
						"numberOfBytes": "4"
					},
					"t_string_storage": {
						"encoding": "bytes",
						"label": "string",
						"numberOfBytes": "32"
					},
					"t_uint16": {
						"encoding": "inplace",
						"label": "uint16",
						"numberOfBytes": "2"
					},
					"t_uint256": {
						"encoding": "inplace",
						"label": "uint256",
						"numberOfBytes": "32"
					},
					"t_uint8": {
						"encoding": "inplace",
						"label": "uint8",
						"numberOfBytes": "1"
					}
				}
			},
			"userdoc": {
				"kind": "user",
				"methods": {},
				"version": 1
			}
		}
	}
}